{"abi":[{"type":"function","name":"startBridgeTokensViaHopL1ERC20Min","inputs":[{"name":"transactionId","type":"bytes8","internalType":"bytes8"},{"name":"receiver","type":"address","internalType":"address"},{"name":"destinationChainId","type":"uint256","internalType":"uint256"},{"name":"sendingAssetId","type":"address","internalType":"address"},{"name":"minAmount","type":"uint256","internalType":"uint256"},{"name":"destinationAmountOutMin","type":"uint256","internalType":"uint256"},{"name":"relayer","type":"address","internalType":"address"},{"name":"relayerFee","type":"uint256","internalType":"uint256"},{"name":"hopBridge","type":"address","internalType":"address"}],"outputs":[],"stateMutability":"nonpayable"},{"type":"function","name":"startBridgeTokensViaHopL1ERC20Packed","inputs":[],"outputs":[],"stateMutability":"payable"},{"type":"function","name":"startBridgeTokensViaHopL1NativeMin","inputs":[{"name":"transactionId","type":"bytes8","internalType":"bytes8"},{"name":"receiver","type":"address","internalType":"address"},{"name":"destinationChainId","type":"uint256","internalType":"uint256"},{"name":"destinationAmountOutMin","type":"uint256","internalType":"uint256"},{"name":"relayer","type":"address","internalType":"address"},{"name":"relayerFee","type":"uint256","internalType":"uint256"},{"name":"hopBridge","type":"address","internalType":"address"}],"outputs":[],"stateMutability":"payable"},{"type":"function","name":"startBridgeTokensViaHopL1NativePacked","inputs":[],"outputs":[],"stateMutability":"payable"},{"type":"function","name":"startBridgeTokensViaHopL2ERC20Min","inputs":[{"name":"transactionId","type":"bytes8","internalType":"bytes8"},{"name":"receiver","type":"address","internalType":"address"},{"name":"destinationChainId","type":"uint256","internalType":"uint256"},{"name":"sendingAssetId","type":"address","internalType":"address"},{"name":"minAmount","type":"uint256","internalType":"uint256"},{"name":"bonderFee","type":"uint256","internalType":"uint256"},{"name":"amountOutMin","type":"uint256","internalType":"uint256"},{"name":"destinationAmountOutMin","type":"uint256","internalType":"uint256"},{"name":"destinationDeadline","type":"uint256","internalType":"uint256"},{"name":"hopBridge","type":"address","internalType":"address"}],"outputs":[],"stateMutability":"nonpayable"},{"type":"function","name":"startBridgeTokensViaHopL2ERC20Packed","inputs":[],"outputs":[],"stateMutability":"nonpayable"},{"type":"function","name":"startBridgeTokensViaHopL2NativeMin","inputs":[{"name":"transactionId","type":"bytes8","internalType":"bytes8"},{"name":"receiver","type":"address","internalType":"address"},{"name":"destinationChainId","type":"uint256","internalType":"uint256"},{"name":"bonderFee","type":"uint256","internalType":"uint256"},{"name":"amountOutMin","type":"uint256","internalType":"uint256"},{"name":"destinationAmountOutMin","type":"uint256","internalType":"uint256"},{"name":"destinationDeadline","type":"uint256","internalType":"uint256"},{"name":"hopBridge","type":"address","internalType":"address"}],"outputs":[],"stateMutability":"payable"},{"type":"function","name":"startBridgeTokensViaHopL2NativePacked","inputs":[],"outputs":[],"stateMutability":"payable"}],"bytecode":{"object":"0x608060405234801561001057600080fd5b50610599806100206000396000f3fe60806040526004361061007b5760003560e01c80634b06e05f1161004e5780634b06e05f146100ba57806376e04bbc146100e3578063c5ae0fe61461010c578063c5e04e30146101235761007b565b806304c5aa34146100805780631223354c1461009c578063161be542146100a657806333619a2d146100b0575b600080fd5b61009a60048036038101906100959190610262565b61013f565b005b6100a4610149565b005b6100ae61014b565b005b6100b861014d565b005b3480156100c657600080fd5b506100e160048036038101906100dc9190610318565b61014f565b005b3480156100ef57600080fd5b5061010a600480360381019061010591906103e2565b61015a565b005b34801561011857600080fd5b50610121610166565b005b61013d600480360381019061013891906104c1565b610168565b005b5050505050505050565b565b565b565b505050505050505050565b50505050505050505050565b565b50505050505050565b600080fd5b60007fffffffffffffffff00000000000000000000000000000000000000000000000082169050919050565b6101ab81610176565b81146101b657600080fd5b50565b6000813590506101c8816101a2565b92915050565b600073ffffffffffffffffffffffffffffffffffffffff82169050919050565b60006101f9826101ce565b9050919050565b610209816101ee565b811461021457600080fd5b50565b60008135905061022681610200565b92915050565b6000819050919050565b61023f8161022c565b811461024a57600080fd5b50565b60008135905061025c81610236565b92915050565b600080600080600080600080610100898b03121561028357610282610171565b5b60006102918b828c016101b9565b98505060206102a28b828c01610217565b97505060406102b38b828c0161024d565b96505060606102c48b828c0161024d565b95505060806102d58b828c0161024d565b94505060a06102e68b828c0161024d565b93505060c06102f78b828c0161024d565b92505060e06103088b828c01610217565b9150509295985092959890939650565b60008060008060008060008060006101208a8c03121561033b5761033a610171565b5b60006103498c828d016101b9565b995050602061035a8c828d01610217565b985050604061036b8c828d0161024d565b975050606061037c8c828d01610217565b965050608061038d8c828d0161024d565b95505060a061039e8c828d0161024d565b94505060c06103af8c828d01610217565b93505060e06103c08c828d0161024d565b9250506101006103d28c828d01610217565b9150509295985092959850929598565b6000806000806000806000806000806101408b8d03121561040657610405610171565b5b60006104148d828e016101b9565b9a505060206104258d828e01610217565b99505060406104368d828e0161024d565b98505060606104478d828e01610217565b97505060806104588d828e0161024d565b96505060a06104698d828e0161024d565b95505060c061047a8d828e0161024d565b94505060e061048b8d828e0161024d565b93505061010061049d8d828e0161024d565b9250506101206104af8d828e01610217565b9150509295989b9194979a5092959850565b600080600080600080600060e0888a0312156104e0576104df610171565b5b60006104ee8a828b016101b9565b97505060206104ff8a828b01610217565b96505060406105108a828b0161024d565b95505060606105218a828b0161024d565b94505060806105328a828b01610217565b93505060a06105438a828b0161024d565b92505060c06105548a828b01610217565b9150509295989194975092955056fea26469706673582212201b79e1153b6444bb21f0680fd8571b03386aee870b951be57548cc4993762f8164736f6c63430008170033","linkReferences":{}},"methodIdentifiers":{"startBridgeTokensViaHopL1ERC20Min(bytes8,address,uint256,address,uint256,uint256,address,uint256,address)":"4b06e05f","startBridgeTokensViaHopL1ERC20Packed()":"33619a2d","startBridgeTokensViaHopL1NativeMin(bytes8,address,uint256,uint256,address,uint256,address)":"c5e04e30","startBridgeTokensViaHopL1NativePacked()":"1223354c","startBridgeTokensViaHopL2ERC20Min(bytes8,address,uint256,address,uint256,uint256,uint256,uint256,uint256,address)":"76e04bbc","startBridgeTokensViaHopL2ERC20Packed()":"c5ae0fe6","startBridgeTokensViaHopL2NativeMin(bytes8,address,uint256,uint256,uint256,uint256,uint256,address)":"04c5aa34","startBridgeTokensViaHopL2NativePacked()":"161be542"},"id":202}