{"abi":[{"type":"function","name":"startBridgeTokensViaStargate","inputs":[{"name":"_bridgeData","type":"tuple","internalType":"struct ILiFi.BridgeData","components":[{"name":"transactionId","type":"bytes32","internalType":"bytes32"},{"name":"bridge","type":"string","internalType":"string"},{"name":"integrator","type":"string","internalType":"string"},{"name":"referrer","type":"address","internalType":"address"},{"name":"sendingAssetId","type":"address","internalType":"address"},{"name":"receiver","type":"address","internalType":"address"},{"name":"minAmount","type":"uint256","internalType":"uint256"},{"name":"destinationChainId","type":"uint256","internalType":"uint256"},{"name":"hasSourceSwaps","type":"bool","internalType":"bool"},{"name":"hasDestinationCall","type":"bool","internalType":"bool"}]},{"name":"_stargateData","type":"tuple","internalType":"struct StargateFacet.StargateData","components":[{"name":"srcPoolId","type":"uint256","internalType":"uint256"},{"name":"dstPoolId","type":"uint256","internalType":"uint256"},{"name":"minAmountLD","type":"uint256","internalType":"uint256"},{"name":"dstGasForCall","type":"uint256","internalType":"uint256"},{"name":"lzFee","type":"uint256","internalType":"uint256"},{"name":"refundAddress","type":"address","internalType":"address payable"},{"name":"callTo","type":"bytes","internalType":"bytes"},{"name":"callData","type":"bytes","internalType":"bytes"}]}],"outputs":[],"stateMutability":"payable"},{"type":"function","name":"swapAndStartBridgeTokensViaStargate","inputs":[{"name":"_bridgeData","type":"tuple","internalType":"struct ILiFi.BridgeData","components":[{"name":"transactionId","type":"bytes32","internalType":"bytes32"},{"name":"bridge","type":"string","internalType":"string"},{"name":"integrator","type":"string","internalType":"string"},{"name":"referrer","type":"address","internalType":"address"},{"name":"sendingAssetId","type":"address","internalType":"address"},{"name":"receiver","type":"address","internalType":"address"},{"name":"minAmount","type":"uint256","internalType":"uint256"},{"name":"destinationChainId","type":"uint256","internalType":"uint256"},{"name":"hasSourceSwaps","type":"bool","internalType":"bool"},{"name":"hasDestinationCall","type":"bool","internalType":"bool"}]},{"name":"_swapData","type":"tuple[]","internalType":"struct LibSwap.SwapData[]","components":[{"name":"callTo","type":"address","internalType":"address"},{"name":"approveTo","type":"address","internalType":"address"},{"name":"sendingAssetId","type":"address","internalType":"address"},{"name":"receivingAssetId","type":"address","internalType":"address"},{"name":"fromAmount","type":"uint256","internalType":"uint256"},{"name":"callData","type":"bytes","internalType":"bytes"},{"name":"requiresDeposit","type":"bool","internalType":"bool"}]},{"name":"_stargateData","type":"tuple","internalType":"struct StargateFacet.StargateData","components":[{"name":"srcPoolId","type":"uint256","internalType":"uint256"},{"name":"dstPoolId","type":"uint256","internalType":"uint256"},{"name":"minAmountLD","type":"uint256","internalType":"uint256"},{"name":"dstGasForCall","type":"uint256","internalType":"uint256"},{"name":"lzFee","type":"uint256","internalType":"uint256"},{"name":"refundAddress","type":"address","internalType":"address payable"},{"name":"callTo","type":"bytes","internalType":"bytes"},{"name":"callData","type":"bytes","internalType":"bytes"}]}],"outputs":[],"stateMutability":"payable"}],"bytecode":{"object":"0x608060405234801561001057600080fd5b50610603806100206000396000f3fe6080604052600436106100295760003560e01c8063be1eace71461002e578063ed1786191461004a575b600080fd5b610048600480360381019061004391906100c9565b610066565b005b610064600480360381019061005f9190610521565b61006a565b005b5050565b50505050565b6000604051905090565b600080fd5b600080fd5b600080fd5b600061014082840312156100a05761009f610084565b5b81905092915050565b600061010082840312156100c0576100bf610084565b5b81905092915050565b600080604083850312156100e0576100df61007a565b5b600083013567ffffffffffffffff8111156100fe576100fd61007f565b5b61010a85828601610089565b925050602083013567ffffffffffffffff81111561012b5761012a61007f565b5b610137858286016100a9565b9150509250929050565b600080fd5b6000601f19601f8301169050919050565b7f4e487b7100000000000000000000000000000000000000000000000000000000600052604160045260246000fd5b61018f82610146565b810181811067ffffffffffffffff821117156101ae576101ad610157565b5b80604052505050565b60006101c1610070565b90506101cd8282610186565b919050565b600080fd5b6000819050919050565b6101ea816101d7565b81146101f557600080fd5b50565b600081359050610207816101e1565b92915050565b600080fd5b600080fd5b600067ffffffffffffffff82111561023257610231610157565b5b61023b82610146565b9050602081019050919050565b82818337600083830152505050565b600061026a61026584610217565b6101b7565b90508281526020810184848401111561028657610285610212565b5b610291848285610248565b509392505050565b600082601f8301126102ae576102ad61020d565b5b81356102be848260208601610257565b91505092915050565b600073ffffffffffffffffffffffffffffffffffffffff82169050919050565b60006102f2826102c7565b9050919050565b610302816102e7565b811461030d57600080fd5b50565b60008135905061031f816102f9565b92915050565b6000819050919050565b61033881610325565b811461034357600080fd5b50565b6000813590506103558161032f565b92915050565b60008115159050919050565b6103708161035b565b811461037b57600080fd5b50565b60008135905061038d81610367565b92915050565b600061014082840312156103aa576103a9610141565b5b6103b56101406101b7565b905060006103c5848285016101f8565b600083015250602082013567ffffffffffffffff8111156103e9576103e86101d2565b5b6103f584828501610299565b602083015250604082013567ffffffffffffffff811115610419576104186101d2565b5b61042584828501610299565b604083015250606061043984828501610310565b606083015250608061044d84828501610310565b60808301525060a061046184828501610310565b60a08301525060c061047584828501610346565b60c08301525060e061048984828501610346565b60e08301525061010061049e8482850161037e565b610100830152506101206104b48482850161037e565b6101208301525092915050565b600080fd5b600080fd5b60008083601f8401126104e1576104e061020d565b5b8235905067ffffffffffffffff8111156104fe576104fd6104c1565b5b60208301915083602082028301111561051a576105196104c6565b5b9250929050565b6000806000806060858703121561053b5761053a61007a565b5b600085013567ffffffffffffffff8111156105595761055861007f565b5b61056587828801610393565b945050602085013567ffffffffffffffff8111156105865761058561007f565b5b610592878288016104cb565b9350935050604085013567ffffffffffffffff8111156105b5576105b461007f565b5b6105c1878288016100a9565b9150509295919450925056fea2646970667358221220608c29c1b2c8e2da4b2eef6412fa222f413888781bdc18bd54e9c4dbc0228ccd64736f6c63430008170033","linkReferences":{}},"methodIdentifiers":{"startBridgeTokensViaStargate((bytes32,string,string,address,address,address,uint256,uint256,bool,bool),(uint256,uint256,uint256,uint256,uint256,address,bytes,bytes))":"be1eace7","swapAndStartBridgeTokensViaStargate((bytes32,string,string,address,address,address,uint256,uint256,bool,bool),(address,address,address,address,uint256,bytes,bool)[],(uint256,uint256,uint256,uint256,uint256,address,bytes,bytes))":"ed178619"},"id":208}