{"abi":[{"type":"constructor","inputs":[{"name":"superRegistry_","type":"address","internalType":"contract ISuperRegistry"}],"stateMutability":"nonpayable"},{"type":"function","name":"broadcastPayload","inputs":[{"name":"srcSender_","type":"address","internalType":"address"},{"name":"ambId_","type":"uint8","internalType":"uint8"},{"name":"gasFee_","type":"uint256","internalType":"uint256"},{"name":"message_","type":"bytes","internalType":"bytes"},{"name":"extraData_","type":"bytes","internalType":"bytes"}],"outputs":[],"stateMutability":"payable"},{"type":"function","name":"payload","inputs":[{"name":"","type":"uint256","internalType":"uint256"}],"outputs":[{"name":"","type":"bytes","internalType":"bytes"}],"stateMutability":"view"},{"type":"function","name":"payloadTracking","inputs":[{"name":"","type":"uint256","internalType":"uint256"}],"outputs":[{"name":"","type":"uint8","internalType":"enum PayloadState"}],"stateMutability":"view"},{"type":"function","name":"payloadsCount","inputs":[],"outputs":[{"name":"","type":"uint256","internalType":"uint256"}],"stateMutability":"view"},{"type":"function","name":"processPayload","inputs":[{"name":"payloadId","type":"uint256","internalType":"uint256"}],"outputs":[],"stateMutability":"nonpayable"},{"type":"function","name":"receiveBroadcastPayload","inputs":[{"name":"srcChainId_","type":"uint64","internalType":"uint64"},{"name":"message_","type":"bytes","internalType":"bytes"}],"outputs":[],"stateMutability":"nonpayable"},{"type":"function","name":"srcChainId","inputs":[{"name":"","type":"uint256","internalType":"uint256"}],"outputs":[{"name":"","type":"uint64","internalType":"uint64"}],"stateMutability":"view"},{"type":"function","name":"superRegistry","inputs":[],"outputs":[{"name":"","type":"address","internalType":"contract ISuperRegistry"}],"stateMutability":"view"},{"type":"event","name":"PayloadReceived","inputs":[{"name":"payloadId","type":"uint256","indexed":true,"internalType":"uint256"},{"name":"srcChainId","type":"uint64","indexed":true,"internalType":"uint64"}],"anonymous":false},{"type":"event","name":"PayloadSent","inputs":[{"name":"sender","type":"address","indexed":true,"internalType":"address"}],"anonymous":false},{"type":"error","name":"FAILED_TO_SEND_NATIVE","inputs":[]},{"type":"error","name":"INVALID_BROADCAST_FEE","inputs":[]},{"type":"error","name":"INVALID_PAYLOAD_ID","inputs":[]},{"type":"error","name":"NOT_ALLOWED_BROADCASTER","inputs":[]},{"type":"error","name":"NOT_BROADCAST_AMB_IMPLEMENTATION","inputs":[]},{"type":"error","name":"NOT_PRIVILEGED_CALLER","inputs":[{"name":"role","type":"bytes32","internalType":"bytes32"}]},{"type":"error","name":"PAYLOAD_ALREADY_PROCESSED","inputs":[]}],"bytecode":{"object":"0x60a06040523480156200001157600080fd5b5060405162001aff38038062001aff8339818101604052810190620000379190620000f0565b8073ffffffffffffffffffffffffffffffffffffffff1660808173ffffffffffffffffffffffffffffffffffffffff16815250505062000122565b600080fd5b600073ffffffffffffffffffffffffffffffffffffffff82169050919050565b6000620000a48262000077565b9050919050565b6000620000b88262000097565b9050919050565b620000ca81620000ab565b8114620000d657600080fd5b50565b600081519050620000ea81620000bf565b92915050565b60006020828403121562000109576200010862000072565b5b60006200011984828501620000d9565b91505092915050565b60805161199e62000161600039600081816101fd01528181610386015281816103cf015281816107030152818161082e0152610bc9015261199e6000f3fe60806040526004361061007b5760003560e01c8063b63d36a51161004e578063b63d36a514610128578063c63304f614610165578063dab5117514610181578063e941d694146101be5761007b565b80630b0d73a01461008057806313c02a59146100a957806324c73dda146100d45780635aef9480146100ff575b600080fd5b34801561008c57600080fd5b506100a760048036038101906100a29190610e71565b6101fb565b005b3480156100b557600080fd5b506100be61037e565b6040516100cb9190610ee6565b60405180910390f35b3480156100e057600080fd5b506100e9610384565b6040516100f69190610f80565b60405180910390f35b34801561010b57600080fd5b5061012660048036038101906101219190610fc7565b6103a8565b005b34801561013457600080fd5b5061014f600480360381019061014a9190610fc7565b61080c565b60405161015c919061106b565b60405180910390f35b61017f600480360381019061017a91906110fd565b61082c565b005b34801561018d57600080fd5b506101a860048036038101906101a39190610fc7565b610b00565b6040516101b591906111bf565b60405180910390f35b3480156101ca57600080fd5b506101e560048036038101906101e09190610fc7565b610b27565b6040516101f29190611259565b60405180910390f35b7f000000000000000000000000000000000000000000000000000000000000000073ffffffffffffffffffffffffffffffffffffffff166395fdab87336040518263ffffffff1660e01b8152600401610254919061128a565b602060405180830381865afa158015610271573d6000803e3d6000fd5b505050506040513d601f19601f8201168201806040525081019061029591906112dd565b6102cb576040517fb3af61c900000000000000000000000000000000000000000000000000000000815260040160405180910390fd5b60008081546102d990611339565b91905081905550600080549050816001600083815260200190815260200160002090816103069190611583565b50826002600083815260200190815260200160002060006101000a81548167ffffffffffffffff021916908367ffffffffffffffff1602179055508267ffffffffffffffff16817f3cbbf88311f85f0dd356bbc7a103fb914d00ee790755546135b189433a8284bc60405160405180910390a3505050565b60005481565b7f000000000000000000000000000000000000000000000000000000000000000081565b60007fbc04cc915ae49862455f81e94a0b624d54c65f74ec4700f8249a99a5ac18cf5690507f000000000000000000000000000000000000000000000000000000000000000073ffffffffffffffffffffffffffffffffffffffff166321f8a7217f6b50fa17b77d24e42e27a04b69fe50cd6967cfb767d18de0bd5fe7e1a32aa8686040518263ffffffff1660e01b8152600401610446919061166e565b602060405180830381865afa158015610463573d6000803e3d6000fd5b505050506040513d601f19601f82011682018060405250810190610487919061169e565b73ffffffffffffffffffffffffffffffffffffffff166391d1485482336040518363ffffffff1660e01b81526004016104c19291906116cb565b602060405180830381865afa1580156104de573d6000803e3d6000fd5b505050506040513d601f19601f8201168201806040525081019061050291906112dd565b61054357806040517fc2703cd600000000000000000000000000000000000000000000000000000000815260040161053a919061166e565b60405180910390fd5b60005482111561057f576040517fabb4594600000000000000000000000000000000000000000000000000000000815260040160405180910390fd5b6000600281111561059357610592610ff4565b5b6003600084815260200190815260200160002060009054906101000a900460ff1660028111156105c6576105c5610ff4565b5b146105fd576040517f5b114e0500000000000000000000000000000000000000000000000000000000815260040160405180910390fd5b600060016000848152602001908152602001600020805461061d906113b0565b80601f0160208091040260200160405190810160405280929190818152602001828054610649906113b0565b80156106965780601f1061066b57610100808354040283529160200191610696565b820191906000526020600020905b81548152906001019060200180831161067957829003601f168201915b505050505090506000818060200190518101906106b39190611836565b90506000816000015180519060200120905060026003600087815260200190815260200160002060006101000a81548160ff021916908360028111156106fc576106fb610ff4565b5b02179055507f000000000000000000000000000000000000000000000000000000000000000073ffffffffffffffffffffffffffffffffffffffff166321f8a721826040518263ffffffff1660e01b815260040161075a919061166e565b602060405180830381865afa158015610777573d6000803e3d6000fd5b505050506040513d601f19601f8201168201806040525081019061079b919061169e565b73ffffffffffffffffffffffffffffffffffffffff1663e6ddad4c846040518263ffffffff1660e01b81526004016107d39190611259565b600060405180830381600087803b1580156107ed57600080fd5b505af1158015610801573d6000803e3d6000fd5b505050505050505050565b60036020528060005260406000206000915054906101000a900460ff1681565b7f000000000000000000000000000000000000000000000000000000000000000073ffffffffffffffffffffffffffffffffffffffff166321f8a7217f6b50fa17b77d24e42e27a04b69fe50cd6967cfb767d18de0bd5fe7e1a32aa8686040518263ffffffff1660e01b81526004016108a5919061166e565b602060405180830381865afa1580156108c2573d6000803e3d6000fd5b505050506040513d601f19601f820116820180604052508101906108e6919061169e565b73ffffffffffffffffffffffffffffffffffffffff166391d148547f4a20cc833c13f0b7e71c8c74810a8f97737829513da1fbb806c0d9d370cf497e336040518363ffffffff1660e01b81526004016109409291906116cb565b602060405180830381865afa15801561095d573d6000803e3d6000fd5b505050506040513d601f19601f8201168201806040525081019061098191906112dd565b6109b7576040517f5ac755f100000000000000000000000000000000000000000000000000000000815260040160405180910390fd5b823410156109f1576040517f1961e86700000000000000000000000000000000000000000000000000000000815260040160405180910390fd5b6109fe8585858585610bc7565b82341115610ab65760008573ffffffffffffffffffffffffffffffffffffffff168434610a2b919061187f565b604051610a37906118e4565b60006040518083038185875af1925050503d8060008114610a74576040519150601f19603f3d011682016040523d82523d6000602084013e610a79565b606091505b5050905080610ab4576040517f220d375300000000000000000000000000000000000000000000000000000000815260040160405180910390fd5b505b8473ffffffffffffffffffffffffffffffffffffffff167f5e10bd6d6296f5f5b3c8539c118dc0d34183ccb465c9504b1b1e3f05ea835cde60405160405180910390a25050505050565b60026020528060005260406000206000915054906101000a900467ffffffffffffffff1681565b60016020528060005260406000206000915090508054610b46906113b0565b80601f0160208091040260200160405190810160405280929190818152602001828054610b72906113b0565b8015610bbf5780601f10610b9457610100808354040283529160200191610bbf565b820191906000526020600020905b815481529060010190602001808311610ba257829003601f168201915b505050505081565b7f000000000000000000000000000000000000000000000000000000000000000073ffffffffffffffffffffffffffffffffffffffff16630eff125d856040518263ffffffff1660e01b8152600401610c209190611908565b602060405180830381865afa158015610c3d573d6000803e3d6000fd5b505050506040513d601f19601f82011682018060405250810190610c61919061169e565b73ffffffffffffffffffffffffffffffffffffffff1663082fa139848785856040518563ffffffff1660e01b8152600401610c9e93929190611923565b6000604051808303818588803b158015610cb757600080fd5b505af1158015610ccb573d6000803e3d6000fd5b50505050505050505050565b6000604051905090565b600080fd5b600080fd5b600067ffffffffffffffff82169050919050565b610d0881610ceb565b8114610d1357600080fd5b50565b600081359050610d2581610cff565b92915050565b600080fd5b600080fd5b6000601f19601f8301169050919050565b7f4e487b7100000000000000000000000000000000000000000000000000000000600052604160045260246000fd5b610d7e82610d35565b810181811067ffffffffffffffff82111715610d9d57610d9c610d46565b5b80604052505050565b6000610db0610cd7565b9050610dbc8282610d75565b919050565b600067ffffffffffffffff821115610ddc57610ddb610d46565b5b610de582610d35565b9050602081019050919050565b82818337600083830152505050565b6000610e14610e0f84610dc1565b610da6565b905082815260208101848484011115610e3057610e2f610d30565b5b610e3b848285610df2565b509392505050565b600082601f830112610e5857610e57610d2b565b5b8135610e68848260208601610e01565b91505092915050565b60008060408385031215610e8857610e87610ce1565b5b6000610e9685828601610d16565b925050602083013567ffffffffffffffff811115610eb757610eb6610ce6565b5b610ec385828601610e43565b9150509250929050565b6000819050919050565b610ee081610ecd565b82525050565b6000602082019050610efb6000830184610ed7565b92915050565b600073ffffffffffffffffffffffffffffffffffffffff82169050919050565b6000819050919050565b6000610f46610f41610f3c84610f01565b610f21565b610f01565b9050919050565b6000610f5882610f2b565b9050919050565b6000610f6a82610f4d565b9050919050565b610f7a81610f5f565b82525050565b6000602082019050610f956000830184610f71565b92915050565b610fa481610ecd565b8114610faf57600080fd5b50565b600081359050610fc181610f9b565b92915050565b600060208284031215610fdd57610fdc610ce1565b5b6000610feb84828501610fb2565b91505092915050565b7f4e487b7100000000000000000000000000000000000000000000000000000000600052602160045260246000fd5b6003811061103457611033610ff4565b5b50565b600081905061104582611023565b919050565b600061105582611037565b9050919050565b6110658161104a565b82525050565b6000602082019050611080600083018461105c565b92915050565b600061109182610f01565b9050919050565b6110a181611086565b81146110ac57600080fd5b50565b6000813590506110be81611098565b92915050565b600060ff82169050919050565b6110da816110c4565b81146110e557600080fd5b50565b6000813590506110f7816110d1565b92915050565b600080600080600060a0868803121561111957611118610ce1565b5b6000611127888289016110af565b9550506020611138888289016110e8565b945050604061114988828901610fb2565b935050606086013567ffffffffffffffff81111561116a57611169610ce6565b5b61117688828901610e43565b925050608086013567ffffffffffffffff81111561119757611196610ce6565b5b6111a388828901610e43565b9150509295509295909350565b6111b981610ceb565b82525050565b60006020820190506111d460008301846111b0565b92915050565b600081519050919050565b600082825260208201905092915050565b60005b838110156112145780820151818401526020810190506111f9565b60008484015250505050565b600061122b826111da565b61123581856111e5565b93506112458185602086016111f6565b61124e81610d35565b840191505092915050565b600060208201905081810360008301526112738184611220565b905092915050565b61128481611086565b82525050565b600060208201905061129f600083018461127b565b92915050565b60008115159050919050565b6112ba816112a5565b81146112c557600080fd5b50565b6000815190506112d7816112b1565b92915050565b6000602082840312156112f3576112f2610ce1565b5b6000611301848285016112c8565b91505092915050565b7f4e487b7100000000000000000000000000000000000000000000000000000000600052601160045260246000fd5b600061134482610ecd565b91507fffffffffffffffffffffffffffffffffffffffffffffffffffffffffffffffff82036113765761137561130a565b5b600182019050919050565b7f4e487b7100000000000000000000000000000000000000000000000000000000600052602260045260246000fd5b600060028204905060018216806113c857607f821691505b6020821081036113db576113da611381565b5b50919050565b60008190508160005260206000209050919050565b60006020601f8301049050919050565b600082821b905092915050565b6000600883026114437fffffffffffffffffffffffffffffffffffffffffffffffffffffffffffffffff82611406565b61144d8683611406565b95508019841693508086168417925050509392505050565b600061148061147b61147684610ecd565b610f21565b610ecd565b9050919050565b6000819050919050565b61149a83611465565b6114ae6114a682611487565b848454611413565b825550505050565b600090565b6114c36114b6565b6114ce818484611491565b505050565b5b818110156114f2576114e76000826114bb565b6001810190506114d4565b5050565b601f82111561153757611508816113e1565b611511846113f6565b81016020851015611520578190505b61153461152c856113f6565b8301826114d3565b50505b505050565b600082821c905092915050565b600061155a6000198460080261153c565b1980831691505092915050565b60006115738383611549565b9150826002028217905092915050565b61158c826111da565b67ffffffffffffffff8111156115a5576115a4610d46565b5b6115af82546113b0565b6115ba8282856114f6565b600060209050601f8311600181146115ed57600084156115db578287015190505b6115e58582611567565b86555061164d565b601f1984166115fb866113e1565b60005b82811015611623578489015182556001820191506020850194506020810190506115fe565b86831015611640578489015161163c601f891682611549565b8355505b6001600288020188555050505b505050505050565b6000819050919050565b61166881611655565b82525050565b6000602082019050611683600083018461165f565b92915050565b60008151905061169881611098565b92915050565b6000602082840312156116b4576116b3610ce1565b5b60006116c284828501611689565b91505092915050565b60006040820190506116e0600083018561165f565b6116ed602083018461127b565b9392505050565b600080fd5b600080fd5b600061171161170c84610dc1565b610da6565b90508281526020810184848401111561172d5761172c610d30565b5b6117388482856111f6565b509392505050565b600082601f83011261175557611754610d2b565b5b81516117658482602086016116fe565b91505092915050565b61177781611655565b811461178257600080fd5b50565b6000815190506117948161176e565b92915050565b6000606082840312156117b0576117af6116f4565b5b6117ba6060610da6565b9050600082015167ffffffffffffffff8111156117da576117d96116f9565b5b6117e684828501611740565b60008301525060206117fa84828501611785565b602083015250604082015167ffffffffffffffff81111561181e5761181d6116f9565b5b61182a84828501611740565b60408301525092915050565b60006020828403121561184c5761184b610ce1565b5b600082015167ffffffffffffffff81111561186a57611869610ce6565b5b6118768482850161179a565b91505092915050565b600061188a82610ecd565b915061189583610ecd565b92508282039050818111156118ad576118ac61130a565b5b92915050565b600081905092915050565b50565b60006118ce6000836118b3565b91506118d9826118be565b600082019050919050565b60006118ef826118c1565b9150819050919050565b611902816110c4565b82525050565b600060208201905061191d60008301846118f9565b92915050565b6000606082019050611938600083018661127b565b818103602083015261194a8185611220565b9050818103604083015261195e8184611220565b905094935050505056fea2646970667358221220cd2f997e4b33f94ef0f07f155b2a6e630d793df1387513ee06402ce6847dea2764736f6c63430008170033","linkReferences":{}},"methodIdentifiers":{"broadcastPayload(address,uint8,uint256,bytes,bytes)":"c63304f6","payload(uint256)":"e941d694","payloadTracking(uint256)":"b63d36a5","payloadsCount()":"13c02a59","processPayload(uint256)":"5aef9480","receiveBroadcastPayload(uint64,bytes)":"0b0d73a0","srcChainId(uint256)":"dab51175","superRegistry()":"24c73dda"},"id":118}