{"abi":[{"type":"constructor","inputs":[],"stateMutability":"nonpayable"},{"type":"function","name":"currentTimestamp","inputs":[],"outputs":[{"name":"","type":"uint256","internalType":"uint256"}],"stateMutability":"view"},{"type":"function","name":"increaseCurrentTimestamp","inputs":[{"name":"timeJump","type":"uint256","internalType":"uint256"}],"outputs":[],"stateMutability":"nonpayable"}],"bytecode":{"object":"0x608060405234801561001057600080fd5b50426000819055506101c1806100276000396000f3fe608060405234801561001057600080fd5b50600436106100365760003560e01c80631e2ff94f1461003b578063c035211414610059575b600080fd5b610043610075565b60405161005091906100af565b60405180910390f35b610073600480360381019061006e91906100fb565b61007b565b005b60005481565b8060008082825461008c9190610157565b9250508190555050565b6000819050919050565b6100a981610096565b82525050565b60006020820190506100c460008301846100a0565b92915050565b600080fd5b6100d881610096565b81146100e357600080fd5b50565b6000813590506100f5816100cf565b92915050565b600060208284031215610111576101106100ca565b5b600061011f848285016100e6565b91505092915050565b7f4e487b7100000000000000000000000000000000000000000000000000000000600052601160045260246000fd5b600061016282610096565b915061016d83610096565b925082820190508082111561018557610184610128565b5b9291505056fea26469706673582212208b20081a236a4913acfe5e0c9a6bc5db112f2e4af973e5a420d77652158e867464736f6c63430008170033","linkReferences":{}},"methodIdentifiers":{"currentTimestamp()":"1e2ff94f","increaseCurrentTimestamp(uint256)":"c0352114"},"id":317}