{"abi":[{"type":"constructor","inputs":[{"name":"superRegistry_","type":"address","internalType":"contract ISuperRegistry"}],"stateMutability":"nonpayable"},{"type":"function","name":"ambChainId","inputs":[{"name":"","type":"uint64","internalType":"uint64"}],"outputs":[{"name":"","type":"uint32","internalType":"uint32"}],"stateMutability":"view"},{"type":"function","name":"authorizedImpl","inputs":[{"name":"","type":"uint32","internalType":"uint32"}],"outputs":[{"name":"","type":"address","internalType":"address"}],"stateMutability":"view"},{"type":"function","name":"dispatchPayload","inputs":[{"name":"srcSender_","type":"address","internalType":"address"},{"name":"dstChainId_","type":"uint64","internalType":"uint64"},{"name":"message_","type":"bytes","internalType":"bytes"},{"name":"extraData_","type":"bytes","internalType":"bytes"}],"outputs":[],"stateMutability":"payable"},{"type":"function","name":"estimateFees","inputs":[{"name":"dstChainId_","type":"uint64","internalType":"uint64"},{"name":"message_","type":"bytes","internalType":"bytes"},{"name":"extraData_","type":"bytes","internalType":"bytes"}],"outputs":[{"name":"fees","type":"uint256","internalType":"uint256"}],"stateMutability":"view"},{"type":"function","name":"generateExtraData","inputs":[{"name":"gasLimit","type":"uint256","internalType":"uint256"}],"outputs":[{"name":"extraData","type":"bytes","internalType":"bytes"}],"stateMutability":"pure"},{"type":"function","name":"handle","inputs":[{"name":"origin_","type":"uint32","internalType":"uint32"},{"name":"sender_","type":"bytes32","internalType":"bytes32"},{"name":"body_","type":"bytes","internalType":"bytes"}],"outputs":[],"stateMutability":"payable"},{"type":"function","name":"igp","inputs":[],"outputs":[{"name":"","type":"address","internalType":"contract IInterchainGasPaymaster"}],"stateMutability":"view"},{"type":"function","name":"mailbox","inputs":[],"outputs":[{"name":"","type":"address","internalType":"contract IMailbox"}],"stateMutability":"view"},{"type":"function","name":"processedMessages","inputs":[{"name":"","type":"bytes32","internalType":"bytes32"}],"outputs":[{"name":"","type":"bool","internalType":"bool"}],"stateMutability":"view"},{"type":"function","name":"retryPayload","inputs":[{"name":"data_","type":"bytes","internalType":"bytes"}],"outputs":[],"stateMutability":"payable"},{"type":"function","name":"setChainId","inputs":[{"name":"superChainId_","type":"uint64","internalType":"uint64"},{"name":"ambChainId_","type":"uint32","internalType":"uint32"}],"outputs":[],"stateMutability":"nonpayable"},{"type":"function","name":"setHyperlaneConfig","inputs":[{"name":"mailbox_","type":"address","internalType":"contract IMailbox"},{"name":"igp_","type":"address","internalType":"contract IInterchainGasPaymaster"}],"outputs":[],"stateMutability":"nonpayable"},{"type":"function","name":"setReceiver","inputs":[{"name":"domain_","type":"uint32","internalType":"uint32"},{"name":"authorizedImpl_","type":"address","internalType":"address"}],"outputs":[],"stateMutability":"nonpayable"},{"type":"function","name":"superChainId","inputs":[{"name":"","type":"uint32","internalType":"uint32"}],"outputs":[{"name":"","type":"uint64","internalType":"uint64"}],"stateMutability":"view"},{"type":"function","name":"superRegistry","inputs":[],"outputs":[{"name":"","type":"address","internalType":"contract ISuperRegistry"}],"stateMutability":"view"},{"type":"event","name":"AuthorizedImplAdded","inputs":[{"name":"superChainId","type":"uint64","indexed":true,"internalType":"uint64"},{"name":"authImpl","type":"address","indexed":true,"internalType":"address"}],"anonymous":false},{"type":"event","name":"ChainAdded","inputs":[{"name":"superChainId","type":"uint64","indexed":true,"internalType":"uint64"}],"anonymous":false},{"type":"event","name":"GasPayMasterAdded","inputs":[{"name":"_igp","type":"address","indexed":true,"internalType":"address"}],"anonymous":false},{"type":"event","name":"MailboxAdded","inputs":[{"name":"_newMailbox","type":"address","indexed":true,"internalType":"address"}],"anonymous":false},{"type":"error","name":"CALLER_NOT_MAILBOX","inputs":[]},{"type":"error","name":"DUPLICATE_PAYLOAD","inputs":[]},{"type":"error","name":"INVALID_CHAIN_ID","inputs":[]},{"type":"error","name":"INVALID_RETRY_FEE","inputs":[]},{"type":"error","name":"INVALID_SRC_SENDER","inputs":[]},{"type":"error","name":"NOT_PROTOCOL_ADMIN","inputs":[]},{"type":"error","name":"NOT_STATE_REGISTRY","inputs":[]},{"type":"error","name":"ZERO_ADDRESS","inputs":[]}],"bytecode":{"object":"0x60a06040523480156200001157600080fd5b5060405162002805380380620028058339818101604052810190620000379190620000f0565b8073ffffffffffffffffffffffffffffffffffffffff1660808173ffffffffffffffffffffffffffffffffffffffff16815250505062000122565b600080fd5b600073ffffffffffffffffffffffffffffffffffffffff82169050919050565b6000620000a48262000077565b9050919050565b6000620000b88262000097565b9050919050565b620000ca81620000ab565b8114620000d657600080fd5b50565b600081519050620000ea81620000bf565b92915050565b60006020828403121562000109576200010862000072565b5b60006200011984828501620000d9565b91505092915050565b6080516126a462000161600039600081816103d00152818161082101528181610a3e01528181610c1701528181610e5e01526111ec01526126a46000f3fe6080604052600436106100e85760003560e01c806388ba16ab1161008a578063d5438eae11610059578063d5438eae146102db578063e231ec9a14610306578063ea98b14714610343578063f28b2daa14610380576100e8565b806388ba16ab146102305780639783d0ef1461026d578063a10f27e314610289578063afed96dd146102b2576100e8565b806324c73dda116100c657806324c73dda1461016f57806325fc6dd01461019a57806356d5d475146101d7578063857f2557146101f3576100e8565b806309bec2c1146100ed57806309f378121461012a5780630fbb7cbc14610153575b600080fd5b3480156100f957600080fd5b50610114600480360381019061010f9190611831565b6103ab565b604051610121919061187d565b60405180910390f35b34801561013657600080fd5b50610151600480360381019061014c9190611922565b6103ce565b005b61016d60048036038101906101689190611aa8565b610689565b005b34801561017b57600080fd5b5061018461081f565b6040516101919190611b50565b60405180910390f35b3480156101a657600080fd5b506101c160048036038101906101bc9190611ba1565b610843565b6040516101ce9190611c4d565b60405180910390f35b6101f160048036038101906101ec9190611d05565b61086c565b005b3480156101ff57600080fd5b5061021a60048036038101906102159190611d79565b610bce565b6040516102279190611db5565b60405180910390f35b34801561023c57600080fd5b5061025760048036038101906102529190611dd0565b610bf5565b6040516102649190611e18565b60405180910390f35b61028760048036038101906102829190611e33565b610c15565b005b34801561029557600080fd5b506102b060048036038101906102ab9190611ed2565b610e5c565b005b3480156102be57600080fd5b506102d960048036038101906102d49190611f8e565b6111ea565b005b3480156102e757600080fd5b506102f06114fc565b6040516102fd9190611fef565b60405180910390f35b34801561031257600080fd5b5061032d60048036038101906103289190611d79565b611520565b60405161033a9190612019565b60405180910390f35b34801561034f57600080fd5b5061036a60048036038101906103659190612034565b611553565b60405161037791906120ce565b60405180910390f35b34801561038c57600080fd5b506103956116ca565b6040516103a2919061210a565b60405180910390f35b60026020528060005260406000206000915054906101000a900463ffffffff1681565b7f000000000000000000000000000000000000000000000000000000000000000073ffffffffffffffffffffffffffffffffffffffff166321f8a7217f6b50fa17b77d24e42e27a04b69fe50cd6967cfb767d18de0bd5fe7e1a32aa8686040518263ffffffff1660e01b81526004016104479190612134565b602060405180830381865afa158015610464573d6000803e3d6000fd5b505050506040513d601f19601f820116820180604052508101906104889190612164565b73ffffffffffffffffffffffffffffffffffffffff1663d35911f2336040518263ffffffff1660e01b81526004016104c09190612019565b602060405180830381865afa1580156104dd573d6000803e3d6000fd5b505050506040513d601f19601f8201168201806040525081019061050191906121bd565b610537576040517fdc85555400000000000000000000000000000000000000000000000000000000815260040160405180910390fd5b60008263ffffffff1603610577576040517f030042b700000000000000000000000000000000000000000000000000000000815260040160405180910390fd5b600073ffffffffffffffffffffffffffffffffffffffff168173ffffffffffffffffffffffffffffffffffffffff16036105dd576040517f538ba4f900000000000000000000000000000000000000000000000000000000815260040160405180910390fd5b80600460008463ffffffff1663ffffffff16815260200190815260200160002060006101000a81548173ffffffffffffffffffffffffffffffffffffffff021916908373ffffffffffffffffffffffffffffffffffffffff1602179055508073ffffffffffffffffffffffffffffffffffffffff168263ffffffff167f11638aacb08f0e5f6147baa54ac1e71c77eff335bc6e6afa8a20f53a80693e5260405160405180910390a35050565b6000806000838060200190518101906106a29190612229565b9250925092506000600160009054906101000a900473ffffffffffffffffffffffffffffffffffffffff1673ffffffffffffffffffffffffffffffffffffffff1663a692979384846040518363ffffffff1660e01b815260040161070792919061227c565b602060405180830381865afa158015610724573d6000803e3d6000fd5b505050506040513d601f19601f8201168201806040525081019061074891906122a5565b905080341015610784576040517f719628a700000000000000000000000000000000000000000000000000000000815260040160405180910390fd5b600160009054906101000a900473ffffffffffffffffffffffffffffffffffffffff1673ffffffffffffffffffffffffffffffffffffffff166311bf2c1834868686336040518663ffffffff1660e01b81526004016107e694939291906122d2565b6000604051808303818588803b1580156107ff57600080fd5b505af1158015610813573d6000803e3d6000fd5b50505050505050505050565b7f000000000000000000000000000000000000000000000000000000000000000081565b60608160405160200161085691906120ce565b6040516020818303038152906040529050919050565b60008054906101000a900473ffffffffffffffffffffffffffffffffffffffff1673ffffffffffffffffffffffffffffffffffffffff163373ffffffffffffffffffffffffffffffffffffffff16146108f1576040517fb3c9ad3100000000000000000000000000000000000000000000000000000000815260040160405180910390fd5b610939600460008663ffffffff1663ffffffff16815260200190815260200160002060009054906101000a900473ffffffffffffffffffffffffffffffffffffffff166116f0565b8314610971576040517f1d527bfc00000000000000000000000000000000000000000000000000000000815260040160405180910390fd5b60008282604051610983929190612347565b604051809103902090506005600082815260200190815260200160002060009054906101000a900460ff16156109e5576040517f86041c9d00000000000000000000000000000000000000000000000000000000815260040160405180910390fd5b60016005600083815260200190815260200160002060006101000a81548160ff02191690831515021790555060008383810190610a2291906123d6565b90506000610a338260000151611713565b5050935050505060007f000000000000000000000000000000000000000000000000000000000000000073ffffffffffffffffffffffffffffffffffffffff166357203ab4836040518263ffffffff1660e01b8152600401610a95919061243b565b602060405180830381865afa158015610ab2573d6000803e3d6000fd5b505050506040513d601f19601f82011682018060405250810190610ad69190612164565b90506000600360008a63ffffffff1663ffffffff16815260200190815260200160002060009054906101000a900467ffffffffffffffff16905060008167ffffffffffffffff1603610b54576040517f030042b700000000000000000000000000000000000000000000000000000000815260040160405180910390fd5b8173ffffffffffffffffffffffffffffffffffffffff1663cc2d8abd8289896040518463ffffffff1660e01b8152600401610b9193929190612483565b600060405180830381600087803b158015610bab57600080fd5b505af1158015610bbf573d6000803e3d6000fd5b50505050505050505050505050565b60036020528060005260406000206000915054906101000a900467ffffffffffffffff1681565b60056020528060005260406000206000915054906101000a900460ff1681565b7f000000000000000000000000000000000000000000000000000000000000000073ffffffffffffffffffffffffffffffffffffffff1663eeaf54aa336040518263ffffffff1660e01b8152600401610c6e9190612019565b602060405180830381865afa158015610c8b573d6000803e3d6000fd5b505050506040513d601f19601f82011682018060405250810190610caf91906121bd565b610ce5576040517f60e6a64e00000000000000000000000000000000000000000000000000000000815260040160405180910390fd5b6000600260008567ffffffffffffffff1667ffffffffffffffff16815260200190815260200160002060009054906101000a900463ffffffff16905060008163ffffffff1603610d61576040517f030042b700000000000000000000000000000000000000000000000000000000815260040160405180910390fd5b60008054906101000a900473ffffffffffffffffffffffffffffffffffffffff1673ffffffffffffffffffffffffffffffffffffffff166348aee8d43483610de7600460008763ffffffff1663ffffffff16815260200190815260200160002060009054906101000a900473ffffffffffffffffffffffffffffffffffffffff166116f0565b87610df2888c61174b565b6040518663ffffffff1660e01b8152600401610e1194939291906124b5565b60206040518083038185885af1158015610e2f573d6000803e3d6000fd5b50505050506040513d601f19601f82011682018060405250810190610e549190612508565b505050505050565b7f000000000000000000000000000000000000000000000000000000000000000073ffffffffffffffffffffffffffffffffffffffff166321f8a7217f6b50fa17b77d24e42e27a04b69fe50cd6967cfb767d18de0bd5fe7e1a32aa8686040518263ffffffff1660e01b8152600401610ed59190612134565b602060405180830381865afa158015610ef2573d6000803e3d6000fd5b505050506040513d601f19601f82011682018060405250810190610f169190612164565b73ffffffffffffffffffffffffffffffffffffffff1663d35911f2336040518263ffffffff1660e01b8152600401610f4e9190612019565b602060405180830381865afa158015610f6b573d6000803e3d6000fd5b505050506040513d601f19601f82011682018060405250810190610f8f91906121bd565b610fc5576040517fdc85555400000000000000000000000000000000000000000000000000000000815260040160405180910390fd5b60008267ffffffffffffffff161480610fe4575060008163ffffffff16145b1561101b576040517f030042b700000000000000000000000000000000000000000000000000000000815260040160405180910390fd5b6000600360008363ffffffff1663ffffffff16815260200190815260200160002060009054906101000a900467ffffffffffffffff1690506000600260008567ffffffffffffffff1667ffffffffffffffff16815260200190815260200160002060009054906101000a900463ffffffff16905060008267ffffffffffffffff16146110dc57600260008367ffffffffffffffff1667ffffffffffffffff16815260200190815260200160002060006101000a81549063ffffffff02191690555b60008163ffffffff161461112157600360008263ffffffff1663ffffffff16815260200190815260200160002060006101000a81549067ffffffffffffffff02191690555b82600260008667ffffffffffffffff1667ffffffffffffffff16815260200190815260200160002060006101000a81548163ffffffff021916908363ffffffff16021790555083600360008563ffffffff1663ffffffff16815260200190815260200160002060006101000a81548167ffffffffffffffff021916908367ffffffffffffffff1602179055508367ffffffffffffffff167ff9506a27dd49e1563cbf7882f3e8dfb3c25fa4a4d610e8f4b0a30a145b4f685e60405160405180910390a250505050565b7f000000000000000000000000000000000000000000000000000000000000000073ffffffffffffffffffffffffffffffffffffffff166321f8a7217f6b50fa17b77d24e42e27a04b69fe50cd6967cfb767d18de0bd5fe7e1a32aa8686040518263ffffffff1660e01b81526004016112639190612134565b602060405180830381865afa158015611280573d6000803e3d6000fd5b505050506040513d601f19601f820116820180604052508101906112a49190612164565b73ffffffffffffffffffffffffffffffffffffffff1663d35911f2336040518263ffffffff1660e01b81526004016112dc9190612019565b602060405180830381865afa1580156112f9573d6000803e3d6000fd5b505050506040513d601f19601f8201168201806040525081019061131d91906121bd565b611353576040517fdc85555400000000000000000000000000000000000000000000000000000000815260040160405180910390fd5b600073ffffffffffffffffffffffffffffffffffffffff168273ffffffffffffffffffffffffffffffffffffffff1614806113ba5750600073ffffffffffffffffffffffffffffffffffffffff168173ffffffffffffffffffffffffffffffffffffffff16145b156113f1576040517f538ba4f900000000000000000000000000000000000000000000000000000000815260040160405180910390fd5b816000806101000a81548173ffffffffffffffffffffffffffffffffffffffff021916908373ffffffffffffffffffffffffffffffffffffffff16021790555080600160006101000a81548173ffffffffffffffffffffffffffffffffffffffff021916908373ffffffffffffffffffffffffffffffffffffffff1602179055508173ffffffffffffffffffffffffffffffffffffffff167f6e0017771b3eeb2a7915c30b8bd46fc8af45f85aedf154dce0b60b3078599bdf60405160405180910390a28073ffffffffffffffffffffffffffffffffffffffff167f0917acdf2b564051708a4efc839d61eef65e6738cdb066a1421fd6b2a3fafd2060405160405180910390a25050565b60008054906101000a900473ffffffffffffffffffffffffffffffffffffffff1681565b60046020528060005260406000206000915054906101000a900473ffffffffffffffffffffffffffffffffffffffff1681565b600080600260008667ffffffffffffffff1667ffffffffffffffff16815260200190815260200160002060009054906101000a900463ffffffff16905060008163ffffffff16036115d0576040517f030042b700000000000000000000000000000000000000000000000000000000815260040160405180910390fd5b60008054906101000a900473ffffffffffffffffffffffffffffffffffffffff1673ffffffffffffffffffffffffffffffffffffffff1663f7ccd32182611655600460008663ffffffff1663ffffffff16815260200190815260200160002060009054906101000a900473ffffffffffffffffffffffffffffffffffffffff166116f0565b87611660883361174b565b6040518563ffffffff1660e01b815260040161167f94939291906124b5565b602060405180830381865afa15801561169c573d6000803e3d6000fd5b505050506040513d601f19601f820116820180604052508101906116c091906122a5565b9150509392505050565b600160009054906101000a900473ffffffffffffffffffffffffffffffffffffffff1681565b60008173ffffffffffffffffffffffffffffffffffffffff1660001b9050919050565b600080600080600080869550600887901c9450601087901c9350601887901c9250602087901c915060c087901c905091939550919395565b6060600083511461177c5760008380602001905181019061176c91906122a5565b90506117788184611782565b9150505b92915050565b60606117a060008484604051806020016040528060008152506117a8565b905092915050565b60606001858585856040516020016117c4959493929190612613565b6040516020818303038152906040529050949350505050565b6000604051905090565b600080fd5b600080fd5b600067ffffffffffffffff82169050919050565b61180e816117f1565b811461181957600080fd5b50565b60008135905061182b81611805565b92915050565b600060208284031215611847576118466117e7565b5b60006118558482850161181c565b91505092915050565b600063ffffffff82169050919050565b6118778161185e565b82525050565b6000602082019050611892600083018461186e565b92915050565b6118a18161185e565b81146118ac57600080fd5b50565b6000813590506118be81611898565b92915050565b600073ffffffffffffffffffffffffffffffffffffffff82169050919050565b60006118ef826118c4565b9050919050565b6118ff816118e4565b811461190a57600080fd5b50565b60008135905061191c816118f6565b92915050565b60008060408385031215611939576119386117e7565b5b6000611947858286016118af565b92505060206119588582860161190d565b9150509250929050565b600080fd5b600080fd5b6000601f19601f8301169050919050565b7f4e487b7100000000000000000000000000000000000000000000000000000000600052604160045260246000fd5b6119b58261196c565b810181811067ffffffffffffffff821117156119d4576119d361197d565b5b80604052505050565b60006119e76117dd565b90506119f382826119ac565b919050565b600067ffffffffffffffff821115611a1357611a1261197d565b5b611a1c8261196c565b9050602081019050919050565b82818337600083830152505050565b6000611a4b611a46846119f8565b6119dd565b905082815260208101848484011115611a6757611a66611967565b5b611a72848285611a29565b509392505050565b600082601f830112611a8f57611a8e611962565b5b8135611a9f848260208601611a38565b91505092915050565b600060208284031215611abe57611abd6117e7565b5b600082013567ffffffffffffffff811115611adc57611adb6117ec565b5b611ae884828501611a7a565b91505092915050565b6000819050919050565b6000611b16611b11611b0c846118c4565b611af1565b6118c4565b9050919050565b6000611b2882611afb565b9050919050565b6000611b3a82611b1d565b9050919050565b611b4a81611b2f565b82525050565b6000602082019050611b656000830184611b41565b92915050565b6000819050919050565b611b7e81611b6b565b8114611b8957600080fd5b50565b600081359050611b9b81611b75565b92915050565b600060208284031215611bb757611bb66117e7565b5b6000611bc584828501611b8c565b91505092915050565b600081519050919050565b600082825260208201905092915050565b60005b83811015611c08578082015181840152602081019050611bed565b60008484015250505050565b6000611c1f82611bce565b611c298185611bd9565b9350611c39818560208601611bea565b611c428161196c565b840191505092915050565b60006020820190508181036000830152611c678184611c14565b905092915050565b6000819050919050565b611c8281611c6f565b8114611c8d57600080fd5b50565b600081359050611c9f81611c79565b92915050565b600080fd5b600080fd5b60008083601f840112611cc557611cc4611962565b5b8235905067ffffffffffffffff811115611ce257611ce1611ca5565b5b602083019150836001820283011115611cfe57611cfd611caa565b5b9250929050565b60008060008060608587031215611d1f57611d1e6117e7565b5b6000611d2d878288016118af565b9450506020611d3e87828801611c90565b935050604085013567ffffffffffffffff811115611d5f57611d5e6117ec565b5b611d6b87828801611caf565b925092505092959194509250565b600060208284031215611d8f57611d8e6117e7565b5b6000611d9d848285016118af565b91505092915050565b611daf816117f1565b82525050565b6000602082019050611dca6000830184611da6565b92915050565b600060208284031215611de657611de56117e7565b5b6000611df484828501611c90565b91505092915050565b60008115159050919050565b611e1281611dfd565b82525050565b6000602082019050611e2d6000830184611e09565b92915050565b60008060008060808587031215611e4d57611e4c6117e7565b5b6000611e5b8782880161190d565b9450506020611e6c8782880161181c565b935050604085013567ffffffffffffffff811115611e8d57611e8c6117ec565b5b611e9987828801611a7a565b925050606085013567ffffffffffffffff811115611eba57611eb96117ec565b5b611ec687828801611a7a565b91505092959194509250565b60008060408385031215611ee957611ee86117e7565b5b6000611ef78582860161181c565b9250506020611f08858286016118af565b9150509250929050565b6000611f1d826118e4565b9050919050565b611f2d81611f12565b8114611f3857600080fd5b50565b600081359050611f4a81611f24565b92915050565b6000611f5b826118e4565b9050919050565b611f6b81611f50565b8114611f7657600080fd5b50565b600081359050611f8881611f62565b92915050565b60008060408385031215611fa557611fa46117e7565b5b6000611fb385828601611f3b565b9250506020611fc485828601611f79565b9150509250929050565b6000611fd982611b1d565b9050919050565b611fe981611fce565b82525050565b60006020820190506120046000830184611fe0565b92915050565b612013816118e4565b82525050565b600060208201905061202e600083018461200a565b92915050565b60008060006060848603121561204d5761204c6117e7565b5b600061205b8682870161181c565b935050602084013567ffffffffffffffff81111561207c5761207b6117ec565b5b61208886828701611a7a565b925050604084013567ffffffffffffffff8111156120a9576120a86117ec565b5b6120b586828701611a7a565b9150509250925092565b6120c881611b6b565b82525050565b60006020820190506120e360008301846120bf565b92915050565b60006120f482611b1d565b9050919050565b612104816120e9565b82525050565b600060208201905061211f60008301846120fb565b92915050565b61212e81611c6f565b82525050565b60006020820190506121496000830184612125565b92915050565b60008151905061215e816118f6565b92915050565b60006020828403121561217a576121796117e7565b5b60006121888482850161214f565b91505092915050565b61219a81611dfd565b81146121a557600080fd5b50565b6000815190506121b781612191565b92915050565b6000602082840312156121d3576121d26117e7565b5b60006121e1848285016121a8565b91505092915050565b6000815190506121f981611c79565b92915050565b60008151905061220e81611898565b92915050565b60008151905061222381611b75565b92915050565b600080600060608486031215612242576122416117e7565b5b6000612250868287016121ea565b9350506020612261868287016121ff565b925050604061227286828701612214565b9150509250925092565b6000604082019050612291600083018561186e565b61229e60208301846120bf565b9392505050565b6000602082840312156122bb576122ba6117e7565b5b60006122c984828501612214565b91505092915050565b60006080820190506122e76000830187612125565b6122f4602083018661186e565b61230160408301856120bf565b61230e606083018461200a565b95945050505050565b600081905092915050565b600061232e8385612317565b935061233b838584611a29565b82840190509392505050565b6000612354828486612322565b91508190509392505050565b600080fd5b600080fd5b6000604082840312156123805761237f612360565b5b61238a60406119dd565b9050600061239a84828501611b8c565b600083015250602082013567ffffffffffffffff8111156123be576123bd612365565b5b6123ca84828501611a7a565b60208301525092915050565b6000602082840312156123ec576123eb6117e7565b5b600082013567ffffffffffffffff81111561240a576124096117ec565b5b6124168482850161236a565b91505092915050565b600060ff82169050919050565b6124358161241f565b82525050565b6000602082019050612450600083018461242c565b92915050565b60006124628385611bd9565b935061246f838584611a29565b6124788361196c565b840190509392505050565b60006040820190506124986000830186611da6565b81810360208301526124ab818486612456565b9050949350505050565b60006080820190506124ca600083018761186e565b6124d76020830186612125565b81810360408301526124e98185611c14565b905081810360608301526124fd8184611c14565b905095945050505050565b60006020828403121561251e5761251d6117e7565b5b600061252c848285016121ea565b91505092915050565b600061ffff82169050919050565b60008160f01b9050919050565b600061255b82612543565b9050919050565b61257361256e82612535565b612550565b82525050565b6000819050919050565b61259461258f82611b6b565b612579565b82525050565b60008160601b9050919050565b60006125b28261259a565b9050919050565b60006125c4826125a7565b9050919050565b6125dc6125d7826118e4565b6125b9565b82525050565b60006125ed82611bce565b6125f78185612317565b9350612607818560208601611bea565b80840191505092915050565b600061261f8288612562565b60028201915061262f8287612583565b60208201915061263f8286612583565b60208201915061264f82856125cb565b60148201915061265f82846125e2565b9150819050969550505050505056fea2646970667358221220f27b6252d087b3071efecc5c60832ddb9994cb84a7c9b3ac4dea285a62a16f6664736f6c63430008170033","linkReferences":{}},"methodIdentifiers":{"ambChainId(uint64)":"09bec2c1","authorizedImpl(uint32)":"e231ec9a","dispatchPayload(address,uint64,bytes,bytes)":"9783d0ef","estimateFees(uint64,bytes,bytes)":"ea98b147","generateExtraData(uint256)":"25fc6dd0","handle(uint32,bytes32,bytes)":"56d5d475","igp()":"f28b2daa","mailbox()":"d5438eae","processedMessages(bytes32)":"88ba16ab","retryPayload(bytes)":"0fbb7cbc","setChainId(uint64,uint32)":"a10f27e3","setHyperlaneConfig(address,address)":"afed96dd","setReceiver(uint32,address)":"09f37812","superChainId(uint32)":"857f2557","superRegistry()":"24c73dda"},"id":120}