{"abi":[{"type":"constructor","inputs":[{"name":"superRegistry_","type":"address","internalType":"address"}],"stateMutability":"nonpayable"},{"type":"function","name":"CHAIN_ID","inputs":[],"outputs":[{"name":"","type":"uint64","internalType":"uint64"}],"stateMutability":"view"},{"type":"function","name":"addFormImplementation","inputs":[{"name":"formImplementation_","type":"address","internalType":"address"},{"name":"formImplementationId_","type":"uint32","internalType":"uint32"},{"name":"formStateRegistryId_","type":"uint8","internalType":"uint8"}],"outputs":[],"stateMutability":"nonpayable"},{"type":"function","name":"changeFormImplementationPauseStatus","inputs":[{"name":"formImplementationId_","type":"uint32","internalType":"uint32"},{"name":"status_","type":"uint8","internalType":"enum ISuperformFactory.PauseStatus"},{"name":"extraData_","type":"bytes","internalType":"bytes"}],"outputs":[],"stateMutability":"payable"},{"type":"function","name":"createSuperform","inputs":[{"name":"formImplementationId_","type":"uint32","internalType":"uint32"},{"name":"vault_","type":"address","internalType":"address"}],"outputs":[{"name":"superformId_","type":"uint256","internalType":"uint256"},{"name":"superform_","type":"address","internalType":"address"}],"stateMutability":"nonpayable"},{"type":"function","name":"formImplementation","inputs":[{"name":"formImplementationId","type":"uint32","internalType":"uint32"}],"outputs":[{"name":"formImplementationAddress","type":"address","internalType":"address"}],"stateMutability":"view"},{"type":"function","name":"formImplementationIds","inputs":[{"name":"formImplementationAddress","type":"address","internalType":"address"}],"outputs":[{"name":"formImplementationId","type":"uint32","internalType":"uint32"}],"stateMutability":"view"},{"type":"function","name":"formImplementationPaused","inputs":[{"name":"formImplementationId","type":"uint32","internalType":"uint32"}],"outputs":[{"name":"","type":"uint8","internalType":"enum ISuperformFactory.PauseStatus"}],"stateMutability":"view"},{"type":"function","name":"formImplementations","inputs":[{"name":"","type":"uint256","internalType":"uint256"}],"outputs":[{"name":"","type":"address","internalType":"address"}],"stateMutability":"view"},{"type":"function","name":"formStateRegistryId","inputs":[{"name":"formImplementationId","type":"uint32","internalType":"uint32"}],"outputs":[{"name":"formRegistryId","type":"uint8","internalType":"uint8"}],"stateMutability":"view"},{"type":"function","name":"getAllSuperformsFromVault","inputs":[{"name":"vault_","type":"address","internalType":"address"}],"outputs":[{"name":"superformIds_","type":"uint256[]","internalType":"uint256[]"},{"name":"superforms_","type":"address[]","internalType":"address[]"}],"stateMutability":"view"},{"type":"function","name":"getFormCount","inputs":[],"outputs":[{"name":"forms_","type":"uint256","internalType":"uint256"}],"stateMutability":"view"},{"type":"function","name":"getFormImplementation","inputs":[{"name":"formImplementationId_","type":"uint32","internalType":"uint32"}],"outputs":[{"name":"","type":"address","internalType":"address"}],"stateMutability":"view"},{"type":"function","name":"getFormStateRegistryId","inputs":[{"name":"formImplementationId_","type":"uint32","internalType":"uint32"}],"outputs":[{"name":"formStateRegistryId_","type":"uint8","internalType":"uint8"}],"stateMutability":"view"},{"type":"function","name":"getSuperform","inputs":[{"name":"superformId_","type":"uint256","internalType":"uint256"}],"outputs":[{"name":"superform_","type":"address","internalType":"address"},{"name":"formImplementationId_","type":"uint32","internalType":"uint32"},{"name":"chainId_","type":"uint64","internalType":"uint64"}],"stateMutability":"pure"},{"type":"function","name":"getSuperformCount","inputs":[],"outputs":[{"name":"superforms_","type":"uint256","internalType":"uint256"}],"stateMutability":"view"},{"type":"function","name":"isFormImplementationPaused","inputs":[{"name":"formImplementationId_","type":"uint32","internalType":"uint32"}],"outputs":[{"name":"","type":"bool","internalType":"bool"}],"stateMutability":"view"},{"type":"function","name":"isSuperform","inputs":[{"name":"superformId","type":"uint256","internalType":"uint256"}],"outputs":[{"name":"superformIdExists","type":"bool","internalType":"bool"}],"stateMutability":"view"},{"type":"function","name":"stateSyncBroadcast","inputs":[{"name":"data_","type":"bytes","internalType":"bytes"}],"outputs":[],"stateMutability":"payable"},{"type":"function","name":"superRegistry","inputs":[],"outputs":[{"name":"","type":"address","internalType":"contract ISuperRegistry"}],"stateMutability":"view"},{"type":"function","name":"superforms","inputs":[{"name":"","type":"uint256","internalType":"uint256"}],"outputs":[{"name":"","type":"uint256","internalType":"uint256"}],"stateMutability":"view"},{"type":"function","name":"vaultFormImplCombinationToSuperforms","inputs":[{"name":"vaultFormImplementationCombination","type":"bytes32","internalType":"bytes32"}],"outputs":[{"name":"superformIds","type":"uint256","internalType":"uint256"}],"stateMutability":"view"},{"type":"function","name":"vaultToFormImplementationId","inputs":[{"name":"vault","type":"address","internalType":"address"},{"name":"","type":"uint256","internalType":"uint256"}],"outputs":[{"name":"formImplementationId","type":"uint256","internalType":"uint256"}],"stateMutability":"view"},{"type":"function","name":"vaultToSuperforms","inputs":[{"name":"vault","type":"address","internalType":"address"},{"name":"","type":"uint256","internalType":"uint256"}],"outputs":[{"name":"superformIds","type":"uint256","internalType":"uint256"}],"stateMutability":"view"},{"type":"function","name":"xChainPayloadCounter","inputs":[],"outputs":[{"name":"","type":"uint256","internalType":"uint256"}],"stateMutability":"view"},{"type":"event","name":"FormImplementationAdded","inputs":[{"name":"formImplementation","type":"address","indexed":true,"internalType":"address"},{"name":"formImplementationId","type":"uint256","indexed":true,"internalType":"uint256"},{"name":"formStateRegistryId","type":"uint8","indexed":true,"internalType":"uint8"}],"anonymous":false},{"type":"event","name":"FormImplementationPaused","inputs":[{"name":"formImplementationId","type":"uint256","indexed":true,"internalType":"uint256"},{"name":"paused","type":"uint8","indexed":true,"internalType":"enum ISuperformFactory.PauseStatus"}],"anonymous":false},{"type":"event","name":"SuperRegistrySet","inputs":[{"name":"superRegistry","type":"address","indexed":true,"internalType":"address"}],"anonymous":false},{"type":"event","name":"SuperformCreated","inputs":[{"name":"formImplementationId","type":"uint256","indexed":true,"internalType":"uint256"},{"name":"vault","type":"address","indexed":true,"internalType":"address"},{"name":"superformId","type":"uint256","indexed":true,"internalType":"uint256"},{"name":"superform","type":"address","indexed":false,"internalType":"address"}],"anonymous":false},{"type":"error","name":"BLOCK_CHAIN_ID_OUT_OF_BOUNDS","inputs":[]},{"type":"error","name":"ERC1167FailedCreateClone","inputs":[]},{"type":"error","name":"ERC165_UNSUPPORTED","inputs":[]},{"type":"error","name":"FAILED_TO_SEND_NATIVE","inputs":[]},{"type":"error","name":"FORM_DOES_NOT_EXIST","inputs":[]},{"type":"error","name":"FORM_IMPLEMENTATION_ALREADY_EXISTS","inputs":[]},{"type":"error","name":"FORM_IMPLEMENTATION_ID_ALREADY_EXISTS","inputs":[]},{"type":"error","name":"FORM_INTERFACE_UNSUPPORTED","inputs":[]},{"type":"error","name":"INVALID_BROADCAST_FEE","inputs":[]},{"type":"error","name":"INVALID_CHAIN_ID","inputs":[]},{"type":"error","name":"INVALID_FORM_ID","inputs":[]},{"type":"error","name":"INVALID_FORM_REGISTRY_ID","inputs":[]},{"type":"error","name":"MSG_VALUE_NOT_ZERO","inputs":[]},{"type":"error","name":"NOT_BROADCAST_REGISTRY","inputs":[]},{"type":"error","name":"NOT_EMERGENCY_ADMIN","inputs":[]},{"type":"error","name":"NOT_PROTOCOL_ADMIN","inputs":[]},{"type":"error","name":"VAULT_FORM_IMPLEMENTATION_COMBINATION_EXISTS","inputs":[]},{"type":"error","name":"ZERO_ADDRESS","inputs":[]}],"bytecode":{"object":"0x60c06040523480156200001157600080fd5b506040516200350d3803806200350d8339818101604052810190620000379190620001a4565b600073ffffffffffffffffffffffffffffffffffffffff168173ffffffffffffffffffffffffffffffffffffffff16036200009e576040517f538ba4f900000000000000000000000000000000000000000000000000000000815260040160405180910390fd5b67ffffffffffffffff8016461115620000e3576040517f7ecdf93300000000000000000000000000000000000000000000000000000000815260040160405180910390fd5b4667ffffffffffffffff1660a08167ffffffffffffffff16815250508073ffffffffffffffffffffffffffffffffffffffff1660808173ffffffffffffffffffffffffffffffffffffffff168152505050620001d6565b600080fd5b600073ffffffffffffffffffffffffffffffffffffffff82169050919050565b60006200016c826200013f565b9050919050565b6200017e816200015f565b81146200018a57600080fd5b50565b6000815190506200019e8162000173565b92915050565b600060208284031215620001bd57620001bc6200013a565b5b6000620001cd848285016200018d565b91505092915050565b60805160a0516132d26200023b60003960008181610aed01528181611461015281816116f801526118760152600081816107fd0152818161082101528181610b4e01528181610c0801528181610d74015281816117900152611a7b01526132d26000f3fe60806040526004361061014b5760003560e01c806380e8586b116100b6578063bb3808cc1161006f578063bb3808cc14610520578063c4d6e6b21461055d578063dfd6e4ab1461059b578063e6ddad4c146105d8578063e83310a2146105f4578063edf387c5146106315761014b565b806380e8586b146103c457806385e1f4d0146104015780638de833a91461042c5780639e06683814610469578063b5c75697146104a6578063b85225bb146104e35761014b565b8063479f3b8711610108578063479f3b871461026657806352fc069e146102a3578063589434ca146102e0578063596db7171461030b5780636fb86dd3146103485780637239fe4f146103875761014b565b80631547665d146101505780631bc089ed1461017b5780632085caec146101b857806324c73dda146101f65780632d75c56a146102215780633d2378f41461023d575b600080fd5b34801561015c57600080fd5b5061016561065c565b60405161017291906121a1565b60405180910390f35b34801561018757600080fd5b506101a2600480360381019061019d919061220c565b610669565b6040516101af91906122b0565b60405180910390f35b3480156101c457600080fd5b506101df60048036038101906101da9190612329565b610689565b6040516101ed9291906124d2565b60405180910390f35b34801561020257600080fd5b5061020b6107fb565b6040516102189190612568565b60405180910390f35b61023b600480360381019061023691906126ee565b61081f565b005b34801561024957600080fd5b50610264600480360381019061025f9190612796565b610d72565b005b34801561027257600080fd5b5061028d60048036038101906102889190612815565b6112fb565b60405161029a91906121a1565b60405180910390f35b3480156102af57600080fd5b506102ca60048036038101906102c5919061220c565b61131f565b6040516102d79190612851565b60405180910390f35b3480156102ec57600080fd5b506102f5611392565b60405161030291906121a1565b60405180910390f35b34801561031757600080fd5b50610332600480360381019061032d919061220c565b61139f565b60405161033f9190612887565b60405180910390f35b34801561035457600080fd5b5061036f600480360381019061036a9190612815565b6113fb565b60405161037e939291906128e3565b60405180910390f35b34801561039357600080fd5b506103ae60048036038101906103a9919061220c565b61141c565b6040516103bb9190612851565b60405180910390f35b3480156103d057600080fd5b506103eb60048036038101906103e69190612329565b61143c565b6040516103f8919061291a565b60405180910390f35b34801561040d57600080fd5b5061041661145f565b6040516104239190612935565b60405180910390f35b34801561043857600080fd5b50610453600480360381019061044e9190612950565b611483565b60405161046091906121a1565b60405180910390f35b34801561047557600080fd5b50610490600480360381019061048b9190612950565b6114b4565b60405161049d91906121a1565b60405180910390f35b3480156104b257600080fd5b506104cd60048036038101906104c89190612815565b6114e5565b6040516104da9190612887565b60405180910390f35b3480156104ef57600080fd5b5061050a600480360381019061050591906129c6565b611505565b60405161051791906121a1565b60405180910390f35b34801561052c57600080fd5b506105476004803603810190610542919061220c565b61151d565b60405161055491906129f3565b60405180910390f35b34801561056957600080fd5b50610584600480360381019061057f9190612a0e565b611566565b604051610592929190612a4e565b60405180910390f35b3480156105a757600080fd5b506105c260048036038101906105bd9190612815565b611a3a565b6040516105cf91906129f3565b60405180910390f35b6105f260048036038101906105ed9190612a77565b611a79565b005b34801561060057600080fd5b5061061b6004803603810190610616919061220c565b611bec565b60405161062891906129f3565b60405180910390f35b34801561063d57600080fd5b50610646611c1f565b60405161065391906121a1565b60405180910390f35b6000600280549050905090565b60076020528060005260406000206000915054906101000a900460ff1681565b606080600860008473ffffffffffffffffffffffffffffffffffffffff1673ffffffffffffffffffffffffffffffffffffffff16815260200190815260200160002080548060200260200160405190810160405280929190818152602001828054801561071557602002820191906000526020600020905b815481526020019060010190808311610701575b505050505091506000825190508067ffffffffffffffff81111561073c5761073b6125c3565b5b60405190808252806020026020018201604052801561076a5781602001602082028036833780820191505090505b50915060005b818110156107f45761079b84828151811061078e5761078d612ac0565b5b6020026020010151611c25565b9050508382815181106107b1576107b0612ac0565b5b602002602001018173ffffffffffffffffffffffffffffffffffffffff1673ffffffffffffffffffffffffffffffffffffffff1681525050806001019050610770565b5050915091565b7f000000000000000000000000000000000000000000000000000000000000000081565b7f000000000000000000000000000000000000000000000000000000000000000073ffffffffffffffffffffffffffffffffffffffff166321f8a7217f6b50fa17b77d24e42e27a04b69fe50cd6967cfb767d18de0bd5fe7e1a32aa8686040518263ffffffff1660e01b81526004016108989190612afe565b602060405180830381865afa1580156108b5573d6000803e3d6000fd5b505050506040513d601f19601f820116820180604052508101906108d99190612b2e565b73ffffffffffffffffffffffffffffffffffffffff16632f41ca96336040518263ffffffff1660e01b815260040161091191906129f3565b602060405180830381865afa15801561092e573d6000803e3d6000fd5b505050506040513d601f19601f820116820180604052508101906109529190612b87565b610988576040517f445b0c3a00000000000000000000000000000000000000000000000000000000815260040160405180910390fd5b600073ffffffffffffffffffffffffffffffffffffffff16600460008563ffffffff1663ffffffff16815260200190815260200160002060009054906101000a900473ffffffffffffffffffffffffffffffffffffffff1673ffffffffffffffffffffffffffffffffffffffff1603610a2d576040517f07c36b4e00000000000000000000000000000000000000000000000000000000815260040160405180910390fd5b81600760008563ffffffff1663ffffffff16815260200190815260200160002060006101000a81548160ff02191690836001811115610a6f57610a6e612239565b5b02179055506000815114610cec57600060405180606001604052806040518060400160405280601181526020017f5355504552464f524d5f464143544f525900000000000000000000000000000081525081526020017ff32750c6acdf0a869f9f19cdbb49fd915b2636c74468ee5682c8ecd3b65ab38b81526020017f00000000000000000000000000000000000000000000000000000000000000006000808154610b1a90612be3565b9190508190558787604051602001610b359493929190612c2b565b6040516020818303038152906040528152509050610ce67f000000000000000000000000000000000000000000000000000000000000000073ffffffffffffffffffffffffffffffffffffffff166321f8a7217f86a7f6b88da6de42c331676d4da78508adfef4970dc8aa541004f26b6eef4ab96040518263ffffffff1660e01b8152600401610bc59190612afe565b602060405180830381865afa158015610be2573d6000803e3d6000fd5b505050506040513d601f19601f82011682018060405250810190610c069190612b2e565b7f000000000000000000000000000000000000000000000000000000000000000073ffffffffffffffffffffffffffffffffffffffff166321f8a7217fbddfa8c39a1f6275bcfb3aa5c70638c466999edbf14e6162d81b3492caca9fce6040518263ffffffff1660e01b8152600401610c7f9190612afe565b602060405180830381865afa158015610c9c573d6000803e3d6000fd5b505050506040513d601f19601f82011682018060405250810190610cc09190612b2e565b83604051602001610cd19190612d55565b60405160208183030381529060405285611c86565b50610d27565b60003414610d26576040517f308f275d00000000000000000000000000000000000000000000000000000000815260040160405180910390fd5b5b816001811115610d3a57610d39612239565b5b8363ffffffff167f1cb88bdf176e51fa7c40e8e4683e78b1792a2ce649cfae1f26fec314eebe536e60405160405180910390a3505050565b7f000000000000000000000000000000000000000000000000000000000000000073ffffffffffffffffffffffffffffffffffffffff166321f8a7217f6b50fa17b77d24e42e27a04b69fe50cd6967cfb767d18de0bd5fe7e1a32aa8686040518263ffffffff1660e01b8152600401610deb9190612afe565b602060405180830381865afa158015610e08573d6000803e3d6000fd5b505050506040513d601f19601f82011682018060405250810190610e2c9190612b2e565b73ffffffffffffffffffffffffffffffffffffffff1663d35911f2336040518263ffffffff1660e01b8152600401610e6491906129f3565b602060405180830381865afa158015610e81573d6000803e3d6000fd5b505050506040513d601f19601f82011682018060405250810190610ea59190612b87565b610edb576040517fdc85555400000000000000000000000000000000000000000000000000000000815260040160405180910390fd5b600073ffffffffffffffffffffffffffffffffffffffff168373ffffffffffffffffffffffffffffffffffffffff1603610f41576040517f538ba4f900000000000000000000000000000000000000000000000000000000815260040160405180910390fd5b610f4a83611e2c565b610f80576040517fc243c1c800000000000000000000000000000000000000000000000000000000815260040160405180910390fd5b600073ffffffffffffffffffffffffffffffffffffffff16600460008463ffffffff1663ffffffff16815260200190815260200160002060009054906101000a900473ffffffffffffffffffffffffffffffffffffffff1673ffffffffffffffffffffffffffffffffffffffff1614611025576040517fdeca71e300000000000000000000000000000000000000000000000000000000815260040160405180910390fd5b6000600560008573ffffffffffffffffffffffffffffffffffffffff1673ffffffffffffffffffffffffffffffffffffffff16815260200190815260200160002060009054906101000a900463ffffffff1663ffffffff16146110b4576040517f7dc37ed200000000000000000000000000000000000000000000000000000000815260040160405180910390fd5b6110de837f51fef14700000000000000000000000000000000000000000000000000000000611e79565b611114576040517f24ea76c700000000000000000000000000000000000000000000000000000000815260040160405180910390fd5b82600460008463ffffffff1663ffffffff16815260200190815260200160002060006101000a81548173ffffffffffffffffffffffffffffffffffffffff021916908373ffffffffffffffffffffffffffffffffffffffff16021790555081600560008573ffffffffffffffffffffffffffffffffffffffff1673ffffffffffffffffffffffffffffffffffffffff16815260200190815260200160002060006101000a81548163ffffffff021916908363ffffffff16021790555060008160ff160361120d576040517f26886d6700000000000000000000000000000000000000000000000000000000815260040160405180910390fd5b80600660008463ffffffff1663ffffffff16815260200190815260200160002060006101000a81548160ff021916908360ff1602179055506001839080600181540180825580915050600190039060005260206000200160009091909190916101000a81548173ffffffffffffffffffffffffffffffffffffffff021916908373ffffffffffffffffffffffffffffffffffffffff1602179055508060ff168263ffffffff168473ffffffffffffffffffffffffffffffffffffffff167f57e36bd8ee2840c13ad182923b129cd3b97186aa7ac714bfa5e59425fc22eeeb60405160405180910390a4505050565b6002818154811061130b57600080fd5b906000526020600020016000915090505481565b6000600660008363ffffffff1663ffffffff16815260200190815260200160002060009054906101000a900460ff16905060008160ff160361138d576040517f26886d6700000000000000000000000000000000000000000000000000000000815260040160405180910390fd5b919050565b6000600180549050905090565b60006001808111156113b4576113b3612239565b5b600760008463ffffffff1663ffffffff16815260200190815260200160002060009054906101000a900460ff1660018111156113f3576113f2612239565b5b149050919050565b600080600061140984611c25565b8093508194508295505050509193909250565b60066020528060005260406000206000915054906101000a900460ff1681565b60056020528060005260406000206000915054906101000a900463ffffffff1681565b7f000000000000000000000000000000000000000000000000000000000000000081565b6008602052816000526040600020818154811061149f57600080fd5b90600052602060002001600091509150505481565b600960205281600052604060002081815481106114d057600080fd5b90600052602060002001600091509150505481565b60036020528060005260406000206000915054906101000a900460ff1681565b600a6020528060005260406000206000915090505481565b6000600460008363ffffffff1663ffffffff16815260200190815260200160002060009054906101000a900473ffffffffffffffffffffffffffffffffffffffff169050919050565b600080600073ffffffffffffffffffffffffffffffffffffffff168373ffffffffffffffffffffffffffffffffffffffff16036115cf576040517f538ba4f900000000000000000000000000000000000000000000000000000000815260040160405180910390fd5b6000600460008663ffffffff1663ffffffff16815260200190815260200160002060009054906101000a900473ffffffffffffffffffffffffffffffffffffffff169050600073ffffffffffffffffffffffffffffffffffffffff168173ffffffffffffffffffffffffffffffffffffffff1603611679576040517f892edf8200000000000000000000000000000000000000000000000000000000815260040160405180910390fd5b6000818560405160200161168e929190612d77565b6040516020818303038152906040528051906020012090506000600a600083815260200190815260200160002054146116f3576040517f40bcf0a000000000000000000000000000000000000000000000000000000000815260040160405180910390fd5b6117707f000000000000000000000000000000000000000000000000000000000000000067ffffffffffffffff16878760405160200161173593929190612da0565b604051602081830303815290604052805190602001208373ffffffffffffffffffffffffffffffffffffffff16611e9e90919063ffffffff16565b92508273ffffffffffffffffffffffffffffffffffffffff1663c0c53b8b7f0000000000000000000000000000000000000000000000000000000000000000878873ffffffffffffffffffffffffffffffffffffffff166338d52e0f6040518163ffffffff1660e01b8152600401602060405180830381865afa1580156117fb573d6000803e3d6000fd5b505050506040513d601f19601f8201168201806040525081019061181f9190612b2e565b6040518463ffffffff1660e01b815260040161183d93929190612dd7565b600060405180830381600087803b15801561185757600080fd5b505af115801561186b573d6000803e3d6000fd5b5050505061189a83877f0000000000000000000000000000000000000000000000000000000000000000611f51565b9350600860008673ffffffffffffffffffffffffffffffffffffffff1673ffffffffffffffffffffffffffffffffffffffff168152602001908152602001600020849080600181540180825580915050600190039060005260206000200160009091909190915055600960008673ffffffffffffffffffffffffffffffffffffffff1673ffffffffffffffffffffffffffffffffffffffff16815260200190815260200160002086908060018154018082558091505060019003906000526020600020016000909163ffffffff1690919091505583600a600083815260200190815260200160002081905550600284908060018154018082558091505060019003906000526020600020016000909190919091505560016003600086815260200190815260200160002060006101000a81548160ff021916908315150217905550838573ffffffffffffffffffffffffffffffffffffffff168763ffffffff167ff40fe66c44bcbe514dc449b1c700989fe0ace6e4e6c48a118cc9b452c285c72b86604051611a2991906129f3565b60405180910390a450509250929050565b60018181548110611a4a57600080fd5b906000526020600020016000915054906101000a900473ffffffffffffffffffffffffffffffffffffffff1681565b7f000000000000000000000000000000000000000000000000000000000000000073ffffffffffffffffffffffffffffffffffffffff166321f8a7217f86a7f6b88da6de42c331676d4da78508adfef4970dc8aa541004f26b6eef4ab96040518263ffffffff1660e01b8152600401611af29190612afe565b602060405180830381865afa158015611b0f573d6000803e3d6000fd5b505050506040513d601f19601f82011682018060405250810190611b339190612b2e565b73ffffffffffffffffffffffffffffffffffffffff163373ffffffffffffffffffffffffffffffffffffffff1614611b97576040517fb0acaf9d00000000000000000000000000000000000000000000000000000000815260040160405180910390fd5b600081806020019051810190611bad9190612f39565b90507ff32750c6acdf0a869f9f19cdbb49fd915b2636c74468ee5682c8ecd3b65ab38b816020015103611be857611be78160400151611f95565b5b5050565b60046020528060005260406000206000915054906101000a900473ffffffffffffffffffffffffffffffffffffffff1681565b60005481565b600080600083925060a084901c915060c084901c905060008167ffffffffffffffff1603611c7f576040517f030042b700000000000000000000000000000000000000000000000000000000815260040160405180910390fd5b9193909250565b60008082806020019051810190611c9d9190612f97565b9150915060008082806020019051810190611cb89190613008565b9150915081341015611cf6576040517f1961e86700000000000000000000000000000000000000000000000000000000815260040160405180910390fd5b8773ffffffffffffffffffffffffffffffffffffffff1663c63304f6833387868b876040518763ffffffff1660e01b8152600401611d389594939291906130ae565b6000604051808303818588803b158015611d5157600080fd5b505af1158015611d65573d6000803e3d6000fd5b505050505081341115611e225760008773ffffffffffffffffffffffffffffffffffffffff168334611d97919061310f565b604051611da390613174565b60006040518083038185875af1925050503d8060008114611de0576040519150601f19603f3d011682016040523d82523d6000602084013e611de5565b606091505b5050905080611e20576040517f220d375300000000000000000000000000000000000000000000000000000000815260040160405180910390fd5b505b5050505050505050565b6000611e58827f01ffc9a7000000000000000000000000000000000000000000000000000000006120e9565b8015611e725750611e708263ffffffff60e01b6120e9565b155b9050919050565b6000611e8483611e2c565b8015611e965750611e9583836120e9565b5b905092915050565b6000763d602d80600a3d3981f3363d3d373d3d3d363d730000008360601b60e81c176000526e5af43d82803e903d91602b57fd5bf38360781b1760205281603760096000f59050600073ffffffffffffffffffffffffffffffffffffffff168173ffffffffffffffffffffffffffffffffffffffff1603611f4b576040517fc2f868f400000000000000000000000000000000000000000000000000000000815260040160405180910390fd5b92915050565b60008373ffffffffffffffffffffffffffffffffffffffff16905060a08363ffffffff16901b8117905060c08267ffffffffffffffff16901b811790509392505050565b60008082806020019051810190611fac91906131df565b935093505050600073ffffffffffffffffffffffffffffffffffffffff16600460008463ffffffff1663ffffffff16815260200190815260200160002060009054906101000a900473ffffffffffffffffffffffffffffffffffffffff1673ffffffffffffffffffffffffffffffffffffffff1603612057576040517f07c36b4e00000000000000000000000000000000000000000000000000000000815260040160405180910390fd5b80600760008463ffffffff1663ffffffff16815260200190815260200160002060006101000a81548160ff0219169083600181111561209957612098612239565b5b02179055508060018111156120b1576120b0612239565b5b8263ffffffff167f1cb88bdf176e51fa7c40e8e4683e78b1792a2ce649cfae1f26fec314eebe536e60405160405180910390a3505050565b600080826040516024016120fd9190613281565b6040516020818303038152906040526301ffc9a760e01b6020820180517bffffffffffffffffffffffffffffffffffffffffffffffffffffffff838183161783525050505090506000806000602060008551602087018a617530fa92503d91506000519050828015612170575060208210155b801561217c5750600081115b94505050505092915050565b6000819050919050565b61219b81612188565b82525050565b60006020820190506121b66000830184612192565b92915050565b6000604051905090565b600080fd5b600080fd5b600063ffffffff82169050919050565b6121e9816121d0565b81146121f457600080fd5b50565b600081359050612206816121e0565b92915050565b600060208284031215612222576122216121c6565b5b6000612230848285016121f7565b91505092915050565b7f4e487b7100000000000000000000000000000000000000000000000000000000600052602160045260246000fd5b6002811061227957612278612239565b5b50565b600081905061228a82612268565b919050565b600061229a8261227c565b9050919050565b6122aa8161228f565b82525050565b60006020820190506122c560008301846122a1565b92915050565b600073ffffffffffffffffffffffffffffffffffffffff82169050919050565b60006122f6826122cb565b9050919050565b612306816122eb565b811461231157600080fd5b50565b600081359050612323816122fd565b92915050565b60006020828403121561233f5761233e6121c6565b5b600061234d84828501612314565b91505092915050565b600081519050919050565b600082825260208201905092915050565b6000819050602082019050919050565b61238b81612188565b82525050565b600061239d8383612382565b60208301905092915050565b6000602082019050919050565b60006123c182612356565b6123cb8185612361565b93506123d683612372565b8060005b838110156124075781516123ee8882612391565b97506123f9836123a9565b9250506001810190506123da565b5085935050505092915050565b600081519050919050565b600082825260208201905092915050565b6000819050602082019050919050565b612449816122eb565b82525050565b600061245b8383612440565b60208301905092915050565b6000602082019050919050565b600061247f82612414565b612489818561241f565b935061249483612430565b8060005b838110156124c55781516124ac888261244f565b97506124b783612467565b925050600181019050612498565b5085935050505092915050565b600060408201905081810360008301526124ec81856123b6565b905081810360208301526125008184612474565b90509392505050565b6000819050919050565b600061252e612529612524846122cb565b612509565b6122cb565b9050919050565b600061254082612513565b9050919050565b600061255282612535565b9050919050565b61256281612547565b82525050565b600060208201905061257d6000830184612559565b92915050565b6002811061259057600080fd5b50565b6000813590506125a281612583565b92915050565b600080fd5b600080fd5b6000601f19601f8301169050919050565b7f4e487b7100000000000000000000000000000000000000000000000000000000600052604160045260246000fd5b6125fb826125b2565b810181811067ffffffffffffffff8211171561261a576126196125c3565b5b80604052505050565b600061262d6121bc565b905061263982826125f2565b919050565b600067ffffffffffffffff821115612659576126586125c3565b5b612662826125b2565b9050602081019050919050565b82818337600083830152505050565b600061269161268c8461263e565b612623565b9050828152602081018484840111156126ad576126ac6125ad565b5b6126b884828561266f565b509392505050565b600082601f8301126126d5576126d46125a8565b5b81356126e584826020860161267e565b91505092915050565b600080600060608486031215612707576127066121c6565b5b6000612715868287016121f7565b935050602061272686828701612593565b925050604084013567ffffffffffffffff811115612747576127466121cb565b5b612753868287016126c0565b9150509250925092565b600060ff82169050919050565b6127738161275d565b811461277e57600080fd5b50565b6000813590506127908161276a565b92915050565b6000806000606084860312156127af576127ae6121c6565b5b60006127bd86828701612314565b93505060206127ce868287016121f7565b92505060406127df86828701612781565b9150509250925092565b6127f281612188565b81146127fd57600080fd5b50565b60008135905061280f816127e9565b92915050565b60006020828403121561282b5761282a6121c6565b5b600061283984828501612800565b91505092915050565b61284b8161275d565b82525050565b60006020820190506128666000830184612842565b92915050565b60008115159050919050565b6128818161286c565b82525050565b600060208201905061289c6000830184612878565b92915050565b6128ab816122eb565b82525050565b6128ba816121d0565b82525050565b600067ffffffffffffffff82169050919050565b6128dd816128c0565b82525050565b60006060820190506128f860008301866128a2565b61290560208301856128b1565b61291260408301846128d4565b949350505050565b600060208201905061292f60008301846128b1565b92915050565b600060208201905061294a60008301846128d4565b92915050565b60008060408385031215612967576129666121c6565b5b600061297585828601612314565b925050602061298685828601612800565b9150509250929050565b6000819050919050565b6129a381612990565b81146129ae57600080fd5b50565b6000813590506129c08161299a565b92915050565b6000602082840312156129dc576129db6121c6565b5b60006129ea848285016129b1565b91505092915050565b6000602082019050612a0860008301846128a2565b92915050565b60008060408385031215612a2557612a246121c6565b5b6000612a33858286016121f7565b9250506020612a4485828601612314565b9150509250929050565b6000604082019050612a636000830185612192565b612a7060208301846128a2565b9392505050565b600060208284031215612a8d57612a8c6121c6565b5b600082013567ffffffffffffffff811115612aab57612aaa6121cb565b5b612ab7848285016126c0565b91505092915050565b7f4e487b7100000000000000000000000000000000000000000000000000000000600052603260045260246000fd5b612af881612990565b82525050565b6000602082019050612b136000830184612aef565b92915050565b600081519050612b28816122fd565b92915050565b600060208284031215612b4457612b436121c6565b5b6000612b5284828501612b19565b91505092915050565b612b648161286c565b8114612b6f57600080fd5b50565b600081519050612b8181612b5b565b92915050565b600060208284031215612b9d57612b9c6121c6565b5b6000612bab84828501612b72565b91505092915050565b7f4e487b7100000000000000000000000000000000000000000000000000000000600052601160045260246000fd5b6000612bee82612188565b91507fffffffffffffffffffffffffffffffffffffffffffffffffffffffffffffffff8203612c2057612c1f612bb4565b5b600182019050919050565b6000608082019050612c4060008301876128d4565b612c4d6020830186612192565b612c5a60408301856128b1565b612c6760608301846122a1565b95945050505050565b600081519050919050565b600082825260208201905092915050565b60005b83811015612caa578082015181840152602081019050612c8f565b60008484015250505050565b6000612cc182612c70565b612ccb8185612c7b565b9350612cdb818560208601612c8c565b612ce4816125b2565b840191505092915050565b612cf881612990565b82525050565b60006060830160008301518482036000860152612d1b8282612cb6565b9150506020830151612d306020860182612cef565b5060408301518482036040860152612d488282612cb6565b9150508091505092915050565b60006020820190508181036000830152612d6f8184612cfe565b905092915050565b6000604082019050612d8c60008301856128a2565b612d9960208301846128a2565b9392505050565b6000606082019050612db56000830186612192565b612dc260208301856128b1565b612dcf60408301846128a2565b949350505050565b6000606082019050612dec60008301866128a2565b612df960208301856128a2565b612e0660408301846128a2565b949350505050565b600080fd5b600080fd5b6000612e2b612e268461263e565b612623565b905082815260208101848484011115612e4757612e466125ad565b5b612e52848285612c8c565b509392505050565b600082601f830112612e6f57612e6e6125a8565b5b8151612e7f848260208601612e18565b91505092915050565b600081519050612e978161299a565b92915050565b600060608284031215612eb357612eb2612e0e565b5b612ebd6060612623565b9050600082015167ffffffffffffffff811115612edd57612edc612e13565b5b612ee984828501612e5a565b6000830152506020612efd84828501612e88565b602083015250604082015167ffffffffffffffff811115612f2157612f20612e13565b5b612f2d84828501612e5a565b60408301525092915050565b600060208284031215612f4f57612f4e6121c6565b5b600082015167ffffffffffffffff811115612f6d57612f6c6121cb565b5b612f7984828501612e9d565b91505092915050565b600081519050612f918161276a565b92915050565b60008060408385031215612fae57612fad6121c6565b5b6000612fbc85828601612f82565b925050602083015167ffffffffffffffff811115612fdd57612fdc6121cb565b5b612fe985828601612e5a565b9150509250929050565b600081519050613002816127e9565b92915050565b6000806040838503121561301f5761301e6121c6565b5b600061302d85828601612ff3565b925050602083015167ffffffffffffffff81111561304e5761304d6121cb565b5b61305a85828601612e5a565b9150509250929050565b600082825260208201905092915050565b600061308082612c70565b61308a8185613064565b935061309a818560208601612c8c565b6130a3816125b2565b840191505092915050565b600060a0820190506130c360008301886128a2565b6130d06020830187612842565b6130dd6040830186612192565b81810360608301526130ef8185613075565b905081810360808301526131038184613075565b90509695505050505050565b600061311a82612188565b915061312583612188565b925082820390508181111561313d5761313c612bb4565b5b92915050565b600081905092915050565b50565b600061315e600083613143565b91506131698261314e565b600082019050919050565b600061317f82613151565b9150819050919050565b613192816128c0565b811461319d57600080fd5b50565b6000815190506131af81613189565b92915050565b6000815190506131c4816121e0565b92915050565b6000815190506131d981612583565b92915050565b600080600080608085870312156131f9576131f86121c6565b5b6000613207878288016131a0565b945050602061321887828801612ff3565b9350506040613229878288016131b5565b925050606061323a878288016131ca565b91505092959194509250565b60007fffffffff0000000000000000000000000000000000000000000000000000000082169050919050565b61327b81613246565b82525050565b60006020820190506132966000830184613272565b9291505056fea2646970667358221220a953df53c63bfec085b1abef4d46b74411e57e3c8230e3c79b795fea7a44a28564736f6c63430008170033","linkReferences":{}},"methodIdentifiers":{"CHAIN_ID()":"85e1f4d0","addFormImplementation(address,uint32,uint8)":"3d2378f4","changeFormImplementationPauseStatus(uint32,uint8,bytes)":"2d75c56a","createSuperform(uint32,address)":"c4d6e6b2","formImplementation(uint32)":"e83310a2","formImplementationIds(address)":"80e8586b","formImplementationPaused(uint32)":"1bc089ed","formImplementations(uint256)":"dfd6e4ab","formStateRegistryId(uint32)":"7239fe4f","getAllSuperformsFromVault(address)":"2085caec","getFormCount()":"589434ca","getFormImplementation(uint32)":"bb3808cc","getFormStateRegistryId(uint32)":"52fc069e","getSuperform(uint256)":"6fb86dd3","getSuperformCount()":"1547665d","isFormImplementationPaused(uint32)":"596db717","isSuperform(uint256)":"b5c75697","stateSyncBroadcast(bytes)":"e6ddad4c","superRegistry()":"24c73dda","superforms(uint256)":"479f3b87","vaultFormImplCombinationToSuperforms(bytes32)":"b85225bb","vaultToFormImplementationId(address,uint256)":"9e066838","vaultToSuperforms(address,uint256)":"8de833a9","xChainPayloadCounter()":"edf387c5"},"id":114}