{"abi":[{"type":"constructor","inputs":[{"name":"superRegistry_","type":"address","internalType":"address"}],"stateMutability":"nonpayable"},{"type":"function","name":"CHAIN_ID","inputs":[],"outputs":[{"name":"","type":"uint64","internalType":"uint64"}],"stateMutability":"view"},{"type":"function","name":"ackGasCost","inputs":[{"name":"chainId","type":"uint64","internalType":"uint64"}],"outputs":[{"name":"gasForAck","type":"uint256","internalType":"uint256"}],"stateMutability":"view"},{"type":"function","name":"addRemoteChain","inputs":[{"name":"chainId_","type":"uint64","internalType":"uint64"},{"name":"config_","type":"tuple","internalType":"struct IPaymentHelper.PaymentHelperConfig","components":[{"name":"nativeFeedOracle","type":"address","internalType":"address"},{"name":"gasPriceOracle","type":"address","internalType":"address"},{"name":"swapGasUsed","type":"uint256","internalType":"uint256"},{"name":"updateGasUsed","type":"uint256","internalType":"uint256"},{"name":"depositGasUsed","type":"uint256","internalType":"uint256"},{"name":"withdrawGasUsed","type":"uint256","internalType":"uint256"},{"name":"defaultNativePrice","type":"uint256","internalType":"uint256"},{"name":"defaultGasPrice","type":"uint256","internalType":"uint256"},{"name":"dstGasPerByte","type":"uint256","internalType":"uint256"},{"name":"ackGasCost","type":"uint256","internalType":"uint256"},{"name":"timelockCost","type":"uint256","internalType":"uint256"},{"name":"emergencyCost","type":"uint256","internalType":"uint256"}]}],"outputs":[],"stateMutability":"nonpayable"},{"type":"function","name":"calculateAMBData","inputs":[{"name":"dstChainId_","type":"uint64","internalType":"uint64"},{"name":"ambIds_","type":"uint8[]","internalType":"uint8[]"},{"name":"message_","type":"bytes","internalType":"bytes"}],"outputs":[{"name":"totalFees","type":"uint256","internalType":"uint256"},{"name":"extraData","type":"bytes","internalType":"bytes"}],"stateMutability":"view"},{"type":"function","name":"depositGasUsed","inputs":[{"name":"chainId","type":"uint64","internalType":"uint64"}],"outputs":[{"name":"gasForDeposit","type":"uint256","internalType":"uint256"}],"stateMutability":"view"},{"type":"function","name":"emergencyCost","inputs":[{"name":"chainId","type":"uint64","internalType":"uint64"}],"outputs":[{"name":"gasForEmergency","type":"uint256","internalType":"uint256"}],"stateMutability":"view"},{"type":"function","name":"estimateAMBFees","inputs":[{"name":"ambIds_","type":"uint8[]","internalType":"uint8[]"},{"name":"dstChainId_","type":"uint64","internalType":"uint64"},{"name":"message_","type":"bytes","internalType":"bytes"},{"name":"extraData_","type":"bytes[]","internalType":"bytes[]"}],"outputs":[{"name":"totalFees","type":"uint256","internalType":"uint256"},{"name":"","type":"uint256[]","internalType":"uint256[]"}],"stateMutability":"view"},{"type":"function","name":"estimateAckCost","inputs":[{"name":"payloadId_","type":"uint256","internalType":"uint256"}],"outputs":[{"name":"totalFees","type":"uint256","internalType":"uint256"}],"stateMutability":"view"},{"type":"function","name":"estimateAckCostDefault","inputs":[{"name":"multi","type":"bool","internalType":"bool"},{"name":"ackAmbIds","type":"uint8[]","internalType":"uint8[]"},{"name":"srcChainId","type":"uint64","internalType":"uint64"}],"outputs":[{"name":"totalFees","type":"uint256","internalType":"uint256"}],"stateMutability":"view"},{"type":"function","name":"estimateAckCostDefaultNativeSource","inputs":[{"name":"multi","type":"bool","internalType":"bool"},{"name":"ackAmbIds","type":"uint8[]","internalType":"uint8[]"},{"name":"srcChainId","type":"uint64","internalType":"uint64"}],"outputs":[{"name":"","type":"uint256","internalType":"uint256"}],"stateMutability":"view"},{"type":"function","name":"estimateMultiDstMultiVault","inputs":[{"name":"req_","type":"tuple","internalType":"struct MultiDstMultiVaultStateReq","components":[{"name":"ambIds","type":"uint8[][]","internalType":"uint8[][]"},{"name":"dstChainIds","type":"uint64[]","internalType":"uint64[]"},{"name":"superformsData","type":"tuple[]","internalType":"struct MultiVaultSFData[]","components":[{"name":"superformIds","type":"uint256[]","internalType":"uint256[]"},{"name":"amounts","type":"uint256[]","internalType":"uint256[]"},{"name":"outputAmounts","type":"uint256[]","internalType":"uint256[]"},{"name":"maxSlippages","type":"uint256[]","internalType":"uint256[]"},{"name":"liqRequests","type":"tuple[]","internalType":"struct LiqRequest[]","components":[{"name":"txData","type":"bytes","internalType":"bytes"},{"name":"token","type":"address","internalType":"address"},{"name":"interimToken","type":"address","internalType":"address"},{"name":"bridgeId","type":"uint8","internalType":"uint8"},{"name":"liqDstChainId","type":"uint64","internalType":"uint64"},{"name":"nativeAmount","type":"uint256","internalType":"uint256"}]},{"name":"permit2data","type":"bytes","internalType":"bytes"},{"name":"hasDstSwaps","type":"bool[]","internalType":"bool[]"},{"name":"retain4626s","type":"bool[]","internalType":"bool[]"},{"name":"receiverAddress","type":"address","internalType":"address"},{"name":"receiverAddressSP","type":"address","internalType":"address"},{"name":"extraFormData","type":"bytes","internalType":"bytes"}]}]},{"name":"isDeposit_","type":"bool","internalType":"bool"}],"outputs":[{"name":"liqAmount","type":"uint256","internalType":"uint256"},{"name":"srcAmount","type":"uint256","internalType":"uint256"},{"name":"dstAmount","type":"uint256","internalType":"uint256"},{"name":"totalAmount","type":"uint256","internalType":"uint256"}],"stateMutability":"view"},{"type":"function","name":"estimateMultiDstSingleVault","inputs":[{"name":"req_","type":"tuple","internalType":"struct MultiDstSingleVaultStateReq","components":[{"name":"ambIds","type":"uint8[][]","internalType":"uint8[][]"},{"name":"dstChainIds","type":"uint64[]","internalType":"uint64[]"},{"name":"superformsData","type":"tuple[]","internalType":"struct SingleVaultSFData[]","components":[{"name":"superformId","type":"uint256","internalType":"uint256"},{"name":"amount","type":"uint256","internalType":"uint256"},{"name":"outputAmount","type":"uint256","internalType":"uint256"},{"name":"maxSlippage","type":"uint256","internalType":"uint256"},{"name":"liqRequest","type":"tuple","internalType":"struct LiqRequest","components":[{"name":"txData","type":"bytes","internalType":"bytes"},{"name":"token","type":"address","internalType":"address"},{"name":"interimToken","type":"address","internalType":"address"},{"name":"bridgeId","type":"uint8","internalType":"uint8"},{"name":"liqDstChainId","type":"uint64","internalType":"uint64"},{"name":"nativeAmount","type":"uint256","internalType":"uint256"}]},{"name":"permit2data","type":"bytes","internalType":"bytes"},{"name":"hasDstSwap","type":"bool","internalType":"bool"},{"name":"retain4626","type":"bool","internalType":"bool"},{"name":"receiverAddress","type":"address","internalType":"address"},{"name":"receiverAddressSP","type":"address","internalType":"address"},{"name":"extraFormData","type":"bytes","internalType":"bytes"}]}]},{"name":"isDeposit_","type":"bool","internalType":"bool"}],"outputs":[{"name":"liqAmount","type":"uint256","internalType":"uint256"},{"name":"srcAmount","type":"uint256","internalType":"uint256"},{"name":"dstAmount","type":"uint256","internalType":"uint256"},{"name":"totalAmount","type":"uint256","internalType":"uint256"}],"stateMutability":"view"},{"type":"function","name":"estimateSingleDirectMultiVault","inputs":[{"name":"req_","type":"tuple","internalType":"struct SingleDirectMultiVaultStateReq","components":[{"name":"superformData","type":"tuple","internalType":"struct MultiVaultSFData","components":[{"name":"superformIds","type":"uint256[]","internalType":"uint256[]"},{"name":"amounts","type":"uint256[]","internalType":"uint256[]"},{"name":"outputAmounts","type":"uint256[]","internalType":"uint256[]"},{"name":"maxSlippages","type":"uint256[]","internalType":"uint256[]"},{"name":"liqRequests","type":"tuple[]","internalType":"struct LiqRequest[]","components":[{"name":"txData","type":"bytes","internalType":"bytes"},{"name":"token","type":"address","internalType":"address"},{"name":"interimToken","type":"address","internalType":"address"},{"name":"bridgeId","type":"uint8","internalType":"uint8"},{"name":"liqDstChainId","type":"uint64","internalType":"uint64"},{"name":"nativeAmount","type":"uint256","internalType":"uint256"}]},{"name":"permit2data","type":"bytes","internalType":"bytes"},{"name":"hasDstSwaps","type":"bool[]","internalType":"bool[]"},{"name":"retain4626s","type":"bool[]","internalType":"bool[]"},{"name":"receiverAddress","type":"address","internalType":"address"},{"name":"receiverAddressSP","type":"address","internalType":"address"},{"name":"extraFormData","type":"bytes","internalType":"bytes"}]}]},{"name":"isDeposit_","type":"bool","internalType":"bool"}],"outputs":[{"name":"liqAmount","type":"uint256","internalType":"uint256"},{"name":"srcAmount","type":"uint256","internalType":"uint256"},{"name":"totalAmount","type":"uint256","internalType":"uint256"}],"stateMutability":"view"},{"type":"function","name":"estimateSingleDirectSingleVault","inputs":[{"name":"req_","type":"tuple","internalType":"struct SingleDirectSingleVaultStateReq","components":[{"name":"superformData","type":"tuple","internalType":"struct SingleVaultSFData","components":[{"name":"superformId","type":"uint256","internalType":"uint256"},{"name":"amount","type":"uint256","internalType":"uint256"},{"name":"outputAmount","type":"uint256","internalType":"uint256"},{"name":"maxSlippage","type":"uint256","internalType":"uint256"},{"name":"liqRequest","type":"tuple","internalType":"struct LiqRequest","components":[{"name":"txData","type":"bytes","internalType":"bytes"},{"name":"token","type":"address","internalType":"address"},{"name":"interimToken","type":"address","internalType":"address"},{"name":"bridgeId","type":"uint8","internalType":"uint8"},{"name":"liqDstChainId","type":"uint64","internalType":"uint64"},{"name":"nativeAmount","type":"uint256","internalType":"uint256"}]},{"name":"permit2data","type":"bytes","internalType":"bytes"},{"name":"hasDstSwap","type":"bool","internalType":"bool"},{"name":"retain4626","type":"bool","internalType":"bool"},{"name":"receiverAddress","type":"address","internalType":"address"},{"name":"receiverAddressSP","type":"address","internalType":"address"},{"name":"extraFormData","type":"bytes","internalType":"bytes"}]}]},{"name":"isDeposit_","type":"bool","internalType":"bool"}],"outputs":[{"name":"liqAmount","type":"uint256","internalType":"uint256"},{"name":"srcAmount","type":"uint256","internalType":"uint256"},{"name":"totalAmount","type":"uint256","internalType":"uint256"}],"stateMutability":"view"},{"type":"function","name":"estimateSingleXChainMultiVault","inputs":[{"name":"req_","type":"tuple","internalType":"struct SingleXChainMultiVaultStateReq","components":[{"name":"ambIds","type":"uint8[]","internalType":"uint8[]"},{"name":"dstChainId","type":"uint64","internalType":"uint64"},{"name":"superformsData","type":"tuple","internalType":"struct MultiVaultSFData","components":[{"name":"superformIds","type":"uint256[]","internalType":"uint256[]"},{"name":"amounts","type":"uint256[]","internalType":"uint256[]"},{"name":"outputAmounts","type":"uint256[]","internalType":"uint256[]"},{"name":"maxSlippages","type":"uint256[]","internalType":"uint256[]"},{"name":"liqRequests","type":"tuple[]","internalType":"struct LiqRequest[]","components":[{"name":"txData","type":"bytes","internalType":"bytes"},{"name":"token","type":"address","internalType":"address"},{"name":"interimToken","type":"address","internalType":"address"},{"name":"bridgeId","type":"uint8","internalType":"uint8"},{"name":"liqDstChainId","type":"uint64","internalType":"uint64"},{"name":"nativeAmount","type":"uint256","internalType":"uint256"}]},{"name":"permit2data","type":"bytes","internalType":"bytes"},{"name":"hasDstSwaps","type":"bool[]","internalType":"bool[]"},{"name":"retain4626s","type":"bool[]","internalType":"bool[]"},{"name":"receiverAddress","type":"address","internalType":"address"},{"name":"receiverAddressSP","type":"address","internalType":"address"},{"name":"extraFormData","type":"bytes","internalType":"bytes"}]}]},{"name":"isDeposit_","type":"bool","internalType":"bool"}],"outputs":[{"name":"liqAmount","type":"uint256","internalType":"uint256"},{"name":"srcAmount","type":"uint256","internalType":"uint256"},{"name":"dstAmount","type":"uint256","internalType":"uint256"},{"name":"totalAmount","type":"uint256","internalType":"uint256"}],"stateMutability":"view"},{"type":"function","name":"estimateSingleXChainSingleVault","inputs":[{"name":"req_","type":"tuple","internalType":"struct SingleXChainSingleVaultStateReq","components":[{"name":"ambIds","type":"uint8[]","internalType":"uint8[]"},{"name":"dstChainId","type":"uint64","internalType":"uint64"},{"name":"superformData","type":"tuple","internalType":"struct SingleVaultSFData","components":[{"name":"superformId","type":"uint256","internalType":"uint256"},{"name":"amount","type":"uint256","internalType":"uint256"},{"name":"outputAmount","type":"uint256","internalType":"uint256"},{"name":"maxSlippage","type":"uint256","internalType":"uint256"},{"name":"liqRequest","type":"tuple","internalType":"struct LiqRequest","components":[{"name":"txData","type":"bytes","internalType":"bytes"},{"name":"token","type":"address","internalType":"address"},{"name":"interimToken","type":"address","internalType":"address"},{"name":"bridgeId","type":"uint8","internalType":"uint8"},{"name":"liqDstChainId","type":"uint64","internalType":"uint64"},{"name":"nativeAmount","type":"uint256","internalType":"uint256"}]},{"name":"permit2data","type":"bytes","internalType":"bytes"},{"name":"hasDstSwap","type":"bool","internalType":"bool"},{"name":"retain4626","type":"bool","internalType":"bool"},{"name":"receiverAddress","type":"address","internalType":"address"},{"name":"receiverAddressSP","type":"address","internalType":"address"},{"name":"extraFormData","type":"bytes","internalType":"bytes"}]}]},{"name":"isDeposit_","type":"bool","internalType":"bool"}],"outputs":[{"name":"liqAmount","type":"uint256","internalType":"uint256"},{"name":"srcAmount","type":"uint256","internalType":"uint256"},{"name":"dstAmount","type":"uint256","internalType":"uint256"},{"name":"totalAmount","type":"uint256","internalType":"uint256"}],"stateMutability":"view"},{"type":"function","name":"extraDataForTransmuter","inputs":[],"outputs":[{"name":"","type":"bytes","internalType":"bytes"}],"stateMutability":"view"},{"type":"function","name":"gasPerByte","inputs":[{"name":"chainId","type":"uint64","internalType":"uint64"}],"outputs":[{"name":"gasPerByte","type":"uint256","internalType":"uint256"}],"stateMutability":"view"},{"type":"function","name":"gasPrice","inputs":[{"name":"chainId","type":"uint64","internalType":"uint64"}],"outputs":[{"name":"defaultGasPrice","type":"uint256","internalType":"uint256"}],"stateMutability":"view"},{"type":"function","name":"gasPriceOracle","inputs":[{"name":"chainId","type":"uint64","internalType":"uint64"}],"outputs":[{"name":"","type":"address","internalType":"contract AggregatorV3Interface"}],"stateMutability":"view"},{"type":"function","name":"getRegisterTransmuterAMBData","inputs":[],"outputs":[{"name":"","type":"bytes","internalType":"bytes"}],"stateMutability":"view"},{"type":"function","name":"nativeFeedOracle","inputs":[{"name":"chainId","type":"uint64","internalType":"uint64"}],"outputs":[{"name":"","type":"address","internalType":"contract AggregatorV3Interface"}],"stateMutability":"view"},{"type":"function","name":"nativePrice","inputs":[{"name":"chainId","type":"uint64","internalType":"uint64"}],"outputs":[{"name":"defaultNativePrice","type":"uint256","internalType":"uint256"}],"stateMutability":"view"},{"type":"function","name":"superRegistry","inputs":[],"outputs":[{"name":"","type":"address","internalType":"contract ISuperRegistry"}],"stateMutability":"view"},{"type":"function","name":"swapGasUsed","inputs":[{"name":"chainId","type":"uint64","internalType":"uint64"}],"outputs":[{"name":"gasForSwap","type":"uint256","internalType":"uint256"}],"stateMutability":"view"},{"type":"function","name":"timelockCost","inputs":[{"name":"chainId","type":"uint64","internalType":"uint64"}],"outputs":[{"name":"gasForTimelock","type":"uint256","internalType":"uint256"}],"stateMutability":"view"},{"type":"function","name":"updateGasUsed","inputs":[{"name":"chainId","type":"uint64","internalType":"uint64"}],"outputs":[{"name":"gasForUpdate","type":"uint256","internalType":"uint256"}],"stateMutability":"view"},{"type":"function","name":"updateRegisterAERC20Params","inputs":[{"name":"extraDataForTransmuter_","type":"bytes","internalType":"bytes"}],"outputs":[],"stateMutability":"nonpayable"},{"type":"function","name":"updateRemoteChain","inputs":[{"name":"chainId_","type":"uint64","internalType":"uint64"},{"name":"configType_","type":"uint256","internalType":"uint256"},{"name":"config_","type":"bytes","internalType":"bytes"}],"outputs":[],"stateMutability":"nonpayable"},{"type":"function","name":"withdrawGasUsed","inputs":[{"name":"chainId","type":"uint64","internalType":"uint64"}],"outputs":[{"name":"gasForWithdraw","type":"uint256","internalType":"uint256"}],"stateMutability":"view"},{"type":"event","name":"ChainConfigAdded","inputs":[{"name":"chainId_","type":"uint64","indexed":false,"internalType":"uint64"},{"name":"config_","type":"tuple","indexed":false,"internalType":"struct IPaymentHelper.PaymentHelperConfig","components":[{"name":"nativeFeedOracle","type":"address","internalType":"address"},{"name":"gasPriceOracle","type":"address","internalType":"address"},{"name":"swapGasUsed","type":"uint256","internalType":"uint256"},{"name":"updateGasUsed","type":"uint256","internalType":"uint256"},{"name":"depositGasUsed","type":"uint256","internalType":"uint256"},{"name":"withdrawGasUsed","type":"uint256","internalType":"uint256"},{"name":"defaultNativePrice","type":"uint256","internalType":"uint256"},{"name":"defaultGasPrice","type":"uint256","internalType":"uint256"},{"name":"dstGasPerByte","type":"uint256","internalType":"uint256"},{"name":"ackGasCost","type":"uint256","internalType":"uint256"},{"name":"timelockCost","type":"uint256","internalType":"uint256"},{"name":"emergencyCost","type":"uint256","internalType":"uint256"}]}],"anonymous":false},{"type":"event","name":"ChainConfigUpdated","inputs":[{"name":"chainId_","type":"uint64","indexed":true,"internalType":"uint64"},{"name":"configType_","type":"uint256","indexed":true,"internalType":"uint256"},{"name":"config_","type":"bytes","indexed":false,"internalType":"bytes"}],"anonymous":false},{"type":"error","name":"BLOCK_CHAIN_ID_OUT_OF_BOUNDS","inputs":[]},{"type":"error","name":"CHAINLINK_INCOMPLETE_ROUND","inputs":[]},{"type":"error","name":"CHAINLINK_MALFUNCTION","inputs":[]},{"type":"error","name":"CHAINLINK_UNSUPPORTED_DECIMAL","inputs":[]},{"type":"error","name":"INVALID_CHAIN_ID","inputs":[]},{"type":"error","name":"INVALID_NATIVE_TOKEN_PRICE","inputs":[]},{"type":"error","name":"INVALID_PAYLOAD_ID","inputs":[]},{"type":"error","name":"NOT_EMERGENCY_ADMIN","inputs":[]},{"type":"error","name":"NOT_PROTOCOL_ADMIN","inputs":[]},{"type":"error","name":"ZERO_ADDRESS","inputs":[]}],"bytecode":{"object":"0x60c06040523480156200001157600080fd5b5060405162008a5238038062008a528339818101604052810190620000379190620001a4565b600073ffffffffffffffffffffffffffffffffffffffff168173ffffffffffffffffffffffffffffffffffffffff16036200009e576040517f538ba4f900000000000000000000000000000000000000000000000000000000815260040160405180910390fd5b67ffffffffffffffff8016461115620000e3576040517f7ecdf93300000000000000000000000000000000000000000000000000000000815260040160405180910390fd5b4667ffffffffffffffff1660a08167ffffffffffffffff16815250508073ffffffffffffffffffffffffffffffffffffffff1660808173ffffffffffffffffffffffffffffffffffffffff168152505050620001d6565b600080fd5b600073ffffffffffffffffffffffffffffffffffffffff82169050919050565b60006200016c826200013f565b9050919050565b6200017e816200015f565b81146200018a57600080fd5b50565b6000815190506200019e8162000173565b92915050565b600060208284031215620001bd57620001bc6200013a565b5b6000620001cd848285016200018d565b91505092915050565b60805160a0516187a7620002ab600039600081816107d401528181611ca601528181611cd001528181611d2501528181611d4f0152818161260a01528181612c440152818161334f01528181613b9801528181613bc201528181613c2b01528181613c5501528181613e80015281816141730152818161464d015281816146a10152818161476201528181614969015281816149ce0152614bc401526000818161080f015281816109bf01528181610a4f01528181613ebd015281816141b0015281816143540152614e9a01526187a76000f3fe608060405234801561001057600080fd5b50600436106101da5760003560e01c80637504988b11610104578063b9694b52116100a2578063da16363711610071578063da1636371461065a578063ee4bc1c714610678578063f3afdd88146106a8578063f3d80846146106db576101da565b8063b9694b52146105a8578063c97c55b0146105c4578063d7013974146105f7578063d8bb4f4e1461062a576101da565b806385e1f4d0116100de57806385e1f4d0146104fa578063904b1a2814610518578063a9ce464814610548578063b1752d5914610578576101da565b80637504988b1461047c5780637abae251146104ae5780637f7aecb5146104ca576101da565b80634545fc311161017c5780634c75c0d81161014b5780634c75c0d8146103cb57806353d69edc146103fb578063596703e71461041957806361d26cae14610449576101da565b80634545fc311461031f5780634786b4241461034f57806349c3af451461037f57806349c4144c146103af576101da565b80631f864be3116101b85780631f864be31461026f57806324c73dda146102a05780633283166a146102be57806336c7fe1d146102ef576101da565b80630292540b146101df57806312c4da861461020f5780631f5ae58f1461023f575b600080fd5b6101f960048036038101906101f49190615395565b61070d565b60405161020691906153db565b60405180910390f35b61022960048036038101906102249190615395565b610725565b6040516102369190615475565b60405180910390f35b61025960048036038101906102549190615395565b610758565b60405161026691906153db565b60405180910390f35b610289600480360381019061028491906157b8565b610770565b604051610297929190615931565b60405180910390f35b6102a86109bd565b6040516102b59190615982565b60405180910390f35b6102d860048036038101906102d391906159f8565b6109e1565b6040516102e6929190615b07565b60405180910390f35b61030960048036038101906103049190615b6f565b610a41565b60405161031691906153db565b60405180910390f35b61033960048036038101906103349190615395565b610cf5565b60405161034691906153db565b60405180910390f35b61036960048036038101906103649190615395565b610d0d565b60405161037691906153db565b60405180910390f35b61039960048036038101906103949190615395565b610d25565b6040516103a69190615475565b60405180910390f35b6103c960048036038101906103c49190615c03565b610d58565b005b6103e560048036038101906103e09190615395565b611336565b6040516103f291906153db565b60405180910390f35b61040361134e565b6040516104109190615c44565b60405180910390f35b610433600480360381019061042e9190615c92565b6113e0565b60405161044091906153db565b60405180910390f35b610463600480360381019061045e9190615cde565b611890565b6040516104739493929190615d3a565b60405180910390f35b61049660048036038101906104919190615d9e565b611c44565b6040516104a593929190615dfa565b60405180910390f35b6104c860048036038101906104c39190615e31565b611f1f565b005b6104e460048036038101906104df9190615395565b6125f0565b6040516104f191906153db565b60405180910390f35b610502612608565b60405161050f9190615eaf565b60405180910390f35b610532600480360381019061052d9190615395565b61262c565b60405161053f91906153db565b60405180910390f35b610562600480360381019061055d9190615395565b612644565b60405161056f91906153db565b60405180910390f35b610592600480360381019061058d9190615b6f565b61265c565b60405161059f91906153db565b60405180910390f35b6105c260048036038101906105bd9190615eca565b61267b565b005b6105de60048036038101906105d99190615f32565b612766565b6040516105ee9493929190615d3a565b60405180910390f35b610611600480360381019061060c9190615fad565b612bec565b6040516106219493929190615d3a565b60405180910390f35b610644600480360381019061063f9190615395565b613228565b60405161065191906153db565b60405180910390f35b610662613240565b60405161066f9190615c44565b60405180910390f35b610692600480360381019061068d9190615395565b6132ce565b60405161069f91906153db565b60405180910390f35b6106c260048036038101906106bd9190616028565b6132e6565b6040516106d29493929190615d3a565b60405180910390f35b6106f560048036038101906106f091906160a3565b613a9e565b60405161070493929190615dfa565b60405180910390f35b600b6020528060005260406000206000915090505481565b60006020528060005260406000206000915054906101000a900473ffffffffffffffffffffffffffffffffffffffff1681565b600a6020528060005260406000206000915090505481565b6000606060008651905060008167ffffffffffffffff811115610796576107956154a6565b5b6040519080825280602002602001820160405280156107c45781602001602082028036833780820191505090505b5090508667ffffffffffffffff167f000000000000000000000000000000000000000000000000000000000000000067ffffffffffffffff16146109ac5760005b828110156109aa577f000000000000000000000000000000000000000000000000000000000000000073ffffffffffffffffffffffffffffffffffffffff16630eff125d8a838151811061085c5761085b6160ff565b5b60200260200101516040518263ffffffff1660e01b8152600401610880919061613d565b602060405180830381865afa15801561089d573d6000803e3d6000fd5b505050506040513d601f19601f820116820180604052508101906108c19190616196565b73ffffffffffffffffffffffffffffffffffffffff1663ea98b14789898985815181106108f1576108f06160ff565b5b60200260200101516040518463ffffffff1660e01b8152600401610917939291906161c3565b602060405180830381865afa158015610934573d6000803e3d6000fd5b505050506040513d601f19601f82011682018060405250810190610958919061621d565b82828151811061096b5761096a6160ff565b5b60200260200101818152505081818151811061098a576109896160ff565b5b60200260200101518561099d9190616279565b9450806001019050610805565b505b838193509350505094509492505050565b7f000000000000000000000000000000000000000000000000000000000000000081565b6000606060008060006109f689898989613d08565b925092509250604051806040016040528084815260200183815250604051602001610a21919061646c565b604051602081830303815290604052935080945050505094509492505050565b600060608415610bf05760007f000000000000000000000000000000000000000000000000000000000000000073ffffffffffffffffffffffffffffffffffffffff1663bffc1e13856040518263ffffffff1660e01b8152600401610aa69190615eaf565b602060405180830381865afa158015610ac3573d6000803e3d6000fd5b505050506040513d601f19601f82011682018060405250810190610ae7919061621d565b905060008167ffffffffffffffff811115610b0557610b046154a6565b5b604051908082528060200260200182016040528015610b335781602001602082028036833780820191505090505b50905060005b82811015610b8c577fffffffffffffffffffffffffffffffffffffffffffffffffffffffffffffffff828281518110610b7557610b746160ff565b5b602002602001018181525050806001019050610b39565b5060405180606001604052807fffffffffffffffffffffffffffffffffffffffffffffffffffffffffffffffff815260200182815260200182815250604051602001610bd891906164e5565b60405160208183030381529060405292505050610c8d565b60405180606001604052807fffffffffffffffffffffffffffffffffffffffffffffffffffffffffffffffff81526020017fffffffffffffffffffffffffffffffffffffffffffffffffffffffffffffffff81526020017fffffffffffffffffffffffffffffffffffffffffffffffffffffffffffffffff815250604051602001610c7b9190616549565b60405160208183030381529060405290505b610ceb848460405180604001604052807fffffffffffffffffffffffffffffffffffffffffffffffffffffffffffffffff815260200185815250604051602001610cd791906165a1565b60405160208183030381529060405261408c565b9150509392505050565b60066020528060005260406000206000915090505481565b60076020528060005260406000206000915090505481565b60016020528060005260406000206000915054906101000a900473ffffffffffffffffffffffffffffffffffffffff1681565b610d817f6b50fa17b77d24e42e27a04b69fe50cd6967cfb767d18de0bd5fe7e1a32aa868614350565b73ffffffffffffffffffffffffffffffffffffffff1663d35911f2336040518263ffffffff1660e01b8152600401610db991906165d2565b602060405180830381865afa158015610dd6573d6000803e3d6000fd5b505050506040513d601f19601f82011682018060405250810190610dfa9190616602565b610e30576040517fdc85555400000000000000000000000000000000000000000000000000000000815260040160405180910390fd5b600073ffffffffffffffffffffffffffffffffffffffff16816000016020810190610e5b9190616644565b73ffffffffffffffffffffffffffffffffffffffff1614610fa2576000816000016020810190610e8b9190616644565b9050600860ff168173ffffffffffffffffffffffffffffffffffffffff1663313ce5676040518163ffffffff1660e01b8152600401602060405180830381865afa158015610edd573d6000803e3d6000fd5b505050506040513d601f19601f82011682018060405250810190610f019190616686565b60ff1614610f3b576040517f6667354600000000000000000000000000000000000000000000000000000000815260040160405180910390fd5b806000808567ffffffffffffffff1667ffffffffffffffff16815260200190815260200160002060006101000a81548173ffffffffffffffffffffffffffffffffffffffff021916908373ffffffffffffffffffffffffffffffffffffffff160217905550505b600073ffffffffffffffffffffffffffffffffffffffff16816020016020810190610fcd9190616644565b73ffffffffffffffffffffffffffffffffffffffff1614611115576000816020016020810190610ffd9190616644565b9050600860ff168173ffffffffffffffffffffffffffffffffffffffff1663313ce5676040518163ffffffff1660e01b8152600401602060405180830381865afa15801561104f573d6000803e3d6000fd5b505050506040513d601f19601f820116820180604052508101906110739190616686565b60ff16146110ad576040517f6667354600000000000000000000000000000000000000000000000000000000815260040160405180910390fd5b80600160008567ffffffffffffffff1667ffffffffffffffff16815260200190815260200160002060006101000a81548173ffffffffffffffffffffffffffffffffffffffff021916908373ffffffffffffffffffffffffffffffffffffffff160217905550505b8060400135600260008467ffffffffffffffff1667ffffffffffffffff168152602001908152602001600020819055508060600135600360008467ffffffffffffffff1667ffffffffffffffff168152602001908152602001600020819055508060800135600460008467ffffffffffffffff1667ffffffffffffffff168152602001908152602001600020819055508060a00135600560008467ffffffffffffffff1667ffffffffffffffff168152602001908152602001600020819055508060c00135600660008467ffffffffffffffff1667ffffffffffffffff168152602001908152602001600020819055508060e00135600760008467ffffffffffffffff1667ffffffffffffffff16815260200190815260200160002081905550806101000135600860008467ffffffffffffffff1667ffffffffffffffff16815260200190815260200160002081905550806101200135600960008467ffffffffffffffff1667ffffffffffffffff16815260200190815260200160002081905550806101400135600a60008467ffffffffffffffff1667ffffffffffffffff16815260200190815260200160002081905550806101600135600b60008467ffffffffffffffff1667ffffffffffffffff168152602001908152602001600020819055507f1398b222973e8ac251bde901bfdec29f22df65e1d77bd8e495e25e34d484a2ab828260405161132a929190616846565b60405180910390a15050565b60046020528060005260406000206000915090505481565b6060600c805461135d9061689f565b80601f01602080910402602001604051908101604052809291908181526020018280546113899061689f565b80156113d65780601f106113ab576101008083540402835291602001916113d6565b820191906000526020600020905b8154815290600101906020018083116113b957829003601f168201915b5050505050905090565b60006113ea61524c565b60006114157f55b101fc856aff484166c46ad33bc74831c135693c159b0092bb3b72254ffb6b614350565b90508073ffffffffffffffffffffffffffffffffffffffff166313c02a596040518163ffffffff1660e01b8152600401602060405180830381865afa158015611462573d6000803e3d6000fd5b505050506040513d601f19601f82011682018060405250810190611486919061621d565b82600001818152505081600001518411156114cd576040517fabb4594600000000000000000000000000000000000000000000000000000000815260040160405180910390fd5b8073ffffffffffffffffffffffffffffffffffffffff166336445ffd856040518263ffffffff1660e01b815260040161150691906153db565b602060405180830381865afa158015611523573d6000803e3d6000fd5b505050506040513d601f19601f82011682018060405250810190611547919061621d565b8260200181815250508073ffffffffffffffffffffffffffffffffffffffff1663361ad42b856040518263ffffffff1660e01b815260040161158991906153db565b600060405180830381865afa1580156115a6573d6000803e3d6000fd5b505050506040513d6000823e3d601f19601f820116820180604052508101906115cf9190616940565b82606001819052506115e482602001516143f3565b9091929394509091509050846040018560a0018660c0018367ffffffffffffffff1667ffffffffffffffff168152508360ff1660ff168152508360ff1660ff168152505050506000826040015160ff16146116445760009250505061188b565b60018260a0015160ff16036116c3576000826060015180602001905181019061166d9190616ea1565b90506040518060600160405280846000015181526020018260200151815260200182604001518152506040516020016116a691906164e5565b60405160208183030381529060405283606001819052505061172f565b600082606001518060200190518101906116dd9190617018565b90506040518060600160405280846000015181526020018260200151815260200182604001518152506040516020016117169190616549565b6040516020818303038152906040528360600181905250505b8073ffffffffffffffffffffffffffffffffffffffff1663d830364e856040518263ffffffff1660e01b815260040161176891906153db565b600060405180830381865afa158015611785573d6000803e3d6000fd5b505050506040513d6000823e3d601f19601f820116820180604052508101906117ae91906170f8565b826080018190525060405180604001604052808273ffffffffffffffffffffffffffffffffffffffff166336445ffd876040518263ffffffff1660e01b81526004016117fa91906153db565b602060405180830381865afa158015611817573d6000803e3d6000fd5b505050506040513d601f19601f8201168201806040525081019061183b919061621d565b8152602001836060015181525060405160200161185891906165a1565b6040516020818303038152906040528260e0018190525061188682608001518360c001518460e0015161408c565b925050505b919050565b6000806000806000806118c27fbcc180fb907e9ae431665de4bc74305c00b7b27442aadd477980ecc4bb14c011614350565b905060006119528980600001906118d99190617150565b80806020026020016040519081016040528093929190818152602001838360200280828437600081840152601f19601f820116905080830192505050505050508a602001602081019061192c9190615395565b61194d8c806040019061193f91906171b3565b611948906173f8565b61442b565b61408c565b905080866119609190616279565b95508715611a6e576119a061199b8a806040019061197e91906171b3565b806080019061198d919061740b565b61199690617433565b614539565b6145b7565b876119ab9190616279565b96506119ca8960200160208101906119c39190615395565b6001614607565b836119d59190616279565b92508880604001906119e791906171b3565b60e00160208101906119f99190617446565b611a1557611a076001614644565b86611a129190616279565b95505b611a5c896020016020810190611a2b9190615395565b611a578b8060400190611a3e91906171b3565b60c0016020810190611a509190617446565b15156146d8565b614752565b83611a679190616279565b9250611bcb565b6000611a8c8a8060400190611a8391906171b3565b60000135614835565b5091505060008373ffffffffffffffffffffffffffffffffffffffff1663596db717836040518263ffffffff1660e01b8152600401611acb9190617492565b602060405180830381865afa158015611ae8573d6000803e3d6000fd5b505050506040513d601f19601f82011682018060405250810190611b0c9190616602565b905080158015611b285750600263ffffffff168263ffffffff16145b15611b7957600a60008c6020016020810190611b449190615395565b67ffffffffffffffff1667ffffffffffffffff1681526020019081526020016000205485611b729190616279565b9450611bc8565b8015611bc757600b60008c6020016020810190611b969190615395565b67ffffffffffffffff1667ffffffffffffffff1681526020019081526020016000205485611bc49190616279565b94505b5b50505b611be9888a6020016020810190611be29190615395565b6001614896565b83611bf49190616279565b9250611c12896020016020810190611c0c9190615395565b8461490c565b85611c1d9190616279565b9450868587611c2c9190616279565b611c369190616279565b935050505092959194509250565b600080600080611c737fbcc180fb907e9ae431665de4bc74305c00b7b27442aadd477980ecc4bb14c011614350565b905084611ec9576000868060000190611c8c91906174ad565b8060000190611c9b91906174d6565b905090506000611cca7f0000000000000000000000000000000000000000000000000000000000000000614a09565b600a60007f000000000000000000000000000000000000000000000000000000000000000067ffffffffffffffff1667ffffffffffffffff16815260200190815260200160002054611d1c9190617539565b90506000611d497f0000000000000000000000000000000000000000000000000000000000000000614a09565b600b60007f000000000000000000000000000000000000000000000000000000000000000067ffffffffffffffff1667ffffffffffffffff16815260200190815260200160002054611d9b9190617539565b905060005b83811015611ec0576000611de98b8060000190611dbd91906174ad565b8060000190611dcc91906174d6565b84818110611ddd57611ddc6160ff565b5b90506020020135614835565b5091505060008673ffffffffffffffffffffffffffffffffffffffff1663596db717836040518263ffffffff1660e01b8152600401611e289190617492565b602060405180830381865afa158015611e45573d6000803e3d6000fd5b505050506040513d601f19601f82011682018060405250810190611e699190616602565b905080158015611e855750600263ffffffff168263ffffffff16145b15611e9d578489611e969190616279565b9850611eb3565b8015611eb2578389611eaf9190616279565b98505b5b5050806001019050611da0565b50505050611f09565b611efb868060000190611edc91906174ad565b8060800190611eeb919061757b565b90611ef69190617665565b6145b7565b84611f069190616279565b93505b8284611f159190616279565b9150509250925092565b611f487f6b50fa17b77d24e42e27a04b69fe50cd6967cfb767d18de0bd5fe7e1a32aa868614350565b73ffffffffffffffffffffffffffffffffffffffff16632f41ca96336040518263ffffffff1660e01b8152600401611f8091906165d2565b602060405180830381865afa158015611f9d573d6000803e3d6000fd5b505050506040513d601f19601f82011682018060405250810190611fc19190616602565b611ff7576040517f445b0c3a00000000000000000000000000000000000000000000000000000000815260040160405180910390fd5b600182036121675760008180602001905181019061201591906176b8565b9050600073ffffffffffffffffffffffffffffffffffffffff168173ffffffffffffffffffffffffffffffffffffffff16141580156120c95750600860ff168173ffffffffffffffffffffffffffffffffffffffff1663313ce5676040518163ffffffff1660e01b8152600401602060405180830381865afa15801561209f573d6000803e3d6000fd5b505050506040513d601f19601f820116820180604052508101906120c39190616686565b60ff1614155b15612100576040517f6667354600000000000000000000000000000000000000000000000000000000815260040160405180910390fd5b806000808667ffffffffffffffff1667ffffffffffffffff16815260200190815260200160002060006101000a81548173ffffffffffffffffffffffffffffffffffffffff021916908373ffffffffffffffffffffffffffffffffffffffff160217905550505b600282036122d85760008180602001905181019061218591906176b8565b9050600073ffffffffffffffffffffffffffffffffffffffff168173ffffffffffffffffffffffffffffffffffffffff16141580156122395750600860ff168173ffffffffffffffffffffffffffffffffffffffff1663313ce5676040518163ffffffff1660e01b8152600401602060405180830381865afa15801561220f573d6000803e3d6000fd5b505050506040513d601f19601f820116820180604052508101906122339190616686565b60ff1614155b15612270576040517f6667354600000000000000000000000000000000000000000000000000000000815260040160405180910390fd5b80600160008667ffffffffffffffff1667ffffffffffffffff16815260200190815260200160002060006101000a81548173ffffffffffffffffffffffffffffffffffffffff021916908373ffffffffffffffffffffffffffffffffffffffff160217905550505b6003820361232057808060200190518101906122f4919061621d565b600260008567ffffffffffffffff1667ffffffffffffffff168152602001908152602001600020819055505b60048203612368578080602001905181019061233c919061621d565b600360008567ffffffffffffffff1667ffffffffffffffff168152602001908152602001600020819055505b600582036123b05780806020019051810190612384919061621d565b600460008567ffffffffffffffff1667ffffffffffffffff168152602001908152602001600020819055505b600682036123f857808060200190518101906123cc919061621d565b600560008567ffffffffffffffff1667ffffffffffffffff168152602001908152602001600020819055505b600782036124405780806020019051810190612414919061621d565b600660008567ffffffffffffffff1667ffffffffffffffff168152602001908152602001600020819055505b60088203612488578080602001905181019061245c919061621d565b600760008567ffffffffffffffff1667ffffffffffffffff168152602001908152602001600020819055505b600982036124d057808060200190518101906124a4919061621d565b600860008567ffffffffffffffff1667ffffffffffffffff168152602001908152602001600020819055505b600a820361251857808060200190518101906124ec919061621d565b600960008567ffffffffffffffff1667ffffffffffffffff168152602001908152602001600020819055505b600b82036125605780806020019051810190612534919061621d565b600a60008567ffffffffffffffff1667ffffffffffffffff168152602001908152602001600020819055505b600c82036125a8578080602001905181019061257c919061621d565b600b60008567ffffffffffffffff1667ffffffffffffffff168152602001908152602001600020819055505b818367ffffffffffffffff167fae3dadf141b0383d3b4db666b2fc32179836af27e11a3e8f07c3ef8da82e5930836040516125e39190615c44565b60405180910390a3505050565b60056020528060005260406000206000915090505481565b7f000000000000000000000000000000000000000000000000000000000000000081565b60086020528060005260406000206000915090505481565b60026020528060005260406000206000915090505481565b60006126728261266d868686610a41565b614bab565b90509392505050565b6126a47f6b50fa17b77d24e42e27a04b69fe50cd6967cfb767d18de0bd5fe7e1a32aa868614350565b73ffffffffffffffffffffffffffffffffffffffff16632f41ca96336040518263ffffffff1660e01b81526004016126dc91906165d2565b602060405180830381865afa1580156126f9573d6000803e3d6000fd5b505050506040513d601f19601f8201168201806040525081019061271d9190616602565b612753576040517f445b0c3a00000000000000000000000000000000000000000000000000000000815260040160405180910390fd5b80600c90816127629190617887565b5050565b60008060008060008087806040019061277f91906174ad565b806000019061278e91906174d6565b9050905060006127bd7fbcc180fb907e9ae431665de4bc74305c00b7b27442aadd477980ecc4bb14c011614350565b9050600061284d8a80600001906127d49190617150565b80806020026020016040519081016040528093929190818152602001838360200280828437600081840152601f19601f820116905080830192505050505050508b60200160208101906128279190615395565b6128488d806040019061283a91906174ad565b61284390617cbd565b614c65565b61408c565b9050808761285b9190616279565b965088156129dc576128958a806040019061287691906174ad565b8060800190612885919061757b565b906128909190617665565b6145b7565b886128a09190616279565b97506128be8a60200160208101906128b89190615395565b84614607565b846128c99190616279565b93506000805b84811015612938578b80604001906128e791906174ad565b8060e001906128f69190617cd0565b82818110612907576129066160ff565b5b905060200201602081019061291c9190617446565b61292d578161292a90617d33565b91505b8060010190506128cf565b5061294281614644565b8861294d9190616279565b97506129c98b60200160208101906129659190615395565b8c806040019061297591906174ad565b8060c001906129849190617cd0565b80806020026020016040519081016040528093929190818152602001838360200280828437600081840152601f19601f82011690508083019250505050505050614752565b856129d49190616279565b945050612b73565b60005b83811015612b71576000612a288c80604001906129fc91906174ad565b8060000190612a0b91906174d6565b84818110612a1c57612a1b6160ff565b5b90506020020135614835565b5091505060008473ffffffffffffffffffffffffffffffffffffffff1663596db717836040518263ffffffff1660e01b8152600401612a679190617492565b602060405180830381865afa158015612a84573d6000803e3d6000fd5b505050506040513d601f19601f82011682018060405250810190612aa89190616602565b905080158015612ac45750600263ffffffff168263ffffffff16145b15612b1557600a60008e6020016020810190612ae09190615395565b67ffffffffffffffff1667ffffffffffffffff1681526020019081526020016000205487612b0e9190616279565b9650612b64565b8015612b6357600b60008e6020016020810190612b329190615395565b67ffffffffffffffff1667ffffffffffffffff1681526020019081526020016000205487612b609190616279565b96505b5b50508060010190506129df565b505b612b90898b6020016020810190612b8a9190615395565b85614896565b84612b9b9190616279565b9350612bb98a6020016020810190612bb39190615395565b8561490c565b86612bc49190616279565b9550878688612bd39190616279565b612bdd9190616279565b94505050505092959194509250565b6000806000806000868060200190612c049190617d7b565b905090506000612c337fbcc180fb907e9ae431665de4bc74305c00b7b27442aadd477980ecc4bb14c011614350565b905060005b828110156132035760007f000000000000000000000000000000000000000000000000000000000000000067ffffffffffffffff168a8060200190612c7d9190617d7b565b84818110612c8e57612c8d6160ff565b5b9050602002016020810190612ca39190615395565b67ffffffffffffffff161415905060008082612cc0576000612db6565b612db58c8060000190612cd39190617dde565b86818110612ce457612ce36160ff565b5b9050602002810190612cf69190617150565b80806020026020016040519081016040528093929190818152602001838360200280828437600081840152601f19601f820116905080830192505050505050508d8060200190612d469190617d7b565b87818110612d5757612d566160ff565b5b9050602002016020810190612d6c9190615395565b612db08f8060400190612d7f9190617e41565b89818110612d9057612d8f6160ff565b5b9050602002810190612da291906171b3565b612dab906173f8565b61442b565b61408c565b5b90508089612dc49190616279565b98508a15612f8857612e27612e228d8060400190612de29190617e41565b87818110612df357612df26160ff565b5b9050602002810190612e0591906171b3565b8060800190612e14919061740b565b612e1d90617433565b614539565b6145b7565b8a612e329190616279565b99508215612f8357612e7a8c8060200190612e4d9190617d7b565b86818110612e5e57612e5d6160ff565b5b9050602002016020810190612e739190615395565b6001614607565b82612e859190616279565b91508b8060400190612e979190617e41565b85818110612ea857612ea76160ff565b5b9050602002810190612eba91906171b3565b60e0016020810190612ecc9190617446565b612ee857612eda6001614644565b89612ee59190616279565b98505b612f758c8060200190612efb9190617d7b565b86818110612f0c57612f0b6160ff565b5b9050602002016020810190612f219190615395565b612f708e8060400190612f349190617e41565b88818110612f4557612f446160ff565b5b9050602002810190612f5791906171b3565b60c0016020810190612f699190617446565b15156146d8565b614752565b82612f809190616279565b91505b61314e565b6000612fc98d8060400190612f9d9190617e41565b87818110612fae57612fad6160ff565b5b9050602002810190612fc091906171b3565b60000135614835565b5091505060008673ffffffffffffffffffffffffffffffffffffffff1663596db717836040518263ffffffff1660e01b81526004016130089190617492565b602060405180830381865afa158015613025573d6000803e3d6000fd5b505050506040513d601f19601f820116820180604052508101906130499190616602565b9050801580156130655750600263ffffffff168263ffffffff16145b156130d957600a60008f806020019061307e9190617d7b565b8981811061308f5761308e6160ff565b5b90506020020160208101906130a49190615395565b67ffffffffffffffff1667ffffffffffffffff16815260200190815260200160002054846130d29190616279565b935061314b565b801561314a57600b60008f80602001906130f39190617d7b565b89818110613104576131036160ff565b5b90506020020160208101906131199190615395565b67ffffffffffffffff1667ffffffffffffffff16815260200190815260200160002054846131479190616279565b93505b5b50505b8261315a57600061319c565b61319b8b8d806020019061316e9190617d7b565b8781811061317f5761317e6160ff565b5b90506020020160208101906131949190615395565b6001614896565b5b826131a79190616279565b91506131e88c80602001906131bc9190617d7b565b868181106131cd576131cc6160ff565b5b90506020020160208101906131e29190615395565b8361490c565b886131f39190616279565b9750505050806001019050612c38565b508584866132119190616279565b61321b9190616279565b9250505092959194509250565b60096020528060005260406000206000915090505481565b600c805461324d9061689f565b80601f01602080910402602001604051908101604052809291908181526020018280546132799061689f565b80156132c65780601f1061329b576101008083540402835291602001916132c6565b820191906000526020600020905b8154815290600101906020018083116132a957829003601f168201915b505050505081565b60036020528060005260406000206000915090505481565b6000806000806132f46152a1565b8680602001906133049190617d7b565b9050816000018181525050600061333a7fbcc180fb907e9ae431665de4bc74305c00b7b27442aadd477980ecc4bb14c011614350565b905060005b8260000151811015613a795760007f000000000000000000000000000000000000000000000000000000000000000067ffffffffffffffff168a80602001906133889190617d7b565b84818110613399576133986160ff565b5b90506020020160208101906133ae9190615395565b67ffffffffffffffff16141590506000846040018181525050806133d35760006134c9565b6134c88a80600001906133e69190617dde565b848181106133f7576133f66160ff565b5b90506020028101906134099190617150565b80806020026020016040519081016040528093929190818152602001838360200280828437600081840152601f19601f820116905080830192505050505050508b80602001906134599190617d7b565b8581811061346a576134696160ff565b5b905060200201602081019061347f9190615395565b6134c38d80604001906134929190617ea4565b878181106134a3576134a26160ff565b5b90506020028101906134b591906174ad565b6134be90617cbd565b614c65565b61408c565b5b8460600181815250508980604001906134e29190617ea4565b838181106134f3576134f26160ff565b5b905060200281019061350591906174ad565b806000019061351491906174d6565b905084602001818152505083606001518761352f9190616279565b965088156137885761358c8a806040019061354a9190617ea4565b8481811061355b5761355a6160ff565b5b905060200281019061356d91906174ad565b806080019061357c919061757b565b906135879190617665565b6145b7565b886135979190616279565b97508015613783576135e28a80602001906135b29190617d7b565b848181106135c3576135c26160ff565b5b90506020020160208101906135d89190615395565b8560200151614607565b846040018181516135f39190616279565b915081815250506000805b856020015181101561368e578b806040019061361a9190617ea4565b8581811061362b5761362a6160ff565b5b905060200281019061363d91906174ad565b8060e0019061364c9190617cd0565b8281811061365d5761365c6160ff565b5b90506020020160208101906136729190617446565b613683578161368090617d33565b91505b8060010190506135fe565b5061369c8560200151614644565b886136a79190616279565b97506137698b80602001906136bc9190617d7b565b858181106136cd576136cc6160ff565b5b90506020020160208101906136e29190615395565b8c80604001906136f29190617ea4565b86818110613703576137026160ff565b5b905060200281019061371591906174ad565b8060c001906137249190617cd0565b80806020026020016040519081016040528093929190818152602001838360200280828437600081840152601f19601f82011690508083019250505050505050614752565b8560400181815161377a9190616279565b91508181525050505b6139b4565b60005b84602001518110156139b25760006137fb8c80604001906137ac9190617ea4565b868181106137bd576137bc6160ff565b5b90506020028101906137cf91906174ad565b80600001906137de91906174d6565b848181106137ef576137ee6160ff565b5b90506020020135614835565b509150508473ffffffffffffffffffffffffffffffffffffffff1663596db717826040518263ffffffff1660e01b81526004016138389190617492565b602060405180830381865afa158015613855573d6000803e3d6000fd5b505050506040513d601f19601f820116820180604052508101906138799190616602565b86608001901515908115158152505085608001511580156138a65750600263ffffffff168163ffffffff16145b1561392557600a60008d80602001906138bf9190617d7b565b878181106138d0576138cf6160ff565b5b90506020020160208101906138e59190615395565b67ffffffffffffffff1667ffffffffffffffff16815260200190815260200160002054866040018181516139199190616279565b915081815250506139a6565b8560800151156139a557600b60008d80602001906139439190617d7b565b87818110613954576139536160ff565b5b90506020020160208101906139699190615395565b67ffffffffffffffff1667ffffffffffffffff168152602001908152602001600020548660400181815161399d9190616279565b915081815250505b5b5080600101905061378b565b505b806139c0576000613a05565b613a04898b80602001906139d49190617d7b565b858181106139e5576139e46160ff565b5b90506020020160208101906139fa9190615395565b8660200151614896565b5b84604001818151613a169190616279565b91508181525050613a608a8060200190613a309190617d7b565b84818110613a4157613a406160ff565b5b9050602002016020810190613a569190615395565b856040015161490c565b86613a6b9190616279565b95505080600101905061333f565b50858486613a879190616279565b613a919190616279565b9250505092959194509250565b600080600080613acd7fbcc180fb907e9ae431665de4bc74305c00b7b27442aadd477980ecc4bb14c011614350565b905084613cb7576000613af2878060000190613ae991906171b3565b60000135614835565b5091505060008273ffffffffffffffffffffffffffffffffffffffff1663596db717836040518263ffffffff1660e01b8152600401613b319190617492565b602060405180830381865afa158015613b4e573d6000803e3d6000fd5b505050506040513d601f19601f82011682018060405250810190613b729190616602565b905080158015613b8e5750600263ffffffff168263ffffffff16145b15613c2057613bbc7f0000000000000000000000000000000000000000000000000000000000000000614a09565b600a60007f000000000000000000000000000000000000000000000000000000000000000067ffffffffffffffff1667ffffffffffffffff16815260200190815260200160002054613c0e9190617539565b85613c199190616279565b9450613cb0565b8015613caf57613c4f7f0000000000000000000000000000000000000000000000000000000000000000614a09565b600b60007f000000000000000000000000000000000000000000000000000000000000000067ffffffffffffffff1667ffffffffffffffff16815260200190815260200160002054613ca19190617539565b85613cac9190616279565b94505b5b5050613cf2565b613cef613cea878060000190613ccd91906171b3565b8060800190613cdc919061740b565b613ce590617433565b614539565b6145b7565b93505b8284613cfe9190616279565b9150509250925092565b60608060008084806020019051810190613d229190617f73565b905086868260200151604051602001613d3d9392919061807f565b60405160208183030381529060405281602001819052506000878790509050613da889898980806020026020016040519081016040528093929190818152602001838360200280828437600081840152601f19601f8201169050808301925050505050505088614d6f565b93508067ffffffffffffffff811115613dc457613dc36154a6565b5b604051908082528060200260200182016040528015613df25781602001602082028036833780820191505090505b509450600060405180604001604052807fffffffffffffffffffffffffffffffffffffffffffffffffffffffffffffffff81526020018880519060200120604051602001613e4091906180d1565b604051602081830303815290604052815250604051602001613e6291906165a1565b60405160208183030381529060405290508967ffffffffffffffff167f000000000000000000000000000000000000000000000000000000000000000067ffffffffffffffff161461407f5760005b8281101561407d5760007f000000000000000000000000000000000000000000000000000000000000000073ffffffffffffffffffffffffffffffffffffffff16630eff125d8c8c85818110613f0a57613f096160ff565b5b9050602002016020810190613f1f91906180ec565b6040518263ffffffff1660e01b8152600401613f3b919061613d565b602060405180830381865afa158015613f58573d6000803e3d6000fd5b505050506040513d601f19601f82011682018060405250810190613f7c9190616196565b73ffffffffffffffffffffffffffffffffffffffff1663ea98b1478d60008503613fc55787604051602001613fb191906165a1565b604051602081830303815290604052613fc7565b855b8a8681518110613fda57613fd96160ff565b5b60200260200101516040518463ffffffff1660e01b8152600401614000939291906161c3565b602060405180830381865afa15801561401d573d6000803e3d6000fd5b505050506040513d601f19601f82011682018060405250810190614041919061621d565b9050808661404f9190616279565b955080888381518110614065576140646160ff565b5b60200260200101818152505050806001019050613eb1565b505b5050509450945094915050565b6000808451905060006140a0858786614d6f565b90506000848060200190518101906140b89190617f73565b90508681602001516040516020016140d192919061819f565b6040516020818303038152906040528160200181905250600060405180604001604052807fffffffffffffffffffffffffffffffffffffffffffffffffffffffffffffffff8152602001878051906020012060405160200161413391906180d1565b60405160208183030381529060405281525060405160200161415591906165a1565b60405160208183030381529060405290508667ffffffffffffffff167f000000000000000000000000000000000000000000000000000000000000000067ffffffffffffffff16146143455760005b848110156143435760007f000000000000000000000000000000000000000000000000000000000000000073ffffffffffffffffffffffffffffffffffffffff16630eff125d8b84815181106141fd576141fc6160ff565b5b60200260200101516040518263ffffffff1660e01b8152600401614221919061613d565b602060405180830381865afa15801561423e573d6000803e3d6000fd5b505050506040513d601f19601f820116820180604052508101906142629190616196565b73ffffffffffffffffffffffffffffffffffffffff1663ea98b1478a600085036142ab578660405160200161429791906165a1565b6040516020818303038152906040526142ad565b855b8886815181106142c0576142bf6160ff565b5b60200260200101516040518463ffffffff1660e01b81526004016142e6939291906161c3565b602060405180830381865afa158015614303573d6000803e3d6000fd5b505050506040513d601f19601f82011682018060405250810190614327919061621d565b905080876143359190616279565b9650508060010190506141a4565b505b505050509392505050565b60007f000000000000000000000000000000000000000000000000000000000000000073ffffffffffffffffffffffffffffffffffffffff166321f8a721836040518263ffffffff1660e01b81526004016143ab91906180d1565b602060405180830381865afa1580156143c8573d6000803e3d6000fd5b505050506040513d601f19601f820116820180604052508101906143ec9190616196565b9050919050565b600080600080600080869550600887901c9450601087901c9350601887901c9250602087901c915060c087901c905091939550919395565b60606000604051806101400160405280614443615001565b815260200184600001518152602001846020015181526020018460400151815260200184606001518152602001846080015181526020018460c00151151581526020018460e001511515815260200184610100015173ffffffffffffffffffffffffffffffffffffffff1681526020018461014001518152506040516020016144cc919061835e565b604051602081830303815290604052905060405180604001604052807fffffffffffffffffffffffffffffffffffffffffffffffffffffffffffffffff81526020018281525060405160200161452291906165a1565b604051602081830303815290604052915050919050565b6060600167ffffffffffffffff811115614556576145556154a6565b5b60405190808252806020026020018201604052801561458f57816020015b61457c6152d2565b8152602001906001900390816145745790505b50905081816000815181106145a7576145a66160ff565b5b6020026020010181905250919050565b6000808251905060005b81811015614600578381815181106145dc576145db6160ff565b5b602002602001015160a00151836145f39190616279565b92508060010190506145c1565b5050919050565b6000600360008467ffffffffffffffff1667ffffffffffffffff168152602001908152602001600020548261463c9190617539565b905092915050565b600080600960007f000000000000000000000000000000000000000000000000000000000000000067ffffffffffffffff1667ffffffffffffffff168152602001908152602001600020548361469a9190617539565b90506146c57f0000000000000000000000000000000000000000000000000000000000000000614a09565b816146d09190617539565b915050919050565b6060600167ffffffffffffffff8111156146f5576146f46154a6565b5b6040519080825280602002602001820160405280156147235781602001602082028036833780820191505090505b509050818160008151811061473b5761473a6160ff565b5b602002602001019015159081151581525050919050565b6000808367ffffffffffffffff167f000000000000000000000000000000000000000000000000000000000000000067ffffffffffffffff160361479a57600091505061482f565b60008351905060005b818110156147e3578481815181106147be576147bd6160ff565b5b6020026020010151156147d857826147d590617d33565b92505b8060010190506147a3565b50600082036147f75760009250505061482f565b600260008667ffffffffffffffff1667ffffffffffffffff168152602001908152602001600020548261482a9190617539565b925050505b92915050565b600080600083925060a084901c915060c084901c905060008167ffffffffffffffff160361488f576040517f030042b700000000000000000000000000000000000000000000000000000000815260040160405180910390fd5b9193909250565b600080846148cb57600560008567ffffffffffffffff1667ffffffffffffffff168152602001908152602001600020546148f4565b600460008567ffffffffffffffff1667ffffffffffffffff168152602001908152602001600020545b905082816149029190617539565b9150509392505050565b60008061491884614a09565b836149239190617539565b905060008103614937576000915050614a03565b6000614942856150ab565b8261494d9190617539565b90506000810361496257600092505050614a03565b600061498d7f00000000000000000000000000000000000000000000000000000000000000006150ab565b9050600081036149c9576040517f991f334e00000000000000000000000000000000000000000000000000000000815260040160405180910390fd5b6149f27f00000000000000000000000000000000000000000000000000000000000000006150ab565b826149fd91906183af565b93505050505b92915050565b600080600160008467ffffffffffffffff1667ffffffffffffffff16815260200190815260200160002060009054906101000a900473ffffffffffffffffffffffffffffffffffffffff169050600073ffffffffffffffffffffffffffffffffffffffff168173ffffffffffffffffffffffffffffffffffffffff1614614b7a578073ffffffffffffffffffffffffffffffffffffffff1663feaf968c6040518163ffffffff1660e01b815260040160a060405180830381865afa925050508015614af257506040513d601f19601f82011682018060405250810190614aef9190618458565b60015b15614b795760008413614b31576040517f233a9ad600000000000000000000000000000000000000000000000000000000815260040160405180910390fd5b60008203614b6b576040517fecd0bafe00000000000000000000000000000000000000000000000000000000815260040160405180910390fd5b839650505050505050614ba6565b5b600760008467ffffffffffffffff1667ffffffffffffffff168152602001908152602001600020549150505b919050565b6000808203614bbd5760009050614c5f565b6000614be87f00000000000000000000000000000000000000000000000000000000000000006150ab565b83614bf39190617539565b905060008103614c07576000915050614c5f565b6000614c12856150ab565b905060008103614c4e576040517f991f334e00000000000000000000000000000000000000000000000000000000815260040160405180910390fd5b8082614c5a91906183af565b925050505b92915050565b60606000604051806101400160405280614c7d615001565b815260200184600001518152602001846020015181526020018460400151815260200184606001518152602001846080015181526020018460c0015181526020018460e00151815260200184610100015173ffffffffffffffffffffffffffffffffffffffff168152602001846101400151815250604051602001614d02919061874f565b604051602081830303815290604052905060405180604001604052807fffffffffffffffffffffffffffffffffffffffffffffffffffffffffffffffff815260200182815250604051602001614d5891906165a1565b604051602081830303815290604052915050919050565b6060600082806020019051810190614d879190617f73565b9050838160200151604051602001614da092919061819f565b60405160208183030381529060405281602001819052506000845190506000600860008867ffffffffffffffff1667ffffffffffffffff16815260200190815260200160002054905060008184604051602001614dfd91906165a1565b60405160208183030381529060405251614e179190617539565b905060008260a0614e289190617539565b90508367ffffffffffffffff811115614e4457614e436154a6565b5b604051908082528060200260200182016040528015614e7757816020015b6060815260200190600190039081614e625790505b50955060005b84811015614ff4576000808203614e945783614e96565b825b90507f000000000000000000000000000000000000000000000000000000000000000073ffffffffffffffffffffffffffffffffffffffff16630eff125d8b8481518110614ee757614ee66160ff565b5b60200260200101516040518263ffffffff1660e01b8152600401614f0b919061613d565b602060405180830381865afa158015614f28573d6000803e3d6000fd5b505050506040513d601f19601f82011682018060405250810190614f4c9190616196565b73ffffffffffffffffffffffffffffffffffffffff166325fc6dd0826040518263ffffffff1660e01b8152600401614f8491906153db565b600060405180830381865afa158015614fa1573d6000803e3d6000fd5b505050506040513d6000823e3d601f19601f82011682018060405250810190614fca9190616940565b888381518110614fdd57614fdc6160ff565b5b602002602001018190525050806001019050614e7d565b5050505050509392505050565b600061502c7f55b101fc856aff484166c46ad33bc74831c135693c159b0092bb3b72254ffb6b614350565b73ffffffffffffffffffffffffffffffffffffffff166313c02a596040518163ffffffff1660e01b8152600401602060405180830381865afa158015615076573d6000803e3d6000fd5b505050506040513d601f19601f8201168201806040525081019061509a919061621d565b9050806150a690617d33565b905090565b6000806000808467ffffffffffffffff1667ffffffffffffffff16815260200190815260200160002060009054906101000a900473ffffffffffffffffffffffffffffffffffffffff169050600073ffffffffffffffffffffffffffffffffffffffff168173ffffffffffffffffffffffffffffffffffffffff161461521b578073ffffffffffffffffffffffffffffffffffffffff1663feaf968c6040518163ffffffff1660e01b815260040160a060405180830381865afa92505050801561519357506040513d601f19601f820116820180604052508101906151909190618458565b60015b1561521a57600084136151d2576040517f233a9ad600000000000000000000000000000000000000000000000000000000815260040160405180910390fd5b6000820361520c576040517fecd0bafe00000000000000000000000000000000000000000000000000000000815260040160405180910390fd5b839650505050505050615247565b5b600660008467ffffffffffffffff1667ffffffffffffffff168152602001908152602001600020549150505b919050565b6040518061010001604052806000815260200160008152602001600060ff1681526020016060815260200160608152602001600060ff168152602001600067ffffffffffffffff168152602001606081525090565b6040518060a00160405280600081526020016000815260200160008152602001600081526020016000151581525090565b6040518060c0016040528060608152602001600073ffffffffffffffffffffffffffffffffffffffff168152602001600073ffffffffffffffffffffffffffffffffffffffff168152602001600060ff168152602001600067ffffffffffffffff168152602001600081525090565b6000604051905090565b600080fd5b600080fd5b600067ffffffffffffffff82169050919050565b61537281615355565b811461537d57600080fd5b50565b60008135905061538f81615369565b92915050565b6000602082840312156153ab576153aa61534b565b5b60006153b984828501615380565b91505092915050565b6000819050919050565b6153d5816153c2565b82525050565b60006020820190506153f060008301846153cc565b92915050565b600073ffffffffffffffffffffffffffffffffffffffff82169050919050565b6000819050919050565b600061543b615436615431846153f6565b615416565b6153f6565b9050919050565b600061544d82615420565b9050919050565b600061545f82615442565b9050919050565b61546f81615454565b82525050565b600060208201905061548a6000830184615466565b92915050565b600080fd5b6000601f19601f8301169050919050565b7f4e487b7100000000000000000000000000000000000000000000000000000000600052604160045260246000fd5b6154de82615495565b810181811067ffffffffffffffff821117156154fd576154fc6154a6565b5b80604052505050565b6000615510615341565b905061551c82826154d5565b919050565b600067ffffffffffffffff82111561553c5761553b6154a6565b5b602082029050602081019050919050565b600080fd5b600060ff82169050919050565b61556881615552565b811461557357600080fd5b50565b6000813590506155858161555f565b92915050565b600061559e61559984615521565b615506565b905080838252602082019050602084028301858111156155c1576155c061554d565b5b835b818110156155ea57806155d68882615576565b8452602084019350506020810190506155c3565b5050509392505050565b600082601f83011261560957615608615490565b5b813561561984826020860161558b565b91505092915050565b600080fd5b600067ffffffffffffffff821115615642576156416154a6565b5b61564b82615495565b9050602081019050919050565b82818337600083830152505050565b600061567a61567584615627565b615506565b90508281526020810184848401111561569657615695615622565b5b6156a1848285615658565b509392505050565b600082601f8301126156be576156bd615490565b5b81356156ce848260208601615667565b91505092915050565b600067ffffffffffffffff8211156156f2576156f16154a6565b5b602082029050602081019050919050565b6000615716615711846156d7565b615506565b905080838252602082019050602084028301858111156157395761573861554d565b5b835b8181101561578057803567ffffffffffffffff81111561575e5761575d615490565b5b80860161576b89826156a9565b8552602085019450505060208101905061573b565b5050509392505050565b600082601f83011261579f5761579e615490565b5b81356157af848260208601615703565b91505092915050565b600080600080608085870312156157d2576157d161534b565b5b600085013567ffffffffffffffff8111156157f0576157ef615350565b5b6157fc878288016155f4565b945050602061580d87828801615380565b935050604085013567ffffffffffffffff81111561582e5761582d615350565b5b61583a878288016156a9565b925050606085013567ffffffffffffffff81111561585b5761585a615350565b5b6158678782880161578a565b91505092959194509250565b600081519050919050565b600082825260208201905092915050565b6000819050602082019050919050565b6158a8816153c2565b82525050565b60006158ba838361589f565b60208301905092915050565b6000602082019050919050565b60006158de82615873565b6158e8818561587e565b93506158f38361588f565b8060005b8381101561592457815161590b88826158ae565b9750615916836158c6565b9250506001810190506158f7565b5085935050505092915050565b600060408201905061594660008301856153cc565b818103602083015261595881846158d3565b90509392505050565b600061596c82615442565b9050919050565b61597c81615961565b82525050565b60006020820190506159976000830184615973565b92915050565b600080fd5b60008083601f8401126159b8576159b7615490565b5b8235905067ffffffffffffffff8111156159d5576159d461599d565b5b6020830191508360208202830111156159f1576159f061554d565b5b9250929050565b60008060008060608587031215615a1257615a1161534b565b5b6000615a2087828801615380565b945050602085013567ffffffffffffffff811115615a4157615a40615350565b5b615a4d878288016159a2565b9350935050604085013567ffffffffffffffff811115615a7057615a6f615350565b5b615a7c878288016156a9565b91505092959194509250565b600081519050919050565b600082825260208201905092915050565b60005b83811015615ac2578082015181840152602081019050615aa7565b60008484015250505050565b6000615ad982615a88565b615ae38185615a93565b9350615af3818560208601615aa4565b615afc81615495565b840191505092915050565b6000604082019050615b1c60008301856153cc565b8181036020830152615b2e8184615ace565b90509392505050565b60008115159050919050565b615b4c81615b37565b8114615b5757600080fd5b50565b600081359050615b6981615b43565b92915050565b600080600060608486031215615b8857615b8761534b565b5b6000615b9686828701615b5a565b935050602084013567ffffffffffffffff811115615bb757615bb6615350565b5b615bc3868287016155f4565b9250506040615bd486828701615380565b9150509250925092565b600080fd5b60006101808284031215615bfa57615bf9615bde565b5b81905092915050565b6000806101a08385031215615c1b57615c1a61534b565b5b6000615c2985828601615380565b9250506020615c3a85828601615be3565b9150509250929050565b60006020820190508181036000830152615c5e8184615ace565b905092915050565b615c6f816153c2565b8114615c7a57600080fd5b50565b600081359050615c8c81615c66565b92915050565b600060208284031215615ca857615ca761534b565b5b6000615cb684828501615c7d565b91505092915050565b600060608284031215615cd557615cd4615bde565b5b81905092915050565b60008060408385031215615cf557615cf461534b565b5b600083013567ffffffffffffffff811115615d1357615d12615350565b5b615d1f85828601615cbf565b9250506020615d3085828601615b5a565b9150509250929050565b6000608082019050615d4f60008301876153cc565b615d5c60208301866153cc565b615d6960408301856153cc565b615d7660608301846153cc565b95945050505050565b600060208284031215615d9557615d94615bde565b5b81905092915050565b60008060408385031215615db557615db461534b565b5b600083013567ffffffffffffffff811115615dd357615dd2615350565b5b615ddf85828601615d7f565b9250506020615df085828601615b5a565b9150509250929050565b6000606082019050615e0f60008301866153cc565b615e1c60208301856153cc565b615e2960408301846153cc565b949350505050565b600080600060608486031215615e4a57615e4961534b565b5b6000615e5886828701615380565b9350506020615e6986828701615c7d565b925050604084013567ffffffffffffffff811115615e8a57615e89615350565b5b615e96868287016156a9565b9150509250925092565b615ea981615355565b82525050565b6000602082019050615ec46000830184615ea0565b92915050565b600060208284031215615ee057615edf61534b565b5b600082013567ffffffffffffffff811115615efe57615efd615350565b5b615f0a848285016156a9565b91505092915050565b600060608284031215615f2957615f28615bde565b5b81905092915050565b60008060408385031215615f4957615f4861534b565b5b600083013567ffffffffffffffff811115615f6757615f66615350565b5b615f7385828601615f13565b9250506020615f8485828601615b5a565b9150509250929050565b600060608284031215615fa457615fa3615bde565b5b81905092915050565b60008060408385031215615fc457615fc361534b565b5b600083013567ffffffffffffffff811115615fe257615fe1615350565b5b615fee85828601615f8e565b9250506020615fff85828601615b5a565b9150509250929050565b60006060828403121561601f5761601e615bde565b5b81905092915050565b6000806040838503121561603f5761603e61534b565b5b600083013567ffffffffffffffff81111561605d5761605c615350565b5b61606985828601616009565b925050602061607a85828601615b5a565b9150509250929050565b60006020828403121561609a57616099615bde565b5b81905092915050565b600080604083850312156160ba576160b961534b565b5b600083013567ffffffffffffffff8111156160d8576160d7615350565b5b6160e485828601616084565b92505060206160f585828601615b5a565b9150509250929050565b7f4e487b7100000000000000000000000000000000000000000000000000000000600052603260045260246000fd5b61613781615552565b82525050565b6000602082019050616152600083018461612e565b92915050565b6000616163826153f6565b9050919050565b61617381616158565b811461617e57600080fd5b50565b6000815190506161908161616a565b92915050565b6000602082840312156161ac576161ab61534b565b5b60006161ba84828501616181565b91505092915050565b60006060820190506161d86000830186615ea0565b81810360208301526161ea8185615ace565b905081810360408301526161fe8184615ace565b9050949350505050565b60008151905061621781615c66565b92915050565b6000602082840312156162335761623261534b565b5b600061624184828501616208565b91505092915050565b7f4e487b7100000000000000000000000000000000000000000000000000000000600052601160045260246000fd5b6000616284826153c2565b915061628f836153c2565b92508282019050808211156162a7576162a661624a565b5b92915050565b600082825260208201905092915050565b60006162c982615873565b6162d381856162ad565b93506162de8361588f565b8060005b8381101561630f5781516162f688826158ae565b9750616301836158c6565b9250506001810190506162e2565b5085935050505092915050565b600081519050919050565b600082825260208201905092915050565b6000819050602082019050919050565b600082825260208201905092915050565b600061636482615a88565b61636e8185616348565b935061637e818560208601615aa4565b61638781615495565b840191505092915050565b600061639e8383616359565b905092915050565b6000602082019050919050565b60006163be8261631c565b6163c88185616327565b9350836020820285016163da85616338565b8060005b8581101561641657848403895281516163f78582616392565b9450616402836163a6565b925060208a019950506001810190506163de565b50829750879550505050505092915050565b6000604083016000830151848203600086015261644582826162be565b9150506020830151848203602086015261645f82826163b3565b9150508091505092915050565b600060208201905081810360008301526164868184616428565b905092915050565b60006060830160008301516164a6600086018261589f565b50602083015184820360208601526164be82826162be565b915050604083015184820360408601526164d882826162be565b9150508091505092915050565b600060208201905081810360008301526164ff818461648e565b905092915050565b60608201600082015161651d600085018261589f565b506020820151616530602085018261589f565b506040820151616543604085018261589f565b50505050565b600060608201905061655e6000830184616507565b92915050565b600060408301600083015161657c600086018261589f565b50602083015184820360208601526165948282616359565b9150508091505092915050565b600060208201905081810360008301526165bb8184616564565b905092915050565b6165cc81616158565b82525050565b60006020820190506165e760008301846165c3565b92915050565b6000815190506165fc81615b43565b92915050565b6000602082840312156166185761661761534b565b5b6000616626848285016165ed565b91505092915050565b60008135905061663e8161616a565b92915050565b60006020828403121561665a5761665961534b565b5b60006166688482850161662f565b91505092915050565b6000815190506166808161555f565b92915050565b60006020828403121561669c5761669b61534b565b5b60006166aa84828501616671565b91505092915050565b60006166c2602084018461662f565b905092915050565b6166d381616158565b82525050565b60006166e86020840184615c7d565b905092915050565b610180820161670260008301836166b3565b61670f60008501826166ca565b5061671d60208301836166b3565b61672a60208501826166ca565b5061673860408301836166d9565b616745604085018261589f565b5061675360608301836166d9565b616760606085018261589f565b5061676e60808301836166d9565b61677b608085018261589f565b5061678960a08301836166d9565b61679660a085018261589f565b506167a460c08301836166d9565b6167b160c085018261589f565b506167bf60e08301836166d9565b6167cc60e085018261589f565b506167db6101008301836166d9565b6167e961010085018261589f565b506167f86101208301836166d9565b61680661012085018261589f565b506168156101408301836166d9565b61682361014085018261589f565b506168326101608301836166d9565b61684061016085018261589f565b50505050565b60006101a08201905061685c6000830185615ea0565b61686960208301846166f0565b9392505050565b7f4e487b7100000000000000000000000000000000000000000000000000000000600052602260045260246000fd5b600060028204905060018216806168b757607f821691505b6020821081036168ca576168c9616870565b5b50919050565b60006168e36168de84615627565b615506565b9050828152602081018484840111156168ff576168fe615622565b5b61690a848285615aa4565b509392505050565b600082601f83011261692757616926615490565b5b81516169378482602086016168d0565b91505092915050565b6000602082840312156169565761695561534b565b5b600082015167ffffffffffffffff81111561697457616973615350565b5b61698084828501616912565b91505092915050565b600080fd5b600080fd5b600067ffffffffffffffff8211156169ae576169ad6154a6565b5b602082029050602081019050919050565b60006169d26169cd84616993565b615506565b905080838252602082019050602084028301858111156169f5576169f461554d565b5b835b81811015616a1e5780616a0a8882616208565b8452602084019350506020810190506169f7565b5050509392505050565b600082601f830112616a3d57616a3c615490565b5b8151616a4d8482602086016169bf565b91505092915050565b600067ffffffffffffffff821115616a7157616a706154a6565b5b602082029050602081019050919050565b600081519050616a9181615369565b92915050565b600060c08284031215616aad57616aac616989565b5b616ab760c0615506565b9050600082015167ffffffffffffffff811115616ad757616ad661698e565b5b616ae384828501616912565b6000830152506020616af784828501616181565b6020830152506040616b0b84828501616181565b6040830152506060616b1f84828501616671565b6060830152506080616b3384828501616a82565b60808301525060a0616b4784828501616208565b60a08301525092915050565b6000616b66616b6184616a56565b615506565b90508083825260208201905060208402830185811115616b8957616b8861554d565b5b835b81811015616bd057805167ffffffffffffffff811115616bae57616bad615490565b5b808601616bbb8982616a97565b85526020850194505050602081019050616b8b565b5050509392505050565b600082601f830112616bef57616bee615490565b5b8151616bff848260208601616b53565b91505092915050565b600067ffffffffffffffff821115616c2357616c226154a6565b5b602082029050602081019050919050565b6000616c47616c4284616c08565b615506565b90508083825260208201905060208402830185811115616c6a57616c6961554d565b5b835b81811015616c935780616c7f88826165ed565b845260208401935050602081019050616c6c565b5050509392505050565b600082601f830112616cb257616cb1615490565b5b8151616cc2848260208601616c34565b91505092915050565b60006101408284031215616ce257616ce1616989565b5b616ced610140615506565b90506000616cfd84828501616208565b600083015250602082015167ffffffffffffffff811115616d2157616d2061698e565b5b616d2d84828501616a28565b602083015250604082015167ffffffffffffffff811115616d5157616d5061698e565b5b616d5d84828501616a28565b604083015250606082015167ffffffffffffffff811115616d8157616d8061698e565b5b616d8d84828501616a28565b606083015250608082015167ffffffffffffffff811115616db157616db061698e565b5b616dbd84828501616a28565b60808301525060a082015167ffffffffffffffff811115616de157616de061698e565b5b616ded84828501616bda565b60a08301525060c082015167ffffffffffffffff811115616e1157616e1061698e565b5b616e1d84828501616c9d565b60c08301525060e082015167ffffffffffffffff811115616e4157616e4061698e565b5b616e4d84828501616c9d565b60e083015250610100616e6284828501616181565b6101008301525061012082015167ffffffffffffffff811115616e8857616e8761698e565b5b616e9484828501616912565b6101208301525092915050565b600060208284031215616eb757616eb661534b565b5b600082015167ffffffffffffffff811115616ed557616ed4615350565b5b616ee184828501616ccb565b91505092915050565b60006101408284031215616f0157616f00616989565b5b616f0c610140615506565b90506000616f1c84828501616208565b6000830152506020616f3084828501616208565b6020830152506040616f4484828501616208565b6040830152506060616f5884828501616208565b6060830152506080616f6c84828501616208565b60808301525060a082015167ffffffffffffffff811115616f9057616f8f61698e565b5b616f9c84828501616a97565b60a08301525060c0616fb0848285016165ed565b60c08301525060e0616fc4848285016165ed565b60e083015250610100616fd984828501616181565b6101008301525061012082015167ffffffffffffffff811115616fff57616ffe61698e565b5b61700b84828501616912565b6101208301525092915050565b60006020828403121561702e5761702d61534b565b5b600082015167ffffffffffffffff81111561704c5761704b615350565b5b61705884828501616eea565b91505092915050565b600061707461706f84615521565b615506565b905080838252602082019050602084028301858111156170975761709661554d565b5b835b818110156170c057806170ac8882616671565b845260208401935050602081019050617099565b5050509392505050565b600082601f8301126170df576170de615490565b5b81516170ef848260208601617061565b91505092915050565b60006020828403121561710e5761710d61534b565b5b600082015167ffffffffffffffff81111561712c5761712b615350565b5b617138848285016170ca565b91505092915050565b600080fd5b600080fd5b600080fd5b6000808335600160200384360303811261716d5761716c617141565b5b80840192508235915067ffffffffffffffff82111561718f5761718e617146565b5b6020830192506020820236038313156171ab576171aa61714b565b5b509250929050565b600082356001610160038336030381126171d0576171cf617141565b5b80830191505092915050565b600060c082840312156171f2576171f1616989565b5b6171fc60c0615506565b9050600082013567ffffffffffffffff81111561721c5761721b61698e565b5b617228848285016156a9565b600083015250602061723c8482850161662f565b60208301525060406172508482850161662f565b604083015250606061726484828501615576565b606083015250608061727884828501615380565b60808301525060a061728c84828501615c7d565b60a08301525092915050565b600061016082840312156172af576172ae616989565b5b6172ba610160615506565b905060006172ca84828501615c7d565b60008301525060206172de84828501615c7d565b60208301525060406172f284828501615c7d565b604083015250606061730684828501615c7d565b606083015250608082013567ffffffffffffffff81111561732a5761732961698e565b5b617336848285016171dc565b60808301525060a082013567ffffffffffffffff81111561735a5761735961698e565b5b617366848285016156a9565b60a08301525060c061737a84828501615b5a565b60c08301525060e061738e84828501615b5a565b60e0830152506101006173a38482850161662f565b610100830152506101206173b98482850161662f565b6101208301525061014082013567ffffffffffffffff8111156173df576173de61698e565b5b6173eb848285016156a9565b6101408301525092915050565b60006174043683617298565b9050919050565b60008235600160c00383360303811261742757617426617141565b5b80830191505092915050565b600061743f36836171dc565b9050919050565b60006020828403121561745c5761745b61534b565b5b600061746a84828501615b5a565b91505092915050565b600063ffffffff82169050919050565b61748c81617473565b82525050565b60006020820190506174a76000830184617483565b92915050565b600082356001610160038336030381126174ca576174c9617141565b5b80830191505092915050565b600080833560016020038436030381126174f3576174f2617141565b5b80840192508235915067ffffffffffffffff82111561751557617514617146565b5b6020830192506020820236038313156175315761753061714b565b5b509250929050565b6000617544826153c2565b915061754f836153c2565b925082820261755d816153c2565b915082820484148315176175745761757361624a565b5b5092915050565b6000808335600160200384360303811261759857617597617141565b5b80840192508235915067ffffffffffffffff8211156175ba576175b9617146565b5b6020830192506020820236038313156175d6576175d561714b565b5b509250929050565b60006175f16175ec84616a56565b615506565b905080838252602082019050602084028301858111156176145761761361554d565b5b835b8181101561765b57803567ffffffffffffffff81111561763957617638615490565b5b80860161764689826171dc565b85526020850194505050602081019050617616565b5050509392505050565b60006176723684846175de565b905092915050565b6000617685826153f6565b9050919050565b6176958161767a565b81146176a057600080fd5b50565b6000815190506176b28161768c565b92915050565b6000602082840312156176ce576176cd61534b565b5b60006176dc848285016176a3565b91505092915050565b60008190508160005260206000209050919050565b60006020601f8301049050919050565b600082821b905092915050565b6000600883026177477fffffffffffffffffffffffffffffffffffffffffffffffffffffffffffffffff8261770a565b617751868361770a565b95508019841693508086168417925050509392505050565b600061778461777f61777a846153c2565b615416565b6153c2565b9050919050565b6000819050919050565b61779e83617769565b6177b26177aa8261778b565b848454617717565b825550505050565b600090565b6177c76177ba565b6177d2818484617795565b505050565b5b818110156177f6576177eb6000826177bf565b6001810190506177d8565b5050565b601f82111561783b5761780c816176e5565b617815846176fa565b81016020851015617824578190505b617838617830856176fa565b8301826177d7565b50505b505050565b600082821c905092915050565b600061785e60001984600802617840565b1980831691505092915050565b6000617877838361784d565b9150826002028217905092915050565b61789082615a88565b67ffffffffffffffff8111156178a9576178a86154a6565b5b6178b3825461689f565b6178be8282856177fa565b600060209050601f8311600181146178f157600084156178df578287015190505b6178e9858261786b565b865550617951565b601f1984166178ff866176e5565b60005b8281101561792757848901518255600182019150602085019450602081019050617902565b868310156179445784890151617940601f89168261784d565b8355505b6001600288020188555050505b505050505050565b600061796c61796784616993565b615506565b9050808382526020820190506020840283018581111561798f5761798e61554d565b5b835b818110156179b857806179a48882615c7d565b845260208401935050602081019050617991565b5050509392505050565b600082601f8301126179d7576179d6615490565b5b81356179e7848260208601617959565b91505092915050565b600082601f830112617a0557617a04615490565b5b8135617a158482602086016175de565b91505092915050565b6000617a31617a2c84616c08565b615506565b90508083825260208201905060208402830185811115617a5457617a5361554d565b5b835b81811015617a7d5780617a698882615b5a565b845260208401935050602081019050617a56565b5050509392505050565b600082601f830112617a9c57617a9b615490565b5b8135617aac848260208601617a1e565b91505092915050565b60006101608284031215617acc57617acb616989565b5b617ad7610160615506565b9050600082013567ffffffffffffffff811115617af757617af661698e565b5b617b03848285016179c2565b600083015250602082013567ffffffffffffffff811115617b2757617b2661698e565b5b617b33848285016179c2565b602083015250604082013567ffffffffffffffff811115617b5757617b5661698e565b5b617b63848285016179c2565b604083015250606082013567ffffffffffffffff811115617b8757617b8661698e565b5b617b93848285016179c2565b606083015250608082013567ffffffffffffffff811115617bb757617bb661698e565b5b617bc3848285016179f0565b60808301525060a082013567ffffffffffffffff811115617be757617be661698e565b5b617bf3848285016156a9565b60a08301525060c082013567ffffffffffffffff811115617c1757617c1661698e565b5b617c2384828501617a87565b60c08301525060e082013567ffffffffffffffff811115617c4757617c4661698e565b5b617c5384828501617a87565b60e083015250610100617c688482850161662f565b61010083015250610120617c7e8482850161662f565b6101208301525061014082013567ffffffffffffffff811115617ca457617ca361698e565b5b617cb0848285016156a9565b6101408301525092915050565b6000617cc93683617ab5565b9050919050565b60008083356001602003843603038112617ced57617cec617141565b5b80840192508235915067ffffffffffffffff821115617d0f57617d0e617146565b5b602083019250602082023603831315617d2b57617d2a61714b565b5b509250929050565b6000617d3e826153c2565b91507fffffffffffffffffffffffffffffffffffffffffffffffffffffffffffffffff8203617d7057617d6f61624a565b5b600182019050919050565b60008083356001602003843603038112617d9857617d97617141565b5b80840192508235915067ffffffffffffffff821115617dba57617db9617146565b5b602083019250602082023603831315617dd657617dd561714b565b5b509250929050565b60008083356001602003843603038112617dfb57617dfa617141565b5b80840192508235915067ffffffffffffffff821115617e1d57617e1c617146565b5b602083019250602082023603831315617e3957617e3861714b565b5b509250929050565b60008083356001602003843603038112617e5e57617e5d617141565b5b80840192508235915067ffffffffffffffff821115617e8057617e7f617146565b5b602083019250602082023603831315617e9c57617e9b61714b565b5b509250929050565b60008083356001602003843603038112617ec157617ec0617141565b5b80840192508235915067ffffffffffffffff821115617ee357617ee2617146565b5b602083019250602082023603831315617eff57617efe61714b565b5b509250929050565b600060408284031215617f1d57617f1c616989565b5b617f276040615506565b90506000617f3784828501616208565b600083015250602082015167ffffffffffffffff811115617f5b57617f5a61698e565b5b617f6784828501616912565b60208301525092915050565b600060208284031215617f8957617f8861534b565b5b600082015167ffffffffffffffff811115617fa757617fa6615350565b5b617fb384828501617f07565b91505092915050565b600082825260208201905092915050565b6000819050919050565b617fe081615552565b82525050565b6000617ff28383617fd7565b60208301905092915050565b600061800d6020840184615576565b905092915050565b6000602082019050919050565b600061802e8385617fbc565b935061803982617fcd565b8060005b858110156180725761804f8284617ffe565b6180598882617fe6565b975061806483618015565b92505060018101905061803d565b5085925050509392505050565b6000604082019050818103600083015261809a818587618022565b905081810360208301526180ae8184615ace565b9050949350505050565b6000819050919050565b6180cb816180b8565b82525050565b60006020820190506180e660008301846180c2565b92915050565b6000602082840312156181025761810161534b565b5b600061811084828501615576565b91505092915050565b600081519050919050565b6000819050602082019050919050565b6000602082019050919050565b600061814c82618119565b6181568185617fbc565b935061816183618124565b8060005b838110156181925781516181798882617fe6565b975061818483618134565b925050600181019050618165565b5085935050505092915050565b600060408201905081810360008301526181b98185618141565b905081810360208301526181cd8184615ace565b90509392505050565b6181df81615355565b82525050565b600060c08301600083015184820360008601526182028282616359565b915050602083015161821760208601826166ca565b50604083015161822a60408601826166ca565b50606083015161823d6060860182617fd7565b50608083015161825060808601826181d6565b5060a083015161826360a086018261589f565b508091505092915050565b61827781615b37565b82525050565b600061014083016000830151618296600086018261589f565b5060208301516182a9602086018261589f565b5060408301516182bc604086018261589f565b5060608301516182cf606086018261589f565b5060808301516182e2608086018261589f565b5060a083015184820360a08601526182fa82826181e5565b91505060c083015161830f60c086018261826e565b5060e083015161832260e086018261826e565b506101008301516183376101008601826166ca565b506101208301518482036101208601526183518282616359565b9150508091505092915050565b60006020820190508181036000830152618378818461827d565b905092915050565b7f4e487b7100000000000000000000000000000000000000000000000000000000600052601260045260246000fd5b60006183ba826153c2565b91506183c5836153c2565b9250826183d5576183d4618380565b5b828204905092915050565b600069ffffffffffffffffffff82169050919050565b6183ff816183e0565b811461840a57600080fd5b50565b60008151905061841c816183f6565b92915050565b6000819050919050565b61843581618422565b811461844057600080fd5b50565b6000815190506184528161842c565b92915050565b600080600080600060a086880312156184745761847361534b565b5b60006184828882890161840d565b955050602061849388828901618443565b94505060406184a488828901616208565b93505060606184b588828901616208565b92505060806184c68882890161840d565b9150509295509295909350565b600081519050919050565b600082825260208201905092915050565b6000819050602082019050919050565b600061850b83836181e5565b905092915050565b6000602082019050919050565b600061852b826184d3565b61853581856184de565b935083602082028501618547856184ef565b8060005b85811015618583578484038952815161856485826184ff565b945061856f83618513565b925060208a0199505060018101905061854b565b50829750879550505050505092915050565b600081519050919050565b600082825260208201905092915050565b6000819050602082019050919050565b60006185cd838361826e565b60208301905092915050565b6000602082019050919050565b60006185f182618595565b6185fb81856185a0565b9350618606836185b1565b8060005b8381101561863757815161861e88826185c1565b9750618629836185d9565b92505060018101905061860a565b5085935050505092915050565b60006101408301600083015161865d600086018261589f565b506020830151848203602086015261867582826162be565b9150506040830151848203604086015261868f82826162be565b915050606083015184820360608601526186a982826162be565b915050608083015184820360808601526186c382826162be565b91505060a083015184820360a08601526186dd8282618520565b91505060c083015184820360c08601526186f782826185e6565b91505060e083015184820360e086015261871182826185e6565b9150506101008301516187286101008601826166ca565b506101208301518482036101208601526187428282616359565b9150508091505092915050565b600060208201905081810360008301526187698184618644565b90509291505056fea2646970667358221220c17ec8eb4de39a5a17a1271c8879bec6b37f5cd42e70432be198297a9951d4a964736f6c63430008170033","linkReferences":{}},"methodIdentifiers":{"CHAIN_ID()":"85e1f4d0","ackGasCost(uint64)":"d8bb4f4e","addRemoteChain(uint64,(address,address,uint256,uint256,uint256,uint256,uint256,uint256,uint256,uint256,uint256,uint256))":"49c4144c","calculateAMBData(uint64,uint8[],bytes)":"3283166a","depositGasUsed(uint64)":"4c75c0d8","emergencyCost(uint64)":"0292540b","estimateAMBFees(uint8[],uint64,bytes,bytes[])":"1f864be3","estimateAckCost(uint256)":"596703e7","estimateAckCostDefault(bool,uint8[],uint64)":"36c7fe1d","estimateAckCostDefaultNativeSource(bool,uint8[],uint64)":"b1752d59","estimateMultiDstMultiVault((uint8[][],uint64[],(uint256[],uint256[],uint256[],uint256[],(bytes,address,address,uint8,uint64,uint256)[],bytes,bool[],bool[],address,address,bytes)[]),bool)":"f3afdd88","estimateMultiDstSingleVault((uint8[][],uint64[],(uint256,uint256,uint256,uint256,(bytes,address,address,uint8,uint64,uint256),bytes,bool,bool,address,address,bytes)[]),bool)":"d7013974","estimateSingleDirectMultiVault(((uint256[],uint256[],uint256[],uint256[],(bytes,address,address,uint8,uint64,uint256)[],bytes,bool[],bool[],address,address,bytes)),bool)":"7504988b","estimateSingleDirectSingleVault(((uint256,uint256,uint256,uint256,(bytes,address,address,uint8,uint64,uint256),bytes,bool,bool,address,address,bytes)),bool)":"f3d80846","estimateSingleXChainMultiVault((uint8[],uint64,(uint256[],uint256[],uint256[],uint256[],(bytes,address,address,uint8,uint64,uint256)[],bytes,bool[],bool[],address,address,bytes)),bool)":"c97c55b0","estimateSingleXChainSingleVault((uint8[],uint64,(uint256,uint256,uint256,uint256,(bytes,address,address,uint8,uint64,uint256),bytes,bool,bool,address,address,bytes)),bool)":"61d26cae","extraDataForTransmuter()":"da163637","gasPerByte(uint64)":"904b1a28","gasPrice(uint64)":"4786b424","gasPriceOracle(uint64)":"49c3af45","getRegisterTransmuterAMBData()":"53d69edc","nativeFeedOracle(uint64)":"12c4da86","nativePrice(uint64)":"4545fc31","superRegistry()":"24c73dda","swapGasUsed(uint64)":"a9ce4648","timelockCost(uint64)":"1f5ae58f","updateGasUsed(uint64)":"ee4bc1c7","updateRegisterAERC20Params(bytes)":"b9694b52","updateRemoteChain(uint64,uint256,bytes)":"7abae251","withdrawGasUsed(uint64)":"7f7aecb5"},"id":171}