{"abi":[{"type":"function","name":"startBridgeTokensViaAcrossERC20Min","inputs":[{"name":"transactionId","type":"bytes32","internalType":"bytes32"},{"name":"sendingAssetId","type":"address","internalType":"address"},{"name":"minAmount","type":"uint256","internalType":"uint256"},{"name":"receiver","type":"address","internalType":"address"},{"name":"destinationChainId","type":"uint64","internalType":"uint64"},{"name":"relayerFeePct","type":"int64","internalType":"int64"},{"name":"quoteTimestamp","type":"uint32","internalType":"uint32"},{"name":"message","type":"bytes","internalType":"bytes"},{"name":"maxCount","type":"uint256","internalType":"uint256"}],"outputs":[],"stateMutability":"payable"},{"type":"function","name":"startBridgeTokensViaAcrossERC20Packed","inputs":[],"outputs":[],"stateMutability":"payable"},{"type":"function","name":"startBridgeTokensViaAcrossNativeMin","inputs":[{"name":"transactionId","type":"bytes32","internalType":"bytes32"},{"name":"receiver","type":"address","internalType":"address"},{"name":"destinationChainId","type":"uint256","internalType":"uint256"},{"name":"relayerFeePct","type":"int64","internalType":"int64"},{"name":"quoteTimestamp","type":"uint32","internalType":"uint32"},{"name":"message","type":"bytes","internalType":"bytes"},{"name":"maxCount","type":"uint256","internalType":"uint256"}],"outputs":[],"stateMutability":"payable"},{"type":"function","name":"startBridgeTokensViaAcrossNativePacked","inputs":[],"outputs":[],"stateMutability":"payable"}],"bytecode":{"object":"0x608060405234801561001057600080fd5b5061047b806100206000396000f3fe60806040526004361061003f5760003560e01c80632340ab8f146100445780634c128e601461004e5780635a39b10a1461006a5780635eedcbd614610074575b600080fd5b61004c610090565b005b61006860048036038101906100639190610298565b610092565b005b61007261009e565b005b61008e60048036038101906100899190610383565b6100a0565b005b565b50505050505050505050565b565b5050505050505050565b600080fd5b600080fd5b6000819050919050565b6100c7816100b4565b81146100d257600080fd5b50565b6000813590506100e4816100be565b92915050565b600073ffffffffffffffffffffffffffffffffffffffff82169050919050565b6000610115826100ea565b9050919050565b6101258161010a565b811461013057600080fd5b50565b6000813590506101428161011c565b92915050565b6000819050919050565b61015b81610148565b811461016657600080fd5b50565b60008135905061017881610152565b92915050565b600067ffffffffffffffff82169050919050565b61019b8161017e565b81146101a657600080fd5b50565b6000813590506101b881610192565b92915050565b60008160070b9050919050565b6101d4816101be565b81146101df57600080fd5b50565b6000813590506101f1816101cb565b92915050565b600063ffffffff82169050919050565b610210816101f7565b811461021b57600080fd5b50565b60008135905061022d81610207565b92915050565b600080fd5b600080fd5b600080fd5b60008083601f84011261025857610257610233565b5b8235905067ffffffffffffffff81111561027557610274610238565b5b6020830191508360018202830111156102915761029061023d565b5b9250929050565b6000806000806000806000806000806101208b8d0312156102bc576102bb6100aa565b5b60006102ca8d828e016100d5565b9a505060206102db8d828e01610133565b99505060406102ec8d828e01610169565b98505060606102fd8d828e01610133565b975050608061030e8d828e016101a9565b96505060a061031f8d828e016101e2565b95505060c06103308d828e0161021e565b94505060e08b013567ffffffffffffffff811115610351576103506100af565b5b61035d8d828e01610242565b93509350506101006103718d828e01610169565b9150509295989b9194979a5092959850565b60008060008060008060008060e0898b0312156103a3576103a26100aa565b5b60006103b18b828c016100d5565b98505060206103c28b828c01610133565b97505060406103d38b828c01610169565b96505060606103e48b828c016101e2565b95505060806103f58b828c0161021e565b94505060a089013567ffffffffffffffff811115610416576104156100af565b5b6104228b828c01610242565b935093505060c06104358b828c01610169565b915050929598509295989093965056fea2646970667358221220ef317929b8785fb674a5846d9f66a82f661fce947a201f5364c6d063399fe5c464736f6c63430008170033","linkReferences":{}},"methodIdentifiers":{"startBridgeTokensViaAcrossERC20Min(bytes32,address,uint256,address,uint64,int64,uint32,bytes,uint256)":"4c128e60","startBridgeTokensViaAcrossERC20Packed()":"2340ab8f","startBridgeTokensViaAcrossNativeMin(bytes32,address,uint256,int64,uint32,bytes,uint256)":"5eedcbd6","startBridgeTokensViaAcrossNativePacked()":"5a39b10a"},"id":104}