{"abi":[{"type":"constructor","inputs":[{"name":"roles","type":"tuple","internalType":"struct ISuperRBAC.InitialRoleSetup","components":[{"name":"admin","type":"address","internalType":"address"},{"name":"emergencyAdmin","type":"address","internalType":"address"},{"name":"paymentAdmin","type":"address","internalType":"address"},{"name":"csrProcessor","type":"address","internalType":"address"},{"name":"tlProcessor","type":"address","internalType":"address"},{"name":"brProcessor","type":"address","internalType":"address"},{"name":"csrUpdater","type":"address","internalType":"address"},{"name":"srcVaaRelayer","type":"address","internalType":"address"},{"name":"dstSwapper","type":"address","internalType":"address"},{"name":"csrRescuer","type":"address","internalType":"address"},{"name":"csrDisputer","type":"address","internalType":"address"}]}],"stateMutability":"nonpayable"},{"type":"function","name":"BROADCASTER_ROLE","inputs":[],"outputs":[{"name":"","type":"bytes32","internalType":"bytes32"}],"stateMutability":"view"},{"type":"function","name":"BROADCAST_STATE_REGISTRY_PROCESSOR_ROLE","inputs":[],"outputs":[{"name":"","type":"bytes32","internalType":"bytes32"}],"stateMutability":"view"},{"type":"function","name":"CORE_STATE_REGISTRY_DISPUTER_ROLE","inputs":[],"outputs":[{"name":"","type":"bytes32","internalType":"bytes32"}],"stateMutability":"view"},{"type":"function","name":"CORE_STATE_REGISTRY_PROCESSOR_ROLE","inputs":[],"outputs":[{"name":"","type":"bytes32","internalType":"bytes32"}],"stateMutability":"view"},{"type":"function","name":"CORE_STATE_REGISTRY_RESCUER_ROLE","inputs":[],"outputs":[{"name":"","type":"bytes32","internalType":"bytes32"}],"stateMutability":"view"},{"type":"function","name":"CORE_STATE_REGISTRY_UPDATER_ROLE","inputs":[],"outputs":[{"name":"","type":"bytes32","internalType":"bytes32"}],"stateMutability":"view"},{"type":"function","name":"DEFAULT_ADMIN_ROLE","inputs":[],"outputs":[{"name":"","type":"bytes32","internalType":"bytes32"}],"stateMutability":"view"},{"type":"function","name":"DST_SWAPPER_ROLE","inputs":[],"outputs":[{"name":"","type":"bytes32","internalType":"bytes32"}],"stateMutability":"view"},{"type":"function","name":"EMERGENCY_ADMIN_ROLE","inputs":[],"outputs":[{"name":"","type":"bytes32","internalType":"bytes32"}],"stateMutability":"view"},{"type":"function","name":"PAYMENT_ADMIN_ROLE","inputs":[],"outputs":[{"name":"","type":"bytes32","internalType":"bytes32"}],"stateMutability":"view"},{"type":"function","name":"PROTOCOL_ADMIN_ROLE","inputs":[],"outputs":[{"name":"","type":"bytes32","internalType":"bytes32"}],"stateMutability":"view"},{"type":"function","name":"SYNC_REVOKE","inputs":[],"outputs":[{"name":"","type":"bytes32","internalType":"bytes32"}],"stateMutability":"view"},{"type":"function","name":"TIMELOCK_STATE_REGISTRY_PROCESSOR_ROLE","inputs":[],"outputs":[{"name":"","type":"bytes32","internalType":"bytes32"}],"stateMutability":"view"},{"type":"function","name":"WORMHOLE_VAA_RELAYER_ROLE","inputs":[],"outputs":[{"name":"","type":"bytes32","internalType":"bytes32"}],"stateMutability":"view"},{"type":"function","name":"getRoleAdmin","inputs":[{"name":"role","type":"bytes32","internalType":"bytes32"}],"outputs":[{"name":"","type":"bytes32","internalType":"bytes32"}],"stateMutability":"view"},{"type":"function","name":"getRoleMember","inputs":[{"name":"role","type":"bytes32","internalType":"bytes32"},{"name":"index","type":"uint256","internalType":"uint256"}],"outputs":[{"name":"","type":"address","internalType":"address"}],"stateMutability":"view"},{"type":"function","name":"getRoleMemberCount","inputs":[{"name":"role","type":"bytes32","internalType":"bytes32"}],"outputs":[{"name":"","type":"uint256","internalType":"uint256"}],"stateMutability":"view"},{"type":"function","name":"grantRole","inputs":[{"name":"role","type":"bytes32","internalType":"bytes32"},{"name":"account","type":"address","internalType":"address"}],"outputs":[],"stateMutability":"nonpayable"},{"type":"function","name":"hasEmergencyAdminRole","inputs":[{"name":"emergencyAdmin_","type":"address","internalType":"address"}],"outputs":[{"name":"","type":"bool","internalType":"bool"}],"stateMutability":"view"},{"type":"function","name":"hasProtocolAdminRole","inputs":[{"name":"admin_","type":"address","internalType":"address"}],"outputs":[{"name":"","type":"bool","internalType":"bool"}],"stateMutability":"view"},{"type":"function","name":"hasRole","inputs":[{"name":"role","type":"bytes32","internalType":"bytes32"},{"name":"account","type":"address","internalType":"address"}],"outputs":[{"name":"","type":"bool","internalType":"bool"}],"stateMutability":"view"},{"type":"function","name":"renounceRole","inputs":[{"name":"role","type":"bytes32","internalType":"bytes32"},{"name":"callerConfirmation","type":"address","internalType":"address"}],"outputs":[],"stateMutability":"nonpayable"},{"type":"function","name":"revokeRole","inputs":[{"name":"role","type":"bytes32","internalType":"bytes32"},{"name":"account","type":"address","internalType":"address"}],"outputs":[],"stateMutability":"nonpayable"},{"type":"function","name":"revokeRoleSuperBroadcast","inputs":[{"name":"role_","type":"bytes32","internalType":"bytes32"},{"name":"extraData_","type":"bytes","internalType":"bytes"},{"name":"superRegistryAddressId_","type":"bytes32","internalType":"bytes32"}],"outputs":[],"stateMutability":"payable"},{"type":"function","name":"setRoleAdmin","inputs":[{"name":"role_","type":"bytes32","internalType":"bytes32"},{"name":"adminRole_","type":"bytes32","internalType":"bytes32"}],"outputs":[],"stateMutability":"nonpayable"},{"type":"function","name":"setSuperRegistry","inputs":[{"name":"superRegistry_","type":"address","internalType":"address"}],"outputs":[],"stateMutability":"nonpayable"},{"type":"function","name":"stateSyncBroadcast","inputs":[{"name":"data_","type":"bytes","internalType":"bytes"}],"outputs":[],"stateMutability":"nonpayable"},{"type":"function","name":"superRegistry","inputs":[],"outputs":[{"name":"","type":"address","internalType":"contract ISuperRegistry"}],"stateMutability":"view"},{"type":"function","name":"supportsInterface","inputs":[{"name":"interfaceId","type":"bytes4","internalType":"bytes4"}],"outputs":[{"name":"","type":"bool","internalType":"bool"}],"stateMutability":"view"},{"type":"function","name":"xChainPayloadCounter","inputs":[],"outputs":[{"name":"","type":"uint256","internalType":"uint256"}],"stateMutability":"view"},{"type":"event","name":"RoleAdminChanged","inputs":[{"name":"role","type":"bytes32","indexed":true,"internalType":"bytes32"},{"name":"previousAdminRole","type":"bytes32","indexed":true,"internalType":"bytes32"},{"name":"newAdminRole","type":"bytes32","indexed":true,"internalType":"bytes32"}],"anonymous":false},{"type":"event","name":"RoleAdminSet","inputs":[{"name":"role","type":"bytes32","indexed":false,"internalType":"bytes32"},{"name":"adminRole","type":"bytes32","indexed":false,"internalType":"bytes32"}],"anonymous":false},{"type":"event","name":"RoleGranted","inputs":[{"name":"role","type":"bytes32","indexed":true,"internalType":"bytes32"},{"name":"account","type":"address","indexed":true,"internalType":"address"},{"name":"sender","type":"address","indexed":true,"internalType":"address"}],"anonymous":false},{"type":"event","name":"RoleRevoked","inputs":[{"name":"role","type":"bytes32","indexed":true,"internalType":"bytes32"},{"name":"account","type":"address","indexed":true,"internalType":"address"},{"name":"sender","type":"address","indexed":true,"internalType":"address"}],"anonymous":false},{"type":"event","name":"SuperRegistrySet","inputs":[{"name":"superRegistry","type":"address","indexed":true,"internalType":"address"}],"anonymous":false},{"type":"error","name":"AccessControlBadConfirmation","inputs":[]},{"type":"error","name":"AccessControlUnauthorizedAccount","inputs":[{"name":"account","type":"address","internalType":"address"},{"name":"neededRole","type":"bytes32","internalType":"bytes32"}]},{"type":"error","name":"CANNOT_REVOKE_LAST_ADMIN","inputs":[]},{"type":"error","name":"CANNOT_REVOKE_NON_BROADCASTABLE_ROLES","inputs":[]},{"type":"error","name":"DISABLED","inputs":[]},{"type":"error","name":"FAILED_TO_SEND_NATIVE","inputs":[]},{"type":"error","name":"INVALID_BROADCAST_FEE","inputs":[]},{"type":"error","name":"INVALID_MESSAGE_TYPE","inputs":[]},{"type":"error","name":"NOT_BROADCAST_REGISTRY","inputs":[]},{"type":"error","name":"ROLE_NOT_ASSIGNED","inputs":[]},{"type":"error","name":"ZERO_ADDRESS","inputs":[]}],"bytecode":{"object":"0x60806040523480156200001157600080fd5b50604051620036d0380380620036d0833981810160405281019062000037919062000bdb565b6200006d7fd0c934f24ef5a377dc3832429ce607cbe940a3ca3c6cd7e532bd35b4b212d19682600001516200068960201b60201c565b50620000a47f5358bcfd81d1ef3da152b1755e1c3c6739686fa7e83dbcad0071568cc4b73a6382602001516200068960201b60201c565b50620000db7f4a76dea3a6231aa5446f85ecde36fb499385f0f3539e800a138fb9855200db6782604001516200068960201b60201c565b506200010e7f4a20cc833c13f0b7e71c8c74810a8f97737829513da1fbb806c0d9d370cf497e306200068960201b60201c565b50620001457ff7c2c1de3464c8fee0ad8a71a80d665aeafd6a725243593923472fe5e76e45b182606001516200068960201b60201c565b506200017c7f524a5f84ffadde4fe5ca4dc2c5418f05f3c74b161a23be01c17fbc37b6d208f882608001516200068960201b60201c565b50620001b37fbc04cc915ae49862455f81e94a0b624d54c65f74ec4700f8249a99a5ac18cf568260a001516200068960201b60201c565b50620001ea7f67ae681a1ce853cc4fa2ec7bd45049225042d6a828b9865aca9ef1218a52bcfc8260c001516200068960201b60201c565b50620002227f4972dc84d4a5e5915b0181ee249da5758250fe5a34620432e6ddf5217daec0ad8261010001516200068960201b60201c565b506200025a7ff98729ec1ce0343ca1d11c51d1d2d3aa1a7b3f4f6876d0611e0a6fa86520a0cb8261012001516200068960201b60201c565b50620002927f3c98683c4fc1f07b3a173ce23e8e5b9ee147da7d8df6f5e0da4c07c15e354a078261014001516200068960201b60201c565b50620002c97faaedce11550f68de85a9a639fbcd9eeee97fc46052ead315af95693575f4cff58260e001516200068960201b60201c565b50620002fc7fd0c934f24ef5a377dc3832429ce607cbe940a3ca3c6cd7e532bd35b4b212d19680620006da60201b60201c565b6200034e7f5358bcfd81d1ef3da152b1755e1c3c6739686fa7e83dbcad0071568cc4b73a637fd0c934f24ef5a377dc3832429ce607cbe940a3ca3c6cd7e532bd35b4b212d196620006da60201b60201c565b620003a07f4a76dea3a6231aa5446f85ecde36fb499385f0f3539e800a138fb9855200db677fd0c934f24ef5a377dc3832429ce607cbe940a3ca3c6cd7e532bd35b4b212d196620006da60201b60201c565b620003f27fbc04cc915ae49862455f81e94a0b624d54c65f74ec4700f8249a99a5ac18cf567fd0c934f24ef5a377dc3832429ce607cbe940a3ca3c6cd7e532bd35b4b212d196620006da60201b60201c565b620004447ff7c2c1de3464c8fee0ad8a71a80d665aeafd6a725243593923472fe5e76e45b17fd0c934f24ef5a377dc3832429ce607cbe940a3ca3c6cd7e532bd35b4b212d196620006da60201b60201c565b620004967f524a5f84ffadde4fe5ca4dc2c5418f05f3c74b161a23be01c17fbc37b6d208f87fd0c934f24ef5a377dc3832429ce607cbe940a3ca3c6cd7e532bd35b4b212d196620006da60201b60201c565b620004e87f4a20cc833c13f0b7e71c8c74810a8f97737829513da1fbb806c0d9d370cf497e7fd0c934f24ef5a377dc3832429ce607cbe940a3ca3c6cd7e532bd35b4b212d196620006da60201b60201c565b6200053a7f67ae681a1ce853cc4fa2ec7bd45049225042d6a828b9865aca9ef1218a52bcfc7fd0c934f24ef5a377dc3832429ce607cbe940a3ca3c6cd7e532bd35b4b212d196620006da60201b60201c565b6200058c7f4972dc84d4a5e5915b0181ee249da5758250fe5a34620432e6ddf5217daec0ad7fd0c934f24ef5a377dc3832429ce607cbe940a3ca3c6cd7e532bd35b4b212d196620006da60201b60201c565b620005de7ff98729ec1ce0343ca1d11c51d1d2d3aa1a7b3f4f6876d0611e0a6fa86520a0cb7fd0c934f24ef5a377dc3832429ce607cbe940a3ca3c6cd7e532bd35b4b212d196620006da60201b60201c565b620006307f3c98683c4fc1f07b3a173ce23e8e5b9ee147da7d8df6f5e0da4c07c15e354a077fd0c934f24ef5a377dc3832429ce607cbe940a3ca3c6cd7e532bd35b4b212d196620006da60201b60201c565b620006827faaedce11550f68de85a9a639fbcd9eeee97fc46052ead315af95693575f4cff57fd0c934f24ef5a377dc3832429ce607cbe940a3ca3c6cd7e532bd35b4b212d196620006da60201b60201c565b5062000c0e565b6000806200069e84846200073d60201b60201c565b90508015620006d057620006ce83600160008781526020019081526020016000206200084060201b90919060201c565b505b8091505092915050565b6000620006ed836200087860201b60201c565b905081600080858152602001908152602001600020600101819055508181847fbd79b86ffe0ab8e8776151514217cd7cacd52c909f66475c3af44e129f0b00ff60405160405180910390a4505050565b60006200075183836200089760201b60201c565b6200083557600160008085815260200190815260200160002060000160008473ffffffffffffffffffffffffffffffffffffffff1673ffffffffffffffffffffffffffffffffffffffff16815260200190815260200160002060006101000a81548160ff021916908315150217905550620007d16200090160201b60201c565b73ffffffffffffffffffffffffffffffffffffffff168273ffffffffffffffffffffffffffffffffffffffff16847f2f8788117e7eff1d82e926ec794901d17c78024a50270940304540a733656f0d60405160405180910390a4600190506200083a565b600090505b92915050565b600062000870836000018373ffffffffffffffffffffffffffffffffffffffff1660001b6200090960201b60201c565b905092915050565b6000806000838152602001908152602001600020600101549050919050565b600080600084815260200190815260200160002060000160008373ffffffffffffffffffffffffffffffffffffffff1673ffffffffffffffffffffffffffffffffffffffff16815260200190815260200160002060009054906101000a900460ff16905092915050565b600033905090565b60006200091d83836200098360201b60201c565b620009785782600001829080600181540180825580915050600190039060005260206000200160009091909190915055826000018054905083600101600084815260200190815260200160002081905550600190506200097d565b600090505b92915050565b600080836001016000848152602001908152602001600020541415905092915050565b6000604051905090565b600080fd5b600080fd5b6000601f19601f8301169050919050565b7f4e487b7100000000000000000000000000000000000000000000000000000000600052604160045260246000fd5b62000a0582620009ba565b810181811067ffffffffffffffff8211171562000a275762000a26620009cb565b5b80604052505050565b600062000a3c620009a6565b905062000a4a8282620009fa565b919050565b600073ffffffffffffffffffffffffffffffffffffffff82169050919050565b600062000a7c8262000a4f565b9050919050565b62000a8e8162000a6f565b811462000a9a57600080fd5b50565b60008151905062000aae8162000a83565b92915050565b6000610160828403121562000ace5762000acd620009b5565b5b62000adb61016062000a30565b9050600062000aed8482850162000a9d565b600083015250602062000b038482850162000a9d565b602083015250604062000b198482850162000a9d565b604083015250606062000b2f8482850162000a9d565b606083015250608062000b458482850162000a9d565b60808301525060a062000b5b8482850162000a9d565b60a08301525060c062000b718482850162000a9d565b60c08301525060e062000b878482850162000a9d565b60e08301525061010062000b9e8482850162000a9d565b6101008301525061012062000bb68482850162000a9d565b6101208301525061014062000bce8482850162000a9d565b6101408301525092915050565b6000610160828403121562000bf55762000bf4620009b0565b5b600062000c058482850162000ab4565b91505092915050565b612ab28062000c1e6000396000f3fe6080604052600436106101cd5760003560e01c80639010d07c116100f7578063bf7966cc11610095578063e6ddad4c11610064578063e6ddad4c14610695578063ea2b4afe146106be578063edf387c5146106e9578063f4c0713214610714576101cd565b8063bf7966cc146105c7578063ca15c873146105f2578063d35911f21461062f578063d547741f1461066c576101cd565b8063a217fddf116100d1578063a217fddf1461052a578063ac2d793014610555578063aee2bc8614610571578063b24b56b01461059c576101cd565b80639010d07c1461048557806391d14854146104c2578063a18c39d4146104ff576101cd565b806336568abe1161016f578063599652261161013e57806359965226146103d957806362bf6028146104045780636e76fc8f1461042f578063813f56e61461045a576101cd565b806336568abe146103315780633a996e951461035a5780634e88aeb514610385578063574e4acc146103ae576101cd565b8063249487f6116101ab578063249487f61461027557806324c73dda146102a05780632f2ff15d146102cb5780632f41ca96146102f4576101cd565b806301ffc9a7146101d25780631e4e00911461020f578063248a9ca314610238575b600080fd5b3480156101de57600080fd5b506101f960048036038101906101f49190611e97565b61073f565b6040516102069190611edf565b60405180910390f35b34801561021b57600080fd5b5061023660048036038101906102319190611f30565b6107b9565b005b34801561024457600080fd5b5061025f600480360381019061025a9190611f70565b61082b565b60405161026c9190611fac565b60405180910390f35b34801561028157600080fd5b5061028a61084a565b6040516102979190611fac565b60405180910390f35b3480156102ac57600080fd5b506102b561086e565b6040516102c29190612046565b60405180910390f35b3480156102d757600080fd5b506102f260048036038101906102ed919061209f565b610894565b005b34801561030057600080fd5b5061031b600480360381019061031691906120df565b6108b6565b6040516103289190611edf565b60405180910390f35b34801561033d57600080fd5b506103586004803603810190610353919061209f565b6108e9565b005b34801561036657600080fd5b5061036f610964565b60405161037c9190611fac565b60405180910390f35b34801561039157600080fd5b506103ac60048036038101906103a791906120df565b610988565b005b3480156103ba57600080fd5b506103c3610b28565b6040516103d09190611fac565b60405180910390f35b3480156103e557600080fd5b506103ee610b4c565b6040516103fb9190611fac565b60405180910390f35b34801561041057600080fd5b50610419610b70565b6040516104269190611fac565b60405180910390f35b34801561043b57600080fd5b50610444610b94565b6040516104519190611fac565b60405180910390f35b34801561046657600080fd5b5061046f610bb8565b60405161047c9190611fac565b60405180910390f35b34801561049157600080fd5b506104ac60048036038101906104a79190612142565b610bdc565b6040516104b99190612191565b60405180910390f35b3480156104ce57600080fd5b506104e960048036038101906104e4919061209f565b610c0b565b6040516104f69190611edf565b60405180910390f35b34801561050b57600080fd5b50610514610c75565b6040516105219190611fac565b60405180910390f35b34801561053657600080fd5b5061053f610c99565b60405161054c9190611fac565b60405180910390f35b61056f600480360381019061056a91906122f2565b610ca0565b005b34801561057d57600080fd5b506105866110e0565b6040516105939190611fac565b60405180910390f35b3480156105a857600080fd5b506105b1611104565b6040516105be9190611fac565b60405180910390f35b3480156105d357600080fd5b506105dc611128565b6040516105e99190611fac565b60405180910390f35b3480156105fe57600080fd5b5061061960048036038101906106149190611f70565b61114c565b6040516106269190612370565b60405180910390f35b34801561063b57600080fd5b50610656600480360381019061065191906120df565b611170565b6040516106639190611edf565b60405180910390f35b34801561067857600080fd5b50610693600480360381019061068e919061209f565b6111a3565b005b3480156106a157600080fd5b506106bc60048036038101906106b7919061238b565b6111c5565b005b3480156106ca57600080fd5b506106d3611501565b6040516106e09190611fac565b60405180910390f35b3480156106f557600080fd5b506106fe611525565b60405161070b9190612370565b60405180910390f35b34801561072057600080fd5b5061072961152b565b6040516107369190611fac565b60405180910390f35b60007f5a05180f000000000000000000000000000000000000000000000000000000007bffffffffffffffffffffffffffffffffffffffffffffffffffffffff1916827bffffffffffffffffffffffffffffffffffffffffffffffffffffffff191614806107b257506107b18261154f565b5b9050919050565b7fd0c934f24ef5a377dc3832429ce607cbe940a3ca3c6cd7e532bd35b4b212d1966107e3816115c9565b6107ed83836115dd565b7fc940a359ec25e4e78ab91a195048317bcc34ae2488a995e605de8ea7fc7c751c838360405161081e9291906123d4565b60405180910390a1505050565b6000806000838152602001908152602001600020600101549050919050565b7f3c98683c4fc1f07b3a173ce23e8e5b9ee147da7d8df6f5e0da4c07c15e354a0781565b600260009054906101000a900473ffffffffffffffffffffffffffffffffffffffff1681565b61089d8261082b565b6108a6816115c9565b6108b08383611638565b50505050565b60006108e27f5358bcfd81d1ef3da152b1755e1c3c6739686fa7e83dbcad0071568cc4b73a6383610c0b565b9050919050565b6108f161167e565b73ffffffffffffffffffffffffffffffffffffffff168173ffffffffffffffffffffffffffffffffffffffff1614610955576040517f6697b23200000000000000000000000000000000000000000000000000000000815260040160405180910390fd5b61095f8282611686565b505050565b7ff98729ec1ce0343ca1d11c51d1d2d3aa1a7b3f4f6876d0611e0a6fa86520a0cb81565b7fd0c934f24ef5a377dc3832429ce607cbe940a3ca3c6cd7e532bd35b4b212d1966109b2816115c9565b600073ffffffffffffffffffffffffffffffffffffffff16600260009054906101000a900473ffffffffffffffffffffffffffffffffffffffff1673ffffffffffffffffffffffffffffffffffffffff1614610a3a576040517facb7899800000000000000000000000000000000000000000000000000000000815260040160405180910390fd5b600073ffffffffffffffffffffffffffffffffffffffff168273ffffffffffffffffffffffffffffffffffffffff1603610aa0576040517f538ba4f900000000000000000000000000000000000000000000000000000000815260040160405180910390fd5b81600260006101000a81548173ffffffffffffffffffffffffffffffffffffffff021916908373ffffffffffffffffffffffffffffffffffffffff1602179055508173ffffffffffffffffffffffffffffffffffffffff167f2eebcbfce9dd6cba1a52c0f9851fa11132c398a5aaaa5c605f536ef4d467b66b60405160405180910390a25050565b7f32eb370b54a147dc53f92d42a20e2eb1aa0303270dc875d43d662525ca94683e81565b7f4a20cc833c13f0b7e71c8c74810a8f97737829513da1fbb806c0d9d370cf497e81565b7f67ae681a1ce853cc4fa2ec7bd45049225042d6a828b9865aca9ef1218a52bcfc81565b7f5358bcfd81d1ef3da152b1755e1c3c6739686fa7e83dbcad0071568cc4b73a6381565b7faaedce11550f68de85a9a639fbcd9eeee97fc46052ead315af95693575f4cff581565b6000610c03826001600086815260200190815260200160002061172f90919063ffffffff16565b905092915050565b600080600084815260200190815260200160002060000160008373ffffffffffffffffffffffffffffffffffffffff1673ffffffffffffffffffffffffffffffffffffffff16815260200190815260200160002060009054906101000a900460ff16905092915050565b7ff7c2c1de3464c8fee0ad8a71a80d665aeafd6a725243593923472fe5e76e45b181565b6000801b81565b7fd0c934f24ef5a377dc3832429ce607cbe940a3ca3c6cd7e532bd35b4b212d196610cca816115c9565b7fd0c934f24ef5a377dc3832429ce607cbe940a3ca3c6cd7e532bd35b4b212d196841480610d1757507f5358bcfd81d1ef3da152b1755e1c3c6739686fa7e83dbcad0071568cc4b73a6384145b80610d4157507f4a20cc833c13f0b7e71c8c74810a8f97737829513da1fbb806c0d9d370cf497e84145b80610d6b57507faaedce11550f68de85a9a639fbcd9eeee97fc46052ead315af95693575f4cff584145b15610da2576040517fc1901a0500000000000000000000000000000000000000000000000000000000815260040160405180910390fd5b610e4784600260009054906101000a900473ffffffffffffffffffffffffffffffffffffffff1673ffffffffffffffffffffffffffffffffffffffff166321f8a721856040518263ffffffff1660e01b8152600401610e019190611fac565b602060405180830381865afa158015610e1e573d6000803e3d6000fd5b505050506040513d601f19601f82011682018060405250810190610e429190612412565b611686565b156110a85760008351146110a357600060405180606001604052806040518060400160405280600a81526020017f53555045525f524241430000000000000000000000000000000000000000000081525081526020017f32eb370b54a147dc53f92d42a20e2eb1aa0303270dc875d43d662525ca94683e8152602001600360008154610ed29061246e565b9190508190558786604051602001610eec939291906124b6565b60405160208183030381529060405281525090506110a1600260009054906101000a900473ffffffffffffffffffffffffffffffffffffffff1673ffffffffffffffffffffffffffffffffffffffff166321f8a7217f86a7f6b88da6de42c331676d4da78508adfef4970dc8aa541004f26b6eef4ab96040518263ffffffff1660e01b8152600401610f7e9190611fac565b602060405180830381865afa158015610f9b573d6000803e3d6000fd5b505050506040513d601f19601f82011682018060405250810190610fbf9190612412565b600260009054906101000a900473ffffffffffffffffffffffffffffffffffffffff1673ffffffffffffffffffffffffffffffffffffffff166321f8a7217fbddfa8c39a1f6275bcfb3aa5c70638c466999edbf14e6162d81b3492caca9fce6040518263ffffffff1660e01b815260040161103a9190611fac565b602060405180830381865afa158015611057573d6000803e3d6000fd5b505050506040513d601f19601f8201168201806040525081019061107b9190612412565b8360405160200161108c91906125d2565b60405160208183030381529060405287611749565b505b6110da565b6040517f35c2f32200000000000000000000000000000000000000000000000000000000815260040160405180910390fd5b50505050565b7fd0c934f24ef5a377dc3832429ce607cbe940a3ca3c6cd7e532bd35b4b212d19681565b7f4a76dea3a6231aa5446f85ecde36fb499385f0f3539e800a138fb9855200db6781565b7f524a5f84ffadde4fe5ca4dc2c5418f05f3c74b161a23be01c17fbc37b6d208f881565b6000611169600160008481526020019081526020016000206118ef565b9050919050565b600061119c7fd0c934f24ef5a377dc3832429ce607cbe940a3ca3c6cd7e532bd35b4b212d19683610c0b565b9050919050565b6111ac8261082b565b6111b5816115c9565b6111bf8383611686565b50505050565b600260009054906101000a900473ffffffffffffffffffffffffffffffffffffffff1673ffffffffffffffffffffffffffffffffffffffff166321f8a7217f86a7f6b88da6de42c331676d4da78508adfef4970dc8aa541004f26b6eef4ab96040518263ffffffff1660e01b81526004016112409190611fac565b602060405180830381865afa15801561125d573d6000803e3d6000fd5b505050506040513d601f19601f820116820180604052508101906112819190612412565b73ffffffffffffffffffffffffffffffffffffffff163373ffffffffffffffffffffffffffffffffffffffff16146112e5576040517fb0acaf9d00000000000000000000000000000000000000000000000000000000815260040160405180910390fd5b6000818060200190518101906112fb919061271f565b90507f32eb370b54a147dc53f92d42a20e2eb1aa0303270dc875d43d662525ca94683e81602001511461135a576040517f9916d69e00000000000000000000000000000000000000000000000000000000815260040160405180910390fd5b6000808260400151806020019051810190611375919061277d565b92509250507fd0c934f24ef5a377dc3832429ce607cbe940a3ca3c6cd7e532bd35b4b212d1968214806113c757507f5358bcfd81d1ef3da152b1755e1c3c6739686fa7e83dbcad0071568cc4b73a6382145b806113f157507f4a20cc833c13f0b7e71c8c74810a8f97737829513da1fbb806c0d9d370cf497e82145b8061141b57507faaedce11550f68de85a9a639fbcd9eeee97fc46052ead315af95693575f4cff582145b6114fb576114c482600260009054906101000a900473ffffffffffffffffffffffffffffffffffffffff1673ffffffffffffffffffffffffffffffffffffffff166321f8a721846040518263ffffffff1660e01b815260040161147e9190611fac565b602060405180830381865afa15801561149b573d6000803e3d6000fd5b505050506040513d601f19601f820116820180604052508101906114bf9190612412565b611686565b6114fa576040517f35c2f32200000000000000000000000000000000000000000000000000000000815260040160405180910390fd5b5b50505050565b7f4972dc84d4a5e5915b0181ee249da5758250fe5a34620432e6ddf5217daec0ad81565b60035481565b7fbc04cc915ae49862455f81e94a0b624d54c65f74ec4700f8249a99a5ac18cf5681565b60007f7965db0b000000000000000000000000000000000000000000000000000000007bffffffffffffffffffffffffffffffffffffffffffffffffffffffff1916827bffffffffffffffffffffffffffffffffffffffffffffffffffffffff191614806115c257506115c182611904565b5b9050919050565b6115da816115d561167e565b61196e565b50565b60006115e88361082b565b905081600080858152602001908152602001600020600101819055508181847fbd79b86ffe0ab8e8776151514217cd7cacd52c909f66475c3af44e129f0b00ff60405160405180910390a4505050565b60008061164584846119bf565b90508015611674576116728360016000878152602001908152602001600020611ab090919063ffffffff16565b505b8091505092915050565b600033905090565b60007fd0c934f24ef5a377dc3832429ce607cbe940a3ca3c6cd7e532bd35b4b212d1968314806116d557507f5358bcfd81d1ef3da152b1755e1c3c6739686fa7e83dbcad0071568cc4b73a6383145b1561171d5760016116e58461114c565b0361171c576040517fa567a5a200000000000000000000000000000000000000000000000000000000815260040160405180910390fd5b5b6117278383611ae0565b905092915050565b600061173e8360000183611b26565b60001c905092915050565b600080828060200190518101906117609190612809565b915091506000808280602001905181019061177b9190612865565b91509150813410156117b9576040517f1961e86700000000000000000000000000000000000000000000000000000000815260040160405180910390fd5b8773ffffffffffffffffffffffffffffffffffffffff1663c63304f6833387868b876040518763ffffffff1660e01b81526004016117fb95949392919061291a565b6000604051808303818588803b15801561181457600080fd5b505af1158015611828573d6000803e3d6000fd5b5050505050813411156118e55760008773ffffffffffffffffffffffffffffffffffffffff16833461185a919061297b565b604051611866906129e0565b60006040518083038185875af1925050503d80600081146118a3576040519150601f19603f3d011682016040523d82523d6000602084013e6118a8565b606091505b50509050806118e3576040517f220d375300000000000000000000000000000000000000000000000000000000815260040160405180910390fd5b505b5050505050505050565b60006118fd82600001611b51565b9050919050565b60007f01ffc9a7000000000000000000000000000000000000000000000000000000007bffffffffffffffffffffffffffffffffffffffffffffffffffffffff1916827bffffffffffffffffffffffffffffffffffffffffffffffffffffffff1916149050919050565b6119788282610c0b565b6119bb5780826040517fe2517d3f0000000000000000000000000000000000000000000000000000000081526004016119b29291906129f5565b60405180910390fd5b5050565b60006119cb8383610c0b565b611aa557600160008085815260200190815260200160002060000160008473ffffffffffffffffffffffffffffffffffffffff1673ffffffffffffffffffffffffffffffffffffffff16815260200190815260200160002060006101000a81548160ff021916908315150217905550611a4261167e565b73ffffffffffffffffffffffffffffffffffffffff168273ffffffffffffffffffffffffffffffffffffffff16847f2f8788117e7eff1d82e926ec794901d17c78024a50270940304540a733656f0d60405160405180910390a460019050611aaa565b600090505b92915050565b6000611ad8836000018373ffffffffffffffffffffffffffffffffffffffff1660001b611b62565b905092915050565b600080611aed8484611bd2565b90508015611b1c57611b1a8360016000878152602001908152602001600020611cc490919063ffffffff16565b505b8091505092915050565b6000826000018281548110611b3e57611b3d612a1e565b5b9060005260206000200154905092915050565b600081600001805490509050919050565b6000611b6e8383611cf4565b611bc7578260000182908060018154018082558091505060019003906000526020600020016000909190919091505582600001805490508360010160008481526020019081526020016000208190555060019050611bcc565b600090505b92915050565b6000611bde8383610c0b565b15611cb957600080600085815260200190815260200160002060000160008473ffffffffffffffffffffffffffffffffffffffff1673ffffffffffffffffffffffffffffffffffffffff16815260200190815260200160002060006101000a81548160ff021916908315150217905550611c5661167e565b73ffffffffffffffffffffffffffffffffffffffff168273ffffffffffffffffffffffffffffffffffffffff16847ff6391f5c32d9c69d2a47ea670b442974b53935d1edc7fd64eb21e047a839171b60405160405180910390a460019050611cbe565b600090505b92915050565b6000611cec836000018373ffffffffffffffffffffffffffffffffffffffff1660001b611d17565b905092915050565b600080836001016000848152602001908152602001600020541415905092915050565b60008083600101600084815260200190815260200160002054905060008114611e1f576000600182611d49919061297b565b9050600060018660000180549050611d61919061297b565b9050808214611dd0576000866000018281548110611d8257611d81612a1e565b5b9060005260206000200154905080876000018481548110611da657611da5612a1e565b5b90600052602060002001819055508387600101600083815260200190815260200160002081905550505b85600001805480611de457611de3612a4d565b5b600190038181906000526020600020016000905590558560010160008681526020019081526020016000206000905560019350505050611e25565b60009150505b92915050565b6000604051905090565b600080fd5b600080fd5b60007fffffffff0000000000000000000000000000000000000000000000000000000082169050919050565b611e7481611e3f565b8114611e7f57600080fd5b50565b600081359050611e9181611e6b565b92915050565b600060208284031215611ead57611eac611e35565b5b6000611ebb84828501611e82565b91505092915050565b60008115159050919050565b611ed981611ec4565b82525050565b6000602082019050611ef46000830184611ed0565b92915050565b6000819050919050565b611f0d81611efa565b8114611f1857600080fd5b50565b600081359050611f2a81611f04565b92915050565b60008060408385031215611f4757611f46611e35565b5b6000611f5585828601611f1b565b9250506020611f6685828601611f1b565b9150509250929050565b600060208284031215611f8657611f85611e35565b5b6000611f9484828501611f1b565b91505092915050565b611fa681611efa565b82525050565b6000602082019050611fc16000830184611f9d565b92915050565b600073ffffffffffffffffffffffffffffffffffffffff82169050919050565b6000819050919050565b600061200c61200761200284611fc7565b611fe7565b611fc7565b9050919050565b600061201e82611ff1565b9050919050565b600061203082612013565b9050919050565b61204081612025565b82525050565b600060208201905061205b6000830184612037565b92915050565b600061206c82611fc7565b9050919050565b61207c81612061565b811461208757600080fd5b50565b60008135905061209981612073565b92915050565b600080604083850312156120b6576120b5611e35565b5b60006120c485828601611f1b565b92505060206120d58582860161208a565b9150509250929050565b6000602082840312156120f5576120f4611e35565b5b60006121038482850161208a565b91505092915050565b6000819050919050565b61211f8161210c565b811461212a57600080fd5b50565b60008135905061213c81612116565b92915050565b6000806040838503121561215957612158611e35565b5b600061216785828601611f1b565b92505060206121788582860161212d565b9150509250929050565b61218b81612061565b82525050565b60006020820190506121a66000830184612182565b92915050565b600080fd5b600080fd5b6000601f19601f8301169050919050565b7f4e487b7100000000000000000000000000000000000000000000000000000000600052604160045260246000fd5b6121ff826121b6565b810181811067ffffffffffffffff8211171561221e5761221d6121c7565b5b80604052505050565b6000612231611e2b565b905061223d82826121f6565b919050565b600067ffffffffffffffff82111561225d5761225c6121c7565b5b612266826121b6565b9050602081019050919050565b82818337600083830152505050565b600061229561229084612242565b612227565b9050828152602081018484840111156122b1576122b06121b1565b5b6122bc848285612273565b509392505050565b600082601f8301126122d9576122d86121ac565b5b81356122e9848260208601612282565b91505092915050565b60008060006060848603121561230b5761230a611e35565b5b600061231986828701611f1b565b935050602084013567ffffffffffffffff81111561233a57612339611e3a565b5b612346868287016122c4565b925050604061235786828701611f1b565b9150509250925092565b61236a8161210c565b82525050565b60006020820190506123856000830184612361565b92915050565b6000602082840312156123a1576123a0611e35565b5b600082013567ffffffffffffffff8111156123bf576123be611e3a565b5b6123cb848285016122c4565b91505092915050565b60006040820190506123e96000830185611f9d565b6123f66020830184611f9d565b9392505050565b60008151905061240c81612073565b92915050565b60006020828403121561242857612427611e35565b5b6000612436848285016123fd565b91505092915050565b7f4e487b7100000000000000000000000000000000000000000000000000000000600052601160045260246000fd5b60006124798261210c565b91507fffffffffffffffffffffffffffffffffffffffffffffffffffffffffffffffff82036124ab576124aa61243f565b5b600182019050919050565b60006060820190506124cb6000830186612361565b6124d86020830185611f9d565b6124e56040830184611f9d565b949350505050565b600081519050919050565b600082825260208201905092915050565b60005b8381101561252757808201518184015260208101905061250c565b60008484015250505050565b600061253e826124ed565b61254881856124f8565b9350612558818560208601612509565b612561816121b6565b840191505092915050565b61257581611efa565b82525050565b600060608301600083015184820360008601526125988282612533565b91505060208301516125ad602086018261256c565b50604083015184820360408601526125c58282612533565b9150508091505092915050565b600060208201905081810360008301526125ec818461257b565b905092915050565b600080fd5b600080fd5b600061261161260c84612242565b612227565b90508281526020810184848401111561262d5761262c6121b1565b5b612638848285612509565b509392505050565b600082601f830112612655576126546121ac565b5b81516126658482602086016125fe565b91505092915050565b60008151905061267d81611f04565b92915050565b600060608284031215612699576126986125f4565b5b6126a36060612227565b9050600082015167ffffffffffffffff8111156126c3576126c26125f9565b5b6126cf84828501612640565b60008301525060206126e38482850161266e565b602083015250604082015167ffffffffffffffff811115612707576127066125f9565b5b61271384828501612640565b60408301525092915050565b60006020828403121561273557612734611e35565b5b600082015167ffffffffffffffff81111561275357612752611e3a565b5b61275f84828501612683565b91505092915050565b60008151905061277781612116565b92915050565b60008060006060848603121561279657612795611e35565b5b60006127a486828701612768565b93505060206127b58682870161266e565b92505060406127c68682870161266e565b9150509250925092565b600060ff82169050919050565b6127e6816127d0565b81146127f157600080fd5b50565b600081519050612803816127dd565b92915050565b600080604083850312156128205761281f611e35565b5b600061282e858286016127f4565b925050602083015167ffffffffffffffff81111561284f5761284e611e3a565b5b61285b85828601612640565b9150509250929050565b6000806040838503121561287c5761287b611e35565b5b600061288a85828601612768565b925050602083015167ffffffffffffffff8111156128ab576128aa611e3a565b5b6128b785828601612640565b9150509250929050565b6128ca816127d0565b82525050565b600082825260208201905092915050565b60006128ec826124ed565b6128f681856128d0565b9350612906818560208601612509565b61290f816121b6565b840191505092915050565b600060a08201905061292f6000830188612182565b61293c60208301876128c1565b6129496040830186612361565b818103606083015261295b81856128e1565b9050818103608083015261296f81846128e1565b90509695505050505050565b60006129868261210c565b91506129918361210c565b92508282039050818111156129a9576129a861243f565b5b92915050565b600081905092915050565b50565b60006129ca6000836129af565b91506129d5826129ba565b600082019050919050565b60006129eb826129bd565b9150819050919050565b6000604082019050612a0a6000830185612182565b612a176020830184611f9d565b9392505050565b7f4e487b7100000000000000000000000000000000000000000000000000000000600052603260045260246000fd5b7f4e487b7100000000000000000000000000000000000000000000000000000000600052603160045260246000fdfea2646970667358221220754279411b47672d0507c5df27e4769d8b28571bf8d92461efe543559a748d0364736f6c63430008170033","linkReferences":{}},"methodIdentifiers":{"BROADCASTER_ROLE()":"59965226","BROADCAST_STATE_REGISTRY_PROCESSOR_ROLE()":"f4c07132","CORE_STATE_REGISTRY_DISPUTER_ROLE()":"249487f6","CORE_STATE_REGISTRY_PROCESSOR_ROLE()":"a18c39d4","CORE_STATE_REGISTRY_RESCUER_ROLE()":"3a996e95","CORE_STATE_REGISTRY_UPDATER_ROLE()":"62bf6028","DEFAULT_ADMIN_ROLE()":"a217fddf","DST_SWAPPER_ROLE()":"ea2b4afe","EMERGENCY_ADMIN_ROLE()":"6e76fc8f","PAYMENT_ADMIN_ROLE()":"b24b56b0","PROTOCOL_ADMIN_ROLE()":"aee2bc86","SYNC_REVOKE()":"574e4acc","TIMELOCK_STATE_REGISTRY_PROCESSOR_ROLE()":"bf7966cc","WORMHOLE_VAA_RELAYER_ROLE()":"813f56e6","getRoleAdmin(bytes32)":"248a9ca3","getRoleMember(bytes32,uint256)":"9010d07c","getRoleMemberCount(bytes32)":"ca15c873","grantRole(bytes32,address)":"2f2ff15d","hasEmergencyAdminRole(address)":"2f41ca96","hasProtocolAdminRole(address)":"d35911f2","hasRole(bytes32,address)":"91d14854","renounceRole(bytes32,address)":"36568abe","revokeRole(bytes32,address)":"d547741f","revokeRoleSuperBroadcast(bytes32,bytes,bytes32)":"ac2d7930","setRoleAdmin(bytes32,bytes32)":"1e4e0091","setSuperRegistry(address)":"4e88aeb5","stateSyncBroadcast(bytes)":"e6ddad4c","superRegistry()":"24c73dda","supportsInterface(bytes4)":"01ffc9a7","xChainPayloadCounter()":"edf387c5"},"id":172}