{"abi":[{"type":"constructor","inputs":[{"name":"superRegistry_","type":"address","internalType":"contract ISuperRegistry"}],"stateMutability":"nonpayable"},{"type":"function","name":"ambChainId","inputs":[{"name":"","type":"uint64","internalType":"uint64"}],"outputs":[{"name":"","type":"string","internalType":"string"}],"stateMutability":"view"},{"type":"function","name":"ambProtect","inputs":[{"name":"","type":"bytes32","internalType":"bytes32"}],"outputs":[{"name":"","type":"bool","internalType":"bool"}],"stateMutability":"view"},{"type":"function","name":"authorizedImpl","inputs":[{"name":"","type":"string","internalType":"string"}],"outputs":[{"name":"","type":"address","internalType":"address"}],"stateMutability":"view"},{"type":"function","name":"dispatchPayload","inputs":[{"name":"srcSender_","type":"address","internalType":"address"},{"name":"dstChainId_","type":"uint64","internalType":"uint64"},{"name":"message_","type":"bytes","internalType":"bytes"},{"name":"","type":"bytes","internalType":"bytes"}],"outputs":[],"stateMutability":"payable"},{"type":"function","name":"estimateFees","inputs":[{"name":"dstChainId_","type":"uint64","internalType":"uint64"},{"name":"message_","type":"bytes","internalType":"bytes"},{"name":"extraData_","type":"bytes","internalType":"bytes"}],"outputs":[{"name":"fees","type":"uint256","internalType":"uint256"}],"stateMutability":"view"},{"type":"function","name":"execute","inputs":[{"name":"commandId","type":"bytes32","internalType":"bytes32"},{"name":"sourceChain","type":"string","internalType":"string"},{"name":"sourceAddress","type":"string","internalType":"string"},{"name":"payload","type":"bytes","internalType":"bytes"}],"outputs":[],"stateMutability":"nonpayable"},{"type":"function","name":"gasEstimator","inputs":[],"outputs":[{"name":"","type":"address","internalType":"contract IInterchainGasEstimation"}],"stateMutability":"view"},{"type":"function","name":"gasService","inputs":[],"outputs":[{"name":"","type":"address","internalType":"contract IAxelarGasService"}],"stateMutability":"view"},{"type":"function","name":"gateway","inputs":[],"outputs":[{"name":"","type":"address","internalType":"contract IAxelarGateway"}],"stateMutability":"view"},{"type":"function","name":"generateExtraData","inputs":[{"name":"gasLimit","type":"uint256","internalType":"uint256"}],"outputs":[{"name":"extraData","type":"bytes","internalType":"bytes"}],"stateMutability":"pure"},{"type":"function","name":"processedMessages","inputs":[{"name":"","type":"bytes32","internalType":"bytes32"}],"outputs":[{"name":"","type":"bool","internalType":"bool"}],"stateMutability":"view"},{"type":"function","name":"retryPayload","inputs":[{"name":"data_","type":"bytes","internalType":"bytes"}],"outputs":[],"stateMutability":"payable"},{"type":"function","name":"setAxelarConfig","inputs":[{"name":"gateway_","type":"address","internalType":"contract IAxelarGateway"}],"outputs":[],"stateMutability":"nonpayable"},{"type":"function","name":"setAxelarGasService","inputs":[{"name":"gasService_","type":"address","internalType":"contract IAxelarGasService"},{"name":"gasEstimator_","type":"address","internalType":"contract IInterchainGasEstimation"}],"outputs":[],"stateMutability":"nonpayable"},{"type":"function","name":"setChainId","inputs":[{"name":"superChainId_","type":"uint64","internalType":"uint64"},{"name":"ambChainId_","type":"string","internalType":"string"}],"outputs":[],"stateMutability":"nonpayable"},{"type":"function","name":"setReceiver","inputs":[{"name":"ambChainId_","type":"string","internalType":"string"},{"name":"authorizedImpl_","type":"address","internalType":"address"}],"outputs":[],"stateMutability":"nonpayable"},{"type":"function","name":"superChainId","inputs":[{"name":"","type":"string","internalType":"string"}],"outputs":[{"name":"","type":"uint64","internalType":"uint64"}],"stateMutability":"view"},{"type":"function","name":"superRegistry","inputs":[],"outputs":[{"name":"","type":"address","internalType":"contract ISuperRegistry"}],"stateMutability":"view"},{"type":"event","name":"AuthorizedImplAdded","inputs":[{"name":"superChainId","type":"uint64","indexed":true,"internalType":"uint64"},{"name":"authImpl","type":"address","indexed":true,"internalType":"address"}],"anonymous":false},{"type":"event","name":"ChainAdded","inputs":[{"name":"superChainId","type":"uint64","indexed":true,"internalType":"uint64"}],"anonymous":false},{"type":"event","name":"GasEstimatorAdded","inputs":[{"name":"_newGasEstimator","type":"address","indexed":true,"internalType":"address"}],"anonymous":false},{"type":"event","name":"GasServiceAdded","inputs":[{"name":"_newGasService","type":"address","indexed":true,"internalType":"address"}],"anonymous":false},{"type":"event","name":"GatewayAdded","inputs":[{"name":"_newGateway","type":"address","indexed":true,"internalType":"address"}],"anonymous":false},{"type":"error","name":"DUPLICATE_PAYLOAD","inputs":[]},{"type":"error","name":"GATEWAY_EXISTS","inputs":[]},{"type":"error","name":"INVALID_CHAIN_ID","inputs":[]},{"type":"error","name":"INVALID_CONTRACT_CALL","inputs":[]},{"type":"error","name":"INVALID_SRC_SENDER","inputs":[]},{"type":"error","name":"InvalidAddress","inputs":[]},{"type":"error","name":"MALICIOUS_DELIVERY","inputs":[]},{"type":"error","name":"NOT_PROTOCOL_ADMIN","inputs":[]},{"type":"error","name":"NOT_STATE_REGISTRY","inputs":[]},{"type":"error","name":"NotApprovedByGateway","inputs":[]},{"type":"error","name":"ZERO_ADDRESS","inputs":[]}],"bytecode":{"object":"0x60a06040523480156200001157600080fd5b5060405162003aa238038062003aa28339818101604052810190620000379190620000f0565b8073ffffffffffffffffffffffffffffffffffffffff1660808173ffffffffffffffffffffffffffffffffffffffff16815250505062000122565b600080fd5b600073ffffffffffffffffffffffffffffffffffffffff82169050919050565b6000620000a48262000077565b9050919050565b6000620000b88262000097565b9050919050565b620000ca81620000ab565b8114620000d657600080fd5b50565b600081519050620000ea81620000bf565b92915050565b60006020828403121562000109576200010862000072565b5b60006200011984828501620000d9565b91505092915050565b60805161393a620001686000396000818161050c0152818161090801528181610be301528181610ef301528181611092015281816114b90152611806015261393a6000f3fe6080604052600436106101095760003560e01c80634f670759116100955780639eaee149116100645780639eaee1491461035f578063b394e5c314610388578063d94c39b0146103c5578063ea98b147146103f0578063f186b5031461042d57610109565b80634f670759146102b25780636a22d8cc146102db57806388ba16ab146103065780639783d0ef1461034357610109565b806324009005116100dc57806324009005146101bb57806324c73dda146101e457806325fc6dd01461020f578063448e085f1461024c578063491606581461028957610109565b806309bec2c11461010e5780630b5bd5fa1461014b5780630fbb7cbc14610174578063116191b614610190575b600080fd5b34801561011a57600080fd5b50610135600480360381019061013091906121f2565b61046a565b60405161014291906122af565b60405180910390f35b34801561015757600080fd5b50610172600480360381019061016d9190612464565b61050a565b005b61018e60048036038101906101899190612561565b610830565b005b34801561019c57600080fd5b506101a56108e2565b6040516101b29190612609565b60405180910390f35b3480156101c757600080fd5b506101e260048036038101906101dd9190612662565b610906565b005b3480156101f057600080fd5b506101f9610be1565b60405161020691906126b0565b60405180910390f35b34801561021b57600080fd5b5061023660048036038101906102319190612701565b610c05565b6040516102439190612783565b60405180910390f35b34801561025857600080fd5b50610273600480360381019061026e91906127a5565b610c2e565b60405161028091906127fd565b60405180910390f35b34801561029557600080fd5b506102b060048036038101906102ab9190612904565b610c6b565b005b3480156102be57600080fd5b506102d960048036038101906102d491906129cd565b611090565b005b3480156102e757600080fd5b506102f0611471565b6040516102fd9190612a4a565b60405180910390f35b34801561031257600080fd5b5061032d60048036038101906103289190612a65565b611497565b60405161033a9190612aad565b60405180910390f35b61035d60048036038101906103589190612ac8565b6114b7565b005b34801561036b57600080fd5b5061038660048036038101906103819190612be3565b611804565b005b34801561039457600080fd5b506103af60048036038101906103aa9190612a65565b611b17565b6040516103bc9190612aad565b60405180910390f35b3480156103d157600080fd5b506103da611b37565b6040516103e79190612c44565b60405180910390f35b3480156103fc57600080fd5b5061041760048036038101906104129190612c5f565b611b5d565b6040516104249190612cf9565b60405180910390f35b34801561043957600080fd5b50610454600480360381019061044f91906127a5565b611c7b565b6040516104619190612d23565b60405180910390f35b6003602052806000526040600020600091509050805461048990612d6d565b80601f01602080910402602001604051908101604052809291908181526020018280546104b590612d6d565b80156105025780601f106104d757610100808354040283529160200191610502565b820191906000526020600020905b8154815290600101906020018083116104e557829003601f168201915b505050505081565b7f000000000000000000000000000000000000000000000000000000000000000073ffffffffffffffffffffffffffffffffffffffff166321f8a7217f6b50fa17b77d24e42e27a04b69fe50cd6967cfb767d18de0bd5fe7e1a32aa8686040518263ffffffff1660e01b81526004016105839190612dad565b602060405180830381865afa1580156105a0573d6000803e3d6000fd5b505050506040513d601f19601f820116820180604052508101906105c49190612ddd565b73ffffffffffffffffffffffffffffffffffffffff1663d35911f2336040518263ffffffff1660e01b81526004016105fc9190612d23565b602060405180830381865afa158015610619573d6000803e3d6000fd5b505050506040513d601f19601f8201168201806040525081019061063d9190612e36565b610673576040517fdc85555400000000000000000000000000000000000000000000000000000000815260040160405180910390fd5b60006004836040516106859190612e9f565b908152602001604051809103902060009054906101000a900467ffffffffffffffff1667ffffffffffffffff16036106e9576040517f030042b700000000000000000000000000000000000000000000000000000000815260040160405180910390fd5b600073ffffffffffffffffffffffffffffffffffffffff168173ffffffffffffffffffffffffffffffffffffffff160361074f576040517f538ba4f900000000000000000000000000000000000000000000000000000000815260040160405180910390fd5b806005836040516107609190612e9f565b908152602001604051809103902060006101000a81548173ffffffffffffffffffffffffffffffffffffffff021916908373ffffffffffffffffffffffffffffffffffffffff1602179055508073ffffffffffffffffffffffffffffffffffffffff166004836040516107d39190612e9f565b908152602001604051809103902060009054906101000a900467ffffffffffffffff1667ffffffffffffffff167f11638aacb08f0e5f6147baa54ac1e71c77eff335bc6e6afa8a20f53a80693e5260405160405180910390a35050565b600080828060200190518101906108479190612ee0565b91509150600160009054906101000a900473ffffffffffffffffffffffffffffffffffffffff1673ffffffffffffffffffffffffffffffffffffffff1663cd433ada348484336040518563ffffffff1660e01b81526004016108ab93929190612f20565b6000604051808303818588803b1580156108c457600080fd5b505af11580156108d8573d6000803e3d6000fd5b5050505050505050565b60008054906101000a900473ffffffffffffffffffffffffffffffffffffffff1681565b7f000000000000000000000000000000000000000000000000000000000000000073ffffffffffffffffffffffffffffffffffffffff166321f8a7217f6b50fa17b77d24e42e27a04b69fe50cd6967cfb767d18de0bd5fe7e1a32aa8686040518263ffffffff1660e01b815260040161097f9190612dad565b602060405180830381865afa15801561099c573d6000803e3d6000fd5b505050506040513d601f19601f820116820180604052508101906109c09190612ddd565b73ffffffffffffffffffffffffffffffffffffffff1663d35911f2336040518263ffffffff1660e01b81526004016109f89190612d23565b602060405180830381865afa158015610a15573d6000803e3d6000fd5b505050506040513d601f19601f82011682018060405250810190610a399190612e36565b610a6f576040517fdc85555400000000000000000000000000000000000000000000000000000000815260040160405180910390fd5b600073ffffffffffffffffffffffffffffffffffffffff168173ffffffffffffffffffffffffffffffffffffffff1603610ad5576040517f538ba4f900000000000000000000000000000000000000000000000000000000815260040160405180910390fd5b600073ffffffffffffffffffffffffffffffffffffffff1660008054906101000a900473ffffffffffffffffffffffffffffffffffffffff1673ffffffffffffffffffffffffffffffffffffffff1614610b5b576040517fd8ef35e100000000000000000000000000000000000000000000000000000000815260040160405180910390fd5b806000806101000a81548173ffffffffffffffffffffffffffffffffffffffff021916908373ffffffffffffffffffffffffffffffffffffffff1602179055508073ffffffffffffffffffffffffffffffffffffffff167f7137528d21fb7b0b9462886348954009edac49570e27ef9dba8bb3a676fc11e260405160405180910390a250565b7f000000000000000000000000000000000000000000000000000000000000000081565b606081604051602001610c189190612cf9565b6040516020818303038152906040529050919050565b6004818051602081018201805184825260208301602085012081835280955050505050506000915054906101000a900467ffffffffffffffff1681565b610cca60058787604051610c80929190612f7c565b908152602001604051809103902060009054906101000a900473ffffffffffffffffffffffffffffffffffffffff1673ffffffffffffffffffffffffffffffffffffffff16611cc4565b805190602001208484604051610ce1929190612fc5565b604051809103902014610d20576040517f1d527bfc00000000000000000000000000000000000000000000000000000000815260040160405180910390fd5b60008054906101000a900473ffffffffffffffffffffffffffffffffffffffff1673ffffffffffffffffffffffffffffffffffffffff16635f6970c388888888888888604051610d71929190612fc5565b60405180910390206040518763ffffffff1660e01b8152600401610d9a9695949392919061300b565b6020604051808303816000875af1158015610db9573d6000803e3d6000fd5b505050506040513d601f19601f82011682018060405250810190610ddd9190612e36565b610e13576040517f8fedefa300000000000000000000000000000000000000000000000000000000815260040160405180910390fd5b6000878383604051602001610e2a9392919061308f565b6040516020818303038152906040528051906020012090506006600082815260200190815260200160002060009054906101000a900460ff1615610e9a576040517f86041c9d00000000000000000000000000000000000000000000000000000000815260040160405180910390fd5b60016006600083815260200190815260200160002060006101000a81548160ff02191690831515021790555060008383810190610ed79190613137565b90506000610ee88260000151611fe1565b5050935050505060007f000000000000000000000000000000000000000000000000000000000000000073ffffffffffffffffffffffffffffffffffffffff166357203ab4836040518263ffffffff1660e01b8152600401610f4a919061319c565b602060405180830381865afa158015610f67573d6000803e3d6000fd5b505050506040513d601f19601f82011682018060405250810190610f8b9190612ddd565b9050600060048b8b604051610fa1929190612f7c565b908152602001604051809103902060009054906101000a900467ffffffffffffffff16905060008167ffffffffffffffff160361100a576040517f030042b700000000000000000000000000000000000000000000000000000000815260040160405180910390fd5b61101384612019565b8173ffffffffffffffffffffffffffffffffffffffff1663cc2d8abd8289896040518463ffffffff1660e01b8152600401611050939291906131b7565b600060405180830381600087803b15801561106a57600080fd5b505af115801561107e573d6000803e3d6000fd5b50505050505050505050505050505050565b7f000000000000000000000000000000000000000000000000000000000000000073ffffffffffffffffffffffffffffffffffffffff166321f8a7217f6b50fa17b77d24e42e27a04b69fe50cd6967cfb767d18de0bd5fe7e1a32aa8686040518263ffffffff1660e01b81526004016111099190612dad565b602060405180830381865afa158015611126573d6000803e3d6000fd5b505050506040513d601f19601f8201168201806040525081019061114a9190612ddd565b73ffffffffffffffffffffffffffffffffffffffff1663d35911f2336040518263ffffffff1660e01b81526004016111829190612d23565b602060405180830381865afa15801561119f573d6000803e3d6000fd5b505050506040513d601f19601f820116820180604052508101906111c39190612e36565b6111f9576040517fdc85555400000000000000000000000000000000000000000000000000000000815260040160405180910390fd5b60008267ffffffffffffffff161480611213575060008151145b1561124a576040517f030042b700000000000000000000000000000000000000000000000000000000815260040160405180910390fd5b600060048260405161125c9190612e9f565b908152602001604051809103902060009054906101000a900467ffffffffffffffff1690506000600360008567ffffffffffffffff1667ffffffffffffffff16815260200190815260200160002080546112b590612d6d565b80601f01602080910402602001604051908101604052809291908181526020018280546112e190612d6d565b801561132e5780601f106113035761010080835404028352916020019161132e565b820191906000526020600020905b81548152906001019060200180831161131157829003601f168201915b5050505050905060008267ffffffffffffffff161461137b57600360008367ffffffffffffffff1667ffffffffffffffff168152602001908152602001600020600061137a9190612141565b5b60008151146113ba576004816040516113949190612e9f565b908152602001604051809103902060006101000a81549067ffffffffffffffff02191690555b82600360008667ffffffffffffffff1667ffffffffffffffff16815260200190815260200160002090816113ee919061338b565b50836004846040516114009190612e9f565b908152602001604051809103902060006101000a81548167ffffffffffffffff021916908367ffffffffffffffff1602179055508367ffffffffffffffff167ff9506a27dd49e1563cbf7882f3e8dfb3c25fa4a4d610e8f4b0a30a145b4f685e60405160405180910390a250505050565b600160009054906101000a900473ffffffffffffffffffffffffffffffffffffffff1681565b60066020528060005260406000206000915054906101000a900460ff1681565b7f000000000000000000000000000000000000000000000000000000000000000073ffffffffffffffffffffffffffffffffffffffff1663eeaf54aa336040518263ffffffff1660e01b81526004016115109190612d23565b602060405180830381865afa15801561152d573d6000803e3d6000fd5b505050506040513d601f19601f820116820180604052508101906115519190612e36565b611587576040517f60e6a64e00000000000000000000000000000000000000000000000000000000815260040160405180910390fd5b6000600360008567ffffffffffffffff1667ffffffffffffffff16815260200190815260200160002080546115bb90612d6d565b80601f01602080910402602001604051908101604052809291908181526020018280546115e790612d6d565b80156116345780601f1061160957610100808354040283529160200191611634565b820191906000526020600020905b81548152906001019060200180831161161757829003601f168201915b50505050509050600061169a6005836040516116509190612e9f565b908152602001604051809103902060009054906101000a900473ffffffffffffffffffffffffffffffffffffffff1673ffffffffffffffffffffffffffffffffffffffff16611cc4565b905060008251036116d7576040517f030042b700000000000000000000000000000000000000000000000000000000815260040160405180910390fd5b60008054906101000a900473ffffffffffffffffffffffffffffffffffffffff1673ffffffffffffffffffffffffffffffffffffffff16631c92115f8383876040518463ffffffff1660e01b81526004016117349392919061345d565b600060405180830381600087803b15801561174e57600080fd5b505af1158015611762573d6000803e3d6000fd5b50505050600160009054906101000a900473ffffffffffffffffffffffffffffffffffffffff1673ffffffffffffffffffffffffffffffffffffffff16630c93e3bb34338585898c6040518763ffffffff1660e01b81526004016117ca9594939291906134a9565b6000604051808303818588803b1580156117e357600080fd5b505af11580156117f7573d6000803e3d6000fd5b5050505050505050505050565b7f000000000000000000000000000000000000000000000000000000000000000073ffffffffffffffffffffffffffffffffffffffff166321f8a7217f6b50fa17b77d24e42e27a04b69fe50cd6967cfb767d18de0bd5fe7e1a32aa8686040518263ffffffff1660e01b815260040161187d9190612dad565b602060405180830381865afa15801561189a573d6000803e3d6000fd5b505050506040513d601f19601f820116820180604052508101906118be9190612ddd565b73ffffffffffffffffffffffffffffffffffffffff1663d35911f2336040518263ffffffff1660e01b81526004016118f69190612d23565b602060405180830381865afa158015611913573d6000803e3d6000fd5b505050506040513d601f19601f820116820180604052508101906119379190612e36565b61196d576040517fdc85555400000000000000000000000000000000000000000000000000000000815260040160405180910390fd5b600073ffffffffffffffffffffffffffffffffffffffff168273ffffffffffffffffffffffffffffffffffffffff1614806119d45750600073ffffffffffffffffffffffffffffffffffffffff168173ffffffffffffffffffffffffffffffffffffffff16145b15611a0b576040517f538ba4f900000000000000000000000000000000000000000000000000000000815260040160405180910390fd5b81600160006101000a81548173ffffffffffffffffffffffffffffffffffffffff021916908373ffffffffffffffffffffffffffffffffffffffff16021790555080600260006101000a81548173ffffffffffffffffffffffffffffffffffffffff021916908373ffffffffffffffffffffffffffffffffffffffff1602179055508173ffffffffffffffffffffffffffffffffffffffff167f53df2399ca7351b7f1bf1770fc7cc15fc42d3dc46e7d96bdce0793f6bc04361b60405160405180910390a28073ffffffffffffffffffffffffffffffffffffffff167ffbcd4ae9576895d9a319f2910dd48190c523be4b751a89ea7ed63fcdc83cf3d460405160405180910390a25050565b60076020528060005260406000206000915054906101000a900460ff1681565b600260009054906101000a900473ffffffffffffffffffffffffffffffffffffffff1681565b600080600360008667ffffffffffffffff1667ffffffffffffffff1681526020019081526020016000208054611b9290612d6d565b80601f0160208091040260200160405190810160405280929190818152602001828054611bbe90612d6d565b8015611c0b5780601f10611be057610100808354040283529160200191611c0b565b820191906000526020600020905b815481529060010190602001808311611bee57829003601f168201915b505050505090506040518060200160405280600081525080519060200120818051906020012003611c68576040517f030042b700000000000000000000000000000000000000000000000000000000815260040160405180910390fd5b67016345785d8a00009150509392505050565b6005818051602081018201805184825260208301602085012081835280955050505050506000915054906101000a900473ffffffffffffffffffffffffffffffffffffffff1681565b6060600082604051602001611cd99190613559565b604051602081830303815290604052905060008151905060006040518060400160405280601081526020017f30313233343536373839616263646566000000000000000000000000000000008152509050600060028451611d3a91906135a3565b6002611d4691906135e5565b67ffffffffffffffff811115611d5f57611d5e6122db565b5b6040519080825280601f01601f191660200182016040528015611d915781602001600182028036833780820191505090505b5090507f300000000000000000000000000000000000000000000000000000000000000081600081518110611dc957611dc8613619565b5b60200101907effffffffffffffffffffffffffffffffffffffffffffffffffffffffffffff1916908160001a9053507f780000000000000000000000000000000000000000000000000000000000000081600181518110611e2d57611e2c613619565b5b60200101907effffffffffffffffffffffffffffffffffffffffffffffffffffffffffffff1916908160001a90535060005b83811015611fd457826004868381518110611e7d57611e7c613619565b5b602001015160f81c60f81b7effffffffffffffffffffffffffffffffffffffffffffffffffffffffffffff1916901c60f81c60ff1681518110611ec357611ec2613619565b5b602001015160f81c60f81b82600283611edc91906135a3565b6002611ee891906135e5565b81518110611ef957611ef8613619565b5b60200101907effffffffffffffffffffffffffffffffffffffffffffffffffffffffffffff1916908160001a90535082600f60f81b868381518110611f4157611f40613619565b5b602001015160f81c60f81b1660f81c60ff1681518110611f6457611f63613619565b5b602001015160f81c60f81b82600283611f7d91906135a3565b6003611f8991906135e5565b81518110611f9a57611f99613619565b5b60200101907effffffffffffffffffffffffffffffffffffffffffffffffffffffffffffff1916908160001a905350806001019050611e5f565b5080945050505050919050565b600080600080600080869550600887901c9450601087901c9350601887901c9250602087901c915060c087901c905091939550919395565b600060208260200151511461206e576000826020015180602001905181019061204291906137a7565b91505061206660405180604001604052808560000151815260200183815250612111565b915050612089565b8160200151806020019051810190612086919061381f565b90505b6007600082815260200190815260200160002060009054906101000a900460ff16156120e1576040517f2c962d2b00000000000000000000000000000000000000000000000000000000815260040160405180910390fd5b60016007600083815260200190815260200160002060006101000a81548160ff0219169083151502179055505050565b60008160405160200161212491906138e2565b604051602081830303815290604052805190602001209050919050565b50805461214d90612d6d565b6000825580601f1061215f575061217e565b601f01602090049060005260206000209081019061217d9190612181565b5b50565b5b8082111561219a576000816000905550600101612182565b5090565b6000604051905090565b600080fd5b600080fd5b600067ffffffffffffffff82169050919050565b6121cf816121b2565b81146121da57600080fd5b50565b6000813590506121ec816121c6565b92915050565b600060208284031215612208576122076121a8565b5b6000612216848285016121dd565b91505092915050565b600081519050919050565b600082825260208201905092915050565b60005b8381101561225957808201518184015260208101905061223e565b60008484015250505050565b6000601f19601f8301169050919050565b60006122818261221f565b61228b818561222a565b935061229b81856020860161223b565b6122a481612265565b840191505092915050565b600060208201905081810360008301526122c98184612276565b905092915050565b600080fd5b600080fd5b7f4e487b7100000000000000000000000000000000000000000000000000000000600052604160045260246000fd5b61231382612265565b810181811067ffffffffffffffff82111715612332576123316122db565b5b80604052505050565b600061234561219e565b9050612351828261230a565b919050565b600067ffffffffffffffff821115612371576123706122db565b5b61237a82612265565b9050602081019050919050565b82818337600083830152505050565b60006123a96123a484612356565b61233b565b9050828152602081018484840111156123c5576123c46122d6565b5b6123d0848285612387565b509392505050565b600082601f8301126123ed576123ec6122d1565b5b81356123fd848260208601612396565b91505092915050565b600073ffffffffffffffffffffffffffffffffffffffff82169050919050565b600061243182612406565b9050919050565b61244181612426565b811461244c57600080fd5b50565b60008135905061245e81612438565b92915050565b6000806040838503121561247b5761247a6121a8565b5b600083013567ffffffffffffffff811115612499576124986121ad565b5b6124a5858286016123d8565b92505060206124b68582860161244f565b9150509250929050565b600067ffffffffffffffff8211156124db576124da6122db565b5b6124e482612265565b9050602081019050919050565b60006125046124ff846124c0565b61233b565b9050828152602081018484840111156125205761251f6122d6565b5b61252b848285612387565b509392505050565b600082601f830112612548576125476122d1565b5b81356125588482602086016124f1565b91505092915050565b600060208284031215612577576125766121a8565b5b600082013567ffffffffffffffff811115612595576125946121ad565b5b6125a184828501612533565b91505092915050565b6000819050919050565b60006125cf6125ca6125c584612406565b6125aa565b612406565b9050919050565b60006125e1826125b4565b9050919050565b60006125f3826125d6565b9050919050565b612603816125e8565b82525050565b600060208201905061261e60008301846125fa565b92915050565b600061262f82612426565b9050919050565b61263f81612624565b811461264a57600080fd5b50565b60008135905061265c81612636565b92915050565b600060208284031215612678576126776121a8565b5b60006126868482850161264d565b91505092915050565b600061269a826125d6565b9050919050565b6126aa8161268f565b82525050565b60006020820190506126c560008301846126a1565b92915050565b6000819050919050565b6126de816126cb565b81146126e957600080fd5b50565b6000813590506126fb816126d5565b92915050565b600060208284031215612717576127166121a8565b5b6000612725848285016126ec565b91505092915050565b600081519050919050565b600082825260208201905092915050565b60006127558261272e565b61275f8185612739565b935061276f81856020860161223b565b61277881612265565b840191505092915050565b6000602082019050818103600083015261279d818461274a565b905092915050565b6000602082840312156127bb576127ba6121a8565b5b600082013567ffffffffffffffff8111156127d9576127d86121ad565b5b6127e5848285016123d8565b91505092915050565b6127f7816121b2565b82525050565b600060208201905061281260008301846127ee565b92915050565b6000819050919050565b61282b81612818565b811461283657600080fd5b50565b60008135905061284881612822565b92915050565b600080fd5b600080fd5b60008083601f84011261286e5761286d6122d1565b5b8235905067ffffffffffffffff81111561288b5761288a61284e565b5b6020830191508360018202830111156128a7576128a6612853565b5b9250929050565b60008083601f8401126128c4576128c36122d1565b5b8235905067ffffffffffffffff8111156128e1576128e061284e565b5b6020830191508360018202830111156128fd576128fc612853565b5b9250929050565b60008060008060008060006080888a031215612923576129226121a8565b5b60006129318a828b01612839565b975050602088013567ffffffffffffffff811115612952576129516121ad565b5b61295e8a828b01612858565b9650965050604088013567ffffffffffffffff811115612981576129806121ad565b5b61298d8a828b01612858565b9450945050606088013567ffffffffffffffff8111156129b0576129af6121ad565b5b6129bc8a828b016128ae565b925092505092959891949750929550565b600080604083850312156129e4576129e36121a8565b5b60006129f2858286016121dd565b925050602083013567ffffffffffffffff811115612a1357612a126121ad565b5b612a1f858286016123d8565b9150509250929050565b6000612a34826125d6565b9050919050565b612a4481612a29565b82525050565b6000602082019050612a5f6000830184612a3b565b92915050565b600060208284031215612a7b57612a7a6121a8565b5b6000612a8984828501612839565b91505092915050565b60008115159050919050565b612aa781612a92565b82525050565b6000602082019050612ac26000830184612a9e565b92915050565b60008060008060808587031215612ae257612ae16121a8565b5b6000612af08782880161244f565b9450506020612b01878288016121dd565b935050604085013567ffffffffffffffff811115612b2257612b216121ad565b5b612b2e87828801612533565b925050606085013567ffffffffffffffff811115612b4f57612b4e6121ad565b5b612b5b87828801612533565b91505092959194509250565b6000612b7282612426565b9050919050565b612b8281612b67565b8114612b8d57600080fd5b50565b600081359050612b9f81612b79565b92915050565b6000612bb082612426565b9050919050565b612bc081612ba5565b8114612bcb57600080fd5b50565b600081359050612bdd81612bb7565b92915050565b60008060408385031215612bfa57612bf96121a8565b5b6000612c0885828601612b90565b9250506020612c1985828601612bce565b9150509250929050565b6000612c2e826125d6565b9050919050565b612c3e81612c23565b82525050565b6000602082019050612c596000830184612c35565b92915050565b600080600060608486031215612c7857612c776121a8565b5b6000612c86868287016121dd565b935050602084013567ffffffffffffffff811115612ca757612ca66121ad565b5b612cb386828701612533565b925050604084013567ffffffffffffffff811115612cd457612cd36121ad565b5b612ce086828701612533565b9150509250925092565b612cf3816126cb565b82525050565b6000602082019050612d0e6000830184612cea565b92915050565b612d1d81612426565b82525050565b6000602082019050612d386000830184612d14565b92915050565b7f4e487b7100000000000000000000000000000000000000000000000000000000600052602260045260246000fd5b60006002820490506001821680612d8557607f821691505b602082108103612d9857612d97612d3e565b5b50919050565b612da781612818565b82525050565b6000602082019050612dc26000830184612d9e565b92915050565b600081519050612dd781612438565b92915050565b600060208284031215612df357612df26121a8565b5b6000612e0184828501612dc8565b91505092915050565b612e1381612a92565b8114612e1e57600080fd5b50565b600081519050612e3081612e0a565b92915050565b600060208284031215612e4c57612e4b6121a8565b5b6000612e5a84828501612e21565b91505092915050565b600081905092915050565b6000612e798261221f565b612e838185612e63565b9350612e9381856020860161223b565b80840191505092915050565b6000612eab8284612e6e565b915081905092915050565b600081519050612ec581612822565b92915050565b600081519050612eda816126d5565b92915050565b60008060408385031215612ef757612ef66121a8565b5b6000612f0585828601612eb6565b9250506020612f1685828601612ecb565b9150509250929050565b6000606082019050612f356000830186612d9e565b612f426020830185612cea565b612f4f6040830184612d14565b949350505050565b6000612f638385612e63565b9350612f70838584612387565b82840190509392505050565b6000612f89828486612f57565b91508190509392505050565b600081905092915050565b6000612fac8385612f95565b9350612fb9838584612387565b82840190509392505050565b6000612fd2828486612fa0565b91508190509392505050565b6000612fea838561222a565b9350612ff7838584612387565b61300083612265565b840190509392505050565b60006080820190506130206000830189612d9e565b8181036020830152613033818789612fde565b90508181036040830152613048818587612fde565b90506130576060830184612d9e565b979650505050505050565b600061306e8385612739565b935061307b838584612387565b61308483612265565b840190509392505050565b60006040820190506130a46000830186612d9e565b81810360208301526130b7818486613062565b9050949350505050565b600080fd5b600080fd5b6000604082840312156130e1576130e06130c1565b5b6130eb604061233b565b905060006130fb848285016126ec565b600083015250602082013567ffffffffffffffff81111561311f5761311e6130c6565b5b61312b84828501612533565b60208301525092915050565b60006020828403121561314d5761314c6121a8565b5b600082013567ffffffffffffffff81111561316b5761316a6121ad565b5b613177848285016130cb565b91505092915050565b600060ff82169050919050565b61319681613180565b82525050565b60006020820190506131b1600083018461318d565b92915050565b60006040820190506131cc60008301866127ee565b81810360208301526131df818486613062565b9050949350505050565b60008190508160005260206000209050919050565b60006020601f8301049050919050565b600082821b905092915050565b60006008830261324b7fffffffffffffffffffffffffffffffffffffffffffffffffffffffffffffffff8261320e565b613255868361320e565b95508019841693508086168417925050509392505050565b600061328861328361327e846126cb565b6125aa565b6126cb565b9050919050565b6000819050919050565b6132a28361326d565b6132b66132ae8261328f565b84845461321b565b825550505050565b600090565b6132cb6132be565b6132d6818484613299565b505050565b5b818110156132fa576132ef6000826132c3565b6001810190506132dc565b5050565b601f82111561333f57613310816131e9565b613319846131fe565b81016020851015613328578190505b61333c613334856131fe565b8301826132db565b50505b505050565b600082821c905092915050565b600061336260001984600802613344565b1980831691505092915050565b600061337b8383613351565b9150826002028217905092915050565b6133948261221f565b67ffffffffffffffff8111156133ad576133ac6122db565b5b6133b78254612d6d565b6133c28282856132fe565b600060209050601f8311600181146133f557600084156133e3578287015190505b6133ed858261336f565b865550613455565b601f198416613403866131e9565b60005b8281101561342b57848901518255600182019150602085019450602081019050613406565b868310156134485784890151613444601f891682613351565b8355505b6001600288020188555050505b505050505050565b600060608201905081810360008301526134778186612276565b9050818103602083015261348b8185612276565b9050818103604083015261349f818461274a565b9050949350505050565b600060a0820190506134be6000830188612d14565b81810360208301526134d08187612276565b905081810360408301526134e48186612276565b905081810360608301526134f8818561274a565b90506135076080830184612d14565b9695505050505050565b60008160601b9050919050565b600061352982613511565b9050919050565b600061353b8261351e565b9050919050565b61355361354e82612426565b613530565b82525050565b60006135658284613542565b60148201915081905092915050565b7f4e487b7100000000000000000000000000000000000000000000000000000000600052601160045260246000fd5b60006135ae826126cb565b91506135b9836126cb565b92508282026135c7816126cb565b915082820484148315176135de576135dd613574565b5b5092915050565b60006135f0826126cb565b91506135fb836126cb565b925082820190508082111561361357613612613574565b5b92915050565b7f4e487b7100000000000000000000000000000000000000000000000000000000600052603260045260246000fd5b600067ffffffffffffffff821115613663576136626122db565b5b602082029050602081019050919050565b61367d81613180565b811461368857600080fd5b50565b60008151905061369a81613674565b92915050565b60006136b36136ae84613648565b61233b565b905080838252602082019050602084028301858111156136d6576136d5612853565b5b835b818110156136ff57806136eb888261368b565b8452602084019350506020810190506136d8565b5050509392505050565b600082601f83011261371e5761371d6122d1565b5b815161372e8482602086016136a0565b91505092915050565b600061374a613745846124c0565b61233b565b905082815260208101848484011115613766576137656122d6565b5b61377184828561223b565b509392505050565b600082601f83011261378e5761378d6122d1565b5b815161379e848260208601613737565b91505092915050565b600080604083850312156137be576137bd6121a8565b5b600083015167ffffffffffffffff8111156137dc576137db6121ad565b5b6137e885828601613709565b925050602083015167ffffffffffffffff811115613809576138086121ad565b5b61381585828601613779565b9150509250929050565b600060208284031215613835576138346121a8565b5b600061384384828501612eb6565b91505092915050565b613855816126cb565b82525050565b600082825260208201905092915050565b60006138778261272e565b613881818561385b565b935061389181856020860161223b565b61389a81612265565b840191505092915050565b60006040830160008301516138bd600086018261384c565b50602083015184820360208601526138d5828261386c565b9150508091505092915050565b600060208201905081810360008301526138fc81846138a5565b90509291505056fea2646970667358221220e7939575c572266dd988f7c270fb7707d3ce72d896919a86c2d1c3850d1ffba064736f6c63430008170033","linkReferences":{}},"methodIdentifiers":{"ambChainId(uint64)":"09bec2c1","ambProtect(bytes32)":"b394e5c3","authorizedImpl(string)":"f186b503","dispatchPayload(address,uint64,bytes,bytes)":"9783d0ef","estimateFees(uint64,bytes,bytes)":"ea98b147","execute(bytes32,string,string,bytes)":"49160658","gasEstimator()":"d94c39b0","gasService()":"6a22d8cc","gateway()":"116191b6","generateExtraData(uint256)":"25fc6dd0","processedMessages(bytes32)":"88ba16ab","retryPayload(bytes)":"0fbb7cbc","setAxelarConfig(address)":"24009005","setAxelarGasService(address,address)":"9eaee149","setChainId(uint64,string)":"4f670759","setReceiver(string,address)":"0b5bd5fa","superChainId(string)":"448e085f","superRegistry()":"24c73dda"},"id":93}