{"abi":[{"type":"function","name":"standardizedCall","inputs":[{"name":"callData","type":"bytes","internalType":"bytes"}],"outputs":[],"stateMutability":"payable"}],"bytecode":{"object":"0x608060405234801561001057600080fd5b5061021b806100206000396000f3fe60806040526004361061001e5760003560e01c8063d6a4bc5014610023575b600080fd5b61003d6004803603810190610038919061019c565b61003f565b005b50565b6000604051905090565b600080fd5b600080fd5b600080fd5b600080fd5b6000601f19601f8301169050919050565b7f4e487b7100000000000000000000000000000000000000000000000000000000600052604160045260246000fd5b6100a982610060565b810181811067ffffffffffffffff821117156100c8576100c7610071565b5b80604052505050565b60006100db610042565b90506100e782826100a0565b919050565b600067ffffffffffffffff82111561010757610106610071565b5b61011082610060565b9050602081019050919050565b82818337600083830152505050565b600061013f61013a846100ec565b6100d1565b90508281526020810184848401111561015b5761015a61005b565b5b61016684828561011d565b509392505050565b600082601f83011261018357610182610056565b5b813561019384826020860161012c565b91505092915050565b6000602082840312156101b2576101b161004c565b5b600082013567ffffffffffffffff8111156101d0576101cf610051565b5b6101dc8482850161016e565b9150509291505056fea2646970667358221220a13e26f5f04df3a419b5fbc284edf8d0f615667816c6f1dd4afa7b9b938d36d164736f6c63430008170033","linkReferences":{}},"methodIdentifiers":{"standardizedCall(bytes)":"d6a4bc50"},"id":207}