{"abi":[{"type":"constructor","inputs":[{"name":"asset_","type":"address","internalType":"contract IERC20"},{"name":"name_","type":"string","internalType":"string"},{"name":"symbol_","type":"string","internalType":"string"}],"stateMutability":"nonpayable"},{"type":"function","name":"allowance","inputs":[{"name":"owner","type":"address","internalType":"address"},{"name":"spender","type":"address","internalType":"address"}],"outputs":[{"name":"","type":"uint256","internalType":"uint256"}],"stateMutability":"view"},{"type":"function","name":"approve","inputs":[{"name":"spender","type":"address","internalType":"address"},{"name":"value","type":"uint256","internalType":"uint256"}],"outputs":[{"name":"","type":"bool","internalType":"bool"}],"stateMutability":"nonpayable"},{"type":"function","name":"asset","inputs":[],"outputs":[{"name":"","type":"address","internalType":"address"}],"stateMutability":"view"},{"type":"function","name":"balanceOf","inputs":[{"name":"account","type":"address","internalType":"address"}],"outputs":[{"name":"","type":"uint256","internalType":"uint256"}],"stateMutability":"view"},{"type":"function","name":"cancelUnlock","inputs":[{"name":"owner","type":"address","internalType":"address"}],"outputs":[],"stateMutability":"nonpayable"},{"type":"function","name":"convertToAssets","inputs":[{"name":"shares","type":"uint256","internalType":"uint256"}],"outputs":[{"name":"","type":"uint256","internalType":"uint256"}],"stateMutability":"view"},{"type":"function","name":"convertToShares","inputs":[{"name":"assets","type":"uint256","internalType":"uint256"}],"outputs":[{"name":"","type":"uint256","internalType":"uint256"}],"stateMutability":"view"},{"type":"function","name":"decimals","inputs":[],"outputs":[{"name":"","type":"uint8","internalType":"uint8"}],"stateMutability":"view"},{"type":"function","name":"deposit","inputs":[{"name":"assets","type":"uint256","internalType":"uint256"},{"name":"receiver","type":"address","internalType":"address"}],"outputs":[{"name":"","type":"uint256","internalType":"uint256"}],"stateMutability":"nonpayable"},{"type":"function","name":"getLockPeriod","inputs":[],"outputs":[{"name":"","type":"uint256","internalType":"uint256"}],"stateMutability":"view"},{"type":"function","name":"lockPeriod","inputs":[],"outputs":[{"name":"","type":"uint256","internalType":"uint256"}],"stateMutability":"view"},{"type":"function","name":"maxDeposit","inputs":[{"name":"","type":"address","internalType":"address"}],"outputs":[{"name":"","type":"uint256","internalType":"uint256"}],"stateMutability":"view"},{"type":"function","name":"maxMint","inputs":[{"name":"","type":"address","internalType":"address"}],"outputs":[{"name":"","type":"uint256","internalType":"uint256"}],"stateMutability":"view"},{"type":"function","name":"maxRedeem","inputs":[{"name":"owner","type":"address","internalType":"address"}],"outputs":[{"name":"","type":"uint256","internalType":"uint256"}],"stateMutability":"view"},{"type":"function","name":"maxWithdraw","inputs":[{"name":"owner","type":"address","internalType":"address"}],"outputs":[{"name":"","type":"uint256","internalType":"uint256"}],"stateMutability":"view"},{"type":"function","name":"mint","inputs":[{"name":"shares","type":"uint256","internalType":"uint256"},{"name":"receiver","type":"address","internalType":"address"}],"outputs":[{"name":"","type":"uint256","internalType":"uint256"}],"stateMutability":"nonpayable"},{"type":"function","name":"name","inputs":[],"outputs":[{"name":"","type":"string","internalType":"string"}],"stateMutability":"view"},{"type":"function","name":"previewDeposit","inputs":[{"name":"assets","type":"uint256","internalType":"uint256"}],"outputs":[{"name":"","type":"uint256","internalType":"uint256"}],"stateMutability":"view"},{"type":"function","name":"previewMint","inputs":[{"name":"shares","type":"uint256","internalType":"uint256"}],"outputs":[{"name":"","type":"uint256","internalType":"uint256"}],"stateMutability":"view"},{"type":"function","name":"previewRedeem","inputs":[{"name":"shares","type":"uint256","internalType":"uint256"}],"outputs":[{"name":"","type":"uint256","internalType":"uint256"}],"stateMutability":"view"},{"type":"function","name":"previewWithdraw","inputs":[{"name":"assets","type":"uint256","internalType":"uint256"}],"outputs":[{"name":"","type":"uint256","internalType":"uint256"}],"stateMutability":"view"},{"type":"function","name":"redeem","inputs":[{"name":"shares","type":"uint256","internalType":"uint256"},{"name":"receiver","type":"address","internalType":"address"},{"name":"owner","type":"address","internalType":"address"}],"outputs":[{"name":"","type":"uint256","internalType":"uint256"}],"stateMutability":"nonpayable"},{"type":"function","name":"requestId","inputs":[],"outputs":[{"name":"","type":"uint256","internalType":"uint256"}],"stateMutability":"view"},{"type":"function","name":"requestUnlock","inputs":[{"name":"sharesAmount","type":"uint256","internalType":"uint256"},{"name":"owner","type":"address","internalType":"address"}],"outputs":[],"stateMutability":"nonpayable"},{"type":"function","name":"requests","inputs":[{"name":"owner","type":"address","internalType":"address"}],"outputs":[{"name":"id","type":"uint256","internalType":"uint256"},{"name":"startedAt","type":"uint256","internalType":"uint256"},{"name":"shareAmount","type":"uint256","internalType":"uint256"}],"stateMutability":"view"},{"type":"function","name":"symbol","inputs":[],"outputs":[{"name":"","type":"string","internalType":"string"}],"stateMutability":"view"},{"type":"function","name":"totalAssets","inputs":[],"outputs":[{"name":"","type":"uint256","internalType":"uint256"}],"stateMutability":"view"},{"type":"function","name":"totalSupply","inputs":[],"outputs":[{"name":"","type":"uint256","internalType":"uint256"}],"stateMutability":"view"},{"type":"function","name":"transfer","inputs":[{"name":"to","type":"address","internalType":"address"},{"name":"value","type":"uint256","internalType":"uint256"}],"outputs":[{"name":"","type":"bool","internalType":"bool"}],"stateMutability":"nonpayable"},{"type":"function","name":"transferFrom","inputs":[{"name":"from","type":"address","internalType":"address"},{"name":"to","type":"address","internalType":"address"},{"name":"value","type":"uint256","internalType":"uint256"}],"outputs":[{"name":"","type":"bool","internalType":"bool"}],"stateMutability":"nonpayable"},{"type":"function","name":"userUnlockRequests","inputs":[{"name":"owner","type":"address","internalType":"address"}],"outputs":[{"name":"","type":"tuple","internalType":"struct ERC4626TimelockMock.UnlockRequest","components":[{"name":"id","type":"uint256","internalType":"uint256"},{"name":"startedAt","type":"uint256","internalType":"uint256"},{"name":"shareAmount","type":"uint256","internalType":"uint256"}]}],"stateMutability":"view"},{"type":"function","name":"withdraw","inputs":[{"name":"assets","type":"uint256","internalType":"uint256"},{"name":"receiver","type":"address","internalType":"address"},{"name":"owner","type":"address","internalType":"address"}],"outputs":[{"name":"","type":"uint256","internalType":"uint256"}],"stateMutability":"nonpayable"},{"type":"event","name":"Approval","inputs":[{"name":"owner","type":"address","indexed":true,"internalType":"address"},{"name":"spender","type":"address","indexed":true,"internalType":"address"},{"name":"value","type":"uint256","indexed":false,"internalType":"uint256"}],"anonymous":false},{"type":"event","name":"Deposit","inputs":[{"name":"sender","type":"address","indexed":true,"internalType":"address"},{"name":"owner","type":"address","indexed":true,"internalType":"address"},{"name":"assets","type":"uint256","indexed":false,"internalType":"uint256"},{"name":"shares","type":"uint256","indexed":false,"internalType":"uint256"}],"anonymous":false},{"type":"event","name":"Transfer","inputs":[{"name":"from","type":"address","indexed":true,"internalType":"address"},{"name":"to","type":"address","indexed":true,"internalType":"address"},{"name":"value","type":"uint256","indexed":false,"internalType":"uint256"}],"anonymous":false},{"type":"event","name":"Withdraw","inputs":[{"name":"sender","type":"address","indexed":true,"internalType":"address"},{"name":"receiver","type":"address","indexed":true,"internalType":"address"},{"name":"owner","type":"address","indexed":true,"internalType":"address"},{"name":"assets","type":"uint256","indexed":false,"internalType":"uint256"},{"name":"shares","type":"uint256","indexed":false,"internalType":"uint256"}],"anonymous":false},{"type":"error","name":"AddressEmptyCode","inputs":[{"name":"target","type":"address","internalType":"address"}]},{"type":"error","name":"AddressInsufficientBalance","inputs":[{"name":"account","type":"address","internalType":"address"}]},{"type":"error","name":"ERC20InsufficientAllowance","inputs":[{"name":"spender","type":"address","internalType":"address"},{"name":"allowance","type":"uint256","internalType":"uint256"},{"name":"needed","type":"uint256","internalType":"uint256"}]},{"type":"error","name":"ERC20InsufficientBalance","inputs":[{"name":"sender","type":"address","internalType":"address"},{"name":"balance","type":"uint256","internalType":"uint256"},{"name":"needed","type":"uint256","internalType":"uint256"}]},{"type":"error","name":"ERC20InvalidApprover","inputs":[{"name":"approver","type":"address","internalType":"address"}]},{"type":"error","name":"ERC20InvalidReceiver","inputs":[{"name":"receiver","type":"address","internalType":"address"}]},{"type":"error","name":"ERC20InvalidSender","inputs":[{"name":"sender","type":"address","internalType":"address"}]},{"type":"error","name":"ERC20InvalidSpender","inputs":[{"name":"spender","type":"address","internalType":"address"}]},{"type":"error","name":"ERC4626ExceededMaxDeposit","inputs":[{"name":"receiver","type":"address","internalType":"address"},{"name":"assets","type":"uint256","internalType":"uint256"},{"name":"max","type":"uint256","internalType":"uint256"}]},{"type":"error","name":"ERC4626ExceededMaxMint","inputs":[{"name":"receiver","type":"address","internalType":"address"},{"name":"shares","type":"uint256","internalType":"uint256"},{"name":"max","type":"uint256","internalType":"uint256"}]},{"type":"error","name":"ERC4626ExceededMaxRedeem","inputs":[{"name":"owner","type":"address","internalType":"address"},{"name":"shares","type":"uint256","internalType":"uint256"},{"name":"max","type":"uint256","internalType":"uint256"}]},{"type":"error","name":"ERC4626ExceededMaxWithdraw","inputs":[{"name":"owner","type":"address","internalType":"address"},{"name":"assets","type":"uint256","internalType":"uint256"},{"name":"max","type":"uint256","internalType":"uint256"}]},{"type":"error","name":"FailedInnerCall","inputs":[]},{"type":"error","name":"MathOverflowedMulDiv","inputs":[]},{"type":"error","name":"SafeERC20FailedOperation","inputs":[{"name":"token","type":"address","internalType":"address"}]}],"bytecode":{"object":"0x60c0604052610e106005553480156200001757600080fd5b50604051620032783803806200327883398181016040528101906200003d919062000401565b8282828160039081620000519190620006e6565b508060049081620000639190620006e6565b5050506000806200007a83620000db60201b60201c565b91509150816200008c5760126200008e565b805b60ff1660a08160ff16815250508273ffffffffffffffffffffffffffffffffffffffff1660808173ffffffffffffffffffffffffffffffffffffffff168152505050505050505062000896565b6000806000808473ffffffffffffffffffffffffffffffffffffffff1660405160240160405160208183030381529060405263313ce56760e01b6020820180517bffffffffffffffffffffffffffffffffffffffffffffffffffffffff83818316178352505050506040516200015291906200081a565b600060405180830381855afa9150503d80600081146200018f576040519150601f19603f3d011682016040523d82523d6000602084013e62000194565b606091505b5091509150818015620001a957506020815110155b15620001e657600081806020019051810190620001c7919062000864565b905060ff80168111620001e45760018194509450505050620001f0565b505b6000809350935050505b915091565b6000604051905090565b600080fd5b600080fd5b600073ffffffffffffffffffffffffffffffffffffffff82169050919050565b6000620002368262000209565b9050919050565b60006200024a8262000229565b9050919050565b6200025c816200023d565b81146200026857600080fd5b50565b6000815190506200027c8162000251565b92915050565b600080fd5b600080fd5b6000601f19601f8301169050919050565b7f4e487b7100000000000000000000000000000000000000000000000000000000600052604160045260246000fd5b620002d7826200028c565b810181811067ffffffffffffffff82111715620002f957620002f86200029d565b5b80604052505050565b60006200030e620001f5565b90506200031c8282620002cc565b919050565b600067ffffffffffffffff8211156200033f576200033e6200029d565b5b6200034a826200028c565b9050602081019050919050565b60005b83811015620003775780820151818401526020810190506200035a565b60008484015250505050565b60006200039a620003948462000321565b62000302565b905082815260208101848484011115620003b957620003b862000287565b5b620003c684828562000357565b509392505050565b600082601f830112620003e657620003e562000282565b5b8151620003f884826020860162000383565b91505092915050565b6000806000606084860312156200041d576200041c620001ff565b5b60006200042d868287016200026b565b935050602084015167ffffffffffffffff81111562000451576200045062000204565b5b6200045f86828701620003ce565b925050604084015167ffffffffffffffff81111562000483576200048262000204565b5b6200049186828701620003ce565b9150509250925092565b600081519050919050565b7f4e487b7100000000000000000000000000000000000000000000000000000000600052602260045260246000fd5b60006002820490506001821680620004ee57607f821691505b602082108103620005045762000503620004a6565b5b50919050565b60008190508160005260206000209050919050565b60006020601f8301049050919050565b600082821b905092915050565b6000600883026200056e7fffffffffffffffffffffffffffffffffffffffffffffffffffffffffffffffff826200052f565b6200057a86836200052f565b95508019841693508086168417925050509392505050565b6000819050919050565b6000819050919050565b6000620005c7620005c1620005bb8462000592565b6200059c565b62000592565b9050919050565b6000819050919050565b620005e383620005a6565b620005fb620005f282620005ce565b8484546200053c565b825550505050565b600090565b6200061262000603565b6200061f818484620005d8565b505050565b5b8181101562000647576200063b60008262000608565b60018101905062000625565b5050565b601f821115620006965762000660816200050a565b6200066b846200051f565b810160208510156200067b578190505b620006936200068a856200051f565b83018262000624565b50505b505050565b600082821c905092915050565b6000620006bb600019846008026200069b565b1980831691505092915050565b6000620006d68383620006a8565b9150826002028217905092915050565b620006f1826200049b565b67ffffffffffffffff8111156200070d576200070c6200029d565b5b620007198254620004d5565b620007268282856200064b565b600060209050601f8311600181146200075e576000841562000749578287015190505b620007558582620006c8565b865550620007c5565b601f1984166200076e866200050a565b60005b82811015620007985784890151825560018201915060208501945060208101905062000771565b86831015620007b85784890151620007b4601f891682620006a8565b8355505b6001600288020188555050505b505050505050565b600081519050919050565b600081905092915050565b6000620007f082620007cd565b620007fc8185620007d8565b93506200080e81856020860162000357565b80840191505092915050565b6000620008288284620007e3565b915081905092915050565b6200083e8162000592565b81146200084a57600080fd5b50565b6000815190506200085e8162000833565b92915050565b6000602082840312156200087d576200087c620001ff565b5b60006200088d848285016200084d565b91505092915050565b60805160a0516129a7620008d160003960006108f5015260008181610736015281816109270152818161135d015261144901526129a76000f3fe608060405234801561001057600080fd5b50600436106101ef5760003560e01c806394bf804d1161010f578063c88e0b23116100a2578063df6feb4811610071578063df6feb48146106a6578063e43db193146106c2578063eebffc92146106e0578063ef8b30f7146106fc576101ef565b8063c88e0b23146105e6578063ce96cb7714610616578063d905777e14610646578063dd62ed3e14610676576101ef565b8063b460af94116100de578063b460af9414610526578063ba08765214610556578063c63d75b614610586578063c6e6f592146105b6576101ef565b806394bf804d1461047857806395d89b41146104a8578063a9059cbb146104c6578063b3d7f6b9146104f6576101ef565b8063313ce567116101875780634cdad506116101565780634cdad506146103b65780636e553f65146103e657806370a082311461041657806374adad1d14610446576101ef565b8063313ce5671461032c57806338d52e0f1461034a5780633fd8b02f14610368578063402d267d14610386576101ef565b8063095ea7b3116101c3578063095ea7b31461027e5780630a28a477146102ae57806318160ddd146102de57806323b872dd146102fc576101ef565b80626d6cae146101f457806301e1d1141461021257806306fdde031461023057806307a2d13a1461024e575b600080fd5b6101fc61072c565b6040516102099190611f09565b60405180910390f35b61021a610732565b6040516102279190611f09565b60405180910390f35b6102386107d3565b6040516102459190611fb4565b60405180910390f35b61026860048036038101906102639190612007565b610865565b6040516102759190611f09565b60405180910390f35b61029860048036038101906102939190612092565b610879565b6040516102a591906120ed565b60405180910390f35b6102c860048036038101906102c39190612007565b61089c565b6040516102d59190611f09565b60405180910390f35b6102e66108b0565b6040516102f39190611f09565b60405180910390f35b61031660048036038101906103119190612108565b6108ba565b60405161032391906120ed565b60405180910390f35b6103346108e9565b6040516103419190612177565b60405180910390f35b610352610923565b60405161035f91906121a1565b60405180910390f35b61037061094b565b60405161037d9190611f09565b60405180910390f35b6103a0600480360381019061039b91906121bc565b610951565b6040516103ad9190611f09565b60405180910390f35b6103d060048036038101906103cb9190612007565b61097b565b6040516103dd9190611f09565b60405180910390f35b61040060048036038101906103fb91906121e9565b61098f565b60405161040d9190611f09565b60405180910390f35b610430600480360381019061042b91906121bc565b610a11565b60405161043d9190611f09565b60405180910390f35b610460600480360381019061045b91906121bc565b610a59565b60405161046f93929190612229565b60405180910390f35b610492600480360381019061048d91906121e9565b610a83565b60405161049f9190611f09565b60405180910390f35b6104b0610b05565b6040516104bd9190611fb4565b60405180910390f35b6104e060048036038101906104db9190612092565b610b97565b6040516104ed91906120ed565b60405180910390f35b610510600480360381019061050b9190612007565b610bba565b60405161051d9190611f09565b60405180910390f35b610540600480360381019061053b9190612260565b610bce565b60405161054d9190611f09565b60405180910390f35b610570600480360381019061056b9190612260565b610c52565b60405161057d9190611f09565b60405180910390f35b6105a0600480360381019061059b91906121bc565b610cd6565b6040516105ad9190611f09565b60405180910390f35b6105d060048036038101906105cb9190612007565b610d00565b6040516105dd9190611f09565b60405180910390f35b61060060048036038101906105fb91906121bc565b610d14565b60405161060d9190612304565b60405180910390f35b610630600480360381019061062b91906121bc565b610d8b565b60405161063d9190611f09565b60405180910390f35b610660600480360381019061065b91906121bc565b610da7565b60405161066d9190611f09565b60405180910390f35b610690600480360381019061068b919061231f565b610db9565b60405161069d9190611f09565b60405180910390f35b6106c060048036038101906106bb91906121e9565b610e40565b005b6106ca610fdf565b6040516106d79190611f09565b60405180910390f35b6106fa60048036038101906106f591906121bc565b610fe9565b005b61071660048036038101906107119190612007565b6110eb565b6040516107239190611f09565b60405180910390f35b60065481565b60007f000000000000000000000000000000000000000000000000000000000000000073ffffffffffffffffffffffffffffffffffffffff166370a08231306040518263ffffffff1660e01b815260040161078d91906121a1565b602060405180830381865afa1580156107aa573d6000803e3d6000fd5b505050506040513d601f19601f820116820180604052508101906107ce9190612374565b905090565b6060600380546107e2906123d0565b80601f016020809104026020016040519081016040528092919081815260200182805461080e906123d0565b801561085b5780601f106108305761010080835404028352916020019161085b565b820191906000526020600020905b81548152906001019060200180831161083e57829003601f168201915b5050505050905090565b60006108728260006110ff565b9050919050565b600080610884611158565b9050610891818585611160565b600191505092915050565b60006108a9826001611172565b9050919050565b6000600254905090565b6000806108c5611158565b90506108d28582856111cb565b6108dd85858561125f565b60019150509392505050565b60006108f3611353565b7f000000000000000000000000000000000000000000000000000000000000000061091e9190612430565b905090565b60007f0000000000000000000000000000000000000000000000000000000000000000905090565b60055481565b60007fffffffffffffffffffffffffffffffffffffffffffffffffffffffffffffffff9050919050565b60006109888260006110ff565b9050919050565b60008061099b83610951565b9050808411156109e6578284826040517f79012fb20000000000000000000000000000000000000000000000000000000081526004016109dd93929190612465565b60405180910390fd5b60006109f1856110eb565b9050610a066109fe611158565b858784611358565b809250505092915050565b60008060008373ffffffffffffffffffffffffffffffffffffffff1673ffffffffffffffffffffffffffffffffffffffff168152602001908152602001600020549050919050565b60076020528060005260406000206000915090508060000154908060010154908060020154905083565b600080610a8f83610cd6565b905080841115610ada578284826040517f284ff667000000000000000000000000000000000000000000000000000000008152600401610ad193929190612465565b60405180910390fd5b6000610ae585610bba565b9050610afa610af2611158565b858388611358565b809250505092915050565b606060048054610b14906123d0565b80601f0160208091040260200160405190810160405280929190818152602001828054610b40906123d0565b8015610b8d5780601f10610b6257610100808354040283529160200191610b8d565b820191906000526020600020905b815481529060010190602001808311610b7057829003601f168201915b5050505050905090565b600080610ba2611158565b9050610baf81858561125f565b600191505092915050565b6000610bc78260016110ff565b9050919050565b600080610bda83610d8b565b905080851115610c25578285826040517ffe9cceec000000000000000000000000000000000000000000000000000000008152600401610c1c93929190612465565b60405180910390fd5b6000610c308661089c565b9050610c46610c3d611158565b868689856113fb565b80925050509392505050565b600080610c5e83610da7565b905080851115610ca9578285826040517fb94abeec000000000000000000000000000000000000000000000000000000008152600401610ca093929190612465565b60405180910390fd5b6000610cb48661097b565b9050610cca610cc1611158565b8686848a6113fb565b80925050509392505050565b60007fffffffffffffffffffffffffffffffffffffffffffffffffffffffffffffffff9050919050565b6000610d0d826000611172565b9050919050565b610d1c611ecf565b600760008373ffffffffffffffffffffffffffffffffffffffff1673ffffffffffffffffffffffffffffffffffffffff16815260200190815260200160002060405180606001604052908160008201548152602001600182015481526020016002820154815250509050919050565b6000610da0610d9983610a11565b60006110ff565b9050919050565b6000610db282610a11565b9050919050565b6000600160008473ffffffffffffffffffffffffffffffffffffffff1673ffffffffffffffffffffffffffffffffffffffff16815260200190815260200160002060008373ffffffffffffffffffffffffffffffffffffffff1673ffffffffffffffffffffffffffffffffffffffff16815260200190815260200160002054905092915050565b6000600760008373ffffffffffffffffffffffffffffffffffffffff1673ffffffffffffffffffffffffffffffffffffffff1681526020019081526020016000206002015414610ec5576040517f08c379a0000000000000000000000000000000000000000000000000000000008152600401610ebc906124e8565b60405180910390fd5b8073ffffffffffffffffffffffffffffffffffffffff163373ffffffffffffffffffffffffffffffffffffffff1614610f46576000610f048233610db9565b90507fffffffffffffffffffffffffffffffffffffffffffffffffffffffffffffffff8114610f4457610f42338483610f3d9190612508565b610879565b505b505b60066000815480929190610f599061253c565b91905055506040518060600160405280600654815260200142815260200183815250600760008373ffffffffffffffffffffffffffffffffffffffff1673ffffffffffffffffffffffffffffffffffffffff1681526020019081526020016000206000820151816000015560208201518160010155604082015181600201559050505050565b6000600554905090565b6000600760008373ffffffffffffffffffffffffffffffffffffffff1673ffffffffffffffffffffffffffffffffffffffff168152602001908152602001600020905042600554826001015461103f9190612584565b1161107f576040517f08c379a000000000000000000000000000000000000000000000000000000000815260040161107690612604565b60405180910390fd5b61108d8282600201546114f4565b600760008373ffffffffffffffffffffffffffffffffffffffff1673ffffffffffffffffffffffffffffffffffffffff1681526020019081526020016000206000808201600090556001820160009055600282016000905550505050565b60006110f8826000611172565b9050919050565b6000611150600161110e610732565b6111189190612584565b611120611353565b600a61112c9190612757565b6111346108b0565b61113e9190612584565b8486611576909392919063ffffffff16565b905092915050565b600033905090565b61116d83838360016115cd565b505050565b60006111c361117f611353565b600a61118b9190612757565b6111936108b0565b61119d9190612584565b60016111a7610732565b6111b19190612584565b8486611576909392919063ffffffff16565b905092915050565b60006111d78484610db9565b90507fffffffffffffffffffffffffffffffffffffffffffffffffffffffffffffffff81146112595781811015611249578281836040517ffb8f41b200000000000000000000000000000000000000000000000000000000815260040161124093929190612465565b60405180910390fd5b611258848484840360006115cd565b5b50505050565b600073ffffffffffffffffffffffffffffffffffffffff168373ffffffffffffffffffffffffffffffffffffffff16036112d15760006040517f96c6fd1e0000000000000000000000000000000000000000000000000000000081526004016112c891906121a1565b60405180910390fd5b600073ffffffffffffffffffffffffffffffffffffffff168273ffffffffffffffffffffffffffffffffffffffff16036113435760006040517fec442f0500000000000000000000000000000000000000000000000000000000815260040161133a91906121a1565b60405180910390fd5b61134e8383836117a4565b505050565b600090565b6113847f00000000000000000000000000000000000000000000000000000000000000008530856119c9565b61138e83826114f4565b8273ffffffffffffffffffffffffffffffffffffffff168473ffffffffffffffffffffffffffffffffffffffff167fdcbc1c05240f31ff3ad067ef1ee35ce4997762752e3a095284754544f4c709d784846040516113ed9291906127a2565b60405180910390a350505050565b8273ffffffffffffffffffffffffffffffffffffffff168573ffffffffffffffffffffffffffffffffffffffff161461143a576114398386836111cb565b5b6114448382611a4b565b61146f7f00000000000000000000000000000000000000000000000000000000000000008584611acd565b8273ffffffffffffffffffffffffffffffffffffffff168473ffffffffffffffffffffffffffffffffffffffff168673ffffffffffffffffffffffffffffffffffffffff167ffbde797d201c681b91056529119e0b02407c7bb96a4a2c75c01fc9667232c8db85856040516114e59291906127a2565b60405180910390a45050505050565b600073ffffffffffffffffffffffffffffffffffffffff168273ffffffffffffffffffffffffffffffffffffffff16036115665760006040517fec442f0500000000000000000000000000000000000000000000000000000000815260040161155d91906121a1565b60405180910390fd5b611572600083836117a4565b5050565b600080611584868686611b4c565b905061158f83611c53565b80156115ac5750600084806115a7576115a66127cb565b5b868809115b156115c1576001816115be9190612584565b90505b80915050949350505050565b600073ffffffffffffffffffffffffffffffffffffffff168473ffffffffffffffffffffffffffffffffffffffff160361163f5760006040517fe602df0500000000000000000000000000000000000000000000000000000000815260040161163691906121a1565b60405180910390fd5b600073ffffffffffffffffffffffffffffffffffffffff168373ffffffffffffffffffffffffffffffffffffffff16036116b15760006040517f94280d620000000000000000000000000000000000000000000000000000000081526004016116a891906121a1565b60405180910390fd5b81600160008673ffffffffffffffffffffffffffffffffffffffff1673ffffffffffffffffffffffffffffffffffffffff16815260200190815260200160002060008573ffffffffffffffffffffffffffffffffffffffff1673ffffffffffffffffffffffffffffffffffffffff16815260200190815260200160002081905550801561179e578273ffffffffffffffffffffffffffffffffffffffff168473ffffffffffffffffffffffffffffffffffffffff167f8c5be1e5ebec7d5bd14f71427d1e84f3dd0314c0f7b2291e5b200ac8c7c3b925846040516117959190611f09565b60405180910390a35b50505050565b600073ffffffffffffffffffffffffffffffffffffffff168373ffffffffffffffffffffffffffffffffffffffff16036117f65780600260008282546117ea9190612584565b925050819055506118c9565b60008060008573ffffffffffffffffffffffffffffffffffffffff1673ffffffffffffffffffffffffffffffffffffffff16815260200190815260200160002054905081811015611882578381836040517fe450d38c00000000000000000000000000000000000000000000000000000000815260040161187993929190612465565b60405180910390fd5b8181036000808673ffffffffffffffffffffffffffffffffffffffff1673ffffffffffffffffffffffffffffffffffffffff16815260200190815260200160002081905550505b600073ffffffffffffffffffffffffffffffffffffffff168273ffffffffffffffffffffffffffffffffffffffff1603611912578060026000828254039250508190555061195f565b806000808473ffffffffffffffffffffffffffffffffffffffff1673ffffffffffffffffffffffffffffffffffffffff168152602001908152602001600020600082825401925050819055505b8173ffffffffffffffffffffffffffffffffffffffff168373ffffffffffffffffffffffffffffffffffffffff167fddf252ad1be2c89b69c2b068fc378daa952ba7f163c4a11628f55a4df523b3ef836040516119bc9190611f09565b60405180910390a3505050565b611a45848573ffffffffffffffffffffffffffffffffffffffff166323b872dd8686866040516024016119fe939291906127fa565b604051602081830303815290604052915060e01b6020820180517bffffffffffffffffffffffffffffffffffffffffffffffffffffffff8381831617835250505050611c81565b50505050565b600073ffffffffffffffffffffffffffffffffffffffff168273ffffffffffffffffffffffffffffffffffffffff1603611abd5760006040517f96c6fd1e000000000000000000000000000000000000000000000000000000008152600401611ab491906121a1565b60405180910390fd5b611ac9826000836117a4565b5050565b611b47838473ffffffffffffffffffffffffffffffffffffffff1663a9059cbb8585604051602401611b00929190612831565b604051602081830303815290604052915060e01b6020820180517bffffffffffffffffffffffffffffffffffffffffffffffffffffffff8381831617835250505050611c81565b505050565b6000808385029050600080198587098281108382030391505060008103611b8757838281611b7d57611b7c6127cb565b5b0492505050611c4c565b808411611bc0576040517f227bc15300000000000000000000000000000000000000000000000000000000815260040160405180910390fd5b600084868809905082811182039150808303925060008560000386169050808604955080840493506001818260000304019050808302841793506000600287600302189050808702600203810290508087026002038102905080870260020381029050808702600203810290508087026002038102905080870260020381029050808502955050505050505b9392505050565b600060016002836003811115611c6c57611c6b61285a565b5b611c769190612889565b60ff16149050919050565b6000611cac828473ffffffffffffffffffffffffffffffffffffffff16611d1890919063ffffffff16565b90506000815114158015611cd1575080806020019051810190611ccf91906128e6565b155b15611d1357826040517f5274afe7000000000000000000000000000000000000000000000000000000008152600401611d0a91906121a1565b60405180910390fd5b505050565b6060611d2683836000611d2e565b905092915050565b606081471015611d7557306040517fcd786059000000000000000000000000000000000000000000000000000000008152600401611d6c91906121a1565b60405180910390fd5b6000808573ffffffffffffffffffffffffffffffffffffffff168486604051611d9e919061295a565b60006040518083038185875af1925050503d8060008114611ddb576040519150601f19603f3d011682016040523d82523d6000602084013e611de0565b606091505b5091509150611df0868383611dfb565b925050509392505050565b606082611e1057611e0b82611e8a565b611e82565b60008251148015611e38575060008473ffffffffffffffffffffffffffffffffffffffff163b145b15611e7a57836040517f9996b315000000000000000000000000000000000000000000000000000000008152600401611e7191906121a1565b60405180910390fd5b819050611e83565b5b9392505050565b600081511115611e9d5780518082602001fd5b6040517f1425ea4200000000000000000000000000000000000000000000000000000000815260040160405180910390fd5b60405180606001604052806000815260200160008152602001600081525090565b6000819050919050565b611f0381611ef0565b82525050565b6000602082019050611f1e6000830184611efa565b92915050565b600081519050919050565b600082825260208201905092915050565b60005b83811015611f5e578082015181840152602081019050611f43565b60008484015250505050565b6000601f19601f8301169050919050565b6000611f8682611f24565b611f908185611f2f565b9350611fa0818560208601611f40565b611fa981611f6a565b840191505092915050565b60006020820190508181036000830152611fce8184611f7b565b905092915050565b600080fd5b611fe481611ef0565b8114611fef57600080fd5b50565b60008135905061200181611fdb565b92915050565b60006020828403121561201d5761201c611fd6565b5b600061202b84828501611ff2565b91505092915050565b600073ffffffffffffffffffffffffffffffffffffffff82169050919050565b600061205f82612034565b9050919050565b61206f81612054565b811461207a57600080fd5b50565b60008135905061208c81612066565b92915050565b600080604083850312156120a9576120a8611fd6565b5b60006120b78582860161207d565b92505060206120c885828601611ff2565b9150509250929050565b60008115159050919050565b6120e7816120d2565b82525050565b600060208201905061210260008301846120de565b92915050565b60008060006060848603121561212157612120611fd6565b5b600061212f8682870161207d565b93505060206121408682870161207d565b925050604061215186828701611ff2565b9150509250925092565b600060ff82169050919050565b6121718161215b565b82525050565b600060208201905061218c6000830184612168565b92915050565b61219b81612054565b82525050565b60006020820190506121b66000830184612192565b92915050565b6000602082840312156121d2576121d1611fd6565b5b60006121e08482850161207d565b91505092915050565b60008060408385031215612200576121ff611fd6565b5b600061220e85828601611ff2565b925050602061221f8582860161207d565b9150509250929050565b600060608201905061223e6000830186611efa565b61224b6020830185611efa565b6122586040830184611efa565b949350505050565b60008060006060848603121561227957612278611fd6565b5b600061228786828701611ff2565b93505060206122988682870161207d565b92505060406122a98682870161207d565b9150509250925092565b6122bc81611ef0565b82525050565b6060820160008201516122d860008501826122b3565b5060208201516122eb60208501826122b3565b5060408201516122fe60408501826122b3565b50505050565b600060608201905061231960008301846122c2565b92915050565b6000806040838503121561233657612335611fd6565b5b60006123448582860161207d565b92505060206123558582860161207d565b9150509250929050565b60008151905061236e81611fdb565b92915050565b60006020828403121561238a57612389611fd6565b5b60006123988482850161235f565b91505092915050565b7f4e487b7100000000000000000000000000000000000000000000000000000000600052602260045260246000fd5b600060028204905060018216806123e857607f821691505b6020821081036123fb576123fa6123a1565b5b50919050565b7f4e487b7100000000000000000000000000000000000000000000000000000000600052601160045260246000fd5b600061243b8261215b565b91506124468361215b565b9250828201905060ff81111561245f5761245e612401565b5b92915050565b600060608201905061247a6000830186612192565b6124876020830185611efa565b6124946040830184611efa565b949350505050565b7f414c52454144595f524551554553544544000000000000000000000000000000600082015250565b60006124d2601183611f2f565b91506124dd8261249c565b602082019050919050565b60006020820190508181036000830152612501816124c5565b9050919050565b600061251382611ef0565b915061251e83611ef0565b925082820390508181111561253657612535612401565b5b92915050565b600061254782611ef0565b91507fffffffffffffffffffffffffffffffffffffffffffffffffffffffffffffffff820361257957612578612401565b5b600182019050919050565b600061258f82611ef0565b915061259a83611ef0565b92508282019050808211156125b2576125b1612401565b5b92915050565b7f4e4f545f554e4c4f434b45440000000000000000000000000000000000000000600082015250565b60006125ee600c83611f2f565b91506125f9826125b8565b602082019050919050565b6000602082019050818103600083015261261d816125e1565b9050919050565b60008160011c9050919050565b6000808291508390505b600185111561267b5780860481111561265757612656612401565b5b60018516156126665780820291505b808102905061267485612624565b945061263b565b94509492505050565b6000826126945760019050612750565b816126a25760009050612750565b81600181146126b857600281146126c2576126f1565b6001915050612750565b60ff8411156126d4576126d3612401565b5b8360020a9150848211156126eb576126ea612401565b5b50612750565b5060208310610133831016604e8410600b84101617156127265782820a90508381111561272157612720612401565b5b612750565b6127338484846001612631565b9250905081840481111561274a57612749612401565b5b81810290505b9392505050565b600061276282611ef0565b915061276d8361215b565b925061279a7fffffffffffffffffffffffffffffffffffffffffffffffffffffffffffffffff8484612684565b905092915050565b60006040820190506127b76000830185611efa565b6127c46020830184611efa565b9392505050565b7f4e487b7100000000000000000000000000000000000000000000000000000000600052601260045260246000fd5b600060608201905061280f6000830186612192565b61281c6020830185612192565b6128296040830184611efa565b949350505050565b60006040820190506128466000830185612192565b6128536020830184611efa565b9392505050565b7f4e487b7100000000000000000000000000000000000000000000000000000000600052602160045260246000fd5b60006128948261215b565b915061289f8361215b565b9250826128af576128ae6127cb565b5b828206905092915050565b6128c3816120d2565b81146128ce57600080fd5b50565b6000815190506128e0816128ba565b92915050565b6000602082840312156128fc576128fb611fd6565b5b600061290a848285016128d1565b91505092915050565b600081519050919050565b600081905092915050565b600061293482612913565b61293e818561291e565b935061294e818560208601611f40565b80840191505092915050565b60006129668284612929565b91508190509291505056fea26469706673582212206a53abf3f49fe8ba43681b128b58836bbc4c86cbe85ace8fd56f39921a526ed964736f6c63430008170033","linkReferences":{}},"methodIdentifiers":{"allowance(address,address)":"dd62ed3e","approve(address,uint256)":"095ea7b3","asset()":"38d52e0f","balanceOf(address)":"70a08231","cancelUnlock(address)":"eebffc92","convertToAssets(uint256)":"07a2d13a","convertToShares(uint256)":"c6e6f592","decimals()":"313ce567","deposit(uint256,address)":"6e553f65","getLockPeriod()":"e43db193","lockPeriod()":"3fd8b02f","maxDeposit(address)":"402d267d","maxMint(address)":"c63d75b6","maxRedeem(address)":"d905777e","maxWithdraw(address)":"ce96cb77","mint(uint256,address)":"94bf804d","name()":"06fdde03","previewDeposit(uint256)":"ef8b30f7","previewMint(uint256)":"b3d7f6b9","previewRedeem(uint256)":"4cdad506","previewWithdraw(uint256)":"0a28a477","redeem(uint256,address,address)":"ba087652","requestId()":"006d6cae","requestUnlock(uint256,address)":"df6feb48","requests(address)":"74adad1d","symbol()":"95d89b41","totalAssets()":"01e1d114","totalSupply()":"18160ddd","transfer(address,uint256)":"a9059cbb","transferFrom(address,address,uint256)":"23b872dd","userUnlockRequests(address)":"c88e0b23","withdraw(uint256,address,address)":"b460af94"},"id":322}