{"abi":[{"type":"constructor","inputs":[{"name":"superRegistry_","type":"address","internalType":"contract ISuperRegistry"},{"name":"broadcastRegistryId_","type":"uint8","internalType":"uint8"}],"stateMutability":"nonpayable"},{"type":"function","name":"ambChainId","inputs":[{"name":"","type":"uint64","internalType":"uint64"}],"outputs":[{"name":"","type":"uint16","internalType":"uint16"}],"stateMutability":"view"},{"type":"function","name":"authorizedImpl","inputs":[{"name":"","type":"uint16","internalType":"uint16"}],"outputs":[{"name":"","type":"address","internalType":"address"}],"stateMutability":"view"},{"type":"function","name":"broadcastFinality","inputs":[],"outputs":[{"name":"","type":"uint8","internalType":"uint8"}],"stateMutability":"view"},{"type":"function","name":"broadcastPayload","inputs":[{"name":"","type":"address","internalType":"address"},{"name":"message_","type":"bytes","internalType":"bytes"},{"name":"","type":"bytes","internalType":"bytes"}],"outputs":[],"stateMutability":"payable"},{"type":"function","name":"estimateFees","inputs":[{"name":"","type":"bytes","internalType":"bytes"},{"name":"","type":"bytes","internalType":"bytes"}],"outputs":[{"name":"fees","type":"uint256","internalType":"uint256"}],"stateMutability":"view"},{"type":"function","name":"processedMessages","inputs":[{"name":"","type":"bytes32","internalType":"bytes32"}],"outputs":[{"name":"","type":"bool","internalType":"bool"}],"stateMutability":"view"},{"type":"function","name":"receiveMessage","inputs":[{"name":"encodedMessage_","type":"bytes","internalType":"bytes"}],"outputs":[],"stateMutability":"nonpayable"},{"type":"function","name":"relayer","inputs":[],"outputs":[{"name":"","type":"address","internalType":"address"}],"stateMutability":"view"},{"type":"function","name":"setChainId","inputs":[{"name":"superChainId_","type":"uint64","internalType":"uint64"},{"name":"ambChainId_","type":"uint16","internalType":"uint16"}],"outputs":[],"stateMutability":"nonpayable"},{"type":"function","name":"setFinality","inputs":[{"name":"finality_","type":"uint8","internalType":"uint8"}],"outputs":[],"stateMutability":"nonpayable"},{"type":"function","name":"setReceiver","inputs":[{"name":"chainId_","type":"uint16","internalType":"uint16"},{"name":"authorizedImpl_","type":"address","internalType":"address"}],"outputs":[],"stateMutability":"nonpayable"},{"type":"function","name":"setRelayer","inputs":[{"name":"relayer_","type":"address","internalType":"address"}],"outputs":[],"stateMutability":"nonpayable"},{"type":"function","name":"setWormholeCore","inputs":[{"name":"wormhole_","type":"address","internalType":"address"}],"outputs":[],"stateMutability":"nonpayable"},{"type":"function","name":"superChainId","inputs":[{"name":"","type":"uint16","internalType":"uint16"}],"outputs":[{"name":"","type":"uint64","internalType":"uint64"}],"stateMutability":"view"},{"type":"function","name":"superRegistry","inputs":[],"outputs":[{"name":"","type":"address","internalType":"contract ISuperRegistry"}],"stateMutability":"view"},{"type":"function","name":"wormhole","inputs":[],"outputs":[{"name":"","type":"address","internalType":"contract IWormhole"}],"stateMutability":"view"},{"type":"event","name":"AuthorizedImplAdded","inputs":[{"name":"superChainId","type":"uint64","indexed":true,"internalType":"uint64"},{"name":"authImpl","type":"address","indexed":true,"internalType":"address"}],"anonymous":false},{"type":"event","name":"BroadcastFinalitySet","inputs":[{"name":"finality","type":"uint8","indexed":true,"internalType":"uint8"}],"anonymous":false},{"type":"event","name":"ChainAdded","inputs":[{"name":"superChainId","type":"uint64","indexed":true,"internalType":"uint64"}],"anonymous":false},{"type":"event","name":"WormholeCoreSet","inputs":[{"name":"wormholeCore","type":"address","indexed":true,"internalType":"address"}],"anonymous":false},{"type":"event","name":"WormholeRelayerSet","inputs":[{"name":"wormholeRelayer","type":"address","indexed":true,"internalType":"address"}],"anonymous":false},{"type":"error","name":"CALLER_NOT_RELAYER","inputs":[]},{"type":"error","name":"DUPLICATE_PAYLOAD","inputs":[]},{"type":"error","name":"FAILED_TO_SEND_NATIVE","inputs":[]},{"type":"error","name":"INSUFFICIENT_NATIVE_AMOUNT","inputs":[]},{"type":"error","name":"INVALID_BROADCAST_FINALITY","inputs":[]},{"type":"error","name":"INVALID_BROADCAST_PAYLOAD","inputs":[]},{"type":"error","name":"INVALID_CHAIN_ID","inputs":[]},{"type":"error","name":"INVALID_SRC_SENDER","inputs":[]},{"type":"error","name":"NOT_PROTOCOL_ADMIN","inputs":[]},{"type":"error","name":"NOT_STATE_REGISTRY","inputs":[]},{"type":"error","name":"NotAnEvmAddress","inputs":[{"name":"","type":"bytes32","internalType":"bytes32"}]},{"type":"error","name":"RELAYER_NOT_SET","inputs":[]},{"type":"error","name":"ZERO_ADDRESS","inputs":[]}],"bytecode":{"object":"0x60c06040523480156200001157600080fd5b5060405162002eb438038062002eb483398181016040528101906200003791906200013d565b8173ffffffffffffffffffffffffffffffffffffffff1660a08173ffffffffffffffffffffffffffffffffffffffff16815250508060ff1660808160ff1681525050505062000184565b600080fd5b600073ffffffffffffffffffffffffffffffffffffffff82169050919050565b6000620000b38262000086565b9050919050565b6000620000c782620000a6565b9050919050565b620000d981620000ba565b8114620000e557600080fd5b50565b600081519050620000f981620000ce565b92915050565b600060ff82169050919050565b6200011781620000ff565b81146200012357600080fd5b50565b60008151905062000137816200010c565b92915050565b6000806040838503121562000157576200015662000081565b5b60006200016785828601620000e8565b92505060206200017a8582860162000126565b9150509250929050565b60805160a051612cd2620001e2600039600081816103e9015281816107cc01528181610b4201528181610b6601528181610e1901528181611195015281816114b9015281816119af0152611adf015260006119eb0152612cd26000f3fe6080604052600436106100f35760003560e01c80638406c0791161008a578063efda82d711610059578063efda82d71461031b578063f2d39b6014610358578063f953cec714610395578063fc911937146103be576100f3565b80638406c0791461025f57806384acd1bb1461028a57806388ba16ab146102b5578063bedf3f7b146102f2576100f3565b806324c73dda116100c657806324c73dda146101a55780634cff9f1d146101d05780636548e9bc146101f9578063771525f814610222576100f3565b8063082fa139146100f857806309bec2c1146101145780630e63896f1461015157806310d06fd41461017c575b600080fd5b610112600480360381019061010d9190611ef0565b6103e7565b005b34801561012057600080fd5b5061013b60048036038101906101369190611fbb565b610796565b6040516101489190612005565b60405180910390f35b34801561015d57600080fd5b506101666107b7565b604051610173919061203c565b60405180910390f35b34801561018857600080fd5b506101a3600480360381019061019e9190612083565b6107ca565b005b3480156101b157600080fd5b506101ba610b40565b6040516101c79190612122565b60405180910390f35b3480156101dc57600080fd5b506101f760048036038101906101f2919061213d565b610b64565b005b34801561020557600080fd5b50610220600480360381019061021b919061217d565b610e17565b005b34801561022e57600080fd5b50610249600480360381019061024491906121aa565b61108f565b604051610256919061223b565b60405180910390f35b34801561026b57600080fd5b50610274611129565b6040516102819190612265565b60405180910390f35b34801561029657600080fd5b5061029f61114f565b6040516102ac91906122a1565b60405180910390f35b3480156102c157600080fd5b506102dc60048036038101906102d791906122f2565b611173565b6040516102e9919061233a565b60405180910390f35b3480156102fe57600080fd5b506103196004803603810190610314919061217d565b611193565b005b34801561032757600080fd5b50610342600480360381019061033d9190612355565b61145d565b60405161034f9190612265565b60405180910390f35b34801561036457600080fd5b5061037f600480360381019061037a9190612355565b611490565b60405161038c9190612391565b60405180910390f35b3480156103a157600080fd5b506103bc60048036038101906103b791906123ac565b6114b7565b005b3480156103ca57600080fd5b506103e560048036038101906103e09190612421565b611add565b005b7f000000000000000000000000000000000000000000000000000000000000000073ffffffffffffffffffffffffffffffffffffffff1663eeaf54aa336040518263ffffffff1660e01b81526004016104409190612265565b602060405180830381865afa15801561045d573d6000803e3d6000fd5b505050506040513d601f19601f82011682018060405250810190610481919061247a565b6104b7576040517f60e6a64e00000000000000000000000000000000000000000000000000000000815260040160405180910390fd5b60008060009054906101000a900473ffffffffffffffffffffffffffffffffffffffff1673ffffffffffffffffffffffffffffffffffffffff16631a90a2196040518163ffffffff1660e01b8152600401602060405180830381865afa158015610525573d6000803e3d6000fd5b505050506040513d601f19601f8201168201806040525081019061054991906124d3565b905080341015610585576040517fe4f2466300000000000000000000000000000000000000000000000000000000815260040160405180910390fd5b60008054906101000a900473ffffffffffffffffffffffffffffffffffffffff1673ffffffffffffffffffffffffffffffffffffffff1663b19a437e82600086600160149054906101000a900460ff166040518563ffffffff1660e01b81526004016105f3939291906125ca565b60206040518083038185885af1158015610611573d6000803e3d6000fd5b50505050506040513d601f19601f82011682018060405250810190610636919061261d565b50600073ffffffffffffffffffffffffffffffffffffffff16600160009054906101000a900473ffffffffffffffffffffffffffffffffffffffff1673ffffffffffffffffffffffffffffffffffffffff16036106bf576040517fe8baf99900000000000000000000000000000000000000000000000000000000815260040160405180910390fd5b6000600160009054906101000a900473ffffffffffffffffffffffffffffffffffffffff1673ffffffffffffffffffffffffffffffffffffffff1682346107069190612679565b604051610712906126de565b60006040518083038185875af1925050503d806000811461074f576040519150601f19603f3d011682016040523d82523d6000602084013e610754565b606091505b505090508061078f576040517f220d375300000000000000000000000000000000000000000000000000000000815260040160405180910390fd5b5050505050565b60026020528060005260406000206000915054906101000a900461ffff1681565b600160149054906101000a900460ff1681565b7f000000000000000000000000000000000000000000000000000000000000000073ffffffffffffffffffffffffffffffffffffffff166321f8a7217f6b50fa17b77d24e42e27a04b69fe50cd6967cfb767d18de0bd5fe7e1a32aa8686040518263ffffffff1660e01b81526004016108439190612702565b602060405180830381865afa158015610860573d6000803e3d6000fd5b505050506040513d601f19601f820116820180604052508101906108849190612732565b73ffffffffffffffffffffffffffffffffffffffff1663d35911f2336040518263ffffffff1660e01b81526004016108bc9190612265565b602060405180830381865afa1580156108d9573d6000803e3d6000fd5b505050506040513d601f19601f820116820180604052508101906108fd919061247a565b610933576040517fdc85555400000000000000000000000000000000000000000000000000000000815260040160405180910390fd5b60008267ffffffffffffffff161480610950575060008161ffff16145b15610987576040517f030042b700000000000000000000000000000000000000000000000000000000815260040160405180910390fd5b6000600360008361ffff1661ffff16815260200190815260200160002060009054906101000a900467ffffffffffffffff1690506000600260008567ffffffffffffffff1667ffffffffffffffff16815260200190815260200160002060009054906101000a900461ffff16905060008267ffffffffffffffff1614610a4057600260008367ffffffffffffffff1667ffffffffffffffff16815260200190815260200160002060006101000a81549061ffff02191690555b60008161ffff1614610a7f57600360008261ffff1661ffff16815260200190815260200160002060006101000a81549067ffffffffffffffff02191690555b82600260008667ffffffffffffffff1667ffffffffffffffff16815260200190815260200160002060006101000a81548161ffff021916908361ffff16021790555083600360008561ffff1661ffff16815260200190815260200160002060006101000a81548167ffffffffffffffff021916908367ffffffffffffffff1602179055508367ffffffffffffffff167ff9506a27dd49e1563cbf7882f3e8dfb3c25fa4a4d610e8f4b0a30a145b4f685e60405160405180910390a250505050565b7f000000000000000000000000000000000000000000000000000000000000000081565b7f000000000000000000000000000000000000000000000000000000000000000073ffffffffffffffffffffffffffffffffffffffff166321f8a7217f6b50fa17b77d24e42e27a04b69fe50cd6967cfb767d18de0bd5fe7e1a32aa8686040518263ffffffff1660e01b8152600401610bdd9190612702565b602060405180830381865afa158015610bfa573d6000803e3d6000fd5b505050506040513d601f19601f82011682018060405250810190610c1e9190612732565b73ffffffffffffffffffffffffffffffffffffffff1663d35911f2336040518263ffffffff1660e01b8152600401610c569190612265565b602060405180830381865afa158015610c73573d6000803e3d6000fd5b505050506040513d601f19601f82011682018060405250810190610c97919061247a565b610ccd576040517fdc85555400000000000000000000000000000000000000000000000000000000815260040160405180910390fd5b60008261ffff1603610d0b576040517f030042b700000000000000000000000000000000000000000000000000000000815260040160405180910390fd5b600073ffffffffffffffffffffffffffffffffffffffff168173ffffffffffffffffffffffffffffffffffffffff1603610d71576040517f538ba4f900000000000000000000000000000000000000000000000000000000815260040160405180910390fd5b80600460008461ffff1661ffff16815260200190815260200160002060006101000a81548173ffffffffffffffffffffffffffffffffffffffff021916908373ffffffffffffffffffffffffffffffffffffffff1602179055508073ffffffffffffffffffffffffffffffffffffffff168261ffff167f11638aacb08f0e5f6147baa54ac1e71c77eff335bc6e6afa8a20f53a80693e5260405160405180910390a35050565b7f000000000000000000000000000000000000000000000000000000000000000073ffffffffffffffffffffffffffffffffffffffff166321f8a7217f6b50fa17b77d24e42e27a04b69fe50cd6967cfb767d18de0bd5fe7e1a32aa8686040518263ffffffff1660e01b8152600401610e909190612702565b602060405180830381865afa158015610ead573d6000803e3d6000fd5b505050506040513d601f19601f82011682018060405250810190610ed19190612732565b73ffffffffffffffffffffffffffffffffffffffff1663d35911f2336040518263ffffffff1660e01b8152600401610f099190612265565b602060405180830381865afa158015610f26573d6000803e3d6000fd5b505050506040513d601f19601f82011682018060405250810190610f4a919061247a565b610f80576040517fdc85555400000000000000000000000000000000000000000000000000000000815260040160405180910390fd5b600073ffffffffffffffffffffffffffffffffffffffff168173ffffffffffffffffffffffffffffffffffffffff1603610fe6576040517f538ba4f900000000000000000000000000000000000000000000000000000000815260040160405180910390fd5b80600160006101000a81548173ffffffffffffffffffffffffffffffffffffffff021916908373ffffffffffffffffffffffffffffffffffffffff160217905550600160009054906101000a900473ffffffffffffffffffffffffffffffffffffffff1673ffffffffffffffffffffffffffffffffffffffff167ffb7652f525377da195dcf924a95947d3547d6be4e1491aff90df8cb28d58ae4f60405160405180910390a250565b60008060009054906101000a900473ffffffffffffffffffffffffffffffffffffffff1673ffffffffffffffffffffffffffffffffffffffff16631a90a2196040518163ffffffff1660e01b8152600401602060405180830381865afa1580156110fd573d6000803e3d6000fd5b505050506040513d601f19601f8201168201806040525081019061112191906124d3565b905092915050565b600160009054906101000a900473ffffffffffffffffffffffffffffffffffffffff1681565b60008054906101000a900473ffffffffffffffffffffffffffffffffffffffff1681565b60056020528060005260406000206000915054906101000a900460ff1681565b7f000000000000000000000000000000000000000000000000000000000000000073ffffffffffffffffffffffffffffffffffffffff166321f8a7217f6b50fa17b77d24e42e27a04b69fe50cd6967cfb767d18de0bd5fe7e1a32aa8686040518263ffffffff1660e01b815260040161120c9190612702565b602060405180830381865afa158015611229573d6000803e3d6000fd5b505050506040513d601f19601f8201168201806040525081019061124d9190612732565b73ffffffffffffffffffffffffffffffffffffffff1663d35911f2336040518263ffffffff1660e01b81526004016112859190612265565b602060405180830381865afa1580156112a2573d6000803e3d6000fd5b505050506040513d601f19601f820116820180604052508101906112c6919061247a565b6112fc576040517fdc85555400000000000000000000000000000000000000000000000000000000815260040160405180910390fd5b600073ffffffffffffffffffffffffffffffffffffffff168173ffffffffffffffffffffffffffffffffffffffff1603611362576040517f538ba4f900000000000000000000000000000000000000000000000000000000815260040160405180910390fd5b600073ffffffffffffffffffffffffffffffffffffffff1660008054906101000a900473ffffffffffffffffffffffffffffffffffffffff1673ffffffffffffffffffffffffffffffffffffffff160361145a57806000806101000a81548173ffffffffffffffffffffffffffffffffffffffff021916908373ffffffffffffffffffffffffffffffffffffffff16021790555060008054906101000a900473ffffffffffffffffffffffffffffffffffffffff1673ffffffffffffffffffffffffffffffffffffffff167f19ab4641f1a1b9d4417c04fd17ded7be1e07def25ae6398a84164932f3428ec160405160405180910390a25b50565b60046020528060005260406000206000915054906101000a900473ffffffffffffffffffffffffffffffffffffffff1681565b60036020528060005260406000206000915054906101000a900467ffffffffffffffff1681565b7f000000000000000000000000000000000000000000000000000000000000000073ffffffffffffffffffffffffffffffffffffffff166321f8a7217f6b50fa17b77d24e42e27a04b69fe50cd6967cfb767d18de0bd5fe7e1a32aa8686040518263ffffffff1660e01b81526004016115309190612702565b602060405180830381865afa15801561154d573d6000803e3d6000fd5b505050506040513d601f19601f820116820180604052508101906115719190612732565b73ffffffffffffffffffffffffffffffffffffffff166391d148547faaedce11550f68de85a9a639fbcd9eeee97fc46052ead315af95693575f4cff5336040518363ffffffff1660e01b81526004016115cb92919061275f565b602060405180830381865afa1580156115e8573d6000803e3d6000fd5b505050506040513d601f19601f8201168201806040525081019061160c919061247a565b611642576040517f5aa1e94500000000000000000000000000000000000000000000000000000000815260040160405180910390fd5b60008060008054906101000a900473ffffffffffffffffffffffffffffffffffffffff1673ffffffffffffffffffffffffffffffffffffffff1663c0fd8bde846040518263ffffffff1660e01b815260040161169e9190612788565b600060405180830381865afa1580156116bb573d6000803e3d6000fd5b505050506040513d6000823e3d601f19601f820116820180604052508101906116e49190612bb4565b509150915080611720576040517f186d7ccb00000000000000000000000000000000000000000000000000000000815260040160405180910390fd5b60008054906101000a900473ffffffffffffffffffffffffffffffffffffffff1673ffffffffffffffffffffffffffffffffffffffff16639a8a05926040518163ffffffff1660e01b8152600401602060405180830381865afa15801561178b573d6000803e3d6000fd5b505050506040513d601f19601f820116820180604052508101906117af9190612c3f565b61ffff16826060015161ffff16036117f3576040517f030042b700000000000000000000000000000000000000000000000000000000815260040160405180910390fd5b60046000836060015161ffff1661ffff16815260200190815260200160002060009054906101000a900473ffffffffffffffffffffffffffffffffffffffff1673ffffffffffffffffffffffffffffffffffffffff166118568360800151611ce0565b73ffffffffffffffffffffffffffffffffffffffff16146118a3576040517f1d527bfc00000000000000000000000000000000000000000000000000000000815260040160405180910390fd5b60056000836101400151815260200190815260200160002060009054906101000a900460ff1615611900576040517f86041c9d00000000000000000000000000000000000000000000000000000000815260040160405180910390fd5b600160056000846101400151815260200190815260200160002060006101000a81548160ff021916908315150217905550600060036000846060015161ffff1661ffff16815260200190815260200160002060009054906101000a900467ffffffffffffffff16905060008167ffffffffffffffff16036119ad576040517f030042b700000000000000000000000000000000000000000000000000000000815260040160405180910390fd5b7f000000000000000000000000000000000000000000000000000000000000000073ffffffffffffffffffffffffffffffffffffffff166357203ab47f00000000000000000000000000000000000000000000000000000000000000006040518263ffffffff1660e01b8152600401611a26919061203c565b602060405180830381865afa158015611a43573d6000803e3d6000fd5b505050506040513d601f19601f82011682018060405250810190611a679190612732565b73ffffffffffffffffffffffffffffffffffffffff16630b0d73a0828560e001516040518363ffffffff1660e01b8152600401611aa5929190612c6c565b600060405180830381600087803b158015611abf57600080fd5b505af1158015611ad3573d6000803e3d6000fd5b5050505050505050565b7f000000000000000000000000000000000000000000000000000000000000000073ffffffffffffffffffffffffffffffffffffffff166321f8a7217f6b50fa17b77d24e42e27a04b69fe50cd6967cfb767d18de0bd5fe7e1a32aa8686040518263ffffffff1660e01b8152600401611b569190612702565b602060405180830381865afa158015611b73573d6000803e3d6000fd5b505050506040513d601f19601f82011682018060405250810190611b979190612732565b73ffffffffffffffffffffffffffffffffffffffff1663d35911f2336040518263ffffffff1660e01b8152600401611bcf9190612265565b602060405180830381865afa158015611bec573d6000803e3d6000fd5b505050506040513d601f19601f82011682018060405250810190611c10919061247a565b611c46576040517fdc85555400000000000000000000000000000000000000000000000000000000815260040160405180910390fd5b60008160ff1603611c83576040517f0ab581c300000000000000000000000000000000000000000000000000000000815260040160405180910390fd5b80600160146101000a81548160ff021916908360ff160217905550600160149054906101000a900460ff1660ff167f0b1adcbf8dee6efbe35ff15c0d55f02bb7ac112789b5ef1d999b877a5abad44360405160405180910390a250565b60008060a08360001c901c14611d2d57816040517f33b960d0000000000000000000000000000000000000000000000000000000008152600401611d249190612702565b60405180910390fd5b8160001c9050919050565b6000604051905090565b600080fd5b600080fd5b600073ffffffffffffffffffffffffffffffffffffffff82169050919050565b6000611d7782611d4c565b9050919050565b611d8781611d6c565b8114611d9257600080fd5b50565b600081359050611da481611d7e565b92915050565b600080fd5b600080fd5b6000601f19601f8301169050919050565b7f4e487b7100000000000000000000000000000000000000000000000000000000600052604160045260246000fd5b611dfd82611db4565b810181811067ffffffffffffffff82111715611e1c57611e1b611dc5565b5b80604052505050565b6000611e2f611d38565b9050611e3b8282611df4565b919050565b600067ffffffffffffffff821115611e5b57611e5a611dc5565b5b611e6482611db4565b9050602081019050919050565b82818337600083830152505050565b6000611e93611e8e84611e40565b611e25565b905082815260208101848484011115611eaf57611eae611daf565b5b611eba848285611e71565b509392505050565b600082601f830112611ed757611ed6611daa565b5b8135611ee7848260208601611e80565b91505092915050565b600080600060608486031215611f0957611f08611d42565b5b6000611f1786828701611d95565b935050602084013567ffffffffffffffff811115611f3857611f37611d47565b5b611f4486828701611ec2565b925050604084013567ffffffffffffffff811115611f6557611f64611d47565b5b611f7186828701611ec2565b9150509250925092565b600067ffffffffffffffff82169050919050565b611f9881611f7b565b8114611fa357600080fd5b50565b600081359050611fb581611f8f565b92915050565b600060208284031215611fd157611fd0611d42565b5b6000611fdf84828501611fa6565b91505092915050565b600061ffff82169050919050565b611fff81611fe8565b82525050565b600060208201905061201a6000830184611ff6565b92915050565b600060ff82169050919050565b61203681612020565b82525050565b6000602082019050612051600083018461202d565b92915050565b61206081611fe8565b811461206b57600080fd5b50565b60008135905061207d81612057565b92915050565b6000806040838503121561209a57612099611d42565b5b60006120a885828601611fa6565b92505060206120b98582860161206e565b9150509250929050565b6000819050919050565b60006120e86120e36120de84611d4c565b6120c3565b611d4c565b9050919050565b60006120fa826120cd565b9050919050565b600061210c826120ef565b9050919050565b61211c81612101565b82525050565b60006020820190506121376000830184612113565b92915050565b6000806040838503121561215457612153611d42565b5b60006121628582860161206e565b925050602061217385828601611d95565b9150509250929050565b60006020828403121561219357612192611d42565b5b60006121a184828501611d95565b91505092915050565b600080604083850312156121c1576121c0611d42565b5b600083013567ffffffffffffffff8111156121df576121de611d47565b5b6121eb85828601611ec2565b925050602083013567ffffffffffffffff81111561220c5761220b611d47565b5b61221885828601611ec2565b9150509250929050565b6000819050919050565b61223581612222565b82525050565b6000602082019050612250600083018461222c565b92915050565b61225f81611d6c565b82525050565b600060208201905061227a6000830184612256565b92915050565b600061228b826120ef565b9050919050565b61229b81612280565b82525050565b60006020820190506122b66000830184612292565b92915050565b6000819050919050565b6122cf816122bc565b81146122da57600080fd5b50565b6000813590506122ec816122c6565b92915050565b60006020828403121561230857612307611d42565b5b6000612316848285016122dd565b91505092915050565b60008115159050919050565b6123348161231f565b82525050565b600060208201905061234f600083018461232b565b92915050565b60006020828403121561236b5761236a611d42565b5b60006123798482850161206e565b91505092915050565b61238b81611f7b565b82525050565b60006020820190506123a66000830184612382565b92915050565b6000602082840312156123c2576123c1611d42565b5b600082013567ffffffffffffffff8111156123e0576123df611d47565b5b6123ec84828501611ec2565b91505092915050565b6123fe81612020565b811461240957600080fd5b50565b60008135905061241b816123f5565b92915050565b60006020828403121561243757612436611d42565b5b60006124458482850161240c565b91505092915050565b6124578161231f565b811461246257600080fd5b50565b6000815190506124748161244e565b92915050565b6000602082840312156124905761248f611d42565b5b600061249e84828501612465565b91505092915050565b6124b081612222565b81146124bb57600080fd5b50565b6000815190506124cd816124a7565b92915050565b6000602082840312156124e9576124e8611d42565b5b60006124f7848285016124be565b91505092915050565b6000819050919050565b600063ffffffff82169050919050565b600061253561253061252b84612500565b6120c3565b61250a565b9050919050565b6125458161251a565b82525050565b600081519050919050565b600082825260208201905092915050565b60005b8381101561258557808201518184015260208101905061256a565b60008484015250505050565b600061259c8261254b565b6125a68185612556565b93506125b6818560208601612567565b6125bf81611db4565b840191505092915050565b60006060820190506125df600083018661253c565b81810360208301526125f18185612591565b9050612600604083018461202d565b949350505050565b60008151905061261781611f8f565b92915050565b60006020828403121561263357612632611d42565b5b600061264184828501612608565b91505092915050565b7f4e487b7100000000000000000000000000000000000000000000000000000000600052601160045260246000fd5b600061268482612222565b915061268f83612222565b92508282039050818111156126a7576126a661264a565b5b92915050565b600081905092915050565b50565b60006126c86000836126ad565b91506126d3826126b8565b600082019050919050565b60006126e9826126bb565b9150819050919050565b6126fc816122bc565b82525050565b600060208201905061271760008301846126f3565b92915050565b60008151905061272c81611d7e565b92915050565b60006020828403121561274857612747611d42565b5b60006127568482850161271d565b91505092915050565b600060408201905061277460008301856126f3565b6127816020830184612256565b9392505050565b600060208201905081810360008301526127a28184612591565b905092915050565b600080fd5b600080fd5b6000815190506127c3816123f5565b92915050565b6127d28161250a565b81146127dd57600080fd5b50565b6000815190506127ef816127c9565b92915050565b60008151905061280481612057565b92915050565b600081519050612819816122c6565b92915050565b600061283261282d84611e40565b611e25565b90508281526020810184848401111561284e5761284d611daf565b5b612859848285612567565b509392505050565b600082601f83011261287657612875611daa565b5b815161288684826020860161281f565b91505092915050565b600067ffffffffffffffff8211156128aa576128a9611dc5565b5b602082029050602081019050919050565b600080fd5b6000608082840312156128d6576128d56127aa565b5b6128e06080611e25565b905060006128f08482850161280a565b60008301525060206129048482850161280a565b6020830152506040612918848285016127b4565b604083015250606061292c848285016127b4565b60608301525092915050565b600061294b6129468461288f565b611e25565b9050808382526020820190506080840283018581111561296e5761296d6128bb565b5b835b81811015612997578061298388826128c0565b845260208401935050608081019050612970565b5050509392505050565b600082601f8301126129b6576129b5611daa565b5b81516129c6848260208601612938565b91505092915050565b600061016082840312156129e6576129e56127aa565b5b6129f1610160611e25565b90506000612a01848285016127b4565b6000830152506020612a15848285016127e0565b6020830152506040612a29848285016127e0565b6040830152506060612a3d848285016127f5565b6060830152506080612a518482850161280a565b60808301525060a0612a6584828501612608565b60a08301525060c0612a79848285016127b4565b60c08301525060e082015167ffffffffffffffff811115612a9d57612a9c6127af565b5b612aa984828501612861565b60e083015250610100612abe848285016127e0565b6101008301525061012082015167ffffffffffffffff811115612ae457612ae36127af565b5b612af0848285016129a1565b61012083015250610140612b068482850161280a565b6101408301525092915050565b600067ffffffffffffffff821115612b2e57612b2d611dc5565b5b612b3782611db4565b9050602081019050919050565b6000612b57612b5284612b13565b611e25565b905082815260208101848484011115612b7357612b72611daf565b5b612b7e848285612567565b509392505050565b600082601f830112612b9b57612b9a611daa565b5b8151612bab848260208601612b44565b91505092915050565b600080600060608486031215612bcd57612bcc611d42565b5b600084015167ffffffffffffffff811115612beb57612bea611d47565b5b612bf7868287016129cf565b9350506020612c0886828701612465565b925050604084015167ffffffffffffffff811115612c2957612c28611d47565b5b612c3586828701612b86565b9150509250925092565b600060208284031215612c5557612c54611d42565b5b6000612c63848285016127f5565b91505092915050565b6000604082019050612c816000830185612382565b8181036020830152612c938184612591565b9050939250505056fea26469706673582212208cad3af1c2e4076dfcb65f3d0f643b8fd9a502f27c2f5be4ff280ae7ea01886e64736f6c63430008170033","linkReferences":{}},"methodIdentifiers":{"ambChainId(uint64)":"09bec2c1","authorizedImpl(uint16)":"efda82d7","broadcastFinality()":"0e63896f","broadcastPayload(address,bytes,bytes)":"082fa139","estimateFees(bytes,bytes)":"771525f8","processedMessages(bytes32)":"88ba16ab","receiveMessage(bytes)":"f953cec7","relayer()":"8406c079","setChainId(uint64,uint16)":"10d06fd4","setFinality(uint8)":"fc911937","setReceiver(uint16,address)":"4cff9f1d","setRelayer(address)":"6548e9bc","setWormholeCore(address)":"bedf3f7b","superChainId(uint16)":"f2d39b60","superRegistry()":"24c73dda","wormhole()":"84acd1bb"},"id":123}