{"abi":[{"type":"constructor","inputs":[{"name":"superRegistry_","type":"address","internalType":"address"}],"stateMutability":"nonpayable"},{"type":"function","name":"addToBlacklist","inputs":[{"name":"selector_","type":"bytes4","internalType":"bytes4"}],"outputs":[],"stateMutability":"nonpayable"},{"type":"function","name":"decodeAmountIn","inputs":[{"name":"txData_","type":"bytes","internalType":"bytes"},{"name":"genericSwapDisallowed_","type":"bool","internalType":"bool"}],"outputs":[{"name":"amount_","type":"uint256","internalType":"uint256"}],"stateMutability":"view"},{"type":"function","name":"decodeDstSwap","inputs":[{"name":"txData_","type":"bytes","internalType":"bytes"}],"outputs":[{"name":"token_","type":"address","internalType":"address"},{"name":"amount_","type":"uint256","internalType":"uint256"}],"stateMutability":"pure"},{"type":"function","name":"decodeSwapOutputToken","inputs":[{"name":"txData_","type":"bytes","internalType":"bytes"}],"outputs":[{"name":"token_","type":"address","internalType":"address"}],"stateMutability":"pure"},{"type":"function","name":"extractGenericSwapParameters","inputs":[{"name":"data_","type":"bytes","internalType":"bytes"}],"outputs":[{"name":"sendingAssetId","type":"address","internalType":"address"},{"name":"amount","type":"uint256","internalType":"uint256"},{"name":"receiver","type":"address","internalType":"address"},{"name":"receivingAssetId","type":"address","internalType":"address"},{"name":"receivingAmount","type":"uint256","internalType":"uint256"}],"stateMutability":"pure"},{"type":"function","name":"extractMainParameters","inputs":[{"name":"data_","type":"bytes","internalType":"bytes"}],"outputs":[{"name":"bridge","type":"string","internalType":"string"},{"name":"sendingAssetId","type":"address","internalType":"address"},{"name":"receiver","type":"address","internalType":"address"},{"name":"amount","type":"uint256","internalType":"uint256"},{"name":"minAmount","type":"uint256","internalType":"uint256"},{"name":"destinationChainId","type":"uint256","internalType":"uint256"},{"name":"hasSourceSwaps","type":"bool","internalType":"bool"},{"name":"hasDestinationCall","type":"bool","internalType":"bool"}],"stateMutability":"pure"},{"type":"function","name":"isSelectorBlacklisted","inputs":[{"name":"selector_","type":"bytes4","internalType":"bytes4"}],"outputs":[{"name":"blacklisted","type":"bool","internalType":"bool"}],"stateMutability":"view"},{"type":"function","name":"removeFromBlacklist","inputs":[{"name":"selector_","type":"bytes4","internalType":"bytes4"}],"outputs":[],"stateMutability":"nonpayable"},{"type":"function","name":"superRegistry","inputs":[],"outputs":[{"name":"","type":"address","internalType":"contract ISuperRegistry"}],"stateMutability":"view"},{"type":"function","name":"validateReceiver","inputs":[{"name":"txData_","type":"bytes","internalType":"bytes"},{"name":"receiver_","type":"address","internalType":"address"}],"outputs":[{"name":"valid_","type":"bool","internalType":"bool"}],"stateMutability":"view"},{"type":"function","name":"validateTxData","inputs":[{"name":"args_","type":"tuple","internalType":"struct IBridgeValidator.ValidateTxDataArgs","components":[{"name":"txData","type":"bytes","internalType":"bytes"},{"name":"srcChainId","type":"uint64","internalType":"uint64"},{"name":"dstChainId","type":"uint64","internalType":"uint64"},{"name":"liqDstChainId","type":"uint64","internalType":"uint64"},{"name":"deposit","type":"bool","internalType":"bool"},{"name":"superform","type":"address","internalType":"address"},{"name":"receiverAddress","type":"address","internalType":"address"},{"name":"liqDataToken","type":"address","internalType":"address"},{"name":"liqDataInterimToken","type":"address","internalType":"address"}]}],"outputs":[{"name":"hasDstSwap","type":"bool","internalType":"bool"}],"stateMutability":"view"},{"type":"event","name":"AddedToBlacklist","inputs":[{"name":"selector","type":"bytes4","indexed":false,"internalType":"bytes4"}],"anonymous":false},{"type":"event","name":"RemovedFromBlacklist","inputs":[{"name":"selector","type":"bytes4","indexed":false,"internalType":"bytes4"}],"anonymous":false},{"type":"error","name":"BLACKLISTED_SELECTOR","inputs":[]},{"type":"error","name":"CANNOT_DECODE_FINAL_SWAP_OUTPUT_TOKEN","inputs":[]},{"type":"error","name":"INVALID_ACTION","inputs":[]},{"type":"error","name":"INVALID_DEPOSIT_LIQ_DST_CHAIN_ID","inputs":[]},{"type":"error","name":"INVALID_INTERIM_TOKEN","inputs":[]},{"type":"error","name":"INVALID_TXDATA_CHAIN_ID","inputs":[]},{"type":"error","name":"INVALID_TXDATA_NO_DESTINATIONCALL_ALLOWED","inputs":[]},{"type":"error","name":"INVALID_TXDATA_RECEIVER","inputs":[]},{"type":"error","name":"INVALID_TXDATA_TOKEN","inputs":[]},{"type":"error","name":"NOT_BLACKLISTED_SELECTOR","inputs":[]},{"type":"error","name":"NOT_EMERGENCY_ADMIN","inputs":[]},{"type":"error","name":"SliceOutOfBounds","inputs":[]},{"type":"error","name":"SliceOverflow","inputs":[]},{"type":"error","name":"ZERO_ADDRESS","inputs":[]}],"bytecode":{"object":"0x60a06040523480156200001157600080fd5b506040516200502e3803806200502e833981810160405281019062000037919062001273565b80600073ffffffffffffffffffffffffffffffffffffffff168173ffffffffffffffffffffffffffffffffffffffff16036200009f576040517f538ba4f900000000000000000000000000000000000000000000000000000000815260040160405180910390fd5b8073ffffffffffffffffffffffffffffffffffffffff1660808173ffffffffffffffffffffffffffffffffffffffff16815250505060016000806278afb660e01b7bffffffffffffffffffffffffffffffffffffffffffffffffffffffff19167bffffffffffffffffffffffffffffffffffffffffffffffffffffffff1916815260200190815260200160002060006101000a81548160ff0219169083151502179055507ff967995388bbe865d41ba23ec47431305009e55fbfaa7b9ad68849af62c75f236278afb660e01b6040516200017a9190620012e2565b60405180910390a16001600080630193979f60e01b7bffffffffffffffffffffffffffffffffffffffffffffffffffffffff19167bffffffffffffffffffffffffffffffffffffffffffffffffffffffff1916815260200190815260200160002060006101000a81548160ff0219169083151502179055507ff967995388bbe865d41ba23ec47431305009e55fbfaa7b9ad68849af62c75f23630193979f60e01b6040516200022a9190620012e2565b60405180910390a1600160008063f684869760e01b7bffffffffffffffffffffffffffffffffffffffffffffffffffffffff19167bffffffffffffffffffffffffffffffffffffffffffffffffffffffff1916815260200190815260200160002060006101000a81548160ff0219169083151502179055507ff967995388bbe865d41ba23ec47431305009e55fbfaa7b9ad68849af62c75f2363f684869760e01b604051620002da9190620012e2565b60405180910390a1600160008063dee4be1b60e01b7bffffffffffffffffffffffffffffffffffffffffffffffffffffffff19167bffffffffffffffffffffffffffffffffffffffffffffffffffffffff1916815260200190815260200160002060006101000a81548160ff0219169083151502179055507ff967995388bbe865d41ba23ec47431305009e55fbfaa7b9ad68849af62c75f2363dee4be1b60e01b6040516200038a9190620012e2565b60405180910390a1600160008063161be54260e01b7bffffffffffffffffffffffffffffffffffffffffffffffffffffffff19167bffffffffffffffffffffffffffffffffffffffffffffffffffffffff1916815260200190815260200160002060006101000a81548160ff0219169083151502179055507ff967995388bbe865d41ba23ec47431305009e55fbfaa7b9ad68849af62c75f2363161be54260e01b6040516200043a9190620012e2565b60405180910390a160016000806304c5aa3460e01b7bffffffffffffffffffffffffffffffffffffffffffffffffffffffff19167bffffffffffffffffffffffffffffffffffffffffffffffffffffffff1916815260200190815260200160002060006101000a81548160ff0219169083151502179055507ff967995388bbe865d41ba23ec47431305009e55fbfaa7b9ad68849af62c75f236304c5aa3460e01b604051620004ea9190620012e2565b60405180910390a1600160008063c5ae0fe660e01b7bffffffffffffffffffffffffffffffffffffffffffffffffffffffff19167bffffffffffffffffffffffffffffffffffffffffffffffffffffffff1916815260200190815260200160002060006101000a81548160ff0219169083151502179055507ff967995388bbe865d41ba23ec47431305009e55fbfaa7b9ad68849af62c75f2363c5ae0fe660e01b6040516200059a9190620012e2565b60405180910390a160016000806376e04bbc60e01b7bffffffffffffffffffffffffffffffffffffffffffffffffffffffff19167bffffffffffffffffffffffffffffffffffffffffffffffffffffffff1916815260200190815260200160002060006101000a81548160ff0219169083151502179055507ff967995388bbe865d41ba23ec47431305009e55fbfaa7b9ad68849af62c75f236376e04bbc60e01b6040516200064a9190620012e2565b60405180910390a16001600080631223354c60e01b7bffffffffffffffffffffffffffffffffffffffffffffffffffffffff19167bffffffffffffffffffffffffffffffffffffffffffffffffffffffff1916815260200190815260200160002060006101000a81548160ff0219169083151502179055507ff967995388bbe865d41ba23ec47431305009e55fbfaa7b9ad68849af62c75f23631223354c60e01b604051620006fa9190620012e2565b60405180910390a1600160008063c5e04e3060e01b7bffffffffffffffffffffffffffffffffffffffffffffffffffffffff19167bffffffffffffffffffffffffffffffffffffffffffffffffffffffff1916815260200190815260200160002060006101000a81548160ff0219169083151502179055507ff967995388bbe865d41ba23ec47431305009e55fbfaa7b9ad68849af62c75f2363c5e04e3060e01b604051620007aa9190620012e2565b60405180910390a160016000806333619a2d60e01b7bffffffffffffffffffffffffffffffffffffffffffffffffffffffff19167bffffffffffffffffffffffffffffffffffffffffffffffffffffffff1916815260200190815260200160002060006101000a81548160ff0219169083151502179055507ff967995388bbe865d41ba23ec47431305009e55fbfaa7b9ad68849af62c75f236333619a2d60e01b6040516200085a9190620012e2565b60405180910390a16001600080634b06e05f60e01b7bffffffffffffffffffffffffffffffffffffffffffffffffffffffff19167bffffffffffffffffffffffffffffffffffffffffffffffffffffffff1916815260200190815260200160002060006101000a81548160ff0219169083151502179055507ff967995388bbe865d41ba23ec47431305009e55fbfaa7b9ad68849af62c75f23634b06e05f60e01b6040516200090a9190620012e2565b60405180910390a1600160008063b3b6358760e01b7bffffffffffffffffffffffffffffffffffffffffffffffffffffffff19167bffffffffffffffffffffffffffffffffffffffffffffffffffffffff1916815260200190815260200160002060006101000a81548160ff0219169083151502179055507ff967995388bbe865d41ba23ec47431305009e55fbfaa7b9ad68849af62c75f2363b3b6358760e01b604051620009ba9190620012e2565b60405180910390a1600160008063a01fe78460e01b7bffffffffffffffffffffffffffffffffffffffffffffffffffffffff19167bffffffffffffffffffffffffffffffffffffffffffffffffffffffff1916815260200190815260200160002060006101000a81548160ff0219169083151502179055507ff967995388bbe865d41ba23ec47431305009e55fbfaa7b9ad68849af62c75f2363a01fe78460e01b60405162000a6a9190620012e2565b60405180910390a1600160008063082bc04760e01b7bffffffffffffffffffffffffffffffffffffffffffffffffffffffff19167bffffffffffffffffffffffffffffffffffffffffffffffffffffffff1916815260200190815260200160002060006101000a81548160ff0219169083151502179055507ff967995388bbe865d41ba23ec47431305009e55fbfaa7b9ad68849af62c75f2363082bc04760e01b60405162000b1a9190620012e2565b60405180910390a160016000806303add8c360e01b7bffffffffffffffffffffffffffffffffffffffffffffffffffffffff19167bffffffffffffffffffffffffffffffffffffffffffffffffffffffff1916815260200190815260200160002060006101000a81548160ff0219169083151502179055507ff967995388bbe865d41ba23ec47431305009e55fbfaa7b9ad68849af62c75f236303add8c360e01b60405162000bca9190620012e2565b60405180910390a160016000806342afe79a60e01b7bffffffffffffffffffffffffffffffffffffffffffffffffffffffff19167bffffffffffffffffffffffffffffffffffffffffffffffffffffffff1916815260200190815260200160002060006101000a81548160ff0219169083151502179055507ff967995388bbe865d41ba23ec47431305009e55fbfaa7b9ad68849af62c75f236342afe79a60e01b60405162000c7a9190620012e2565b60405180910390a16001600080638d03f45660e01b7bffffffffffffffffffffffffffffffffffffffffffffffffffffffff19167bffffffffffffffffffffffffffffffffffffffffffffffffffffffff1916815260200190815260200160002060006101000a81548160ff0219169083151502179055507ff967995388bbe865d41ba23ec47431305009e55fbfaa7b9ad68849af62c75f23638d03f45660e01b60405162000d2a9190620012e2565b60405180910390a16001600080630b4cb5d860e01b7bffffffffffffffffffffffffffffffffffffffffffffffffffffffff19167bffffffffffffffffffffffffffffffffffffffffffffffffffffffff1916815260200190815260200160002060006101000a81548160ff0219169083151502179055507ff967995388bbe865d41ba23ec47431305009e55fbfaa7b9ad68849af62c75f23630b4cb5d860e01b60405162000dda9190620012e2565b60405180910390a160016000806355c99cd860e01b7bffffffffffffffffffffffffffffffffffffffffffffffffffffffff19167bffffffffffffffffffffffffffffffffffffffffffffffffffffffff1916815260200190815260200160002060006101000a81548160ff0219169083151502179055507ff967995388bbe865d41ba23ec47431305009e55fbfaa7b9ad68849af62c75f236355c99cd860e01b60405162000e8a9190620012e2565b60405180910390a1600160008063d40e64cc60e01b7bffffffffffffffffffffffffffffffffffffffffffffffffffffffff19167bffffffffffffffffffffffffffffffffffffffffffffffffffffffff1916815260200190815260200160002060006101000a81548160ff0219169083151502179055507ff967995388bbe865d41ba23ec47431305009e55fbfaa7b9ad68849af62c75f2363d40e64cc60e01b60405162000f3a9190620012e2565b60405180910390a1600160008063ca360ae060e01b7bffffffffffffffffffffffffffffffffffffffffffffffffffffffff19167bffffffffffffffffffffffffffffffffffffffffffffffffffffffff1916815260200190815260200160002060006101000a81548160ff0219169083151502179055507ff967995388bbe865d41ba23ec47431305009e55fbfaa7b9ad68849af62c75f2363ca360ae060e01b60405162000fea9190620012e2565b60405180910390a16001600080638dc9932d60e01b7bffffffffffffffffffffffffffffffffffffffffffffffffffffffff19167bffffffffffffffffffffffffffffffffffffffffffffffffffffffff1916815260200190815260200160002060006101000a81548160ff0219169083151502179055507ff967995388bbe865d41ba23ec47431305009e55fbfaa7b9ad68849af62c75f23638dc9932d60e01b6040516200109a9190620012e2565b60405180910390a160016000806383f3191760e01b7bffffffffffffffffffffffffffffffffffffffffffffffffffffffff19167bffffffffffffffffffffffffffffffffffffffffffffffffffffffff1916815260200190815260200160002060006101000a81548160ff0219169083151502179055507ff967995388bbe865d41ba23ec47431305009e55fbfaa7b9ad68849af62c75f236383f3191760e01b6040516200114a9190620012e2565b60405180910390a1600160008063d6a4bc5060e01b7bffffffffffffffffffffffffffffffffffffffffffffffffffffffff19167bffffffffffffffffffffffffffffffffffffffffffffffffffffffff1916815260200190815260200160002060006101000a81548160ff0219169083151502179055507ff967995388bbe865d41ba23ec47431305009e55fbfaa7b9ad68849af62c75f2363d6a4bc5060e01b604051620011fa9190620012e2565b60405180910390a150620012ff565b600080fd5b600073ffffffffffffffffffffffffffffffffffffffff82169050919050565b60006200123b826200120e565b9050919050565b6200124d816200122e565b81146200125957600080fd5b50565b6000815190506200126d8162001242565b92915050565b6000602082840312156200128c576200128b62001209565b5b60006200129c848285016200125c565b91505092915050565b60007fffffffff0000000000000000000000000000000000000000000000000000000082169050919050565b620012dc81620012a5565b82525050565b6000602082019050620012f96000830184620012d1565b92915050565b608051613cf76200133760003960008181610292015281816106300152818161080801528181611a320152611b300152613cf76000f3fe608060405234801561001057600080fd5b50600436106100a95760003560e01c8063806fa94e11610071578063806fa94e1461017957806390d97ddb146101955780639bbbb5c8146101c5578063c318eeda146101f5578063c87439eb14610229578063ee0aa32014610259576100a9565b80630b568e55146100ae5780631d51a3d7146100ca57806324c73dda146100fa5780632db88323146101185780633d898b1e14610148575b600080fd5b6100c860048036038101906100c39190612158565b610290565b005b6100e460048036038101906100df9190612248565b610527565b6040516100f191906122c3565b60405180910390f35b61010261062e565b60405161010f919061233d565b60405180910390f35b610132600480360381019061012d9190612358565b610652565b60405161013f91906123b4565b60405180910390f35b610162600480360381019061015d9190612358565b610706565b6040516101709291906123e8565b60405180910390f35b610193600480360381019061018e9190612158565b610806565b005b6101af60048036038101906101aa9190612158565b610aa7565b6040516101bc91906122c3565b60405180910390f35b6101df60048036038101906101da919061243d565b610b0e565b6040516101ec919061249d565b60405180910390f35b61020f600480360381019061020a9190612358565b610c36565b6040516102209594939291906124b8565b60405180910390f35b610243600480360381019061023e9190612530565b610dda565b60405161025091906122c3565b60405180910390f35b610273600480360381019061026e9190612358565b610f1f565b604051610287989796959493929190612609565b60405180910390f35b7f000000000000000000000000000000000000000000000000000000000000000073ffffffffffffffffffffffffffffffffffffffff166321f8a7217f6b50fa17b77d24e42e27a04b69fe50cd6967cfb767d18de0bd5fe7e1a32aa8686040518263ffffffff1660e01b815260040161030991906126a7565b602060405180830381865afa158015610326573d6000803e3d6000fd5b505050506040513d601f19601f8201168201806040525081019061034a91906126d7565b73ffffffffffffffffffffffffffffffffffffffff16632f41ca96336040518263ffffffff1660e01b815260040161038291906123b4565b602060405180830381865afa15801561039f573d6000803e3d6000fd5b505050506040513d601f19601f820116820180604052508101906103c39190612719565b6103f9576040517f445b0c3a00000000000000000000000000000000000000000000000000000000815260040160405180910390fd5b600080827bffffffffffffffffffffffffffffffffffffffffffffffffffffffff19167bffffffffffffffffffffffffffffffffffffffffffffffffffffffff1916815260200190815260200160002060009054906101000a900460ff1661048d576040517f7c862d6800000000000000000000000000000000000000000000000000000000815260040160405180910390fd5b600080827bffffffffffffffffffffffffffffffffffffffffffffffffffffffff19167bffffffffffffffffffffffffffffffffffffffffffffffffffffffff1916815260200190815260200160002060006101000a81549060ff02191690557fb542e3e96ecd6e2051bea7ec3e1285f3ff1180fcd314bcaf1c9147fedf4040398160405161051c9190612755565b60405180910390a150565b6000806105348585610ff7565b9050600061054182610aa7565b15610578576040517f09f47dc900000000000000000000000000000000000000000000000000000000815260040160405180910390fd5b634630a0d860e01b7bffffffffffffffffffffffffffffffffffffffffffffffffffffffff1916827bffffffffffffffffffffffffffffffffffffffffffffffffffffffff1916036105e3576105ce8686610c36565b909192935090919250905050809150506105f4565b6105ed868661108e565b9050809150505b8373ffffffffffffffffffffffffffffffffffffffff168173ffffffffffffffffffffffffffffffffffffffff1614925050509392505050565b7f000000000000000000000000000000000000000000000000000000000000000081565b60008061065f8484610ff7565b9050634630a0d860e01b7bffffffffffffffffffffffffffffffffffffffffffffffffffffffff1916817bffffffffffffffffffffffffffffffffffffffffffffffffffffffff1916036106ce576106b78484610c36565b909192935090919250909150508092505050610700565b6040517f561b96ce00000000000000000000000000000000000000000000000000000000815260040160405180910390fd5b92915050565b60008060006107158585610ff7565b9050634630a0d860e01b7bffffffffffffffffffffffffffffffffffffffffffffffffffffffff1916817bffffffffffffffffffffffffffffffffffffffffffffffffffffffff1916036107cd5761076d8585610c36565b9091509050508093508194505050600073ffffffffffffffffffffffffffffffffffffffff168373ffffffffffffffffffffffffffffffffffffffff16036107c75773eeeeeeeeeeeeeeeeeeeeeeeeeeeeeeeeeeeeeeee92505b506107ff565b6040517ff33d056900000000000000000000000000000000000000000000000000000000815260040160405180910390fd5b9250929050565b7f000000000000000000000000000000000000000000000000000000000000000073ffffffffffffffffffffffffffffffffffffffff166321f8a7217f6b50fa17b77d24e42e27a04b69fe50cd6967cfb767d18de0bd5fe7e1a32aa8686040518263ffffffff1660e01b815260040161087f91906126a7565b602060405180830381865afa15801561089c573d6000803e3d6000fd5b505050506040513d601f19601f820116820180604052508101906108c091906126d7565b73ffffffffffffffffffffffffffffffffffffffff16632f41ca96336040518263ffffffff1660e01b81526004016108f891906123b4565b602060405180830381865afa158015610915573d6000803e3d6000fd5b505050506040513d601f19601f820116820180604052508101906109399190612719565b61096f576040517f445b0c3a00000000000000000000000000000000000000000000000000000000815260040160405180910390fd5b600080827bffffffffffffffffffffffffffffffffffffffffffffffffffffffff19167bffffffffffffffffffffffffffffffffffffffffffffffffffffffff1916815260200190815260200160002060009054906101000a900460ff1615610a04576040517f09f47dc900000000000000000000000000000000000000000000000000000000815260040160405180910390fd5b6001600080837bffffffffffffffffffffffffffffffffffffffffffffffffffffffff19167bffffffffffffffffffffffffffffffffffffffffffffffffffffffff1916815260200190815260200160002060006101000a81548160ff0219169083151502179055507ff967995388bbe865d41ba23ec47431305009e55fbfaa7b9ad68849af62c75f2381604051610a9c9190612755565b60405180910390a150565b6000806000837bffffffffffffffffffffffffffffffffffffffffffffffffffffffff19167bffffffffffffffffffffffffffffffffffffffffffffffffffffffff1916815260200190815260200160002060009054906101000a900460ff169050919050565b600080610b1b8585610ff7565b9050610b2681610aa7565b15610b5d576040517f09f47dc900000000000000000000000000000000000000000000000000000000815260040160405180910390fd5b634630a0d860e01b7bffffffffffffffffffffffffffffffffffffffffffffffffffffffff1916817bffffffffffffffffffffffffffffffffffffffffffffffffffffffff191603610c00578215610be1576040517ff33d056900000000000000000000000000000000000000000000000000000000815260040160405180910390fd5b610beb8585610c36565b90919293509091509050508092505050610c2f565b610c0a8585610f1f565b9091929394959650909192939495509091929394509091925090915090505080925050505b9392505050565b60008060008060006060600088888080601f016020809104026020016040519081016040528093929190818152602001838380828437600081840152601f19601f82011690508083019250505050505050905063d6a4bc5060e01b7bffffffffffffffffffffffffffffffffffffffffffffffffffffffff19168989600090600492610cc49392919061277a565b90610ccf91906127cd565b7bffffffffffffffffffffffffffffffffffffffffffffffffffffffff191603610d165788886004908092610d069392919061277a565b810190610d13919061295c565b90505b610d2e816004808451610d2991906129d4565b611556565b806020019051810190610d419190612d6a565b90919293945090919293509091925080945081955082975050505081600081518110610d7057610d6f612e4b565b5b602002602001015160400151965081600081518110610d9257610d91612e4b565b5b60200260200101516080015195508160018351610daf91906129d4565b81518110610dc057610dbf612e4b565b5b602002602001015160600151935050509295509295909350565b600080610df5838060000190610df09190612e89565b610ff7565b9050600080600080610e0685610aa7565b15610e3d576040517f09f47dc900000000000000000000000000000000000000000000000000000000815260040160405180910390fd5b634630a0d860e01b7bffffffffffffffffffffffffffffffffffffffffffffffffffffffff1916857bffffffffffffffffffffffffffffffffffffffffffffffffffffffff191603610ec957610ea1878060000190610e9c9190612e89565b610c36565b909192509050508094508195505050610ebb878486611662565b600095505050505050610f1a565b610ee1878060000190610edc9190612e89565b610f1f565b9091929394959650909192935090919250905080955081945082965083975050505050610f12878388868886611918565b955050505050505b919050565b60606000806000806000806000610f34611f2c565b610f3e8b8b61108e565b809850819250505080610100015115610fa9576000610f5d8c8c611e38565b905080600081518110610f7357610f72612e4b565b5b602002602001015160400151985080600081518110610f9557610f94612e4b565b5b602002602001015160800151965050610fb8565b806080015197508060c0015195505b8060c0015194508060200151888888888560e0015186610100015187610120015198509850985098509850985098509850509295985092959890939650565b6000828260009060049261100d9392919061277a565b9061101891906127cd565b905063d6a4bc5060e01b7bffffffffffffffffffffffffffffffffffffffffffffffffffffffff1916817bffffffffffffffffffffffffffffffffffffffffffffffffffffffff19160361108857828260049060089261107a9392919061277a565b9061108591906127cd565b90505b92915050565b611096611f2c565b60008084848080601f016020809104026020016040519081016040528093929190818152602001838380828437600081840152601f19601f82011690508083019250505050505050905063d6a4bc5060e01b7bffffffffffffffffffffffffffffffffffffffffffffffffffffffff1916858560009060049261111b9392919061277a565b9061112691906127cd565b7bffffffffffffffffffffffffffffffffffffffffffffffffffffffff19160361116d578484600490809261115d9392919061277a565b81019061116a919061295c565b90505b6000818060200190518101906111839190612f01565b9050638dc9932d60e01b7bffffffffffffffffffffffffffffffffffffffffffffffffffffffff1916817bffffffffffffffffffffffffffffffffffffffffffffffffffffffff19160361121b576111d9611fc8565b6111f18360048086516111ec91906129d4565b611556565b8060200190518101906112049190613168565b80925081965050508060200151935050505061154f565b6383f3191760e01b7bffffffffffffffffffffffffffffffffffffffffffffffffffffffff1916817bffffffffffffffffffffffffffffffffffffffffffffffffffffffff1916036112b35761126f611fc8565b61128783600480865161128291906129d4565b611556565b80602001905181019061129a91906131e0565b905080925081965050508060200151935050505061154f565b63be1eace760e01b7bffffffffffffffffffffffffffffffffffffffffffffffffffffffff1916817bffffffffffffffffffffffffffffffffffffffffffffffffffffffff19160361135357611307612039565b61131f83600480865161131a91906129d4565b611556565b8060200190518101906113329190613389565b809250819650505060008160c001519050601481015194505050505061154f565b63ed17861960e01b7bffffffffffffffffffffffffffffffffffffffffffffffffffffffff1916817bffffffffffffffffffffffffffffffffffffffffffffffffffffffff1916036113f5576113a7612039565b6113bf8360048086516113ba91906129d4565b611556565b8060200190518101906113d29190613401565b9050809250819650505060008160c001519050601481015194505050505061154f565b6305095ded60e01b7bffffffffffffffffffffffffffffffffffffffffffffffffffffffff1916817bffffffffffffffffffffffffffffffffffffffffffffffffffffffff19160361148b57611449612094565b61146183600480865161145c91906129d4565b611556565b80602001905181019061147491906135e5565b80925081965050508460a00151935050505061154f565b63b06c52da60e01b7bffffffffffffffffffffffffffffffffffffffffffffffffffffffff1916817bffffffffffffffffffffffffffffffffffffffffffffffffffffffff191603611523576114df612094565b6114f78360048086516114f291906129d4565b611556565b80602001905181019061150a919061365d565b905080925081965050508460a00151935050505061154f565b858560049080926115369392919061277a565b81019061154391906138cc565b93508360a00151925050505b9250929050565b606081601f836115669190613915565b101561159e576040517f47aaf07a00000000000000000000000000000000000000000000000000000000815260040160405180910390fd5b81836115aa9190613915565b845110156115e4576040517f3b99b53d00000000000000000000000000000000000000000000000000000000815260040160405180910390fd5b60608215600081146116055760405191506000825260208201604052611656565b6040519150601f8416801560200281840101858101878315602002848b0101015b818310156116435780518352602083019250602081019050611626565b50868552601f19601f8301166040525050505b50809150509392505050565b8260800160208101906116759190613949565b156117d85782604001602081019061168d919061398b565b67ffffffffffffffff168360200160208101906116aa919061398b565b67ffffffffffffffff16146116eb576040517f111beafb00000000000000000000000000000000000000000000000000000000815260040160405180910390fd5b8260600160208101906116fe919061398b565b67ffffffffffffffff1683604001602081019061171b919061398b565b67ffffffffffffffff161461175c576040517fc199244a00000000000000000000000000000000000000000000000000000000815260040160405180910390fd5b8260a001602081019061176f91906139b8565b73ffffffffffffffffffffffffffffffffffffffff168273ffffffffffffffffffffffffffffffffffffffff16146117d3576040517fb076b2fc00000000000000000000000000000000000000000000000000000000815260040160405180910390fd5b611850565b8260c00160208101906117eb91906139b8565b73ffffffffffffffffffffffffffffffffffffffff168273ffffffffffffffffffffffffffffffffffffffff161461184f576040517fb076b2fc00000000000000000000000000000000000000000000000000000000815260040160405180910390fd5b5b600073ffffffffffffffffffffffffffffffffffffffff168173ffffffffffffffffffffffffffffffffffffffff160361189c5773eeeeeeeeeeeeeeeeeeeeeeeeeeeeeeeeeeeeeeee90505b8073ffffffffffffffffffffffffffffffffffffffff168360e00160208101906118c691906139b8565b73ffffffffffffffffffffffffffffffffffffffff1614611913576040517fd19f398900000000000000000000000000000000000000000000000000000000815260040160405180910390fd5b505050565b60008515611952576040517f3b46473600000000000000000000000000000000000000000000000000000000815260040160405180910390fd5b81876060016020810190611966919061398b565b67ffffffffffffffff16146119a7576040517f111beafb00000000000000000000000000000000000000000000000000000000815260040160405180910390fd5b8660800160208101906119ba9190613949565b15611cf0578660400160208101906119d2919061398b565b67ffffffffffffffff168760200160208101906119ef919061398b565b67ffffffffffffffff1603611a30576040517ff33d056900000000000000000000000000000000000000000000000000000000815260040160405180910390fd5b7f000000000000000000000000000000000000000000000000000000000000000073ffffffffffffffffffffffffffffffffffffffff1663dfcf829b7f494dfdc880823954ed6700117eb435b9bca3643417437b5781c1a89fba6e8b97896040016020810190611aa0919061398b565b6040518363ffffffff1660e01b8152600401611abd9291906139f4565b602060405180830381865afa158015611ada573d6000803e3d6000fd5b505050506040513d601f19601f82011682018060405250810190611afe91906126d7565b73ffffffffffffffffffffffffffffffffffffffff168473ffffffffffffffffffffffffffffffffffffffff161494507f000000000000000000000000000000000000000000000000000000000000000073ffffffffffffffffffffffffffffffffffffffff1663dfcf829b7f55b101fc856aff484166c46ad33bc74831c135693c159b0092bb3b72254ffb6b896040016020810190611b9e919061398b565b6040518363ffffffff1660e01b8152600401611bbb9291906139f4565b602060405180830381865afa158015611bd8573d6000803e3d6000fd5b505050506040513d601f19601f82011682018060405250810190611bfc91906126d7565b73ffffffffffffffffffffffffffffffffffffffff168473ffffffffffffffffffffffffffffffffffffffff161480611c325750845b611c68576040517fb076b2fc00000000000000000000000000000000000000000000000000000000815260040160405180910390fd5b848015611cb45750600073ffffffffffffffffffffffffffffffffffffffff1687610100016020810190611c9c91906139b8565b73ffffffffffffffffffffffffffffffffffffffff16145b15611ceb576040517fd849d6a100000000000000000000000000000000000000000000000000000000815260040160405180910390fd5b611d68565b8660c0016020810190611d0391906139b8565b73ffffffffffffffffffffffffffffffffffffffff168473ffffffffffffffffffffffffffffffffffffffff1614611d67576040517fb076b2fc00000000000000000000000000000000000000000000000000000000815260040160405180910390fd5b5b600073ffffffffffffffffffffffffffffffffffffffff168373ffffffffffffffffffffffffffffffffffffffff1603611db45773eeeeeeeeeeeeeeeeeeeeeeeeeeeeeeeeeeeeeeee92505b8273ffffffffffffffffffffffffffffffffffffffff168760e0016020810190611dde91906139b8565b73ffffffffffffffffffffffffffffffffffffffff1614611e2b576040517fd19f398900000000000000000000000000000000000000000000000000000000815260040160405180910390fd5b8490509695505050505050565b606063d6a4bc5060e01b7bffffffffffffffffffffffffffffffffffffffffffffffffffffffff19168383600090600492611e759392919061277a565b90611e8091906127cd565b7bffffffffffffffffffffffffffffffffffffffffffffffffffffffff191603611eff57600083836004908092611eb99392919061277a565b810190611ec6919061295c565b9050611ee0816004808451611edb91906129d4565b611556565b806020019051810190611ef39190613a1d565b90508092505050611f26565b82826004908092611f129392919061277a565b810190611f1f9190613c1a565b9050809150505b92915050565b604051806101400160405280600080191681526020016060815260200160608152602001600073ffffffffffffffffffffffffffffffffffffffff168152602001600073ffffffffffffffffffffffffffffffffffffffff168152602001600073ffffffffffffffffffffffffffffffffffffffff16815260200160008152602001600081526020016000151581526020016000151581525090565b6040518060e0016040528060608152602001600073ffffffffffffffffffffffffffffffffffffffff1681526020016000815260200160008152602001600073ffffffffffffffffffffffffffffffffffffffff168152602001600063ffffffff1681526020016000151581525090565b6040518061010001604052806000815260200160008152602001600081526020016000815260200160008152602001600073ffffffffffffffffffffffffffffffffffffffff16815260200160608152602001606081525090565b6040518060c00160405280600063ffffffff168152602001600067ffffffffffffffff168152602001606081526020016060815260200160008152602001600060068111156120e6576120e5613c92565b5b81525090565b6000604051905090565b600080fd5b600080fd5b60007fffffffff0000000000000000000000000000000000000000000000000000000082169050919050565b61213581612100565b811461214057600080fd5b50565b6000813590506121528161212c565b92915050565b60006020828403121561216e5761216d6120f6565b5b600061217c84828501612143565b91505092915050565b600080fd5b600080fd5b600080fd5b60008083601f8401126121aa576121a9612185565b5b8235905067ffffffffffffffff8111156121c7576121c661218a565b5b6020830191508360018202830111156121e3576121e261218f565b5b9250929050565b600073ffffffffffffffffffffffffffffffffffffffff82169050919050565b6000612215826121ea565b9050919050565b6122258161220a565b811461223057600080fd5b50565b6000813590506122428161221c565b92915050565b600080600060408486031215612261576122606120f6565b5b600084013567ffffffffffffffff81111561227f5761227e6120fb565b5b61228b86828701612194565b9350935050602061229e86828701612233565b9150509250925092565b60008115159050919050565b6122bd816122a8565b82525050565b60006020820190506122d860008301846122b4565b92915050565b6000819050919050565b60006123036122fe6122f9846121ea565b6122de565b6121ea565b9050919050565b6000612315826122e8565b9050919050565b60006123278261230a565b9050919050565b6123378161231c565b82525050565b6000602082019050612352600083018461232e565b92915050565b6000806020838503121561236f5761236e6120f6565b5b600083013567ffffffffffffffff81111561238d5761238c6120fb565b5b61239985828601612194565b92509250509250929050565b6123ae8161220a565b82525050565b60006020820190506123c960008301846123a5565b92915050565b6000819050919050565b6123e2816123cf565b82525050565b60006040820190506123fd60008301856123a5565b61240a60208301846123d9565b9392505050565b61241a816122a8565b811461242557600080fd5b50565b60008135905061243781612411565b92915050565b600080600060408486031215612456576124556120f6565b5b600084013567ffffffffffffffff811115612474576124736120fb565b5b61248086828701612194565b9350935050602061249386828701612428565b9150509250925092565b60006020820190506124b260008301846123d9565b92915050565b600060a0820190506124cd60008301886123a5565b6124da60208301876123d9565b6124e760408301866123a5565b6124f460608301856123a5565b61250160808301846123d9565b9695505050505050565b600080fd5b600061012082840312156125275761252661250b565b5b81905092915050565b600060208284031215612546576125456120f6565b5b600082013567ffffffffffffffff811115612564576125636120fb565b5b61257084828501612510565b91505092915050565b600081519050919050565b600082825260208201905092915050565b60005b838110156125b3578082015181840152602081019050612598565b60008484015250505050565b6000601f19601f8301169050919050565b60006125db82612579565b6125e58185612584565b93506125f5818560208601612595565b6125fe816125bf565b840191505092915050565b6000610100820190508181036000830152612624818b6125d0565b9050612633602083018a6123a5565b61264060408301896123a5565b61264d60608301886123d9565b61265a60808301876123d9565b61266760a08301866123d9565b61267460c08301856122b4565b61268160e08301846122b4565b9998505050505050505050565b6000819050919050565b6126a18161268e565b82525050565b60006020820190506126bc6000830184612698565b92915050565b6000815190506126d18161221c565b92915050565b6000602082840312156126ed576126ec6120f6565b5b60006126fb848285016126c2565b91505092915050565b60008151905061271381612411565b92915050565b60006020828403121561272f5761272e6120f6565b5b600061273d84828501612704565b91505092915050565b61274f81612100565b82525050565b600060208201905061276a6000830184612746565b92915050565b600080fd5b600080fd5b6000808585111561278e5761278d612770565b5b8386111561279f5761279e612775565b5b6001850283019150848603905094509492505050565b600082905092915050565b600082821b905092915050565b60006127d983836127b5565b826127e48135612100565b925060048210156128245761281f7fffffffff00000000000000000000000000000000000000000000000000000000836004036008026127c0565b831692505b505092915050565b600080fd5b7f4e487b7100000000000000000000000000000000000000000000000000000000600052604160045260246000fd5b612869826125bf565b810181811067ffffffffffffffff8211171561288857612887612831565b5b80604052505050565b600061289b6120ec565b90506128a78282612860565b919050565b600067ffffffffffffffff8211156128c7576128c6612831565b5b6128d0826125bf565b9050602081019050919050565b82818337600083830152505050565b60006128ff6128fa846128ac565b612891565b90508281526020810184848401111561291b5761291a61282c565b5b6129268482856128dd565b509392505050565b600082601f83011261294357612942612185565b5b81356129538482602086016128ec565b91505092915050565b600060208284031215612972576129716120f6565b5b600082013567ffffffffffffffff8111156129905761298f6120fb565b5b61299c8482850161292e565b91505092915050565b7f4e487b7100000000000000000000000000000000000000000000000000000000600052601160045260246000fd5b60006129df826123cf565b91506129ea836123cf565b9250828203905081811115612a0257612a016129a5565b5b92915050565b612a118161268e565b8114612a1c57600080fd5b50565b600081519050612a2e81612a08565b92915050565b600067ffffffffffffffff821115612a4f57612a4e612831565b5b612a58826125bf565b9050602081019050919050565b6000612a78612a7384612a34565b612891565b905082815260208101848484011115612a9457612a9361282c565b5b612a9f848285612595565b509392505050565b600082601f830112612abc57612abb612185565b5b8151612acc848260208601612a65565b91505092915050565b6000612ae0826121ea565b9050919050565b612af081612ad5565b8114612afb57600080fd5b50565b600081519050612b0d81612ae7565b92915050565b612b1c816123cf565b8114612b2757600080fd5b50565b600081519050612b3981612b13565b92915050565b600067ffffffffffffffff821115612b5a57612b59612831565b5b602082029050602081019050919050565b600080fd5b600080fd5b6000612b88612b83846128ac565b612891565b905082815260208101848484011115612ba457612ba361282c565b5b612baf848285612595565b509392505050565b600082601f830112612bcc57612bcb612185565b5b8151612bdc848260208601612b75565b91505092915050565b600060e08284031215612bfb57612bfa612b6b565b5b612c0560e0612891565b90506000612c15848285016126c2565b6000830152506020612c29848285016126c2565b6020830152506040612c3d848285016126c2565b6040830152506060612c51848285016126c2565b6060830152506080612c6584828501612b2a565b60808301525060a082015167ffffffffffffffff811115612c8957612c88612b70565b5b612c9584828501612bb7565b60a08301525060c0612ca984828501612704565b60c08301525092915050565b6000612cc8612cc384612b3f565b612891565b90508083825260208201905060208402830185811115612ceb57612cea61218f565b5b835b81811015612d3257805167ffffffffffffffff811115612d1057612d0f612185565b5b808601612d1d8982612be5565b85526020850194505050602081019050612ced565b5050509392505050565b600082601f830112612d5157612d50612185565b5b8151612d61848260208601612cb5565b91505092915050565b60008060008060008060c08789031215612d8757612d866120f6565b5b6000612d9589828a01612a1f565b965050602087015167ffffffffffffffff811115612db657612db56120fb565b5b612dc289828a01612aa7565b955050604087015167ffffffffffffffff811115612de357612de26120fb565b5b612def89828a01612aa7565b9450506060612e0089828a01612afe565b9350506080612e1189828a01612b2a565b92505060a087015167ffffffffffffffff811115612e3257612e316120fb565b5b612e3e89828a01612d3c565b9150509295509295509295565b7f4e487b7100000000000000000000000000000000000000000000000000000000600052603260045260246000fd5b600080fd5b600080fd5b600080fd5b60008083356001602003843603038112612ea657612ea5612e7a565b5b80840192508235915067ffffffffffffffff821115612ec857612ec7612e7f565b5b602083019250600182023603831315612ee457612ee3612e84565b5b509250929050565b600081519050612efb8161212c565b92915050565b600060208284031215612f1757612f166120f6565b5b6000612f2584828501612eec565b91505092915050565b60006101408284031215612f4557612f44612b6b565b5b612f50610140612891565b90506000612f6084828501612a1f565b600083015250602082015167ffffffffffffffff811115612f8457612f83612b70565b5b612f9084828501612aa7565b602083015250604082015167ffffffffffffffff811115612fb457612fb3612b70565b5b612fc084828501612aa7565b6040830152506060612fd4848285016126c2565b6060830152506080612fe8848285016126c2565b60808301525060a0612ffc848285016126c2565b60a08301525060c061301084828501612b2a565b60c08301525060e061302484828501612b2a565b60e08301525061010061303984828501612704565b6101008301525061012061304f84828501612704565b6101208301525092915050565b600063ffffffff82169050919050565b6130758161305c565b811461308057600080fd5b50565b6000815190506130928161306c565b92915050565b600060e082840312156130ae576130ad612b6b565b5b6130b860e0612891565b9050600082015167ffffffffffffffff8111156130d8576130d7612b70565b5b6130e484828501612bb7565b60008301525060206130f8848285016126c2565b602083015250604061310c84828501612b2a565b604083015250606061312084828501612b2a565b6060830152506080613134848285016126c2565b60808301525060a061314884828501613083565b60a08301525060c061315c84828501612704565b60c08301525092915050565b6000806040838503121561317f5761317e6120f6565b5b600083015167ffffffffffffffff81111561319d5761319c6120fb565b5b6131a985828601612f2e565b925050602083015167ffffffffffffffff8111156131ca576131c96120fb565b5b6131d685828601613098565b9150509250929050565b6000806000606084860312156131f9576131f86120f6565b5b600084015167ffffffffffffffff811115613217576132166120fb565b5b61322386828701612f2e565b935050602084015167ffffffffffffffff811115613244576132436120fb565b5b61325086828701612d3c565b925050604084015167ffffffffffffffff811115613271576132706120fb565b5b61327d86828701613098565b9150509250925092565b6000610100828403121561329e5761329d612b6b565b5b6132a9610100612891565b905060006132b984828501612b2a565b60008301525060206132cd84828501612b2a565b60208301525060406132e184828501612b2a565b60408301525060606132f584828501612b2a565b606083015250608061330984828501612b2a565b60808301525060a061331d84828501612afe565b60a08301525060c082015167ffffffffffffffff81111561334157613340612b70565b5b61334d84828501612bb7565b60c08301525060e082015167ffffffffffffffff81111561337157613370612b70565b5b61337d84828501612bb7565b60e08301525092915050565b600080604083850312156133a05761339f6120f6565b5b600083015167ffffffffffffffff8111156133be576133bd6120fb565b5b6133ca85828601612f2e565b925050602083015167ffffffffffffffff8111156133eb576133ea6120fb565b5b6133f785828601613287565b9150509250929050565b60008060006060848603121561341a576134196120f6565b5b600084015167ffffffffffffffff811115613438576134376120fb565b5b61344486828701612f2e565b935050602084015167ffffffffffffffff811115613465576134646120fb565b5b61347186828701612d3c565b925050604084015167ffffffffffffffff811115613492576134916120fb565b5b61349e86828701613287565b9150509250925092565b600067ffffffffffffffff82169050919050565b6134c5816134a8565b81146134d057600080fd5b50565b6000815190506134e2816134bc565b92915050565b600781106134f557600080fd5b50565b600081519050613507816134e8565b92915050565b600060c0828403121561352357613522612b6b565b5b61352d60c0612891565b9050600061353d84828501613083565b6000830152506020613551848285016134d3565b602083015250604082015167ffffffffffffffff81111561357557613574612b70565b5b61358184828501612bb7565b604083015250606082015167ffffffffffffffff8111156135a5576135a4612b70565b5b6135b184828501612bb7565b60608301525060806135c584828501612b2a565b60808301525060a06135d9848285016134f8565b60a08301525092915050565b600080604083850312156135fc576135fb6120f6565b5b600083015167ffffffffffffffff81111561361a576136196120fb565b5b61362685828601612f2e565b925050602083015167ffffffffffffffff811115613647576136466120fb565b5b6136538582860161350d565b9150509250929050565b600080600060608486031215613676576136756120f6565b5b600084015167ffffffffffffffff811115613694576136936120fb565b5b6136a086828701612f2e565b935050602084015167ffffffffffffffff8111156136c1576136c06120fb565b5b6136cd86828701612d3c565b925050604084015167ffffffffffffffff8111156136ee576136ed6120fb565b5b6136fa8682870161350d565b9150509250925092565b60008135905061371381612a08565b92915050565b600061372c61372784612a34565b612891565b9050828152602081018484840111156137485761374761282c565b5b6137538482856128dd565b509392505050565b600082601f8301126137705761376f612185565b5b8135613780848260208601613719565b91505092915050565b60008135905061379881612b13565b92915050565b600061014082840312156137b5576137b4612b6b565b5b6137c0610140612891565b905060006137d084828501613704565b600083015250602082013567ffffffffffffffff8111156137f4576137f3612b70565b5b6138008482850161375b565b602083015250604082013567ffffffffffffffff81111561382457613823612b70565b5b6138308482850161375b565b604083015250606061384484828501612233565b606083015250608061385884828501612233565b60808301525060a061386c84828501612233565b60a08301525060c061388084828501613789565b60c08301525060e061389484828501613789565b60e0830152506101006138a984828501612428565b610100830152506101206138bf84828501612428565b6101208301525092915050565b6000602082840312156138e2576138e16120f6565b5b600082013567ffffffffffffffff811115613900576138ff6120fb565b5b61390c8482850161379e565b91505092915050565b6000613920826123cf565b915061392b836123cf565b9250828201905080821115613943576139426129a5565b5b92915050565b60006020828403121561395f5761395e6120f6565b5b600061396d84828501612428565b91505092915050565b600081359050613985816134bc565b92915050565b6000602082840312156139a1576139a06120f6565b5b60006139af84828501613976565b91505092915050565b6000602082840312156139ce576139cd6120f6565b5b60006139dc84828501612233565b91505092915050565b6139ee816134a8565b82525050565b6000604082019050613a096000830185612698565b613a1660208301846139e5565b9392505050565b60008060408385031215613a3457613a336120f6565b5b600083015167ffffffffffffffff811115613a5257613a516120fb565b5b613a5e85828601612f2e565b925050602083015167ffffffffffffffff811115613a7f57613a7e6120fb565b5b613a8b85828601612d3c565b9150509250929050565b600060e08284031215613aab57613aaa612b6b565b5b613ab560e0612891565b90506000613ac584828501612233565b6000830152506020613ad984828501612233565b6020830152506040613aed84828501612233565b6040830152506060613b0184828501612233565b6060830152506080613b1584828501613789565b60808301525060a082013567ffffffffffffffff811115613b3957613b38612b70565b5b613b458482850161292e565b60a08301525060c0613b5984828501612428565b60c08301525092915050565b6000613b78613b7384612b3f565b612891565b90508083825260208201905060208402830185811115613b9b57613b9a61218f565b5b835b81811015613be257803567ffffffffffffffff811115613bc057613bbf612185565b5b808601613bcd8982613a95565b85526020850194505050602081019050613b9d565b5050509392505050565b600082601f830112613c0157613c00612185565b5b8135613c11848260208601613b65565b91505092915050565b60008060408385031215613c3157613c306120f6565b5b600083013567ffffffffffffffff811115613c4f57613c4e6120fb565b5b613c5b8582860161379e565b925050602083013567ffffffffffffffff811115613c7c57613c7b6120fb565b5b613c8885828601613bec565b9150509250929050565b7f4e487b7100000000000000000000000000000000000000000000000000000000600052602160045260246000fdfea264697066735822122016c3a654af500cd231e0c186d023aee93ca15dbdcc0aa4083056f05c09e95f7f64736f6c63430008170033","linkReferences":{}},"methodIdentifiers":{"addToBlacklist(bytes4)":"806fa94e","decodeAmountIn(bytes,bool)":"9bbbb5c8","decodeDstSwap(bytes)":"3d898b1e","decodeSwapOutputToken(bytes)":"2db88323","extractGenericSwapParameters(bytes)":"c318eeda","extractMainParameters(bytes)":"ee0aa320","isSelectorBlacklisted(bytes4)":"90d97ddb","removeFromBlacklist(bytes4)":"0b568e55","superRegistry()":"24c73dda","validateReceiver(bytes,address)":"1d51a3d7","validateTxData((bytes,uint64,uint64,uint64,bool,address,address,address,address))":"c87439eb"},"id":132}