{"abi":[{"type":"constructor","inputs":[{"name":"superRegistry_","type":"address","internalType":"address"}],"stateMutability":"nonpayable"},{"type":"receive","stateMutability":"payable"},{"type":"function","name":"CHAIN_ID","inputs":[],"outputs":[{"name":"","type":"uint64","internalType":"uint64"}],"stateMutability":"view"},{"type":"function","name":"forwardDustToPaymaster","inputs":[{"name":"token_","type":"address","internalType":"address"}],"outputs":[],"stateMutability":"nonpayable"},{"type":"function","name":"multiDstMultiVaultDeposit","inputs":[{"name":"req_","type":"tuple","internalType":"struct MultiDstMultiVaultStateReq","components":[{"name":"ambIds","type":"uint8[][]","internalType":"uint8[][]"},{"name":"dstChainIds","type":"uint64[]","internalType":"uint64[]"},{"name":"superformsData","type":"tuple[]","internalType":"struct MultiVaultSFData[]","components":[{"name":"superformIds","type":"uint256[]","internalType":"uint256[]"},{"name":"amounts","type":"uint256[]","internalType":"uint256[]"},{"name":"outputAmounts","type":"uint256[]","internalType":"uint256[]"},{"name":"maxSlippages","type":"uint256[]","internalType":"uint256[]"},{"name":"liqRequests","type":"tuple[]","internalType":"struct LiqRequest[]","components":[{"name":"txData","type":"bytes","internalType":"bytes"},{"name":"token","type":"address","internalType":"address"},{"name":"interimToken","type":"address","internalType":"address"},{"name":"bridgeId","type":"uint8","internalType":"uint8"},{"name":"liqDstChainId","type":"uint64","internalType":"uint64"},{"name":"nativeAmount","type":"uint256","internalType":"uint256"}]},{"name":"permit2data","type":"bytes","internalType":"bytes"},{"name":"hasDstSwaps","type":"bool[]","internalType":"bool[]"},{"name":"retain4626s","type":"bool[]","internalType":"bool[]"},{"name":"receiverAddress","type":"address","internalType":"address"},{"name":"receiverAddressSP","type":"address","internalType":"address"},{"name":"extraFormData","type":"bytes","internalType":"bytes"}]}]}],"outputs":[],"stateMutability":"payable"},{"type":"function","name":"multiDstMultiVaultWithdraw","inputs":[{"name":"req_","type":"tuple","internalType":"struct MultiDstMultiVaultStateReq","components":[{"name":"ambIds","type":"uint8[][]","internalType":"uint8[][]"},{"name":"dstChainIds","type":"uint64[]","internalType":"uint64[]"},{"name":"superformsData","type":"tuple[]","internalType":"struct MultiVaultSFData[]","components":[{"name":"superformIds","type":"uint256[]","internalType":"uint256[]"},{"name":"amounts","type":"uint256[]","internalType":"uint256[]"},{"name":"outputAmounts","type":"uint256[]","internalType":"uint256[]"},{"name":"maxSlippages","type":"uint256[]","internalType":"uint256[]"},{"name":"liqRequests","type":"tuple[]","internalType":"struct LiqRequest[]","components":[{"name":"txData","type":"bytes","internalType":"bytes"},{"name":"token","type":"address","internalType":"address"},{"name":"interimToken","type":"address","internalType":"address"},{"name":"bridgeId","type":"uint8","internalType":"uint8"},{"name":"liqDstChainId","type":"uint64","internalType":"uint64"},{"name":"nativeAmount","type":"uint256","internalType":"uint256"}]},{"name":"permit2data","type":"bytes","internalType":"bytes"},{"name":"hasDstSwaps","type":"bool[]","internalType":"bool[]"},{"name":"retain4626s","type":"bool[]","internalType":"bool[]"},{"name":"receiverAddress","type":"address","internalType":"address"},{"name":"receiverAddressSP","type":"address","internalType":"address"},{"name":"extraFormData","type":"bytes","internalType":"bytes"}]}]}],"outputs":[],"stateMutability":"payable"},{"type":"function","name":"multiDstSingleVaultDeposit","inputs":[{"name":"req_","type":"tuple","internalType":"struct MultiDstSingleVaultStateReq","components":[{"name":"ambIds","type":"uint8[][]","internalType":"uint8[][]"},{"name":"dstChainIds","type":"uint64[]","internalType":"uint64[]"},{"name":"superformsData","type":"tuple[]","internalType":"struct SingleVaultSFData[]","components":[{"name":"superformId","type":"uint256","internalType":"uint256"},{"name":"amount","type":"uint256","internalType":"uint256"},{"name":"outputAmount","type":"uint256","internalType":"uint256"},{"name":"maxSlippage","type":"uint256","internalType":"uint256"},{"name":"liqRequest","type":"tuple","internalType":"struct LiqRequest","components":[{"name":"txData","type":"bytes","internalType":"bytes"},{"name":"token","type":"address","internalType":"address"},{"name":"interimToken","type":"address","internalType":"address"},{"name":"bridgeId","type":"uint8","internalType":"uint8"},{"name":"liqDstChainId","type":"uint64","internalType":"uint64"},{"name":"nativeAmount","type":"uint256","internalType":"uint256"}]},{"name":"permit2data","type":"bytes","internalType":"bytes"},{"name":"hasDstSwap","type":"bool","internalType":"bool"},{"name":"retain4626","type":"bool","internalType":"bool"},{"name":"receiverAddress","type":"address","internalType":"address"},{"name":"receiverAddressSP","type":"address","internalType":"address"},{"name":"extraFormData","type":"bytes","internalType":"bytes"}]}]}],"outputs":[],"stateMutability":"payable"},{"type":"function","name":"multiDstSingleVaultWithdraw","inputs":[{"name":"req_","type":"tuple","internalType":"struct MultiDstSingleVaultStateReq","components":[{"name":"ambIds","type":"uint8[][]","internalType":"uint8[][]"},{"name":"dstChainIds","type":"uint64[]","internalType":"uint64[]"},{"name":"superformsData","type":"tuple[]","internalType":"struct SingleVaultSFData[]","components":[{"name":"superformId","type":"uint256","internalType":"uint256"},{"name":"amount","type":"uint256","internalType":"uint256"},{"name":"outputAmount","type":"uint256","internalType":"uint256"},{"name":"maxSlippage","type":"uint256","internalType":"uint256"},{"name":"liqRequest","type":"tuple","internalType":"struct LiqRequest","components":[{"name":"txData","type":"bytes","internalType":"bytes"},{"name":"token","type":"address","internalType":"address"},{"name":"interimToken","type":"address","internalType":"address"},{"name":"bridgeId","type":"uint8","internalType":"uint8"},{"name":"liqDstChainId","type":"uint64","internalType":"uint64"},{"name":"nativeAmount","type":"uint256","internalType":"uint256"}]},{"name":"permit2data","type":"bytes","internalType":"bytes"},{"name":"hasDstSwap","type":"bool","internalType":"bool"},{"name":"retain4626","type":"bool","internalType":"bool"},{"name":"receiverAddress","type":"address","internalType":"address"},{"name":"receiverAddressSP","type":"address","internalType":"address"},{"name":"extraFormData","type":"bytes","internalType":"bytes"}]}]}],"outputs":[],"stateMutability":"payable"},{"type":"function","name":"payloadIds","inputs":[],"outputs":[{"name":"","type":"uint256","internalType":"uint256"}],"stateMutability":"view"},{"type":"function","name":"singleDirectMultiVaultDeposit","inputs":[{"name":"req_","type":"tuple","internalType":"struct SingleDirectMultiVaultStateReq","components":[{"name":"superformData","type":"tuple","internalType":"struct MultiVaultSFData","components":[{"name":"superformIds","type":"uint256[]","internalType":"uint256[]"},{"name":"amounts","type":"uint256[]","internalType":"uint256[]"},{"name":"outputAmounts","type":"uint256[]","internalType":"uint256[]"},{"name":"maxSlippages","type":"uint256[]","internalType":"uint256[]"},{"name":"liqRequests","type":"tuple[]","internalType":"struct LiqRequest[]","components":[{"name":"txData","type":"bytes","internalType":"bytes"},{"name":"token","type":"address","internalType":"address"},{"name":"interimToken","type":"address","internalType":"address"},{"name":"bridgeId","type":"uint8","internalType":"uint8"},{"name":"liqDstChainId","type":"uint64","internalType":"uint64"},{"name":"nativeAmount","type":"uint256","internalType":"uint256"}]},{"name":"permit2data","type":"bytes","internalType":"bytes"},{"name":"hasDstSwaps","type":"bool[]","internalType":"bool[]"},{"name":"retain4626s","type":"bool[]","internalType":"bool[]"},{"name":"receiverAddress","type":"address","internalType":"address"},{"name":"receiverAddressSP","type":"address","internalType":"address"},{"name":"extraFormData","type":"bytes","internalType":"bytes"}]}]}],"outputs":[],"stateMutability":"payable"},{"type":"function","name":"singleDirectMultiVaultWithdraw","inputs":[{"name":"req_","type":"tuple","internalType":"struct SingleDirectMultiVaultStateReq","components":[{"name":"superformData","type":"tuple","internalType":"struct MultiVaultSFData","components":[{"name":"superformIds","type":"uint256[]","internalType":"uint256[]"},{"name":"amounts","type":"uint256[]","internalType":"uint256[]"},{"name":"outputAmounts","type":"uint256[]","internalType":"uint256[]"},{"name":"maxSlippages","type":"uint256[]","internalType":"uint256[]"},{"name":"liqRequests","type":"tuple[]","internalType":"struct LiqRequest[]","components":[{"name":"txData","type":"bytes","internalType":"bytes"},{"name":"token","type":"address","internalType":"address"},{"name":"interimToken","type":"address","internalType":"address"},{"name":"bridgeId","type":"uint8","internalType":"uint8"},{"name":"liqDstChainId","type":"uint64","internalType":"uint64"},{"name":"nativeAmount","type":"uint256","internalType":"uint256"}]},{"name":"permit2data","type":"bytes","internalType":"bytes"},{"name":"hasDstSwaps","type":"bool[]","internalType":"bool[]"},{"name":"retain4626s","type":"bool[]","internalType":"bool[]"},{"name":"receiverAddress","type":"address","internalType":"address"},{"name":"receiverAddressSP","type":"address","internalType":"address"},{"name":"extraFormData","type":"bytes","internalType":"bytes"}]}]}],"outputs":[],"stateMutability":"payable"},{"type":"function","name":"singleDirectSingleVaultDeposit","inputs":[{"name":"req_","type":"tuple","internalType":"struct SingleDirectSingleVaultStateReq","components":[{"name":"superformData","type":"tuple","internalType":"struct SingleVaultSFData","components":[{"name":"superformId","type":"uint256","internalType":"uint256"},{"name":"amount","type":"uint256","internalType":"uint256"},{"name":"outputAmount","type":"uint256","internalType":"uint256"},{"name":"maxSlippage","type":"uint256","internalType":"uint256"},{"name":"liqRequest","type":"tuple","internalType":"struct LiqRequest","components":[{"name":"txData","type":"bytes","internalType":"bytes"},{"name":"token","type":"address","internalType":"address"},{"name":"interimToken","type":"address","internalType":"address"},{"name":"bridgeId","type":"uint8","internalType":"uint8"},{"name":"liqDstChainId","type":"uint64","internalType":"uint64"},{"name":"nativeAmount","type":"uint256","internalType":"uint256"}]},{"name":"permit2data","type":"bytes","internalType":"bytes"},{"name":"hasDstSwap","type":"bool","internalType":"bool"},{"name":"retain4626","type":"bool","internalType":"bool"},{"name":"receiverAddress","type":"address","internalType":"address"},{"name":"receiverAddressSP","type":"address","internalType":"address"},{"name":"extraFormData","type":"bytes","internalType":"bytes"}]}]}],"outputs":[],"stateMutability":"payable"},{"type":"function","name":"singleDirectSingleVaultWithdraw","inputs":[{"name":"req_","type":"tuple","internalType":"struct SingleDirectSingleVaultStateReq","components":[{"name":"superformData","type":"tuple","internalType":"struct SingleVaultSFData","components":[{"name":"superformId","type":"uint256","internalType":"uint256"},{"name":"amount","type":"uint256","internalType":"uint256"},{"name":"outputAmount","type":"uint256","internalType":"uint256"},{"name":"maxSlippage","type":"uint256","internalType":"uint256"},{"name":"liqRequest","type":"tuple","internalType":"struct LiqRequest","components":[{"name":"txData","type":"bytes","internalType":"bytes"},{"name":"token","type":"address","internalType":"address"},{"name":"interimToken","type":"address","internalType":"address"},{"name":"bridgeId","type":"uint8","internalType":"uint8"},{"name":"liqDstChainId","type":"uint64","internalType":"uint64"},{"name":"nativeAmount","type":"uint256","internalType":"uint256"}]},{"name":"permit2data","type":"bytes","internalType":"bytes"},{"name":"hasDstSwap","type":"bool","internalType":"bool"},{"name":"retain4626","type":"bool","internalType":"bool"},{"name":"receiverAddress","type":"address","internalType":"address"},{"name":"receiverAddressSP","type":"address","internalType":"address"},{"name":"extraFormData","type":"bytes","internalType":"bytes"}]}]}],"outputs":[],"stateMutability":"payable"},{"type":"function","name":"singleXChainMultiVaultDeposit","inputs":[{"name":"req_","type":"tuple","internalType":"struct SingleXChainMultiVaultStateReq","components":[{"name":"ambIds","type":"uint8[]","internalType":"uint8[]"},{"name":"dstChainId","type":"uint64","internalType":"uint64"},{"name":"superformsData","type":"tuple","internalType":"struct MultiVaultSFData","components":[{"name":"superformIds","type":"uint256[]","internalType":"uint256[]"},{"name":"amounts","type":"uint256[]","internalType":"uint256[]"},{"name":"outputAmounts","type":"uint256[]","internalType":"uint256[]"},{"name":"maxSlippages","type":"uint256[]","internalType":"uint256[]"},{"name":"liqRequests","type":"tuple[]","internalType":"struct LiqRequest[]","components":[{"name":"txData","type":"bytes","internalType":"bytes"},{"name":"token","type":"address","internalType":"address"},{"name":"interimToken","type":"address","internalType":"address"},{"name":"bridgeId","type":"uint8","internalType":"uint8"},{"name":"liqDstChainId","type":"uint64","internalType":"uint64"},{"name":"nativeAmount","type":"uint256","internalType":"uint256"}]},{"name":"permit2data","type":"bytes","internalType":"bytes"},{"name":"hasDstSwaps","type":"bool[]","internalType":"bool[]"},{"name":"retain4626s","type":"bool[]","internalType":"bool[]"},{"name":"receiverAddress","type":"address","internalType":"address"},{"name":"receiverAddressSP","type":"address","internalType":"address"},{"name":"extraFormData","type":"bytes","internalType":"bytes"}]}]}],"outputs":[],"stateMutability":"payable"},{"type":"function","name":"singleXChainMultiVaultWithdraw","inputs":[{"name":"req_","type":"tuple","internalType":"struct SingleXChainMultiVaultStateReq","components":[{"name":"ambIds","type":"uint8[]","internalType":"uint8[]"},{"name":"dstChainId","type":"uint64","internalType":"uint64"},{"name":"superformsData","type":"tuple","internalType":"struct MultiVaultSFData","components":[{"name":"superformIds","type":"uint256[]","internalType":"uint256[]"},{"name":"amounts","type":"uint256[]","internalType":"uint256[]"},{"name":"outputAmounts","type":"uint256[]","internalType":"uint256[]"},{"name":"maxSlippages","type":"uint256[]","internalType":"uint256[]"},{"name":"liqRequests","type":"tuple[]","internalType":"struct LiqRequest[]","components":[{"name":"txData","type":"bytes","internalType":"bytes"},{"name":"token","type":"address","internalType":"address"},{"name":"interimToken","type":"address","internalType":"address"},{"name":"bridgeId","type":"uint8","internalType":"uint8"},{"name":"liqDstChainId","type":"uint64","internalType":"uint64"},{"name":"nativeAmount","type":"uint256","internalType":"uint256"}]},{"name":"permit2data","type":"bytes","internalType":"bytes"},{"name":"hasDstSwaps","type":"bool[]","internalType":"bool[]"},{"name":"retain4626s","type":"bool[]","internalType":"bool[]"},{"name":"receiverAddress","type":"address","internalType":"address"},{"name":"receiverAddressSP","type":"address","internalType":"address"},{"name":"extraFormData","type":"bytes","internalType":"bytes"}]}]}],"outputs":[],"stateMutability":"payable"},{"type":"function","name":"singleXChainSingleVaultDeposit","inputs":[{"name":"req_","type":"tuple","internalType":"struct SingleXChainSingleVaultStateReq","components":[{"name":"ambIds","type":"uint8[]","internalType":"uint8[]"},{"name":"dstChainId","type":"uint64","internalType":"uint64"},{"name":"superformData","type":"tuple","internalType":"struct SingleVaultSFData","components":[{"name":"superformId","type":"uint256","internalType":"uint256"},{"name":"amount","type":"uint256","internalType":"uint256"},{"name":"outputAmount","type":"uint256","internalType":"uint256"},{"name":"maxSlippage","type":"uint256","internalType":"uint256"},{"name":"liqRequest","type":"tuple","internalType":"struct LiqRequest","components":[{"name":"txData","type":"bytes","internalType":"bytes"},{"name":"token","type":"address","internalType":"address"},{"name":"interimToken","type":"address","internalType":"address"},{"name":"bridgeId","type":"uint8","internalType":"uint8"},{"name":"liqDstChainId","type":"uint64","internalType":"uint64"},{"name":"nativeAmount","type":"uint256","internalType":"uint256"}]},{"name":"permit2data","type":"bytes","internalType":"bytes"},{"name":"hasDstSwap","type":"bool","internalType":"bool"},{"name":"retain4626","type":"bool","internalType":"bool"},{"name":"receiverAddress","type":"address","internalType":"address"},{"name":"receiverAddressSP","type":"address","internalType":"address"},{"name":"extraFormData","type":"bytes","internalType":"bytes"}]}]}],"outputs":[],"stateMutability":"payable"},{"type":"function","name":"singleXChainSingleVaultWithdraw","inputs":[{"name":"req_","type":"tuple","internalType":"struct SingleXChainSingleVaultStateReq","components":[{"name":"ambIds","type":"uint8[]","internalType":"uint8[]"},{"name":"dstChainId","type":"uint64","internalType":"uint64"},{"name":"superformData","type":"tuple","internalType":"struct SingleVaultSFData","components":[{"name":"superformId","type":"uint256","internalType":"uint256"},{"name":"amount","type":"uint256","internalType":"uint256"},{"name":"outputAmount","type":"uint256","internalType":"uint256"},{"name":"maxSlippage","type":"uint256","internalType":"uint256"},{"name":"liqRequest","type":"tuple","internalType":"struct LiqRequest","components":[{"name":"txData","type":"bytes","internalType":"bytes"},{"name":"token","type":"address","internalType":"address"},{"name":"interimToken","type":"address","internalType":"address"},{"name":"bridgeId","type":"uint8","internalType":"uint8"},{"name":"liqDstChainId","type":"uint64","internalType":"uint64"},{"name":"nativeAmount","type":"uint256","internalType":"uint256"}]},{"name":"permit2data","type":"bytes","internalType":"bytes"},{"name":"hasDstSwap","type":"bool","internalType":"bool"},{"name":"retain4626","type":"bool","internalType":"bool"},{"name":"receiverAddress","type":"address","internalType":"address"},{"name":"receiverAddressSP","type":"address","internalType":"address"},{"name":"extraFormData","type":"bytes","internalType":"bytes"}]}]}],"outputs":[],"stateMutability":"payable"},{"type":"function","name":"superRegistry","inputs":[],"outputs":[{"name":"","type":"address","internalType":"contract ISuperRegistry"}],"stateMutability":"view"},{"type":"event","name":"Completed","inputs":[],"anonymous":false},{"type":"event","name":"CrossChainInitiatedDepositMulti","inputs":[{"name":"payloadId","type":"uint256","indexed":true,"internalType":"uint256"},{"name":"dstChainId","type":"uint64","indexed":true,"internalType":"uint64"},{"name":"superformIds","type":"uint256[]","indexed":false,"internalType":"uint256[]"},{"name":"amountsIn","type":"uint256[]","indexed":false,"internalType":"uint256[]"},{"name":"bridgeIds","type":"uint8[]","indexed":false,"internalType":"uint8[]"},{"name":"ambIds","type":"uint8[]","indexed":false,"internalType":"uint8[]"}],"anonymous":false},{"type":"event","name":"CrossChainInitiatedDepositSingle","inputs":[{"name":"payloadId","type":"uint256","indexed":true,"internalType":"uint256"},{"name":"dstChainId","type":"uint64","indexed":true,"internalType":"uint64"},{"name":"superformIds","type":"uint256","indexed":false,"internalType":"uint256"},{"name":"amountIn","type":"uint256","indexed":false,"internalType":"uint256"},{"name":"bridgeId","type":"uint8","indexed":false,"internalType":"uint8"},{"name":"ambIds","type":"uint8[]","indexed":false,"internalType":"uint8[]"}],"anonymous":false},{"type":"event","name":"CrossChainInitiatedWithdrawMulti","inputs":[{"name":"payloadId","type":"uint256","indexed":true,"internalType":"uint256"},{"name":"dstChainId","type":"uint64","indexed":true,"internalType":"uint64"},{"name":"superformIds","type":"uint256[]","indexed":false,"internalType":"uint256[]"},{"name":"ambIds","type":"uint8[]","indexed":false,"internalType":"uint8[]"}],"anonymous":false},{"type":"event","name":"CrossChainInitiatedWithdrawSingle","inputs":[{"name":"payloadId","type":"uint256","indexed":true,"internalType":"uint256"},{"name":"dstChainId","type":"uint64","indexed":true,"internalType":"uint64"},{"name":"superformIds","type":"uint256","indexed":false,"internalType":"uint256"},{"name":"ambIds","type":"uint8[]","indexed":false,"internalType":"uint8[]"}],"anonymous":false},{"type":"event","name":"RouterDustForwardedToPaymaster","inputs":[{"name":"token","type":"address","indexed":true,"internalType":"address"},{"name":"amount","type":"uint256","indexed":true,"internalType":"uint256"}],"anonymous":false},{"type":"error","name":"AddressEmptyCode","inputs":[{"name":"target","type":"address","internalType":"address"}]},{"type":"error","name":"AddressInsufficientBalance","inputs":[{"name":"account","type":"address","internalType":"address"}]},{"type":"error","name":"BLOCK_CHAIN_ID_OUT_OF_BOUNDS","inputs":[]},{"type":"error","name":"ERC1155InvalidReceiver","inputs":[{"name":"receiver","type":"address","internalType":"address"}]},{"type":"error","name":"FAILED_TO_EXECUTE_TXDATA","inputs":[{"name":"token","type":"address","internalType":"address"}]},{"type":"error","name":"FailedInnerCall","inputs":[]},{"type":"error","name":"INSUFFICIENT_ALLOWANCE_FOR_DEPOSIT","inputs":[]},{"type":"error","name":"INSUFFICIENT_BALANCE","inputs":[]},{"type":"error","name":"INSUFFICIENT_NATIVE_AMOUNT","inputs":[]},{"type":"error","name":"INVALID_ACTION","inputs":[]},{"type":"error","name":"INVALID_CHAIN_ID","inputs":[]},{"type":"error","name":"INVALID_DEPOSIT_TOKEN","inputs":[]},{"type":"error","name":"INVALID_SUPERFORMS_DATA","inputs":[]},{"type":"error","name":"NO_TXDATA_PRESENT","inputs":[]},{"type":"error","name":"SafeERC20FailedOperation","inputs":[{"name":"token","type":"address","internalType":"address"}]},{"type":"error","name":"ZERO_ADDRESS","inputs":[]},{"type":"error","name":"ZERO_AMOUNT","inputs":[]}],"bytecode":{"object":"0x60c06040523480156200001157600080fd5b50604051620082e5380380620082e58339818101604052810190620000379190620001a8565b8080600073ffffffffffffffffffffffffffffffffffffffff168173ffffffffffffffffffffffffffffffffffffffff1603620000a0576040517f538ba4f900000000000000000000000000000000000000000000000000000000815260040160405180910390fd5b67ffffffffffffffff8016461115620000e5576040517f7ecdf93300000000000000000000000000000000000000000000000000000000815260040160405180910390fd5b4667ffffffffffffffff1660a08167ffffffffffffffff16815250508073ffffffffffffffffffffffffffffffffffffffff1660808173ffffffffffffffffffffffffffffffffffffffff1681525050505050620001da565b600080fd5b600073ffffffffffffffffffffffffffffffffffffffff82169050919050565b6000620001708262000143565b9050919050565b620001828162000163565b81146200018e57600080fd5b50565b600081519050620001a28162000177565b92915050565b600060208284031215620001c157620001c06200013e565b5b6000620001d18482850162000191565b91505092915050565b60805160a0516180596200028c6000396000818161037001528181610592015281816107eb015281816108cc01528181610b3a01528181610d1901528181610f81015281816114680152818161168201528181611c61015281816121a3015281816123720152818161283e015261324701526000818161074301528181612acd01528181612df7015281816136fc01528181613e3a0152818161404801528181614463015261513801526180596000f3fe6080604052600436106100f75760003560e01c806385e1f4d01161008a578063b19dcc3311610059578063b19dcc331461028d578063e5672e23146102a9578063f9d4f18c146102c5578063fa0f64eb146102e1576100fe565b806385e1f4d01461020e57806387493e2114610239578063881d42bb14610255578063ae1068f214610271576100fe565b8063407c7b1d116100c6578063407c7b1d146101825780634325082e1461019e5780634dcd03c0146101c957806367d70a29146101f2576100fe565b8063165b7a3b14610103578063178f00381461011f57806324c73dda1461013b5780632c1c0ba414610166576100fe565b366100fe57005b600080fd5b61011d60048036038101906101189190615d08565b6102fd565b005b61013960048036038101906101349190615d70565b61051f565b005b34801561014757600080fd5b50610150610741565b60405161015d9190615e38565b60405180910390f35b610180600480360381019061017b9190616650565b610765565b005b61019c60048036038101906101979190616851565b61078b565b005b3480156101aa57600080fd5b506101b36107b1565b6040516101c091906168a9565b60405180910390f35b3480156101d557600080fd5b506101f060048036038101906101eb91906168c4565b6107b7565b005b61020c60048036038101906102079190616a50565b6107c3565b005b34801561021a57600080fd5b506102236107e9565b6040516102309190616aa8565b60405180910390f35b610253600480360381019061024e9190616b5f565b61080d565b005b61026f600480360381019061026a9190616b5f565b610833565b005b61028b60048036038101906102869190615d70565b610859565b005b6102a760048036038101906102a29190616851565b610a7b565b005b6102c360048036038101906102be9190616a50565b610aa1565b005b6102df60048036038101906102da9190615d08565b610ac7565b005b6102fb60048036038101906102f69190616650565b610ce9565b005b6000344761030b9190616bd7565b9050600082806020019061031f9190616c1a565b9050905060005b818110156105105783806020019061033e9190616c1a565b8281811061034f5761034e616c7d565b5b90506020020160208101906103649190616cac565b67ffffffffffffffff167f000000000000000000000000000000000000000000000000000000000000000067ffffffffffffffff16036103f5576103f060405180602001604052808680604001906103bc9190616cd9565b858181106103cd576103cc616c7d565b5b90506020028101906103df9190616d3c565b6103e890616d65565b815250610d0f565b610505565b61050460405180606001604052808680600001906104139190616d78565b8581811061042457610423616c7d565b5b90506020028101906104369190616ddb565b80806020026020016040519081016040528093929190818152602001838360200280828437600081840152601f19601f82011690508083019250505050505050815260200186806020019061048b9190616c1a565b8581811061049c5761049b616c7d565b5b90506020020160208101906104b19190616cac565b67ffffffffffffffff1681526020018680604001906104d09190616cd9565b858181106104e1576104e0616c7d565b5b90506020028101906104f39190616d3c565b6104fc90616d65565b815250610f77565b5b806001019050610326565b5061051a82611340565b505050565b6000344761052d9190616bd7565b905060008280602001906105419190616c1a565b9050905060005b81811015610732578380602001906105609190616c1a565b8281811061057157610570616c7d565b5b90506020020160208101906105869190616cac565b67ffffffffffffffff167f000000000000000000000000000000000000000000000000000000000000000067ffffffffffffffff16036106175761061260405180602001604052808680604001906105de9190616e3e565b858181106105ef576105ee616c7d565b5b90506020028101906106019190616ea1565b61060a90616eca565b81525061142b565b610727565b61072660405180606001604052808680600001906106359190616d78565b8581811061064657610645616c7d565b5b90506020028101906106589190616ddb565b80806020026020016040519081016040528093929190818152602001838360200280828437600081840152601f19601f8201169050808301925050505050505081526020018680602001906106ad9190616c1a565b858181106106be576106bd616c7d565b5b90506020020160208101906106d39190616cac565b67ffffffffffffffff1681526020018680604001906106f29190616e3e565b8581811061070357610702616c7d565b5b90506020028101906107159190616ea1565b61071e90616eca565b815250611678565b5b806001019050610548565b5061073c82611340565b505050565b7f000000000000000000000000000000000000000000000000000000000000000081565b600034476107739190616bd7565b905061077e82610d0f565b61078781611340565b5050565b600034476107999190616bd7565b90506107a48261142b565b6107ad81611340565b5050565b60005481565b6107c081611ac3565b50565b600034476107d19190616bd7565b90506107dc82611678565b6107e581611340565b5050565b7f000000000000000000000000000000000000000000000000000000000000000081565b6000344761081b9190616bd7565b905061082682610f77565b61082f81611340565b5050565b600034476108419190616bd7565b905061084c82611c57565b61085581611340565b5050565b600034476108679190616bd7565b9050600082806020019061087b9190616c1a565b9050905060005b81811015610a6c5783806020019061089a9190616c1a565b828181106108ab576108aa616c7d565b5b90506020020160208101906108c09190616cac565b67ffffffffffffffff167f000000000000000000000000000000000000000000000000000000000000000067ffffffffffffffff16036109515761094c60405180602001604052808680604001906109189190616e3e565b8581811061092957610928616c7d565b5b905060200281019061093b9190616ea1565b61094490616eca565b815250612166565b610a61565b610a60604051806060016040528086806000019061096f9190616d78565b858181106109805761097f616c7d565b5b90506020028101906109929190616ddb565b80806020026020016040519081016040528093929190818152602001838360200280828437600081840152601f19601f8201169050808301925050505050505081526020018680602001906109e79190616c1a565b858181106109f8576109f7616c7d565b5b9050602002016020810190610a0d9190616cac565b67ffffffffffffffff168152602001868060400190610a2c9190616e3e565b85818110610a3d57610a3c616c7d565b5b9050602002810190610a4f9190616ea1565b610a5890616eca565b815250612368565b5b806001019050610882565b50610a7682611340565b505050565b60003447610a899190616bd7565b9050610a9482612166565b610a9d81611340565b5050565b60003447610aaf9190616bd7565b9050610aba82612368565b610ac381611340565b5050565b60003447610ad59190616bd7565b90506000828060200190610ae99190616c1a565b9050905060005b81811015610cda57838060200190610b089190616c1a565b82818110610b1957610b18616c7d565b5b9050602002016020810190610b2e9190616cac565b67ffffffffffffffff167f000000000000000000000000000000000000000000000000000000000000000067ffffffffffffffff1603610bbf57610bba6040518060200160405280868060400190610b869190616cd9565b85818110610b9757610b96616c7d565b5b9050602002810190610ba99190616d3c565b610bb290616d65565b815250612834565b610ccf565b610cce6040518060600160405280868060000190610bdd9190616d78565b85818110610bee57610bed616c7d565b5b9050602002810190610c009190616ddb565b80806020026020016040519081016040528093929190818152602001838360200280828437600081840152601f19601f820116905080830192505050505050508152602001868060200190610c559190616c1a565b85818110610c6657610c65616c7d565b5b9050602002016020810190610c7b9190616cac565b67ffffffffffffffff168152602001868060400190610c9a9190616cd9565b85818110610cab57610caa616c7d565b5b9050602002810190610cbd9190616d3c565b610cc690616d65565b815250611c57565b5b806001019050610af0565b50610ce482611340565b505050565b60003447610cf79190616bd7565b9050610d0282612834565b610d0b81611340565b5050565b610d17615ad4565b7f0000000000000000000000000000000000000000000000000000000000000000816040019067ffffffffffffffff16908167ffffffffffffffff1681525050610d6b826000015182604001516000612a24565b610da1576040517f29c0f4af00000000000000000000000000000000000000000000000000000000815260040160405180910390fd5b610dca7fba0b74768b1de73590a53e1384870dcbc846e5c73bab23c07d71eaa7cbf8411b612df3565b73ffffffffffffffffffffffffffffffffffffffff16636b20c454338460000151600001518560000151602001516040518463ffffffff1660e01b8152600401610e1693929190616faa565b600060405180830381600087803b158015610e3057600080fd5b505af1158015610e44573d6000803e3d6000fd5b50505050600060405180610140016040528060008152602001846000015160000151815260200184600001516020015181526020018460000151604001518152602001846000015160600151815260200184600001516080015181526020018460000151600001515167ffffffffffffffff811115610ec657610ec5615e69565b5b604051908082528060200260200182016040528015610ef45781602001602082028036833780820191505090505b508152602001846000015160e0015181526020018460000151610100015173ffffffffffffffffffffffffffffffffffffffff168152602001846000015161014001518152509050610f468133612e96565b7fe06452d00b2b58f14a1fa6d499ea982ff93ea827ae700ea9ba03f4daddc94bc160405160405180910390a1505050565b610f7f615ad4565b7f0000000000000000000000000000000000000000000000000000000000000000816040019067ffffffffffffffff16908167ffffffffffffffff1681525050816020015167ffffffffffffffff16816040015167ffffffffffffffff1603611014576040517ff33d056900000000000000000000000000000000000000000000000000000000815260040160405180910390fd5b611028826040015183602001516000612a24565b61105e576040517f29c0f4af00000000000000000000000000000000000000000000000000000000815260040160405180910390fd5b6110877fba0b74768b1de73590a53e1384870dcbc846e5c73bab23c07d71eaa7cbf8411b612df3565b73ffffffffffffffffffffffffffffffffffffffff16636b20c454338460400151600001518560400151602001516040518463ffffffff1660e01b81526004016110d393929190616faa565b600060405180830381600087803b1580156110ed57600080fd5b505af1158015611101573d6000803e3d6000fd5b50505050600080815461111390616fef565b919050819055816060018181525050600060405180610140016040528083606001518152602001846040015160000151815260200184604001516020015181526020018460400151604001518152602001846040015160600151815260200184604001516080015181526020018460400151602001515167ffffffffffffffff8111156111a3576111a2615e69565b5b6040519080825280602002602001820160405280156111d15781602001602082028036833780820191505090505b508152602001846040015160e0015181526020018460400151610100015173ffffffffffffffffffffffffffffffffffffffff1681526020018460400151610140015181525090506112e260405180610120016040528060018081111561123b5761123a617037565b5b8152602001836040516020016112519190617495565b604051602081830303815290604052815260200185604001516000015181526020013373ffffffffffffffffffffffffffffffffffffffff16815260200185600001518152602001600160ff168152602001846040015167ffffffffffffffff168152602001856020015167ffffffffffffffff168152602001846060015181525084604001516101200151612fb9565b826020015167ffffffffffffffff1682606001517fa23e8d828c95d9dae2c33b414d2a56816a00ecdf695c52f69f0f0932f05c1a488560400151600001518660000151604051611333929190617566565b60405180910390a3505050565b8047101561137a576040517f50b1f35600000000000000000000000000000000000000000000000000000000815260040160405180910390fd5b600081476113889190616bd7565b905060008114611427576113bb7fbddfa8c39a1f6275bcfb3aa5c70638c466999edbf14e6162d81b3492caca9fce612df3565b73ffffffffffffffffffffffffffffffffffffffff1663300be4fc82336040518363ffffffff1660e01b81526004016113f4919061759d565b6000604051808303818588803b15801561140d57600080fd5b505af1158015611421573d6000803e3d6000fd5b50505050505b5050565b6114b981600001516000015182600001516020015183600001516040015184600001516060015185600001516101000151866000015161012001517f000000000000000000000000000000000000000000000000000000000000000060006114b27fbcc180fb907e9ae431665de4bc74305c00b7b27442aadd477980ecc4bb14c011612df3565b6000613243565b6114ef576040517f29c0f4af00000000000000000000000000000000000000000000000000000000815260040160405180910390fd5b6115187fba0b74768b1de73590a53e1384870dcbc846e5c73bab23c07d71eaa7cbf8411b612df3565b73ffffffffffffffffffffffffffffffffffffffff1663132b4816338360000151600001518460000151602001516040518463ffffffff1660e01b8152600401611564939291906175b8565b600060405180830381600087803b15801561157e57600080fd5b505af1158015611592573d6000803e3d6000fd5b5050505060006040518061014001604052806000815260200183600001516000015181526020018360000151602001518152602001836000015160400151815260200183600001516060015181526020018360000151608001518152602001600015158152602001836000015160e00151151581526020018360000151610100015173ffffffffffffffffffffffffffffffffffffffff16815260200183600001516101400151815250905061164881336134b6565b7fe06452d00b2b58f14a1fa6d499ea982ff93ea827ae700ea9ba03f4daddc94bc160405160405180910390a15050565b611680615ad4565b7f0000000000000000000000000000000000000000000000000000000000000000816040019067ffffffffffffffff16908167ffffffffffffffff1681525050816020015167ffffffffffffffff16816040015167ffffffffffffffff1603611715576040517ff33d056900000000000000000000000000000000000000000000000000000000815260040160405180910390fd5b6117878260400151600001518360400151602001518460400151604001518560400151606001518660400151610100015187604001516101200151886020015160006117807fbcc180fb907e9ae431665de4bc74305c00b7b27442aadd477980ecc4bb14c011612df3565b6000613243565b6117bd576040517f29c0f4af00000000000000000000000000000000000000000000000000000000815260040160405180910390fd5b6117e67fba0b74768b1de73590a53e1384870dcbc846e5c73bab23c07d71eaa7cbf8411b612df3565b73ffffffffffffffffffffffffffffffffffffffff1663132b4816338460400151600001518560400151602001516040518463ffffffff1660e01b8152600401611832939291906175b8565b600060405180830381600087803b15801561184c57600080fd5b505af1158015611860573d6000803e3d6000fd5b50505050600080815461187290616fef565b91905081905581606001818152505060006040518061014001604052808360600151815260200184604001516000015181526020018460400151602001518152602001846040015160400151815260200184604001516060015181526020018460400151608001518152602001600015158152602001846040015160e00151151581526020018460400151610100015173ffffffffffffffffffffffffffffffffffffffff1681526020018460400151610140015181525090506000600167ffffffffffffffff81111561194957611948615e69565b5b6040519080825280602002602001820160405280156119775781602001602082028036833780820191505090505b5090508360400151600001518160008151811061199757611996616c7d565b5b602002602001018181525050611a646040518061012001604052806001808111156119c5576119c4617037565b5b8152602001846040516020016119db91906176d0565b60405160208183030381529060405281526020018381526020013373ffffffffffffffffffffffffffffffffffffffff16815260200186600001518152602001600060ff168152602001856040015167ffffffffffffffff168152602001866020015167ffffffffffffffff168152602001856060015181525085604001516101200151612fb9565b836020015167ffffffffffffffff1683606001517f4dbd819bde4882c7e19b36e6205148983b9e3b863a72a2f8f5576044e4d41b338660400151600001518760000151604051611ab59291906176f2565b60405180910390a350505050565b600073ffffffffffffffffffffffffffffffffffffffff168173ffffffffffffffffffffffffffffffffffffffff1603611b29576040517f538ba4f900000000000000000000000000000000000000000000000000000000815260040160405180910390fd5b6000611b547fbddfa8c39a1f6275bcfb3aa5c70638c466999edbf14e6162d81b3492caca9fce612df3565b9050600082905060008173ffffffffffffffffffffffffffffffffffffffff166370a08231306040518263ffffffff1660e01b8152600401611b96919061759d565b602060405180830381865afa158015611bb3573d6000803e3d6000fd5b505050506040513d601f19601f82011682018060405250810190611bd79190617737565b905060008114611c5157611c0c83828473ffffffffffffffffffffffffffffffffffffffff166135079092919063ffffffff16565b808473ffffffffffffffffffffffffffffffffffffffff167f3b6a4197c91aad8284f4773a802871b6ef942f15034468da745ac41325904bc560405160405180910390a35b50505050565b611c5f615ad4565b7f0000000000000000000000000000000000000000000000000000000000000000816040019067ffffffffffffffff16908167ffffffffffffffff1681525050816020015167ffffffffffffffff16816040015167ffffffffffffffff1603611cf4576040517ff33d056900000000000000000000000000000000000000000000000000000000815260040160405180910390fd5b611d08826040015183602001516001612a24565b611d3e576040517f29c0f4af00000000000000000000000000000000000000000000000000000000815260040160405180910390fd5b6000808154611d4c90616fef565b91905081905581606001818152505060006040518061014001604052808360600151815260200184604001516000015181526020018460400151602001518152602001846040015160400151815260200184604001516060015181526020018460400151608001518152602001846040015160c001518152602001846040015160e0015181526020018460400151610100015173ffffffffffffffffffffffffffffffffffffffff168152602001846040015161014001518152509050600080846040015160000151519050600080611e7a33600067ffffffffffffffff811115611e3a57611e39615e69565b5b604051908082528060200260200182016040528015611e685781602001602082028036833780820191505090505b50896040015160a00151886001613586565b915091508267ffffffffffffffff811115611e9857611e97615e69565b5b604051908082528060200260200182016040528015611ed157816020015b611ebe615b19565b815260200190600190039081611eb65790505b508560a0018190525060005b83811015612035578760400151608001518181518110611f0057611eff616c7d565b5b60200260200101518760200181905250611f3b8860400151600001518281518110611f2e57611f2d616c7d565b5b6020026020010151613dd4565b90505080955050611fc66040518060c00160405280896020015181526020018773ffffffffffffffffffffffffffffffffffffffff168152602001896040015167ffffffffffffffff1681526020018a6020015167ffffffffffffffff1681526020013373ffffffffffffffffffffffffffffffffffffffff16815260200160011515815250613e35565b1561202a578660200151604001518660a001518281518110611feb57611fea616c7d565b5b60200260200101516040019073ffffffffffffffffffffffffffffffffffffffff16908173ffffffffffffffffffffffffffffffffffffffff16815250505b806001019050611edd565b506121006040518061012001604052806000600181111561205957612058617037565b5b81526020018760405160200161206f9190617495565b604051602081830303815290604052815260200189604001516000015181526020013373ffffffffffffffffffffffffffffffffffffffff16815260200189600001518152602001600160ff168152602001886040015167ffffffffffffffff168152602001896020015167ffffffffffffffff168152602001886060015181525088604001516101200151612fb9565b866020015167ffffffffffffffff1686606001517f3442cbaf79658b5b8750f04e22ec7e6a0d1a64699201b231b23dad10fa9ddcc989604001516000015185858c600001516040516121559493929190617764565b60405180910390a350505050505050565b6121f481600001516000015182600001516020015183600001516040015184600001516060015185600001516101000151866000015161012001517f000000000000000000000000000000000000000000000000000000000000000060016121ed7fbcc180fb907e9ae431665de4bc74305c00b7b27442aadd477980ecc4bb14c011612df3565b6000613243565b61222a576040517f29c0f4af00000000000000000000000000000000000000000000000000000000815260040160405180910390fd5b60006040518061014001604052806000815260200183600001516000015181526020018360000151602001518152602001836000015160400151815260200183600001516060015181526020018360000151608001518152602001600015158152602001836000015160e00151151581526020018360000151610100015173ffffffffffffffffffffffffffffffffffffffff16815260200183600001516101400151815250905061233860405180608001604052803373ffffffffffffffffffffffffffffffffffffffff168152602001846000015160a0015181526020018460000151610120015173ffffffffffffffffffffffffffffffffffffffff16815260200183815250614193565b7fe06452d00b2b58f14a1fa6d499ea982ff93ea827ae700ea9ba03f4daddc94bc160405160405180910390a15050565b612370615ad4565b7f0000000000000000000000000000000000000000000000000000000000000000816040019067ffffffffffffffff16908167ffffffffffffffff1681525050816020015167ffffffffffffffff16816040015167ffffffffffffffff1603612405576040517ff33d056900000000000000000000000000000000000000000000000000000000815260040160405180910390fd5b6124778260400151600001518360400151602001518460400151604001518560400151606001518660400151610100015187604001516101200151886020015160016124707fbcc180fb907e9ae431665de4bc74305c00b7b27442aadd477980ecc4bb14c011612df3565b6000613243565b6124ad576040517f29c0f4af00000000000000000000000000000000000000000000000000000000815260040160405180910390fd5b60008081546124bb90616fef565b91905081905581606001818152505060006040518061014001604052808360600151815260200184604001516000015181526020018460400151602001518152602001846040015160400151815260200184604001516060015181526020018460400151608001518152602001846040015160c0015115158152602001846040015160e00151151581526020018460400151610100015173ffffffffffffffffffffffffffffffffffffffff168152602001846040015161014001518152509050600061258f846040015160000151613dd4565b505090506000806125ad336000886040015160a001518760016143d5565b915091506125b9615b19565b6126416040518060c0016040528089604001516080015181526020018673ffffffffffffffffffffffffffffffffffffffff168152602001886040015167ffffffffffffffff168152602001896020015167ffffffffffffffff1681526020013373ffffffffffffffffffffffffffffffffffffffff16815260200160011515815250613e35565b1561268b5786604001516080015160400151816040019073ffffffffffffffffffffffffffffffffffffffff16908173ffffffffffffffffffffffffffffffffffffffff16815250505b808560a001819052506000600167ffffffffffffffff8111156126b1576126b0615e69565b5b6040519080825280602002602001820160405280156126df5781602001602082028036833780820191505090505b509050876040015160000151816000815181106126ff576126fe616c7d565b5b6020026020010181815250506127cd6040518061012001604052806000600181111561272e5761272d617037565b5b81526020018860405160200161274491906176d0565b60405160208183030381529060405281526020018381526020013373ffffffffffffffffffffffffffffffffffffffff1681526020018a600001518152602001600060ff168152602001896040015167ffffffffffffffff1681526020018a6020015167ffffffffffffffff168152602001896060015181525089604001516101200151612fb9565b876020015167ffffffffffffffff1687606001517f718b2e429b305262cd4094e2ee5ecd54cb40d7fa42ca6bb16f2a0acbd49ef8b58a604001516000015187878d6000015160405161282294939291906177d4565b60405180910390a35050505050505050565b61286481600001517f00000000000000000000000000000000000000000000000000000000000000006001612a24565b61289a576040517f29c0f4af00000000000000000000000000000000000000000000000000000000815260040160405180910390fd5b600060405180610140016040528060008152602001836000015160000151815260200183600001516020015181526020018360000151604001518152602001836000015160600151815260200183600001516080015181526020018360000151602001515167ffffffffffffffff81111561291857612917615e69565b5b6040519080825280602002602001820160405280156129465781602001602082028036833780820191505090505b508152602001836000015160e0015181526020018360000151610100015173ffffffffffffffffffffffffffffffffffffffff1681526020018360000151610140015181525090506129f460405180608001604052803373ffffffffffffffffffffffffffffffffffffffff168152602001846000015160a0015181526020018460000151610120015173ffffffffffffffffffffffffffffffffffffffff16815260200183815250614901565b7fe06452d00b2b58f14a1fa6d499ea982ff93ea827ae700ea9ba03f4daddc94bc160405160405180910390a15050565b600080846020015151905060008560000151519050600086608001515190506000831480612a525750600081145b15612a635760009350505050612dec565b808314612a765760009350505050612dec565b8282141580612a8a57508660400151518214155b80612a9a57508660600151518214155b80612aaa57508660c00151518214155b80612aba57508660e00151518214155b15612acb5760009350505050612dec565b7f000000000000000000000000000000000000000000000000000000000000000073ffffffffffffffffffffffffffffffffffffffff1663bffc1e13876040518263ffffffff1660e01b8152600401612b249190616aa8565b602060405180830381865afa158015612b41573d6000803e3d6000fd5b505050506040513d601f19601f82011682018060405250810190612b659190617737565b821115612b785760009350505050612dec565b600073ffffffffffffffffffffffffffffffffffffffff1687610100015173ffffffffffffffffffffffffffffffffffffffff1603612bbd5760009350505050612dec565b8415612c1757600073ffffffffffffffffffffffffffffffffffffffff1687610120015173ffffffffffffffffffffffffffffffffffffffff1603612c085760009350505050612dec565b612c16876101200151614d2d565b5b6000612c427fbcc180fb907e9ae431665de4bc74305c00b7b27442aadd477980ecc4bb14c011612df3565b905060005b84811015612de257612ce489600001518281518110612c6957612c68616c7d565b5b60200260200101518a602001518381518110612c8857612c87616c7d565b5b60200260200101518b604001518481518110612ca757612ca6616c7d565b5b60200260200101518c606001518581518110612cc657612cc5616c7d565b5b60200260200101518d61010001518e61012001518e8e8a6001613243565b612cf657600095505050505050612dec565b600089608001518281518110612d0f57612d0e616c7d565b5b6020026020010151604001519050600073ffffffffffffffffffffffffffffffffffffffff168173ffffffffffffffffffffffffffffffffffffffff1614612dd65760005b82811015612dd457828114612dc9578a608001518181518110612d7a57612d79616c7d565b5b60200260200101516040015173ffffffffffffffffffffffffffffffffffffffff168273ffffffffffffffffffffffffffffffffffffffff1603612dc8576000975050505050505050612dec565b5b806001019050612d54565b505b50806001019050612c47565b5060019450505050505b9392505050565b60007f000000000000000000000000000000000000000000000000000000000000000073ffffffffffffffffffffffffffffffffffffffff166321f8a721836040518263ffffffff1660e01b8152600401612e4e9190617839565b602060405180830381865afa158015612e6b573d6000803e3d6000fd5b505050506040513d601f19601f82011682018060405250810190612e8f9190617869565b9050919050565b6000612ea58360200151614e68565b905060008151905060005b81811015612fb257612fa7838281518110612ece57612ecd616c7d565b5b6020026020010151866000015187602001518481518110612ef257612ef1616c7d565b5b602002602001015188604001518581518110612f1157612f10616c7d565b5b602002602001015189606001518681518110612f3057612f2f616c7d565b5b60200260200101518a608001518781518110612f4f57612f4e616c7d565b5b60200260200101518b60a001518881518110612f6e57612f6d616c7d565b5b60200260200101518c60e001518981518110612f8d57612f8c616c7d565b5b60200260200101518d61010001518e61012001518e614f49565b806001019050612eb0565b5050505050565b6000612fff83600001516001811115612fd557612fd4617037565b5b60006002811115612fe957612fe8617037565b5b8560a00151600187606001518860c00151615035565b905060006040518060400160405280838152602001856020015181525060405160200161302c91906178d3565b60405160208183030381529060405290506000806130697fab437a16135e856111e538dc45051dd9c2778c6069d25a22fb9ac4766c356aa1612df3565b73ffffffffffffffffffffffffffffffffffffffff16633283166a8760e001518860800151866040518463ffffffff1660e01b81526004016130ad9392919061793f565b600060405180830381865afa1580156130ca573d6000803e3d6000fd5b505050506040513d6000823e3d601f19601f820116820180604052508101906130f391906179f4565b915091506131207fba0b74768b1de73590a53e1384870dcbc846e5c73bab23c07d71eaa7cbf8411b612df3565b73ffffffffffffffffffffffffffffffffffffffff16634ec1bec787610100015186886040518463ffffffff1660e01b815260040161316193929190617a50565b600060405180830381600087803b15801561317b57600080fd5b505af115801561318f573d6000803e3d6000fd5b505050506131bc7f55b101fc856aff484166c46ad33bc74831c135693c159b0092bb3b72254ffb6b612df3565b73ffffffffffffffffffffffffffffffffffffffff166323de31e183886060015189608001518a60e0015188876040518763ffffffff1660e01b8152600401613209959493929190617a87565b6000604051808303818588803b15801561322257600080fd5b505af1158015613236573d6000803e3d6000fd5b5050505050505050505050565b60007f000000000000000000000000000000000000000000000000000000000000000067ffffffffffffffff168567ffffffffffffffff161480156132ff57508273ffffffffffffffffffffffffffffffffffffffff1663b5c756978c6040518263ffffffff1660e01b81526004016132bc91906168a9565b602060405180830381865afa1580156132d9573d6000803e3d6000fd5b505050506040513d601f19601f820116820180604052508101906132fd9190617b04565b155b1561330d57600090506134a8565b6000806133198d613dd4565b92509250508067ffffffffffffffff168767ffffffffffffffff1614613344576000925050506134a8565b6127108a1115613359576000925050506134a8565b60008c1480613368575060008b145b15613378576000925050506134a8565b831580156133b25750600073ffffffffffffffffffffffffffffffffffffffff168973ffffffffffffffffffffffffffffffffffffffff16145b156133c2576000925050506134a8565b85156134a1578473ffffffffffffffffffffffffffffffffffffffff1663596db717836040518263ffffffff1660e01b81526004016134019190617b50565b602060405180830381865afa15801561341e573d6000803e3d6000fd5b505050506040513d601f19601f820116820180604052508101906134429190617b04565b15613452576000925050506134a8565b836134a057600073ffffffffffffffffffffffffffffffffffffffff168873ffffffffffffffffffffffffffffffffffffffff1603613496576000925050506134a8565b61349f88614d2d565b5b5b6001925050505b9a9950505050505050505050565b60006134c58360200151613dd4565b5050905061350281846000015185602001518660400151876060015188608001518960a001518a60e001518b61010001518c61012001518c614f49565b505050565b613581838473ffffffffffffffffffffffffffffffffffffffff1663a9059cbb858560405160240161353a929190617b6b565b604051602081830303815290604052915060e01b6020820180517bffffffffffffffffffffffffffffffffffffffffffffffffffffffff838183161783525050505061509d565b505050565b606080613591615b88565b60008560a001516000815181106135ab576135aa616c7d565b5b60200260200101516020015190508560a0015151826020018181525050816020015167ffffffffffffffff8111156135e6576135e5615e69565b5b6040519080825280602002602001820160405280156136145781602001602082028036833780820191505090505b508260a00181905250816020015167ffffffffffffffff81111561363b5761363a615e69565b5b6040519080825280602002602001820160405280156136695781602001602082028036833780820191505090505b508260c0018190525060005b82602001518110156138c6578660a00151818151811061369857613697616c7d565b5b6020026020010151606001518360c0015182815181106136bb576136ba616c7d565b5b602002602001019060ff16908160ff168152505060008760a0015182815181106136e8576136e7616c7d565b5b6020026020010151600001515114613878577f000000000000000000000000000000000000000000000000000000000000000073ffffffffffffffffffffffffffffffffffffffff1663e85b2b548460c00151838151811061374d5761374c616c7d565b5b60200260200101516040518263ffffffff1660e01b81526004016137719190617b94565b602060405180830381865afa15801561378e573d6000803e3d6000fd5b505050506040513d601f19601f820116820180604052508101906137b29190617869565b73ffffffffffffffffffffffffffffffffffffffff16639bbbb5c88860a0015183815181106137e4576137e3616c7d565b5b60200260200101516000015160006040518363ffffffff1660e01b815260040161380f929190617bbe565b602060405180830381865afa15801561382c573d6000803e3d6000fd5b505050506040513d601f19601f820116820180604052508101906138509190617737565b8360a00151828151811061386757613866616c7d565b5b6020026020010181815250506138bb565b8660400151818151811061388f5761388e616c7d565b5b60200260200101518360a0015182815181106138ae576138ad616c7d565b5b6020026020010181815250505b806001019050613675565b5073eeeeeeeeeeeeeeeeeeeeeeeeeeeeeeeeeeeeeeee73ffffffffffffffffffffffffffffffffffffffff168173ffffffffffffffffffffffffffffffffffffffff1614613dba5780826000019073ffffffffffffffffffffffffffffffffffffffff16908173ffffffffffffffffffffffffffffffffffffffff1681525050865182606001818152505060005b8260200151811015613a9a57826000015173ffffffffffffffffffffffffffffffffffffffff168760a00151828151811061399257613991616c7d565b5b60200260200101516020015173ffffffffffffffffffffffffffffffffffffffff16146139eb576040517f563abc2700000000000000000000000000000000000000000000000000000000815260040160405180910390fd5b60008760a001518281518110613a0457613a03616c7d565b5b602002602001015160000151519050600081148015613a205750865b15613a57576040517fe462e9f400000000000000000000000000000000000000000000000000000000815260040160405180910390fd5b8360a001518281518110613a6e57613a6d616c7d565b5b602002602001015184604001818151613a879190617bee565b9150818152505050806001019050613954565b506000826040015103613ad9576040517ff6fa545000000000000000000000000000000000000000000000000000000000815260040160405180910390fd5b6000826060015114613c3a57600080600089806020019051810190613afe9190617c22565b925092509250613b0c615134565b8560e0019073ffffffffffffffffffffffffffffffffffffffff16908173ffffffffffffffffffffffffffffffffffffffff16815250508460e0015173ffffffffffffffffffffffffffffffffffffffff166330f28b7a604051806060016040528060405180604001604052808a6000015173ffffffffffffffffffffffffffffffffffffffff1681526020018a6040015181525081526020018681526020018581525060405180604001604052803073ffffffffffffffffffffffffffffffffffffffff16815260200189604001518152508f856040518563ffffffff1660e01b8152600401613c009493929190617d52565b600060405180830381600087803b158015613c1a57600080fd5b505af1158015613c2e573d6000803e3d6000fd5b50505050505050613d2c565b8160400151826000015173ffffffffffffffffffffffffffffffffffffffff1663dd62ed3e8b306040518363ffffffff1660e01b8152600401613c7e929190617d9f565b602060405180830381865afa158015613c9b573d6000803e3d6000fd5b505050506040513d601f19601f82011682018060405250810190613cbf9190617737565b1015613cf6576040517ec78d2600000000000000000000000000000000000000000000000000000000815260040160405180910390fd5b613d2b89308460400151856000015173ffffffffffffffffffffffffffffffffffffffff166151ca909392919063ffffffff16565b5b875182608001818152505060005b8260800151811015613db857613dad898281518110613d5c57613d5b616c7d565b5b60200260200101518460a001518381518110613d7b57613d7a616c7d565b5b6020026020010151856000015173ffffffffffffffffffffffffffffffffffffffff1661524c9092919063ffffffff16565b806001019050613d3a565b505b8160a001518260c001519350935050509550959350505050565b600080600083925060a084901c915060c084901c905060008167ffffffffffffffff1603613e2e576040517f030042b700000000000000000000000000000000000000000000000000000000815260040160405180910390fd5b9193909250565b6000807f000000000000000000000000000000000000000000000000000000000000000073ffffffffffffffffffffffffffffffffffffffff1663e85b2b548460000151606001516040518263ffffffff1660e01b8152600401613e999190617b94565b602060405180830381865afa158015613eb6573d6000803e3d6000fd5b505050506040513d601f19601f82011682018060405250810190613eda9190617869565b90508073ffffffffffffffffffffffffffffffffffffffff1663c87439eb6040518061012001604052808660000151600001518152602001866040015167ffffffffffffffff168152602001866060015167ffffffffffffffff16815260200186600001516080015167ffffffffffffffff1681526020018660a0015115158152602001866020015173ffffffffffffffffffffffffffffffffffffffff168152602001866080015173ffffffffffffffffffffffffffffffffffffffff16815260200186600001516020015173ffffffffffffffffffffffffffffffffffffffff16815260200186600001516040015173ffffffffffffffffffffffffffffffffffffffff168152506040518263ffffffff1660e01b81526004016140009190617e8d565b602060405180830381865afa15801561401d573d6000803e3d6000fd5b505050506040513d601f19601f820116820180604052508101906140419190617b04565b915061418d7f000000000000000000000000000000000000000000000000000000000000000073ffffffffffffffffffffffffffffffffffffffff1663ca7adffb8560000151606001516040518263ffffffff1660e01b81526004016140a79190617b94565b602060405180830381865afa1580156140c4573d6000803e3d6000fd5b505050506040513d601f19601f820116820180604052508101906140e89190617869565b8460000151600001518560000151602001518473ffffffffffffffffffffffffffffffffffffffff16639bbbb5c888600001516000015160016040518363ffffffff1660e01b815260040161413e929190617bbe565b602060405180830381865afa15801561415b573d6000803e3d6000fd5b505050506040513d601f19601f8201168201806040525081019061417f9190617737565b876000015160a001516152e8565b50919050565b61419b615bf9565b6141ac826060015160200151613dd4565b905050816000018173ffffffffffffffffffffffffffffffffffffffff1673ffffffffffffffffffffffffffffffffffffffff1681525050614202826000015182600001518460200151856060015160006143d5565b5050614300604051806101800160405280836000015173ffffffffffffffffffffffffffffffffffffffff16815260200184606001516000015181526020018460600151602001518152602001846060015160400151815260200184606001516060015181526020018460600151608001518152602001846060015160e0015115158152602001846060015160a0015181526020018460600151610100015173ffffffffffffffffffffffffffffffffffffffff168152602001846060015161012001518152602001846060015160a0015160a001518152602001846000015173ffffffffffffffffffffffffffffffffffffffff1681525061562b565b81602001818152505060008160200151141580156143245750816060015160e00151155b156143d1576143527fba0b74768b1de73590a53e1384870dcbc846e5c73bab23c07d71eaa7cbf8411b612df3565b73ffffffffffffffffffffffffffffffffffffffff16638d04e40e836040015184606001516020015184602001516040518463ffffffff1660e01b815260040161439e939291906175b8565b600060405180830381600087803b1580156143b857600080fd5b505af11580156143cc573d6000803e3d6000fd5b505050505b5050565b6000806143e0615c29565b8460a0015160600151816080019060ff16908160ff16815250508460a0015160000151518160200181815250506000816020015114801561441e5750835b15614455576040517fe462e9f400000000000000000000000000000000000000000000000000000000815260040160405180910390fd5b6000816020015114614591577f000000000000000000000000000000000000000000000000000000000000000073ffffffffffffffffffffffffffffffffffffffff1663e85b2b5482608001516040518263ffffffff1660e01b81526004016144be9190617b94565b602060405180830381865afa1580156144db573d6000803e3d6000fd5b505050506040513d601f19601f820116820180604052508101906144ff9190617869565b73ffffffffffffffffffffffffffffffffffffffff16639bbbb5c88660a001516000015160006040518363ffffffff1660e01b8152600401614542929190617bbe565b602060405180830381865afa15801561455f573d6000803e3d6000fd5b505050506040513d601f19601f820116820180604052508101906145839190617737565b8160600181815250506145a0565b84604001518160600181815250505b73eeeeeeeeeeeeeeeeeeeeeeeeeeeeeeeeeeeeeeee73ffffffffffffffffffffffffffffffffffffffff168560a001516020015173ffffffffffffffffffffffffffffffffffffffff16146148e8578460a0015160200151816000019073ffffffffffffffffffffffffffffffffffffffff16908173ffffffffffffffffffffffffffffffffffffffff1681525050600086511461478d57614640615134565b8160a0019073ffffffffffffffffffffffffffffffffffffffff16908173ffffffffffffffffffffffffffffffffffffffff16815250506000806000888060200190518101906146909190617c22565b9250925092508360a0015173ffffffffffffffffffffffffffffffffffffffff166330f28b7a60405180606001604052806040518060400160405280896000015173ffffffffffffffffffffffffffffffffffffffff168152602001896060015181525081526020018681526020018581525060405180604001604052803073ffffffffffffffffffffffffffffffffffffffff16815260200188606001518152508e856040518563ffffffff1660e01b81526004016147539493929190617d52565b600060405180830381600087803b15801561476d57600080fd5b505af1158015614781573d6000803e3d6000fd5b5050505050505061487f565b8060600151816000015173ffffffffffffffffffffffffffffffffffffffff1663dd62ed3e8a306040518363ffffffff1660e01b81526004016147d1929190617d9f565b602060405180830381865afa1580156147ee573d6000803e3d6000fd5b505050506040513d601f19601f820116820180604052508101906148129190617737565b1015614849576040517ec78d2600000000000000000000000000000000000000000000000000000000815260040160405180910390fd5b61487e88308360600151846000015173ffffffffffffffffffffffffffffffffffffffff166151ca909392919063ffffffff16565b5b600073ffffffffffffffffffffffffffffffffffffffff168773ffffffffffffffffffffffffffffffffffffffff16146148e7576148e6878260600151836000015173ffffffffffffffffffffffffffffffffffffffff1661524c9092919063ffffffff16565b5b5b8060600151816080015192509250509550959350505050565b614909615c8e565b81606001516020015151816000018181525050806000015167ffffffffffffffff81111561493a57614939615e69565b5b6040519080825280602002602001820160405280156149685781602001602082028036833780820191505090505b508160200181905250806000015167ffffffffffffffff81111561498f5761498e615e69565b5b6040519080825280602002602001820160405280156149bd5781602001602082028036833780820191505090505b5081604001819052506149d7826060015160200151614e68565b81602001819052506149fd82600001518260200151846020015185606001516000613586565b505060005b8160000151811015614c8157614bda60405180610180016040528084602001518481518110614a3457614a33616c7d565b5b602002602001015173ffffffffffffffffffffffffffffffffffffffff16815260200185606001516000015181526020018560600151602001518481518110614a8057614a7f616c7d565b5b602002602001015181526020018560600151604001518481518110614aa857614aa7616c7d565b5b602002602001015181526020018560600151606001518481518110614ad057614acf616c7d565b5b602002602001015181526020018560600151608001518481518110614af857614af7616c7d565b5b60200260200101518152602001856060015160e001518481518110614b2057614b1f616c7d565b5b602002602001015115158152602001856060015160a001518481518110614b4a57614b49616c7d565b5b602002602001015181526020018560600151610100015173ffffffffffffffffffffffffffffffffffffffff168152602001856060015161012001518152602001856060015160a001518481518110614ba657614ba5616c7d565b5b602002602001015160a001518152602001856000015173ffffffffffffffffffffffffffffffffffffffff1681525061562b565b82604001518281518110614bf157614bf0616c7d565b5b602002602001018181525050600082604001518281518110614c1657614c15616c7d565b5b602002602001015114158015614c4b5750826060015160e001518181518110614c4257614c41616c7d565b5b60200260200101515b15614c7657600082604001518281518110614c6957614c68616c7d565b5b6020026020010181815250505b806001019050614a02565b50614cab7fba0b74768b1de73590a53e1384870dcbc846e5c73bab23c07d71eaa7cbf8411b612df3565b73ffffffffffffffffffffffffffffffffffffffff1663d81d0a15836040015184606001516020015184604001516040518463ffffffff1660e01b8152600401614cf793929190616faa565b600060405180830381600087803b158015614d1157600080fd5b505af1158015614d25573d6000803e3d6000fd5b505050505050565b60008173ffffffffffffffffffffffffffffffffffffffff163b1115614e65578073ffffffffffffffffffffffffffffffffffffffff166301ffc9a77f4e2312e0000000000000000000000000000000000000000000000000000000006040518263ffffffff1660e01b8152600401614da69190617eea565b602060405180830381865afa925050508015614de057506040513d601f19601f82011682018060405250810190614ddd9190617b04565b60015b614e2157806040517f57f447ce000000000000000000000000000000000000000000000000000000008152600401614e18919061759d565b60405180910390fd5b80614e6357816040517f57f447ce000000000000000000000000000000000000000000000000000000008152600401614e5a919061759d565b60405180910390fd5b505b50565b60606000825190508067ffffffffffffffff811115614e8a57614e89615e69565b5b604051908082528060200260200182016040528015614eb85781602001602082028036833780820191505090505b50915060005b81811015614f4257614ee9848281518110614edc57614edb616c7d565b5b6020026020010151613dd4565b905050838281518110614eff57614efe616c7d565b5b602002602001018173ffffffffffffffffffffffffffffffffffffffff1673ffffffffffffffffffffffffffffffffffffffff1681525050806001019050614ebe565b5050919050565b8a73ffffffffffffffffffffffffffffffffffffffff1663cb829dc36040518061014001604052808d81526020018c81526020018b81526020018a815260200189815260200188815260200160001515815260200187151581526020018673ffffffffffffffffffffffffffffffffffffffff16815260200185815250836040518363ffffffff1660e01b8152600401614fe4929190617f05565b6020604051808303816000875af1158015615003573d6000803e3d6000fd5b505050506040513d601f19601f820116820180604052508101906150279190617737565b505050505050505050505050565b60008660ff16905060088660ff16901b8117905060108560ff16901b8117905060188460ff16901b8117905060208373ffffffffffffffffffffffffffffffffffffffff16901b8117905060c08267ffffffffffffffff16901b811790509695505050505050565b60006150c8828473ffffffffffffffffffffffffffffffffffffffff1661574790919063ffffffff16565b905060008151141580156150ed5750808060200190518101906150eb9190617b04565b155b1561512f57826040517f5274afe7000000000000000000000000000000000000000000000000000000008152600401615126919061759d565b60405180910390fd5b505050565b60007f000000000000000000000000000000000000000000000000000000000000000073ffffffffffffffffffffffffffffffffffffffff16636afdd8506040518163ffffffff1660e01b8152600401602060405180830381865afa1580156151a1573d6000803e3d6000fd5b505050506040513d601f19601f820116820180604052508101906151c59190617869565b905090565b615246848573ffffffffffffffffffffffffffffffffffffffff166323b872dd8686866040516024016151ff93929190617f35565b604051602081830303815290604052915060e01b6020820180517bffffffffffffffffffffffffffffffffffffffffffffffffffffffff838183161783525050505061509d565b50505050565b60008373ffffffffffffffffffffffffffffffffffffffff1663dd62ed3e30856040518363ffffffff1660e01b8152600401615289929190617d9f565b602060405180830381865afa1580156152a6573d6000803e3d6000fd5b505050506040513d601f19601f820116820180604052508101906152ca9190617737565b90506152e2848484846152dd9190617bee565b61575d565b50505050565b60008203615322576040517ff6fa545000000000000000000000000000000000000000000000000000000000815260040160405180910390fd5b600073ffffffffffffffffffffffffffffffffffffffff168573ffffffffffffffffffffffffffffffffffffffff1603615388576040517f538ba4f900000000000000000000000000000000000000000000000000000000815260040160405180910390fd5b73eeeeeeeeeeeeeeeeeeeeeeeeeeeeeeeeeeeeeeee73ffffffffffffffffffffffffffffffffffffffff168373ffffffffffffffffffffffffffffffffffffffff16146153ff576153fa85838573ffffffffffffffffffffffffffffffffffffffff1661524c9092919063ffffffff16565b615474565b81811015615439576040517fe4f2466300000000000000000000000000000000000000000000000000000000815260040160405180910390fd5b47811115615473576040517f50b1f35600000000000000000000000000000000000000000000000000000000815260040160405180910390fd5b5b60008573ffffffffffffffffffffffffffffffffffffffff16828660405161549c9190617fa8565b60006040518083038185875af1925050503d80600081146154d9576040519150601f19603f3d011682016040523d82523d6000602084013e6154de565b606091505b505090508061552457836040517f2accaa1500000000000000000000000000000000000000000000000000000000815260040161551b919061759d565b60405180910390fd5b73eeeeeeeeeeeeeeeeeeeeeeeeeeeeeeeeeeeeeeee73ffffffffffffffffffffffffffffffffffffffff168473ffffffffffffffffffffffffffffffffffffffff161461562357600084905060008173ffffffffffffffffffffffffffffffffffffffff1663dd62ed3e308a6040518363ffffffff1660e01b81526004016155ad929190617d9f565b602060405180830381865afa1580156155ca573d6000803e3d6000fd5b505050506040513d601f19601f820116820180604052508101906155ee9190617737565b1115615621576156208760008373ffffffffffffffffffffffffffffffffffffffff1661575d9092919063ffffffff16565b5b505b505050505050565b6000816000015173ffffffffffffffffffffffffffffffffffffffff1663b9232775836101400151604051806101400160405280866020015181526020018660400151815260200186606001518152602001866080015181526020018660a0015181526020018660e0015181526020016000151581526020018660c001511515815260200186610100015173ffffffffffffffffffffffffffffffffffffffff1681526020018661012001518152508561016001516040518463ffffffff1660e01b81526004016156fd929190617f05565b60206040518083038185885af115801561571b573d6000803e3d6000fd5b50505050506040513d601f19601f820116820180604052508101906157409190617737565b9050919050565b60606157558383600061586c565b905092915050565b60008373ffffffffffffffffffffffffffffffffffffffff1663095ea7b3848460405160240161578e929190617b6b565b604051602081830303815290604052915060e01b6020820180517bffffffffffffffffffffffffffffffffffffffffffffffffffffffff838183161783525050505090506157dc8482615939565b6158665761585b848573ffffffffffffffffffffffffffffffffffffffff1663095ea7b3866000604051602401615814929190617ffa565b604051602081830303815290604052915060e01b6020820180517bffffffffffffffffffffffffffffffffffffffffffffffffffffffff838183161783525050505061509d565b615865848261509d565b5b50505050565b6060814710156158b357306040517fcd7860590000000000000000000000000000000000000000000000000000000081526004016158aa919061759d565b60405180910390fd5b6000808573ffffffffffffffffffffffffffffffffffffffff1684866040516158dc9190617fa8565b60006040518083038185875af1925050503d8060008114615919576040519150601f19603f3d011682016040523d82523d6000602084013e61591e565b606091505b509150915061592e868383615a00565b925050509392505050565b60008060008473ffffffffffffffffffffffffffffffffffffffff16846040516159639190617fa8565b6000604051808303816000865af19150503d80600081146159a0576040519150601f19603f3d011682016040523d82523d6000602084013e6159a5565b606091505b50915091508180156159d357506000815114806159d25750808060200190518101906159d19190617b04565b5b5b80156159f6575060008573ffffffffffffffffffffffffffffffffffffffff163b115b9250505092915050565b606082615a1557615a1082615a8f565b615a87565b60008251148015615a3d575060008473ffffffffffffffffffffffffffffffffffffffff163b145b15615a7f57836040517f9996b315000000000000000000000000000000000000000000000000000000008152600401615a76919061759d565b60405180910390fd5b819050615a88565b5b9392505050565b600081511115615aa25780518082602001fd5b6040517f1425ea4200000000000000000000000000000000000000000000000000000000815260040160405180910390fd5b6040518060a00160405280615ae7615cb6565b8152602001615af4615b19565b8152602001600067ffffffffffffffff16815260200160008152602001600081525090565b6040518060c0016040528060608152602001600073ffffffffffffffffffffffffffffffffffffffff168152602001600073ffffffffffffffffffffffffffffffffffffffff168152602001600060ff168152602001600067ffffffffffffffff168152602001600081525090565b604051806101000160405280600073ffffffffffffffffffffffffffffffffffffffff168152602001600081526020016000815260200160008152602001600081526020016060815260200160608152602001600073ffffffffffffffffffffffffffffffffffffffff1681525090565b6040518060400160405280600073ffffffffffffffffffffffffffffffffffffffff168152602001600081525090565b6040518060c00160405280600073ffffffffffffffffffffffffffffffffffffffff168152602001600081526020016000815260200160008152602001600060ff168152602001600073ffffffffffffffffffffffffffffffffffffffff1681525090565b6040518060800160405280600081526020016060815260200160608152602001606081525090565b604051806040016040528060008152602001606081525090565b6000604051905090565b600080fd5b600080fd5b600080fd5b600060608284031215615cff57615cfe615ce4565b5b81905092915050565b600060208284031215615d1e57615d1d615cda565b5b600082013567ffffffffffffffff811115615d3c57615d3b615cdf565b5b615d4884828501615ce9565b91505092915050565b600060608284031215615d6757615d66615ce4565b5b81905092915050565b600060208284031215615d8657615d85615cda565b5b600082013567ffffffffffffffff811115615da457615da3615cdf565b5b615db084828501615d51565b91505092915050565b600073ffffffffffffffffffffffffffffffffffffffff82169050919050565b6000819050919050565b6000615dfe615df9615df484615db9565b615dd9565b615db9565b9050919050565b6000615e1082615de3565b9050919050565b6000615e2282615e05565b9050919050565b615e3281615e17565b82525050565b6000602082019050615e4d6000830184615e29565b92915050565b600080fd5b6000601f19601f8301169050919050565b7f4e487b7100000000000000000000000000000000000000000000000000000000600052604160045260246000fd5b615ea182615e58565b810181811067ffffffffffffffff82111715615ec057615ebf615e69565b5b80604052505050565b6000615ed3615cd0565b9050615edf8282615e98565b919050565b600080fd5b600080fd5b600067ffffffffffffffff821115615f0957615f08615e69565b5b602082029050602081019050919050565b600080fd5b6000819050919050565b615f3281615f1f565b8114615f3d57600080fd5b50565b600081359050615f4f81615f29565b92915050565b6000615f68615f6384615eee565b615ec9565b90508083825260208201905060208402830185811115615f8b57615f8a615f1a565b5b835b81811015615fb45780615fa08882615f40565b845260208401935050602081019050615f8d565b5050509392505050565b600082601f830112615fd357615fd2615ee9565b5b8135615fe3848260208601615f55565b91505092915050565b600067ffffffffffffffff82111561600757616006615e69565b5b602082029050602081019050919050565b600080fd5b600067ffffffffffffffff82111561603857616037615e69565b5b61604182615e58565b9050602081019050919050565b82818337600083830152505050565b600061607061606b8461601d565b615ec9565b90508281526020810184848401111561608c5761608b616018565b5b61609784828561604e565b509392505050565b600082601f8301126160b4576160b3615ee9565b5b81356160c484826020860161605d565b91505092915050565b60006160d882615db9565b9050919050565b6160e8816160cd565b81146160f357600080fd5b50565b600081359050616105816160df565b92915050565b600060ff82169050919050565b6161218161610b565b811461612c57600080fd5b50565b60008135905061613e81616118565b92915050565b600067ffffffffffffffff82169050919050565b61616181616144565b811461616c57600080fd5b50565b60008135905061617e81616158565b92915050565b600060c0828403121561619a57616199615e53565b5b6161a460c0615ec9565b9050600082013567ffffffffffffffff8111156161c4576161c3615ee4565b5b6161d08482850161609f565b60008301525060206161e4848285016160f6565b60208301525060406161f8848285016160f6565b604083015250606061620c8482850161612f565b60608301525060806162208482850161616f565b60808301525060a061623484828501615f40565b60a08301525092915050565b600061625361624e84615fec565b615ec9565b9050808382526020820190506020840283018581111561627657616275615f1a565b5b835b818110156162bd57803567ffffffffffffffff81111561629b5761629a615ee9565b5b8086016162a88982616184565b85526020850194505050602081019050616278565b5050509392505050565b600082601f8301126162dc576162db615ee9565b5b81356162ec848260208601616240565b91505092915050565b600067ffffffffffffffff8211156163105761630f615e69565b5b602082029050602081019050919050565b60008115159050919050565b61633681616321565b811461634157600080fd5b50565b6000813590506163538161632d565b92915050565b600061636c616367846162f5565b615ec9565b9050808382526020820190506020840283018581111561638f5761638e615f1a565b5b835b818110156163b857806163a48882616344565b845260208401935050602081019050616391565b5050509392505050565b600082601f8301126163d7576163d6615ee9565b5b81356163e7848260208601616359565b91505092915050565b6000610160828403121561640757616406615e53565b5b616412610160615ec9565b9050600082013567ffffffffffffffff81111561643257616431615ee4565b5b61643e84828501615fbe565b600083015250602082013567ffffffffffffffff81111561646257616461615ee4565b5b61646e84828501615fbe565b602083015250604082013567ffffffffffffffff81111561649257616491615ee4565b5b61649e84828501615fbe565b604083015250606082013567ffffffffffffffff8111156164c2576164c1615ee4565b5b6164ce84828501615fbe565b606083015250608082013567ffffffffffffffff8111156164f2576164f1615ee4565b5b6164fe848285016162c7565b60808301525060a082013567ffffffffffffffff81111561652257616521615ee4565b5b61652e8482850161609f565b60a08301525060c082013567ffffffffffffffff81111561655257616551615ee4565b5b61655e848285016163c2565b60c08301525060e082013567ffffffffffffffff81111561658257616581615ee4565b5b61658e848285016163c2565b60e0830152506101006165a3848285016160f6565b610100830152506101206165b9848285016160f6565b6101208301525061014082013567ffffffffffffffff8111156165df576165de615ee4565b5b6165eb8482850161609f565b6101408301525092915050565b60006020828403121561660e5761660d615e53565b5b6166186020615ec9565b9050600082013567ffffffffffffffff81111561663857616637615ee4565b5b616644848285016163f0565b60008301525092915050565b60006020828403121561666657616665615cda565b5b600082013567ffffffffffffffff81111561668457616683615cdf565b5b616690848285016165f8565b91505092915050565b600061016082840312156166b0576166af615e53565b5b6166bb610160615ec9565b905060006166cb84828501615f40565b60008301525060206166df84828501615f40565b60208301525060406166f384828501615f40565b604083015250606061670784828501615f40565b606083015250608082013567ffffffffffffffff81111561672b5761672a615ee4565b5b61673784828501616184565b60808301525060a082013567ffffffffffffffff81111561675b5761675a615ee4565b5b6167678482850161609f565b60a08301525060c061677b84828501616344565b60c08301525060e061678f84828501616344565b60e0830152506101006167a4848285016160f6565b610100830152506101206167ba848285016160f6565b6101208301525061014082013567ffffffffffffffff8111156167e0576167df615ee4565b5b6167ec8482850161609f565b6101408301525092915050565b60006020828403121561680f5761680e615e53565b5b6168196020615ec9565b9050600082013567ffffffffffffffff81111561683957616838615ee4565b5b61684584828501616699565b60008301525092915050565b60006020828403121561686757616866615cda565b5b600082013567ffffffffffffffff81111561688557616884615cdf565b5b616891848285016167f9565b91505092915050565b6168a381615f1f565b82525050565b60006020820190506168be600083018461689a565b92915050565b6000602082840312156168da576168d9615cda565b5b60006168e8848285016160f6565b91505092915050565b600067ffffffffffffffff82111561690c5761690b615e69565b5b602082029050602081019050919050565b600061693061692b846168f1565b615ec9565b9050808382526020820190506020840283018581111561695357616952615f1a565b5b835b8181101561697c5780616968888261612f565b845260208401935050602081019050616955565b5050509392505050565b600082601f83011261699b5761699a615ee9565b5b81356169ab84826020860161691d565b91505092915050565b6000606082840312156169ca576169c9615e53565b5b6169d46060615ec9565b9050600082013567ffffffffffffffff8111156169f4576169f3615ee4565b5b616a0084828501616986565b6000830152506020616a148482850161616f565b602083015250604082013567ffffffffffffffff811115616a3857616a37615ee4565b5b616a4484828501616699565b60408301525092915050565b600060208284031215616a6657616a65615cda565b5b600082013567ffffffffffffffff811115616a8457616a83615cdf565b5b616a90848285016169b4565b91505092915050565b616aa281616144565b82525050565b6000602082019050616abd6000830184616a99565b92915050565b600060608284031215616ad957616ad8615e53565b5b616ae36060615ec9565b9050600082013567ffffffffffffffff811115616b0357616b02615ee4565b5b616b0f84828501616986565b6000830152506020616b238482850161616f565b602083015250604082013567ffffffffffffffff811115616b4757616b46615ee4565b5b616b53848285016163f0565b60408301525092915050565b600060208284031215616b7557616b74615cda565b5b600082013567ffffffffffffffff811115616b9357616b92615cdf565b5b616b9f84828501616ac3565b91505092915050565b7f4e487b7100000000000000000000000000000000000000000000000000000000600052601160045260246000fd5b6000616be282615f1f565b9150616bed83615f1f565b9250828203905081811115616c0557616c04616ba8565b5b92915050565b600080fd5b600080fd5b600080fd5b60008083356001602003843603038112616c3757616c36616c0b565b5b80840192508235915067ffffffffffffffff821115616c5957616c58616c10565b5b602083019250602082023603831315616c7557616c74616c15565b5b509250929050565b7f4e487b7100000000000000000000000000000000000000000000000000000000600052603260045260246000fd5b600060208284031215616cc257616cc1615cda565b5b6000616cd08482850161616f565b91505092915050565b60008083356001602003843603038112616cf657616cf5616c0b565b5b80840192508235915067ffffffffffffffff821115616d1857616d17616c10565b5b602083019250602082023603831315616d3457616d33616c15565b5b509250929050565b60008235600161016003833603038112616d5957616d58616c0b565b5b80830191505092915050565b6000616d7136836163f0565b9050919050565b60008083356001602003843603038112616d9557616d94616c0b565b5b80840192508235915067ffffffffffffffff821115616db757616db6616c10565b5b602083019250602082023603831315616dd357616dd2616c15565b5b509250929050565b60008083356001602003843603038112616df857616df7616c0b565b5b80840192508235915067ffffffffffffffff821115616e1a57616e19616c10565b5b602083019250602082023603831315616e3657616e35616c15565b5b509250929050565b60008083356001602003843603038112616e5b57616e5a616c0b565b5b80840192508235915067ffffffffffffffff821115616e7d57616e7c616c10565b5b602083019250602082023603831315616e9957616e98616c15565b5b509250929050565b60008235600161016003833603038112616ebe57616ebd616c0b565b5b80830191505092915050565b6000616ed63683616699565b9050919050565b616ee6816160cd565b82525050565b600081519050919050565b600082825260208201905092915050565b6000819050602082019050919050565b616f2181615f1f565b82525050565b6000616f338383616f18565b60208301905092915050565b6000602082019050919050565b6000616f5782616eec565b616f618185616ef7565b9350616f6c83616f08565b8060005b83811015616f9d578151616f848882616f27565b9750616f8f83616f3f565b925050600181019050616f70565b5085935050505092915050565b6000606082019050616fbf6000830186616edd565b8181036020830152616fd18185616f4c565b90508181036040830152616fe58184616f4c565b9050949350505050565b6000616ffa82615f1f565b91507fffffffffffffffffffffffffffffffffffffffffffffffffffffffffffffffff820361702c5761702b616ba8565b5b600182019050919050565b7f4e487b7100000000000000000000000000000000000000000000000000000000600052602160045260246000fd5b600082825260208201905092915050565b600061708282616eec565b61708c8185617066565b935061709783616f08565b8060005b838110156170c85781516170af8882616f27565b97506170ba83616f3f565b92505060018101905061709b565b5085935050505092915050565b600081519050919050565b600082825260208201905092915050565b6000819050602082019050919050565b600081519050919050565b600082825260208201905092915050565b60005b8381101561713b578082015181840152602081019050617120565b60008484015250505050565b600061715282617101565b61715c818561710c565b935061716c81856020860161711d565b61717581615e58565b840191505092915050565b617189816160cd565b82525050565b6171988161610b565b82525050565b6171a781616144565b82525050565b600060c08301600083015184820360008601526171ca8282617147565b91505060208301516171df6020860182617180565b5060408301516171f26040860182617180565b506060830151617205606086018261718f565b506080830151617218608086018261719e565b5060a083015161722b60a0860182616f18565b508091505092915050565b600061724283836171ad565b905092915050565b6000602082019050919050565b6000617262826170d5565b61726c81856170e0565b93508360208202850161727e856170f1565b8060005b858110156172ba578484038952815161729b8582617236565b94506172a68361724a565b925060208a01995050600181019050617282565b50829750879550505050505092915050565b600081519050919050565b600082825260208201905092915050565b6000819050602082019050919050565b61730181616321565b82525050565b600061731383836172f8565b60208301905092915050565b6000602082019050919050565b6000617337826172cc565b61734181856172d7565b935061734c836172e8565b8060005b8381101561737d5781516173648882617307565b975061736f8361731f565b925050600181019050617350565b5085935050505092915050565b6000610140830160008301516173a36000860182616f18565b50602083015184820360208601526173bb8282617077565b915050604083015184820360408601526173d58282617077565b915050606083015184820360608601526173ef8282617077565b915050608083015184820360808601526174098282617077565b91505060a083015184820360a08601526174238282617257565b91505060c083015184820360c086015261743d828261732c565b91505060e083015184820360e0860152617457828261732c565b91505061010083015161746e610100860182617180565b506101208301518482036101208601526174888282617147565b9150508091505092915050565b600060208201905081810360008301526174af818461738a565b905092915050565b600081519050919050565b600082825260208201905092915050565b6000819050602082019050919050565b60006174ef838361718f565b60208301905092915050565b6000602082019050919050565b6000617513826174b7565b61751d81856174c2565b9350617528836174d3565b8060005b8381101561755957815161754088826174e3565b975061754b836174fb565b92505060018101905061752c565b5085935050505092915050565b600060408201905081810360008301526175808185616f4c565b905081810360208301526175948184617508565b90509392505050565b60006020820190506175b26000830184616edd565b92915050565b60006060820190506175cd6000830186616edd565b6175da602083018561689a565b6175e7604083018461689a565b949350505050565b6000610140830160008301516176086000860182616f18565b50602083015161761b6020860182616f18565b50604083015161762e6040860182616f18565b5060608301516176416060860182616f18565b5060808301516176546080860182616f18565b5060a083015184820360a086015261766c82826171ad565b91505060c083015161768160c08601826172f8565b5060e083015161769460e08601826172f8565b506101008301516176a9610100860182617180565b506101208301518482036101208601526176c38282617147565b9150508091505092915050565b600060208201905081810360008301526176ea81846175ef565b905092915050565b6000604082019050617707600083018561689a565b81810360208301526177198184617508565b90509392505050565b60008151905061773181615f29565b92915050565b60006020828403121561774d5761774c615cda565b5b600061775b84828501617722565b91505092915050565b6000608082019050818103600083015261777e8187616f4c565b905081810360208301526177928186616f4c565b905081810360408301526177a68185617508565b905081810360608301526177ba8184617508565b905095945050505050565b6177ce8161610b565b82525050565b60006080820190506177e9600083018761689a565b6177f6602083018661689a565b61780360408301856177c5565b81810360608301526178158184617508565b905095945050505050565b6000819050919050565b61783381617820565b82525050565b600060208201905061784e600083018461782a565b92915050565b600081519050617863816160df565b92915050565b60006020828403121561787f5761787e615cda565b5b600061788d84828501617854565b91505092915050565b60006040830160008301516178ae6000860182616f18565b50602083015184820360208601526178c68282617147565b9150508091505092915050565b600060208201905081810360008301526178ed8184617896565b905092915050565b600082825260208201905092915050565b600061791182617101565b61791b81856178f5565b935061792b81856020860161711d565b61793481615e58565b840191505092915050565b60006060820190506179546000830186616a99565b81810360208301526179668185617508565b9050818103604083015261797a8184617906565b9050949350505050565b60006179976179928461601d565b615ec9565b9050828152602081018484840111156179b3576179b2616018565b5b6179be84828561711d565b509392505050565b600082601f8301126179db576179da615ee9565b5b81516179eb848260208601617984565b91505092915050565b60008060408385031215617a0b57617a0a615cda565b5b6000617a1985828601617722565b925050602083015167ffffffffffffffff811115617a3a57617a39615cdf565b5b617a46858286016179c6565b9150509250929050565b6000606082019050617a65600083018661689a565b617a72602083018561689a565b617a7f6040830184616edd565b949350505050565b600060a082019050617a9c6000830188616edd565b8181036020830152617aae8187617508565b9050617abd6040830186616a99565b8181036060830152617acf8185617906565b90508181036080830152617ae38184617906565b90509695505050505050565b600081519050617afe8161632d565b92915050565b600060208284031215617b1a57617b19615cda565b5b6000617b2884828501617aef565b91505092915050565b600063ffffffff82169050919050565b617b4a81617b31565b82525050565b6000602082019050617b656000830184617b41565b92915050565b6000604082019050617b806000830185616edd565b617b8d602083018461689a565b9392505050565b6000602082019050617ba960008301846177c5565b92915050565b617bb881616321565b82525050565b60006040820190508181036000830152617bd88185617906565b9050617be76020830184617baf565b9392505050565b6000617bf982615f1f565b9150617c0483615f1f565b9250828201905080821115617c1c57617c1b616ba8565b5b92915050565b600080600060608486031215617c3b57617c3a615cda565b5b6000617c4986828701617722565b9350506020617c5a86828701617722565b925050604084015167ffffffffffffffff811115617c7b57617c7a615cdf565b5b617c87868287016179c6565b9150509250925092565b6000617c9c82615e05565b9050919050565b617cac81617c91565b82525050565b604082016000820151617cc86000850182617ca3565b506020820151617cdb6020850182616f18565b50505050565b608082016000820151617cf76000850182617cb2565b506020820151617d0a6040850182616f18565b506040820151617d1d6060850182616f18565b50505050565b604082016000820151617d396000850182617180565b506020820151617d4c6020850182616f18565b50505050565b600061010082019050617d686000830187617ce1565b617d756080830186617d23565b617d8260c0830185616edd565b81810360e0830152617d948184617906565b905095945050505050565b6000604082019050617db46000830185616edd565b617dc16020830184616edd565b9392505050565b6000610120830160008301518482036000860152617de68282617147565b9150506020830151617dfb602086018261719e565b506040830151617e0e604086018261719e565b506060830151617e21606086018261719e565b506080830151617e3460808601826172f8565b5060a0830151617e4760a0860182617180565b5060c0830151617e5a60c0860182617180565b5060e0830151617e6d60e0860182617180565b50610100830151617e82610100860182617180565b508091505092915050565b60006020820190508181036000830152617ea78184617dc8565b905092915050565b60007fffffffff0000000000000000000000000000000000000000000000000000000082169050919050565b617ee481617eaf565b82525050565b6000602082019050617eff6000830184617edb565b92915050565b60006040820190508181036000830152617f1f81856175ef565b9050617f2e6020830184616edd565b9392505050565b6000606082019050617f4a6000830186616edd565b617f576020830185616edd565b617f64604083018461689a565b949350505050565b600081905092915050565b6000617f8282617101565b617f8c8185617f6c565b9350617f9c81856020860161711d565b80840191505092915050565b6000617fb48284617f77565b915081905092915050565b6000819050919050565b6000617fe4617fdf617fda84617fbf565b615dd9565b615f1f565b9050919050565b617ff481617fc9565b82525050565b600060408201905061800f6000830185616edd565b61801c6020830184617feb565b939250505056fea26469706673582212203e70bfc3b408b828cbe9afdfd1b31cff5f8143e209f1442c5f40839eee6e927f64736f6c63430008170033","linkReferences":{}},"methodIdentifiers":{"CHAIN_ID()":"85e1f4d0","forwardDustToPaymaster(address)":"4dcd03c0","multiDstMultiVaultDeposit((uint8[][],uint64[],(uint256[],uint256[],uint256[],uint256[],(bytes,address,address,uint8,uint64,uint256)[],bytes,bool[],bool[],address,address,bytes)[]))":"f9d4f18c","multiDstMultiVaultWithdraw((uint8[][],uint64[],(uint256[],uint256[],uint256[],uint256[],(bytes,address,address,uint8,uint64,uint256)[],bytes,bool[],bool[],address,address,bytes)[]))":"165b7a3b","multiDstSingleVaultDeposit((uint8[][],uint64[],(uint256,uint256,uint256,uint256,(bytes,address,address,uint8,uint64,uint256),bytes,bool,bool,address,address,bytes)[]))":"ae1068f2","multiDstSingleVaultWithdraw((uint8[][],uint64[],(uint256,uint256,uint256,uint256,(bytes,address,address,uint8,uint64,uint256),bytes,bool,bool,address,address,bytes)[]))":"178f0038","payloadIds()":"4325082e","singleDirectMultiVaultDeposit(((uint256[],uint256[],uint256[],uint256[],(bytes,address,address,uint8,uint64,uint256)[],bytes,bool[],bool[],address,address,bytes)))":"fa0f64eb","singleDirectMultiVaultWithdraw(((uint256[],uint256[],uint256[],uint256[],(bytes,address,address,uint8,uint64,uint256)[],bytes,bool[],bool[],address,address,bytes)))":"2c1c0ba4","singleDirectSingleVaultDeposit(((uint256,uint256,uint256,uint256,(bytes,address,address,uint8,uint64,uint256),bytes,bool,bool,address,address,bytes)))":"b19dcc33","singleDirectSingleVaultWithdraw(((uint256,uint256,uint256,uint256,(bytes,address,address,uint8,uint64,uint256),bytes,bool,bool,address,address,bytes)))":"407c7b1d","singleXChainMultiVaultDeposit((uint8[],uint64,(uint256[],uint256[],uint256[],uint256[],(bytes,address,address,uint8,uint64,uint256)[],bytes,bool[],bool[],address,address,bytes)))":"881d42bb","singleXChainMultiVaultWithdraw((uint8[],uint64,(uint256[],uint256[],uint256[],uint256[],(bytes,address,address,uint8,uint64,uint256)[],bytes,bool[],bool[],address,address,bytes)))":"87493e21","singleXChainSingleVaultDeposit((uint8[],uint64,(uint256,uint256,uint256,uint256,(bytes,address,address,uint8,uint64,uint256),bytes,bool,bool,address,address,bytes)))":"e5672e23","singleXChainSingleVaultWithdraw((uint8[],uint64,(uint256,uint256,uint256,uint256,(bytes,address,address,uint8,uint64,uint256),bytes,bool,bool,address,address,bytes)))":"67d70a29","superRegistry()":"24c73dda"},"id":115}