{"abi":[{"type":"constructor","inputs":[{"name":"superRegistry_","type":"address","internalType":"address"}],"stateMutability":"nonpayable"},{"type":"function","name":"CHAIN_ID","inputs":[],"outputs":[{"name":"","type":"uint64","internalType":"uint64"}],"stateMutability":"view"},{"type":"function","name":"asset","inputs":[],"outputs":[{"name":"","type":"address","internalType":"address"}],"stateMutability":"view"},{"type":"function","name":"directDepositIntoVault","inputs":[{"name":"singleVaultData_","type":"tuple","internalType":"struct InitSingleVaultData","components":[{"name":"payloadId","type":"uint256","internalType":"uint256"},{"name":"superformId","type":"uint256","internalType":"uint256"},{"name":"amount","type":"uint256","internalType":"uint256"},{"name":"outputAmount","type":"uint256","internalType":"uint256"},{"name":"maxSlippage","type":"uint256","internalType":"uint256"},{"name":"liqData","type":"tuple","internalType":"struct LiqRequest","components":[{"name":"txData","type":"bytes","internalType":"bytes"},{"name":"token","type":"address","internalType":"address"},{"name":"interimToken","type":"address","internalType":"address"},{"name":"bridgeId","type":"uint8","internalType":"uint8"},{"name":"liqDstChainId","type":"uint64","internalType":"uint64"},{"name":"nativeAmount","type":"uint256","internalType":"uint256"}]},{"name":"hasDstSwap","type":"bool","internalType":"bool"},{"name":"retain4626","type":"bool","internalType":"bool"},{"name":"receiverAddress","type":"address","internalType":"address"},{"name":"extraFormData","type":"bytes","internalType":"bytes"}]},{"name":"srcSender_","type":"address","internalType":"address"}],"outputs":[{"name":"shares","type":"uint256","internalType":"uint256"}],"stateMutability":"payable"},{"type":"function","name":"directWithdrawFromVault","inputs":[{"name":"singleVaultData_","type":"tuple","internalType":"struct InitSingleVaultData","components":[{"name":"payloadId","type":"uint256","internalType":"uint256"},{"name":"superformId","type":"uint256","internalType":"uint256"},{"name":"amount","type":"uint256","internalType":"uint256"},{"name":"outputAmount","type":"uint256","internalType":"uint256"},{"name":"maxSlippage","type":"uint256","internalType":"uint256"},{"name":"liqData","type":"tuple","internalType":"struct LiqRequest","components":[{"name":"txData","type":"bytes","internalType":"bytes"},{"name":"token","type":"address","internalType":"address"},{"name":"interimToken","type":"address","internalType":"address"},{"name":"bridgeId","type":"uint8","internalType":"uint8"},{"name":"liqDstChainId","type":"uint64","internalType":"uint64"},{"name":"nativeAmount","type":"uint256","internalType":"uint256"}]},{"name":"hasDstSwap","type":"bool","internalType":"bool"},{"name":"retain4626","type":"bool","internalType":"bool"},{"name":"receiverAddress","type":"address","internalType":"address"},{"name":"extraFormData","type":"bytes","internalType":"bytes"}]},{"name":"srcSender_","type":"address","internalType":"address"}],"outputs":[{"name":"assets","type":"uint256","internalType":"uint256"}],"stateMutability":"nonpayable"},{"type":"function","name":"emergencyWithdraw","inputs":[{"name":"receiverAddress_","type":"address","internalType":"address"},{"name":"amount_","type":"uint256","internalType":"uint256"}],"outputs":[],"stateMutability":"nonpayable"},{"type":"function","name":"forwardDustToPaymaster","inputs":[{"name":"token_","type":"address","internalType":"address"}],"outputs":[],"stateMutability":"nonpayable"},{"type":"function","name":"getPreviewPricePerVaultShare","inputs":[],"outputs":[{"name":"","type":"uint256","internalType":"uint256"}],"stateMutability":"view"},{"type":"function","name":"getPricePerVaultShare","inputs":[],"outputs":[{"name":"","type":"uint256","internalType":"uint256"}],"stateMutability":"view"},{"type":"function","name":"getStateRegistryId","inputs":[],"outputs":[{"name":"","type":"uint8","internalType":"uint8"}],"stateMutability":"view"},{"type":"function","name":"getTotalAssets","inputs":[],"outputs":[{"name":"","type":"uint256","internalType":"uint256"}],"stateMutability":"view"},{"type":"function","name":"getTotalSupply","inputs":[],"outputs":[{"name":"","type":"uint256","internalType":"uint256"}],"stateMutability":"view"},{"type":"function","name":"getVaultAddress","inputs":[],"outputs":[{"name":"","type":"address","internalType":"address"}],"stateMutability":"view"},{"type":"function","name":"getVaultAsset","inputs":[],"outputs":[{"name":"","type":"address","internalType":"address"}],"stateMutability":"view"},{"type":"function","name":"getVaultDecimals","inputs":[],"outputs":[{"name":"","type":"uint256","internalType":"uint256"}],"stateMutability":"view"},{"type":"function","name":"getVaultName","inputs":[],"outputs":[{"name":"","type":"string","internalType":"string"}],"stateMutability":"view"},{"type":"function","name":"getVaultShareBalance","inputs":[],"outputs":[{"name":"","type":"uint256","internalType":"uint256"}],"stateMutability":"view"},{"type":"function","name":"getVaultSymbol","inputs":[],"outputs":[{"name":"","type":"string","internalType":"string"}],"stateMutability":"view"},{"type":"function","name":"initialize","inputs":[{"name":"superRegistry_","type":"address","internalType":"address"},{"name":"vault_","type":"address","internalType":"address"},{"name":"asset_","type":"address","internalType":"address"}],"outputs":[],"stateMutability":"nonpayable"},{"type":"function","name":"previewDepositTo","inputs":[{"name":"assets_","type":"uint256","internalType":"uint256"}],"outputs":[{"name":"","type":"uint256","internalType":"uint256"}],"stateMutability":"view"},{"type":"function","name":"previewRedeemFrom","inputs":[{"name":"shares_","type":"uint256","internalType":"uint256"}],"outputs":[{"name":"","type":"uint256","internalType":"uint256"}],"stateMutability":"view"},{"type":"function","name":"previewWithdrawFrom","inputs":[{"name":"assets_","type":"uint256","internalType":"uint256"}],"outputs":[{"name":"","type":"uint256","internalType":"uint256"}],"stateMutability":"view"},{"type":"function","name":"superRegistry","inputs":[],"outputs":[{"name":"","type":"address","internalType":"contract ISuperRegistry"}],"stateMutability":"view"},{"type":"function","name":"superformYieldTokenName","inputs":[],"outputs":[{"name":"","type":"string","internalType":"string"}],"stateMutability":"view"},{"type":"function","name":"superformYieldTokenSymbol","inputs":[],"outputs":[{"name":"","type":"string","internalType":"string"}],"stateMutability":"view"},{"type":"function","name":"supportsInterface","inputs":[{"name":"interfaceId_","type":"bytes4","internalType":"bytes4"}],"outputs":[{"name":"","type":"bool","internalType":"bool"}],"stateMutability":"view"},{"type":"function","name":"vault","inputs":[],"outputs":[{"name":"","type":"address","internalType":"address"}],"stateMutability":"view"},{"type":"function","name":"withdrawAfterCoolDown","inputs":[{"name":"p_","type":"tuple","internalType":"struct TimelockPayload","components":[{"name":"isXChain","type":"uint8","internalType":"uint8"},{"name":"srcChainId","type":"uint64","internalType":"uint64"},{"name":"lockedTill","type":"uint256","internalType":"uint256"},{"name":"data","type":"tuple","internalType":"struct InitSingleVaultData","components":[{"name":"payloadId","type":"uint256","internalType":"uint256"},{"name":"superformId","type":"uint256","internalType":"uint256"},{"name":"amount","type":"uint256","internalType":"uint256"},{"name":"outputAmount","type":"uint256","internalType":"uint256"},{"name":"maxSlippage","type":"uint256","internalType":"uint256"},{"name":"liqData","type":"tuple","internalType":"struct LiqRequest","components":[{"name":"txData","type":"bytes","internalType":"bytes"},{"name":"token","type":"address","internalType":"address"},{"name":"interimToken","type":"address","internalType":"address"},{"name":"bridgeId","type":"uint8","internalType":"uint8"},{"name":"liqDstChainId","type":"uint64","internalType":"uint64"},{"name":"nativeAmount","type":"uint256","internalType":"uint256"}]},{"name":"hasDstSwap","type":"bool","internalType":"bool"},{"name":"retain4626","type":"bool","internalType":"bool"},{"name":"receiverAddress","type":"address","internalType":"address"},{"name":"extraFormData","type":"bytes","internalType":"bytes"}]},{"name":"status","type":"uint8","internalType":"enum TimelockStatus"}]}],"outputs":[{"name":"assets","type":"uint256","internalType":"uint256"}],"stateMutability":"nonpayable"},{"type":"function","name":"xChainDepositIntoVault","inputs":[{"name":"singleVaultData_","type":"tuple","internalType":"struct InitSingleVaultData","components":[{"name":"payloadId","type":"uint256","internalType":"uint256"},{"name":"superformId","type":"uint256","internalType":"uint256"},{"name":"amount","type":"uint256","internalType":"uint256"},{"name":"outputAmount","type":"uint256","internalType":"uint256"},{"name":"maxSlippage","type":"uint256","internalType":"uint256"},{"name":"liqData","type":"tuple","internalType":"struct LiqRequest","components":[{"name":"txData","type":"bytes","internalType":"bytes"},{"name":"token","type":"address","internalType":"address"},{"name":"interimToken","type":"address","internalType":"address"},{"name":"bridgeId","type":"uint8","internalType":"uint8"},{"name":"liqDstChainId","type":"uint64","internalType":"uint64"},{"name":"nativeAmount","type":"uint256","internalType":"uint256"}]},{"name":"hasDstSwap","type":"bool","internalType":"bool"},{"name":"retain4626","type":"bool","internalType":"bool"},{"name":"receiverAddress","type":"address","internalType":"address"},{"name":"extraFormData","type":"bytes","internalType":"bytes"}]},{"name":"srcSender_","type":"address","internalType":"address"},{"name":"srcChainId_","type":"uint64","internalType":"uint64"}],"outputs":[{"name":"shares","type":"uint256","internalType":"uint256"}],"stateMutability":"nonpayable"},{"type":"function","name":"xChainWithdrawFromVault","inputs":[{"name":"singleVaultData_","type":"tuple","internalType":"struct InitSingleVaultData","components":[{"name":"payloadId","type":"uint256","internalType":"uint256"},{"name":"superformId","type":"uint256","internalType":"uint256"},{"name":"amount","type":"uint256","internalType":"uint256"},{"name":"outputAmount","type":"uint256","internalType":"uint256"},{"name":"maxSlippage","type":"uint256","internalType":"uint256"},{"name":"liqData","type":"tuple","internalType":"struct LiqRequest","components":[{"name":"txData","type":"bytes","internalType":"bytes"},{"name":"token","type":"address","internalType":"address"},{"name":"interimToken","type":"address","internalType":"address"},{"name":"bridgeId","type":"uint8","internalType":"uint8"},{"name":"liqDstChainId","type":"uint64","internalType":"uint64"},{"name":"nativeAmount","type":"uint256","internalType":"uint256"}]},{"name":"hasDstSwap","type":"bool","internalType":"bool"},{"name":"retain4626","type":"bool","internalType":"bool"},{"name":"receiverAddress","type":"address","internalType":"address"},{"name":"extraFormData","type":"bytes","internalType":"bytes"}]},{"name":"srcSender_","type":"address","internalType":"address"},{"name":"srcChainId_","type":"uint64","internalType":"uint64"}],"outputs":[{"name":"assets","type":"uint256","internalType":"uint256"}],"stateMutability":"nonpayable"},{"type":"event","name":"EmergencyWithdrawalProcessed","inputs":[{"name":"refundAddress","type":"address","indexed":true,"internalType":"address"},{"name":"amount","type":"uint256","indexed":true,"internalType":"uint256"}],"anonymous":false},{"type":"event","name":"FormDustForwardedToPaymaster","inputs":[{"name":"token","type":"address","indexed":true,"internalType":"address"},{"name":"amount","type":"uint256","indexed":true,"internalType":"uint256"}],"anonymous":false},{"type":"event","name":"Initialized","inputs":[{"name":"version","type":"uint64","indexed":false,"internalType":"uint64"}],"anonymous":false},{"type":"event","name":"Processed","inputs":[{"name":"srcChainID","type":"uint64","indexed":true,"internalType":"uint64"},{"name":"dstChainId","type":"uint64","indexed":true,"internalType":"uint64"},{"name":"srcPayloadId","type":"uint256","indexed":true,"internalType":"uint256"},{"name":"amount","type":"uint256","indexed":false,"internalType":"uint256"},{"name":"vault","type":"address","indexed":false,"internalType":"address"}],"anonymous":false},{"type":"event","name":"VaultAdded","inputs":[{"name":"id","type":"uint256","indexed":true,"internalType":"uint256"},{"name":"vault","type":"address","indexed":true,"internalType":"contract IERC4626"}],"anonymous":false},{"type":"error","name":"AddressEmptyCode","inputs":[{"name":"target","type":"address","internalType":"address"}]},{"type":"error","name":"AddressInsufficientBalance","inputs":[{"name":"account","type":"address","internalType":"address"}]},{"type":"error","name":"BLOCK_CHAIN_ID_OUT_OF_BOUNDS","inputs":[]},{"type":"error","name":"CANNOT_FORWARD_4646_TOKEN","inputs":[]},{"type":"error","name":"DIFFERENT_TOKENS","inputs":[]},{"type":"error","name":"DIRECT_DEPOSIT_SWAP_FAILED","inputs":[]},{"type":"error","name":"DIRECT_WITHDRAW_INVALID_LIQ_REQUEST","inputs":[]},{"type":"error","name":"FAILED_TO_EXECUTE_TXDATA","inputs":[{"name":"token","type":"address","internalType":"address"}]},{"type":"error","name":"FailedInnerCall","inputs":[]},{"type":"error","name":"INSUFFICIENT_ALLOWANCE_FOR_DEPOSIT","inputs":[]},{"type":"error","name":"INSUFFICIENT_BALANCE","inputs":[]},{"type":"error","name":"INSUFFICIENT_NATIVE_AMOUNT","inputs":[]},{"type":"error","name":"INVALID_CHAIN_ID","inputs":[]},{"type":"error","name":"InvalidInitialization","inputs":[]},{"type":"error","name":"NOT_CORE_STATE_REGISTRY","inputs":[]},{"type":"error","name":"NOT_EMERGENCY_QUEUE","inputs":[]},{"type":"error","name":"NOT_SUPERFORM_ROUTER","inputs":[]},{"type":"error","name":"NOT_SUPER_REGISTRY","inputs":[]},{"type":"error","name":"NOT_TIMELOCK_STATE_REGISTRY","inputs":[]},{"type":"error","name":"NotInitializing","inputs":[]},{"type":"error","name":"PAUSED","inputs":[]},{"type":"error","name":"RECEIVER_ADDRESS_NOT_SET","inputs":[]},{"type":"error","name":"SUPERFORM_ID_NONEXISTENT","inputs":[]},{"type":"error","name":"SafeERC20FailedOperation","inputs":[{"name":"token","type":"address","internalType":"address"}]},{"type":"error","name":"VAULT_IMPLEMENTATION_FAILED","inputs":[]},{"type":"error","name":"WITHDRAW_TOKEN_NOT_UPDATED","inputs":[]},{"type":"error","name":"WITHDRAW_TX_DATA_NOT_UPDATED","inputs":[]},{"type":"error","name":"WITHDRAW_ZERO_COLLATERAL","inputs":[]},{"type":"error","name":"XCHAIN_WITHDRAW_INVALID_LIQ_REQUEST","inputs":[]},{"type":"error","name":"ZERO_ADDRESS","inputs":[]},{"type":"error","name":"ZERO_AMOUNT","inputs":[]}],"bytecode":{"object":"0x60e06040523480156200001157600080fd5b50604051620070733803806200707383398181016040528101906200003791906200037d565b80600281600073ffffffffffffffffffffffffffffffffffffffff168173ffffffffffffffffffffffffffffffffffffffff1603620000a2576040517f538ba4f900000000000000000000000000000000000000000000000000000000815260040160405180910390fd5b67ffffffffffffffff8016461115620000e7576040517f7ecdf93300000000000000000000000000000000000000000000000000000000815260040160405180910390fd5b4667ffffffffffffffff1660a08167ffffffffffffffff16815250508073ffffffffffffffffffffffffffffffffffffffff1660808173ffffffffffffffffffffffffffffffffffffffff168152505062000147620001e160201b60201c565b5060805173ffffffffffffffffffffffffffffffffffffffff166357203ab4826040518263ffffffff1660e01b8152600401620001859190620003cd565b602060405180830381865afa158015620001a3573d6000803e3d6000fd5b505050506040513d601f19601f82011682018060405250810190620001c991906200037d565b508060ff1660c08160ff16815250505050506200042c565b6000620001f3620002eb60201b60201c565b90508060000160089054906101000a900460ff16156200023f576040517ff92ee8a900000000000000000000000000000000000000000000000000000000815260040160405180910390fd5b67ffffffffffffffff80168160000160009054906101000a900467ffffffffffffffff1667ffffffffffffffff1614620002e85767ffffffffffffffff8160000160006101000a81548167ffffffffffffffff021916908367ffffffffffffffff1602179055507fc7f505b2f371ae2175ee4913f4499e1f2633a7b5936321eed1cdaeb6115181d267ffffffffffffffff604051620002df91906200040f565b60405180910390a15b50565b60007ff0c57e16840df040f15088dc2f81fe391c3923bec73e23a9662efc9c229c6a00905090565b600080fd5b600073ffffffffffffffffffffffffffffffffffffffff82169050919050565b6000620003458262000318565b9050919050565b620003578162000338565b81146200036357600080fd5b50565b60008151905062000377816200034c565b92915050565b60006020828403121562000396576200039562000313565b5b6000620003a68482850162000366565b91505092915050565b600060ff82169050919050565b620003c781620003af565b82525050565b6000602082019050620003e46000830184620003bc565b92915050565b600067ffffffffffffffff82169050919050565b6200040981620003ea565b82525050565b6000602082019050620004266000830184620003fe565b92915050565b60805160a05160c051616b5a620005196000396000611b0a015260008181610e88015281816117e20152818161207d01528181612e900152818161388e01526145220152600081816109c901528181610eae01528181611051015281816115e80152818161182201528181611a3901528181611b3001528181611c7501528181611d7d01528181611efd0152818161228a0152818161239201528181612512015281816127b201528181612b0601528181612c2f01528181612d7301528181612ef10152818161323401528181613a1701528181614449015281816148770152614ca80152616b5a6000f3fe6080604052600436106101c25760003560e01c80638a816a3f116100f7578063b923277511610095578063cb829dc311610064578063cb829dc314610665578063ef164fef146106a2578063fbfa77cf146106df578063ff5f3e481461070a576101c2565b8063b9232775146105b6578063c0c53b8b146105e6578063c32dcd891461060f578063c4e41b221461063a576101c2565b806395e4f1da116100d157806395e4f1da146104e65780639f5376c114610523578063b60262ca1461054e578063b7ba28cd14610579576101c2565b80638a816a3f1461045557806391deb8821461049257806395ccea67146104bd576101c2565b806338d52e0f1161016457806365cacaa41161013e57806365cacaa4146103a95780636e07302b146103d457806377188067146103ff57806385e1f4d01461042a576101c2565b806338d52e0f1461032a57806338d92fd5146103555780634dcd03c014610380576101c2565b806320592d98116101a057806320592d981461026c57806324c73dda1461029757806335eda680146102c257806337d25010146102ed576101c2565b806301ffc9a7146101c757806307c080f91461020457806317a57e0814610241575b600080fd5b3480156101d357600080fd5b506101ee60048036038101906101e991906155fd565b610735565b6040516101fb9190615645565b60405180910390f35b34801561021057600080fd5b5061022b60048036038101906102269190615696565b6107af565b60405161023891906156d2565b60405180910390f35b34801561024d57600080fd5b50610256610853565b604051610263919061577d565b60405180910390f35b34801561027857600080fd5b5061028161090d565b60405161028e919061577d565b60405180910390f35b3480156102a357600080fd5b506102ac6109c7565b6040516102b9919061581e565b60405180910390f35b3480156102ce57600080fd5b506102d76109eb565b6040516102e491906156d2565b60405180910390f35b3480156102f957600080fd5b50610314600480360381019061030f9190615696565b610a8d565b60405161032191906156d2565b60405180910390f35b34801561033657600080fd5b5061033f610b31565b60405161034c919061585a565b60405180910390f35b34801561036157600080fd5b5061036a610b57565b60405161037791906156d2565b60405180910390f35b34801561038c57600080fd5b506103a760048036038101906103a291906158a1565b610c9a565b005b3480156103b557600080fd5b506103be610d2b565b6040516103cb919061585a565b60405180910390f35b3480156103e057600080fd5b506103e9610d54565b6040516103f691906156d2565b60405180910390f35b34801561040b57600080fd5b50610414610deb565b604051610421919061577d565b60405180910390f35b34801561043657600080fd5b5061043f610e86565b60405161044c91906158f1565b60405180910390f35b34801561046157600080fd5b5061047c60048036038101906104779190615d93565b610eaa565b60405161048991906156d2565b60405180910390f35b34801561049e57600080fd5b506104a7611b06565b6040516104b49190615deb565b60405180910390f35b3480156104c957600080fd5b506104e460048036038101906104df9190615e06565b611b2e565b005b3480156104f257600080fd5b5061050d60048036038101906105089190615e46565b611c5a565b60405161051a91906156d2565b60405180910390f35b34801561052f57600080fd5b50610538612106565b604051610545919061577d565b60405180910390f35b34801561055a57600080fd5b506105636121a1565b604051610570919061585a565b60405180910390f35b34801561058557600080fd5b506105a0600480360381019061059b9190615696565b6121cb565b6040516105ad91906156d2565b60405180910390f35b6105d060048036038101906105cb9190615eb5565b61226f565b6040516105dd91906156d2565b60405180910390f35b3480156105f257600080fd5b5061060d60048036038101906106089190615f11565b61268e565b005b34801561061b57600080fd5b506106246129ba565b60405161063191906156d2565b60405180910390f35b34801561064657600080fd5b5061064f612a54565b60405161065c91906156d2565b60405180910390f35b34801561067157600080fd5b5061068c60048036038101906106879190615eb5565b612aeb565b60405161069991906156d2565b60405180910390f35b3480156106ae57600080fd5b506106c960048036038101906106c49190615e46565b612d58565b6040516106d691906156d2565b60405180910390f35b3480156106eb57600080fd5b506106f4613052565b604051610701919061585a565b60405180910390f35b34801561071657600080fd5b5061071f613076565b60405161072c91906156d2565b60405180910390f35b60007f51fef147000000000000000000000000000000000000000000000000000000007bffffffffffffffffffffffffffffffffffffffffffffffffffffffff1916827bffffffffffffffffffffffffffffffffffffffffffffffffffffffff191614806107a857506107a7826131b9565b5b9050919050565b60008060009054906101000a900473ffffffffffffffffffffffffffffffffffffffff1673ffffffffffffffffffffffffffffffffffffffff1663c6e6f592836040518263ffffffff1660e01b815260040161080b91906156d2565b602060405180830381865afa158015610828573d6000803e3d6000fd5b505050506040513d601f19601f8201168201806040525081019061084c9190615f79565b9050919050565b606060008054906101000a900473ffffffffffffffffffffffffffffffffffffffff1673ffffffffffffffffffffffffffffffffffffffff166395d89b416040518163ffffffff1660e01b8152600401600060405180830381865afa1580156108c0573d6000803e3d6000fd5b505050506040513d6000823e3d601f19601f820116820180604052508101906108e99190616047565b6040516020016108f99190616118565b604051602081830303815290604052905090565b606060008054906101000a900473ffffffffffffffffffffffffffffffffffffffff1673ffffffffffffffffffffffffffffffffffffffff166306fdde036040518163ffffffff1660e01b8152600401600060405180830381865afa15801561097a573d6000803e3d6000fd5b505050506040513d6000823e3d601f19601f820116820180604052508101906109a39190616047565b6040516020016109b39190616186565b604051602081830303815290604052905090565b7f000000000000000000000000000000000000000000000000000000000000000081565b60008060009054906101000a900473ffffffffffffffffffffffffffffffffffffffff1673ffffffffffffffffffffffffffffffffffffffff166370a08231306040518263ffffffff1660e01b8152600401610a47919061585a565b602060405180830381865afa158015610a64573d6000803e3d6000fd5b505050506040513d601f19601f82011682018060405250810190610a889190615f79565b905090565b60008060009054906101000a900473ffffffffffffffffffffffffffffffffffffffff1673ffffffffffffffffffffffffffffffffffffffff16630a28a477836040518263ffffffff1660e01b8152600401610ae991906156d2565b602060405180830381865afa158015610b06573d6000803e3d6000fd5b505050506040513d601f19601f82011682018060405250810190610b2a9190615f79565b9050919050565b600160009054906101000a900473ffffffffffffffffffffffffffffffffffffffff1681565b60008060008054906101000a900473ffffffffffffffffffffffffffffffffffffffff1673ffffffffffffffffffffffffffffffffffffffff1663313ce5676040518163ffffffff1660e01b8152600401602060405180830381865afa158015610bc5573d6000803e3d6000fd5b505050506040513d601f19601f82011682018060405250810190610be991906161bd565b60ff16905060008054906101000a900473ffffffffffffffffffffffffffffffffffffffff1673ffffffffffffffffffffffffffffffffffffffff16634cdad50682600a610c37919061634c565b6040518263ffffffff1660e01b8152600401610c5391906156d2565b602060405180830381865afa158015610c70573d6000803e3d6000fd5b505050506040513d601f19601f82011682018060405250810190610c949190615f79565b91505090565b60008054906101000a900473ffffffffffffffffffffffffffffffffffffffff1673ffffffffffffffffffffffffffffffffffffffff168173ffffffffffffffffffffffffffffffffffffffff1603610d1f576040517f6ba4485300000000000000000000000000000000000000000000000000000000815260040160405180910390fd5b610d2881613223565b50565b60008060009054906101000a900473ffffffffffffffffffffffffffffffffffffffff16905090565b60008060009054906101000a900473ffffffffffffffffffffffffffffffffffffffff1673ffffffffffffffffffffffffffffffffffffffff166301e1d1146040518163ffffffff1660e01b8152600401602060405180830381865afa158015610dc2573d6000803e3d6000fd5b505050506040513d601f19601f82011682018060405250810190610de69190615f79565b905090565b606060008054906101000a900473ffffffffffffffffffffffffffffffffffffffff1673ffffffffffffffffffffffffffffffffffffffff166395d89b416040518163ffffffff1660e01b8152600401600060405180830381865afa158015610e58573d6000803e3d6000fd5b505050506040513d6000823e3d601f19601f82011682018060405250810190610e819190616047565b905090565b7f000000000000000000000000000000000000000000000000000000000000000081565b60007f000000000000000000000000000000000000000000000000000000000000000073ffffffffffffffffffffffffffffffffffffffff166321f8a7217f61d4f25a58ab968b8df895503bb626f9dad221b8e0c51ebd11185d5ad48943346040518263ffffffff1660e01b8152600401610f2591906163b0565b602060405180830381865afa158015610f42573d6000803e3d6000fd5b505050506040513d601f19601f82011682018060405250810190610f6691906163e0565b73ffffffffffffffffffffffffffffffffffffffff163373ffffffffffffffffffffffffffffffffffffffff1614610fca576040517febe1e90200000000000000000000000000000000000000000000000000000000815260040160405180910390fd5b600073ffffffffffffffffffffffffffffffffffffffff168260600151610100015173ffffffffffffffffffffffffffffffffffffffff1603611039576040517fabd840db00000000000000000000000000000000000000000000000000000000815260040160405180910390fd5b61104a82606001516020015161322f565b15611180577f000000000000000000000000000000000000000000000000000000000000000073ffffffffffffffffffffffffffffffffffffffff166321f8a7217fa2d83cf6f43caf068994e5ffe0938f6eabaa551d915b59bfda16ba012d30d9686040518263ffffffff1660e01b81526004016110c891906163b0565b602060405180830381865afa1580156110e5573d6000803e3d6000fd5b505050506040513d601f19601f8201168201806040525081019061110991906163e0565b73ffffffffffffffffffffffffffffffffffffffff1663bfdf22ad83606001516040518263ffffffff1660e01b81526004016111459190616617565b600060405180830381600087803b15801561115f57600080fd5b505af1158015611173573d6000803e3d6000fd5b5050505060009050611b01565b61118861540a565b60008060009054906101000a900473ffffffffffffffffffffffffffffffffffffffff169050836060015160a001518260c001819052508160c001516000015151826000018181525050600073ffffffffffffffffffffffffffffffffffffffff168260c001516020015173ffffffffffffffffffffffffffffffffffffffff161415801561121b575060008260000151145b15611252576040517f478d2a8000000000000000000000000000000000000000000000000000000000815260040160405180910390fd5b600073ffffffffffffffffffffffffffffffffffffffff168260c001516020015173ffffffffffffffffffffffffffffffffffffffff1614801561129b57506000826000015114155b156112d2576040517fa9644b6700000000000000000000000000000000000000000000000000000000815260040160405180910390fd5b60008260000151146112e457306112ef565b836060015161010001515b826060019073ffffffffffffffffffffffffffffffffffffffff16908173ffffffffffffffffffffffffffffffffffffffff1681525050600160009054906101000a900473ffffffffffffffffffffffffffffffffffffffff16826080019073ffffffffffffffffffffffffffffffffffffffff16908173ffffffffffffffffffffffffffffffffffffffff168152505060008260800151905060008173ffffffffffffffffffffffffffffffffffffffff166370a0823185606001516040518263ffffffff1660e01b81526004016113c8919061585a565b602060405180830381865afa1580156113e5573d6000803e3d6000fd5b505050506040513d601f19601f820116820180604052508101906114099190615f79565b90508273ffffffffffffffffffffffffffffffffffffffff1663ba0876528760600151604001518660600151306040518463ffffffff1660e01b815260040161145493929190616639565b6020604051808303816000875af1158015611473573d6000803e3d6000fd5b505050506040513d601f19601f820116820180604052508101906114979190615f79565b945060008273ffffffffffffffffffffffffffffffffffffffff166370a0823186606001516040518263ffffffff1660e01b81526004016114d8919061585a565b602060405180830381865afa1580156114f5573d6000803e3d6000fd5b505050506040513d601f19601f820116820180604052508101906115199190615f79565b90508582826115289190616670565b14158061156957508660600151608001516127106115469190616670565b87606001516060015161155991906166a4565b6127108761156791906166a4565b105b156115a0576040517fbd7f1b4200000000000000000000000000000000000000000000000000000000815260040160405180910390fd5b600086036115da576040517faffdc82f00000000000000000000000000000000000000000000000000000000815260040160405180910390fd5b6000856000015114611afb577f000000000000000000000000000000000000000000000000000000000000000073ffffffffffffffffffffffffffffffffffffffff1663e85b2b548660c00151606001516040518263ffffffff1660e01b81526004016116479190615deb565b602060405180830381865afa158015611664573d6000803e3d6000fd5b505050506040513d601f19601f8201168201806040525081019061168891906163e0565b856020019073ffffffffffffffffffffffffffffffffffffffff16908173ffffffffffffffffffffffffffffffffffffffff1681525050846020015173ffffffffffffffffffffffffffffffffffffffff16639bbbb5c88660c001516000015160006040518363ffffffff1660e01b8152600401611707929190616730565b602060405180830381865afa158015611724573d6000803e3d6000fd5b505050506040513d601f19601f820116820180604052508101906117489190615f79565b8560a00181815250506117688560a0015187896060015160800151613430565b156117e0576001876000015160ff16036117ae576040517f6cbab5a500000000000000000000000000000000000000000000000000000000815260040160405180910390fd5b6040517f235a81fc00000000000000000000000000000000000000000000000000000000815260040160405180910390fd5b7f0000000000000000000000000000000000000000000000000000000000000000856040019067ffffffffffffffff16908167ffffffffffffffff16815250507f000000000000000000000000000000000000000000000000000000000000000073ffffffffffffffffffffffffffffffffffffffff1663e85b2b548660c00151606001516040518263ffffffff1660e01b81526004016118819190615deb565b602060405180830381865afa15801561189e573d6000803e3d6000fd5b505050506040513d601f19601f820116820180604052508101906118c291906163e0565b73ffffffffffffffffffffffffffffffffffffffff1663c87439eb6040518061012001604052808860c00151600001518152602001886040015167ffffffffffffffff16815260200160018b6000015160ff161461192457886040015161192a565b8a602001515b67ffffffffffffffff1681526020018860c001516080015167ffffffffffffffff1681526020016000151581526020013073ffffffffffffffffffffffffffffffffffffffff1681526020018a60600151610100015173ffffffffffffffffffffffffffffffffffffffff168152602001886080015173ffffffffffffffffffffffffffffffffffffffff168152602001600073ffffffffffffffffffffffffffffffffffffffff168152506040518263ffffffff1660e01b81526004016119f29190616825565b602060405180830381865afa158015611a0f573d6000803e3d6000fd5b505050506040513d601f19601f82011682018060405250810190611a33919061685c565b50611afa7f000000000000000000000000000000000000000000000000000000000000000073ffffffffffffffffffffffffffffffffffffffff1663ca7adffb8760c00151606001516040518263ffffffff1660e01b8152600401611a989190615deb565b602060405180830381865afa158015611ab5573d6000803e3d6000fd5b505050506040513d601f19601f82011682018060405250810190611ad991906163e0565b8660c001516000015187608001518860a001518960c0015160a0015161347a565b5b50505050505b919050565b60007f0000000000000000000000000000000000000000000000000000000000000000905090565b7f000000000000000000000000000000000000000000000000000000000000000073ffffffffffffffffffffffffffffffffffffffff166321f8a7217fa2d83cf6f43caf068994e5ffe0938f6eabaa551d915b59bfda16ba012d30d9686040518263ffffffff1660e01b8152600401611ba791906163b0565b602060405180830381865afa158015611bc4573d6000803e3d6000fd5b505050506040513d601f19601f82011682018060405250810190611be891906163e0565b73ffffffffffffffffffffffffffffffffffffffff163373ffffffffffffffffffffffffffffffffffffffff1614611c4c576040517f94949e6200000000000000000000000000000000000000000000000000000000815260040160405180910390fd5b611c5682826137bd565b5050565b60003373ffffffffffffffffffffffffffffffffffffffff167f000000000000000000000000000000000000000000000000000000000000000073ffffffffffffffffffffffffffffffffffffffff166321f8a7217f55b101fc856aff484166c46ad33bc74831c135693c159b0092bb3b72254ffb6b6040518263ffffffff1660e01b8152600401611cec91906163b0565b602060405180830381865afa158015611d09573d6000803e3d6000fd5b505050506040513d601f19601f82011682018060405250810190611d2d91906163e0565b73ffffffffffffffffffffffffffffffffffffffff1614611d7a576040517f8c1715e200000000000000000000000000000000000000000000000000000000815260040160405180910390fd5b837f000000000000000000000000000000000000000000000000000000000000000073ffffffffffffffffffffffffffffffffffffffff166321f8a7217fbcc180fb907e9ae431665de4bc74305c00b7b27442aadd477980ecc4bb14c0116040518263ffffffff1660e01b8152600401611df491906163b0565b602060405180830381865afa158015611e11573d6000803e3d6000fd5b505050506040513d601f19601f82011682018060405250810190611e3591906163e0565b73ffffffffffffffffffffffffffffffffffffffff1663b5c7569782602001516040518263ffffffff1660e01b8152600401611e7191906156d2565b602060405180830381865afa158015611e8e573d6000803e3d6000fd5b505050506040513d601f19601f82011682018060405250810190611eb2919061685c565b611ee8576040517fa412f06500000000000000000000000000000000000000000000000000000000815260040160405180910390fd5b6000611ef782602001516137cb565b509150507f000000000000000000000000000000000000000000000000000000000000000073ffffffffffffffffffffffffffffffffffffffff166321f8a7217fbcc180fb907e9ae431665de4bc74305c00b7b27442aadd477980ecc4bb14c0116040518263ffffffff1660e01b8152600401611f7491906163b0565b602060405180830381865afa158015611f91573d6000803e3d6000fd5b505050506040513d601f19601f82011682018060405250810190611fb591906163e0565b73ffffffffffffffffffffffffffffffffffffffff1663596db717826040518263ffffffff1660e01b8152600401611fed91906168a8565b602060405180830381865afa15801561200a573d6000803e3d6000fd5b505050506040513d601f19601f8201168201806040525081019061202e919061685c565b15612065576040517fa9aad58c00000000000000000000000000000000000000000000000000000000815260040160405180910390fd5b60008467ffffffffffffffff16141580156120b457507f000000000000000000000000000000000000000000000000000000000000000067ffffffffffffffff168467ffffffffffffffff1614155b156120cb576120c486868661382c565b92506120fd565b6040517f030042b700000000000000000000000000000000000000000000000000000000815260040160405180910390fd5b50509392505050565b606060008054906101000a900473ffffffffffffffffffffffffffffffffffffffff1673ffffffffffffffffffffffffffffffffffffffff166306fdde036040518163ffffffff1660e01b8152600401600060405180830381865afa158015612173573d6000803e3d6000fd5b505050506040513d6000823e3d601f19601f8201168201806040525081019061219c9190616047565b905090565b6000600160009054906101000a900473ffffffffffffffffffffffffffffffffffffffff16905090565b60008060009054906101000a900473ffffffffffffffffffffffffffffffffffffffff1673ffffffffffffffffffffffffffffffffffffffff16634cdad506836040518263ffffffff1660e01b815260040161222791906156d2565b602060405180830381865afa158015612244573d6000803e3d6000fd5b505050506040513d601f19601f820116820180604052508101906122689190615f79565b9050919050565b60003373ffffffffffffffffffffffffffffffffffffffff167f000000000000000000000000000000000000000000000000000000000000000073ffffffffffffffffffffffffffffffffffffffff166321f8a7217f3a2f5529773e03d975be44bdae98a8509bdf1159e407504e558536cde56cf6ac6040518263ffffffff1660e01b815260040161230191906163b0565b602060405180830381865afa15801561231e573d6000803e3d6000fd5b505050506040513d601f19601f8201168201806040525081019061234291906163e0565b73ffffffffffffffffffffffffffffffffffffffff161461238f576040517f158a2f6b00000000000000000000000000000000000000000000000000000000815260040160405180910390fd5b827f000000000000000000000000000000000000000000000000000000000000000073ffffffffffffffffffffffffffffffffffffffff166321f8a7217fbcc180fb907e9ae431665de4bc74305c00b7b27442aadd477980ecc4bb14c0116040518263ffffffff1660e01b815260040161240991906163b0565b602060405180830381865afa158015612426573d6000803e3d6000fd5b505050506040513d601f19601f8201168201806040525081019061244a91906163e0565b73ffffffffffffffffffffffffffffffffffffffff1663b5c7569782602001516040518263ffffffff1660e01b815260040161248691906156d2565b602060405180830381865afa1580156124a3573d6000803e3d6000fd5b505050506040513d601f19601f820116820180604052508101906124c7919061685c565b6124fd576040517fa412f06500000000000000000000000000000000000000000000000000000000815260040160405180910390fd5b600061250c82602001516137cb565b509150507f000000000000000000000000000000000000000000000000000000000000000073ffffffffffffffffffffffffffffffffffffffff166321f8a7217fbcc180fb907e9ae431665de4bc74305c00b7b27442aadd477980ecc4bb14c0116040518263ffffffff1660e01b815260040161258991906163b0565b602060405180830381865afa1580156125a6573d6000803e3d6000fd5b505050506040513d601f19601f820116820180604052508101906125ca91906163e0565b73ffffffffffffffffffffffffffffffffffffffff1663596db717826040518263ffffffff1660e01b815260040161260291906168a8565b602060405180830381865afa15801561261f573d6000803e3d6000fd5b505050506040513d601f19601f82011682018060405250810190612643919061685c565b1561267a576040517fa9aad58c00000000000000000000000000000000000000000000000000000000815260040160405180910390fd5b6126848585613841565b9250505092915050565b6000612698613854565b905060008160000160089054906101000a900460ff1615905060008260000160009054906101000a900467ffffffffffffffff1690506000808267ffffffffffffffff161480156126e65750825b9050600060018367ffffffffffffffff1614801561271b575060003073ffffffffffffffffffffffffffffffffffffffff163b145b905081158015612729575080155b15612760576040517ff92ee8a900000000000000000000000000000000000000000000000000000000815260040160405180910390fd5b60018560000160006101000a81548167ffffffffffffffff021916908367ffffffffffffffff16021790555083156127b05760018560000160086101000a81548160ff0219169083151502179055505b7f000000000000000000000000000000000000000000000000000000000000000073ffffffffffffffffffffffffffffffffffffffff168873ffffffffffffffffffffffffffffffffffffffff1614612835576040517fe7b6503f00000000000000000000000000000000000000000000000000000000815260040160405180910390fd5b600073ffffffffffffffffffffffffffffffffffffffff168773ffffffffffffffffffffffffffffffffffffffff16148061289c5750600073ffffffffffffffffffffffffffffffffffffffff168673ffffffffffffffffffffffffffffffffffffffff16145b156128d3576040517f538ba4f900000000000000000000000000000000000000000000000000000000815260040160405180910390fd5b866000806101000a81548173ffffffffffffffffffffffffffffffffffffffff021916908373ffffffffffffffffffffffffffffffffffffffff16021790555085600160006101000a81548173ffffffffffffffffffffffffffffffffffffffff021916908373ffffffffffffffffffffffffffffffffffffffff16021790555083156129b05760008560000160086101000a81548160ff0219169083151502179055507fc7f505b2f371ae2175ee4913f4499e1f2633a7b5936321eed1cdaeb6115181d260016040516129a791906168fe565b60405180910390a15b5050505050505050565b60008060009054906101000a900473ffffffffffffffffffffffffffffffffffffffff1673ffffffffffffffffffffffffffffffffffffffff1663313ce5676040518163ffffffff1660e01b8152600401602060405180830381865afa158015612a28573d6000803e3d6000fd5b505050506040513d601f19601f82011682018060405250810190612a4c91906161bd565b60ff16905090565b60008060009054906101000a900473ffffffffffffffffffffffffffffffffffffffff1673ffffffffffffffffffffffffffffffffffffffff166318160ddd6040518163ffffffff1660e01b8152600401602060405180830381865afa158015612ac2573d6000803e3d6000fd5b505050506040513d601f19601f82011682018060405250810190612ae69190615f79565b905090565b60003373ffffffffffffffffffffffffffffffffffffffff167f000000000000000000000000000000000000000000000000000000000000000073ffffffffffffffffffffffffffffffffffffffff166321f8a7217f3a2f5529773e03d975be44bdae98a8509bdf1159e407504e558536cde56cf6ac6040518263ffffffff1660e01b8152600401612b7d91906163b0565b602060405180830381865afa158015612b9a573d6000803e3d6000fd5b505050506040513d601f19601f82011682018060405250810190612bbe91906163e0565b73ffffffffffffffffffffffffffffffffffffffff1614612c0b576040517f158a2f6b00000000000000000000000000000000000000000000000000000000815260040160405180910390fd5b612c18836020015161322f565b612c2d57612c26838361387c565b9050612d52565b7f000000000000000000000000000000000000000000000000000000000000000073ffffffffffffffffffffffffffffffffffffffff166321f8a7217fa2d83cf6f43caf068994e5ffe0938f6eabaa551d915b59bfda16ba012d30d9686040518263ffffffff1660e01b8152600401612ca691906163b0565b602060405180830381865afa158015612cc3573d6000803e3d6000fd5b505050506040513d601f19601f82011682018060405250810190612ce791906163e0565b73ffffffffffffffffffffffffffffffffffffffff1663bfdf22ad846040518263ffffffff1660e01b8152600401612d1f9190616617565b600060405180830381600087803b158015612d3957600080fd5b505af1158015612d4d573d6000803e3d6000fd5b505050505b92915050565b60003373ffffffffffffffffffffffffffffffffffffffff167f000000000000000000000000000000000000000000000000000000000000000073ffffffffffffffffffffffffffffffffffffffff166321f8a7217f55b101fc856aff484166c46ad33bc74831c135693c159b0092bb3b72254ffb6b6040518263ffffffff1660e01b8152600401612dea91906163b0565b602060405180830381865afa158015612e07573d6000803e3d6000fd5b505050506040513d601f19601f82011682018060405250810190612e2b91906163e0565b73ffffffffffffffffffffffffffffffffffffffff1614612e78576040517f8c1715e200000000000000000000000000000000000000000000000000000000815260040160405180910390fd5b60008267ffffffffffffffff1614158015612ec757507f000000000000000000000000000000000000000000000000000000000000000067ffffffffffffffff168267ffffffffffffffff1614155b1561301957612ed9846020015161322f565b612eef57612ee8848484613924565b9050613014565b7f000000000000000000000000000000000000000000000000000000000000000073ffffffffffffffffffffffffffffffffffffffff166321f8a7217fa2d83cf6f43caf068994e5ffe0938f6eabaa551d915b59bfda16ba012d30d9686040518263ffffffff1660e01b8152600401612f6891906163b0565b602060405180830381865afa158015612f85573d6000803e3d6000fd5b505050506040513d601f19601f82011682018060405250810190612fa991906163e0565b73ffffffffffffffffffffffffffffffffffffffff1663bfdf22ad856040518263ffffffff1660e01b8152600401612fe19190616617565b600060405180830381600087803b158015612ffb57600080fd5b505af115801561300f573d6000803e3d6000fd5b505050505b61304b565b6040517f030042b700000000000000000000000000000000000000000000000000000000815260040160405180910390fd5b9392505050565b60008054906101000a900473ffffffffffffffffffffffffffffffffffffffff1681565b60008060008054906101000a900473ffffffffffffffffffffffffffffffffffffffff1673ffffffffffffffffffffffffffffffffffffffff1663313ce5676040518163ffffffff1660e01b8152600401602060405180830381865afa1580156130e4573d6000803e3d6000fd5b505050506040513d601f19601f8201168201806040525081019061310891906161bd565b60ff16905060008054906101000a900473ffffffffffffffffffffffffffffffffffffffff1673ffffffffffffffffffffffffffffffffffffffff166307a2d13a82600a613156919061634c565b6040518263ffffffff1660e01b815260040161317291906156d2565b602060405180830381865afa15801561318f573d6000803e3d6000fd5b505050506040513d601f19601f820116820180604052508101906131b39190615f79565b91505090565b60007f01ffc9a7000000000000000000000000000000000000000000000000000000007bffffffffffffffffffffffffffffffffffffffffffffffffffffffff1916827bffffffffffffffffffffffffffffffffffffffffffffffffffffffff1916149050919050565b61322c816139ad565b50565b6000807f000000000000000000000000000000000000000000000000000000000000000073ffffffffffffffffffffffffffffffffffffffff166321f8a7217fbcc180fb907e9ae431665de4bc74305c00b7b27442aadd477980ecc4bb14c0116040518263ffffffff1660e01b81526004016132ab91906163b0565b602060405180830381865afa1580156132c8573d6000803e3d6000fd5b505050506040513d601f19601f820116820180604052508101906132ec91906163e0565b90508073ffffffffffffffffffffffffffffffffffffffff1663b5c75697846040518263ffffffff1660e01b815260040161332791906156d2565b602060405180830381865afa158015613344573d6000803e3d6000fd5b505050506040513d601f19601f82011682018060405250810190613368919061685c565b61339e576040517fa412f06500000000000000000000000000000000000000000000000000000000815260040160405180910390fd5b60006133a9846137cb565b509150508173ffffffffffffffffffffffffffffffffffffffff1663596db717826040518263ffffffff1660e01b81526004016133e691906168a8565b602060405180830381865afa158015613403573d6000803e3d6000fd5b505050506040513d601f19601f82011682018060405250810190613427919061685c565b92505050919050565b6000828411806134645750816127106134499190616670565b8361345491906166a4565b6127108561346291906166a4565b105b156134725760019050613473565b5b9392505050565b600082036134b4576040517ff6fa545000000000000000000000000000000000000000000000000000000000815260040160405180910390fd5b600073ffffffffffffffffffffffffffffffffffffffff168573ffffffffffffffffffffffffffffffffffffffff160361351a576040517f538ba4f900000000000000000000000000000000000000000000000000000000815260040160405180910390fd5b73eeeeeeeeeeeeeeeeeeeeeeeeeeeeeeeeeeeeeeee73ffffffffffffffffffffffffffffffffffffffff168373ffffffffffffffffffffffffffffffffffffffff16146135915761358c85838573ffffffffffffffffffffffffffffffffffffffff16613bd29092919063ffffffff16565b613606565b818110156135cb576040517fe4f2466300000000000000000000000000000000000000000000000000000000815260040160405180910390fd5b47811115613605576040517f50b1f35600000000000000000000000000000000000000000000000000000000815260040160405180910390fd5b5b60008573ffffffffffffffffffffffffffffffffffffffff16828660405161362e9190616955565b60006040518083038185875af1925050503d806000811461366b576040519150601f19603f3d011682016040523d82523d6000602084013e613670565b606091505b50509050806136b657836040517f2accaa150000000000000000000000000000000000000000000000000000000081526004016136ad919061585a565b60405180910390fd5b73eeeeeeeeeeeeeeeeeeeeeeeeeeeeeeeeeeeeeeee73ffffffffffffffffffffffffffffffffffffffff168473ffffffffffffffffffffffffffffffffffffffff16146137b557600084905060008173ffffffffffffffffffffffffffffffffffffffff1663dd62ed3e308a6040518363ffffffff1660e01b815260040161373f92919061696c565b602060405180830381865afa15801561375c573d6000803e3d6000fd5b505050506040513d601f19601f820116820180604052508101906137809190615f79565b11156137b3576137b28760008373ffffffffffffffffffffffffffffffffffffffff16613c6e9092919063ffffffff16565b5b505b505050505050565b6137c78282613d7d565b5050565b600080600083925060a084901c915060c084901c905060008167ffffffffffffffff1603613825576040517f030042b700000000000000000000000000000000000000000000000000000000815260040160405180910390fd5b9193909250565b60006138388483613f30565b90509392505050565b600061384c8361415f565b905092915050565b60007ff0c57e16840df040f15088dc2f81fe391c3923bec73e23a9662efc9c229c6a00905090565b60008260e001516138c5576138c060007f00000000000000000000000000000000000000000000000000000000000000006138ba8660400151614b91565b86614ca6565b61391a565b613919836101000151846040015160008054906101000a900473ffffffffffffffffffffffffffffffffffffffff1673ffffffffffffffffffffffffffffffffffffffff16614dd69092919063ffffffff16565b5b6000905092915050565b60008360e0015161394d576139486001836139428760400151614b91565b87614ca6565b6139a2565b6139a1846101000151856040015160008054906101000a900473ffffffffffffffffffffffffffffffffffffffff1673ffffffffffffffffffffffffffffffffffffffff16614dd69092919063ffffffff16565b5b600090509392505050565b600073ffffffffffffffffffffffffffffffffffffffff168173ffffffffffffffffffffffffffffffffffffffff1603613a13576040517f538ba4f900000000000000000000000000000000000000000000000000000000815260040160405180910390fd5b60007f000000000000000000000000000000000000000000000000000000000000000073ffffffffffffffffffffffffffffffffffffffff166321f8a7217fbddfa8c39a1f6275bcfb3aa5c70638c466999edbf14e6162d81b3492caca9fce6040518263ffffffff1660e01b8152600401613a8e91906163b0565b602060405180830381865afa158015613aab573d6000803e3d6000fd5b505050506040513d601f19601f82011682018060405250810190613acf91906163e0565b9050600082905060008173ffffffffffffffffffffffffffffffffffffffff166370a08231306040518263ffffffff1660e01b8152600401613b11919061585a565b602060405180830381865afa158015613b2e573d6000803e3d6000fd5b505050506040513d601f19601f82011682018060405250810190613b529190615f79565b905060008114613bcc57613b8783828473ffffffffffffffffffffffffffffffffffffffff16614dd69092919063ffffffff16565b808473ffffffffffffffffffffffffffffffffffffffff167fd34222ea8b5b095ec7a6f42ff87fa762ab480b9e8cea464915ee985f1510c10a60405160405180910390a35b50505050565b60008373ffffffffffffffffffffffffffffffffffffffff1663dd62ed3e30856040518363ffffffff1660e01b8152600401613c0f92919061696c565b602060405180830381865afa158015613c2c573d6000803e3d6000fd5b505050506040513d601f19601f82011682018060405250810190613c509190615f79565b9050613c6884848484613c639190616995565b613c6e565b50505050565b60008373ffffffffffffffffffffffffffffffffffffffff1663095ea7b38484604051602401613c9f9291906169c9565b604051602081830303815290604052915060e01b6020820180517bffffffffffffffffffffffffffffffffffffffffffffffffffffffff83818316178352505050509050613ced8482614e55565b613d7757613d6c848573ffffffffffffffffffffffffffffffffffffffff1663095ea7b3866000604051602401613d25929190616a2d565b604051602081830303815290604052915060e01b6020820180517bffffffffffffffffffffffffffffffffffffffffffffffffffffffff8381831617835250505050614f1c565b613d768482614f1c565b5b50505050565b60008060009054906101000a900473ffffffffffffffffffffffffffffffffffffffff169050600073ffffffffffffffffffffffffffffffffffffffff168373ffffffffffffffffffffffffffffffffffffffff1603613e09576040517f538ba4f900000000000000000000000000000000000000000000000000000000815260040160405180910390fd5b818173ffffffffffffffffffffffffffffffffffffffff166370a08231306040518263ffffffff1660e01b8152600401613e43919061585a565b602060405180830381865afa158015613e60573d6000803e3d6000fd5b505050506040513d601f19601f82011682018060405250810190613e849190615f79565b1015613ebc576040517f50b1f35600000000000000000000000000000000000000000000000000000000815260040160405180910390fd5b613ee783838373ffffffffffffffffffffffffffffffffffffffff16614dd69092919063ffffffff16565b818373ffffffffffffffffffffffffffffffffffffffff167f83b8068554a495dbb4af07014f8171144d6670eb522b356f8d3f37cbd76ba11660405160405180910390a3505050565b600080613f4084602001516137cb565b9250505060008060009054906101000a900473ffffffffffffffffffffffffffffffffffffffff16905060008190508560400151600160009054906101000a900473ffffffffffffffffffffffffffffffffffffffff1673ffffffffffffffffffffffffffffffffffffffff1663dd62ed3e33306040518363ffffffff1660e01b8152600401613fd192919061696c565b602060405180830381865afa158015613fee573d6000803e3d6000fd5b505050506040513d601f19601f820116820180604052508101906140129190615f79565b1015614049576040517ec78d2600000000000000000000000000000000000000000000000000000000815260040160405180910390fd5b61409c33308860400151600160009054906101000a900473ffffffffffffffffffffffffffffffffffffffff1673ffffffffffffffffffffffffffffffffffffffff16614fb3909392919063ffffffff16565b6140ed828760400151600160009054906101000a900473ffffffffffffffffffffffffffffffffffffffff1673ffffffffffffffffffffffffffffffffffffffff16613bd29092919063ffffffff16565b6140fc86828860400151615035565b935085600001518367ffffffffffffffff168667ffffffffffffffff167f9664a7293fbeac5e42927bc5eb69c82d1fe2f0b17e510b38ebfba582d47923fe89604001518660405161414e929190616a56565b60405180910390a450505092915050565b6000614169615499565b60008060009054906101000a900473ffffffffffffffffffffffffffffffffffffffff169050600160009054906101000a900473ffffffffffffffffffffffffffffffffffffffff16826020019073ffffffffffffffffffffffffffffffffffffffff16908173ffffffffffffffffffffffffffffffffffffffff1681525050816020015173ffffffffffffffffffffffffffffffffffffffff166370a08231306040518263ffffffff1660e01b8152600401614226919061585a565b602060405180830381865afa158015614243573d6000803e3d6000fd5b505050506040513d601f19601f820116820180604052508101906142679190615f79565b82608001818152505060008460a0015160200151905073eeeeeeeeeeeeeeeeeeeeeeeeeeeeeeeeeeeeeeee73ffffffffffffffffffffffffffffffffffffffff168173ffffffffffffffffffffffffffffffffffffffff16141580156142d6575060008560a001516000015151145b1561443657826020015173ffffffffffffffffffffffffffffffffffffffff168560a001516020015173ffffffffffffffffffffffffffffffffffffffff161461434c576040517f8560d33800000000000000000000000000000000000000000000000000000000815260040160405180910390fd5b84604001518173ffffffffffffffffffffffffffffffffffffffff1663dd62ed3e33306040518363ffffffff1660e01b815260040161438c92919061696c565b602060405180830381865afa1580156143a9573d6000803e3d6000fd5b505050506040513d601f19601f820116820180604052508101906143cd9190615f79565b1015614404576040517ec78d2600000000000000000000000000000000000000000000000000000000815260040160405180910390fd5b614435333087604001518473ffffffffffffffffffffffffffffffffffffffff16614fb3909392919063ffffffff16565b5b60008560a00151600001515114614a24577f000000000000000000000000000000000000000000000000000000000000000073ffffffffffffffffffffffffffffffffffffffff1663e85b2b548660a00151606001516040518263ffffffff1660e01b81526004016144a89190615deb565b602060405180830381865afa1580156144c5573d6000803e3d6000fd5b505050506040513d601f19601f820116820180604052508101906144e991906163e0565b836040019073ffffffffffffffffffffffffffffffffffffffff16908173ffffffffffffffffffffffffffffffffffffffff16815250507f0000000000000000000000000000000000000000000000000000000000000000836000019067ffffffffffffffff16908167ffffffffffffffff1681525050826040015173ffffffffffffffffffffffffffffffffffffffff16639bbbb5c88660a001516000015160006040518363ffffffff1660e01b81526004016145a8929190616730565b602060405180830381865afa1580156145c5573d6000803e3d6000fd5b505050506040513d601f19601f820116820180604052508101906145e99190615f79565b8361010001818152505073eeeeeeeeeeeeeeeeeeeeeeeeeeeeeeeeeeeeeeee73ffffffffffffffffffffffffffffffffffffffff168173ffffffffffffffffffffffffffffffffffffffff1614614726578261010001518173ffffffffffffffffffffffffffffffffffffffff1663dd62ed3e33306040518363ffffffff1660e01b815260040161467b92919061696c565b602060405180830381865afa158015614698573d6000803e3d6000fd5b505050506040513d601f19601f820116820180604052508101906146bc9190615f79565b10156146f3576040517ec78d2600000000000000000000000000000000000000000000000000000000815260040160405180910390fd5b61472533308561010001518473ffffffffffffffffffffffffffffffffffffffff16614fb3909392919063ffffffff16565b5b826040015173ffffffffffffffffffffffffffffffffffffffff1663c87439eb6040518061012001604052808860a00151600001518152602001866000015167ffffffffffffffff168152602001866000015167ffffffffffffffff168152602001866000015167ffffffffffffffff1681526020016001151581526020013073ffffffffffffffffffffffffffffffffffffffff1681526020013373ffffffffffffffffffffffffffffffffffffffff1681526020018473ffffffffffffffffffffffffffffffffffffffff168152602001600073ffffffffffffffffffffffffffffffffffffffff168152506040518263ffffffff1660e01b81526004016148309190616825565b602060405180830381865afa15801561484d573d6000803e3d6000fd5b505050506040513d601f19601f82011682018060405250810190614871919061685c565b506149357f000000000000000000000000000000000000000000000000000000000000000073ffffffffffffffffffffffffffffffffffffffff1663ca7adffb8760a00151606001516040518263ffffffff1660e01b81526004016148d69190615deb565b602060405180830381865afa1580156148f3573d6000803e3d6000fd5b505050506040513d601f19601f8201168201806040525081019061491791906163e0565b8660a0015160000151838661010001518960a0015160a0015161347a565b826020015173ffffffffffffffffffffffffffffffffffffffff16836040015173ffffffffffffffffffffffffffffffffffffffff16632db883238760a00151600001516040518263ffffffff1660e01b81526004016149959190616a7f565b602060405180830381865afa1580156149b2573d6000803e3d6000fd5b505050506040513d601f19601f820116820180604052508101906149d691906163e0565b73ffffffffffffffffffffffffffffffffffffffff1614614a23576040517f8560d33800000000000000000000000000000000000000000000000000000000815260040160405180910390fd5b5b8260800151836020015173ffffffffffffffffffffffffffffffffffffffff166370a08231306040518263ffffffff1660e01b8152600401614a66919061585a565b602060405180830381865afa158015614a83573d6000803e3d6000fd5b505050506040513d601f19601f82011682018060405250810190614aa79190615f79565b614ab19190616670565b8360a00181815250508460800151612710614acc9190616670565b8560400151614adb91906166a4565b6127108460a00151614aed91906166a4565b1015614b25576040517f0edf4d2300000000000000000000000000000000000000000000000000000000815260040160405180910390fd5b614b7860008054906101000a900473ffffffffffffffffffffffffffffffffffffffff168460a00151856020015173ffffffffffffffffffffffffffffffffffffffff16613bd29092919063ffffffff16565b614b8785838560a00151615035565b9350505050919050565b60008060008054906101000a900473ffffffffffffffffffffffffffffffffffffffff1690508073ffffffffffffffffffffffffffffffffffffffff1663df6feb4884306040518363ffffffff1660e01b8152600401614bf2929190616a56565b600060405180830381600087803b158015614c0c57600080fd5b505af1158015614c20573d6000803e3d6000fd5b505050508073ffffffffffffffffffffffffffffffffffffffff1663e43db1936040518163ffffffff1660e01b8152600401602060405180830381865afa158015614c6f573d6000803e3d6000fd5b505050506040513d601f19601f82011682018060405250810190614c939190615f79565b42614c9e9190616995565b915050919050565b7f000000000000000000000000000000000000000000000000000000000000000073ffffffffffffffffffffffffffffffffffffffff166321f8a7217f61d4f25a58ab968b8df895503bb626f9dad221b8e0c51ebd11185d5ad48943346040518263ffffffff1660e01b8152600401614d1f91906163b0565b602060405180830381865afa158015614d3c573d6000803e3d6000fd5b505050506040513d601f19601f82011682018060405250810190614d6091906163e0565b73ffffffffffffffffffffffffffffffffffffffff166338a4ad64858585856040518563ffffffff1660e01b8152600401614d9e9493929190616aa1565b600060405180830381600087803b158015614db857600080fd5b505af1158015614dcc573d6000803e3d6000fd5b5050505050505050565b614e50838473ffffffffffffffffffffffffffffffffffffffff1663a9059cbb8585604051602401614e099291906169c9565b604051602081830303815290604052915060e01b6020820180517bffffffffffffffffffffffffffffffffffffffffffffffffffffffff8381831617835250505050614f1c565b505050565b60008060008473ffffffffffffffffffffffffffffffffffffffff1684604051614e7f9190616955565b6000604051808303816000865af19150503d8060008114614ebc576040519150601f19603f3d011682016040523d82523d6000602084013e614ec1565b606091505b5091509150818015614eef5750600081511480614eee575080806020019051810190614eed919061685c565b5b5b8015614f12575060008573ffffffffffffffffffffffffffffffffffffffff163b115b9250505092915050565b6000614f47828473ffffffffffffffffffffffffffffffffffffffff1661525390919063ffffffff16565b90506000815114158015614f6c575080806020019051810190614f6a919061685c565b155b15614fae57826040517f5274afe7000000000000000000000000000000000000000000000000000000008152600401614fa5919061585a565b60405180910390fd5b505050565b61502f848573ffffffffffffffffffffffffffffffffffffffff166323b872dd868686604051602401614fe893929190616aed565b604051602081830303815290604052915060e01b6020820180517bffffffffffffffffffffffffffffffffffffffffffffffffffffffff8381831617835250505050614f1c565b50505050565b6000808460e00151615047573061504e565b8461010001515b905060008473ffffffffffffffffffffffffffffffffffffffff166370a08231836040518263ffffffff1660e01b815260040161508b919061585a565b602060405180830381865afa1580156150a8573d6000803e3d6000fd5b505050506040513d601f19601f820116820180604052508101906150cc9190615f79565b90508473ffffffffffffffffffffffffffffffffffffffff16636e553f6585846040518363ffffffff1660e01b8152600401615109929190616a56565b6020604051808303816000875af1158015615128573d6000803e3d6000fd5b505050506040513d601f19601f8201168201806040525081019061514c9190615f79565b925060008573ffffffffffffffffffffffffffffffffffffffff166370a08231846040518263ffffffff1660e01b8152600401615189919061585a565b602060405180830381865afa1580156151a6573d6000803e3d6000fd5b505050506040513d601f19601f820116820180604052508101906151ca9190615f79565b90508382826151d99190616670565b141580615212575086608001516127106151f39190616670565b876060015161520291906166a4565b8461271061521091906166a4565b105b15615249576040517fbd7f1b4200000000000000000000000000000000000000000000000000000000815260040160405180910390fd5b5050509392505050565b606061526183836000615269565b905092915050565b6060814710156152b057306040517fcd7860590000000000000000000000000000000000000000000000000000000081526004016152a7919061585a565b60405180910390fd5b6000808573ffffffffffffffffffffffffffffffffffffffff1684866040516152d99190616955565b60006040518083038185875af1925050503d8060008114615316576040519150601f19603f3d011682016040523d82523d6000602084013e61531b565b606091505b509150915061532b868383615336565b925050509392505050565b60608261534b57615346826153c5565b6153bd565b60008251148015615373575060008473ffffffffffffffffffffffffffffffffffffffff163b145b156153b557836040517f9996b3150000000000000000000000000000000000000000000000000000000081526004016153ac919061585a565b60405180910390fd5b8190506153be565b5b9392505050565b6000815111156153d85780518082602001fd5b6040517f1425ea4200000000000000000000000000000000000000000000000000000000815260040160405180910390fd5b6040518060e0016040528060008152602001600073ffffffffffffffffffffffffffffffffffffffff168152602001600067ffffffffffffffff168152602001600073ffffffffffffffffffffffffffffffffffffffff168152602001600073ffffffffffffffffffffffffffffffffffffffff16815260200160008152602001615493615522565b81525090565b604051806101400160405280600067ffffffffffffffff168152602001600073ffffffffffffffffffffffffffffffffffffffff168152602001600073ffffffffffffffffffffffffffffffffffffffff168152602001600081526020016000815260200160008152602001600081526020016000815260200160008152602001606081525090565b6040518060c0016040528060608152602001600073ffffffffffffffffffffffffffffffffffffffff168152602001600073ffffffffffffffffffffffffffffffffffffffff168152602001600060ff168152602001600067ffffffffffffffff168152602001600081525090565b6000604051905090565b600080fd5b600080fd5b60007fffffffff0000000000000000000000000000000000000000000000000000000082169050919050565b6155da816155a5565b81146155e557600080fd5b50565b6000813590506155f7816155d1565b92915050565b6000602082840312156156135761561261559b565b5b6000615621848285016155e8565b91505092915050565b60008115159050919050565b61563f8161562a565b82525050565b600060208201905061565a6000830184615636565b92915050565b6000819050919050565b61567381615660565b811461567e57600080fd5b50565b6000813590506156908161566a565b92915050565b6000602082840312156156ac576156ab61559b565b5b60006156ba84828501615681565b91505092915050565b6156cc81615660565b82525050565b60006020820190506156e760008301846156c3565b92915050565b600081519050919050565b600082825260208201905092915050565b60005b8381101561572757808201518184015260208101905061570c565b60008484015250505050565b6000601f19601f8301169050919050565b600061574f826156ed565b61575981856156f8565b9350615769818560208601615709565b61577281615733565b840191505092915050565b600060208201905081810360008301526157978184615744565b905092915050565b600073ffffffffffffffffffffffffffffffffffffffff82169050919050565b6000819050919050565b60006157e46157df6157da8461579f565b6157bf565b61579f565b9050919050565b60006157f6826157c9565b9050919050565b6000615808826157eb565b9050919050565b615818816157fd565b82525050565b6000602082019050615833600083018461580f565b92915050565b60006158448261579f565b9050919050565b61585481615839565b82525050565b600060208201905061586f600083018461584b565b92915050565b61587e81615839565b811461588957600080fd5b50565b60008135905061589b81615875565b92915050565b6000602082840312156158b7576158b661559b565b5b60006158c58482850161588c565b91505092915050565b600067ffffffffffffffff82169050919050565b6158eb816158ce565b82525050565b600060208201905061590660008301846158e2565b92915050565b600080fd5b7f4e487b7100000000000000000000000000000000000000000000000000000000600052604160045260246000fd5b61594982615733565b810181811067ffffffffffffffff8211171561596857615967615911565b5b80604052505050565b600061597b615591565b90506159878282615940565b919050565b600080fd5b600060ff82169050919050565b6159a781615991565b81146159b257600080fd5b50565b6000813590506159c48161599e565b92915050565b6159d3816158ce565b81146159de57600080fd5b50565b6000813590506159f0816159ca565b92915050565b600080fd5b600080fd5b600067ffffffffffffffff821115615a1b57615a1a615911565b5b615a2482615733565b9050602081019050919050565b82818337600083830152505050565b6000615a53615a4e84615a00565b615971565b905082815260208101848484011115615a6f57615a6e6159fb565b5b615a7a848285615a31565b509392505050565b600082601f830112615a9757615a966159f6565b5b8135615aa7848260208601615a40565b91505092915050565b600060c08284031215615ac657615ac561590c565b5b615ad060c0615971565b9050600082013567ffffffffffffffff811115615af057615aef61598c565b5b615afc84828501615a82565b6000830152506020615b108482850161588c565b6020830152506040615b248482850161588c565b6040830152506060615b38848285016159b5565b6060830152506080615b4c848285016159e1565b60808301525060a0615b6084828501615681565b60a08301525092915050565b615b758161562a565b8114615b8057600080fd5b50565b600081359050615b9281615b6c565b92915050565b60006101408284031215615baf57615bae61590c565b5b615bba610140615971565b90506000615bca84828501615681565b6000830152506020615bde84828501615681565b6020830152506040615bf284828501615681565b6040830152506060615c0684828501615681565b6060830152506080615c1a84828501615681565b60808301525060a082013567ffffffffffffffff811115615c3e57615c3d61598c565b5b615c4a84828501615ab0565b60a08301525060c0615c5e84828501615b83565b60c08301525060e0615c7284828501615b83565b60e083015250610100615c878482850161588c565b6101008301525061012082013567ffffffffffffffff811115615cad57615cac61598c565b5b615cb984828501615a82565b6101208301525092915050565b60038110615cd357600080fd5b50565b600081359050615ce581615cc6565b92915050565b600060a08284031215615d0157615d0061590c565b5b615d0b60a0615971565b90506000615d1b848285016159b5565b6000830152506020615d2f848285016159e1565b6020830152506040615d4384828501615681565b604083015250606082013567ffffffffffffffff811115615d6757615d6661598c565b5b615d7384828501615b98565b6060830152506080615d8784828501615cd6565b60808301525092915050565b600060208284031215615da957615da861559b565b5b600082013567ffffffffffffffff811115615dc757615dc66155a0565b5b615dd384828501615ceb565b91505092915050565b615de581615991565b82525050565b6000602082019050615e006000830184615ddc565b92915050565b60008060408385031215615e1d57615e1c61559b565b5b6000615e2b8582860161588c565b9250506020615e3c85828601615681565b9150509250929050565b600080600060608486031215615e5f57615e5e61559b565b5b600084013567ffffffffffffffff811115615e7d57615e7c6155a0565b5b615e8986828701615b98565b9350506020615e9a8682870161588c565b9250506040615eab868287016159e1565b9150509250925092565b60008060408385031215615ecc57615ecb61559b565b5b600083013567ffffffffffffffff811115615eea57615ee96155a0565b5b615ef685828601615b98565b9250506020615f078582860161588c565b9150509250929050565b600080600060608486031215615f2a57615f2961559b565b5b6000615f388682870161588c565b9350506020615f498682870161588c565b9250506040615f5a8682870161588c565b9150509250925092565b600081519050615f738161566a565b92915050565b600060208284031215615f8f57615f8e61559b565b5b6000615f9d84828501615f64565b91505092915050565b600067ffffffffffffffff821115615fc157615fc0615911565b5b615fca82615733565b9050602081019050919050565b6000615fea615fe584615fa6565b615971565b905082815260208101848484011115616006576160056159fb565b5b616011848285615709565b509392505050565b600082601f83011261602e5761602d6159f6565b5b815161603e848260208601615fd7565b91505092915050565b60006020828403121561605d5761605c61559b565b5b600082015167ffffffffffffffff81111561607b5761607a6155a0565b5b61608784828501616019565b91505092915050565b600081905092915050565b7f73702d0000000000000000000000000000000000000000000000000000000000600082015250565b60006160d1600383616090565b91506160dc8261609b565b600382019050919050565b60006160f2826156ed565b6160fc8185616090565b935061610c818560208601615709565b80840191505092915050565b6000616123826160c4565b915061612f82846160e7565b915081905092915050565b7f205375706572506f736974696f6e000000000000000000000000000000000000600082015250565b6000616170600e83616090565b915061617b8261613a565b600e82019050919050565b600061619282846160e7565b915061619d82616163565b915081905092915050565b6000815190506161b78161599e565b92915050565b6000602082840312156161d3576161d261559b565b5b60006161e1848285016161a8565b91505092915050565b7f4e487b7100000000000000000000000000000000000000000000000000000000600052601160045260246000fd5b60008160011c9050919050565b6000808291508390505b60018511156162705780860481111561624c5761624b6161ea565b5b600185161561625b5780820291505b808102905061626985616219565b9450616230565b94509492505050565b6000826162895760019050616345565b816162975760009050616345565b81600181146162ad57600281146162b7576162e6565b6001915050616345565b60ff8411156162c9576162c86161ea565b5b8360020a9150848211156162e0576162df6161ea565b5b50616345565b5060208310610133831016604e8410600b841016171561631b5782820a905083811115616316576163156161ea565b5b616345565b6163288484846001616226565b9250905081840481111561633f5761633e6161ea565b5b81810290505b9392505050565b600061635782615660565b915061636283615660565b925061638f7fffffffffffffffffffffffffffffffffffffffffffffffffffffffffffffffff8484616279565b905092915050565b6000819050919050565b6163aa81616397565b82525050565b60006020820190506163c560008301846163a1565b92915050565b6000815190506163da81615875565b92915050565b6000602082840312156163f6576163f561559b565b5b6000616404848285016163cb565b91505092915050565b61641681615660565b82525050565b600081519050919050565b600082825260208201905092915050565b60006164438261641c565b61644d8185616427565b935061645d818560208601615709565b61646681615733565b840191505092915050565b61647a81615839565b82525050565b61648981615991565b82525050565b616498816158ce565b82525050565b600060c08301600083015184820360008601526164bb8282616438565b91505060208301516164d06020860182616471565b5060408301516164e36040860182616471565b5060608301516164f66060860182616480565b506080830151616509608086018261648f565b5060a083015161651c60a086018261640d565b508091505092915050565b6165308161562a565b82525050565b60006101408301600083015161654f600086018261640d565b506020830151616562602086018261640d565b506040830151616575604086018261640d565b506060830151616588606086018261640d565b50608083015161659b608086018261640d565b5060a083015184820360a08601526165b3828261649e565b91505060c08301516165c860c0860182616527565b5060e08301516165db60e0860182616527565b506101008301516165f0610100860182616471565b5061012083015184820361012086015261660a8282616438565b9150508091505092915050565b600060208201905081810360008301526166318184616536565b905092915050565b600060608201905061664e60008301866156c3565b61665b602083018561584b565b616668604083018461584b565b949350505050565b600061667b82615660565b915061668683615660565b925082820390508181111561669e5761669d6161ea565b5b92915050565b60006166af82615660565b91506166ba83615660565b92508282026166c881615660565b915082820484148315176166df576166de6161ea565b5b5092915050565b600082825260208201905092915050565b60006167028261641c565b61670c81856166e6565b935061671c818560208601615709565b61672581615733565b840191505092915050565b6000604082019050818103600083015261674a81856166f7565b90506167596020830184615636565b9392505050565b600061012083016000830151848203600086015261677e8282616438565b9150506020830151616793602086018261648f565b5060408301516167a6604086018261648f565b5060608301516167b9606086018261648f565b5060808301516167cc6080860182616527565b5060a08301516167df60a0860182616471565b5060c08301516167f260c0860182616471565b5060e083015161680560e0860182616471565b5061010083015161681a610100860182616471565b508091505092915050565b6000602082019050818103600083015261683f8184616760565b905092915050565b60008151905061685681615b6c565b92915050565b6000602082840312156168725761687161559b565b5b600061688084828501616847565b91505092915050565b600063ffffffff82169050919050565b6168a281616889565b82525050565b60006020820190506168bd6000830184616899565b92915050565b6000819050919050565b60006168e86168e36168de846168c3565b6157bf565b6158ce565b9050919050565b6168f8816168cd565b82525050565b600060208201905061691360008301846168ef565b92915050565b600081905092915050565b600061692f8261641c565b6169398185616919565b9350616949818560208601615709565b80840191505092915050565b60006169618284616924565b915081905092915050565b6000604082019050616981600083018561584b565b61698e602083018461584b565b9392505050565b60006169a082615660565b91506169ab83615660565b92508282019050808211156169c3576169c26161ea565b5b92915050565b60006040820190506169de600083018561584b565b6169eb60208301846156c3565b9392505050565b6000819050919050565b6000616a17616a12616a0d846169f2565b6157bf565b615660565b9050919050565b616a27816169fc565b82525050565b6000604082019050616a42600083018561584b565b616a4f6020830184616a1e565b9392505050565b6000604082019050616a6b60008301856156c3565b616a78602083018461584b565b9392505050565b60006020820190508181036000830152616a9981846166f7565b905092915050565b6000608082019050616ab66000830187615ddc565b616ac360208301866158e2565b616ad060408301856156c3565b8181036060830152616ae28184616536565b905095945050505050565b6000606082019050616b02600083018661584b565b616b0f602083018561584b565b616b1c60408301846156c3565b94935050505056fea26469706673582212203e98c84df61a7e7ebbe5b353588b51cf6a240731a0d037e8ac7c433bfb286bdb64736f6c63430008170033","linkReferences":{}},"methodIdentifiers":{"CHAIN_ID()":"85e1f4d0","asset()":"38d52e0f","directDepositIntoVault((uint256,uint256,uint256,uint256,uint256,(bytes,address,address,uint8,uint64,uint256),bool,bool,address,bytes),address)":"b9232775","directWithdrawFromVault((uint256,uint256,uint256,uint256,uint256,(bytes,address,address,uint8,uint64,uint256),bool,bool,address,bytes),address)":"cb829dc3","emergencyWithdraw(address,uint256)":"95ccea67","forwardDustToPaymaster(address)":"4dcd03c0","getPreviewPricePerVaultShare()":"38d92fd5","getPricePerVaultShare()":"ff5f3e48","getStateRegistryId()":"91deb882","getTotalAssets()":"6e07302b","getTotalSupply()":"c4e41b22","getVaultAddress()":"65cacaa4","getVaultAsset()":"b60262ca","getVaultDecimals()":"c32dcd89","getVaultName()":"9f5376c1","getVaultShareBalance()":"35eda680","getVaultSymbol()":"77188067","initialize(address,address,address)":"c0c53b8b","previewDepositTo(uint256)":"07c080f9","previewRedeemFrom(uint256)":"b7ba28cd","previewWithdrawFrom(uint256)":"37d25010","superRegistry()":"24c73dda","superformYieldTokenName()":"20592d98","superformYieldTokenSymbol()":"17a57e08","supportsInterface(bytes4)":"01ffc9a7","vault()":"fbfa77cf","withdrawAfterCoolDown((uint8,uint64,uint256,(uint256,uint256,uint256,uint256,uint256,(bytes,address,address,uint8,uint64,uint256),bool,bool,address,bytes),uint8))":"8a816a3f","xChainDepositIntoVault((uint256,uint256,uint256,uint256,uint256,(bytes,address,address,uint8,uint64,uint256),bool,bool,address,bytes),address,uint64)":"95e4f1da","xChainWithdrawFromVault((uint256,uint256,uint256,uint256,uint256,(bytes,address,address,uint8,uint64,uint256),bool,bool,address,bytes),address,uint64)":"ef164fef"},"id":138}