{"abi":[{"type":"constructor","inputs":[{"name":"superRegistry_","type":"address","internalType":"address"}],"stateMutability":"nonpayable"},{"type":"receive","stateMutability":"payable"},{"type":"function","name":"makePayment","inputs":[{"name":"user_","type":"address","internalType":"address"}],"outputs":[],"stateMutability":"payable"},{"type":"function","name":"rebalanceTo","inputs":[{"name":"superRegistryId_","type":"bytes32","internalType":"bytes32"},{"name":"req_","type":"tuple","internalType":"struct LiqRequest","components":[{"name":"txData","type":"bytes","internalType":"bytes"},{"name":"token","type":"address","internalType":"address"},{"name":"interimToken","type":"address","internalType":"address"},{"name":"bridgeId","type":"uint8","internalType":"uint8"},{"name":"liqDstChainId","type":"uint64","internalType":"uint64"},{"name":"nativeAmount","type":"uint256","internalType":"uint256"}]},{"name":"dstChainId_","type":"uint64","internalType":"uint64"}],"outputs":[],"stateMutability":"nonpayable"},{"type":"function","name":"superRegistry","inputs":[],"outputs":[{"name":"","type":"address","internalType":"contract ISuperRegistry"}],"stateMutability":"view"},{"type":"function","name":"totalFeesPaid","inputs":[{"name":"","type":"address","internalType":"address"}],"outputs":[{"name":"","type":"uint256","internalType":"uint256"}],"stateMutability":"view"},{"type":"function","name":"treatAMB","inputs":[{"name":"ambId_","type":"uint8","internalType":"uint8"},{"name":"nativeValue_","type":"uint256","internalType":"uint256"},{"name":"data_","type":"bytes","internalType":"bytes"}],"outputs":[],"stateMutability":"nonpayable"},{"type":"function","name":"withdrawNativeTo","inputs":[{"name":"superRegistryId_","type":"bytes32","internalType":"bytes32"},{"name":"nativeAmount_","type":"uint256","internalType":"uint256"}],"outputs":[],"stateMutability":"nonpayable"},{"type":"function","name":"withdrawTo","inputs":[{"name":"superRegistryId_","type":"bytes32","internalType":"bytes32"},{"name":"token_","type":"address","internalType":"address"},{"name":"amount_","type":"uint256","internalType":"uint256"}],"outputs":[],"stateMutability":"nonpayable"},{"type":"event","name":"NativeWithdrawn","inputs":[{"name":"receiver","type":"address","indexed":true,"internalType":"address"},{"name":"amount","type":"uint256","indexed":true,"internalType":"uint256"}],"anonymous":false},{"type":"event","name":"Payment","inputs":[{"name":"user","type":"address","indexed":true,"internalType":"address"},{"name":"amount","type":"uint256","indexed":true,"internalType":"uint256"}],"anonymous":false},{"type":"event","name":"TokenWithdrawn","inputs":[{"name":"receiver","type":"address","indexed":true,"internalType":"address"},{"name":"token","type":"address","indexed":true,"internalType":"address"},{"name":"amount","type":"uint256","indexed":true,"internalType":"uint256"}],"anonymous":false},{"type":"error","name":"AddressEmptyCode","inputs":[{"name":"target","type":"address","internalType":"address"}]},{"type":"error","name":"AddressInsufficientBalance","inputs":[{"name":"account","type":"address","internalType":"address"}]},{"type":"error","name":"FAILED_TO_EXECUTE_TXDATA","inputs":[{"name":"token","type":"address","internalType":"address"}]},{"type":"error","name":"FAILED_TO_SEND_NATIVE","inputs":[]},{"type":"error","name":"FailedInnerCall","inputs":[]},{"type":"error","name":"INSUFFICIENT_BALANCE","inputs":[]},{"type":"error","name":"INSUFFICIENT_NATIVE_AMOUNT","inputs":[]},{"type":"error","name":"INVALID_TXDATA_RECEIVER","inputs":[]},{"type":"error","name":"NOT_PAYMENT_ADMIN","inputs":[]},{"type":"error","name":"SafeERC20FailedOperation","inputs":[{"name":"token","type":"address","internalType":"address"}]},{"type":"error","name":"ZERO_ADDRESS","inputs":[]},{"type":"error","name":"ZERO_AMOUNT","inputs":[]},{"type":"error","name":"ZERO_INPUT_VALUE","inputs":[]}],"bytecode":{"object":"0x60a06040523480156200001157600080fd5b50604051620026ec380380620026ec833981810160405281019062000037919062000143565b600073ffffffffffffffffffffffffffffffffffffffff168173ffffffffffffffffffffffffffffffffffffffff16036200009e576040517f538ba4f900000000000000000000000000000000000000000000000000000000815260040160405180910390fd5b8073ffffffffffffffffffffffffffffffffffffffff1660808173ffffffffffffffffffffffffffffffffffffffff16815250505062000175565b600080fd5b600073ffffffffffffffffffffffffffffffffffffffff82169050919050565b60006200010b82620000de565b9050919050565b6200011d81620000fe565b81146200012957600080fd5b50565b6000815190506200013d8162000112565b92915050565b6000602082840312156200015c576200015b620000d9565b5b60006200016c848285016200012c565b91505092915050565b608051612515620001d7600039600081816101aa015281816103d80152818161047e015281816105de0152818161076c01528181610810015281816109d501528181610adf01528181610c6c01528181610fa4015261110201526125156000f3fe6080604052600436106100745760003560e01c8063a1090c1e1161004e578063a1090c1e146100f0578063cfeba9aa14610119578063f6c6508414610142578063f8a5764e1461016b5761007b565b8063205ab6ac1461008057806324c73dda146100a9578063300be4fc146100d45761007b565b3661007b57005b600080fd5b34801561008c57600080fd5b506100a760048036038101906100a29190611b99565b6101a8565b005b3480156100b557600080fd5b506100be61047c565b6040516100cb9190611c4b565b60405180910390f35b6100ee60048036038101906100e99190611c66565b6104a0565b005b3480156100fc57600080fd5b5061011760048036038101906101129190611c93565b6105dc565b005b34801561012557600080fd5b50610140600480360381019061013b9190611e52565b61080e565b005b34801561014e57600080fd5b5061016960048036038101906101649190611fc7565b610add565b005b34801561017757600080fd5b50610192600480360381019061018d9190611c66565b610d18565b60405161019f9190612045565b60405180910390f35b7f000000000000000000000000000000000000000000000000000000000000000073ffffffffffffffffffffffffffffffffffffffff166321f8a7217f6b50fa17b77d24e42e27a04b69fe50cd6967cfb767d18de0bd5fe7e1a32aa8686040518263ffffffff1660e01b8152600401610221919061206f565b602060405180830381865afa15801561023e573d6000803e3d6000fd5b505050506040513d601f19601f82011682018060405250810190610262919061209f565b73ffffffffffffffffffffffffffffffffffffffff166391d148547f4a76dea3a6231aa5446f85ecde36fb499385f0f3539e800a138fb9855200db67336040518363ffffffff1660e01b81526004016102bc9291906120db565b602060405180830381865afa1580156102d9573d6000803e3d6000fd5b505050506040513d601f19601f820116820180604052508101906102fd919061213c565b610333576040517f6210860600000000000000000000000000000000000000000000000000000000815260040160405180910390fd5b6000810361036d576040517f021b4ea100000000000000000000000000000000000000000000000000000000815260040160405180910390fd5b600073ffffffffffffffffffffffffffffffffffffffff168273ffffffffffffffffffffffffffffffffffffffff16036103d3576040517f538ba4f900000000000000000000000000000000000000000000000000000000815260040160405180910390fd5b6104777f000000000000000000000000000000000000000000000000000000000000000073ffffffffffffffffffffffffffffffffffffffff166321f8a721856040518263ffffffff1660e01b815260040161042f919061206f565b602060405180830381865afa15801561044c573d6000803e3d6000fd5b505050506040513d601f19601f82011682018060405250810190610470919061209f565b8383610d30565b505050565b7f000000000000000000000000000000000000000000000000000000000000000081565b600034036104da576040517f220d375300000000000000000000000000000000000000000000000000000000815260040160405180910390fd5b600073ffffffffffffffffffffffffffffffffffffffff168173ffffffffffffffffffffffffffffffffffffffff1603610540576040517f538ba4f900000000000000000000000000000000000000000000000000000000815260040160405180910390fd5b346000808373ffffffffffffffffffffffffffffffffffffffff1673ffffffffffffffffffffffffffffffffffffffff168152602001908152602001600020600082825461058e9190612198565b92505081905550348173ffffffffffffffffffffffffffffffffffffffff167fd4f43975feb89f48dd30cabbb32011045be187d1e11c8ea9faa43efc3528251960405160405180910390a350565b7f000000000000000000000000000000000000000000000000000000000000000073ffffffffffffffffffffffffffffffffffffffff166321f8a7217f6b50fa17b77d24e42e27a04b69fe50cd6967cfb767d18de0bd5fe7e1a32aa8686040518263ffffffff1660e01b8152600401610655919061206f565b602060405180830381865afa158015610672573d6000803e3d6000fd5b505050506040513d601f19601f82011682018060405250810190610696919061209f565b73ffffffffffffffffffffffffffffffffffffffff166391d148547f4a76dea3a6231aa5446f85ecde36fb499385f0f3539e800a138fb9855200db67336040518363ffffffff1660e01b81526004016106f09291906120db565b602060405180830381865afa15801561070d573d6000803e3d6000fd5b505050506040513d601f19601f82011682018060405250810190610731919061213c565b610767576040517f6210860600000000000000000000000000000000000000000000000000000000815260040160405180910390fd5b61080a7f000000000000000000000000000000000000000000000000000000000000000073ffffffffffffffffffffffffffffffffffffffff166321f8a721846040518263ffffffff1660e01b81526004016107c3919061206f565b602060405180830381865afa1580156107e0573d6000803e3d6000fd5b505050506040513d601f19601f82011682018060405250810190610804919061209f565b82610e7a565b5050565b7f000000000000000000000000000000000000000000000000000000000000000073ffffffffffffffffffffffffffffffffffffffff166321f8a7217f6b50fa17b77d24e42e27a04b69fe50cd6967cfb767d18de0bd5fe7e1a32aa8686040518263ffffffff1660e01b8152600401610887919061206f565b602060405180830381865afa1580156108a4573d6000803e3d6000fd5b505050506040513d601f19601f820116820180604052508101906108c8919061209f565b73ffffffffffffffffffffffffffffffffffffffff166391d148547f4a76dea3a6231aa5446f85ecde36fb499385f0f3539e800a138fb9855200db67336040518363ffffffff1660e01b81526004016109229291906120db565b602060405180830381865afa15801561093f573d6000803e3d6000fd5b505050506040513d601f19601f82011682018060405250810190610963919061213c565b610999576040517f6210860600000000000000000000000000000000000000000000000000000000815260040160405180910390fd5b814710156109d3576040517f220d375300000000000000000000000000000000000000000000000000000000815260040160405180910390fd5b7f000000000000000000000000000000000000000000000000000000000000000073ffffffffffffffffffffffffffffffffffffffff16630eff125d846040518263ffffffff1660e01b8152600401610a2c91906121db565b602060405180830381865afa158015610a49573d6000803e3d6000fd5b505050506040513d601f19601f82011682018060405250810190610a6d919061209f565b73ffffffffffffffffffffffffffffffffffffffff16630fbb7cbc83836040518363ffffffff1660e01b8152600401610aa69190612275565b6000604051808303818588803b158015610abf57600080fd5b505af1158015610ad3573d6000803e3d6000fd5b5050505050505050565b7f000000000000000000000000000000000000000000000000000000000000000073ffffffffffffffffffffffffffffffffffffffff166321f8a7217f6b50fa17b77d24e42e27a04b69fe50cd6967cfb767d18de0bd5fe7e1a32aa8686040518263ffffffff1660e01b8152600401610b56919061206f565b602060405180830381865afa158015610b73573d6000803e3d6000fd5b505050506040513d601f19601f82011682018060405250810190610b97919061209f565b73ffffffffffffffffffffffffffffffffffffffff166391d148547f4a76dea3a6231aa5446f85ecde36fb499385f0f3539e800a138fb9855200db67336040518363ffffffff1660e01b8152600401610bf19291906120db565b602060405180830381865afa158015610c0e573d6000803e3d6000fd5b505050506040513d601f19601f82011682018060405250810190610c32919061213c565b610c68576040517f6210860600000000000000000000000000000000000000000000000000000000815260040160405180910390fd5b60007f000000000000000000000000000000000000000000000000000000000000000073ffffffffffffffffffffffffffffffffffffffff1663dfcf829b85846040518363ffffffff1660e01b8152600401610cc59291906122a6565b602060405180830381865afa158015610ce2573d6000803e3d6000fd5b505050506040513d601f19601f82011682018060405250810190610d06919061209f565b9050610d128382610fa0565b50505050565b60006020528060005260406000206000915090505481565b600082905060008173ffffffffffffffffffffffffffffffffffffffff166370a08231306040518263ffffffff1660e01b8152600401610d7091906122cf565b602060405180830381865afa158015610d8d573d6000803e3d6000fd5b505050506040513d601f19601f82011682018060405250810190610db191906122ff565b905082811015610ded576040517f50b1f35600000000000000000000000000000000000000000000000000000000815260040160405180910390fd5b610e1885848473ffffffffffffffffffffffffffffffffffffffff166112399092919063ffffffff16565b828473ffffffffffffffffffffffffffffffffffffffff168673ffffffffffffffffffffffffffffffffffffffff167f8210728e7c071f615b840ee026032693858fbcd5e5359e67e438c890f59e562060405160405180910390a45050505050565b80471015610eb4576040517f220d375300000000000000000000000000000000000000000000000000000000815260040160405180910390fd5b60008273ffffffffffffffffffffffffffffffffffffffff1682604051610eda9061235d565b60006040518083038185875af1925050503d8060008114610f17576040519150601f19603f3d011682016040523d82523d6000602084013e610f1c565b606091505b5050905080610f57576040517f220d375300000000000000000000000000000000000000000000000000000000815260040160405180910390fd5b818373ffffffffffffffffffffffffffffffffffffffff167fc303ca808382409472acbbf899c316cf439f409f6584aae22df86dfa3c9ed50460405160405180910390a3505050565b60007f000000000000000000000000000000000000000000000000000000000000000073ffffffffffffffffffffffffffffffffffffffff1663e85b2b5484606001516040518263ffffffff1660e01b8152600401610fff91906121db565b602060405180830381865afa15801561101c573d6000803e3d6000fd5b505050506040513d601f19601f82011682018060405250810190611040919061209f565b905060008173ffffffffffffffffffffffffffffffffffffffff16631d51a3d78560000151856040518363ffffffff1660e01b8152600401611083929190612372565b602060405180830381865afa1580156110a0573d6000803e3d6000fd5b505050506040513d601f19601f820116820180604052508101906110c4919061213c565b9050806110fd576040517fb076b2fc00000000000000000000000000000000000000000000000000000000815260040160405180910390fd5b6112337f000000000000000000000000000000000000000000000000000000000000000073ffffffffffffffffffffffffffffffffffffffff1663ca7adffb86606001516040518263ffffffff1660e01b815260040161115d91906121db565b602060405180830381865afa15801561117a573d6000803e3d6000fd5b505050506040513d601f19601f8201168201806040525081019061119e919061209f565b856000015186602001518573ffffffffffffffffffffffffffffffffffffffff16639bbbb5c8896000015160006040518363ffffffff1660e01b81526004016111e89291906123b1565b602060405180830381865afa158015611205573d6000803e3d6000fd5b505050506040513d601f19601f8201168201806040525081019061122991906122ff565b8860a001516112b8565b50505050565b6112b3838473ffffffffffffffffffffffffffffffffffffffff1663a9059cbb858560405160240161126c9291906123e1565b604051602081830303815290604052915060e01b6020820180517bffffffffffffffffffffffffffffffffffffffffffffffffffffffff83818316178352505050506115fb565b505050565b600082036112f2576040517ff6fa545000000000000000000000000000000000000000000000000000000000815260040160405180910390fd5b600073ffffffffffffffffffffffffffffffffffffffff168573ffffffffffffffffffffffffffffffffffffffff1603611358576040517f538ba4f900000000000000000000000000000000000000000000000000000000815260040160405180910390fd5b73eeeeeeeeeeeeeeeeeeeeeeeeeeeeeeeeeeeeeeee73ffffffffffffffffffffffffffffffffffffffff168373ffffffffffffffffffffffffffffffffffffffff16146113cf576113ca85838573ffffffffffffffffffffffffffffffffffffffff166116929092919063ffffffff16565b611444565b81811015611409576040517fe4f2466300000000000000000000000000000000000000000000000000000000815260040160405180910390fd5b47811115611443576040517f50b1f35600000000000000000000000000000000000000000000000000000000815260040160405180910390fd5b5b60008573ffffffffffffffffffffffffffffffffffffffff16828660405161146c919061243b565b60006040518083038185875af1925050503d80600081146114a9576040519150601f19603f3d011682016040523d82523d6000602084013e6114ae565b606091505b50509050806114f457836040517f2accaa150000000000000000000000000000000000000000000000000000000081526004016114eb91906122cf565b60405180910390fd5b73eeeeeeeeeeeeeeeeeeeeeeeeeeeeeeeeeeeeeeee73ffffffffffffffffffffffffffffffffffffffff168473ffffffffffffffffffffffffffffffffffffffff16146115f357600084905060008173ffffffffffffffffffffffffffffffffffffffff1663dd62ed3e308a6040518363ffffffff1660e01b815260040161157d929190612452565b602060405180830381865afa15801561159a573d6000803e3d6000fd5b505050506040513d601f19601f820116820180604052508101906115be91906122ff565b11156115f1576115f08760008373ffffffffffffffffffffffffffffffffffffffff1661172e9092919063ffffffff16565b5b505b505050505050565b6000611626828473ffffffffffffffffffffffffffffffffffffffff1661183d90919063ffffffff16565b9050600081511415801561164b575080806020019051810190611649919061213c565b155b1561168d57826040517f5274afe700000000000000000000000000000000000000000000000000000000815260040161168491906122cf565b60405180910390fd5b505050565b60008373ffffffffffffffffffffffffffffffffffffffff1663dd62ed3e30856040518363ffffffff1660e01b81526004016116cf929190612452565b602060405180830381865afa1580156116ec573d6000803e3d6000fd5b505050506040513d601f19601f8201168201806040525081019061171091906122ff565b9050611728848484846117239190612198565b61172e565b50505050565b60008373ffffffffffffffffffffffffffffffffffffffff1663095ea7b3848460405160240161175f9291906123e1565b604051602081830303815290604052915060e01b6020820180517bffffffffffffffffffffffffffffffffffffffffffffffffffffffff838183161783525050505090506117ad8482611853565b6118375761182c848573ffffffffffffffffffffffffffffffffffffffff1663095ea7b38660006040516024016117e59291906124b6565b604051602081830303815290604052915060e01b6020820180517bffffffffffffffffffffffffffffffffffffffffffffffffffffffff83818316178352505050506115fb565b61183684826115fb565b5b50505050565b606061184b8383600061191a565b905092915050565b60008060008473ffffffffffffffffffffffffffffffffffffffff168460405161187d919061243b565b6000604051808303816000865af19150503d80600081146118ba576040519150601f19603f3d011682016040523d82523d6000602084013e6118bf565b606091505b50915091508180156118ed57506000815114806118ec5750808060200190518101906118eb919061213c565b5b5b8015611910575060008573ffffffffffffffffffffffffffffffffffffffff163b115b9250505092915050565b60608147101561196157306040517fcd78605900000000000000000000000000000000000000000000000000000000815260040161195891906122cf565b60405180910390fd5b6000808573ffffffffffffffffffffffffffffffffffffffff16848660405161198a919061243b565b60006040518083038185875af1925050503d80600081146119c7576040519150601f19603f3d011682016040523d82523d6000602084013e6119cc565b606091505b50915091506119dc8683836119e7565b925050509392505050565b6060826119fc576119f782611a76565b611a6e565b60008251148015611a24575060008473ffffffffffffffffffffffffffffffffffffffff163b145b15611a6657836040517f9996b315000000000000000000000000000000000000000000000000000000008152600401611a5d91906122cf565b60405180910390fd5b819050611a6f565b5b9392505050565b600081511115611a895780518082602001fd5b6040517f1425ea4200000000000000000000000000000000000000000000000000000000815260040160405180910390fd5b6000604051905090565b600080fd5b600080fd5b6000819050919050565b611ae281611acf565b8114611aed57600080fd5b50565b600081359050611aff81611ad9565b92915050565b600073ffffffffffffffffffffffffffffffffffffffff82169050919050565b6000611b3082611b05565b9050919050565b611b4081611b25565b8114611b4b57600080fd5b50565b600081359050611b5d81611b37565b92915050565b6000819050919050565b611b7681611b63565b8114611b8157600080fd5b50565b600081359050611b9381611b6d565b92915050565b600080600060608486031215611bb257611bb1611ac5565b5b6000611bc086828701611af0565b9350506020611bd186828701611b4e565b9250506040611be286828701611b84565b9150509250925092565b6000819050919050565b6000611c11611c0c611c0784611b05565b611bec565b611b05565b9050919050565b6000611c2382611bf6565b9050919050565b6000611c3582611c18565b9050919050565b611c4581611c2a565b82525050565b6000602082019050611c606000830184611c3c565b92915050565b600060208284031215611c7c57611c7b611ac5565b5b6000611c8a84828501611b4e565b91505092915050565b60008060408385031215611caa57611ca9611ac5565b5b6000611cb885828601611af0565b9250506020611cc985828601611b84565b9150509250929050565b600060ff82169050919050565b611ce981611cd3565b8114611cf457600080fd5b50565b600081359050611d0681611ce0565b92915050565b600080fd5b600080fd5b6000601f19601f8301169050919050565b7f4e487b7100000000000000000000000000000000000000000000000000000000600052604160045260246000fd5b611d5f82611d16565b810181811067ffffffffffffffff82111715611d7e57611d7d611d27565b5b80604052505050565b6000611d91611abb565b9050611d9d8282611d56565b919050565b600067ffffffffffffffff821115611dbd57611dbc611d27565b5b611dc682611d16565b9050602081019050919050565b82818337600083830152505050565b6000611df5611df084611da2565b611d87565b905082815260208101848484011115611e1157611e10611d11565b5b611e1c848285611dd3565b509392505050565b600082601f830112611e3957611e38611d0c565b5b8135611e49848260208601611de2565b91505092915050565b600080600060608486031215611e6b57611e6a611ac5565b5b6000611e7986828701611cf7565b9350506020611e8a86828701611b84565b925050604084013567ffffffffffffffff811115611eab57611eaa611aca565b5b611eb786828701611e24565b9150509250925092565b600080fd5b600080fd5b600067ffffffffffffffff82169050919050565b611ee881611ecb565b8114611ef357600080fd5b50565b600081359050611f0581611edf565b92915050565b600060c08284031215611f2157611f20611ec1565b5b611f2b60c0611d87565b9050600082013567ffffffffffffffff811115611f4b57611f4a611ec6565b5b611f5784828501611e24565b6000830152506020611f6b84828501611b4e565b6020830152506040611f7f84828501611b4e565b6040830152506060611f9384828501611cf7565b6060830152506080611fa784828501611ef6565b60808301525060a0611fbb84828501611b84565b60a08301525092915050565b600080600060608486031215611fe057611fdf611ac5565b5b6000611fee86828701611af0565b935050602084013567ffffffffffffffff81111561200f5761200e611aca565b5b61201b86828701611f0b565b925050604061202c86828701611ef6565b9150509250925092565b61203f81611b63565b82525050565b600060208201905061205a6000830184612036565b92915050565b61206981611acf565b82525050565b60006020820190506120846000830184612060565b92915050565b60008151905061209981611b37565b92915050565b6000602082840312156120b5576120b4611ac5565b5b60006120c38482850161208a565b91505092915050565b6120d581611b25565b82525050565b60006040820190506120f06000830185612060565b6120fd60208301846120cc565b9392505050565b60008115159050919050565b61211981612104565b811461212457600080fd5b50565b60008151905061213681612110565b92915050565b60006020828403121561215257612151611ac5565b5b600061216084828501612127565b91505092915050565b7f4e487b7100000000000000000000000000000000000000000000000000000000600052601160045260246000fd5b60006121a382611b63565b91506121ae83611b63565b92508282019050808211156121c6576121c5612169565b5b92915050565b6121d581611cd3565b82525050565b60006020820190506121f060008301846121cc565b92915050565b600081519050919050565b600082825260208201905092915050565b60005b83811015612230578082015181840152602081019050612215565b60008484015250505050565b6000612247826121f6565b6122518185612201565b9350612261818560208601612212565b61226a81611d16565b840191505092915050565b6000602082019050818103600083015261228f818461223c565b905092915050565b6122a081611ecb565b82525050565b60006040820190506122bb6000830185612060565b6122c86020830184612297565b9392505050565b60006020820190506122e460008301846120cc565b92915050565b6000815190506122f981611b6d565b92915050565b60006020828403121561231557612314611ac5565b5b6000612323848285016122ea565b91505092915050565b600081905092915050565b50565b600061234760008361232c565b915061235282612337565b600082019050919050565b60006123688261233a565b9150819050919050565b6000604082019050818103600083015261238c818561223c565b905061239b60208301846120cc565b9392505050565b6123ab81612104565b82525050565b600060408201905081810360008301526123cb818561223c565b90506123da60208301846123a2565b9392505050565b60006040820190506123f660008301856120cc565b6124036020830184612036565b9392505050565b6000612415826121f6565b61241f818561232c565b935061242f818560208601612212565b80840191505092915050565b6000612447828461240a565b915081905092915050565b600060408201905061246760008301856120cc565b61247460208301846120cc565b9392505050565b6000819050919050565b60006124a061249b6124968461247b565b611bec565b611b63565b9050919050565b6124b081612485565b82525050565b60006040820190506124cb60008301856120cc565b6124d860208301846124a7565b939250505056fea2646970667358221220e049d640a6be35c8cfcbf7695c94cf4aad03c79ec17c917d944f0a7fac918e2d64736f6c63430008170033","linkReferences":{}},"methodIdentifiers":{"makePayment(address)":"300be4fc","rebalanceTo(bytes32,(bytes,address,address,uint8,uint64,uint256),uint64)":"f6c65084","superRegistry()":"24c73dda","totalFeesPaid(address)":"f8a5764e","treatAMB(uint8,uint256,bytes)":"cfeba9aa","withdrawNativeTo(bytes32,uint256)":"a1090c1e","withdrawTo(bytes32,address,uint256)":"205ab6ac"},"id":170}