{"abi":[{"type":"constructor","inputs":[{"name":"superRegistry_","type":"address","internalType":"contract ISuperRegistry"}],"stateMutability":"nonpayable"},{"type":"function","name":"CHAIN_ID","inputs":[],"outputs":[{"name":"","type":"uint64","internalType":"uint64"}],"stateMutability":"view"},{"type":"function","name":"dispatchPayload","inputs":[{"name":"srcSender_","type":"address","internalType":"address"},{"name":"ambIds_","type":"uint8[]","internalType":"uint8[]"},{"name":"dstChainId_","type":"uint64","internalType":"uint64"},{"name":"message_","type":"bytes","internalType":"bytes"},{"name":"extraData_","type":"bytes","internalType":"bytes"}],"outputs":[],"stateMutability":"payable"},{"type":"function","name":"finalizePayload","inputs":[{"name":"timeLockPayloadId_","type":"uint256","internalType":"uint256"},{"name":"txData_","type":"bytes","internalType":"bytes"}],"outputs":[],"stateMutability":"payable"},{"type":"function","name":"getMessageAMB","inputs":[{"name":"payloadId_","type":"uint256","internalType":"uint256"}],"outputs":[{"name":"","type":"uint8[]","internalType":"uint8[]"}],"stateMutability":"view"},{"type":"function","name":"getTimelockPayload","inputs":[{"name":"payloadId_","type":"uint256","internalType":"uint256"}],"outputs":[{"name":"timelockPayload_","type":"tuple","internalType":"struct TimelockPayload","components":[{"name":"isXChain","type":"uint8","internalType":"uint8"},{"name":"srcChainId","type":"uint64","internalType":"uint64"},{"name":"lockedTill","type":"uint256","internalType":"uint256"},{"name":"data","type":"tuple","internalType":"struct InitSingleVaultData","components":[{"name":"payloadId","type":"uint256","internalType":"uint256"},{"name":"superformId","type":"uint256","internalType":"uint256"},{"name":"amount","type":"uint256","internalType":"uint256"},{"name":"outputAmount","type":"uint256","internalType":"uint256"},{"name":"maxSlippage","type":"uint256","internalType":"uint256"},{"name":"liqData","type":"tuple","internalType":"struct LiqRequest","components":[{"name":"txData","type":"bytes","internalType":"bytes"},{"name":"token","type":"address","internalType":"address"},{"name":"interimToken","type":"address","internalType":"address"},{"name":"bridgeId","type":"uint8","internalType":"uint8"},{"name":"liqDstChainId","type":"uint64","internalType":"uint64"},{"name":"nativeAmount","type":"uint256","internalType":"uint256"}]},{"name":"hasDstSwap","type":"bool","internalType":"bool"},{"name":"retain4626","type":"bool","internalType":"bool"},{"name":"receiverAddress","type":"address","internalType":"address"},{"name":"extraFormData","type":"bytes","internalType":"bytes"}]},{"name":"status","type":"uint8","internalType":"enum TimelockStatus"}]}],"stateMutability":"view"},{"type":"function","name":"messageQuorum","inputs":[{"name":"","type":"bytes32","internalType":"bytes32"}],"outputs":[{"name":"","type":"uint256","internalType":"uint256"}],"stateMutability":"view"},{"type":"function","name":"payloadBody","inputs":[{"name":"","type":"uint256","internalType":"uint256"}],"outputs":[{"name":"","type":"bytes","internalType":"bytes"}],"stateMutability":"view"},{"type":"function","name":"payloadHeader","inputs":[{"name":"","type":"uint256","internalType":"uint256"}],"outputs":[{"name":"","type":"uint256","internalType":"uint256"}],"stateMutability":"view"},{"type":"function","name":"payloadTracking","inputs":[{"name":"","type":"uint256","internalType":"uint256"}],"outputs":[{"name":"","type":"uint8","internalType":"enum PayloadState"}],"stateMutability":"view"},{"type":"function","name":"payloadsCount","inputs":[],"outputs":[{"name":"","type":"uint256","internalType":"uint256"}],"stateMutability":"view"},{"type":"function","name":"processPayload","inputs":[{"name":"payloadId_","type":"uint256","internalType":"uint256"}],"outputs":[],"stateMutability":"payable"},{"type":"function","name":"receivePayload","inputs":[{"name":"type_","type":"uint8","internalType":"uint8"},{"name":"srcChainId_","type":"uint64","internalType":"uint64"},{"name":"lockedTill_","type":"uint256","internalType":"uint256"},{"name":"data_","type":"tuple","internalType":"struct InitSingleVaultData","components":[{"name":"payloadId","type":"uint256","internalType":"uint256"},{"name":"superformId","type":"uint256","internalType":"uint256"},{"name":"amount","type":"uint256","internalType":"uint256"},{"name":"outputAmount","type":"uint256","internalType":"uint256"},{"name":"maxSlippage","type":"uint256","internalType":"uint256"},{"name":"liqData","type":"tuple","internalType":"struct LiqRequest","components":[{"name":"txData","type":"bytes","internalType":"bytes"},{"name":"token","type":"address","internalType":"address"},{"name":"interimToken","type":"address","internalType":"address"},{"name":"bridgeId","type":"uint8","internalType":"uint8"},{"name":"liqDstChainId","type":"uint64","internalType":"uint64"},{"name":"nativeAmount","type":"uint256","internalType":"uint256"}]},{"name":"hasDstSwap","type":"bool","internalType":"bool"},{"name":"retain4626","type":"bool","internalType":"bool"},{"name":"receiverAddress","type":"address","internalType":"address"},{"name":"extraFormData","type":"bytes","internalType":"bytes"}]}],"outputs":[],"stateMutability":"nonpayable"},{"type":"function","name":"receivePayload","inputs":[{"name":"srcChainId_","type":"uint64","internalType":"uint64"},{"name":"message_","type":"bytes","internalType":"bytes"}],"outputs":[],"stateMutability":"nonpayable"},{"type":"function","name":"superRegistry","inputs":[],"outputs":[{"name":"","type":"address","internalType":"contract ISuperRegistry"}],"stateMutability":"view"},{"type":"function","name":"timelockPayload","inputs":[{"name":"timelockPayloadId","type":"uint256","internalType":"uint256"}],"outputs":[{"name":"isXChain","type":"uint8","internalType":"uint8"},{"name":"srcChainId","type":"uint64","internalType":"uint64"},{"name":"lockedTill","type":"uint256","internalType":"uint256"},{"name":"data","type":"tuple","internalType":"struct InitSingleVaultData","components":[{"name":"payloadId","type":"uint256","internalType":"uint256"},{"name":"superformId","type":"uint256","internalType":"uint256"},{"name":"amount","type":"uint256","internalType":"uint256"},{"name":"outputAmount","type":"uint256","internalType":"uint256"},{"name":"maxSlippage","type":"uint256","internalType":"uint256"},{"name":"liqData","type":"tuple","internalType":"struct LiqRequest","components":[{"name":"txData","type":"bytes","internalType":"bytes"},{"name":"token","type":"address","internalType":"address"},{"name":"interimToken","type":"address","internalType":"address"},{"name":"bridgeId","type":"uint8","internalType":"uint8"},{"name":"liqDstChainId","type":"uint64","internalType":"uint64"},{"name":"nativeAmount","type":"uint256","internalType":"uint256"}]},{"name":"hasDstSwap","type":"bool","internalType":"bool"},{"name":"retain4626","type":"bool","internalType":"bool"},{"name":"receiverAddress","type":"address","internalType":"address"},{"name":"extraFormData","type":"bytes","internalType":"bytes"}]},{"name":"status","type":"uint8","internalType":"enum TimelockStatus"}],"stateMutability":"view"},{"type":"function","name":"timelockPayloadCounter","inputs":[],"outputs":[{"name":"","type":"uint256","internalType":"uint256"}],"stateMutability":"view"},{"type":"event","name":"PayloadProcessed","inputs":[{"name":"payloadId","type":"uint256","indexed":true,"internalType":"uint256"}],"anonymous":false},{"type":"event","name":"PayloadReceived","inputs":[{"name":"srcChainId","type":"uint64","indexed":true,"internalType":"uint64"},{"name":"dstChainId","type":"uint64","indexed":true,"internalType":"uint64"},{"name":"payloadId","type":"uint256","indexed":true,"internalType":"uint256"}],"anonymous":false},{"type":"event","name":"PayloadUpdated","inputs":[{"name":"payloadId","type":"uint256","indexed":true,"internalType":"uint256"}],"anonymous":false},{"type":"event","name":"ProofReceived","inputs":[{"name":"proof","type":"bytes32","indexed":true,"internalType":"bytes32"}],"anonymous":false},{"type":"event","name":"SuperRegistryUpdated","inputs":[{"name":"superRegistry","type":"address","indexed":true,"internalType":"address"}],"anonymous":false},{"type":"error","name":"BLOCK_CHAIN_ID_OUT_OF_BOUNDS","inputs":[]},{"type":"error","name":"CANNOT_UPDATE_WITHDRAW_TX_DATA","inputs":[]},{"type":"error","name":"DISABLED","inputs":[]},{"type":"error","name":"INSUFFICIENT_QUORUM","inputs":[]},{"type":"error","name":"INVALID_CHAIN_ID","inputs":[]},{"type":"error","name":"INVALID_PAYLOAD_ID","inputs":[]},{"type":"error","name":"INVALID_PAYLOAD_STATUS","inputs":[]},{"type":"error","name":"INVALID_PROOF_BRIDGE_ID","inputs":[]},{"type":"error","name":"INVALID_PROOF_BRIDGE_IDS","inputs":[]},{"type":"error","name":"LOCKED","inputs":[]},{"type":"error","name":"NEGATIVE_SLIPPAGE","inputs":[]},{"type":"error","name":"NOT_AMB_IMPLEMENTATION","inputs":[]},{"type":"error","name":"NOT_PRIVILEGED_CALLER","inputs":[{"name":"role","type":"bytes32","internalType":"bytes32"}]},{"type":"error","name":"NOT_SUPERFORM","inputs":[]},{"type":"error","name":"NOT_TIMELOCK_SUPERFORM","inputs":[]},{"type":"error","name":"PAYLOAD_ALREADY_PROCESSED","inputs":[]},{"type":"error","name":"RECEIVER_ADDRESS_NOT_SET","inputs":[]},{"type":"error","name":"ReentrancyGuardReentrantCall","inputs":[]},{"type":"error","name":"SLIPPAGE_OUT_OF_BOUNDS","inputs":[]},{"type":"error","name":"SUPERFORM_ID_NONEXISTENT","inputs":[]},{"type":"error","name":"ZERO_AMB_ID_LENGTH","inputs":[]}],"bytecode":{"object":"0x60c06040523480156200001157600080fd5b5060405162005fff38038062005fff83398181016040528101906200003791906200015b565b8067ffffffffffffffff80164611156200007d576040517f7ecdf93300000000000000000000000000000000000000000000000000000000815260040160405180910390fd5b4667ffffffffffffffff1660a08167ffffffffffffffff16815250508073ffffffffffffffffffffffffffffffffffffffff1660808173ffffffffffffffffffffffffffffffffffffffff1681525050506001600681905550506200018d565b600080fd5b600073ffffffffffffffffffffffffffffffffffffffff82169050919050565b60006200010f82620000e2565b9050919050565b6000620001238262000102565b9050919050565b620001358162000116565b81146200014157600080fd5b50565b60008151905062000155816200012a565b92915050565b600060208284031215620001745762000173620000dd565b5b6000620001848482850162000144565b91505092915050565b60805160a051615dd56200022a600039600081816110ca01528181611d8f01528181612a96015261347901526000818161043301528181610514015281816106f101528181610bb901528181610f880152818161186e01528181611aaa0152818161259001528181612888015281816130ba01528181613263015281816133de015281816135160152818161366a01526137b70152615dd56000f3fe6080604052600436106100f35760003560e01c806385e1f4d01161008a578063c8e00b5411610059578063c8e00b541461033a578063cc2d8abd14610356578063d49616061461037f578063d830364e146103bc576100f3565b806385e1f4d014610254578063a47130af1461027f578063b63d36a5146102c0578063b89e17f8146102fd576100f3565b806336445ffd116100c657806336445ffd146101a757806338a4ad64146101e45780633e9e645e1461020d5780635aef948014610238576100f3565b806313c02a59146100f857806323de31e11461012357806324c73dda1461013f578063361ad42b1461016a575b600080fd5b34801561010457600080fd5b5061010d6103f9565b60405161011a9190613aa9565b60405180910390f35b61013d60048036038101906101389190613dbd565b6103ff565b005b34801561014b57600080fd5b50610154610431565b6040516101619190613eeb565b60405180910390f35b34801561017657600080fd5b50610191600480360381019061018c9190613f32565b610455565b60405161019e9190613fde565b60405180910390f35b3480156101b357600080fd5b506101ce60048036038101906101c99190613f32565b6104f5565b6040516101db9190613aa9565b60405180910390f35b3480156101f057600080fd5b5061020b6004803603810190610206919061422c565b61050d565b005b34801561021957600080fd5b50610222610b8c565b60405161022f9190613aa9565b60405180910390f35b610252600480360381019061024d9190613f32565b610b92565b005b34801561026057600080fd5b506102696110c8565b60405161027691906142be565b60405180910390f35b34801561028b57600080fd5b506102a660048036038101906102a19190613f32565b6110ec565b6040516102b795949392919061455e565b60405180910390f35b3480156102cc57600080fd5b506102e760048036038101906102e29190613f32565b611456565b6040516102f49190614600565b60405180910390f35b34801561030957600080fd5b50610324600480360381019061031f9190613f32565b611476565b6040516103319190614781565b60405180910390f35b610354600480360381019061034f91906147a3565b611847565b005b34801561036257600080fd5b5061037d600480360381019061037891906147ff565b612886565b005b34801561038b57600080fd5b506103a660048036038101906103a19190614891565b612afc565b6040516103b39190613aa9565b60405180910390f35b3480156103c857600080fd5b506103e360048036038101906103de9190613f32565b612b14565b6040516103f0919061496d565b60405180910390f35b60005481565b6040517facb7899800000000000000000000000000000000000000000000000000000000815260040160405180910390fd5b7f000000000000000000000000000000000000000000000000000000000000000081565b60016020528060005260406000206000915090508054610474906149be565b80601f01602080910402602001604051908101604052809291908181526020018280546104a0906149be565b80156104ed5780601f106104c2576101008083540402835291602001916104ed565b820191906000526020600020905b8154815290600101906020018083116104d057829003601f168201915b505050505081565b60026020528060005260406000206000915090505481565b80602001517f000000000000000000000000000000000000000000000000000000000000000073ffffffffffffffffffffffffffffffffffffffff166321f8a7217fbcc180fb907e9ae431665de4bc74305c00b7b27442aadd477980ecc4bb14c0116040518263ffffffff1660e01b815260040161058b91906149fe565b602060405180830381865afa1580156105a8573d6000803e3d6000fd5b505050506040513d601f19601f820116820180604052508101906105cc9190614a2e565b73ffffffffffffffffffffffffffffffffffffffff1663b5c75697826040518263ffffffff1660e01b81526004016106049190613aa9565b602060405180830381865afa158015610621573d6000803e3d6000fd5b505050506040513d601f19601f820116820180604052508101906106459190614a70565b61067b576040517fa412f06500000000000000000000000000000000000000000000000000000000815260040160405180910390fd5b600061068682612fed565b505090508073ffffffffffffffffffffffffffffffffffffffff163373ffffffffffffffffffffffffffffffffffffffff16146106ef576040517f5279abe600000000000000000000000000000000000000000000000000000000815260040160405180910390fd5b7f000000000000000000000000000000000000000000000000000000000000000073ffffffffffffffffffffffffffffffffffffffff16632f6438ab306040518263ffffffff1660e01b81526004016107489190614aac565b602060405180830381865afa158015610765573d6000803e3d6000fd5b505050506040513d601f19601f820116820180604052508101906107899190614adc565b60ff168173ffffffffffffffffffffffffffffffffffffffff166391deb8826040518163ffffffff1660e01b8152600401602060405180830381865afa1580156107d7573d6000803e3d6000fd5b505050506040513d601f19601f820116820180604052508101906107fb9190614adc565b60ff1614610835576040517f41645ec200000000000000000000000000000000000000000000000000000000815260040160405180910390fd5b600073ffffffffffffffffffffffffffffffffffffffff1683610100015173ffffffffffffffffffffffffffffffffffffffff16036108a0576040517fabd840db00000000000000000000000000000000000000000000000000000000815260040160405180910390fd5b6007600081546108af90614b38565b919050819055506040518060a001604052808760ff1681526020018667ffffffffffffffff168152602001858152602001848152602001600160028111156108fa576108f96144e7565b5b81525060086000600754815260200190815260200160002060008201518160000160006101000a81548160ff021916908360ff16021790555060208201518160000160016101000a81548167ffffffffffffffff021916908367ffffffffffffffff16021790555060408201518160010155606082015181600201600082015181600001556020820151816001015560408201518160020155606082015181600301556080820151816004015560a08201518160050160008201518160000190816109c59190614d22565b5060208201518160010160006101000a81548173ffffffffffffffffffffffffffffffffffffffff021916908373ffffffffffffffffffffffffffffffffffffffff16021790555060408201518160020160006101000a81548173ffffffffffffffffffffffffffffffffffffffff021916908373ffffffffffffffffffffffffffffffffffffffff16021790555060608201518160020160146101000a81548160ff021916908360ff16021790555060808201518160020160156101000a81548167ffffffffffffffff021916908367ffffffffffffffff16021790555060a08201518160030155505060c08201518160090160006101000a81548160ff02191690831515021790555060e08201518160090160016101000a81548160ff0219169083151502179055506101008201518160090160026101000a81548173ffffffffffffffffffffffffffffffffffffffff021916908373ffffffffffffffffffffffffffffffffffffffff16021790555061012082015181600a019081610b4e9190614d22565b505050608082015181600d0160006101000a81548160ff02191690836002811115610b7c57610b7b6144e7565b5b0217905550905050505050505050565b60075481565b60007f524a5f84ffadde4fe5ca4dc2c5418f05f3c74b161a23be01c17fbc37b6d208f890507f000000000000000000000000000000000000000000000000000000000000000073ffffffffffffffffffffffffffffffffffffffff166321f8a7217f6b50fa17b77d24e42e27a04b69fe50cd6967cfb767d18de0bd5fe7e1a32aa8686040518263ffffffff1660e01b8152600401610c3091906149fe565b602060405180830381865afa158015610c4d573d6000803e3d6000fd5b505050506040513d601f19601f82011682018060405250810190610c719190614a2e565b73ffffffffffffffffffffffffffffffffffffffff166391d1485482336040518363ffffffff1660e01b8152600401610cab929190614df4565b602060405180830381865afa158015610cc8573d6000803e3d6000fd5b505050506040513d601f19601f82011682018060405250810190610cec9190614a70565b610d2d57806040517fc2703cd6000000000000000000000000000000000000000000000000000000008152600401610d2491906149fe565b60405180910390fd5b81600054811115610d6a576040517fabb4594600000000000000000000000000000000000000000000000000000000815260040160405180910390fd5b600280811115610d7d57610d7c6144e7565b5b6004600085815260200190815260200160002060009054906101000a900460ff166002811115610db057610daf6144e7565b5b03610de7576040517f5b114e0500000000000000000000000000000000000000000000000000000000815260040160405180910390fd5b60026004600085815260200190815260200160002060006101000a81548160ff02191690836002811115610e1e57610e1d6144e7565b5b02179055506000600260008581526020019081526020016000205490506000600160008681526020019081526020016000208054610e5b906149be565b80601f0160208091040260200160405190810160405280929190818152602001828054610e87906149be565b8015610ed45780601f10610ea957610100808354040283529160200191610ed4565b820191906000526020600020905b815481529060010190602001808311610eb757829003601f168201915b50505050509050600080610ee78461304e565b955050505060ff16925050600060405180604001604052808681526020018581525090506000610f1682613086565b9050610f21836130b6565b60036000838152602001908152602001600020541015610f6d576040517f5b6b08d700000000000000000000000000000000000000000000000000000000815260040160405180910390fd5b600280811115610f8057610f7f6144e7565b5b84036110bd577f000000000000000000000000000000000000000000000000000000000000000073ffffffffffffffffffffffffffffffffffffffff166321f8a7217fba0b74768b1de73590a53e1384870dcbc846e5c73bab23c07d71eaa7cbf8411b6040518263ffffffff1660e01b8152600401610fff91906149fe565b602060405180830381865afa15801561101c573d6000803e3d6000fd5b505050506040513d601f19601f820116820180604052508101906110409190614a2e565b73ffffffffffffffffffffffffffffffffffffffff166333e30721836040518263ffffffff1660e01b81526004016110789190614e5a565b6020604051808303816000875af1158015611097573d6000803e3d6000fd5b505050506040513d601f19601f820116820180604052508101906110bb9190614e91565b505b505050505050505050565b7f000000000000000000000000000000000000000000000000000000000000000081565b60086020528060005260406000206000915090508060000160009054906101000a900460ff16908060000160019054906101000a900467ffffffffffffffff169080600101549080600201604051806101400160405290816000820154815260200160018201548152602001600282015481526020016003820154815260200160048201548152602001600582016040518060c0016040529081600082018054611195906149be565b80601f01602080910402602001604051908101604052809291908181526020018280546111c1906149be565b801561120e5780601f106111e35761010080835404028352916020019161120e565b820191906000526020600020905b8154815290600101906020018083116111f157829003601f168201915b505050505081526020016001820160009054906101000a900473ffffffffffffffffffffffffffffffffffffffff1673ffffffffffffffffffffffffffffffffffffffff1673ffffffffffffffffffffffffffffffffffffffff1681526020016002820160009054906101000a900473ffffffffffffffffffffffffffffffffffffffff1673ffffffffffffffffffffffffffffffffffffffff1673ffffffffffffffffffffffffffffffffffffffff1681526020016002820160149054906101000a900460ff1660ff1660ff1681526020016002820160159054906101000a900467ffffffffffffffff1667ffffffffffffffff1667ffffffffffffffff16815260200160038201548152505081526020016009820160009054906101000a900460ff161515151581526020016009820160019054906101000a900460ff161515151581526020016009820160029054906101000a900473ffffffffffffffffffffffffffffffffffffffff1673ffffffffffffffffffffffffffffffffffffffff1673ffffffffffffffffffffffffffffffffffffffff168152602001600a820180546113bc906149be565b80601f01602080910402602001604051908101604052809291908181526020018280546113e8906149be565b80156114355780601f1061140a57610100808354040283529160200191611435565b820191906000526020600020905b81548152906001019060200180831161141857829003601f168201915b5050505050815250509080600d0160009054906101000a900460ff16905085565b60046020528060005260406000206000915054906101000a900460ff1681565b61147e613856565b600860008381526020019081526020016000206040518060a00160405290816000820160009054906101000a900460ff1660ff1660ff1681526020016000820160019054906101000a900467ffffffffffffffff1667ffffffffffffffff1667ffffffffffffffff1681526020016001820154815260200160028201604051806101400160405290816000820154815260200160018201548152602001600282015481526020016003820154815260200160048201548152602001600582016040518060c0016040529081600082018054611558906149be565b80601f0160208091040260200160405190810160405280929190818152602001828054611584906149be565b80156115d15780601f106115a6576101008083540402835291602001916115d1565b820191906000526020600020905b8154815290600101906020018083116115b457829003601f168201915b505050505081526020016001820160009054906101000a900473ffffffffffffffffffffffffffffffffffffffff1673ffffffffffffffffffffffffffffffffffffffff1673ffffffffffffffffffffffffffffffffffffffff1681526020016002820160009054906101000a900473ffffffffffffffffffffffffffffffffffffffff1673ffffffffffffffffffffffffffffffffffffffff1673ffffffffffffffffffffffffffffffffffffffff1681526020016002820160149054906101000a900460ff1660ff1660ff1681526020016002820160159054906101000a900467ffffffffffffffff1667ffffffffffffffff1667ffffffffffffffff16815260200160038201548152505081526020016009820160009054906101000a900460ff161515151581526020016009820160019054906101000a900460ff161515151581526020016009820160029054906101000a900473ffffffffffffffffffffffffffffffffffffffff1673ffffffffffffffffffffffffffffffffffffffff1673ffffffffffffffffffffffffffffffffffffffff168152602001600a8201805461177f906149be565b80601f01602080910402602001604051908101604052809291908181526020018280546117ab906149be565b80156117f85780601f106117cd576101008083540402835291602001916117f8565b820191906000526020600020905b8154815290600101906020018083116117db57829003601f168201915b5050505050815250508152602001600d820160009054906101000a900460ff16600281111561182a576118296144e7565b5b600281111561183c5761183b6144e7565b5b815250509050919050565b60007f524a5f84ffadde4fe5ca4dc2c5418f05f3c74b161a23be01c17fbc37b6d208f890507f000000000000000000000000000000000000000000000000000000000000000073ffffffffffffffffffffffffffffffffffffffff166321f8a7217f6b50fa17b77d24e42e27a04b69fe50cd6967cfb767d18de0bd5fe7e1a32aa8686040518263ffffffff1660e01b81526004016118e591906149fe565b602060405180830381865afa158015611902573d6000803e3d6000fd5b505050506040513d601f19601f820116820180604052508101906119269190614a2e565b73ffffffffffffffffffffffffffffffffffffffff166391d1485482336040518363ffffffff1660e01b8152600401611960929190614df4565b602060405180830381865afa15801561197d573d6000803e3d6000fd5b505050506040513d601f19601f820116820180604052508101906119a19190614a70565b6119e257806040517fc2703cd60000000000000000000000000000000000000000000000000000000081526004016119d991906149fe565b60405180910390fd5b600060086000858152602001908152602001600020905060016002811115611a0d57611a0c6144e7565b5b81600d0160009054906101000a900460ff166002811115611a3157611a306144e7565b5b14611a68576040517f8666466500000000000000000000000000000000000000000000000000000000815260040160405180910390fd5b4281600101541115611aa6576040517fa1422f6900000000000000000000000000000000000000000000000000000000815260040160405180910390fd5b60007f000000000000000000000000000000000000000000000000000000000000000073ffffffffffffffffffffffffffffffffffffffff1663e85b2b548360020160050160020160149054906101000a900460ff166040518263ffffffff1660e01b8152600401611b189190614ebe565b602060405180830381865afa158015611b35573d6000803e3d6000fd5b505050506040513d601f19601f82011682018060405250810190611b599190614a2e565b9050600282600d0160006101000a81548160ff02191690836002811115611b8357611b826144e7565b5b02179055506000611b9a8360020160010154612fed565b50509050600081905060008651146120df576000611d5f856002016005016040518060c0016040529081600082018054611bd3906149be565b80601f0160208091040260200160405190810160405280929190818152602001828054611bff906149be565b8015611c4c5780601f10611c2157610100808354040283529160200191611c4c565b820191906000526020600020905b815481529060010190602001808311611c2f57829003601f168201915b505050505081526020016001820160009054906101000a900473ffffffffffffffffffffffffffffffffffffffff1673ffffffffffffffffffffffffffffffffffffffff1673ffffffffffffffffffffffffffffffffffffffff1681526020016002820160009054906101000a900473ffffffffffffffffffffffffffffffffffffffff1673ffffffffffffffffffffffffffffffffffffffff1673ffffffffffffffffffffffffffffffffffffffff1681526020016002820160149054906101000a900460ff1660ff1660ff1681526020016002820160159054906101000a900467ffffffffffffffff1667ffffffffffffffff1667ffffffffffffffff168152602001600382015481525050613159565b8373ffffffffffffffffffffffffffffffffffffffff1663c87439eb6040518061012001604052808a81526020017f000000000000000000000000000000000000000000000000000000000000000067ffffffffffffffff1681526020018860000160019054906101000a900467ffffffffffffffff1667ffffffffffffffff1681526020018860020160050160020160159054906101000a900467ffffffffffffffff1667ffffffffffffffff1681526020016000151581526020018673ffffffffffffffffffffffffffffffffffffffff1681526020018860020160090160029054906101000a900473ffffffffffffffffffffffffffffffffffffffff1673ffffffffffffffffffffffffffffffffffffffff1681526020018573ffffffffffffffffffffffffffffffffffffffff1663b60262ca6040518163ffffffff1660e01b8152600401602060405180830381865afa158015611ec6573d6000803e3d6000fd5b505050506040513d601f19601f82011682018060405250810190611eea9190614a2e565b73ffffffffffffffffffffffffffffffffffffffff168152602001600073ffffffffffffffffffffffffffffffffffffffff168152506040518263ffffffff1660e01b8152600401611f3c9190614f9e565b602060405180830381865afa158015611f59573d6000803e3d6000fd5b505050506040513d601f19601f82011682018060405250810190611f7d9190614a70565b508373ffffffffffffffffffffffffffffffffffffffff16639bbbb5c88860006040518363ffffffff1660e01b8152600401611fba929190614fcf565b602060405180830381865afa158015611fd7573d6000803e3d6000fd5b505050506040513d601f19601f82011682018060405250810190611ffb9190615014565b905061208f818373ffffffffffffffffffffffffffffffffffffffff1663b7ba28cd88600201600201546040518263ffffffff1660e01b81526004016120419190613aa9565b602060405180830381865afa15801561205e573d6000803e3d6000fd5b505050506040513d601f19601f820116820180604052508101906120829190615014565b87600201600401546131d8565b6120c5576040517fb1a0ac5200000000000000000000000000000000000000000000000000000000815260040160405180910390fd5b868560020160050160000190816120dc9190614d22565b50505b8073ffffffffffffffffffffffffffffffffffffffff16638a816a3f856040518263ffffffff1660e01b815260040161211891906154e7565b600060405180830381600087803b15801561213257600080fd5b505af1925050508015612143575060015b6126f15760018460000160009054906101000a900460ff1660ff160361257257600084600201600a018054612177906149be565b80601f01602080910402602001604051908101604052809291908181526020018280546121a3906149be565b80156121f05780601f106121c5576101008083540402835291602001916121f0565b820191906000526020600020905b8154815290600101906020018083116121d357829003601f168201915b50505050508060200190518101906122089190615509565b5090506125708560000160019054906101000a900467ffffffffffffffff166122308361325d565b61256b8860020160090160029054906101000a900473ffffffffffffffffffffffffffffffffffffffff1689600201604051806101400160405290816000820154815260200160018201548152602001600282015481526020016003820154815260200160048201548152602001600582016040518060c00160405290816000820180546122bd906149be565b80601f01602080910402602001604051908101604052809291908181526020018280546122e9906149be565b80156123365780601f1061230b57610100808354040283529160200191612336565b820191906000526020600020905b81548152906001019060200180831161231957829003601f168201915b505050505081526020016001820160009054906101000a900473ffffffffffffffffffffffffffffffffffffffff1673ffffffffffffffffffffffffffffffffffffffff1673ffffffffffffffffffffffffffffffffffffffff1681526020016002820160009054906101000a900473ffffffffffffffffffffffffffffffffffffffff1673ffffffffffffffffffffffffffffffffffffffff1673ffffffffffffffffffffffffffffffffffffffff1681526020016002820160149054906101000a900460ff1660ff1660ff1681526020016002820160159054906101000a900467ffffffffffffffff1667ffffffffffffffff1667ffffffffffffffff16815260200160038201548152505081526020016009820160009054906101000a900460ff161515151581526020016009820160019054906101000a900460ff161515151581526020016009820160029054906101000a900473ffffffffffffffffffffffffffffffffffffffff1673ffffffffffffffffffffffffffffffffffffffff1673ffffffffffffffffffffffffffffffffffffffff168152602001600a820180546124e4906149be565b80601f0160208091040260200160405190810160405280929190818152602001828054612510906149be565b801561255d5780601f106125325761010080835404028352916020019161255d565b820191906000526020600020905b81548152906001019060200180831161254057829003601f168201915b5050505050815250506133a4565b613512565b505b60008460000160009054906101000a900460ff1660ff16036126ec577f000000000000000000000000000000000000000000000000000000000000000073ffffffffffffffffffffffffffffffffffffffff166321f8a7217fba0b74768b1de73590a53e1384870dcbc846e5c73bab23c07d71eaa7cbf8411b6040518263ffffffff1660e01b815260040161260791906149fe565b602060405180830381865afa158015612624573d6000803e3d6000fd5b505050506040513d601f19601f820116820180604052508101906126489190614a2e565b73ffffffffffffffffffffffffffffffffffffffff16638d04e40e8560020160090160029054906101000a900473ffffffffffffffffffffffffffffffffffffffff16866002016001015487600201600201546040518463ffffffff1660e01b81526004016126b993929190615549565b600060405180830381600087803b1580156126d357600080fd5b505af11580156126e7573d6000803e3d6000fd5b505050505b6126f2565b5b60086000888152602001908152602001600020600080820160006101000a81549060ff02191690556000820160016101000a81549067ffffffffffffffff02191690556001820160009055600282016000808201600090556001820160009055600282016000905560038201600090556004820160009055600582016000808201600061277f91906138aa565b6001820160006101000a81549073ffffffffffffffffffffffffffffffffffffffff02191690556002820160006101000a81549073ffffffffffffffffffffffffffffffffffffffff02191690556002820160146101000a81549060ff02191690556002820160156101000a81549067ffffffffffffffff0219169055600382016000905550506009820160006101000a81549060ff02191690556009820160016101000a81549060ff02191690556009820160026101000a81549073ffffffffffffffffffffffffffffffffffffffff0219169055600a8201600061286591906138aa565b5050600d820160006101000a81549060ff0219169055505050505050505050565b7f000000000000000000000000000000000000000000000000000000000000000073ffffffffffffffffffffffffffffffffffffffff16635c504b60336040518263ffffffff1660e01b81526004016128df9190614aac565b602060405180830381865afa1580156128fc573d6000803e3d6000fd5b505050506040513d601f19601f820116820180604052508101906129209190614a70565b612955576040517ee1b7be00000000000000000000000000000000000000000000000000000000815260040160405180910390fd5b60008180602001905181019061296b919061565c565b90506020816020015151036129f0576000816020015180602001905181019061299491906156ba565b905060036000828152602001908152602001600020600081546129b690614b38565b91905081905550807ffeea67837572d96738a25f3ac5fa382a1c601ead52e97fb27a02c6103360c06360405160405180910390a250612af7565b60008081546129fe90614b38565b9190508190555080600001516002600080548152602001908152602001600020819055508060200151806020019051810190612a3a919061577e565b6005600080548152602001908152602001600020600060016000805481526020019081526020016000206000849190509081612a769190614d22565b50839190509080519060200190612a8e9291906138ea565b5050506000547f000000000000000000000000000000000000000000000000000000000000000067ffffffffffffffff168467ffffffffffffffff167f3371afb211a5a616ecaaab76f9466c9295fae2aa4e6dc1ed821b6eb25ee442cf60405160405180910390a45b505050565b60036020528060005260406000206000915090505481565b606060056000838152602001908152602001600020805480602002602001604051908101604052809291908181526020018280548015612b9957602002820191906000526020600020906000905b82829054906101000a900460ff1660ff1681526020019060010190602082600001049283019260010382029150808411612b625790505b50505050509050919050565b600082806020019051810190612bbb919061565c565b905060008551905060008103612bfd576040517f24cb170500000000000000000000000000000000000000000000000000000000815260040160405180910390fd5b612c0685613666565b600182612c1391906157f6565b1015612c4b576040517f5b6b08d700000000000000000000000000000000000000000000000000000000815260040160405180910390fd5b600083806020019051810190612c619190615a56565b9050612c8787600081518110612c7a57612c79615a9f565b5b6020026020010151613709565b73ffffffffffffffffffffffffffffffffffffffff16639783d0ef8260000151600081518110612cba57612cb9615a9f565b5b60200260200101518a896040518060400160405280896000015181526020018d8a60200151604051602001612cf0929190615ace565b604051602081830303815290604052815250604051602001612d129190614e5a565b6040516020818303038152906040528660200151600081518110612d3957612d38615a9f565b5b60200260200101516040518663ffffffff1660e01b8152600401612d609493929190615b05565b6000604051808303818588803b158015612d7957600080fd5b505af1158015612d8d573d6000803e3d6000fd5b50505050506001821115612fe357612da48561371b565b83602001819052506000600190505b828160ff161015612fe15787600081518110612dd257612dd1615a9f565b5b602002602001015160ff16888260ff1681518110612df357612df2615a9f565b5b602002602001015160ff1603612e35576040517f305a522200000000000000000000000000000000000000000000000000000000815260040160405180910390fd5b6000600182612e449190615b58565b60ff1614158015612ea1575087600182612e5e9190615b58565b60ff1681518110612e7257612e71615a9f565b5b602002602001015160ff16888260ff1681518110612e9357612e92615a9f565b5b602002602001015160ff1611155b15612ed8576040517f22aa062d00000000000000000000000000000000000000000000000000000000815260040160405180910390fd5b612efe888260ff1681518110612ef157612ef0615a9f565b5b6020026020010151613709565b73ffffffffffffffffffffffffffffffffffffffff16639783d0ef83600001518360ff1681518110612f3357612f32615a9f565b5b60200260200101518b8a88604051602001612f4e9190614e5a565b60405160208183030381529060405287602001518760ff1681518110612f7757612f76615a9f565b5b60200260200101516040518663ffffffff1660e01b8152600401612f9e9493929190615b05565b6000604051808303818588803b158015612fb757600080fd5b505af1158015612fcb573d6000803e3d6000fd5b505050505080612fda90615b8d565b9050612db3565b505b5050505050505050565b600080600083925060a084901c915060c084901c905060008167ffffffffffffffff1603613047576040517f030042b700000000000000000000000000000000000000000000000000000000815260040160405180910390fd5b9193909250565b600080600080600080869550600887901c9450601087901c9350601887901c9250602087901c915060c087901c905091939550919395565b6000816040516020016130999190614e5a565b604051602081830303815290604052805190602001209050919050565b60007f000000000000000000000000000000000000000000000000000000000000000073ffffffffffffffffffffffffffffffffffffffff16631049a0db836040518263ffffffff1660e01b815260040161311191906142be565b602060405180830381865afa15801561312e573d6000803e3d6000fd5b505050506040513d601f19601f820116820180604052508101906131529190615014565b9050919050565b600073ffffffffffffffffffffffffffffffffffffffff16816020015173ffffffffffffffffffffffffffffffffffffffff16148061319e5750600081600001515114155b156131d5576040517fc57767d000000000000000000000000000000000000000000000000000000000815260040160405180910390fd5b50565b600082841115613214576040517fc8a403d100000000000000000000000000000000000000000000000000000000815260040160405180910390fd5b60006127108361271061322791906157f6565b856132329190615bb6565b61323c9190615c27565b905080851015613250576000915050613256565b60019150505b9392505050565b606060007f000000000000000000000000000000000000000000000000000000000000000073ffffffffffffffffffffffffffffffffffffffff166321f8a7217f55b101fc856aff484166c46ad33bc74831c135693c159b0092bb3b72254ffb6b6040518263ffffffff1660e01b81526004016132da91906149fe565b602060405180830381865afa1580156132f7573d6000803e3d6000fd5b505050506040513d601f19601f8201168201806040525081019061331b9190614a2e565b90508073ffffffffffffffffffffffffffffffffffffffff1663d830364e846040518263ffffffff1660e01b81526004016133569190613aa9565b600060405180830381865afa158015613373573d6000803e3d6000fd5b505050506040513d6000823e3d601f19601f8201168201806040525081019061339c9190615c58565b915050919050565b6060604051806040016040528061349d6001808111156133c7576133c66144e7565b5b6002808111156133da576133d96144e7565b5b60007f000000000000000000000000000000000000000000000000000000000000000073ffffffffffffffffffffffffffffffffffffffff16632f6438ab306040518263ffffffff1660e01b81526004016134359190614aac565b602060405180830381865afa158015613452573d6000803e3d6000fd5b505050506040513d601f19601f820116820180604052508101906134769190614adc565b897f000000000000000000000000000000000000000000000000000000000000000061374b565b81526020016040518060600160405280856000015181526020018560200151815260200185604001518152506040516020016134d99190615ce3565b6040516020818303038152906040528152506040516020016134fb9190614e5a565b604051602081830303815290604052905092915050565b60007f000000000000000000000000000000000000000000000000000000000000000073ffffffffffffffffffffffffffffffffffffffff166321f8a7217fab437a16135e856111e538dc45051dd9c2778c6069d25a22fb9ac4766c356aa16040518263ffffffff1660e01b815260040161358d91906149fe565b602060405180830381865afa1580156135aa573d6000803e3d6000fd5b505050506040513d601f19601f820116820180604052508101906135ce9190614a2e565b73ffffffffffffffffffffffffffffffffffffffff16633283166a8585856040518463ffffffff1660e01b815260040161360a93929190615cfe565b600060405180830381865afa158015613627573d6000803e3d6000fd5b505050506040513d6000823e3d601f19601f820116820180604052508101906136509190615d43565b9150506136603384868585612ba5565b50505050565b60007f000000000000000000000000000000000000000000000000000000000000000073ffffffffffffffffffffffffffffffffffffffff16631049a0db836040518263ffffffff1660e01b81526004016136c191906142be565b602060405180830381865afa1580156136de573d6000803e3d6000fd5b505050506040513d601f19601f820116820180604052508101906137029190615014565b9050919050565b6000613714826137b3565b9050919050565b6060818051906020012060405160200161373591906149fe565b6040516020818303038152906040529050919050565b60008660ff16905060088660ff16901b8117905060108560ff16901b8117905060188460ff16901b8117905060208373ffffffffffffffffffffffffffffffffffffffff16901b8117905060c08267ffffffffffffffff16901b811790509695505050505050565b60007f000000000000000000000000000000000000000000000000000000000000000073ffffffffffffffffffffffffffffffffffffffff16630eff125d836040518263ffffffff1660e01b815260040161380e9190614ebe565b602060405180830381865afa15801561382b573d6000803e3d6000fd5b505050506040513d601f19601f8201168201806040525081019061384f9190614a2e565b9050919050565b6040518060a00160405280600060ff168152602001600067ffffffffffffffff1681526020016000815260200161388b613991565b8152602001600060028111156138a4576138a36144e7565b5b81525090565b5080546138b6906149be565b6000825580601f106138c857506138e7565b601f0160209004906000526020600020908101906138e69190613a04565b5b50565b82805482825590600052602060002090601f016020900481019282156139805791602002820160005b8382111561395157835183826101000a81548160ff021916908360ff1602179055509260200192600101602081600001049283019260010302613913565b801561397e5782816101000a81549060ff0219169055600101602081600001049283019260010302613951565b505b50905061398d9190613a04565b5090565b60405180610140016040528060008152602001600081526020016000815260200160008152602001600081526020016139c8613a21565b8152602001600015158152602001600015158152602001600073ffffffffffffffffffffffffffffffffffffffff168152602001606081525090565b5b80821115613a1d576000816000905550600101613a05565b5090565b6040518060c0016040528060608152602001600073ffffffffffffffffffffffffffffffffffffffff168152602001600073ffffffffffffffffffffffffffffffffffffffff168152602001600060ff168152602001600067ffffffffffffffff168152602001600081525090565b6000819050919050565b613aa381613a90565b82525050565b6000602082019050613abe6000830184613a9a565b92915050565b6000604051905090565b600080fd5b600080fd5b600073ffffffffffffffffffffffffffffffffffffffff82169050919050565b6000613b0382613ad8565b9050919050565b613b1381613af8565b8114613b1e57600080fd5b50565b600081359050613b3081613b0a565b92915050565b600080fd5b6000601f19601f8301169050919050565b7f4e487b7100000000000000000000000000000000000000000000000000000000600052604160045260246000fd5b613b8482613b3b565b810181811067ffffffffffffffff82111715613ba357613ba2613b4c565b5b80604052505050565b6000613bb6613ac4565b9050613bc28282613b7b565b919050565b600067ffffffffffffffff821115613be257613be1613b4c565b5b602082029050602081019050919050565b600080fd5b600060ff82169050919050565b613c0e81613bf8565b8114613c1957600080fd5b50565b600081359050613c2b81613c05565b92915050565b6000613c44613c3f84613bc7565b613bac565b90508083825260208201905060208402830185811115613c6757613c66613bf3565b5b835b81811015613c905780613c7c8882613c1c565b845260208401935050602081019050613c69565b5050509392505050565b600082601f830112613caf57613cae613b36565b5b8135613cbf848260208601613c31565b91505092915050565b600067ffffffffffffffff82169050919050565b613ce581613cc8565b8114613cf057600080fd5b50565b600081359050613d0281613cdc565b92915050565b600080fd5b600067ffffffffffffffff821115613d2857613d27613b4c565b5b613d3182613b3b565b9050602081019050919050565b82818337600083830152505050565b6000613d60613d5b84613d0d565b613bac565b905082815260208101848484011115613d7c57613d7b613d08565b5b613d87848285613d3e565b509392505050565b600082601f830112613da457613da3613b36565b5b8135613db4848260208601613d4d565b91505092915050565b600080600080600060a08688031215613dd957613dd8613ace565b5b6000613de788828901613b21565b955050602086013567ffffffffffffffff811115613e0857613e07613ad3565b5b613e1488828901613c9a565b9450506040613e2588828901613cf3565b935050606086013567ffffffffffffffff811115613e4657613e45613ad3565b5b613e5288828901613d8f565b925050608086013567ffffffffffffffff811115613e7357613e72613ad3565b5b613e7f88828901613d8f565b9150509295509295909350565b6000819050919050565b6000613eb1613eac613ea784613ad8565b613e8c565b613ad8565b9050919050565b6000613ec382613e96565b9050919050565b6000613ed582613eb8565b9050919050565b613ee581613eca565b82525050565b6000602082019050613f006000830184613edc565b92915050565b613f0f81613a90565b8114613f1a57600080fd5b50565b600081359050613f2c81613f06565b92915050565b600060208284031215613f4857613f47613ace565b5b6000613f5684828501613f1d565b91505092915050565b600081519050919050565b600082825260208201905092915050565b60005b83811015613f99578082015181840152602081019050613f7e565b60008484015250505050565b6000613fb082613f5f565b613fba8185613f6a565b9350613fca818560208601613f7b565b613fd381613b3b565b840191505092915050565b60006020820190508181036000830152613ff88184613fa5565b905092915050565b600080fd5b600080fd5b600060c082840312156140205761401f614000565b5b61402a60c0613bac565b9050600082013567ffffffffffffffff81111561404a57614049614005565b5b61405684828501613d8f565b600083015250602061406a84828501613b21565b602083015250604061407e84828501613b21565b604083015250606061409284828501613c1c565b60608301525060806140a684828501613cf3565b60808301525060a06140ba84828501613f1d565b60a08301525092915050565b60008115159050919050565b6140db816140c6565b81146140e657600080fd5b50565b6000813590506140f8816140d2565b92915050565b6000610140828403121561411557614114614000565b5b614120610140613bac565b9050600061413084828501613f1d565b600083015250602061414484828501613f1d565b602083015250604061415884828501613f1d565b604083015250606061416c84828501613f1d565b606083015250608061418084828501613f1d565b60808301525060a082013567ffffffffffffffff8111156141a4576141a3614005565b5b6141b08482850161400a565b60a08301525060c06141c4848285016140e9565b60c08301525060e06141d8848285016140e9565b60e0830152506101006141ed84828501613b21565b6101008301525061012082013567ffffffffffffffff81111561421357614212614005565b5b61421f84828501613d8f565b6101208301525092915050565b6000806000806080858703121561424657614245613ace565b5b600061425487828801613c1c565b945050602061426587828801613cf3565b935050604061427687828801613f1d565b925050606085013567ffffffffffffffff81111561429757614296613ad3565b5b6142a3878288016140fe565b91505092959194509250565b6142b881613cc8565b82525050565b60006020820190506142d360008301846142af565b92915050565b6142e281613bf8565b82525050565b6142f181613a90565b82525050565b600082825260208201905092915050565b600061431382613f5f565b61431d81856142f7565b935061432d818560208601613f7b565b61433681613b3b565b840191505092915050565b61434a81613af8565b82525050565b61435981613bf8565b82525050565b61436881613cc8565b82525050565b600060c083016000830151848203600086015261438b8282614308565b91505060208301516143a06020860182614341565b5060408301516143b36040860182614341565b5060608301516143c66060860182614350565b5060808301516143d9608086018261435f565b5060a08301516143ec60a08601826142e8565b508091505092915050565b614400816140c6565b82525050565b60006101408301600083015161441f60008601826142e8565b50602083015161443260208601826142e8565b50604083015161444560408601826142e8565b50606083015161445860608601826142e8565b50608083015161446b60808601826142e8565b5060a083015184820360a0860152614483828261436e565b91505060c083015161449860c08601826143f7565b5060e08301516144ab60e08601826143f7565b506101008301516144c0610100860182614341565b506101208301518482036101208601526144da8282614308565b9150508091505092915050565b7f4e487b7100000000000000000000000000000000000000000000000000000000600052602160045260246000fd5b60038110614527576145266144e7565b5b50565b600081905061453882614516565b919050565b60006145488261452a565b9050919050565b6145588161453d565b82525050565b600060a08201905061457360008301886142d9565b61458060208301876142af565b61458d6040830186613a9a565b818103606083015261459f8185614406565b90506145ae608083018461454f565b9695505050505050565b600381106145c9576145c86144e7565b5b50565b60008190506145da826145b8565b919050565b60006145ea826145cc565b9050919050565b6145fa816145df565b82525050565b600060208201905061461560008301846145f1565b92915050565b60006101408301600083015161463460008601826142e8565b50602083015161464760208601826142e8565b50604083015161465a60408601826142e8565b50606083015161466d60608601826142e8565b50608083015161468060808601826142e8565b5060a083015184820360a0860152614698828261436e565b91505060c08301516146ad60c08601826143f7565b5060e08301516146c060e08601826143f7565b506101008301516146d5610100860182614341565b506101208301518482036101208601526146ef8282614308565b9150508091505092915050565b6147058161453d565b82525050565b600060a0830160008301516147236000860182614350565b506020830151614736602086018261435f565b50604083015161474960408601826142e8565b5060608301518482036060860152614761828261461b565b915050608083015161477660808601826146fc565b508091505092915050565b6000602082019050818103600083015261479b818461470b565b905092915050565b600080604083850312156147ba576147b9613ace565b5b60006147c885828601613f1d565b925050602083013567ffffffffffffffff8111156147e9576147e8613ad3565b5b6147f585828601613d8f565b9150509250929050565b6000806040838503121561481657614815613ace565b5b600061482485828601613cf3565b925050602083013567ffffffffffffffff81111561484557614844613ad3565b5b61485185828601613d8f565b9150509250929050565b6000819050919050565b61486e8161485b565b811461487957600080fd5b50565b60008135905061488b81614865565b92915050565b6000602082840312156148a7576148a6613ace565b5b60006148b58482850161487c565b91505092915050565b600081519050919050565b600082825260208201905092915050565b6000819050602082019050919050565b60006148f68383614350565b60208301905092915050565b6000602082019050919050565b600061491a826148be565b61492481856148c9565b935061492f836148da565b8060005b8381101561496057815161494788826148ea565b975061495283614902565b925050600181019050614933565b5085935050505092915050565b60006020820190508181036000830152614987818461490f565b905092915050565b7f4e487b7100000000000000000000000000000000000000000000000000000000600052602260045260246000fd5b600060028204905060018216806149d657607f821691505b6020821081036149e9576149e861498f565b5b50919050565b6149f88161485b565b82525050565b6000602082019050614a1360008301846149ef565b92915050565b600081519050614a2881613b0a565b92915050565b600060208284031215614a4457614a43613ace565b5b6000614a5284828501614a19565b91505092915050565b600081519050614a6a816140d2565b92915050565b600060208284031215614a8657614a85613ace565b5b6000614a9484828501614a5b565b91505092915050565b614aa681613af8565b82525050565b6000602082019050614ac16000830184614a9d565b92915050565b600081519050614ad681613c05565b92915050565b600060208284031215614af257614af1613ace565b5b6000614b0084828501614ac7565b91505092915050565b7f4e487b7100000000000000000000000000000000000000000000000000000000600052601160045260246000fd5b6000614b4382613a90565b91507fffffffffffffffffffffffffffffffffffffffffffffffffffffffffffffffff8203614b7557614b74614b09565b5b600182019050919050565b60008190508160005260206000209050919050565b60006020601f8301049050919050565b600082821b905092915050565b600060088302614be27fffffffffffffffffffffffffffffffffffffffffffffffffffffffffffffffff82614ba5565b614bec8683614ba5565b95508019841693508086168417925050509392505050565b6000614c1f614c1a614c1584613a90565b613e8c565b613a90565b9050919050565b6000819050919050565b614c3983614c04565b614c4d614c4582614c26565b848454614bb2565b825550505050565b600090565b614c62614c55565b614c6d818484614c30565b505050565b5b81811015614c9157614c86600082614c5a565b600181019050614c73565b5050565b601f821115614cd657614ca781614b80565b614cb084614b95565b81016020851015614cbf578190505b614cd3614ccb85614b95565b830182614c72565b50505b505050565b600082821c905092915050565b6000614cf960001984600802614cdb565b1980831691505092915050565b6000614d128383614ce8565b9150826002028217905092915050565b614d2b82613f5f565b67ffffffffffffffff811115614d4457614d43613b4c565b5b614d4e82546149be565b614d59828285614c95565b600060209050601f831160018114614d8c5760008415614d7a578287015190505b614d848582614d06565b865550614dec565b601f198416614d9a86614b80565b60005b82811015614dc257848901518255600182019150602085019450602081019050614d9d565b86831015614ddf5784890151614ddb601f891682614ce8565b8355505b6001600288020188555050505b505050505050565b6000604082019050614e0960008301856149ef565b614e166020830184614a9d565b9392505050565b6000604083016000830151614e3560008601826142e8565b5060208301518482036020860152614e4d8282614308565b9150508091505092915050565b60006020820190508181036000830152614e748184614e1d565b905092915050565b600081519050614e8b81613cdc565b92915050565b600060208284031215614ea757614ea6613ace565b5b6000614eb584828501614e7c565b91505092915050565b6000602082019050614ed360008301846142d9565b92915050565b6000610120830160008301518482036000860152614ef78282614308565b9150506020830151614f0c602086018261435f565b506040830151614f1f604086018261435f565b506060830151614f32606086018261435f565b506080830151614f4560808601826143f7565b5060a0830151614f5860a0860182614341565b5060c0830151614f6b60c0860182614341565b5060e0830151614f7e60e0860182614341565b50610100830151614f93610100860182614341565b508091505092915050565b60006020820190508181036000830152614fb88184614ed9565b905092915050565b614fc9816140c6565b82525050565b60006040820190508181036000830152614fe98185613fa5565b9050614ff86020830184614fc0565b9392505050565b60008151905061500e81613f06565b92915050565b60006020828403121561502a57615029613ace565b5b600061503884828501614fff565b91505092915050565b60008160001c9050919050565b600060ff82169050919050565b600061506e61506983615041565b61504e565b9050919050565b60008160081c9050919050565b600067ffffffffffffffff82169050919050565b60006150a96150a483615075565b615082565b9050919050565b6000819050919050565b60006150cd6150c883615041565b6150b0565b9050919050565b600081546150e1816149be565b6150eb81866142f7565b94506001821660008114615106576001811461511c5761514f565b60ff19831686528115156020028601935061514f565b61512585614b80565b60005b8381101561514757815481890152600182019150602081019050615128565b808801955050505b50505092915050565b600073ffffffffffffffffffffffffffffffffffffffff82169050919050565b600061518b61518683615041565b615158565b9050919050565b60008160a01c9050919050565b60006151b26151ad83615192565b61504e565b9050919050565b60008160a81c9050919050565b60006151d96151d4836151b9565b615082565b9050919050565b600060c08301600080840185830360008701526151fd83826150d4565b9250506001840154905061521081615178565b61521d6020870182614341565b506002840154905061522e81615178565b61523b6040870182614341565b506152458161519f565b6152526060870182614350565b5061525c816151c6565b615269608087018261435f565b506003840154905061527a816150ba565b61528760a08701826142e8565b50819250505092915050565b600060ff82169050919050565b60006152b36152ae83615041565b615293565b9050919050565b60006152cd6152c883615075565b615293565b9050919050565b60008160101c9050919050565b60006152f46152ef836152d4565b615158565b9050919050565b600061014083016000808401549050615313816150ba565b61532060008701826142e8565b5060018401549050615331816150ba565b61533e60208701826142e8565b506002840154905061534f816150ba565b61535c60408701826142e8565b506003840154905061536d816150ba565b61537a60608701826142e8565b506004840154905061538b816150ba565b61539860808701826142e8565b506005840185830360a08701526153af83826151e0565b925050600984015490506153c2816152a0565b6153cf60c08701826143f7565b506153d9816152ba565b6153e660e08701826143f7565b506153f0816152e1565b6153fe610100870182614341565b50600a840185830361012087015261541683826150d4565b925050819250505092915050565b600060ff82169050919050565b600061544461543f83615041565b615424565b9050919050565b600060a0830160008084015490506154628161505b565b61546f6000870182614350565b5061547981615096565b615486602087018261435f565b5060018401549050615497816150ba565b6154a460408701826142e8565b506002840185830360608701526154bb83826152fb565b925050600d84015490506154ce81615431565b6154db60808701826146fc565b50819250505092915050565b60006020820190508181036000830152615501818461544b565b905092915050565b600080604083850312156155205761551f613ace565b5b600061552e85828601614fff565b925050602061553f85828601614fff565b9150509250929050565b600060608201905061555e6000830186614a9d565b61556b6020830185613a9a565b6155786040830184613a9a565b949350505050565b600061559361558e84613d0d565b613bac565b9050828152602081018484840111156155af576155ae613d08565b5b6155ba848285613f7b565b509392505050565b600082601f8301126155d7576155d6613b36565b5b81516155e7848260208601615580565b91505092915050565b60006040828403121561560657615605614000565b5b6156106040613bac565b9050600061562084828501614fff565b600083015250602082015167ffffffffffffffff81111561564457615643614005565b5b615650848285016155c2565b60208301525092915050565b60006020828403121561567257615671613ace565b5b600082015167ffffffffffffffff8111156156905761568f613ad3565b5b61569c848285016155f0565b91505092915050565b6000815190506156b481614865565b92915050565b6000602082840312156156d0576156cf613ace565b5b60006156de848285016156a5565b91505092915050565b60006156fa6156f584613bc7565b613bac565b9050808382526020820190506020840283018581111561571d5761571c613bf3565b5b835b8181101561574657806157328882614ac7565b84526020840193505060208101905061571f565b5050509392505050565b600082601f83011261576557615764613b36565b5b81516157758482602086016156e7565b91505092915050565b6000806040838503121561579557615794613ace565b5b600083015167ffffffffffffffff8111156157b3576157b2613ad3565b5b6157bf85828601615750565b925050602083015167ffffffffffffffff8111156157e0576157df613ad3565b5b6157ec858286016155c2565b9150509250929050565b600061580182613a90565b915061580c83613a90565b925082820390508181111561582457615823614b09565b5b92915050565b600067ffffffffffffffff82111561584557615844613b4c565b5b602082029050602081019050919050565b60006158696158648461582a565b613bac565b9050808382526020820190506020840283018581111561588c5761588b613bf3565b5b835b818110156158b557806158a18882614fff565b84526020840193505060208101905061588e565b5050509392505050565b600082601f8301126158d4576158d3613b36565b5b81516158e4848260208601615856565b91505092915050565b600067ffffffffffffffff82111561590857615907613b4c565b5b602082029050602081019050919050565b600061592c615927846158ed565b613bac565b9050808382526020820190506020840283018581111561594f5761594e613bf3565b5b835b8181101561599657805167ffffffffffffffff81111561597457615973613b36565b5b80860161598189826155c2565b85526020850194505050602081019050615951565b5050509392505050565b600082601f8301126159b5576159b4613b36565b5b81516159c5848260208601615919565b91505092915050565b6000604082840312156159e4576159e3614000565b5b6159ee6040613bac565b9050600082015167ffffffffffffffff811115615a0e57615a0d614005565b5b615a1a848285016158bf565b600083015250602082015167ffffffffffffffff811115615a3e57615a3d614005565b5b615a4a848285016159a0565b60208301525092915050565b600060208284031215615a6c57615a6b613ace565b5b600082015167ffffffffffffffff811115615a8a57615a89613ad3565b5b615a96848285016159ce565b91505092915050565b7f4e487b7100000000000000000000000000000000000000000000000000000000600052603260045260246000fd5b60006040820190508181036000830152615ae8818561490f565b90508181036020830152615afc8184613fa5565b90509392505050565b6000608082019050615b1a6000830187614a9d565b615b2760208301866142af565b8181036040830152615b398185613fa5565b90508181036060830152615b4d8184613fa5565b905095945050505050565b6000615b6382613bf8565b9150615b6e83613bf8565b9250828203905060ff811115615b8757615b86614b09565b5b92915050565b6000615b9882613bf8565b915060ff8203615bab57615baa614b09565b5b600182019050919050565b6000615bc182613a90565b9150615bcc83613a90565b9250828202615bda81613a90565b91508282048414831517615bf157615bf0614b09565b5b5092915050565b7f4e487b7100000000000000000000000000000000000000000000000000000000600052601260045260246000fd5b6000615c3282613a90565b9150615c3d83613a90565b925082615c4d57615c4c615bf8565b5b828204905092915050565b600060208284031215615c6e57615c6d613ace565b5b600082015167ffffffffffffffff811115615c8c57615c8b613ad3565b5b615c9884828501615750565b91505092915050565b606082016000820151615cb760008501826142e8565b506020820151615cca60208501826142e8565b506040820151615cdd60408501826142e8565b50505050565b6000606082019050615cf86000830184615ca1565b92915050565b6000606082019050615d1360008301866142af565b8181036020830152615d25818561490f565b90508181036040830152615d398184613fa5565b9050949350505050565b60008060408385031215615d5a57615d59613ace565b5b6000615d6885828601614fff565b925050602083015167ffffffffffffffff811115615d8957615d88613ad3565b5b615d95858286016155c2565b915050925092905056fea2646970667358221220554cfc9ad063f7a05ffc1785b9596b49a61878bf749e24417e3d0d5aba2839f064736f6c63430008170033","linkReferences":{}},"methodIdentifiers":{"CHAIN_ID()":"85e1f4d0","dispatchPayload(address,uint8[],uint64,bytes,bytes)":"23de31e1","finalizePayload(uint256,bytes)":"c8e00b54","getMessageAMB(uint256)":"d830364e","getTimelockPayload(uint256)":"b89e17f8","messageQuorum(bytes32)":"d4961606","payloadBody(uint256)":"361ad42b","payloadHeader(uint256)":"36445ffd","payloadTracking(uint256)":"b63d36a5","payloadsCount()":"13c02a59","processPayload(uint256)":"5aef9480","receivePayload(uint64,bytes)":"cc2d8abd","receivePayload(uint8,uint64,uint256,(uint256,uint256,uint256,uint256,uint256,(bytes,address,address,uint8,uint64,uint256),bool,bool,address,bytes))":"38a4ad64","superRegistry()":"24c73dda","timelockPayload(uint256)":"a47130af","timelockPayloadCounter()":"3e9e645e"},"id":125}