{"abi":[{"type":"constructor","inputs":[],"stateMutability":"nonpayable"},{"type":"function","name":"approve","inputs":[{"name":"to","type":"address","internalType":"address"},{"name":"tokenId","type":"uint256","internalType":"uint256"}],"outputs":[],"stateMutability":"nonpayable"},{"type":"function","name":"balanceOf","inputs":[{"name":"owner","type":"address","internalType":"address"}],"outputs":[{"name":"","type":"uint256","internalType":"uint256"}],"stateMutability":"view"},{"type":"function","name":"getApproved","inputs":[{"name":"tokenId","type":"uint256","internalType":"uint256"}],"outputs":[{"name":"","type":"address","internalType":"address"}],"stateMutability":"view"},{"type":"function","name":"hasValidToken","inputs":[{"name":"_addr","type":"address","internalType":"address"}],"outputs":[{"name":"","type":"bool","internalType":"bool"}],"stateMutability":"view"},{"type":"function","name":"isApprovedForAll","inputs":[{"name":"owner","type":"address","internalType":"address"},{"name":"operator","type":"address","internalType":"address"}],"outputs":[{"name":"","type":"bool","internalType":"bool"}],"stateMutability":"view"},{"type":"function","name":"mint","inputs":[{"name":"owner","type":"address","internalType":"address"}],"outputs":[{"name":"","type":"uint256","internalType":"uint256"}],"stateMutability":"nonpayable"},{"type":"function","name":"mintWithCode","inputs":[{"name":"","type":"uint32","internalType":"uint32"}],"outputs":[{"name":"","type":"uint256","internalType":"uint256"}],"stateMutability":"nonpayable"},{"type":"function","name":"name","inputs":[],"outputs":[{"name":"","type":"string","internalType":"string"}],"stateMutability":"view"},{"type":"function","name":"ownerOf","inputs":[{"name":"tokenId","type":"uint256","internalType":"uint256"}],"outputs":[{"name":"","type":"address","internalType":"address"}],"stateMutability":"view"},{"type":"function","name":"safeTransferFrom","inputs":[{"name":"from","type":"address","internalType":"address"},{"name":"to","type":"address","internalType":"address"},{"name":"tokenId","type":"uint256","internalType":"uint256"}],"outputs":[],"stateMutability":"nonpayable"},{"type":"function","name":"safeTransferFrom","inputs":[{"name":"from","type":"address","internalType":"address"},{"name":"to","type":"address","internalType":"address"},{"name":"tokenId","type":"uint256","internalType":"uint256"},{"name":"data","type":"bytes","internalType":"bytes"}],"outputs":[],"stateMutability":"nonpayable"},{"type":"function","name":"setApprovalForAll","inputs":[{"name":"operator","type":"address","internalType":"address"},{"name":"approved","type":"bool","internalType":"bool"}],"outputs":[],"stateMutability":"nonpayable"},{"type":"function","name":"supportsInterface","inputs":[{"name":"interfaceId","type":"bytes4","internalType":"bytes4"}],"outputs":[{"name":"","type":"bool","internalType":"bool"}],"stateMutability":"view"},{"type":"function","name":"symbol","inputs":[],"outputs":[{"name":"","type":"string","internalType":"string"}],"stateMutability":"view"},{"type":"function","name":"tokenURI","inputs":[{"name":"tokenId","type":"uint256","internalType":"uint256"}],"outputs":[{"name":"","type":"string","internalType":"string"}],"stateMutability":"view"},{"type":"function","name":"transferFrom","inputs":[{"name":"from","type":"address","internalType":"address"},{"name":"to","type":"address","internalType":"address"},{"name":"tokenId","type":"uint256","internalType":"uint256"}],"outputs":[],"stateMutability":"nonpayable"},{"type":"event","name":"Approval","inputs":[{"name":"owner","type":"address","indexed":true,"internalType":"address"},{"name":"approved","type":"address","indexed":true,"internalType":"address"},{"name":"tokenId","type":"uint256","indexed":true,"internalType":"uint256"}],"anonymous":false},{"type":"event","name":"ApprovalForAll","inputs":[{"name":"owner","type":"address","indexed":true,"internalType":"address"},{"name":"operator","type":"address","indexed":true,"internalType":"address"},{"name":"approved","type":"bool","indexed":false,"internalType":"bool"}],"anonymous":false},{"type":"event","name":"Transfer","inputs":[{"name":"from","type":"address","indexed":true,"internalType":"address"},{"name":"to","type":"address","indexed":true,"internalType":"address"},{"name":"tokenId","type":"uint256","indexed":true,"internalType":"uint256"}],"anonymous":false},{"type":"error","name":"ERC721IncorrectOwner","inputs":[{"name":"sender","type":"address","internalType":"address"},{"name":"tokenId","type":"uint256","internalType":"uint256"},{"name":"owner","type":"address","internalType":"address"}]},{"type":"error","name":"ERC721InsufficientApproval","inputs":[{"name":"operator","type":"address","internalType":"address"},{"name":"tokenId","type":"uint256","internalType":"uint256"}]},{"type":"error","name":"ERC721InvalidApprover","inputs":[{"name":"approver","type":"address","internalType":"address"}]},{"type":"error","name":"ERC721InvalidOperator","inputs":[{"name":"operator","type":"address","internalType":"address"}]},{"type":"error","name":"ERC721InvalidOwner","inputs":[{"name":"owner","type":"address","internalType":"address"}]},{"type":"error","name":"ERC721InvalidReceiver","inputs":[{"name":"receiver","type":"address","internalType":"address"}]},{"type":"error","name":"ERC721InvalidSender","inputs":[{"name":"sender","type":"address","internalType":"address"}]},{"type":"error","name":"ERC721NonexistentToken","inputs":[{"name":"tokenId","type":"uint256","internalType":"uint256"}]}],"bytecode":{"object":"0x60806040523480156200001157600080fd5b506040518060400160405280600981526020017f4b594344616f4e465400000000000000000000000000000000000000000000008152506040518060400160405280600981526020017f4b594344616f4e4654000000000000000000000000000000000000000000000081525081600090816200008f919062000324565b508060019081620000a1919062000324565b5050506200040b565b600081519050919050565b7f4e487b7100000000000000000000000000000000000000000000000000000000600052604160045260246000fd5b7f4e487b7100000000000000000000000000000000000000000000000000000000600052602260045260246000fd5b600060028204905060018216806200012c57607f821691505b602082108103620001425762000141620000e4565b5b50919050565b60008190508160005260206000209050919050565b60006020601f8301049050919050565b600082821b905092915050565b600060088302620001ac7fffffffffffffffffffffffffffffffffffffffffffffffffffffffffffffffff826200016d565b620001b886836200016d565b95508019841693508086168417925050509392505050565b6000819050919050565b6000819050919050565b600062000205620001ff620001f984620001d0565b620001da565b620001d0565b9050919050565b6000819050919050565b6200022183620001e4565b6200023962000230826200020c565b8484546200017a565b825550505050565b600090565b6200025062000241565b6200025d81848462000216565b505050565b5b8181101562000285576200027960008262000246565b60018101905062000263565b5050565b601f821115620002d4576200029e8162000148565b620002a9846200015d565b81016020851015620002b9578190505b620002d1620002c8856200015d565b83018262000262565b50505b505050565b600082821c905092915050565b6000620002f960001984600802620002d9565b1980831691505092915050565b6000620003148383620002e6565b9150826002028217905092915050565b6200032f82620000aa565b67ffffffffffffffff8111156200034b576200034a620000b5565b5b62000357825462000113565b6200036482828562000289565b600060209050601f8311600181146200039c576000841562000387578287015190505b62000393858262000306565b86555062000403565b601f198416620003ac8662000148565b60005b82811015620003d657848901518255600182019150602085019450602081019050620003af565b86831015620003f65784890151620003f2601f891682620002e6565b8355505b6001600288020188555050505b505050505050565b611f9e806200041b6000396000f3fe608060405234801561001057600080fd5b50600436106101005760003560e01c806370a0823111610097578063a22cb46511610066578063a22cb465146102e5578063b88d4fde14610301578063c87b56dd1461031d578063e985e9c51461034d57610100565b806370a082311461023757806371bff8e41461026757806395d89b41146102975780639d267630146102b557610100565b806323b872dd116100d357806323b872dd1461019f57806342842e0e146101bb5780636352211e146101d75780636a6278421461020757610100565b806301ffc9a71461010557806306fdde0314610135578063081812fc14610153578063095ea7b314610183575b600080fd5b61011f600480360381019061011a9190611708565b61037d565b60405161012c9190611750565b60405180910390f35b61013d61045f565b60405161014a91906117fb565b60405180910390f35b61016d60048036038101906101689190611853565b6104f1565b60405161017a91906118c1565b60405180910390f35b61019d60048036038101906101989190611908565b61050d565b005b6101b960048036038101906101b49190611948565b610523565b005b6101d560048036038101906101d09190611948565b610625565b005b6101f160048036038101906101ec9190611853565b610645565b6040516101fe91906118c1565b60405180910390f35b610221600480360381019061021c919061199b565b610657565b60405161022e91906119d7565b60405180910390f35b610251600480360381019061024c919061199b565b610685565b60405161025e91906119d7565b60405180910390f35b610281600480360381019061027c9190611a2e565b61073f565b60405161028e91906119d7565b60405180910390f35b61029f61076d565b6040516102ac91906117fb565b60405180910390f35b6102cf60048036038101906102ca919061199b565b6107ff565b6040516102dc9190611750565b60405180910390f35b6102ff60048036038101906102fa9190611a87565b61082b565b005b61031b60048036038101906103169190611bfc565b610841565b005b61033760048036038101906103329190611853565b61085e565b60405161034491906117fb565b60405180910390f35b61036760048036038101906103629190611c7f565b6108c7565b6040516103749190611750565b60405180910390f35b60007f80ac58cd000000000000000000000000000000000000000000000000000000007bffffffffffffffffffffffffffffffffffffffffffffffffffffffff1916827bffffffffffffffffffffffffffffffffffffffffffffffffffffffff1916148061044857507f5b5e139f000000000000000000000000000000000000000000000000000000007bffffffffffffffffffffffffffffffffffffffffffffffffffffffff1916827bffffffffffffffffffffffffffffffffffffffffffffffffffffffff1916145b8061045857506104578261095b565b5b9050919050565b60606000805461046e90611cee565b80601f016020809104026020016040519081016040528092919081815260200182805461049a90611cee565b80156104e75780601f106104bc576101008083540402835291602001916104e7565b820191906000526020600020905b8154815290600101906020018083116104ca57829003601f168201915b5050505050905090565b60006104fc826109c5565b5061050682610a4d565b9050919050565b61051f828261051a610a8a565b610a92565b5050565b600073ffffffffffffffffffffffffffffffffffffffff168273ffffffffffffffffffffffffffffffffffffffff16036105955760006040517f64a0ae9200000000000000000000000000000000000000000000000000000000815260040161058c91906118c1565b60405180910390fd5b60006105a983836105a4610a8a565b610aa4565b90508373ffffffffffffffffffffffffffffffffffffffff168173ffffffffffffffffffffffffffffffffffffffff161461061f578382826040517f64283d7b00000000000000000000000000000000000000000000000000000000815260040161061693929190611d1f565b60405180910390fd5b50505050565b61064083838360405180602001604052806000815250610841565b505050565b6000610650826109c5565b9050919050565b600060066000815461066890611d85565b9190508190555061067b82600654610cbe565b6006549050919050565b60008073ffffffffffffffffffffffffffffffffffffffff168273ffffffffffffffffffffffffffffffffffffffff16036106f85760006040517f89c62b640000000000000000000000000000000000000000000000000000000081526004016106ef91906118c1565b60405180910390fd5b600360008373ffffffffffffffffffffffffffffffffffffffff1673ffffffffffffffffffffffffffffffffffffffff168152602001908152602001600020549050919050565b600060066000815461075090611d85565b9190508190555061076333600654610cbe565b6006549050919050565b60606001805461077c90611cee565b80601f01602080910402602001604051908101604052809291908181526020018280546107a890611cee565b80156107f55780601f106107ca576101008083540402835291602001916107f5565b820191906000526020600020905b8154815290600101906020018083116107d857829003601f168201915b5050505050905090565b60008061080b83610685565b90506000811115610820576001915050610826565b60009150505b919050565b61083d610836610a8a565b8383610db7565b5050565b61084c848484610523565b61085884848484610f26565b50505050565b6060610869826109c5565b5060006108746110dd565b9050600081511161089457604051806020016040528060008152506108bf565b8061089e846110f4565b6040516020016108af929190611e09565b6040516020818303038152906040525b915050919050565b6000600560008473ffffffffffffffffffffffffffffffffffffffff1673ffffffffffffffffffffffffffffffffffffffff16815260200190815260200160002060008373ffffffffffffffffffffffffffffffffffffffff1673ffffffffffffffffffffffffffffffffffffffff16815260200190815260200160002060009054906101000a900460ff16905092915050565b60007f01ffc9a7000000000000000000000000000000000000000000000000000000007bffffffffffffffffffffffffffffffffffffffffffffffffffffffff1916827bffffffffffffffffffffffffffffffffffffffffffffffffffffffff1916149050919050565b6000806109d1836111c2565b9050600073ffffffffffffffffffffffffffffffffffffffff168173ffffffffffffffffffffffffffffffffffffffff1603610a4457826040517f7e273289000000000000000000000000000000000000000000000000000000008152600401610a3b91906119d7565b60405180910390fd5b80915050919050565b60006004600083815260200190815260200160002060009054906101000a900473ffffffffffffffffffffffffffffffffffffffff169050919050565b600033905090565b610a9f83838360016111ff565b505050565b600080610ab0846111c2565b9050600073ffffffffffffffffffffffffffffffffffffffff168373ffffffffffffffffffffffffffffffffffffffff1614610af257610af18184866113c4565b5b600073ffffffffffffffffffffffffffffffffffffffff168173ffffffffffffffffffffffffffffffffffffffff1614610b8357610b346000856000806111ff565b6001600360008373ffffffffffffffffffffffffffffffffffffffff1673ffffffffffffffffffffffffffffffffffffffff168152602001908152602001600020600082825403925050819055505b600073ffffffffffffffffffffffffffffffffffffffff168573ffffffffffffffffffffffffffffffffffffffff1614610c06576001600360008773ffffffffffffffffffffffffffffffffffffffff1673ffffffffffffffffffffffffffffffffffffffff168152602001908152602001600020600082825401925050819055505b846002600086815260200190815260200160002060006101000a81548173ffffffffffffffffffffffffffffffffffffffff021916908373ffffffffffffffffffffffffffffffffffffffff160217905550838573ffffffffffffffffffffffffffffffffffffffff168273ffffffffffffffffffffffffffffffffffffffff167fddf252ad1be2c89b69c2b068fc378daa952ba7f163c4a11628f55a4df523b3ef60405160405180910390a4809150509392505050565b600073ffffffffffffffffffffffffffffffffffffffff168273ffffffffffffffffffffffffffffffffffffffff1603610d305760006040517f64a0ae92000000000000000000000000000000000000000000000000000000008152600401610d2791906118c1565b60405180910390fd5b6000610d3e83836000610aa4565b9050600073ffffffffffffffffffffffffffffffffffffffff168173ffffffffffffffffffffffffffffffffffffffff1614610db25760006040517f73c6ac6e000000000000000000000000000000000000000000000000000000008152600401610da991906118c1565b60405180910390fd5b505050565b600073ffffffffffffffffffffffffffffffffffffffff168273ffffffffffffffffffffffffffffffffffffffff1603610e2857816040517f5b08ba18000000000000000000000000000000000000000000000000000000008152600401610e1f91906118c1565b60405180910390fd5b80600560008573ffffffffffffffffffffffffffffffffffffffff1673ffffffffffffffffffffffffffffffffffffffff16815260200190815260200160002060008473ffffffffffffffffffffffffffffffffffffffff1673ffffffffffffffffffffffffffffffffffffffff16815260200190815260200160002060006101000a81548160ff0219169083151502179055508173ffffffffffffffffffffffffffffffffffffffff168373ffffffffffffffffffffffffffffffffffffffff167f17307eab39ab6107e8899845ad3d59bd9653f200f220920489ca2b5937696c3183604051610f199190611750565b60405180910390a3505050565b60008373ffffffffffffffffffffffffffffffffffffffff163b11156110d7578273ffffffffffffffffffffffffffffffffffffffff1663150b7a02610f6a610a8a565b8685856040518563ffffffff1660e01b8152600401610f8c9493929190611e82565b6020604051808303816000875af1925050508015610fc857506040513d601f19601f82011682018060405250810190610fc59190611ee3565b60015b61104c573d8060008114610ff8576040519150601f19603f3d011682016040523d82523d6000602084013e610ffd565b606091505b50600081510361104457836040517f64a0ae9200000000000000000000000000000000000000000000000000000000815260040161103b91906118c1565b60405180910390fd5b805181602001fd5b63150b7a0260e01b7bffffffffffffffffffffffffffffffffffffffffffffffffffffffff1916817bffffffffffffffffffffffffffffffffffffffffffffffffffffffff1916146110d557836040517f64a0ae920000000000000000000000000000000000000000000000000000000081526004016110cc91906118c1565b60405180910390fd5b505b50505050565b606060405180602001604052806000815250905090565b60606000600161110384611488565b01905060008167ffffffffffffffff81111561112257611121611ad1565b5b6040519080825280601f01601f1916602001820160405280156111545781602001600182028036833780820191505090505b509050600082602001820190505b6001156111b7578080600190039150507f3031323334353637383961626364656600000000000000000000000000000000600a86061a8153600a85816111ab576111aa611f10565b5b04945060008503611162575b819350505050919050565b60006002600083815260200190815260200160002060009054906101000a900473ffffffffffffffffffffffffffffffffffffffff169050919050565b80806112385750600073ffffffffffffffffffffffffffffffffffffffff168273ffffffffffffffffffffffffffffffffffffffff1614155b1561136c576000611248846109c5565b9050600073ffffffffffffffffffffffffffffffffffffffff168373ffffffffffffffffffffffffffffffffffffffff16141580156112b357508273ffffffffffffffffffffffffffffffffffffffff168173ffffffffffffffffffffffffffffffffffffffff1614155b80156112c657506112c481846108c7565b155b1561130857826040517fa9fbf51f0000000000000000000000000000000000000000000000000000000081526004016112ff91906118c1565b60405180910390fd5b811561136a57838573ffffffffffffffffffffffffffffffffffffffff168273ffffffffffffffffffffffffffffffffffffffff167f8c5be1e5ebec7d5bd14f71427d1e84f3dd0314c0f7b2291e5b200ac8c7c3b92560405160405180910390a45b505b836004600085815260200190815260200160002060006101000a81548173ffffffffffffffffffffffffffffffffffffffff021916908373ffffffffffffffffffffffffffffffffffffffff16021790555050505050565b6113cf8383836115db565b61148357600073ffffffffffffffffffffffffffffffffffffffff168373ffffffffffffffffffffffffffffffffffffffff160361144457806040517f7e27328900000000000000000000000000000000000000000000000000000000815260040161143b91906119d7565b60405180910390fd5b81816040517f177e802f00000000000000000000000000000000000000000000000000000000815260040161147a929190611f3f565b60405180910390fd5b505050565b600080600090507a184f03e93ff9f4daa797ed6e38ed64bf6a1f01000000000000000083106114e6577a184f03e93ff9f4daa797ed6e38ed64bf6a1f01000000000000000083816114dc576114db611f10565b5b0492506040810190505b6d04ee2d6d415b85acef81000000008310611523576d04ee2d6d415b85acef8100000000838161151957611518611f10565b5b0492506020810190505b662386f26fc10000831061155257662386f26fc10000838161154857611547611f10565b5b0492506010810190505b6305f5e100831061157b576305f5e100838161157157611570611f10565b5b0492506008810190505b61271083106115a057612710838161159657611595611f10565b5b0492506004810190505b606483106115c357606483816115b9576115b8611f10565b5b0492506002810190505b600a83106115d2576001810190505b80915050919050565b60008073ffffffffffffffffffffffffffffffffffffffff168373ffffffffffffffffffffffffffffffffffffffff161415801561169357508273ffffffffffffffffffffffffffffffffffffffff168473ffffffffffffffffffffffffffffffffffffffff161480611654575061165384846108c7565b5b8061169257508273ffffffffffffffffffffffffffffffffffffffff1661167a83610a4d565b73ffffffffffffffffffffffffffffffffffffffff16145b5b90509392505050565b6000604051905090565b600080fd5b600080fd5b60007fffffffff0000000000000000000000000000000000000000000000000000000082169050919050565b6116e5816116b0565b81146116f057600080fd5b50565b600081359050611702816116dc565b92915050565b60006020828403121561171e5761171d6116a6565b5b600061172c848285016116f3565b91505092915050565b60008115159050919050565b61174a81611735565b82525050565b60006020820190506117656000830184611741565b92915050565b600081519050919050565b600082825260208201905092915050565b60005b838110156117a557808201518184015260208101905061178a565b60008484015250505050565b6000601f19601f8301169050919050565b60006117cd8261176b565b6117d78185611776565b93506117e7818560208601611787565b6117f0816117b1565b840191505092915050565b6000602082019050818103600083015261181581846117c2565b905092915050565b6000819050919050565b6118308161181d565b811461183b57600080fd5b50565b60008135905061184d81611827565b92915050565b600060208284031215611869576118686116a6565b5b60006118778482850161183e565b91505092915050565b600073ffffffffffffffffffffffffffffffffffffffff82169050919050565b60006118ab82611880565b9050919050565b6118bb816118a0565b82525050565b60006020820190506118d660008301846118b2565b92915050565b6118e5816118a0565b81146118f057600080fd5b50565b600081359050611902816118dc565b92915050565b6000806040838503121561191f5761191e6116a6565b5b600061192d858286016118f3565b925050602061193e8582860161183e565b9150509250929050565b600080600060608486031215611961576119606116a6565b5b600061196f868287016118f3565b9350506020611980868287016118f3565b92505060406119918682870161183e565b9150509250925092565b6000602082840312156119b1576119b06116a6565b5b60006119bf848285016118f3565b91505092915050565b6119d18161181d565b82525050565b60006020820190506119ec60008301846119c8565b92915050565b600063ffffffff82169050919050565b611a0b816119f2565b8114611a1657600080fd5b50565b600081359050611a2881611a02565b92915050565b600060208284031215611a4457611a436116a6565b5b6000611a5284828501611a19565b91505092915050565b611a6481611735565b8114611a6f57600080fd5b50565b600081359050611a8181611a5b565b92915050565b60008060408385031215611a9e57611a9d6116a6565b5b6000611aac858286016118f3565b9250506020611abd85828601611a72565b9150509250929050565b600080fd5b600080fd5b7f4e487b7100000000000000000000000000000000000000000000000000000000600052604160045260246000fd5b611b09826117b1565b810181811067ffffffffffffffff82111715611b2857611b27611ad1565b5b80604052505050565b6000611b3b61169c565b9050611b478282611b00565b919050565b600067ffffffffffffffff821115611b6757611b66611ad1565b5b611b70826117b1565b9050602081019050919050565b82818337600083830152505050565b6000611b9f611b9a84611b4c565b611b31565b905082815260208101848484011115611bbb57611bba611acc565b5b611bc6848285611b7d565b509392505050565b600082601f830112611be357611be2611ac7565b5b8135611bf3848260208601611b8c565b91505092915050565b60008060008060808587031215611c1657611c156116a6565b5b6000611c24878288016118f3565b9450506020611c35878288016118f3565b9350506040611c468782880161183e565b925050606085013567ffffffffffffffff811115611c6757611c666116ab565b5b611c7387828801611bce565b91505092959194509250565b60008060408385031215611c9657611c956116a6565b5b6000611ca4858286016118f3565b9250506020611cb5858286016118f3565b9150509250929050565b7f4e487b7100000000000000000000000000000000000000000000000000000000600052602260045260246000fd5b60006002820490506001821680611d0657607f821691505b602082108103611d1957611d18611cbf565b5b50919050565b6000606082019050611d3460008301866118b2565b611d4160208301856119c8565b611d4e60408301846118b2565b949350505050565b7f4e487b7100000000000000000000000000000000000000000000000000000000600052601160045260246000fd5b6000611d908261181d565b91507fffffffffffffffffffffffffffffffffffffffffffffffffffffffffffffffff8203611dc257611dc1611d56565b5b600182019050919050565b600081905092915050565b6000611de38261176b565b611ded8185611dcd565b9350611dfd818560208601611787565b80840191505092915050565b6000611e158285611dd8565b9150611e218284611dd8565b91508190509392505050565b600081519050919050565b600082825260208201905092915050565b6000611e5482611e2d565b611e5e8185611e38565b9350611e6e818560208601611787565b611e77816117b1565b840191505092915050565b6000608082019050611e9760008301876118b2565b611ea460208301866118b2565b611eb160408301856119c8565b8181036060830152611ec38184611e49565b905095945050505050565b600081519050611edd816116dc565b92915050565b600060208284031215611ef957611ef86116a6565b5b6000611f0784828501611ece565b91505092915050565b7f4e487b7100000000000000000000000000000000000000000000000000000000600052601260045260246000fd5b6000604082019050611f5460008301856118b2565b611f6160208301846119c8565b939250505056fea2646970667358221220ce9b00a5c3c01d744d5485bcfba17f8e663039c32551b9642854494dacac79d064736f6c63430008170033","linkReferences":{}},"methodIdentifiers":{"approve(address,uint256)":"095ea7b3","balanceOf(address)":"70a08231","getApproved(uint256)":"081812fc","hasValidToken(address)":"9d267630","isApprovedForAll(address,address)":"e985e9c5","mint(address)":"6a627842","mintWithCode(uint32)":"71bff8e4","name()":"06fdde03","ownerOf(uint256)":"6352211e","safeTransferFrom(address,address,uint256)":"42842e0e","safeTransferFrom(address,address,uint256,bytes)":"b88d4fde","setApprovalForAll(address,bool)":"a22cb465","supportsInterface(bytes4)":"01ffc9a7","symbol()":"95d89b41","tokenURI(uint256)":"c87b56dd","transferFrom(address,address,uint256)":"23b872dd"},"id":328}