{"abi":[{"type":"constructor","inputs":[{"name":"superRBAC_","type":"address","internalType":"address"}],"stateMutability":"nonpayable"},{"type":"function","name":"BROADCAST_REGISTRY","inputs":[],"outputs":[{"name":"","type":"bytes32","internalType":"bytes32"}],"stateMutability":"view"},{"type":"function","name":"BROADCAST_REGISTRY_PROCESSOR","inputs":[],"outputs":[{"name":"","type":"bytes32","internalType":"bytes32"}],"stateMutability":"view"},{"type":"function","name":"CHAIN_ID","inputs":[],"outputs":[{"name":"","type":"uint64","internalType":"uint64"}],"stateMutability":"view"},{"type":"function","name":"CORE_REGISTRY_DISPUTER","inputs":[],"outputs":[{"name":"","type":"bytes32","internalType":"bytes32"}],"stateMutability":"view"},{"type":"function","name":"CORE_REGISTRY_PROCESSOR","inputs":[],"outputs":[{"name":"","type":"bytes32","internalType":"bytes32"}],"stateMutability":"view"},{"type":"function","name":"CORE_REGISTRY_RESCUER","inputs":[],"outputs":[{"name":"","type":"bytes32","internalType":"bytes32"}],"stateMutability":"view"},{"type":"function","name":"CORE_REGISTRY_UPDATER","inputs":[],"outputs":[{"name":"","type":"bytes32","internalType":"bytes32"}],"stateMutability":"view"},{"type":"function","name":"CORE_STATE_REGISTRY","inputs":[],"outputs":[{"name":"","type":"bytes32","internalType":"bytes32"}],"stateMutability":"view"},{"type":"function","name":"DST_SWAPPER","inputs":[],"outputs":[{"name":"","type":"bytes32","internalType":"bytes32"}],"stateMutability":"view"},{"type":"function","name":"DST_SWAPPER_PROCESSOR","inputs":[],"outputs":[{"name":"","type":"bytes32","internalType":"bytes32"}],"stateMutability":"view"},{"type":"function","name":"EMERGENCY_QUEUE","inputs":[],"outputs":[{"name":"","type":"bytes32","internalType":"bytes32"}],"stateMutability":"view"},{"type":"function","name":"PAYLOAD_HELPER","inputs":[],"outputs":[{"name":"","type":"bytes32","internalType":"bytes32"}],"stateMutability":"view"},{"type":"function","name":"PAYMASTER","inputs":[],"outputs":[{"name":"","type":"bytes32","internalType":"bytes32"}],"stateMutability":"view"},{"type":"function","name":"PAYMENT_ADMIN","inputs":[],"outputs":[{"name":"","type":"bytes32","internalType":"bytes32"}],"stateMutability":"view"},{"type":"function","name":"PAYMENT_HELPER","inputs":[],"outputs":[{"name":"","type":"bytes32","internalType":"bytes32"}],"stateMutability":"view"},{"type":"function","name":"PERMIT2","inputs":[],"outputs":[{"name":"","type":"address","internalType":"address"}],"stateMutability":"view"},{"type":"function","name":"SUPERFORM_FACTORY","inputs":[],"outputs":[{"name":"","type":"bytes32","internalType":"bytes32"}],"stateMutability":"view"},{"type":"function","name":"SUPERFORM_RECEIVER","inputs":[],"outputs":[{"name":"","type":"bytes32","internalType":"bytes32"}],"stateMutability":"view"},{"type":"function","name":"SUPERFORM_ROUTER","inputs":[],"outputs":[{"name":"","type":"bytes32","internalType":"bytes32"}],"stateMutability":"view"},{"type":"function","name":"SUPER_POSITIONS","inputs":[],"outputs":[{"name":"","type":"bytes32","internalType":"bytes32"}],"stateMutability":"view"},{"type":"function","name":"SUPER_RBAC","inputs":[],"outputs":[{"name":"","type":"bytes32","internalType":"bytes32"}],"stateMutability":"view"},{"type":"function","name":"TIMELOCK_REGISTRY_PROCESSOR","inputs":[],"outputs":[{"name":"","type":"bytes32","internalType":"bytes32"}],"stateMutability":"view"},{"type":"function","name":"TIMELOCK_STATE_REGISTRY","inputs":[],"outputs":[{"name":"","type":"bytes32","internalType":"bytes32"}],"stateMutability":"view"},{"type":"function","name":"ambAddresses","inputs":[{"name":"ambId","type":"uint8","internalType":"uint8"}],"outputs":[{"name":"ambAddresses","type":"address","internalType":"address"}],"stateMutability":"view"},{"type":"function","name":"ambIds","inputs":[{"name":"ambAddress","type":"address","internalType":"address"}],"outputs":[{"name":"ambId","type":"uint8","internalType":"uint8"}],"stateMutability":"view"},{"type":"function","name":"batchSetAddress","inputs":[{"name":"ids_","type":"bytes32[]","internalType":"bytes32[]"},{"name":"newAddresses_","type":"address[]","internalType":"address[]"},{"name":"chainIds_","type":"uint64[]","internalType":"uint64[]"}],"outputs":[],"stateMutability":"nonpayable"},{"type":"function","name":"bridgeAddresses","inputs":[{"name":"bridgeId","type":"uint8","internalType":"uint8"}],"outputs":[{"name":"bridgeAddress","type":"address","internalType":"address"}],"stateMutability":"view"},{"type":"function","name":"bridgeValidator","inputs":[{"name":"bridgeId","type":"uint8","internalType":"uint8"}],"outputs":[{"name":"bridgeValidator","type":"address","internalType":"address"}],"stateMutability":"view"},{"type":"function","name":"delay","inputs":[],"outputs":[{"name":"","type":"uint256","internalType":"uint256"}],"stateMutability":"view"},{"type":"function","name":"getAddress","inputs":[{"name":"id_","type":"bytes32","internalType":"bytes32"}],"outputs":[{"name":"addr","type":"address","internalType":"address"}],"stateMutability":"view"},{"type":"function","name":"getAddressByChainId","inputs":[{"name":"id_","type":"bytes32","internalType":"bytes32"},{"name":"chainId_","type":"uint64","internalType":"uint64"}],"outputs":[{"name":"addr","type":"address","internalType":"address"}],"stateMutability":"view"},{"type":"function","name":"getAmbAddress","inputs":[{"name":"ambId_","type":"uint8","internalType":"uint8"}],"outputs":[{"name":"ambAddress_","type":"address","internalType":"address"}],"stateMutability":"view"},{"type":"function","name":"getAmbId","inputs":[{"name":"ambAddress_","type":"address","internalType":"address"}],"outputs":[{"name":"ambId_","type":"uint8","internalType":"uint8"}],"stateMutability":"view"},{"type":"function","name":"getBridgeAddress","inputs":[{"name":"bridgeId_","type":"uint8","internalType":"uint8"}],"outputs":[{"name":"bridgeAddress_","type":"address","internalType":"address"}],"stateMutability":"view"},{"type":"function","name":"getBridgeValidator","inputs":[{"name":"bridgeId_","type":"uint8","internalType":"uint8"}],"outputs":[{"name":"bridgeValidator_","type":"address","internalType":"address"}],"stateMutability":"view"},{"type":"function","name":"getRequiredMessagingQuorum","inputs":[{"name":"srcChainId_","type":"uint64","internalType":"uint64"}],"outputs":[{"name":"quorum_","type":"uint256","internalType":"uint256"}],"stateMutability":"view"},{"type":"function","name":"getStateRegistry","inputs":[{"name":"registryId_","type":"uint8","internalType":"uint8"}],"outputs":[{"name":"registryAddress_","type":"address","internalType":"address"}],"stateMutability":"view"},{"type":"function","name":"getStateRegistryId","inputs":[{"name":"registryAddress_","type":"address","internalType":"address"}],"outputs":[{"name":"registryId_","type":"uint8","internalType":"uint8"}],"stateMutability":"view"},{"type":"function","name":"getVaultLimitPerDestination","inputs":[{"name":"chainId_","type":"uint64","internalType":"uint64"}],"outputs":[{"name":"vaultLimitPerDestination_","type":"uint256","internalType":"uint256"}],"stateMutability":"view"},{"type":"function","name":"isBroadcastAMB","inputs":[{"name":"ambId","type":"uint8","internalType":"uint8"}],"outputs":[{"name":"isBroadcastAMB","type":"bool","internalType":"bool"}],"stateMutability":"view"},{"type":"function","name":"isValidAmbImpl","inputs":[{"name":"ambAddress_","type":"address","internalType":"address"}],"outputs":[{"name":"valid_","type":"bool","internalType":"bool"}],"stateMutability":"view"},{"type":"function","name":"isValidBroadcastAmbImpl","inputs":[{"name":"ambAddress_","type":"address","internalType":"address"}],"outputs":[{"name":"valid_","type":"bool","internalType":"bool"}],"stateMutability":"view"},{"type":"function","name":"isValidStateRegistry","inputs":[{"name":"registryAddress_","type":"address","internalType":"address"}],"outputs":[{"name":"valid_","type":"bool","internalType":"bool"}],"stateMutability":"view"},{"type":"function","name":"registryAddresses","inputs":[{"name":"registryId","type":"uint8","internalType":"uint8"}],"outputs":[{"name":"registryAddress","type":"address","internalType":"address"}],"stateMutability":"view"},{"type":"function","name":"setAddress","inputs":[{"name":"id_","type":"bytes32","internalType":"bytes32"},{"name":"newAddress_","type":"address","internalType":"address"},{"name":"chainId_","type":"uint64","internalType":"uint64"}],"outputs":[],"stateMutability":"nonpayable"},{"type":"function","name":"setAmbAddress","inputs":[{"name":"ambId_","type":"uint8[]","internalType":"uint8[]"},{"name":"ambAddress_","type":"address[]","internalType":"address[]"},{"name":"isBroadcastAMB_","type":"bool[]","internalType":"bool[]"}],"outputs":[],"stateMutability":"nonpayable"},{"type":"function","name":"setBridgeAddresses","inputs":[{"name":"bridgeId_","type":"uint8[]","internalType":"uint8[]"},{"name":"bridgeAddress_","type":"address[]","internalType":"address[]"},{"name":"bridgeValidator_","type":"address[]","internalType":"address[]"}],"outputs":[],"stateMutability":"nonpayable"},{"type":"function","name":"setDelay","inputs":[{"name":"delay_","type":"uint256","internalType":"uint256"}],"outputs":[],"stateMutability":"nonpayable"},{"type":"function","name":"setPermit2","inputs":[{"name":"permit2_","type":"address","internalType":"address"}],"outputs":[],"stateMutability":"nonpayable"},{"type":"function","name":"setRequiredMessagingQuorum","inputs":[{"name":"srcChainId_","type":"uint64","internalType":"uint64"},{"name":"quorum_","type":"uint256","internalType":"uint256"}],"outputs":[],"stateMutability":"nonpayable"},{"type":"function","name":"setStateRegistryAddress","inputs":[{"name":"registryId_","type":"uint8[]","internalType":"uint8[]"},{"name":"registryAddress_","type":"address[]","internalType":"address[]"}],"outputs":[],"stateMutability":"nonpayable"},{"type":"function","name":"setVaultLimitPerDestination","inputs":[{"name":"chainId_","type":"uint64","internalType":"uint64"},{"name":"vaultLimit_","type":"uint256","internalType":"uint256"}],"outputs":[],"stateMutability":"nonpayable"},{"type":"function","name":"stateRegistryIds","inputs":[{"name":"registryAddress","type":"address","internalType":"address"}],"outputs":[{"name":"registryId","type":"uint8","internalType":"uint8"}],"stateMutability":"view"},{"type":"function","name":"vaultLimitPerDestination","inputs":[{"name":"chainId","type":"uint64","internalType":"uint64"}],"outputs":[{"name":"vaultLimitPerDestination","type":"uint256","internalType":"uint256"}],"stateMutability":"view"},{"type":"event","name":"AddressUpdated","inputs":[{"name":"protocolAddressId","type":"bytes32","indexed":true,"internalType":"bytes32"},{"name":"chainId","type":"uint64","indexed":true,"internalType":"uint64"},{"name":"oldAddress","type":"address","indexed":true,"internalType":"address"},{"name":"newAddress","type":"address","indexed":false,"internalType":"address"}],"anonymous":false},{"type":"event","name":"QuorumSet","inputs":[{"name":"srcChainId","type":"uint64","indexed":true,"internalType":"uint64"},{"name":"quorum","type":"uint256","indexed":true,"internalType":"uint256"}],"anonymous":false},{"type":"event","name":"SetAmbAddress","inputs":[{"name":"ambId_","type":"uint8","indexed":true,"internalType":"uint8"},{"name":"ambAddress_","type":"address","indexed":true,"internalType":"address"},{"name":"isBroadcastAMB_","type":"bool","indexed":true,"internalType":"bool"}],"anonymous":false},{"type":"event","name":"SetBridgeAddress","inputs":[{"name":"bridgeId","type":"uint256","indexed":true,"internalType":"uint256"},{"name":"bridgeAddress","type":"address","indexed":true,"internalType":"address"}],"anonymous":false},{"type":"event","name":"SetBridgeValidator","inputs":[{"name":"bridgeId","type":"uint256","indexed":true,"internalType":"uint256"},{"name":"bridgeValidator","type":"address","indexed":true,"internalType":"address"}],"anonymous":false},{"type":"event","name":"SetDelay","inputs":[{"name":"oldDelay_","type":"uint256","indexed":true,"internalType":"uint256"},{"name":"newDelay_","type":"uint256","indexed":true,"internalType":"uint256"}],"anonymous":false},{"type":"event","name":"SetPermit2","inputs":[{"name":"permit2","type":"address","indexed":true,"internalType":"address"}],"anonymous":false},{"type":"event","name":"SetStateRegistryAddress","inputs":[{"name":"registryId_","type":"uint8","indexed":true,"internalType":"uint8"},{"name":"registryAddress_","type":"address","indexed":true,"internalType":"address"}],"anonymous":false},{"type":"event","name":"SetVaultLimitPerDestination","inputs":[{"name":"chainId_","type":"uint64","indexed":true,"internalType":"uint64"},{"name":"vaultLimit_","type":"uint256","indexed":true,"internalType":"uint256"}],"anonymous":false},{"type":"error","name":"ARRAY_LENGTH_MISMATCH","inputs":[]},{"type":"error","name":"BLOCK_CHAIN_ID_OUT_OF_BOUNDS","inputs":[]},{"type":"error","name":"DISABLED","inputs":[]},{"type":"error","name":"INVALID_CHAIN_ID","inputs":[]},{"type":"error","name":"INVALID_REGISTRY_ID","inputs":[]},{"type":"error","name":"INVALID_TIMELOCK_DELAY","inputs":[]},{"type":"error","name":"NOT_EMERGENCY_ADMIN","inputs":[]},{"type":"error","name":"NOT_PROTOCOL_ADMIN","inputs":[]},{"type":"error","name":"ZERO_ADDRESS","inputs":[]},{"type":"error","name":"ZERO_INPUT_VALUE","inputs":[]}],"bytecode":{"object":"0x60a06040523480156200001157600080fd5b50604051620042c2380380620042c2833981810160405281019062000037919062000288565b600073ffffffffffffffffffffffffffffffffffffffff168173ffffffffffffffffffffffffffffffffffffffff16036200009e576040517f538ba4f900000000000000000000000000000000000000000000000000000000815260040160405180910390fd5b67ffffffffffffffff8016461115620000e3576040517f7ecdf93300000000000000000000000000000000000000000000000000000000815260040160405180910390fd5b4667ffffffffffffffff1660808167ffffffffffffffff168152505080600360007f6b50fa17b77d24e42e27a04b69fe50cd6967cfb767d18de0bd5fe7e1a32aa8688152602001908152602001600020600060805167ffffffffffffffff1667ffffffffffffffff16815260200190815260200160002060006101000a81548173ffffffffffffffffffffffffffffffffffffffff021916908373ffffffffffffffffffffffffffffffffffffffff160217905550600073ffffffffffffffffffffffffffffffffffffffff1660805167ffffffffffffffff167f6b50fa17b77d24e42e27a04b69fe50cd6967cfb767d18de0bd5fe7e1a32aa8687f9450a795106333047f326e0baa22a46587348e9d54f911fb0b0555457053f59b846040516200020f9190620002cb565b60405180910390a450620002e8565b600080fd5b600073ffffffffffffffffffffffffffffffffffffffff82169050919050565b6000620002508262000223565b9050919050565b620002628162000243565b81146200026e57600080fd5b50565b600081519050620002828162000257565b92915050565b600060208284031215620002a157620002a06200021e565b5b6000620002b18482850162000271565b91505092915050565b620002c58162000243565b82525050565b6000602082019050620002e26000830184620002ba565b92915050565b608051613f786200034a60003960008181610b9c01528181610ea0015281816111b20152818161134b01528181611a8f01528181611eda01528181611f7b015281816125750152818161288101528181612c020152612eaf0152613f786000f3fe608060405234801561001057600080fd5b50600436106103405760003560e01c80638878b4e3116101b8578063c3d699d711610104578063dfcf829b116100a2578063e85b2b541161007c578063e85b2b5414610a55578063edad76aa14610a85578063eeaf54aa14610aa1578063f7c677e414610ad157610340565b8063dfcf829b146109d9578063e177246e14610a09578063e744b10f14610a2557610340565b8063caac9a8e116100de578063caac9a8e1461093f578063cc2deb0e1461095b578063d0e504e71461098b578063dd93465a146109bb57610340565b8063c3d699d7146108d3578063c4a55621146108f1578063ca7adffb1461090f57610340565b80639d62a6ed11610171578063bbe557b91161014b578063bbe557b91461084b578063bd8b96ee14610869578063be580cf414610887578063bffc1e13146108a357610340565b80639d62a6ed146107f1578063a6e3fad51461080f578063bbadb52b1461082d57610340565b80638878b4e31461072d5780638a54adf71461074b5780638d3366541461076957806395fdab87146107855780639914e6f8146107b55780639a5988fa146107d357610340565b806334cbf15511610292578063695b5dfb116102305780637f2454861161020a5780637f245486146106a557806382c78fb8146106d55780638375cb92146106f357806385e1f4d01461070f57610340565b8063695b5dfb1461064b5780636a42b8f8146106695780636afdd8501461068757610340565b806357203ab41161026c57806357203ab4146105af5780635c504b60146105df57806360cfb8e11461060f578063650c39421461062d57610340565b806334cbf1551461054357806341965eee1461057357806346cea3fb1461059157610340565b80630df46b4b116102ff5780631049a0db116102d95780631049a0db1461049757806321f8a721146104c75780632f6438ab146104f757806331949bb31461052757610340565b80630df46b4b1461041b5780630eff125d1461044b578063101ec30a1461047b57610340565b806266f83514610345578062ea382114610375578063024ba9aa146103a5578063040b14da146103c35780630896ea2a146103df57806308aa5538146103fd575b600080fd5b61035f600480360381019061035a91906134a4565b610b01565b60405161036c91906134ed565b60405180910390f35b61038f600480360381019061038a91906134a4565b610b21565b60405161039c91906134ed565b60405180910390f35b6103ad610b41565b6040516103ba9190613521565b60405180910390f35b6103dd60048036038101906103d891906135b2565b610b65565b005b6103e7610d58565b6040516103f49190613521565b60405180910390f35b610405610d7c565b6040516104129190613521565b60405180910390f35b6104356004803603810190610430919061361e565b610da0565b6040516104429190613666565b60405180910390f35b6104656004803603810190610460919061361e565b610dc0565b6040516104729190613690565b60405180910390f35b610495600480360381019061049091906134a4565b610e69565b005b6104b160048036038101906104ac91906136ab565b611126565b6040516104be91906136e7565b60405180910390f35b6104e160048036038101906104dc919061372e565b611199565b6040516104ee9190613690565b60405180910390f35b610511600480360381019061050c91906134a4565b611281565b60405161051e91906134ed565b60405180910390f35b610541600480360381019061053c9190613977565b611314565b005b61055d6004803603810190610558919061361e565b611731565b60405161056a9190613690565b60405180910390f35b61057b611764565b6040516105889190613521565b60405180910390f35b610599611788565b6040516105a69190613521565b60405180910390f35b6105c960048036038101906105c4919061361e565b6117ac565b6040516105d69190613690565b60405180910390f35b6105f960048036038101906105f491906134a4565b611855565b6040516106069190613666565b60405180910390f35b6106176118f9565b6040516106249190613521565b60405180910390f35b61063561191d565b6040516106429190613521565b60405180910390f35b610653611941565b6040516106609190613521565b60405180910390f35b610671611965565b60405161067e91906136e7565b60405180910390f35b61068f61196b565b60405161069c9190613690565b60405180910390f35b6106bf60048036038101906106ba91906136ab565b611a1c565b6040516106cc91906136e7565b60405180910390f35b6106dd611a34565b6040516106ea9190613521565b60405180910390f35b61070d60048036038101906107089190613ade565b611a58565b005b610717611ed8565b6040516107249190613b94565b60405180910390f35b610735611efc565b6040516107429190613521565b60405180910390f35b610753611f20565b6040516107609190613521565b60405180910390f35b610783600480360381019061077e9190613baf565b611f44565b005b61079f600480360381019061079a91906134a4565b61239f565b6040516107ac9190613666565b60405180910390f35b6107bd612442565b6040516107ca9190613521565b60405180910390f35b6107db612466565b6040516107e89190613521565b60405180910390f35b6107f961248a565b6040516108069190613521565b60405180910390f35b6108176124ae565b6040516108249190613521565b60405180910390f35b6108356124d2565b6040516108429190613521565b60405180910390f35b6108536124f6565b6040516108609190613521565b60405180910390f35b61087161251a565b60405161087e9190613521565b60405180910390f35b6108a1600480360381019061089c91906135b2565b61253e565b005b6108bd60048036038101906108b891906136ab565b612728565b6040516108ca91906136e7565b60405180910390f35b6108db612759565b6040516108e89190613521565b60405180910390f35b6108f961277d565b6040516109069190613521565b60405180910390f35b6109296004803603810190610924919061361e565b6127a1565b6040516109369190613690565b60405180910390f35b61095960048036038101906109549190613d09565b61284a565b005b6109756004803603810190610970919061361e565b612a78565b6040516109829190613690565b60405180910390f35b6109a560048036038101906109a0919061361e565b612aab565b6040516109b29190613690565b60405180910390f35b6109c3612ade565b6040516109d09190613521565b60405180910390f35b6109f360048036038101906109ee9190613dbd565b612b02565b604051610a009190613690565b60405180910390f35b610a236004803603810190610a1e9190613dfd565b612bcb565b005b610a3f6004803603810190610a3a919061361e565b612d9c565b604051610a4c9190613690565b60405180910390f35b610a6f6004803603810190610a6a919061361e565b612dcf565b604051610a7c9190613690565b60405180910390f35b610a9f6004803603810190610a9a9190613e2a565b612e78565b005b610abb6004803603810190610ab691906134a4565b613371565b604051610ac89190613666565b60405180910390f35b610aeb6004803603810190610ae691906134a4565b6133dc565b604051610af891906134ed565b60405180910390f35b600b6020528060005260406000206000915054906101000a900460ff1681565b600a6020528060005260406000206000915054906101000a900460ff1681565b7f6b50fa17b77d24e42e27a04b69fe50cd6967cfb767d18de0bd5fe7e1a32aa86881565b600360007f6b50fa17b77d24e42e27a04b69fe50cd6967cfb767d18de0bd5fe7e1a32aa868815260200190815260200160002060007f000000000000000000000000000000000000000000000000000000000000000067ffffffffffffffff1667ffffffffffffffff16815260200190815260200160002060009054906101000a900473ffffffffffffffffffffffffffffffffffffffff1673ffffffffffffffffffffffffffffffffffffffff1663d35911f2336040518263ffffffff1660e01b8152600401610c369190613690565b602060405180830381865afa158015610c53573d6000803e3d6000fd5b505050506040513d601f19601f82011682018060405250810190610c779190613ee6565b610cad576040517fdc85555400000000000000000000000000000000000000000000000000000000815260040160405180910390fd5b60008267ffffffffffffffff1603610cf1576040517f030042b700000000000000000000000000000000000000000000000000000000815260040160405180910390fd5b806000808467ffffffffffffffff1667ffffffffffffffff16815260200190815260200160002081905550808267ffffffffffffffff167fabae4d82bb818a013d43a67ec942d1509bc94f6dcf79e659142c388077d54eb460405160405180910390a35050565b7f816be8d6eaff6d180ca78a92019c22ceea9b16b75ba6ef9ec600304a9b6cdad781565b7fab437a16135e856111e538dc45051dd9c2778c6069d25a22fb9ac4766c356aa181565b60076020528060005260406000206000915054906101000a900460ff1681565b6000600660008360ff1660ff16815260200190815260200160002060009054906101000a900473ffffffffffffffffffffffffffffffffffffffff169050600073ffffffffffffffffffffffffffffffffffffffff168173ffffffffffffffffffffffffffffffffffffffff1603610e64576040517f538ba4f900000000000000000000000000000000000000000000000000000000815260040160405180910390fd5b919050565b600360007f6b50fa17b77d24e42e27a04b69fe50cd6967cfb767d18de0bd5fe7e1a32aa868815260200190815260200160002060007f000000000000000000000000000000000000000000000000000000000000000067ffffffffffffffff1667ffffffffffffffff16815260200190815260200160002060009054906101000a900473ffffffffffffffffffffffffffffffffffffffff1673ffffffffffffffffffffffffffffffffffffffff1663d35911f2336040518263ffffffff1660e01b8152600401610f3a9190613690565b602060405180830381865afa158015610f57573d6000803e3d6000fd5b505050506040513d601f19601f82011682018060405250810190610f7b9190613ee6565b610fb1576040517fdc85555400000000000000000000000000000000000000000000000000000000815260040160405180910390fd5b600073ffffffffffffffffffffffffffffffffffffffff16600160009054906101000a900473ffffffffffffffffffffffffffffffffffffffff1673ffffffffffffffffffffffffffffffffffffffff1614611039576040517facb7899800000000000000000000000000000000000000000000000000000000815260040160405180910390fd5b600073ffffffffffffffffffffffffffffffffffffffff168173ffffffffffffffffffffffffffffffffffffffff160361109f576040517f538ba4f900000000000000000000000000000000000000000000000000000000815260040160405180910390fd5b80600160006101000a81548173ffffffffffffffffffffffffffffffffffffffff021916908373ffffffffffffffffffffffffffffffffffffffff1602179055508073ffffffffffffffffffffffffffffffffffffffff167f380d5e2edab82a3f66c7d34e09df1209bcfcc795939699a308fa0151c69d692060405160405180910390a250565b6000808267ffffffffffffffff160361116b576040517f021b4ea100000000000000000000000000000000000000000000000000000000815260040160405180910390fd5b6000808367ffffffffffffffff1667ffffffffffffffff168152602001908152602001600020549050919050565b60006003600083815260200190815260200160002060007f000000000000000000000000000000000000000000000000000000000000000067ffffffffffffffff1667ffffffffffffffff16815260200190815260200160002060009054906101000a900473ffffffffffffffffffffffffffffffffffffffff169050600073ffffffffffffffffffffffffffffffffffffffff168173ffffffffffffffffffffffffffffffffffffffff160361127c576040517f538ba4f900000000000000000000000000000000000000000000000000000000815260040160405180910390fd5b919050565b6000600a60008373ffffffffffffffffffffffffffffffffffffffff1673ffffffffffffffffffffffffffffffffffffffff16815260200190815260200160002060009054906101000a900460ff16905060008160ff160361130f576040517f2dc2d1dc00000000000000000000000000000000000000000000000000000000815260040160405180910390fd5b919050565b600360007f6b50fa17b77d24e42e27a04b69fe50cd6967cfb767d18de0bd5fe7e1a32aa868815260200190815260200160002060007f000000000000000000000000000000000000000000000000000000000000000067ffffffffffffffff1667ffffffffffffffff16815260200190815260200160002060009054906101000a900473ffffffffffffffffffffffffffffffffffffffff1673ffffffffffffffffffffffffffffffffffffffff1663d35911f2336040518263ffffffff1660e01b81526004016113e59190613690565b602060405180830381865afa158015611402573d6000803e3d6000fd5b505050506040513d601f19601f820116820180604052508101906114269190613ee6565b61145c576040517fdc85555400000000000000000000000000000000000000000000000000000000815260040160405180910390fd5b6000825190508151811461149c576040517f88adebd200000000000000000000000000000000000000000000000000000000815260040160405180910390fd5b60005b8181101561172b5760008382815181106114bc576114bb613f13565b5b6020026020010151905060008583815181106114db576114da613f13565b5b60200260200101519050600073ffffffffffffffffffffffffffffffffffffffff168273ffffffffffffffffffffffffffffffffffffffff160361154b576040517f538ba4f900000000000000000000000000000000000000000000000000000000815260040160405180910390fd5b60008160ff1603611588576040517f021b4ea100000000000000000000000000000000000000000000000000000000815260040160405180910390fd5b600073ffffffffffffffffffffffffffffffffffffffff16600960008360ff1660ff16815260200190815260200160002060009054906101000a900473ffffffffffffffffffffffffffffffffffffffff1673ffffffffffffffffffffffffffffffffffffffff1614611627576040517facb7899800000000000000000000000000000000000000000000000000000000815260040160405180910390fd5b81600960008360ff1660ff16815260200190815260200160002060006101000a81548173ffffffffffffffffffffffffffffffffffffffff021916908373ffffffffffffffffffffffffffffffffffffffff16021790555080600a60008473ffffffffffffffffffffffffffffffffffffffff1673ffffffffffffffffffffffffffffffffffffffff16815260200190815260200160002060006101000a81548160ff021916908360ff1602179055508173ffffffffffffffffffffffffffffffffffffffff168160ff167fe989a182e1d3c0b8d65de10ffbc485da67d9817e71120f6c98235daaa65c769060405160405180910390a3505080600101905061149f565b50505050565b60066020528060005260406000206000915054906101000a900473ffffffffffffffffffffffffffffffffffffffff1681565b7fa2d83cf6f43caf068994e5ffe0938f6eabaa551d915b59bfda16ba012d30d96881565b7fba0b74768b1de73590a53e1384870dcbc846e5c73bab23c07d71eaa7cbf8411b81565b6000600960008360ff1660ff16815260200190815260200160002060009054906101000a900473ffffffffffffffffffffffffffffffffffffffff169050600073ffffffffffffffffffffffffffffffffffffffff168173ffffffffffffffffffffffffffffffffffffffff1603611850576040517f538ba4f900000000000000000000000000000000000000000000000000000000815260040160405180910390fd5b919050565b600080600b60008473ffffffffffffffffffffffffffffffffffffffff1673ffffffffffffffffffffffffffffffffffffffff16815260200190815260200160002060009054906101000a900460ff16905060008160ff16141580156118df5750600760008260ff1660ff16815260200190815260200160002060009054906101000a900460ff16155b156118ee5760019150506118f4565b60009150505b919050565b7f86a7f6b88da6de42c331676d4da78508adfef4970dc8aa541004f26b6eef4ab981565b7f3a2f5529773e03d975be44bdae98a8509bdf1159e407504e558536cde56cf6ac81565b7fc03fcc4c77767946e7cbd87688feee0d5b2420b658fd6b1608ebce261f5b253c81565b60025481565b60008073ffffffffffffffffffffffffffffffffffffffff16600160009054906101000a900473ffffffffffffffffffffffffffffffffffffffff1673ffffffffffffffffffffffffffffffffffffffff16036119f4576040517f538ba4f900000000000000000000000000000000000000000000000000000000815260040160405180910390fd5b600160009054906101000a900473ffffffffffffffffffffffffffffffffffffffff16905090565b60086020528060005260406000206000915090505481565b7fbddfa8c39a1f6275bcfb3aa5c70638c466999edbf14e6162d81b3492caca9fce81565b600360007f6b50fa17b77d24e42e27a04b69fe50cd6967cfb767d18de0bd5fe7e1a32aa868815260200190815260200160002060007f000000000000000000000000000000000000000000000000000000000000000067ffffffffffffffff1667ffffffffffffffff16815260200190815260200160002060009054906101000a900473ffffffffffffffffffffffffffffffffffffffff1673ffffffffffffffffffffffffffffffffffffffff1663d35911f2336040518263ffffffff1660e01b8152600401611b299190613690565b602060405180830381865afa158015611b46573d6000803e3d6000fd5b505050506040513d601f19601f82011682018060405250810190611b6a9190613ee6565b611ba0576040517fdc85555400000000000000000000000000000000000000000000000000000000815260040160405180910390fd5b600083519050825181141580611bb7575081518114155b15611bee576040517f88adebd200000000000000000000000000000000000000000000000000000000815260040160405180910390fd5b60005b81811015611ed1576000848281518110611c0e57611c0d613f13565b5b602002602001015190506000868381518110611c2d57611c2c613f13565b5b602002602001015190506000858481518110611c4c57611c4b613f13565b5b60200260200101519050600073ffffffffffffffffffffffffffffffffffffffff168373ffffffffffffffffffffffffffffffffffffffff1603611cbc576040517f538ba4f900000000000000000000000000000000000000000000000000000000815260040160405180910390fd5b60008260ff1603611cf9576040517f021b4ea100000000000000000000000000000000000000000000000000000000815260040160405180910390fd5b600073ffffffffffffffffffffffffffffffffffffffff16600660008460ff1660ff16815260200190815260200160002060009054906101000a900473ffffffffffffffffffffffffffffffffffffffff1673ffffffffffffffffffffffffffffffffffffffff1614611d98576040517facb7899800000000000000000000000000000000000000000000000000000000815260040160405180910390fd5b82600660008460ff1660ff16815260200190815260200160002060006101000a81548173ffffffffffffffffffffffffffffffffffffffff021916908373ffffffffffffffffffffffffffffffffffffffff16021790555081600b60008573ffffffffffffffffffffffffffffffffffffffff1673ffffffffffffffffffffffffffffffffffffffff16815260200190815260200160002060006101000a81548160ff021916908360ff16021790555080600760008460ff1660ff16815260200190815260200160002060006101000a81548160ff0219169083151502179055508015158373ffffffffffffffffffffffffffffffffffffffff168360ff167fbedca897ebad5cf29700bc3df0b43a4335146d3604fa1cf228392438d91bddc660405160405180910390a4505050806001019050611bf1565b5050505050565b7f000000000000000000000000000000000000000000000000000000000000000081565b7fab0cccd084e90bea3aff8bc38267b4d235cb7974c46c5d1518f31a098442b5fe81565b7f494dfdc880823954ed6700117eb435b9bca3643417437b5781c1a89fba6e8b9781565b600360007f6b50fa17b77d24e42e27a04b69fe50cd6967cfb767d18de0bd5fe7e1a32aa868815260200190815260200160002060007f000000000000000000000000000000000000000000000000000000000000000067ffffffffffffffff1667ffffffffffffffff16815260200190815260200160002060009054906101000a900473ffffffffffffffffffffffffffffffffffffffff1673ffffffffffffffffffffffffffffffffffffffff1663d35911f2336040518263ffffffff1660e01b81526004016120159190613690565b602060405180830381865afa158015612032573d6000803e3d6000fd5b505050506040513d601f19601f820116820180604052508101906120569190613ee6565b61208c576040517fdc85555400000000000000000000000000000000000000000000000000000000815260040160405180910390fd5b60006003600085815260200190815260200160002060008367ffffffffffffffff1667ffffffffffffffff16815260200190815260200160002060009054906101000a900473ffffffffffffffffffffffffffffffffffffffff169050600073ffffffffffffffffffffffffffffffffffffffff168173ffffffffffffffffffffffffffffffffffffffff16146122c8577fbcc180fb907e9ae431665de4bc74305c00b7b27442aadd477980ecc4bb14c01184148061216a57507f55b101fc856aff484166c46ad33bc74831c135693c159b0092bb3b72254ffb6b84145b8061219457507f61d4f25a58ab968b8df895503bb626f9dad221b8e0c51ebd11185d5ad489433484145b806121be57507f86a7f6b88da6de42c331676d4da78508adfef4970dc8aa541004f26b6eef4ab984145b806121e857507f6b50fa17b77d24e42e27a04b69fe50cd6967cfb767d18de0bd5fe7e1a32aa86884145b8061221257507f494dfdc880823954ed6700117eb435b9bca3643417437b5781c1a89fba6e8b9784145b8061223c57507fa2d83cf6f43caf068994e5ffe0938f6eabaa551d915b59bfda16ba012d30d96884145b8061226657507fba0b74768b1de73590a53e1384870dcbc846e5c73bab23c07d71eaa7cbf8411b84145b8061229057507f3a2f5529773e03d975be44bdae98a8509bdf1159e407504e558536cde56cf6ac84145b156122c7576040517facb7899800000000000000000000000000000000000000000000000000000000815260040160405180910390fd5b5b826003600086815260200190815260200160002060008467ffffffffffffffff1667ffffffffffffffff16815260200190815260200160002060006101000a81548173ffffffffffffffffffffffffffffffffffffffff021916908373ffffffffffffffffffffffffffffffffffffffff1602179055508073ffffffffffffffffffffffffffffffffffffffff168267ffffffffffffffff16857f9450a795106333047f326e0baa22a46587348e9d54f911fb0b0555457053f59b866040516123919190613690565b60405180910390a450505050565b600080600b60008473ffffffffffffffffffffffffffffffffffffffff1673ffffffffffffffffffffffffffffffffffffffff16815260200190815260200160002060009054906101000a900460ff16905060008160ff16141580156124285750600760008260ff1660ff16815260200190815260200160002060009054906101000a900460ff165b1561243757600191505061243d565b60009150505b919050565b7f5afd87ee89bc5c3b6ea29a9fbac7886fb025e9a6d13c188071a97997d0638c7481565b7f40305c72c83de5641a428a52382da2cebe59d8a94bb18c86bd9e2b3b4f31c53d81565b7f70559cef11a652c41685abf00510350bb6a84790083ccc4644920da0815051e581565b7fc388084dbda6b1d1135f88de86c5dd6d19975c86ee667dd5d514f732ad9b236a81565b7f28d820d6a16d28d31120a3fa45794d2b3679f9b39c959c247a77199f97a274f881565b7fbcc180fb907e9ae431665de4bc74305c00b7b27442aadd477980ecc4bb14c01181565b7f7db5bd7a0249409b7ea7b737bcc07ca865010fa8f050fd0656b2b150c1a6c84781565b600360007f6b50fa17b77d24e42e27a04b69fe50cd6967cfb767d18de0bd5fe7e1a32aa868815260200190815260200160002060007f000000000000000000000000000000000000000000000000000000000000000067ffffffffffffffff1667ffffffffffffffff16815260200190815260200160002060009054906101000a900473ffffffffffffffffffffffffffffffffffffffff1673ffffffffffffffffffffffffffffffffffffffff16632f41ca96336040518263ffffffff1660e01b815260040161260f9190613690565b602060405180830381865afa15801561262c573d6000803e3d6000fd5b505050506040513d601f19601f820116820180604052508101906126509190613ee6565b612686576040517f445b0c3a00000000000000000000000000000000000000000000000000000000815260040160405180910390fd5b600081036126c0576040517f021b4ea100000000000000000000000000000000000000000000000000000000815260040160405180910390fd5b80600860008467ffffffffffffffff1667ffffffffffffffff16815260200190815260200160002081905550808267ffffffffffffffff167f8d6fb1c21bd6883cf6a2806de2938c800100387adc035cf7f95b8e22a0ca879960405160405180910390a35050565b6000600860008367ffffffffffffffff1667ffffffffffffffff168152602001908152602001600020549050919050565b7f50bafe7265fdcb54167be4ac0d25e2d67e08970155c397d18876726af08dda7181565b7f55b101fc856aff484166c46ad33bc74831c135693c159b0092bb3b72254ffb6b81565b6000600460008360ff1660ff16815260200190815260200160002060009054906101000a900473ffffffffffffffffffffffffffffffffffffffff169050600073ffffffffffffffffffffffffffffffffffffffff168173ffffffffffffffffffffffffffffffffffffffff1603612845576040517f538ba4f900000000000000000000000000000000000000000000000000000000815260040160405180910390fd5b919050565b600360007f6b50fa17b77d24e42e27a04b69fe50cd6967cfb767d18de0bd5fe7e1a32aa868815260200190815260200160002060007f000000000000000000000000000000000000000000000000000000000000000067ffffffffffffffff1667ffffffffffffffff16815260200190815260200160002060009054906101000a900473ffffffffffffffffffffffffffffffffffffffff1673ffffffffffffffffffffffffffffffffffffffff1663d35911f2336040518263ffffffff1660e01b815260040161291b9190613690565b602060405180830381865afa158015612938573d6000803e3d6000fd5b505050506040513d601f19601f8201168201806040525081019061295c9190613ee6565b612992576040517fdc85555400000000000000000000000000000000000000000000000000000000815260040160405180910390fd5b600086869050905084849050811415806129af5750828290508114155b156129e6576040517f88adebd200000000000000000000000000000000000000000000000000000000815260040160405180910390fd5b60005b81811015612a6e57612a63888883818110612a0757612a06613f13565b5b90506020020135878784818110612a2157612a20613f13565b5b9050602002016020810190612a3691906134a4565b868685818110612a4957612a48613f13565b5b9050602002016020810190612a5e91906136ab565b611f44565b8060010190506129e9565b5050505050505050565b60056020528060005260406000206000915054906101000a900473ffffffffffffffffffffffffffffffffffffffff1681565b60046020528060005260406000206000915054906101000a900473ffffffffffffffffffffffffffffffffffffffff1681565b7f61d4f25a58ab968b8df895503bb626f9dad221b8e0c51ebd11185d5ad489433481565b60006003600084815260200190815260200160002060008367ffffffffffffffff1667ffffffffffffffff16815260200190815260200160002060009054906101000a900473ffffffffffffffffffffffffffffffffffffffff169050600073ffffffffffffffffffffffffffffffffffffffff168173ffffffffffffffffffffffffffffffffffffffff1603612bc5576040517f538ba4f900000000000000000000000000000000000000000000000000000000815260040160405180910390fd5b92915050565b600360007f6b50fa17b77d24e42e27a04b69fe50cd6967cfb767d18de0bd5fe7e1a32aa868815260200190815260200160002060007f000000000000000000000000000000000000000000000000000000000000000067ffffffffffffffff1667ffffffffffffffff16815260200190815260200160002060009054906101000a900473ffffffffffffffffffffffffffffffffffffffff1673ffffffffffffffffffffffffffffffffffffffff1663d35911f2336040518263ffffffff1660e01b8152600401612c9c9190613690565b602060405180830381865afa158015612cb9573d6000803e3d6000fd5b505050506040513d601f19601f82011682018060405250810190612cdd9190613ee6565b612d13576040517fdc85555400000000000000000000000000000000000000000000000000000000815260040160405180910390fd5b610384811080612d2557506201518081115b15612d5c576040517ff66cf56700000000000000000000000000000000000000000000000000000000815260040160405180910390fd5b600060025490508160028190555081817fb75680035c94762a083979c48e5bb6f4b4dfbdda797a925ee7f1b8b162d446f860405160405180910390a35050565b60096020528060005260406000206000915054906101000a900473ffffffffffffffffffffffffffffffffffffffff1681565b6000600560008360ff1660ff16815260200190815260200160002060009054906101000a900473ffffffffffffffffffffffffffffffffffffffff169050600073ffffffffffffffffffffffffffffffffffffffff168173ffffffffffffffffffffffffffffffffffffffff1603612e73576040517f538ba4f900000000000000000000000000000000000000000000000000000000815260040160405180910390fd5b919050565b600360007f6b50fa17b77d24e42e27a04b69fe50cd6967cfb767d18de0bd5fe7e1a32aa868815260200190815260200160002060007f000000000000000000000000000000000000000000000000000000000000000067ffffffffffffffff1667ffffffffffffffff16815260200190815260200160002060009054906101000a900473ffffffffffffffffffffffffffffffffffffffff1673ffffffffffffffffffffffffffffffffffffffff1663d35911f2336040518263ffffffff1660e01b8152600401612f499190613690565b602060405180830381865afa158015612f66573d6000803e3d6000fd5b505050506040513d601f19601f82011682018060405250810190612f8a9190613ee6565b612fc0576040517fdc85555400000000000000000000000000000000000000000000000000000000815260040160405180910390fd5b600083519050825181141580612fd7575081518114155b1561300e576040517f88adebd200000000000000000000000000000000000000000000000000000000815260040160405180910390fd5b60005b8181101561336a57600085828151811061302e5761302d613f13565b5b60200260200101519050600085838151811061304d5761304c613f13565b5b60200260200101519050600085848151811061306c5761306b613f13565b5b60200260200101519050600073ffffffffffffffffffffffffffffffffffffffff168273ffffffffffffffffffffffffffffffffffffffff16036130dc576040517f538ba4f900000000000000000000000000000000000000000000000000000000815260040160405180910390fd5b60008360ff1603613119576040517f021b4ea100000000000000000000000000000000000000000000000000000000815260040160405180910390fd5b600073ffffffffffffffffffffffffffffffffffffffff168173ffffffffffffffffffffffffffffffffffffffff160361317f576040517f538ba4f900000000000000000000000000000000000000000000000000000000815260040160405180910390fd5b600073ffffffffffffffffffffffffffffffffffffffff16600460008560ff1660ff16815260200190815260200160002060009054906101000a900473ffffffffffffffffffffffffffffffffffffffff1673ffffffffffffffffffffffffffffffffffffffff161461321e576040517facb7899800000000000000000000000000000000000000000000000000000000815260040160405180910390fd5b81600460008560ff1660ff16815260200190815260200160002060006101000a81548173ffffffffffffffffffffffffffffffffffffffff021916908373ffffffffffffffffffffffffffffffffffffffff16021790555080600560008560ff1660ff16815260200190815260200160002060006101000a81548173ffffffffffffffffffffffffffffffffffffffff021916908373ffffffffffffffffffffffffffffffffffffffff1602179055508173ffffffffffffffffffffffffffffffffffffffff168360ff167f8585498d7de284d1c7ffe8331fd6f87a683875b6a4a7ef48cba0a3582a05542960405160405180910390a38073ffffffffffffffffffffffffffffffffffffffff168360ff167f21dbf985b47cb3cdc3afeab9b49366529288257f648c7877ceb82f5d8dba1cca60405160405180910390a3505050806001019050613011565b5050505050565b600080600a60008473ffffffffffffffffffffffffffffffffffffffff1673ffffffffffffffffffffffffffffffffffffffff16815260200190815260200160002060009054906101000a900460ff1660ff16146133d257600190506133d7565b600090505b919050565b6000600b60008373ffffffffffffffffffffffffffffffffffffffff1673ffffffffffffffffffffffffffffffffffffffff16815260200190815260200160002060009054906101000a900460ff169050919050565b6000604051905090565b600080fd5b600080fd5b600073ffffffffffffffffffffffffffffffffffffffff82169050919050565b600061347182613446565b9050919050565b61348181613466565b811461348c57600080fd5b50565b60008135905061349e81613478565b92915050565b6000602082840312156134ba576134b961343c565b5b60006134c88482850161348f565b91505092915050565b600060ff82169050919050565b6134e7816134d1565b82525050565b600060208201905061350260008301846134de565b92915050565b6000819050919050565b61351b81613508565b82525050565b60006020820190506135366000830184613512565b92915050565b600067ffffffffffffffff82169050919050565b6135598161353c565b811461356457600080fd5b50565b60008135905061357681613550565b92915050565b6000819050919050565b61358f8161357c565b811461359a57600080fd5b50565b6000813590506135ac81613586565b92915050565b600080604083850312156135c9576135c861343c565b5b60006135d785828601613567565b92505060206135e88582860161359d565b9150509250929050565b6135fb816134d1565b811461360657600080fd5b50565b600081359050613618816135f2565b92915050565b6000602082840312156136345761363361343c565b5b600061364284828501613609565b91505092915050565b60008115159050919050565b6136608161364b565b82525050565b600060208201905061367b6000830184613657565b92915050565b61368a81613466565b82525050565b60006020820190506136a56000830184613681565b92915050565b6000602082840312156136c1576136c061343c565b5b60006136cf84828501613567565b91505092915050565b6136e18161357c565b82525050565b60006020820190506136fc60008301846136d8565b92915050565b61370b81613508565b811461371657600080fd5b50565b60008135905061372881613702565b92915050565b6000602082840312156137445761374361343c565b5b600061375284828501613719565b91505092915050565b600080fd5b6000601f19601f8301169050919050565b7f4e487b7100000000000000000000000000000000000000000000000000000000600052604160045260246000fd5b6137a982613760565b810181811067ffffffffffffffff821117156137c8576137c7613771565b5b80604052505050565b60006137db613432565b90506137e782826137a0565b919050565b600067ffffffffffffffff82111561380757613806613771565b5b602082029050602081019050919050565b600080fd5b600061383061382b846137ec565b6137d1565b9050808382526020820190506020840283018581111561385357613852613818565b5b835b8181101561387c57806138688882613609565b845260208401935050602081019050613855565b5050509392505050565b600082601f83011261389b5761389a61375b565b5b81356138ab84826020860161381d565b91505092915050565b600067ffffffffffffffff8211156138cf576138ce613771565b5b602082029050602081019050919050565b60006138f36138ee846138b4565b6137d1565b9050808382526020820190506020840283018581111561391657613915613818565b5b835b8181101561393f578061392b888261348f565b845260208401935050602081019050613918565b5050509392505050565b600082601f83011261395e5761395d61375b565b5b813561396e8482602086016138e0565b91505092915050565b6000806040838503121561398e5761398d61343c565b5b600083013567ffffffffffffffff8111156139ac576139ab613441565b5b6139b885828601613886565b925050602083013567ffffffffffffffff8111156139d9576139d8613441565b5b6139e585828601613949565b9150509250929050565b600067ffffffffffffffff821115613a0a57613a09613771565b5b602082029050602081019050919050565b613a248161364b565b8114613a2f57600080fd5b50565b600081359050613a4181613a1b565b92915050565b6000613a5a613a55846139ef565b6137d1565b90508083825260208201905060208402830185811115613a7d57613a7c613818565b5b835b81811015613aa65780613a928882613a32565b845260208401935050602081019050613a7f565b5050509392505050565b600082601f830112613ac557613ac461375b565b5b8135613ad5848260208601613a47565b91505092915050565b600080600060608486031215613af757613af661343c565b5b600084013567ffffffffffffffff811115613b1557613b14613441565b5b613b2186828701613886565b935050602084013567ffffffffffffffff811115613b4257613b41613441565b5b613b4e86828701613949565b925050604084013567ffffffffffffffff811115613b6f57613b6e613441565b5b613b7b86828701613ab0565b9150509250925092565b613b8e8161353c565b82525050565b6000602082019050613ba96000830184613b85565b92915050565b600080600060608486031215613bc857613bc761343c565b5b6000613bd686828701613719565b9350506020613be78682870161348f565b9250506040613bf886828701613567565b9150509250925092565b600080fd5b60008083601f840112613c1d57613c1c61375b565b5b8235905067ffffffffffffffff811115613c3a57613c39613c02565b5b602083019150836020820283011115613c5657613c55613818565b5b9250929050565b60008083601f840112613c7357613c7261375b565b5b8235905067ffffffffffffffff811115613c9057613c8f613c02565b5b602083019150836020820283011115613cac57613cab613818565b5b9250929050565b60008083601f840112613cc957613cc861375b565b5b8235905067ffffffffffffffff811115613ce657613ce5613c02565b5b602083019150836020820283011115613d0257613d01613818565b5b9250929050565b60008060008060008060608789031215613d2657613d2561343c565b5b600087013567ffffffffffffffff811115613d4457613d43613441565b5b613d5089828a01613c07565b9650965050602087013567ffffffffffffffff811115613d7357613d72613441565b5b613d7f89828a01613c5d565b9450945050604087013567ffffffffffffffff811115613da257613da1613441565b5b613dae89828a01613cb3565b92509250509295509295509295565b60008060408385031215613dd457613dd361343c565b5b6000613de285828601613719565b9250506020613df385828601613567565b9150509250929050565b600060208284031215613e1357613e1261343c565b5b6000613e218482850161359d565b91505092915050565b600080600060608486031215613e4357613e4261343c565b5b600084013567ffffffffffffffff811115613e6157613e60613441565b5b613e6d86828701613886565b935050602084013567ffffffffffffffff811115613e8e57613e8d613441565b5b613e9a86828701613949565b925050604084013567ffffffffffffffff811115613ebb57613eba613441565b5b613ec786828701613949565b9150509250925092565b600081519050613ee081613a1b565b92915050565b600060208284031215613efc57613efb61343c565b5b6000613f0a84828501613ed1565b91505092915050565b7f4e487b7100000000000000000000000000000000000000000000000000000000600052603260045260246000fdfea2646970667358221220d5b0415a392322c5dc79bfb4e96fe9dd99b71d1163fc87f00e0d30ec07c4cf6f64736f6c63430008170033","linkReferences":{}},"methodIdentifiers":{"BROADCAST_REGISTRY()":"60cfb8e1","BROADCAST_REGISTRY_PROCESSOR()":"9a5988fa","CHAIN_ID()":"85e1f4d0","CORE_REGISTRY_DISPUTER()":"bbadb52b","CORE_REGISTRY_PROCESSOR()":"8878b4e3","CORE_REGISTRY_RESCUER()":"695b5dfb","CORE_REGISTRY_UPDATER()":"9914e6f8","CORE_STATE_REGISTRY()":"c4a55621","DST_SWAPPER()":"8a54adf7","DST_SWAPPER_PROCESSOR()":"bd8b96ee","EMERGENCY_QUEUE()":"41965eee","PAYLOAD_HELPER()":"a6e3fad5","PAYMASTER()":"82c78fb8","PAYMENT_ADMIN()":"9d62a6ed","PAYMENT_HELPER()":"08aa5538","PERMIT2()":"6afdd850","SUPERFORM_FACTORY()":"bbe557b9","SUPERFORM_RECEIVER()":"c3d699d7","SUPERFORM_ROUTER()":"650c3942","SUPER_POSITIONS()":"46cea3fb","SUPER_RBAC()":"024ba9aa","TIMELOCK_REGISTRY_PROCESSOR()":"0896ea2a","TIMELOCK_STATE_REGISTRY()":"dd93465a","ambAddresses(uint8)":"34cbf155","ambIds(address)":"0066f835","batchSetAddress(bytes32[],address[],uint64[])":"caac9a8e","bridgeAddresses(uint8)":"d0e504e7","bridgeValidator(uint8)":"cc2deb0e","delay()":"6a42b8f8","getAddress(bytes32)":"21f8a721","getAddressByChainId(bytes32,uint64)":"dfcf829b","getAmbAddress(uint8)":"0eff125d","getAmbId(address)":"f7c677e4","getBridgeAddress(uint8)":"ca7adffb","getBridgeValidator(uint8)":"e85b2b54","getRequiredMessagingQuorum(uint64)":"1049a0db","getStateRegistry(uint8)":"57203ab4","getStateRegistryId(address)":"2f6438ab","getVaultLimitPerDestination(uint64)":"bffc1e13","isBroadcastAMB(uint8)":"0df46b4b","isValidAmbImpl(address)":"5c504b60","isValidBroadcastAmbImpl(address)":"95fdab87","isValidStateRegistry(address)":"eeaf54aa","registryAddresses(uint8)":"e744b10f","setAddress(bytes32,address,uint64)":"8d336654","setAmbAddress(uint8[],address[],bool[])":"8375cb92","setBridgeAddresses(uint8[],address[],address[])":"edad76aa","setDelay(uint256)":"e177246e","setPermit2(address)":"101ec30a","setRequiredMessagingQuorum(uint64,uint256)":"040b14da","setStateRegistryAddress(uint8[],address[])":"31949bb3","setVaultLimitPerDestination(uint64,uint256)":"be580cf4","stateRegistryIds(address)":"00ea3821","vaultLimitPerDestination(uint64)":"7f245486"},"id":173}