{"abi":[{"type":"function","name":"claimProtocolOwnership","inputs":[{"name":"protocolId_","type":"string","internalType":"string"}],"outputs":[],"stateMutability":"nonpayable"},{"type":"event","name":"Claimed","inputs":[{"name":"claimer","type":"address","indexed":true,"internalType":"address"},{"name":"protocolId","type":"string","indexed":false,"internalType":"string"}],"anonymous":false}],"bytecode":{"object":"0x608060405234801561001057600080fd5b50610214806100206000396000f3fe608060405234801561001057600080fd5b506004361061002b5760003560e01c8063b3bad39b14610030575b600080fd5b61004a6004803603810190610045919061010f565b61004c565b005b3373ffffffffffffffffffffffffffffffffffffffff167f4ef887714b6ae4b4e5b624f78fb37bc493b148ca911452610d6ef8bffc0704e283836040516100949291906101ba565b60405180910390a25050565b600080fd5b600080fd5b600080fd5b600080fd5b600080fd5b60008083601f8401126100cf576100ce6100aa565b5b8235905067ffffffffffffffff8111156100ec576100eb6100af565b5b602083019150836001820283011115610108576101076100b4565b5b9250929050565b60008060208385031215610126576101256100a0565b5b600083013567ffffffffffffffff811115610144576101436100a5565b5b610150858286016100b9565b92509250509250929050565b600082825260208201905092915050565b82818337600083830152505050565b6000601f19601f8301169050919050565b6000610199838561015c565b93506101a683858461016d565b6101af8361017c565b840190509392505050565b600060208201905081810360008301526101d581848661018d565b9050939250505056fea26469706673582212202cc2a37bb1422b2784a258d79c26410434d9f9ef643d7d44a423c83185015f8f64736f6c63430008170033","linkReferences":{}},"methodIdentifiers":{"claimProtocolOwnership(string)":"b3bad39b"},"id":116}