{"abi":[{"type":"constructor","inputs":[{"name":"asset_","type":"address","internalType":"contract IERC20"},{"name":"name_","type":"string","internalType":"string"},{"name":"symbol_","type":"string","internalType":"string"}],"stateMutability":"nonpayable"},{"type":"function","name":"allowance","inputs":[{"name":"owner","type":"address","internalType":"address"},{"name":"spender","type":"address","internalType":"address"}],"outputs":[{"name":"","type":"uint256","internalType":"uint256"}],"stateMutability":"view"},{"type":"function","name":"approve","inputs":[{"name":"spender","type":"address","internalType":"address"},{"name":"value","type":"uint256","internalType":"uint256"}],"outputs":[{"name":"","type":"bool","internalType":"bool"}],"stateMutability":"nonpayable"},{"type":"function","name":"asset","inputs":[],"outputs":[{"name":"","type":"address","internalType":"address"}],"stateMutability":"view"},{"type":"function","name":"balanceOf","inputs":[{"name":"account","type":"address","internalType":"address"}],"outputs":[{"name":"","type":"uint256","internalType":"uint256"}],"stateMutability":"view"},{"type":"function","name":"cancelUnlock","inputs":[{"name":"owner","type":"address","internalType":"address"}],"outputs":[],"stateMutability":"nonpayable"},{"type":"function","name":"convertToAssets","inputs":[{"name":"shares","type":"uint256","internalType":"uint256"}],"outputs":[{"name":"","type":"uint256","internalType":"uint256"}],"stateMutability":"view"},{"type":"function","name":"convertToShares","inputs":[{"name":"assets","type":"uint256","internalType":"uint256"}],"outputs":[{"name":"","type":"uint256","internalType":"uint256"}],"stateMutability":"view"},{"type":"function","name":"decimals","inputs":[],"outputs":[{"name":"","type":"uint8","internalType":"uint8"}],"stateMutability":"view"},{"type":"function","name":"deposit","inputs":[{"name":"assets","type":"uint256","internalType":"uint256"},{"name":"receiver","type":"address","internalType":"address"}],"outputs":[{"name":"","type":"uint256","internalType":"uint256"}],"stateMutability":"nonpayable"},{"type":"function","name":"getLockPeriod","inputs":[],"outputs":[{"name":"","type":"uint256","internalType":"uint256"}],"stateMutability":"view"},{"type":"function","name":"lockPeriod","inputs":[],"outputs":[{"name":"","type":"uint256","internalType":"uint256"}],"stateMutability":"view"},{"type":"function","name":"maxDeposit","inputs":[{"name":"","type":"address","internalType":"address"}],"outputs":[{"name":"","type":"uint256","internalType":"uint256"}],"stateMutability":"view"},{"type":"function","name":"maxMint","inputs":[{"name":"","type":"address","internalType":"address"}],"outputs":[{"name":"","type":"uint256","internalType":"uint256"}],"stateMutability":"view"},{"type":"function","name":"maxRedeem","inputs":[{"name":"owner","type":"address","internalType":"address"}],"outputs":[{"name":"","type":"uint256","internalType":"uint256"}],"stateMutability":"view"},{"type":"function","name":"maxWithdraw","inputs":[{"name":"owner","type":"address","internalType":"address"}],"outputs":[{"name":"","type":"uint256","internalType":"uint256"}],"stateMutability":"view"},{"type":"function","name":"mint","inputs":[{"name":"shares","type":"uint256","internalType":"uint256"},{"name":"receiver","type":"address","internalType":"address"}],"outputs":[{"name":"","type":"uint256","internalType":"uint256"}],"stateMutability":"nonpayable"},{"type":"function","name":"name","inputs":[],"outputs":[{"name":"","type":"string","internalType":"string"}],"stateMutability":"view"},{"type":"function","name":"previewDeposit","inputs":[{"name":"assets","type":"uint256","internalType":"uint256"}],"outputs":[{"name":"","type":"uint256","internalType":"uint256"}],"stateMutability":"view"},{"type":"function","name":"previewMint","inputs":[{"name":"shares","type":"uint256","internalType":"uint256"}],"outputs":[{"name":"","type":"uint256","internalType":"uint256"}],"stateMutability":"view"},{"type":"function","name":"previewRedeem","inputs":[{"name":"shares","type":"uint256","internalType":"uint256"}],"outputs":[{"name":"","type":"uint256","internalType":"uint256"}],"stateMutability":"view"},{"type":"function","name":"previewWithdraw","inputs":[{"name":"assets","type":"uint256","internalType":"uint256"}],"outputs":[{"name":"","type":"uint256","internalType":"uint256"}],"stateMutability":"view"},{"type":"function","name":"redeem","inputs":[{"name":"","type":"uint256","internalType":"uint256"},{"name":"","type":"address","internalType":"address"},{"name":"","type":"address","internalType":"address"}],"outputs":[{"name":"","type":"uint256","internalType":"uint256"}],"stateMutability":"nonpayable"},{"type":"function","name":"requestId","inputs":[],"outputs":[{"name":"","type":"uint256","internalType":"uint256"}],"stateMutability":"view"},{"type":"function","name":"requestUnlock","inputs":[{"name":"sharesAmount","type":"uint256","internalType":"uint256"},{"name":"owner","type":"address","internalType":"address"}],"outputs":[],"stateMutability":"nonpayable"},{"type":"function","name":"requests","inputs":[{"name":"owner","type":"address","internalType":"address"}],"outputs":[{"name":"id","type":"uint256","internalType":"uint256"},{"name":"startedAt","type":"uint256","internalType":"uint256"},{"name":"shareAmount","type":"uint256","internalType":"uint256"}],"stateMutability":"view"},{"type":"function","name":"symbol","inputs":[],"outputs":[{"name":"","type":"string","internalType":"string"}],"stateMutability":"view"},{"type":"function","name":"totalAssets","inputs":[],"outputs":[{"name":"","type":"uint256","internalType":"uint256"}],"stateMutability":"view"},{"type":"function","name":"totalSupply","inputs":[],"outputs":[{"name":"","type":"uint256","internalType":"uint256"}],"stateMutability":"view"},{"type":"function","name":"transfer","inputs":[{"name":"to","type":"address","internalType":"address"},{"name":"value","type":"uint256","internalType":"uint256"}],"outputs":[{"name":"","type":"bool","internalType":"bool"}],"stateMutability":"nonpayable"},{"type":"function","name":"transferFrom","inputs":[{"name":"from","type":"address","internalType":"address"},{"name":"to","type":"address","internalType":"address"},{"name":"value","type":"uint256","internalType":"uint256"}],"outputs":[{"name":"","type":"bool","internalType":"bool"}],"stateMutability":"nonpayable"},{"type":"function","name":"userUnlockRequests","inputs":[{"name":"owner","type":"address","internalType":"address"}],"outputs":[{"name":"","type":"tuple","internalType":"struct ERC4626TimelockMockRevertWithdrawal.UnlockRequest","components":[{"name":"id","type":"uint256","internalType":"uint256"},{"name":"startedAt","type":"uint256","internalType":"uint256"},{"name":"shareAmount","type":"uint256","internalType":"uint256"}]}],"stateMutability":"view"},{"type":"function","name":"withdraw","inputs":[{"name":"assets","type":"uint256","internalType":"uint256"},{"name":"receiver","type":"address","internalType":"address"},{"name":"owner","type":"address","internalType":"address"}],"outputs":[{"name":"","type":"uint256","internalType":"uint256"}],"stateMutability":"nonpayable"},{"type":"event","name":"Approval","inputs":[{"name":"owner","type":"address","indexed":true,"internalType":"address"},{"name":"spender","type":"address","indexed":true,"internalType":"address"},{"name":"value","type":"uint256","indexed":false,"internalType":"uint256"}],"anonymous":false},{"type":"event","name":"Deposit","inputs":[{"name":"sender","type":"address","indexed":true,"internalType":"address"},{"name":"owner","type":"address","indexed":true,"internalType":"address"},{"name":"assets","type":"uint256","indexed":false,"internalType":"uint256"},{"name":"shares","type":"uint256","indexed":false,"internalType":"uint256"}],"anonymous":false},{"type":"event","name":"Transfer","inputs":[{"name":"from","type":"address","indexed":true,"internalType":"address"},{"name":"to","type":"address","indexed":true,"internalType":"address"},{"name":"value","type":"uint256","indexed":false,"internalType":"uint256"}],"anonymous":false},{"type":"event","name":"Withdraw","inputs":[{"name":"sender","type":"address","indexed":true,"internalType":"address"},{"name":"receiver","type":"address","indexed":true,"internalType":"address"},{"name":"owner","type":"address","indexed":true,"internalType":"address"},{"name":"assets","type":"uint256","indexed":false,"internalType":"uint256"},{"name":"shares","type":"uint256","indexed":false,"internalType":"uint256"}],"anonymous":false},{"type":"error","name":"AddressEmptyCode","inputs":[{"name":"target","type":"address","internalType":"address"}]},{"type":"error","name":"AddressInsufficientBalance","inputs":[{"name":"account","type":"address","internalType":"address"}]},{"type":"error","name":"ERC20InsufficientAllowance","inputs":[{"name":"spender","type":"address","internalType":"address"},{"name":"allowance","type":"uint256","internalType":"uint256"},{"name":"needed","type":"uint256","internalType":"uint256"}]},{"type":"error","name":"ERC20InsufficientBalance","inputs":[{"name":"sender","type":"address","internalType":"address"},{"name":"balance","type":"uint256","internalType":"uint256"},{"name":"needed","type":"uint256","internalType":"uint256"}]},{"type":"error","name":"ERC20InvalidApprover","inputs":[{"name":"approver","type":"address","internalType":"address"}]},{"type":"error","name":"ERC20InvalidReceiver","inputs":[{"name":"receiver","type":"address","internalType":"address"}]},{"type":"error","name":"ERC20InvalidSender","inputs":[{"name":"sender","type":"address","internalType":"address"}]},{"type":"error","name":"ERC20InvalidSpender","inputs":[{"name":"spender","type":"address","internalType":"address"}]},{"type":"error","name":"ERC4626ExceededMaxDeposit","inputs":[{"name":"receiver","type":"address","internalType":"address"},{"name":"assets","type":"uint256","internalType":"uint256"},{"name":"max","type":"uint256","internalType":"uint256"}]},{"type":"error","name":"ERC4626ExceededMaxMint","inputs":[{"name":"receiver","type":"address","internalType":"address"},{"name":"shares","type":"uint256","internalType":"uint256"},{"name":"max","type":"uint256","internalType":"uint256"}]},{"type":"error","name":"ERC4626ExceededMaxRedeem","inputs":[{"name":"owner","type":"address","internalType":"address"},{"name":"shares","type":"uint256","internalType":"uint256"},{"name":"max","type":"uint256","internalType":"uint256"}]},{"type":"error","name":"ERC4626ExceededMaxWithdraw","inputs":[{"name":"owner","type":"address","internalType":"address"},{"name":"assets","type":"uint256","internalType":"uint256"},{"name":"max","type":"uint256","internalType":"uint256"}]},{"type":"error","name":"FailedInnerCall","inputs":[]},{"type":"error","name":"MathOverflowedMulDiv","inputs":[]},{"type":"error","name":"SafeERC20FailedOperation","inputs":[{"name":"token","type":"address","internalType":"address"}]}],"bytecode":{"object":"0x60c0604052610e106005553480156200001757600080fd5b50604051620031f9380380620031f983398181016040528101906200003d919062000401565b8282828160039081620000519190620006e6565b508060049081620000639190620006e6565b5050506000806200007a83620000db60201b60201c565b91509150816200008c5760126200008e565b805b60ff1660a08160ff16815250508273ffffffffffffffffffffffffffffffffffffffff1660808173ffffffffffffffffffffffffffffffffffffffff168152505050505050505062000896565b6000806000808473ffffffffffffffffffffffffffffffffffffffff1660405160240160405160208183030381529060405263313ce56760e01b6020820180517bffffffffffffffffffffffffffffffffffffffffffffffffffffffff83818316178352505050506040516200015291906200081a565b600060405180830381855afa9150503d80600081146200018f576040519150601f19603f3d011682016040523d82523d6000602084013e62000194565b606091505b5091509150818015620001a957506020815110155b15620001e657600081806020019051810190620001c7919062000864565b905060ff80168111620001e45760018194509450505050620001f0565b505b6000809350935050505b915091565b6000604051905090565b600080fd5b600080fd5b600073ffffffffffffffffffffffffffffffffffffffff82169050919050565b6000620002368262000209565b9050919050565b60006200024a8262000229565b9050919050565b6200025c816200023d565b81146200026857600080fd5b50565b6000815190506200027c8162000251565b92915050565b600080fd5b600080fd5b6000601f19601f8301169050919050565b7f4e487b7100000000000000000000000000000000000000000000000000000000600052604160045260246000fd5b620002d7826200028c565b810181811067ffffffffffffffff82111715620002f957620002f86200029d565b5b80604052505050565b60006200030e620001f5565b90506200031c8282620002cc565b919050565b600067ffffffffffffffff8211156200033f576200033e6200029d565b5b6200034a826200028c565b9050602081019050919050565b60005b83811015620003775780820151818401526020810190506200035a565b60008484015250505050565b60006200039a620003948462000321565b62000302565b905082815260208101848484011115620003b957620003b862000287565b5b620003c684828562000357565b509392505050565b600082601f830112620003e657620003e562000282565b5b8151620003f884826020860162000383565b91505092915050565b6000806000606084860312156200041d576200041c620001ff565b5b60006200042d868287016200026b565b935050602084015167ffffffffffffffff81111562000451576200045062000204565b5b6200045f86828701620003ce565b925050604084015167ffffffffffffffff81111562000483576200048262000204565b5b6200049186828701620003ce565b9150509250925092565b600081519050919050565b7f4e487b7100000000000000000000000000000000000000000000000000000000600052602260045260246000fd5b60006002820490506001821680620004ee57607f821691505b602082108103620005045762000503620004a6565b5b50919050565b60008190508160005260206000209050919050565b60006020601f8301049050919050565b600082821b905092915050565b6000600883026200056e7fffffffffffffffffffffffffffffffffffffffffffffffffffffffffffffffff826200052f565b6200057a86836200052f565b95508019841693508086168417925050509392505050565b6000819050919050565b6000819050919050565b6000620005c7620005c1620005bb8462000592565b6200059c565b62000592565b9050919050565b6000819050919050565b620005e383620005a6565b620005fb620005f282620005ce565b8484546200053c565b825550505050565b600090565b6200061262000603565b6200061f818484620005d8565b505050565b5b8181101562000647576200063b60008262000608565b60018101905062000625565b5050565b601f821115620006965762000660816200050a565b6200066b846200051f565b810160208510156200067b578190505b620006936200068a856200051f565b83018262000624565b50505b505050565b600082821c905092915050565b6000620006bb600019846008026200069b565b1980831691505092915050565b6000620006d68383620006a8565b9150826002028217905092915050565b620006f1826200049b565b67ffffffffffffffff8111156200070d576200070c6200029d565b5b620007198254620004d5565b620007268282856200064b565b600060209050601f8311600181146200075e576000841562000749578287015190505b620007558582620006c8565b865550620007c5565b601f1984166200076e866200050a565b60005b82811015620007985784890151825560018201915060208501945060208101905062000771565b86831015620007b85784890151620007b4601f891682620006a8565b8355505b6001600288020188555050505b505050505050565b600081519050919050565b600081905092915050565b6000620007f082620007cd565b620007fc8185620007d8565b93506200080e81856020860162000357565b80840191505092915050565b6000620008288284620007e3565b915081905092915050565b6200083e8162000592565b81146200084a57600080fd5b50565b6000815190506200085e8162000833565b92915050565b6000602082840312156200087d576200087c620001ff565b5b60006200088d848285016200084d565b91505092915050565b60805160a051612928620008d160003960006108f501526000818161073601528181610927015281816112de01526113ca01526129286000f3fe608060405234801561001057600080fd5b50600436106101ef5760003560e01c806394bf804d1161010f578063c88e0b23116100a2578063df6feb4811610071578063df6feb48146106a6578063e43db193146106c2578063eebffc92146106e0578063ef8b30f7146106fc576101ef565b8063c88e0b23146105e6578063ce96cb7714610616578063d905777e14610646578063dd62ed3e14610676576101ef565b8063b460af94116100de578063b460af9414610526578063ba08765214610556578063c63d75b614610586578063c6e6f592146105b6576101ef565b806394bf804d1461047857806395d89b41146104a8578063a9059cbb146104c6578063b3d7f6b9146104f6576101ef565b8063313ce567116101875780634cdad506116101565780634cdad506146103b65780636e553f65146103e657806370a082311461041657806374adad1d14610446576101ef565b8063313ce5671461032c57806338d52e0f1461034a5780633fd8b02f14610368578063402d267d14610386576101ef565b8063095ea7b3116101c3578063095ea7b31461027e5780630a28a477146102ae57806318160ddd146102de57806323b872dd146102fc576101ef565b80626d6cae146101f457806301e1d1141461021257806306fdde031461023057806307a2d13a1461024e575b600080fd5b6101fc61072c565b6040516102099190611e8a565b60405180910390f35b61021a610732565b6040516102279190611e8a565b60405180910390f35b6102386107d3565b6040516102459190611f35565b60405180910390f35b61026860048036038101906102639190611f88565b610865565b6040516102759190611e8a565b60405180910390f35b61029860048036038101906102939190612013565b610879565b6040516102a5919061206e565b60405180910390f35b6102c860048036038101906102c39190611f88565b61089c565b6040516102d59190611e8a565b60405180910390f35b6102e66108b0565b6040516102f39190611e8a565b60405180910390f35b61031660048036038101906103119190612089565b6108ba565b604051610323919061206e565b60405180910390f35b6103346108e9565b60405161034191906120f8565b60405180910390f35b610352610923565b60405161035f9190612122565b60405180910390f35b61037061094b565b60405161037d9190611e8a565b60405180910390f35b6103a0600480360381019061039b919061213d565b610951565b6040516103ad9190611e8a565b60405180910390f35b6103d060048036038101906103cb9190611f88565b61097b565b6040516103dd9190611e8a565b60405180910390f35b61040060048036038101906103fb919061216a565b61098f565b60405161040d9190611e8a565b60405180910390f35b610430600480360381019061042b919061213d565b610a11565b60405161043d9190611e8a565b60405180910390f35b610460600480360381019061045b919061213d565b610a59565b60405161046f939291906121aa565b60405180910390f35b610492600480360381019061048d919061216a565b610a83565b60405161049f9190611e8a565b60405180910390f35b6104b0610b05565b6040516104bd9190611f35565b60405180910390f35b6104e060048036038101906104db9190612013565b610b97565b6040516104ed919061206e565b60405180910390f35b610510600480360381019061050b9190611f88565b610bba565b60405161051d9190611e8a565b60405180910390f35b610540600480360381019061053b91906121e1565b610bce565b60405161054d9190611e8a565b60405180910390f35b610570600480360381019061056b91906121e1565b610c52565b60405161057d9190611e8a565b60405180910390f35b6105a0600480360381019061059b919061213d565b610c57565b6040516105ad9190611e8a565b60405180910390f35b6105d060048036038101906105cb9190611f88565b610c81565b6040516105dd9190611e8a565b60405180910390f35b61060060048036038101906105fb919061213d565b610c95565b60405161060d9190612285565b60405180910390f35b610630600480360381019061062b919061213d565b610d0c565b60405161063d9190611e8a565b60405180910390f35b610660600480360381019061065b919061213d565b610d28565b60405161066d9190611e8a565b60405180910390f35b610690600480360381019061068b91906122a0565b610d3a565b60405161069d9190611e8a565b60405180910390f35b6106c060048036038101906106bb919061216a565b610dc1565b005b6106ca610f60565b6040516106d79190611e8a565b60405180910390f35b6106fa60048036038101906106f5919061213d565b610f6a565b005b61071660048036038101906107119190611f88565b61106c565b6040516107239190611e8a565b60405180910390f35b60065481565b60007f000000000000000000000000000000000000000000000000000000000000000073ffffffffffffffffffffffffffffffffffffffff166370a08231306040518263ffffffff1660e01b815260040161078d9190612122565b602060405180830381865afa1580156107aa573d6000803e3d6000fd5b505050506040513d601f19601f820116820180604052508101906107ce91906122f5565b905090565b6060600380546107e290612351565b80601f016020809104026020016040519081016040528092919081815260200182805461080e90612351565b801561085b5780601f106108305761010080835404028352916020019161085b565b820191906000526020600020905b81548152906001019060200180831161083e57829003601f168201915b5050505050905090565b6000610872826000611080565b9050919050565b6000806108846110d9565b90506108918185856110e1565b600191505092915050565b60006108a98260016110f3565b9050919050565b6000600254905090565b6000806108c56110d9565b90506108d285828561114c565b6108dd8585856111e0565b60019150509392505050565b60006108f36112d4565b7f000000000000000000000000000000000000000000000000000000000000000061091e91906123b1565b905090565b60007f0000000000000000000000000000000000000000000000000000000000000000905090565b60055481565b60007fffffffffffffffffffffffffffffffffffffffffffffffffffffffffffffffff9050919050565b6000610988826000611080565b9050919050565b60008061099b83610951565b9050808411156109e6578284826040517f79012fb20000000000000000000000000000000000000000000000000000000081526004016109dd939291906123e6565b60405180910390fd5b60006109f18561106c565b9050610a066109fe6110d9565b8587846112d9565b809250505092915050565b60008060008373ffffffffffffffffffffffffffffffffffffffff1673ffffffffffffffffffffffffffffffffffffffff168152602001908152602001600020549050919050565b60076020528060005260406000206000915090508060000154908060010154908060020154905083565b600080610a8f83610c57565b905080841115610ada578284826040517f284ff667000000000000000000000000000000000000000000000000000000008152600401610ad1939291906123e6565b60405180910390fd5b6000610ae585610bba565b9050610afa610af26110d9565b8583886112d9565b809250505092915050565b606060048054610b1490612351565b80601f0160208091040260200160405190810160405280929190818152602001828054610b4090612351565b8015610b8d5780601f10610b6257610100808354040283529160200191610b8d565b820191906000526020600020905b815481529060010190602001808311610b7057829003601f168201915b5050505050905090565b600080610ba26110d9565b9050610baf8185856111e0565b600191505092915050565b6000610bc7826001611080565b9050919050565b600080610bda83610d0c565b905080851115610c25578285826040517ffe9cceec000000000000000000000000000000000000000000000000000000008152600401610c1c939291906123e6565b60405180910390fd5b6000610c308661089c565b9050610c46610c3d6110d9565b8686898561137c565b80925050509392505050565b600080fd5b60007fffffffffffffffffffffffffffffffffffffffffffffffffffffffffffffffff9050919050565b6000610c8e8260006110f3565b9050919050565b610c9d611e50565b600760008373ffffffffffffffffffffffffffffffffffffffff1673ffffffffffffffffffffffffffffffffffffffff16815260200190815260200160002060405180606001604052908160008201548152602001600182015481526020016002820154815250509050919050565b6000610d21610d1a83610a11565b6000611080565b9050919050565b6000610d3382610a11565b9050919050565b6000600160008473ffffffffffffffffffffffffffffffffffffffff1673ffffffffffffffffffffffffffffffffffffffff16815260200190815260200160002060008373ffffffffffffffffffffffffffffffffffffffff1673ffffffffffffffffffffffffffffffffffffffff16815260200190815260200160002054905092915050565b6000600760008373ffffffffffffffffffffffffffffffffffffffff1673ffffffffffffffffffffffffffffffffffffffff1681526020019081526020016000206002015414610e46576040517f08c379a0000000000000000000000000000000000000000000000000000000008152600401610e3d90612469565b60405180910390fd5b8073ffffffffffffffffffffffffffffffffffffffff163373ffffffffffffffffffffffffffffffffffffffff1614610ec7576000610e858233610d3a565b90507fffffffffffffffffffffffffffffffffffffffffffffffffffffffffffffffff8114610ec557610ec3338483610ebe9190612489565b610879565b505b505b60066000815480929190610eda906124bd565b91905055506040518060600160405280600654815260200142815260200183815250600760008373ffffffffffffffffffffffffffffffffffffffff1673ffffffffffffffffffffffffffffffffffffffff1681526020019081526020016000206000820151816000015560208201518160010155604082015181600201559050505050565b6000600554905090565b6000600760008373ffffffffffffffffffffffffffffffffffffffff1673ffffffffffffffffffffffffffffffffffffffff1681526020019081526020016000209050426005548260010154610fc09190612505565b11611000576040517f08c379a0000000000000000000000000000000000000000000000000000000008152600401610ff790612585565b60405180910390fd5b61100e828260020154611475565b600760008373ffffffffffffffffffffffffffffffffffffffff1673ffffffffffffffffffffffffffffffffffffffff1681526020019081526020016000206000808201600090556001820160009055600282016000905550505050565b60006110798260006110f3565b9050919050565b60006110d1600161108f610732565b6110999190612505565b6110a16112d4565b600a6110ad91906126d8565b6110b56108b0565b6110bf9190612505565b84866114f7909392919063ffffffff16565b905092915050565b600033905090565b6110ee838383600161154e565b505050565b60006111446111006112d4565b600a61110c91906126d8565b6111146108b0565b61111e9190612505565b6001611128610732565b6111329190612505565b84866114f7909392919063ffffffff16565b905092915050565b60006111588484610d3a565b90507fffffffffffffffffffffffffffffffffffffffffffffffffffffffffffffffff81146111da57818110156111ca578281836040517ffb8f41b20000000000000000000000000000000000000000000000000000000081526004016111c1939291906123e6565b60405180910390fd5b6111d98484848403600061154e565b5b50505050565b600073ffffffffffffffffffffffffffffffffffffffff168373ffffffffffffffffffffffffffffffffffffffff16036112525760006040517f96c6fd1e0000000000000000000000000000000000000000000000000000000081526004016112499190612122565b60405180910390fd5b600073ffffffffffffffffffffffffffffffffffffffff168273ffffffffffffffffffffffffffffffffffffffff16036112c45760006040517fec442f050000000000000000000000000000000000000000000000000000000081526004016112bb9190612122565b60405180910390fd5b6112cf838383611725565b505050565b600090565b6113057f000000000000000000000000000000000000000000000000000000000000000085308561194a565b61130f8382611475565b8273ffffffffffffffffffffffffffffffffffffffff168473ffffffffffffffffffffffffffffffffffffffff167fdcbc1c05240f31ff3ad067ef1ee35ce4997762752e3a095284754544f4c709d7848460405161136e929190612723565b60405180910390a350505050565b8273ffffffffffffffffffffffffffffffffffffffff168573ffffffffffffffffffffffffffffffffffffffff16146113bb576113ba83868361114c565b5b6113c583826119cc565b6113f07f00000000000000000000000000000000000000000000000000000000000000008584611a4e565b8273ffffffffffffffffffffffffffffffffffffffff168473ffffffffffffffffffffffffffffffffffffffff168673ffffffffffffffffffffffffffffffffffffffff167ffbde797d201c681b91056529119e0b02407c7bb96a4a2c75c01fc9667232c8db8585604051611466929190612723565b60405180910390a45050505050565b600073ffffffffffffffffffffffffffffffffffffffff168273ffffffffffffffffffffffffffffffffffffffff16036114e75760006040517fec442f050000000000000000000000000000000000000000000000000000000081526004016114de9190612122565b60405180910390fd5b6114f360008383611725565b5050565b600080611505868686611acd565b905061151083611bd4565b801561152d5750600084806115285761152761274c565b5b868809115b156115425760018161153f9190612505565b90505b80915050949350505050565b600073ffffffffffffffffffffffffffffffffffffffff168473ffffffffffffffffffffffffffffffffffffffff16036115c05760006040517fe602df050000000000000000000000000000000000000000000000000000000081526004016115b79190612122565b60405180910390fd5b600073ffffffffffffffffffffffffffffffffffffffff168373ffffffffffffffffffffffffffffffffffffffff16036116325760006040517f94280d620000000000000000000000000000000000000000000000000000000081526004016116299190612122565b60405180910390fd5b81600160008673ffffffffffffffffffffffffffffffffffffffff1673ffffffffffffffffffffffffffffffffffffffff16815260200190815260200160002060008573ffffffffffffffffffffffffffffffffffffffff1673ffffffffffffffffffffffffffffffffffffffff16815260200190815260200160002081905550801561171f578273ffffffffffffffffffffffffffffffffffffffff168473ffffffffffffffffffffffffffffffffffffffff167f8c5be1e5ebec7d5bd14f71427d1e84f3dd0314c0f7b2291e5b200ac8c7c3b925846040516117169190611e8a565b60405180910390a35b50505050565b600073ffffffffffffffffffffffffffffffffffffffff168373ffffffffffffffffffffffffffffffffffffffff160361177757806002600082825461176b9190612505565b9250508190555061184a565b60008060008573ffffffffffffffffffffffffffffffffffffffff1673ffffffffffffffffffffffffffffffffffffffff16815260200190815260200160002054905081811015611803578381836040517fe450d38c0000000000000000000000000000000000000000000000000000000081526004016117fa939291906123e6565b60405180910390fd5b8181036000808673ffffffffffffffffffffffffffffffffffffffff1673ffffffffffffffffffffffffffffffffffffffff16815260200190815260200160002081905550505b600073ffffffffffffffffffffffffffffffffffffffff168273ffffffffffffffffffffffffffffffffffffffff160361189357806002600082825403925050819055506118e0565b806000808473ffffffffffffffffffffffffffffffffffffffff1673ffffffffffffffffffffffffffffffffffffffff168152602001908152602001600020600082825401925050819055505b8173ffffffffffffffffffffffffffffffffffffffff168373ffffffffffffffffffffffffffffffffffffffff167fddf252ad1be2c89b69c2b068fc378daa952ba7f163c4a11628f55a4df523b3ef8360405161193d9190611e8a565b60405180910390a3505050565b6119c6848573ffffffffffffffffffffffffffffffffffffffff166323b872dd86868660405160240161197f9392919061277b565b604051602081830303815290604052915060e01b6020820180517bffffffffffffffffffffffffffffffffffffffffffffffffffffffff8381831617835250505050611c02565b50505050565b600073ffffffffffffffffffffffffffffffffffffffff168273ffffffffffffffffffffffffffffffffffffffff1603611a3e5760006040517f96c6fd1e000000000000000000000000000000000000000000000000000000008152600401611a359190612122565b60405180910390fd5b611a4a82600083611725565b5050565b611ac8838473ffffffffffffffffffffffffffffffffffffffff1663a9059cbb8585604051602401611a819291906127b2565b604051602081830303815290604052915060e01b6020820180517bffffffffffffffffffffffffffffffffffffffffffffffffffffffff8381831617835250505050611c02565b505050565b6000808385029050600080198587098281108382030391505060008103611b0857838281611afe57611afd61274c565b5b0492505050611bcd565b808411611b41576040517f227bc15300000000000000000000000000000000000000000000000000000000815260040160405180910390fd5b600084868809905082811182039150808303925060008560000386169050808604955080840493506001818260000304019050808302841793506000600287600302189050808702600203810290508087026002038102905080870260020381029050808702600203810290508087026002038102905080870260020381029050808502955050505050505b9392505050565b600060016002836003811115611bed57611bec6127db565b5b611bf7919061280a565b60ff16149050919050565b6000611c2d828473ffffffffffffffffffffffffffffffffffffffff16611c9990919063ffffffff16565b90506000815114158015611c52575080806020019051810190611c509190612867565b155b15611c9457826040517f5274afe7000000000000000000000000000000000000000000000000000000008152600401611c8b9190612122565b60405180910390fd5b505050565b6060611ca783836000611caf565b905092915050565b606081471015611cf657306040517fcd786059000000000000000000000000000000000000000000000000000000008152600401611ced9190612122565b60405180910390fd5b6000808573ffffffffffffffffffffffffffffffffffffffff168486604051611d1f91906128db565b60006040518083038185875af1925050503d8060008114611d5c576040519150601f19603f3d011682016040523d82523d6000602084013e611d61565b606091505b5091509150611d71868383611d7c565b925050509392505050565b606082611d9157611d8c82611e0b565b611e03565b60008251148015611db9575060008473ffffffffffffffffffffffffffffffffffffffff163b145b15611dfb57836040517f9996b315000000000000000000000000000000000000000000000000000000008152600401611df29190612122565b60405180910390fd5b819050611e04565b5b9392505050565b600081511115611e1e5780518082602001fd5b6040517f1425ea4200000000000000000000000000000000000000000000000000000000815260040160405180910390fd5b60405180606001604052806000815260200160008152602001600081525090565b6000819050919050565b611e8481611e71565b82525050565b6000602082019050611e9f6000830184611e7b565b92915050565b600081519050919050565b600082825260208201905092915050565b60005b83811015611edf578082015181840152602081019050611ec4565b60008484015250505050565b6000601f19601f8301169050919050565b6000611f0782611ea5565b611f118185611eb0565b9350611f21818560208601611ec1565b611f2a81611eeb565b840191505092915050565b60006020820190508181036000830152611f4f8184611efc565b905092915050565b600080fd5b611f6581611e71565b8114611f7057600080fd5b50565b600081359050611f8281611f5c565b92915050565b600060208284031215611f9e57611f9d611f57565b5b6000611fac84828501611f73565b91505092915050565b600073ffffffffffffffffffffffffffffffffffffffff82169050919050565b6000611fe082611fb5565b9050919050565b611ff081611fd5565b8114611ffb57600080fd5b50565b60008135905061200d81611fe7565b92915050565b6000806040838503121561202a57612029611f57565b5b600061203885828601611ffe565b925050602061204985828601611f73565b9150509250929050565b60008115159050919050565b61206881612053565b82525050565b6000602082019050612083600083018461205f565b92915050565b6000806000606084860312156120a2576120a1611f57565b5b60006120b086828701611ffe565b93505060206120c186828701611ffe565b92505060406120d286828701611f73565b9150509250925092565b600060ff82169050919050565b6120f2816120dc565b82525050565b600060208201905061210d60008301846120e9565b92915050565b61211c81611fd5565b82525050565b60006020820190506121376000830184612113565b92915050565b60006020828403121561215357612152611f57565b5b600061216184828501611ffe565b91505092915050565b6000806040838503121561218157612180611f57565b5b600061218f85828601611f73565b92505060206121a085828601611ffe565b9150509250929050565b60006060820190506121bf6000830186611e7b565b6121cc6020830185611e7b565b6121d96040830184611e7b565b949350505050565b6000806000606084860312156121fa576121f9611f57565b5b600061220886828701611f73565b935050602061221986828701611ffe565b925050604061222a86828701611ffe565b9150509250925092565b61223d81611e71565b82525050565b6060820160008201516122596000850182612234565b50602082015161226c6020850182612234565b50604082015161227f6040850182612234565b50505050565b600060608201905061229a6000830184612243565b92915050565b600080604083850312156122b7576122b6611f57565b5b60006122c585828601611ffe565b92505060206122d685828601611ffe565b9150509250929050565b6000815190506122ef81611f5c565b92915050565b60006020828403121561230b5761230a611f57565b5b6000612319848285016122e0565b91505092915050565b7f4e487b7100000000000000000000000000000000000000000000000000000000600052602260045260246000fd5b6000600282049050600182168061236957607f821691505b60208210810361237c5761237b612322565b5b50919050565b7f4e487b7100000000000000000000000000000000000000000000000000000000600052601160045260246000fd5b60006123bc826120dc565b91506123c7836120dc565b9250828201905060ff8111156123e0576123df612382565b5b92915050565b60006060820190506123fb6000830186612113565b6124086020830185611e7b565b6124156040830184611e7b565b949350505050565b7f414c52454144595f524551554553544544000000000000000000000000000000600082015250565b6000612453601183611eb0565b915061245e8261241d565b602082019050919050565b6000602082019050818103600083015261248281612446565b9050919050565b600061249482611e71565b915061249f83611e71565b92508282039050818111156124b7576124b6612382565b5b92915050565b60006124c882611e71565b91507fffffffffffffffffffffffffffffffffffffffffffffffffffffffffffffffff82036124fa576124f9612382565b5b600182019050919050565b600061251082611e71565b915061251b83611e71565b925082820190508082111561253357612532612382565b5b92915050565b7f4e4f545f554e4c4f434b45440000000000000000000000000000000000000000600082015250565b600061256f600c83611eb0565b915061257a82612539565b602082019050919050565b6000602082019050818103600083015261259e81612562565b9050919050565b60008160011c9050919050565b6000808291508390505b60018511156125fc578086048111156125d8576125d7612382565b5b60018516156125e75780820291505b80810290506125f5856125a5565b94506125bc565b94509492505050565b60008261261557600190506126d1565b8161262357600090506126d1565b8160018114612639576002811461264357612672565b60019150506126d1565b60ff84111561265557612654612382565b5b8360020a91508482111561266c5761266b612382565b5b506126d1565b5060208310610133831016604e8410600b84101617156126a75782820a9050838111156126a2576126a1612382565b5b6126d1565b6126b484848460016125b2565b925090508184048111156126cb576126ca612382565b5b81810290505b9392505050565b60006126e382611e71565b91506126ee836120dc565b925061271b7fffffffffffffffffffffffffffffffffffffffffffffffffffffffffffffffff8484612605565b905092915050565b60006040820190506127386000830185611e7b565b6127456020830184611e7b565b9392505050565b7f4e487b7100000000000000000000000000000000000000000000000000000000600052601260045260246000fd5b60006060820190506127906000830186612113565b61279d6020830185612113565b6127aa6040830184611e7b565b949350505050565b60006040820190506127c76000830185612113565b6127d46020830184611e7b565b9392505050565b7f4e487b7100000000000000000000000000000000000000000000000000000000600052602160045260246000fd5b6000612815826120dc565b9150612820836120dc565b9250826128305761282f61274c565b5b828206905092915050565b61284481612053565b811461284f57600080fd5b50565b6000815190506128618161283b565b92915050565b60006020828403121561287d5761287c611f57565b5b600061288b84828501612852565b91505092915050565b600081519050919050565b600081905092915050565b60006128b582612894565b6128bf818561289f565b93506128cf818560208601611ec1565b80840191505092915050565b60006128e782846128aa565b91508190509291505056fea2646970667358221220409571114d5e8f9fb0e2e38ca45298d60f65ca0fbf2fe415434b17a10e98909664736f6c63430008170033","linkReferences":{}},"methodIdentifiers":{"allowance(address,address)":"dd62ed3e","approve(address,uint256)":"095ea7b3","asset()":"38d52e0f","balanceOf(address)":"70a08231","cancelUnlock(address)":"eebffc92","convertToAssets(uint256)":"07a2d13a","convertToShares(uint256)":"c6e6f592","decimals()":"313ce567","deposit(uint256,address)":"6e553f65","getLockPeriod()":"e43db193","lockPeriod()":"3fd8b02f","maxDeposit(address)":"402d267d","maxMint(address)":"c63d75b6","maxRedeem(address)":"d905777e","maxWithdraw(address)":"ce96cb77","mint(uint256,address)":"94bf804d","name()":"06fdde03","previewDeposit(uint256)":"ef8b30f7","previewMint(uint256)":"b3d7f6b9","previewRedeem(uint256)":"4cdad506","previewWithdraw(uint256)":"0a28a477","redeem(uint256,address,address)":"ba087652","requestId()":"006d6cae","requestUnlock(uint256,address)":"df6feb48","requests(address)":"74adad1d","symbol()":"95d89b41","totalAssets()":"01e1d114","totalSupply()":"18160ddd","transfer(address,uint256)":"a9059cbb","transferFrom(address,address,uint256)":"23b872dd","userUnlockRequests(address)":"c88e0b23","withdraw(uint256,address,address)":"b460af94"},"id":324}