{"abi":[{"type":"function","name":"startBridgeTokensViaCBridgeERC20Min","inputs":[{"name":"transactionId","type":"bytes32","internalType":"bytes32"},{"name":"receiver","type":"address","internalType":"address"},{"name":"destinationChainId","type":"uint64","internalType":"uint64"},{"name":"sendingAssetId","type":"address","internalType":"address"},{"name":"amount","type":"uint256","internalType":"uint256"},{"name":"nonce","type":"uint64","internalType":"uint64"},{"name":"maxSlippage","type":"uint32","internalType":"uint32"}],"outputs":[],"stateMutability":"nonpayable"},{"type":"function","name":"startBridgeTokensViaCBridgeERC20Packed","inputs":[],"outputs":[],"stateMutability":"nonpayable"},{"type":"function","name":"startBridgeTokensViaCBridgeNativeMin","inputs":[{"name":"transactionId","type":"bytes32","internalType":"bytes32"},{"name":"receiver","type":"address","internalType":"address"},{"name":"destinationChainId","type":"uint64","internalType":"uint64"},{"name":"nonce","type":"uint64","internalType":"uint64"},{"name":"maxSlippage","type":"uint32","internalType":"uint32"}],"outputs":[],"stateMutability":"payable"},{"type":"function","name":"startBridgeTokensViaCBridgeNativePacked","inputs":[],"outputs":[],"stateMutability":"payable"}],"bytecode":{"object":"0x608060405234801561001057600080fd5b5061035b806100206000396000f3fe60806040526004361061003e5760003560e01c806278afb6146100435780630193979f1461004d578063dee4be1b14610069578063f684869714610092575b600080fd5b61004b6100a9565b005b610067600480360381019061006291906101d2565b6100ab565b005b34801561007557600080fd5b50610090600480360381019061008b9190610283565b6100b2565b005b34801561009e57600080fd5b506100a76100bb565b005b565b5050505050565b50505050505050565b565b600080fd5b6000819050919050565b6100d5816100c2565b81146100e057600080fd5b50565b6000813590506100f2816100cc565b92915050565b600073ffffffffffffffffffffffffffffffffffffffff82169050919050565b6000610123826100f8565b9050919050565b61013381610118565b811461013e57600080fd5b50565b6000813590506101508161012a565b92915050565b600067ffffffffffffffff82169050919050565b61017381610156565b811461017e57600080fd5b50565b6000813590506101908161016a565b92915050565b600063ffffffff82169050919050565b6101af81610196565b81146101ba57600080fd5b50565b6000813590506101cc816101a6565b92915050565b600080600080600060a086880312156101ee576101ed6100bd565b5b60006101fc888289016100e3565b955050602061020d88828901610141565b945050604061021e88828901610181565b935050606061022f88828901610181565b9250506080610240888289016101bd565b9150509295509295909350565b6000819050919050565b6102608161024d565b811461026b57600080fd5b50565b60008135905061027d81610257565b92915050565b600080600080600080600060e0888a0312156102a2576102a16100bd565b5b60006102b08a828b016100e3565b97505060206102c18a828b01610141565b96505060406102d28a828b01610181565b95505060606102e38a828b01610141565b94505060806102f48a828b0161026e565b93505060a06103058a828b01610181565b92505060c06103168a828b016101bd565b9150509295989194975092955056fea2646970667358221220a976e7b1fe08527ed88c4de506b5af4dfb492abdb45464e20a3fb4805325000b64736f6c63430008170033","linkReferences":{}},"methodIdentifiers":{"startBridgeTokensViaCBridgeERC20Min(bytes32,address,uint64,address,uint256,uint64,uint32)":"dee4be1b","startBridgeTokensViaCBridgeERC20Packed()":"f6848697","startBridgeTokensViaCBridgeNativeMin(bytes32,address,uint64,uint64,uint32)":"0193979f","startBridgeTokensViaCBridgeNativePacked()":"0078afb6"},"id":197}