{"abi":[{"type":"function","name":"etchCodeAndDelegateCall","inputs":[{"name":"dest","type":"address","internalType":"address"},{"name":"cd","type":"bytes","internalType":"bytes"},{"name":"code","type":"bytes","internalType":"bytes"}],"outputs":[],"stateMutability":"payable"}],"bytecode":{"object":"0x608060405234801561001057600080fd5b50610452806100206000396000f3fe60806040526004361061001e5760003560e01c80638dde92c014610023575b600080fd5b61003d6004803603810190610038919061030d565b61003f565b005b7f885cb69240a935d632d79c317109709ecfa91a80626ff3989d68f67f5b1dd12d60001c73ffffffffffffffffffffffffffffffffffffffff1663b4d6c7823084846040518463ffffffff1660e01b815260040161009f939291906103ea565b600060405180830381600087803b1580156100b957600080fd5b505af11580156100cd573d6000803e3d6000fd5b50505050600080845160208601875af43d6000803e80600081146100f0573d6000f35b3d6000fd5b6000604051905090565b600080fd5b600080fd5b600073ffffffffffffffffffffffffffffffffffffffff82169050919050565b600061013482610109565b9050919050565b61014481610129565b811461014f57600080fd5b50565b6000813590506101618161013b565b92915050565b600080fd5b600080fd5b6000601f19601f8301169050919050565b7f4e487b7100000000000000000000000000000000000000000000000000000000600052604160045260246000fd5b6101ba82610171565b810181811067ffffffffffffffff821117156101d9576101d8610182565b5b80604052505050565b60006101ec6100f5565b90506101f882826101b1565b919050565b600067ffffffffffffffff82111561021857610217610182565b5b61022182610171565b9050602081019050919050565b82818337600083830152505050565b600061025061024b846101fd565b6101e2565b90508281526020810184848401111561026c5761026b61016c565b5b61027784828561022e565b509392505050565b600082601f83011261029457610293610167565b5b81356102a484826020860161023d565b91505092915050565b600080fd5b600080fd5b60008083601f8401126102cd576102cc610167565b5b8235905067ffffffffffffffff8111156102ea576102e96102ad565b5b602083019150836001820283011115610306576103056102b2565b5b9250929050565b60008060008060608587031215610327576103266100ff565b5b600061033587828801610152565b945050602085013567ffffffffffffffff81111561035657610355610104565b5b6103628782880161027f565b935050604085013567ffffffffffffffff81111561038357610382610104565b5b61038f878288016102b7565b925092505092959194509250565b6103a681610129565b82525050565b600082825260208201905092915050565b60006103c983856103ac565b93506103d683858461022e565b6103df83610171565b840190509392505050565b60006040820190506103ff600083018661039d565b81810360208301526104128184866103bd565b905094935050505056fea2646970667358221220a521272ea19885c155f9cdd8e35fb1edbe1a789f90bfeb1899cc170e0961c6e764736f6c63430008170033","linkReferences":{}},"methodIdentifiers":{"etchCodeAndDelegateCall(address,bytes,bytes)":"8dde92c0"},"id":107}