{"abi":[{"type":"function","name":"delegatePrank","inputs":[{"name":"from","type":"address","internalType":"address"},{"name":"to","type":"address","internalType":"address"},{"name":"cd","type":"bytes","internalType":"bytes"}],"outputs":[{"name":"success","type":"bool","internalType":"bool"},{"name":"ret","type":"bytes","internalType":"bytes"}],"stateMutability":"nonpayable"}],"bytecode":{"object":"0x608060405261001261006460201b60201c565b600760006101000a81548173ffffffffffffffffffffffffffffffffffffffff021916908373ffffffffffffffffffffffffffffffffffffffff16021790555034801561005e57600080fd5b506100a1565b600060405161007290610094565b604051809103906000f08015801561008e573d6000803e3d6000fd5b50905090565b6104728061073b83390190565b61068b806100b06000396000f3fe608060405234801561001057600080fd5b506004361061002b5760003560e01c8063c192556614610030575b600080fd5b61004a60048036038101906100459190610445565b610061565b60405161005892919061054e565b60405180910390f35b6000606060008573ffffffffffffffffffffffffffffffffffffffff16803b806020016040519081016040528181526000908060200190933c90507f885cb69240a935d632d79c317109709ecfa91a80626ff3989d68f67f5b1dd12d60001c73ffffffffffffffffffffffffffffffffffffffff1663b4d6c78287600760009054906101000a900473ffffffffffffffffffffffffffffffffffffffff1673ffffffffffffffffffffffffffffffffffffffff16803b806020016040519081016040528181526000908060200190933c6040518363ffffffff1660e01b815260040161014e92919061058d565b600060405180830381600087803b15801561016857600080fd5b505af115801561017c573d6000803e3d6000fd5b505050508573ffffffffffffffffffffffffffffffffffffffff16600760009054906101000a900473ffffffffffffffffffffffffffffffffffffffff1673ffffffffffffffffffffffffffffffffffffffff16638dde92c08787856040516024016101ea939291906105bd565b604051602081830303815290604052915060e01b6020820180517bffffffffffffffffffffffffffffffffffffffffffffffffffffffff8381831617835250505050604051610239919061063e565b6000604051808303816000865af19150503d8060008114610276576040519150601f19603f3d011682016040523d82523d6000602084013e61027b565b606091505b50809350819450505050935093915050565b6000604051905090565b600080fd5b600080fd5b600073ffffffffffffffffffffffffffffffffffffffff82169050919050565b60006102cc826102a1565b9050919050565b6102dc816102c1565b81146102e757600080fd5b50565b6000813590506102f9816102d3565b92915050565b600080fd5b600080fd5b6000601f19601f8301169050919050565b7f4e487b7100000000000000000000000000000000000000000000000000000000600052604160045260246000fd5b61035282610309565b810181811067ffffffffffffffff821117156103715761037061031a565b5b80604052505050565b600061038461028d565b90506103908282610349565b919050565b600067ffffffffffffffff8211156103b0576103af61031a565b5b6103b982610309565b9050602081019050919050565b82818337600083830152505050565b60006103e86103e384610395565b61037a565b90508281526020810184848401111561040457610403610304565b5b61040f8482856103c6565b509392505050565b600082601f83011261042c5761042b6102ff565b5b813561043c8482602086016103d5565b91505092915050565b60008060006060848603121561045e5761045d610297565b5b600061046c868287016102ea565b935050602061047d868287016102ea565b925050604084013567ffffffffffffffff81111561049e5761049d61029c565b5b6104aa86828701610417565b9150509250925092565b60008115159050919050565b6104c9816104b4565b82525050565b600081519050919050565b600082825260208201905092915050565b60005b838110156105095780820151818401526020810190506104ee565b60008484015250505050565b6000610520826104cf565b61052a81856104da565b935061053a8185602086016104eb565b61054381610309565b840191505092915050565b600060408201905061056360008301856104c0565b81810360208301526105758184610515565b90509392505050565b610587816102c1565b82525050565b60006040820190506105a2600083018561057e565b81810360208301526105b48184610515565b90509392505050565b60006060820190506105d2600083018661057e565b81810360208301526105e48185610515565b905081810360408301526105f88184610515565b9050949350505050565b600081905092915050565b6000610618826104cf565b6106228185610602565b93506106328185602086016104eb565b80840191505092915050565b600061064a828461060d565b91508190509291505056fea2646970667358221220973841bc4cf34b6e40df6bda7eced9ff1bdee6e06273c9cae68d83c81b88053264736f6c63430008170033608060405234801561001057600080fd5b50610452806100206000396000f3fe60806040526004361061001e5760003560e01c80638dde92c014610023575b600080fd5b61003d6004803603810190610038919061030d565b61003f565b005b7f885cb69240a935d632d79c317109709ecfa91a80626ff3989d68f67f5b1dd12d60001c73ffffffffffffffffffffffffffffffffffffffff1663b4d6c7823084846040518463ffffffff1660e01b815260040161009f939291906103ea565b600060405180830381600087803b1580156100b957600080fd5b505af11580156100cd573d6000803e3d6000fd5b50505050600080845160208601875af43d6000803e80600081146100f0573d6000f35b3d6000fd5b6000604051905090565b600080fd5b600080fd5b600073ffffffffffffffffffffffffffffffffffffffff82169050919050565b600061013482610109565b9050919050565b61014481610129565b811461014f57600080fd5b50565b6000813590506101618161013b565b92915050565b600080fd5b600080fd5b6000601f19601f8301169050919050565b7f4e487b7100000000000000000000000000000000000000000000000000000000600052604160045260246000fd5b6101ba82610171565b810181811067ffffffffffffffff821117156101d9576101d8610182565b5b80604052505050565b60006101ec6100f5565b90506101f882826101b1565b919050565b600067ffffffffffffffff82111561021857610217610182565b5b61022182610171565b9050602081019050919050565b82818337600083830152505050565b600061025061024b846101fd565b6101e2565b90508281526020810184848401111561026c5761026b61016c565b5b61027784828561022e565b509392505050565b600082601f83011261029457610293610167565b5b81356102a484826020860161023d565b91505092915050565b600080fd5b600080fd5b60008083601f8401126102cd576102cc610167565b5b8235905067ffffffffffffffff8111156102ea576102e96102ad565b5b602083019150836001820283011115610306576103056102b2565b5b9250929050565b60008060008060608587031215610327576103266100ff565b5b600061033587828801610152565b945050602085013567ffffffffffffffff81111561035657610355610104565b5b6103628782880161027f565b935050604085013567ffffffffffffffff81111561038357610382610104565b5b61038f878288016102b7565b925092505092959194509250565b6103a681610129565b82525050565b600082825260208201905092915050565b60006103c983856103ac565b93506103d683858461022e565b6103df83610171565b840190509392505050565b60006040820190506103ff600083018661039d565b81810360208301526104128184866103bd565b905094935050505056fea2646970667358221220a521272ea19885c155f9cdd8e35fb1edbe1a789f90bfeb1899cc170e0961c6e764736f6c63430008170033","linkReferences":{}},"methodIdentifiers":{"delegatePrank(address,address,bytes)":"c1925566"},"id":107}