{"abi":[{"type":"constructor","inputs":[{"name":"superRegistry_","type":"address","internalType":"address"}],"stateMutability":"nonpayable"},{"type":"function","name":"CHAIN_ID","inputs":[],"outputs":[{"name":"","type":"uint64","internalType":"uint64"}],"stateMutability":"view"},{"type":"function","name":"asset","inputs":[],"outputs":[{"name":"","type":"address","internalType":"address"}],"stateMutability":"view"},{"type":"function","name":"directDepositIntoVault","inputs":[{"name":"singleVaultData_","type":"tuple","internalType":"struct InitSingleVaultData","components":[{"name":"payloadId","type":"uint256","internalType":"uint256"},{"name":"superformId","type":"uint256","internalType":"uint256"},{"name":"amount","type":"uint256","internalType":"uint256"},{"name":"outputAmount","type":"uint256","internalType":"uint256"},{"name":"maxSlippage","type":"uint256","internalType":"uint256"},{"name":"liqData","type":"tuple","internalType":"struct LiqRequest","components":[{"name":"txData","type":"bytes","internalType":"bytes"},{"name":"token","type":"address","internalType":"address"},{"name":"interimToken","type":"address","internalType":"address"},{"name":"bridgeId","type":"uint8","internalType":"uint8"},{"name":"liqDstChainId","type":"uint64","internalType":"uint64"},{"name":"nativeAmount","type":"uint256","internalType":"uint256"}]},{"name":"hasDstSwap","type":"bool","internalType":"bool"},{"name":"retain4626","type":"bool","internalType":"bool"},{"name":"receiverAddress","type":"address","internalType":"address"},{"name":"extraFormData","type":"bytes","internalType":"bytes"}]},{"name":"srcSender_","type":"address","internalType":"address"}],"outputs":[{"name":"shares","type":"uint256","internalType":"uint256"}],"stateMutability":"payable"},{"type":"function","name":"directWithdrawFromVault","inputs":[{"name":"singleVaultData_","type":"tuple","internalType":"struct InitSingleVaultData","components":[{"name":"payloadId","type":"uint256","internalType":"uint256"},{"name":"superformId","type":"uint256","internalType":"uint256"},{"name":"amount","type":"uint256","internalType":"uint256"},{"name":"outputAmount","type":"uint256","internalType":"uint256"},{"name":"maxSlippage","type":"uint256","internalType":"uint256"},{"name":"liqData","type":"tuple","internalType":"struct LiqRequest","components":[{"name":"txData","type":"bytes","internalType":"bytes"},{"name":"token","type":"address","internalType":"address"},{"name":"interimToken","type":"address","internalType":"address"},{"name":"bridgeId","type":"uint8","internalType":"uint8"},{"name":"liqDstChainId","type":"uint64","internalType":"uint64"},{"name":"nativeAmount","type":"uint256","internalType":"uint256"}]},{"name":"hasDstSwap","type":"bool","internalType":"bool"},{"name":"retain4626","type":"bool","internalType":"bool"},{"name":"receiverAddress","type":"address","internalType":"address"},{"name":"extraFormData","type":"bytes","internalType":"bytes"}]},{"name":"srcSender_","type":"address","internalType":"address"}],"outputs":[{"name":"assets","type":"uint256","internalType":"uint256"}],"stateMutability":"nonpayable"},{"type":"function","name":"emergencyWithdraw","inputs":[{"name":"receiverAddress_","type":"address","internalType":"address"},{"name":"amount_","type":"uint256","internalType":"uint256"}],"outputs":[],"stateMutability":"nonpayable"},{"type":"function","name":"forwardDustToPaymaster","inputs":[{"name":"token_","type":"address","internalType":"address"}],"outputs":[],"stateMutability":"nonpayable"},{"type":"function","name":"getPreviewPricePerVaultShare","inputs":[],"outputs":[{"name":"","type":"uint256","internalType":"uint256"}],"stateMutability":"view"},{"type":"function","name":"getPricePerVaultShare","inputs":[],"outputs":[{"name":"","type":"uint256","internalType":"uint256"}],"stateMutability":"view"},{"type":"function","name":"getStateRegistryId","inputs":[],"outputs":[{"name":"","type":"uint8","internalType":"uint8"}],"stateMutability":"view"},{"type":"function","name":"getTotalAssets","inputs":[],"outputs":[{"name":"","type":"uint256","internalType":"uint256"}],"stateMutability":"view"},{"type":"function","name":"getTotalSupply","inputs":[],"outputs":[{"name":"","type":"uint256","internalType":"uint256"}],"stateMutability":"view"},{"type":"function","name":"getVaultAddress","inputs":[],"outputs":[{"name":"","type":"address","internalType":"address"}],"stateMutability":"view"},{"type":"function","name":"getVaultAsset","inputs":[],"outputs":[{"name":"","type":"address","internalType":"address"}],"stateMutability":"view"},{"type":"function","name":"getVaultDecimals","inputs":[],"outputs":[{"name":"","type":"uint256","internalType":"uint256"}],"stateMutability":"view"},{"type":"function","name":"getVaultName","inputs":[],"outputs":[{"name":"","type":"string","internalType":"string"}],"stateMutability":"view"},{"type":"function","name":"getVaultShareBalance","inputs":[],"outputs":[{"name":"","type":"uint256","internalType":"uint256"}],"stateMutability":"view"},{"type":"function","name":"getVaultSymbol","inputs":[],"outputs":[{"name":"","type":"string","internalType":"string"}],"stateMutability":"view"},{"type":"function","name":"initialize","inputs":[{"name":"superRegistry_","type":"address","internalType":"address"},{"name":"vault_","type":"address","internalType":"address"},{"name":"asset_","type":"address","internalType":"address"}],"outputs":[],"stateMutability":"nonpayable"},{"type":"function","name":"mintKYC","inputs":[{"name":"authCode_","type":"uint32","internalType":"uint32"}],"outputs":[],"stateMutability":"nonpayable"},{"type":"function","name":"onERC721Received","inputs":[{"name":"","type":"address","internalType":"address"},{"name":"","type":"address","internalType":"address"},{"name":"","type":"uint256","internalType":"uint256"},{"name":"","type":"bytes","internalType":"bytes"}],"outputs":[{"name":"","type":"bytes4","internalType":"bytes4"}],"stateMutability":"nonpayable"},{"type":"function","name":"previewDepositTo","inputs":[{"name":"assets_","type":"uint256","internalType":"uint256"}],"outputs":[{"name":"","type":"uint256","internalType":"uint256"}],"stateMutability":"view"},{"type":"function","name":"previewRedeemFrom","inputs":[{"name":"shares_","type":"uint256","internalType":"uint256"}],"outputs":[{"name":"","type":"uint256","internalType":"uint256"}],"stateMutability":"view"},{"type":"function","name":"previewWithdrawFrom","inputs":[{"name":"assets_","type":"uint256","internalType":"uint256"}],"outputs":[{"name":"","type":"uint256","internalType":"uint256"}],"stateMutability":"view"},{"type":"function","name":"superRegistry","inputs":[],"outputs":[{"name":"","type":"address","internalType":"contract ISuperRegistry"}],"stateMutability":"view"},{"type":"function","name":"superformYieldTokenName","inputs":[],"outputs":[{"name":"","type":"string","internalType":"string"}],"stateMutability":"view"},{"type":"function","name":"superformYieldTokenSymbol","inputs":[],"outputs":[{"name":"","type":"string","internalType":"string"}],"stateMutability":"view"},{"type":"function","name":"supportsInterface","inputs":[{"name":"interfaceId_","type":"bytes4","internalType":"bytes4"}],"outputs":[{"name":"","type":"bool","internalType":"bool"}],"stateMutability":"view"},{"type":"function","name":"vault","inputs":[],"outputs":[{"name":"","type":"address","internalType":"address"}],"stateMutability":"view"},{"type":"function","name":"xChainDepositIntoVault","inputs":[{"name":"singleVaultData_","type":"tuple","internalType":"struct InitSingleVaultData","components":[{"name":"payloadId","type":"uint256","internalType":"uint256"},{"name":"superformId","type":"uint256","internalType":"uint256"},{"name":"amount","type":"uint256","internalType":"uint256"},{"name":"outputAmount","type":"uint256","internalType":"uint256"},{"name":"maxSlippage","type":"uint256","internalType":"uint256"},{"name":"liqData","type":"tuple","internalType":"struct LiqRequest","components":[{"name":"txData","type":"bytes","internalType":"bytes"},{"name":"token","type":"address","internalType":"address"},{"name":"interimToken","type":"address","internalType":"address"},{"name":"bridgeId","type":"uint8","internalType":"uint8"},{"name":"liqDstChainId","type":"uint64","internalType":"uint64"},{"name":"nativeAmount","type":"uint256","internalType":"uint256"}]},{"name":"hasDstSwap","type":"bool","internalType":"bool"},{"name":"retain4626","type":"bool","internalType":"bool"},{"name":"receiverAddress","type":"address","internalType":"address"},{"name":"extraFormData","type":"bytes","internalType":"bytes"}]},{"name":"srcSender_","type":"address","internalType":"address"},{"name":"srcChainId_","type":"uint64","internalType":"uint64"}],"outputs":[{"name":"shares","type":"uint256","internalType":"uint256"}],"stateMutability":"nonpayable"},{"type":"function","name":"xChainWithdrawFromVault","inputs":[{"name":"singleVaultData_","type":"tuple","internalType":"struct InitSingleVaultData","components":[{"name":"payloadId","type":"uint256","internalType":"uint256"},{"name":"superformId","type":"uint256","internalType":"uint256"},{"name":"amount","type":"uint256","internalType":"uint256"},{"name":"outputAmount","type":"uint256","internalType":"uint256"},{"name":"maxSlippage","type":"uint256","internalType":"uint256"},{"name":"liqData","type":"tuple","internalType":"struct LiqRequest","components":[{"name":"txData","type":"bytes","internalType":"bytes"},{"name":"token","type":"address","internalType":"address"},{"name":"interimToken","type":"address","internalType":"address"},{"name":"bridgeId","type":"uint8","internalType":"uint8"},{"name":"liqDstChainId","type":"uint64","internalType":"uint64"},{"name":"nativeAmount","type":"uint256","internalType":"uint256"}]},{"name":"hasDstSwap","type":"bool","internalType":"bool"},{"name":"retain4626","type":"bool","internalType":"bool"},{"name":"receiverAddress","type":"address","internalType":"address"},{"name":"extraFormData","type":"bytes","internalType":"bytes"}]},{"name":"srcSender_","type":"address","internalType":"address"},{"name":"srcChainId_","type":"uint64","internalType":"uint64"}],"outputs":[{"name":"assets","type":"uint256","internalType":"uint256"}],"stateMutability":"nonpayable"},{"type":"event","name":"EmergencyWithdrawalProcessed","inputs":[{"name":"refundAddress","type":"address","indexed":true,"internalType":"address"},{"name":"amount","type":"uint256","indexed":true,"internalType":"uint256"}],"anonymous":false},{"type":"event","name":"FormDustForwardedToPaymaster","inputs":[{"name":"token","type":"address","indexed":true,"internalType":"address"},{"name":"amount","type":"uint256","indexed":true,"internalType":"uint256"}],"anonymous":false},{"type":"event","name":"Initialized","inputs":[{"name":"version","type":"uint64","indexed":false,"internalType":"uint64"}],"anonymous":false},{"type":"event","name":"Processed","inputs":[{"name":"srcChainID","type":"uint64","indexed":true,"internalType":"uint64"},{"name":"dstChainId","type":"uint64","indexed":true,"internalType":"uint64"},{"name":"srcPayloadId","type":"uint256","indexed":true,"internalType":"uint256"},{"name":"amount","type":"uint256","indexed":false,"internalType":"uint256"},{"name":"vault","type":"address","indexed":false,"internalType":"address"}],"anonymous":false},{"type":"event","name":"VaultAdded","inputs":[{"name":"id","type":"uint256","indexed":true,"internalType":"uint256"},{"name":"vault","type":"address","indexed":true,"internalType":"contract IERC4626"}],"anonymous":false},{"type":"error","name":"AddressEmptyCode","inputs":[{"name":"target","type":"address","internalType":"address"}]},{"type":"error","name":"AddressInsufficientBalance","inputs":[{"name":"account","type":"address","internalType":"address"}]},{"type":"error","name":"BLOCK_CHAIN_ID_OUT_OF_BOUNDS","inputs":[]},{"type":"error","name":"CANNOT_FORWARD_4646_TOKEN","inputs":[]},{"type":"error","name":"DIFFERENT_TOKENS","inputs":[]},{"type":"error","name":"DIRECT_DEPOSIT_SWAP_FAILED","inputs":[]},{"type":"error","name":"DIRECT_WITHDRAW_INVALID_LIQ_REQUEST","inputs":[]},{"type":"error","name":"FAILED_TO_EXECUTE_TXDATA","inputs":[{"name":"token","type":"address","internalType":"address"}]},{"type":"error","name":"FailedInnerCall","inputs":[]},{"type":"error","name":"INSUFFICIENT_ALLOWANCE_FOR_DEPOSIT","inputs":[]},{"type":"error","name":"INSUFFICIENT_BALANCE","inputs":[]},{"type":"error","name":"INSUFFICIENT_NATIVE_AMOUNT","inputs":[]},{"type":"error","name":"INVALID_CHAIN_ID","inputs":[]},{"type":"error","name":"InvalidInitialization","inputs":[]},{"type":"error","name":"NOT_CORE_STATE_REGISTRY","inputs":[]},{"type":"error","name":"NOT_EMERGENCY_QUEUE","inputs":[]},{"type":"error","name":"NOT_IMPLEMENTED","inputs":[]},{"type":"error","name":"NOT_PROTOCOL_ADMIN","inputs":[]},{"type":"error","name":"NOT_SUPERFORM_ROUTER","inputs":[]},{"type":"error","name":"NOT_SUPER_REGISTRY","inputs":[]},{"type":"error","name":"NO_VALID_KYC_TOKEN","inputs":[]},{"type":"error","name":"NotInitializing","inputs":[]},{"type":"error","name":"PAUSED","inputs":[]},{"type":"error","name":"SUPERFORM_ID_NONEXISTENT","inputs":[]},{"type":"error","name":"SafeERC20FailedOperation","inputs":[{"name":"token","type":"address","internalType":"address"}]},{"type":"error","name":"VAULT_IMPLEMENTATION_FAILED","inputs":[]},{"type":"error","name":"WITHDRAW_ZERO_COLLATERAL","inputs":[]},{"type":"error","name":"ZERO_ADDRESS","inputs":[]},{"type":"error","name":"ZERO_AMOUNT","inputs":[]}],"bytecode":{"object":"0x60e06040523480156200001157600080fd5b5060405162006a1d38038062006a1d83398181016040528101906200003791906200037d565b80600181600073ffffffffffffffffffffffffffffffffffffffff168173ffffffffffffffffffffffffffffffffffffffff1603620000a2576040517f538ba4f900000000000000000000000000000000000000000000000000000000815260040160405180910390fd5b67ffffffffffffffff8016461115620000e7576040517f7ecdf93300000000000000000000000000000000000000000000000000000000815260040160405180910390fd5b4667ffffffffffffffff1660a08167ffffffffffffffff16815250508073ffffffffffffffffffffffffffffffffffffffff1660808173ffffffffffffffffffffffffffffffffffffffff168152505062000147620001e160201b60201c565b5060805173ffffffffffffffffffffffffffffffffffffffff166357203ab4826040518263ffffffff1660e01b8152600401620001859190620003cd565b602060405180830381865afa158015620001a3573d6000803e3d6000fd5b505050506040513d601f19601f82011682018060405250810190620001c991906200037d565b508060ff1660c08160ff16815250505050506200042c565b6000620001f3620002eb60201b60201c565b90508060000160089054906101000a900460ff16156200023f576040517ff92ee8a900000000000000000000000000000000000000000000000000000000815260040160405180910390fd5b67ffffffffffffffff80168160000160009054906101000a900467ffffffffffffffff1667ffffffffffffffff1614620002e85767ffffffffffffffff8160000160006101000a81548167ffffffffffffffff021916908367ffffffffffffffff1602179055507fc7f505b2f371ae2175ee4913f4499e1f2633a7b5936321eed1cdaeb6115181d267ffffffffffffffff604051620002df91906200040f565b60405180910390a15b50565b60007ff0c57e16840df040f15088dc2f81fe391c3923bec73e23a9662efc9c229c6a00905090565b600080fd5b600073ffffffffffffffffffffffffffffffffffffffff82169050919050565b6000620003458262000318565b9050919050565b620003578162000338565b81146200036357600080fd5b50565b60008151905062000377816200034c565b92915050565b60006020828403121562000396576200039562000313565b5b6000620003a68482850162000366565b91505092915050565b600060ff82169050919050565b620003c781620003af565b82525050565b6000602082019050620003e46000830184620003bc565b92915050565b600067ffffffffffffffff82169050919050565b6200040981620003ea565b82525050565b6000602082019050620004266000830184620003fe565b92915050565b60805160a05160c051616520620004fd600039600061115b015260008181611135015281816116ce015281816124e1015281816134e50152613de3015260008181610a1101528181610ed001528181611181015281816112c6015281816113ce0152818161154e015281816118db015281816119e301528181611b6301528181611e030152818161215701528181612280015281816123c40152818161254201528181612a3501528181612db40152818161340c0152818161383a01528181613c2e0152613f7f01526165206000f3fe6080604052600436106101cd5760003560e01c806385e1f4d0116100f7578063b923277511610095578063cb829dc311610064578063cb829dc314610699578063ef164fef146106d6578063fbfa77cf14610713578063ff5f3e481461073e576101cd565b8063b9232775146105ea578063c0c53b8b1461061a578063c32dcd8914610643578063c4e41b221461066e576101cd565b806395e4f1da116100d157806395e4f1da1461051a5780639f5376c114610557578063b60262ca14610582578063b7ba28cd146105ad576101cd565b806385e1f4d01461049b57806391deb882146104c657806395ccea67146104f1576101cd565b806337d250101161016f57806365cacaa41161013e57806365cacaa4146103f15780636e07302b1461041c5780637718806714610447578063771bfb7914610472576101cd565b806337d250101461033557806338d52e0f1461037257806338d92fd51461039d5780634dcd03c0146103c8576101cd565b806317a57e08116101ab57806317a57e081461028957806320592d98146102b457806324c73dda146102df57806335eda6801461030a576101cd565b806301ffc9a7146101d257806307c080f91461020f578063150b7a021461024c575b600080fd5b3480156101de57600080fd5b506101f960048036038101906101f49190614fb4565b610769565b6040516102069190614ffc565b60405180910390f35b34801561021b57600080fd5b506102366004803603810190610231919061504d565b6107e3565b6040516102439190615089565b60405180910390f35b34801561025857600080fd5b50610273600480360381019061026e9190615248565b610887565b60405161028091906152da565b60405180910390f35b34801561029557600080fd5b5061029e61089b565b6040516102ab9190615374565b60405180910390f35b3480156102c057600080fd5b506102c9610955565b6040516102d69190615374565b60405180910390f35b3480156102eb57600080fd5b506102f4610a0f565b60405161030191906153f5565b60405180910390f35b34801561031657600080fd5b5061031f610a33565b60405161032c9190615089565b60405180910390f35b34801561034157600080fd5b5061035c6004803603810190610357919061504d565b610ad5565b6040516103699190615089565b60405180910390f35b34801561037e57600080fd5b50610387610b79565b604051610394919061541f565b60405180910390f35b3480156103a957600080fd5b506103b2610b9f565b6040516103bf9190615089565b60405180910390f35b3480156103d457600080fd5b506103ef60048036038101906103ea919061543a565b610ce2565b005b3480156103fd57600080fd5b50610406610d73565b604051610413919061541f565b60405180910390f35b34801561042857600080fd5b50610431610d9c565b60405161043e9190615089565b60405180910390f35b34801561045357600080fd5b5061045c610e33565b6040516104699190615374565b60405180910390f35b34801561047e57600080fd5b50610499600480360381019061049491906154a3565b610ece565b005b3480156104a757600080fd5b506104b0611133565b6040516104bd91906154f3565b60405180910390f35b3480156104d257600080fd5b506104db611157565b6040516104e8919061552a565b60405180910390f35b3480156104fd57600080fd5b5061051860048036038101906105139190615545565b61117f565b005b34801561052657600080fd5b50610541600480360381019061053c91906157fd565b6112ab565b60405161054e9190615089565b60405180910390f35b34801561056357600080fd5b5061056c611757565b6040516105799190615374565b60405180910390f35b34801561058e57600080fd5b506105976117f2565b6040516105a4919061541f565b60405180910390f35b3480156105b957600080fd5b506105d460048036038101906105cf919061504d565b61181c565b6040516105e19190615089565b60405180910390f35b61060460048036038101906105ff919061586c565b6118c0565b6040516106119190615089565b60405180910390f35b34801561062657600080fd5b50610641600480360381019061063c91906158c8565b611cdf565b005b34801561064f57600080fd5b5061065861200b565b6040516106659190615089565b60405180910390f35b34801561067a57600080fd5b506106836120a5565b6040516106909190615089565b60405180910390f35b3480156106a557600080fd5b506106c060048036038101906106bb919061586c565b61213c565b6040516106cd9190615089565b60405180910390f35b3480156106e257600080fd5b506106fd60048036038101906106f891906157fd565b6123a9565b60405161070a9190615089565b60405180910390f35b34801561071f57600080fd5b506107286126a3565b604051610735919061541f565b60405180910390f35b34801561074a57600080fd5b506107536126c7565b6040516107609190615089565b60405180910390f35b60007f51fef147000000000000000000000000000000000000000000000000000000007bffffffffffffffffffffffffffffffffffffffffffffffffffffffff1916827bffffffffffffffffffffffffffffffffffffffffffffffffffffffff191614806107dc57506107db8261280a565b5b9050919050565b60008060009054906101000a900473ffffffffffffffffffffffffffffffffffffffff1673ffffffffffffffffffffffffffffffffffffffff1663c6e6f592836040518263ffffffff1660e01b815260040161083f9190615089565b602060405180830381865afa15801561085c573d6000803e3d6000fd5b505050506040513d601f19601f820116820180604052508101906108809190615930565b9050919050565b600063150b7a0260e01b9050949350505050565b606060008054906101000a900473ffffffffffffffffffffffffffffffffffffffff1673ffffffffffffffffffffffffffffffffffffffff166395d89b416040518163ffffffff1660e01b8152600401600060405180830381865afa158015610908573d6000803e3d6000fd5b505050506040513d6000823e3d601f19601f8201168201806040525081019061093191906159fe565b6040516020016109419190615acf565b604051602081830303815290604052905090565b606060008054906101000a900473ffffffffffffffffffffffffffffffffffffffff1673ffffffffffffffffffffffffffffffffffffffff166306fdde036040518163ffffffff1660e01b8152600401600060405180830381865afa1580156109c2573d6000803e3d6000fd5b505050506040513d6000823e3d601f19601f820116820180604052508101906109eb91906159fe565b6040516020016109fb9190615b3d565b604051602081830303815290604052905090565b7f000000000000000000000000000000000000000000000000000000000000000081565b60008060009054906101000a900473ffffffffffffffffffffffffffffffffffffffff1673ffffffffffffffffffffffffffffffffffffffff166370a08231306040518263ffffffff1660e01b8152600401610a8f919061541f565b602060405180830381865afa158015610aac573d6000803e3d6000fd5b505050506040513d601f19601f82011682018060405250810190610ad09190615930565b905090565b60008060009054906101000a900473ffffffffffffffffffffffffffffffffffffffff1673ffffffffffffffffffffffffffffffffffffffff16630a28a477836040518263ffffffff1660e01b8152600401610b319190615089565b602060405180830381865afa158015610b4e573d6000803e3d6000fd5b505050506040513d601f19601f82011682018060405250810190610b729190615930565b9050919050565b600160009054906101000a900473ffffffffffffffffffffffffffffffffffffffff1681565b60008060008054906101000a900473ffffffffffffffffffffffffffffffffffffffff1673ffffffffffffffffffffffffffffffffffffffff1663313ce5676040518163ffffffff1660e01b8152600401602060405180830381865afa158015610c0d573d6000803e3d6000fd5b505050506040513d601f19601f82011682018060405250810190610c319190615b74565b60ff16905060008054906101000a900473ffffffffffffffffffffffffffffffffffffffff1673ffffffffffffffffffffffffffffffffffffffff16634cdad50682600a610c7f9190615d03565b6040518263ffffffff1660e01b8152600401610c9b9190615089565b602060405180830381865afa158015610cb8573d6000803e3d6000fd5b505050506040513d601f19601f82011682018060405250810190610cdc9190615930565b91505090565b60008054906101000a900473ffffffffffffffffffffffffffffffffffffffff1673ffffffffffffffffffffffffffffffffffffffff168173ffffffffffffffffffffffffffffffffffffffff1603610d67576040517f6ba4485300000000000000000000000000000000000000000000000000000000815260040160405180910390fd5b610d7081612874565b50565b60008060009054906101000a900473ffffffffffffffffffffffffffffffffffffffff16905090565b60008060009054906101000a900473ffffffffffffffffffffffffffffffffffffffff1673ffffffffffffffffffffffffffffffffffffffff166301e1d1146040518163ffffffff1660e01b8152600401602060405180830381865afa158015610e0a573d6000803e3d6000fd5b505050506040513d601f19601f82011682018060405250810190610e2e9190615930565b905090565b606060008054906101000a900473ffffffffffffffffffffffffffffffffffffffff1673ffffffffffffffffffffffffffffffffffffffff166395d89b416040518163ffffffff1660e01b8152600401600060405180830381865afa158015610ea0573d6000803e3d6000fd5b505050506040513d6000823e3d601f19601f82011682018060405250810190610ec991906159fe565b905090565b7f000000000000000000000000000000000000000000000000000000000000000073ffffffffffffffffffffffffffffffffffffffff166321f8a7217f6b50fa17b77d24e42e27a04b69fe50cd6967cfb767d18de0bd5fe7e1a32aa8686040518263ffffffff1660e01b8152600401610f479190615d67565b602060405180830381865afa158015610f64573d6000803e3d6000fd5b505050506040513d601f19601f82011682018060405250810190610f889190615d97565b73ffffffffffffffffffffffffffffffffffffffff1663d35911f2336040518263ffffffff1660e01b8152600401610fc0919061541f565b602060405180830381865afa158015610fdd573d6000803e3d6000fd5b505050506040513d601f19601f820116820180604052508101906110019190615dd9565b611037576040517fdc85555400000000000000000000000000000000000000000000000000000000815260040160405180910390fd5b60008054906101000a900473ffffffffffffffffffffffffffffffffffffffff1673ffffffffffffffffffffffffffffffffffffffff16635a5a07546040518163ffffffff1660e01b8152600401602060405180830381865afa1580156110a2573d6000803e3d6000fd5b505050506040513d601f19601f820116820180604052508101906110c69190615e44565b73ffffffffffffffffffffffffffffffffffffffff166371bff8e4826040518263ffffffff1660e01b81526004016110fe9190615e80565b600060405180830381600087803b15801561111857600080fd5b505af115801561112c573d6000803e3d6000fd5b5050505050565b7f000000000000000000000000000000000000000000000000000000000000000081565b60007f0000000000000000000000000000000000000000000000000000000000000000905090565b7f000000000000000000000000000000000000000000000000000000000000000073ffffffffffffffffffffffffffffffffffffffff166321f8a7217fa2d83cf6f43caf068994e5ffe0938f6eabaa551d915b59bfda16ba012d30d9686040518263ffffffff1660e01b81526004016111f89190615d67565b602060405180830381865afa158015611215573d6000803e3d6000fd5b505050506040513d601f19601f820116820180604052508101906112399190615d97565b73ffffffffffffffffffffffffffffffffffffffff163373ffffffffffffffffffffffffffffffffffffffff161461129d576040517f94949e6200000000000000000000000000000000000000000000000000000000815260040160405180910390fd5b6112a78282612880565b5050565b60003373ffffffffffffffffffffffffffffffffffffffff167f000000000000000000000000000000000000000000000000000000000000000073ffffffffffffffffffffffffffffffffffffffff166321f8a7217f55b101fc856aff484166c46ad33bc74831c135693c159b0092bb3b72254ffb6b6040518263ffffffff1660e01b815260040161133d9190615d67565b602060405180830381865afa15801561135a573d6000803e3d6000fd5b505050506040513d601f19601f8201168201806040525081019061137e9190615d97565b73ffffffffffffffffffffffffffffffffffffffff16146113cb576040517f8c1715e200000000000000000000000000000000000000000000000000000000815260040160405180910390fd5b837f000000000000000000000000000000000000000000000000000000000000000073ffffffffffffffffffffffffffffffffffffffff166321f8a7217fbcc180fb907e9ae431665de4bc74305c00b7b27442aadd477980ecc4bb14c0116040518263ffffffff1660e01b81526004016114459190615d67565b602060405180830381865afa158015611462573d6000803e3d6000fd5b505050506040513d601f19601f820116820180604052508101906114869190615d97565b73ffffffffffffffffffffffffffffffffffffffff1663b5c7569782602001516040518263ffffffff1660e01b81526004016114c29190615089565b602060405180830381865afa1580156114df573d6000803e3d6000fd5b505050506040513d601f19601f820116820180604052508101906115039190615dd9565b611539576040517fa412f06500000000000000000000000000000000000000000000000000000000815260040160405180910390fd5b6000611548826020015161288e565b509150507f000000000000000000000000000000000000000000000000000000000000000073ffffffffffffffffffffffffffffffffffffffff166321f8a7217fbcc180fb907e9ae431665de4bc74305c00b7b27442aadd477980ecc4bb14c0116040518263ffffffff1660e01b81526004016115c59190615d67565b602060405180830381865afa1580156115e2573d6000803e3d6000fd5b505050506040513d601f19601f820116820180604052508101906116069190615d97565b73ffffffffffffffffffffffffffffffffffffffff1663596db717826040518263ffffffff1660e01b815260040161163e9190615e80565b602060405180830381865afa15801561165b573d6000803e3d6000fd5b505050506040513d601f19601f8201168201806040525081019061167f9190615dd9565b156116b6576040517fa9aad58c00000000000000000000000000000000000000000000000000000000815260040160405180910390fd5b60008467ffffffffffffffff161415801561170557507f000000000000000000000000000000000000000000000000000000000000000067ffffffffffffffff168467ffffffffffffffff1614155b1561171c576117158686866128ef565b925061174e565b6040517f030042b700000000000000000000000000000000000000000000000000000000815260040160405180910390fd5b50509392505050565b606060008054906101000a900473ffffffffffffffffffffffffffffffffffffffff1673ffffffffffffffffffffffffffffffffffffffff166306fdde036040518163ffffffff1660e01b8152600401600060405180830381865afa1580156117c4573d6000803e3d6000fd5b505050506040513d6000823e3d601f19601f820116820180604052508101906117ed91906159fe565b905090565b6000600160009054906101000a900473ffffffffffffffffffffffffffffffffffffffff16905090565b60008060009054906101000a900473ffffffffffffffffffffffffffffffffffffffff1673ffffffffffffffffffffffffffffffffffffffff16634cdad506836040518263ffffffff1660e01b81526004016118789190615089565b602060405180830381865afa158015611895573d6000803e3d6000fd5b505050506040513d601f19601f820116820180604052508101906118b99190615930565b9050919050565b60003373ffffffffffffffffffffffffffffffffffffffff167f000000000000000000000000000000000000000000000000000000000000000073ffffffffffffffffffffffffffffffffffffffff166321f8a7217f3a2f5529773e03d975be44bdae98a8509bdf1159e407504e558536cde56cf6ac6040518263ffffffff1660e01b81526004016119529190615d67565b602060405180830381865afa15801561196f573d6000803e3d6000fd5b505050506040513d601f19601f820116820180604052508101906119939190615d97565b73ffffffffffffffffffffffffffffffffffffffff16146119e0576040517f158a2f6b00000000000000000000000000000000000000000000000000000000815260040160405180910390fd5b827f000000000000000000000000000000000000000000000000000000000000000073ffffffffffffffffffffffffffffffffffffffff166321f8a7217fbcc180fb907e9ae431665de4bc74305c00b7b27442aadd477980ecc4bb14c0116040518263ffffffff1660e01b8152600401611a5a9190615d67565b602060405180830381865afa158015611a77573d6000803e3d6000fd5b505050506040513d601f19601f82011682018060405250810190611a9b9190615d97565b73ffffffffffffffffffffffffffffffffffffffff1663b5c7569782602001516040518263ffffffff1660e01b8152600401611ad79190615089565b602060405180830381865afa158015611af4573d6000803e3d6000fd5b505050506040513d601f19601f82011682018060405250810190611b189190615dd9565b611b4e576040517fa412f06500000000000000000000000000000000000000000000000000000000815260040160405180910390fd5b6000611b5d826020015161288e565b509150507f000000000000000000000000000000000000000000000000000000000000000073ffffffffffffffffffffffffffffffffffffffff166321f8a7217fbcc180fb907e9ae431665de4bc74305c00b7b27442aadd477980ecc4bb14c0116040518263ffffffff1660e01b8152600401611bda9190615d67565b602060405180830381865afa158015611bf7573d6000803e3d6000fd5b505050506040513d601f19601f82011682018060405250810190611c1b9190615d97565b73ffffffffffffffffffffffffffffffffffffffff1663596db717826040518263ffffffff1660e01b8152600401611c539190615e80565b602060405180830381865afa158015611c70573d6000803e3d6000fd5b505050506040513d601f19601f82011682018060405250810190611c949190615dd9565b15611ccb576040517fa9aad58c00000000000000000000000000000000000000000000000000000000815260040160405180910390fd5b611cd58585612923565b9250505092915050565b6000611ce9612a08565b905060008160000160089054906101000a900460ff1615905060008260000160009054906101000a900467ffffffffffffffff1690506000808267ffffffffffffffff16148015611d375750825b9050600060018367ffffffffffffffff16148015611d6c575060003073ffffffffffffffffffffffffffffffffffffffff163b145b905081158015611d7a575080155b15611db1576040517ff92ee8a900000000000000000000000000000000000000000000000000000000815260040160405180910390fd5b60018560000160006101000a81548167ffffffffffffffff021916908367ffffffffffffffff1602179055508315611e015760018560000160086101000a81548160ff0219169083151502179055505b7f000000000000000000000000000000000000000000000000000000000000000073ffffffffffffffffffffffffffffffffffffffff168873ffffffffffffffffffffffffffffffffffffffff1614611e86576040517fe7b6503f00000000000000000000000000000000000000000000000000000000815260040160405180910390fd5b600073ffffffffffffffffffffffffffffffffffffffff168773ffffffffffffffffffffffffffffffffffffffff161480611eed5750600073ffffffffffffffffffffffffffffffffffffffff168673ffffffffffffffffffffffffffffffffffffffff16145b15611f24576040517f538ba4f900000000000000000000000000000000000000000000000000000000815260040160405180910390fd5b866000806101000a81548173ffffffffffffffffffffffffffffffffffffffff021916908373ffffffffffffffffffffffffffffffffffffffff16021790555085600160006101000a81548173ffffffffffffffffffffffffffffffffffffffff021916908373ffffffffffffffffffffffffffffffffffffffff16021790555083156120015760008560000160086101000a81548160ff0219169083151502179055507fc7f505b2f371ae2175ee4913f4499e1f2633a7b5936321eed1cdaeb6115181d26001604051611ff89190615ed6565b60405180910390a15b5050505050505050565b60008060009054906101000a900473ffffffffffffffffffffffffffffffffffffffff1673ffffffffffffffffffffffffffffffffffffffff1663313ce5676040518163ffffffff1660e01b8152600401602060405180830381865afa158015612079573d6000803e3d6000fd5b505050506040513d601f19601f8201168201806040525081019061209d9190615b74565b60ff16905090565b60008060009054906101000a900473ffffffffffffffffffffffffffffffffffffffff1673ffffffffffffffffffffffffffffffffffffffff166318160ddd6040518163ffffffff1660e01b8152600401602060405180830381865afa158015612113573d6000803e3d6000fd5b505050506040513d601f19601f820116820180604052508101906121379190615930565b905090565b60003373ffffffffffffffffffffffffffffffffffffffff167f000000000000000000000000000000000000000000000000000000000000000073ffffffffffffffffffffffffffffffffffffffff166321f8a7217f3a2f5529773e03d975be44bdae98a8509bdf1159e407504e558536cde56cf6ac6040518263ffffffff1660e01b81526004016121ce9190615d67565b602060405180830381865afa1580156121eb573d6000803e3d6000fd5b505050506040513d601f19601f8201168201806040525081019061220f9190615d97565b73ffffffffffffffffffffffffffffffffffffffff161461225c576040517f158a2f6b00000000000000000000000000000000000000000000000000000000815260040160405180910390fd5b6122698360200151612a30565b61227e576122778383612c31565b90506123a3565b7f000000000000000000000000000000000000000000000000000000000000000073ffffffffffffffffffffffffffffffffffffffff166321f8a7217fa2d83cf6f43caf068994e5ffe0938f6eabaa551d915b59bfda16ba012d30d9686040518263ffffffff1660e01b81526004016122f79190615d67565b602060405180830381865afa158015612314573d6000803e3d6000fd5b505050506040513d601f19601f820116820180604052508101906123389190615d97565b73ffffffffffffffffffffffffffffffffffffffff1663bfdf22ad846040518263ffffffff1660e01b815260040161237091906160fb565b600060405180830381600087803b15801561238a57600080fd5b505af115801561239e573d6000803e3d6000fd5b505050505b92915050565b60003373ffffffffffffffffffffffffffffffffffffffff167f000000000000000000000000000000000000000000000000000000000000000073ffffffffffffffffffffffffffffffffffffffff166321f8a7217f55b101fc856aff484166c46ad33bc74831c135693c159b0092bb3b72254ffb6b6040518263ffffffff1660e01b815260040161243b9190615d67565b602060405180830381865afa158015612458573d6000803e3d6000fd5b505050506040513d601f19601f8201168201806040525081019061247c9190615d97565b73ffffffffffffffffffffffffffffffffffffffff16146124c9576040517f8c1715e200000000000000000000000000000000000000000000000000000000815260040160405180910390fd5b60008267ffffffffffffffff161415801561251857507f000000000000000000000000000000000000000000000000000000000000000067ffffffffffffffff168267ffffffffffffffff1614155b1561266a5761252a8460200151612a30565b61254057612539848484612d16565b9050612665565b7f000000000000000000000000000000000000000000000000000000000000000073ffffffffffffffffffffffffffffffffffffffff166321f8a7217fa2d83cf6f43caf068994e5ffe0938f6eabaa551d915b59bfda16ba012d30d9686040518263ffffffff1660e01b81526004016125b99190615d67565b602060405180830381865afa1580156125d6573d6000803e3d6000fd5b505050506040513d601f19601f820116820180604052508101906125fa9190615d97565b73ffffffffffffffffffffffffffffffffffffffff1663bfdf22ad856040518263ffffffff1660e01b815260040161263291906160fb565b600060405180830381600087803b15801561264c57600080fd5b505af1158015612660573d6000803e3d6000fd5b505050505b61269c565b6040517f030042b700000000000000000000000000000000000000000000000000000000815260040160405180910390fd5b9392505050565b60008054906101000a900473ffffffffffffffffffffffffffffffffffffffff1681565b60008060008054906101000a900473ffffffffffffffffffffffffffffffffffffffff1673ffffffffffffffffffffffffffffffffffffffff1663313ce5676040518163ffffffff1660e01b8152600401602060405180830381865afa158015612735573d6000803e3d6000fd5b505050506040513d601f19601f820116820180604052508101906127599190615b74565b60ff16905060008054906101000a900473ffffffffffffffffffffffffffffffffffffffff1673ffffffffffffffffffffffffffffffffffffffff166307a2d13a82600a6127a79190615d03565b6040518263ffffffff1660e01b81526004016127c39190615089565b602060405180830381865afa1580156127e0573d6000803e3d6000fd5b505050506040513d601f19601f820116820180604052508101906128049190615930565b91505090565b60007f01ffc9a7000000000000000000000000000000000000000000000000000000007bffffffffffffffffffffffffffffffffffffffffffffffffffffffff1916827bffffffffffffffffffffffffffffffffffffffffffffffffffffffff1916149050919050565b61287d81612d4a565b50565b61288a8282612f6f565b5050565b600080600083925060a084901c915060c084901c905060008167ffffffffffffffff16036128e8576040517f030042b700000000000000000000000000000000000000000000000000000000815260040160405180910390fd5b9193909250565b60006040517f43f6e4ab00000000000000000000000000000000000000000000000000000000815260040160405180910390fd5b60008160008054906101000a900473ffffffffffffffffffffffffffffffffffffffff1673ffffffffffffffffffffffffffffffffffffffff16639b0763e8826040518263ffffffff1660e01b815260040161297f919061541f565b602060405180830381865afa15801561299c573d6000803e3d6000fd5b505050506040513d601f19601f820116820180604052508101906129c09190615dd9565b6129f6576040517fcee39b1b00000000000000000000000000000000000000000000000000000000815260040160405180910390fd5b6129ff84613122565b91505092915050565b60007ff0c57e16840df040f15088dc2f81fe391c3923bec73e23a9662efc9c229c6a00905090565b6000807f000000000000000000000000000000000000000000000000000000000000000073ffffffffffffffffffffffffffffffffffffffff166321f8a7217fbcc180fb907e9ae431665de4bc74305c00b7b27442aadd477980ecc4bb14c0116040518263ffffffff1660e01b8152600401612aac9190615d67565b602060405180830381865afa158015612ac9573d6000803e3d6000fd5b505050506040513d601f19601f82011682018060405250810190612aed9190615d97565b90508073ffffffffffffffffffffffffffffffffffffffff1663b5c75697846040518263ffffffff1660e01b8152600401612b289190615089565b602060405180830381865afa158015612b45573d6000803e3d6000fd5b505050506040513d601f19601f82011682018060405250810190612b699190615dd9565b612b9f576040517fa412f06500000000000000000000000000000000000000000000000000000000815260040160405180910390fd5b6000612baa8461288e565b509150508173ffffffffffffffffffffffffffffffffffffffff1663596db717826040518263ffffffff1660e01b8152600401612be79190615e80565b602060405180830381865afa158015612c04573d6000803e3d6000fd5b505050506040513d601f19601f82011682018060405250810190612c289190615dd9565b92505050919050565b60008160008054906101000a900473ffffffffffffffffffffffffffffffffffffffff1673ffffffffffffffffffffffffffffffffffffffff16639b0763e8826040518263ffffffff1660e01b8152600401612c8d919061541f565b602060405180830381865afa158015612caa573d6000803e3d6000fd5b505050506040513d601f19601f82011682018060405250810190612cce9190615dd9565b612d04576040517fcee39b1b00000000000000000000000000000000000000000000000000000000815260040160405180910390fd5b612d0d84613b54565b91505092915050565b60006040517f43f6e4ab00000000000000000000000000000000000000000000000000000000815260040160405180910390fd5b600073ffffffffffffffffffffffffffffffffffffffff168173ffffffffffffffffffffffffffffffffffffffff1603612db0576040517f538ba4f900000000000000000000000000000000000000000000000000000000815260040160405180910390fd5b60007f000000000000000000000000000000000000000000000000000000000000000073ffffffffffffffffffffffffffffffffffffffff166321f8a7217fbddfa8c39a1f6275bcfb3aa5c70638c466999edbf14e6162d81b3492caca9fce6040518263ffffffff1660e01b8152600401612e2b9190615d67565b602060405180830381865afa158015612e48573d6000803e3d6000fd5b505050506040513d601f19601f82011682018060405250810190612e6c9190615d97565b9050600082905060008173ffffffffffffffffffffffffffffffffffffffff166370a08231306040518263ffffffff1660e01b8152600401612eae919061541f565b602060405180830381865afa158015612ecb573d6000803e3d6000fd5b505050506040513d601f19601f82011682018060405250810190612eef9190615930565b905060008114612f6957612f2483828473ffffffffffffffffffffffffffffffffffffffff1661408f9092919063ffffffff16565b808473ffffffffffffffffffffffffffffffffffffffff167fd34222ea8b5b095ec7a6f42ff87fa762ab480b9e8cea464915ee985f1510c10a60405160405180910390a35b50505050565b60008060009054906101000a900473ffffffffffffffffffffffffffffffffffffffff169050600073ffffffffffffffffffffffffffffffffffffffff168373ffffffffffffffffffffffffffffffffffffffff1603612ffb576040517f538ba4f900000000000000000000000000000000000000000000000000000000815260040160405180910390fd5b818173ffffffffffffffffffffffffffffffffffffffff166370a08231306040518263ffffffff1660e01b8152600401613035919061541f565b602060405180830381865afa158015613052573d6000803e3d6000fd5b505050506040513d601f19601f820116820180604052508101906130769190615930565b10156130ae576040517f50b1f35600000000000000000000000000000000000000000000000000000000815260040160405180910390fd5b6130d983838373ffffffffffffffffffffffffffffffffffffffff1661408f9092919063ffffffff16565b818373ffffffffffffffffffffffffffffffffffffffff167f83b8068554a495dbb4af07014f8171144d6670eb522b356f8d3f37cbd76ba11660405160405180910390a3505050565b600061312c614e61565b60008060009054906101000a900473ffffffffffffffffffffffffffffffffffffffff169050600160009054906101000a900473ffffffffffffffffffffffffffffffffffffffff16826020019073ffffffffffffffffffffffffffffffffffffffff16908173ffffffffffffffffffffffffffffffffffffffff1681525050816020015173ffffffffffffffffffffffffffffffffffffffff166370a08231306040518263ffffffff1660e01b81526004016131e9919061541f565b602060405180830381865afa158015613206573d6000803e3d6000fd5b505050506040513d601f19601f8201168201806040525081019061322a9190615930565b82608001818152505060008460a0015160200151905073eeeeeeeeeeeeeeeeeeeeeeeeeeeeeeeeeeeeeeee73ffffffffffffffffffffffffffffffffffffffff168173ffffffffffffffffffffffffffffffffffffffff1614158015613299575060008560a001516000015151145b156133f957826020015173ffffffffffffffffffffffffffffffffffffffff168560a001516020015173ffffffffffffffffffffffffffffffffffffffff161461330f576040517f8560d33800000000000000000000000000000000000000000000000000000000815260040160405180910390fd5b84604001518173ffffffffffffffffffffffffffffffffffffffff1663dd62ed3e33306040518363ffffffff1660e01b815260040161334f92919061611d565b602060405180830381865afa15801561336c573d6000803e3d6000fd5b505050506040513d601f19601f820116820180604052508101906133909190615930565b10156133c7576040517ec78d2600000000000000000000000000000000000000000000000000000000815260040160405180910390fd5b6133f8333087604001518473ffffffffffffffffffffffffffffffffffffffff1661410e909392919063ffffffff16565b5b60008560a001516000015151146139e7577f000000000000000000000000000000000000000000000000000000000000000073ffffffffffffffffffffffffffffffffffffffff1663e85b2b548660a00151606001516040518263ffffffff1660e01b815260040161346b919061552a565b602060405180830381865afa158015613488573d6000803e3d6000fd5b505050506040513d601f19601f820116820180604052508101906134ac9190615d97565b836040019073ffffffffffffffffffffffffffffffffffffffff16908173ffffffffffffffffffffffffffffffffffffffff16815250507f0000000000000000000000000000000000000000000000000000000000000000836000019067ffffffffffffffff16908167ffffffffffffffff1681525050826040015173ffffffffffffffffffffffffffffffffffffffff16639bbbb5c88660a001516000015160006040518363ffffffff1660e01b815260040161356b929190616190565b602060405180830381865afa158015613588573d6000803e3d6000fd5b505050506040513d601f19601f820116820180604052508101906135ac9190615930565b8361010001818152505073eeeeeeeeeeeeeeeeeeeeeeeeeeeeeeeeeeeeeeee73ffffffffffffffffffffffffffffffffffffffff168173ffffffffffffffffffffffffffffffffffffffff16146136e9578261010001518173ffffffffffffffffffffffffffffffffffffffff1663dd62ed3e33306040518363ffffffff1660e01b815260040161363e92919061611d565b602060405180830381865afa15801561365b573d6000803e3d6000fd5b505050506040513d601f19601f8201168201806040525081019061367f9190615930565b10156136b6576040517ec78d2600000000000000000000000000000000000000000000000000000000815260040160405180910390fd5b6136e833308561010001518473ffffffffffffffffffffffffffffffffffffffff1661410e909392919063ffffffff16565b5b826040015173ffffffffffffffffffffffffffffffffffffffff1663c87439eb6040518061012001604052808860a00151600001518152602001866000015167ffffffffffffffff168152602001866000015167ffffffffffffffff168152602001866000015167ffffffffffffffff1681526020016001151581526020013073ffffffffffffffffffffffffffffffffffffffff1681526020013373ffffffffffffffffffffffffffffffffffffffff1681526020018473ffffffffffffffffffffffffffffffffffffffff168152602001600073ffffffffffffffffffffffffffffffffffffffff168152506040518263ffffffff1660e01b81526004016137f39190616285565b602060405180830381865afa158015613810573d6000803e3d6000fd5b505050506040513d601f19601f820116820180604052508101906138349190615dd9565b506138f87f000000000000000000000000000000000000000000000000000000000000000073ffffffffffffffffffffffffffffffffffffffff1663ca7adffb8760a00151606001516040518263ffffffff1660e01b8152600401613899919061552a565b602060405180830381865afa1580156138b6573d6000803e3d6000fd5b505050506040513d601f19601f820116820180604052508101906138da9190615d97565b8660a0015160000151838661010001518960a0015160a00151614190565b826020015173ffffffffffffffffffffffffffffffffffffffff16836040015173ffffffffffffffffffffffffffffffffffffffff16632db883238760a00151600001516040518263ffffffff1660e01b815260040161395891906162a7565b602060405180830381865afa158015613975573d6000803e3d6000fd5b505050506040513d601f19601f820116820180604052508101906139999190615d97565b73ffffffffffffffffffffffffffffffffffffffff16146139e6576040517f8560d33800000000000000000000000000000000000000000000000000000000815260040160405180910390fd5b5b8260800151836020015173ffffffffffffffffffffffffffffffffffffffff166370a08231306040518263ffffffff1660e01b8152600401613a29919061541f565b602060405180830381865afa158015613a46573d6000803e3d6000fd5b505050506040513d601f19601f82011682018060405250810190613a6a9190615930565b613a7491906162c9565b8360a00181815250508460800151612710613a8f91906162c9565b8560400151613a9e91906162fd565b6127108460a00151613ab091906162fd565b1015613ae8576040517f0edf4d2300000000000000000000000000000000000000000000000000000000815260040160405180910390fd5b613b3b60008054906101000a900473ffffffffffffffffffffffffffffffffffffffff168460a00151856020015173ffffffffffffffffffffffffffffffffffffffff166144d39092919063ffffffff16565b613b4a85838560a0015161456f565b9350505050919050565b6000613b5e614eea565b60008060009054906101000a900473ffffffffffffffffffffffffffffffffffffffff1690506000600160009054906101000a900473ffffffffffffffffffffffffffffffffffffffff1690508460e0015161404657600160009054906101000a900473ffffffffffffffffffffffffffffffffffffffff16836020019073ffffffffffffffffffffffffffffffffffffffff16908173ffffffffffffffffffffffffffffffffffffffff1681525050613c1985838361478d565b935060008560a00151600001515114614041577f000000000000000000000000000000000000000000000000000000000000000073ffffffffffffffffffffffffffffffffffffffff1663e85b2b548660a00151606001516040518263ffffffff1660e01b8152600401613c8d919061552a565b602060405180830381865afa158015613caa573d6000803e3d6000fd5b505050506040513d601f19601f82011682018060405250810190613cce9190615d97565b836040019073ffffffffffffffffffffffffffffffffffffffff16908173ffffffffffffffffffffffffffffffffffffffff1681525050826040015173ffffffffffffffffffffffffffffffffffffffff16639bbbb5c88660a001516000015160006040518363ffffffff1660e01b8152600401613d4d929190616190565b602060405180830381865afa158015613d6a573d6000803e3d6000fd5b505050506040513d601f19601f82011682018060405250810190613d8e9190615930565b836060018181525050613daa83606001518587608001516149f3565b15613de1576040517f235a81fc00000000000000000000000000000000000000000000000000000000815260040160405180910390fd5b7f0000000000000000000000000000000000000000000000000000000000000000836000019067ffffffffffffffff16908167ffffffffffffffff1681525050826040015173ffffffffffffffffffffffffffffffffffffffff1663c87439eb6040518061012001604052808860a00151600001518152602001866000015167ffffffffffffffff168152602001866000015167ffffffffffffffff1681526020018860a001516080015167ffffffffffffffff1681526020016000151581526020013073ffffffffffffffffffffffffffffffffffffffff16815260200188610100015173ffffffffffffffffffffffffffffffffffffffff168152602001866020015173ffffffffffffffffffffffffffffffffffffffff168152602001600073ffffffffffffffffffffffffffffffffffffffff168152506040518263ffffffff1660e01b8152600401613f389190616285565b602060405180830381865afa158015613f55573d6000803e3d6000fd5b505050506040513d601f19601f82011682018060405250810190613f799190615dd9565b506140407f000000000000000000000000000000000000000000000000000000000000000073ffffffffffffffffffffffffffffffffffffffff1663ca7adffb8760a00151606001516040518263ffffffff1660e01b8152600401613fde919061552a565b602060405180830381865afa158015613ffb573d6000803e3d6000fd5b505050506040513d601f19601f8201168201806040525081019061401f9190615d97565b8660a0015160000151856020015186606001518960a0015160a00151614190565b5b614086565b61407a85610100015186604001518473ffffffffffffffffffffffffffffffffffffffff1661408f9092919063ffffffff16565b6000935050505061408a565b5050505b919050565b614109838473ffffffffffffffffffffffffffffffffffffffff1663a9059cbb85856040516024016140c292919061633f565b604051602081830303815290604052915060e01b6020820180517bffffffffffffffffffffffffffffffffffffffffffffffffffffffff8381831617835250505050614a3d565b505050565b61418a848573ffffffffffffffffffffffffffffffffffffffff166323b872dd86868660405160240161414393929190616368565b604051602081830303815290604052915060e01b6020820180517bffffffffffffffffffffffffffffffffffffffffffffffffffffffff8381831617835250505050614a3d565b50505050565b600082036141ca576040517ff6fa545000000000000000000000000000000000000000000000000000000000815260040160405180910390fd5b600073ffffffffffffffffffffffffffffffffffffffff168573ffffffffffffffffffffffffffffffffffffffff1603614230576040517f538ba4f900000000000000000000000000000000000000000000000000000000815260040160405180910390fd5b73eeeeeeeeeeeeeeeeeeeeeeeeeeeeeeeeeeeeeeee73ffffffffffffffffffffffffffffffffffffffff168373ffffffffffffffffffffffffffffffffffffffff16146142a7576142a285838573ffffffffffffffffffffffffffffffffffffffff166144d39092919063ffffffff16565b61431c565b818110156142e1576040517fe4f2466300000000000000000000000000000000000000000000000000000000815260040160405180910390fd5b4781111561431b576040517f50b1f35600000000000000000000000000000000000000000000000000000000815260040160405180910390fd5b5b60008573ffffffffffffffffffffffffffffffffffffffff16828660405161434491906163db565b60006040518083038185875af1925050503d8060008114614381576040519150601f19603f3d011682016040523d82523d6000602084013e614386565b606091505b50509050806143cc57836040517f2accaa150000000000000000000000000000000000000000000000000000000081526004016143c3919061541f565b60405180910390fd5b73eeeeeeeeeeeeeeeeeeeeeeeeeeeeeeeeeeeeeeee73ffffffffffffffffffffffffffffffffffffffff168473ffffffffffffffffffffffffffffffffffffffff16146144cb57600084905060008173ffffffffffffffffffffffffffffffffffffffff1663dd62ed3e308a6040518363ffffffff1660e01b815260040161445592919061611d565b602060405180830381865afa158015614472573d6000803e3d6000fd5b505050506040513d601f19601f820116820180604052508101906144969190615930565b11156144c9576144c88760008373ffffffffffffffffffffffffffffffffffffffff16614ad49092919063ffffffff16565b5b505b505050505050565b60008373ffffffffffffffffffffffffffffffffffffffff1663dd62ed3e30856040518363ffffffff1660e01b815260040161451092919061611d565b602060405180830381865afa15801561452d573d6000803e3d6000fd5b505050506040513d601f19601f820116820180604052508101906145519190615930565b90506145698484848461456491906163f2565b614ad4565b50505050565b6000808460e001516145815730614588565b8461010001515b905060008473ffffffffffffffffffffffffffffffffffffffff166370a08231836040518263ffffffff1660e01b81526004016145c5919061541f565b602060405180830381865afa1580156145e2573d6000803e3d6000fd5b505050506040513d601f19601f820116820180604052508101906146069190615930565b90508473ffffffffffffffffffffffffffffffffffffffff16636e553f6585846040518363ffffffff1660e01b8152600401614643929190616426565b6020604051808303816000875af1158015614662573d6000803e3d6000fd5b505050506040513d601f19601f820116820180604052508101906146869190615930565b925060008573ffffffffffffffffffffffffffffffffffffffff166370a08231846040518263ffffffff1660e01b81526004016146c3919061541f565b602060405180830381865afa1580156146e0573d6000803e3d6000fd5b505050506040513d601f19601f820116820180604052508101906147049190615930565b905083828261471391906162c9565b14158061474c5750866080015161271061472d91906162c9565b876060015161473c91906162fd565b8461271061474a91906162fd565b105b15614783576040517fbd7f1b4200000000000000000000000000000000000000000000000000000000815260040160405180910390fd5b5050509392505050565b60008060008560a001516000015151146147a757306147ae565b8461010001515b905060008373ffffffffffffffffffffffffffffffffffffffff166370a08231836040518263ffffffff1660e01b81526004016147eb919061541f565b602060405180830381865afa158015614808573d6000803e3d6000fd5b505050506040513d601f19601f8201168201806040525081019061482c9190615930565b90508473ffffffffffffffffffffffffffffffffffffffff1663ba087652876040015184306040518463ffffffff1660e01b815260040161486f9392919061644f565b6020604051808303816000875af115801561488e573d6000803e3d6000fd5b505050506040513d601f19601f820116820180604052508101906148b29190615930565b925060008473ffffffffffffffffffffffffffffffffffffffff166370a08231846040518263ffffffff1660e01b81526004016148ef919061541f565b602060405180830381865afa15801561490c573d6000803e3d6000fd5b505050506040513d601f19601f820116820180604052508101906149309190615930565b905083828261493f91906162c9565b1415806149785750866080015161271061495991906162c9565b876060015161496891906162fd565b8461271061497691906162fd565b105b156149af576040517fbd7f1b4200000000000000000000000000000000000000000000000000000000815260040160405180910390fd5b600084036149e9576040517faffdc82f00000000000000000000000000000000000000000000000000000000815260040160405180910390fd5b5050509392505050565b600082841180614a27575081612710614a0c91906162c9565b83614a1791906162fd565b61271085614a2591906162fd565b105b15614a355760019050614a36565b5b9392505050565b6000614a68828473ffffffffffffffffffffffffffffffffffffffff16614be390919063ffffffff16565b90506000815114158015614a8d575080806020019051810190614a8b9190615dd9565b155b15614acf57826040517f5274afe7000000000000000000000000000000000000000000000000000000008152600401614ac6919061541f565b60405180910390fd5b505050565b60008373ffffffffffffffffffffffffffffffffffffffff1663095ea7b38484604051602401614b0592919061633f565b604051602081830303815290604052915060e01b6020820180517bffffffffffffffffffffffffffffffffffffffffffffffffffffffff83818316178352505050509050614b538482614bf9565b614bdd57614bd2848573ffffffffffffffffffffffffffffffffffffffff1663095ea7b3866000604051602401614b8b9291906164c1565b604051602081830303815290604052915060e01b6020820180517bffffffffffffffffffffffffffffffffffffffffffffffffffffffff8381831617835250505050614a3d565b614bdc8482614a3d565b5b50505050565b6060614bf183836000614cc0565b905092915050565b60008060008473ffffffffffffffffffffffffffffffffffffffff1684604051614c2391906163db565b6000604051808303816000865af19150503d8060008114614c60576040519150601f19603f3d011682016040523d82523d6000602084013e614c65565b606091505b5091509150818015614c935750600081511480614c92575080806020019051810190614c919190615dd9565b5b5b8015614cb6575060008573ffffffffffffffffffffffffffffffffffffffff163b115b9250505092915050565b606081471015614d0757306040517fcd786059000000000000000000000000000000000000000000000000000000008152600401614cfe919061541f565b60405180910390fd5b6000808573ffffffffffffffffffffffffffffffffffffffff168486604051614d3091906163db565b60006040518083038185875af1925050503d8060008114614d6d576040519150601f19603f3d011682016040523d82523d6000602084013e614d72565b606091505b5091509150614d82868383614d8d565b925050509392505050565b606082614da257614d9d82614e1c565b614e14565b60008251148015614dca575060008473ffffffffffffffffffffffffffffffffffffffff163b145b15614e0c57836040517f9996b315000000000000000000000000000000000000000000000000000000008152600401614e03919061541f565b60405180910390fd5b819050614e15565b5b9392505050565b600081511115614e2f5780518082602001fd5b6040517f1425ea4200000000000000000000000000000000000000000000000000000000815260040160405180910390fd5b604051806101400160405280600067ffffffffffffffff168152602001600073ffffffffffffffffffffffffffffffffffffffff168152602001600073ffffffffffffffffffffffffffffffffffffffff168152602001600081526020016000815260200160008152602001600081526020016000815260200160008152602001606081525090565b6040518060800160405280600067ffffffffffffffff168152602001600073ffffffffffffffffffffffffffffffffffffffff168152602001600073ffffffffffffffffffffffffffffffffffffffff168152602001600081525090565b6000604051905090565b600080fd5b600080fd5b60007fffffffff0000000000000000000000000000000000000000000000000000000082169050919050565b614f9181614f5c565b8114614f9c57600080fd5b50565b600081359050614fae81614f88565b92915050565b600060208284031215614fca57614fc9614f52565b5b6000614fd884828501614f9f565b91505092915050565b60008115159050919050565b614ff681614fe1565b82525050565b60006020820190506150116000830184614fed565b92915050565b6000819050919050565b61502a81615017565b811461503557600080fd5b50565b60008135905061504781615021565b92915050565b60006020828403121561506357615062614f52565b5b600061507184828501615038565b91505092915050565b61508381615017565b82525050565b600060208201905061509e600083018461507a565b92915050565b600073ffffffffffffffffffffffffffffffffffffffff82169050919050565b60006150cf826150a4565b9050919050565b6150df816150c4565b81146150ea57600080fd5b50565b6000813590506150fc816150d6565b92915050565b600080fd5b600080fd5b6000601f19601f8301169050919050565b7f4e487b7100000000000000000000000000000000000000000000000000000000600052604160045260246000fd5b6151558261510c565b810181811067ffffffffffffffff821117156151745761517361511d565b5b80604052505050565b6000615187614f48565b9050615193828261514c565b919050565b600067ffffffffffffffff8211156151b3576151b261511d565b5b6151bc8261510c565b9050602081019050919050565b82818337600083830152505050565b60006151eb6151e684615198565b61517d565b90508281526020810184848401111561520757615206615107565b5b6152128482856151c9565b509392505050565b600082601f83011261522f5761522e615102565b5b813561523f8482602086016151d8565b91505092915050565b6000806000806080858703121561526257615261614f52565b5b6000615270878288016150ed565b9450506020615281878288016150ed565b935050604061529287828801615038565b925050606085013567ffffffffffffffff8111156152b3576152b2614f57565b5b6152bf8782880161521a565b91505092959194509250565b6152d481614f5c565b82525050565b60006020820190506152ef60008301846152cb565b92915050565b600081519050919050565b600082825260208201905092915050565b60005b8381101561532f578082015181840152602081019050615314565b60008484015250505050565b6000615346826152f5565b6153508185615300565b9350615360818560208601615311565b6153698161510c565b840191505092915050565b6000602082019050818103600083015261538e818461533b565b905092915050565b6000819050919050565b60006153bb6153b66153b1846150a4565b615396565b6150a4565b9050919050565b60006153cd826153a0565b9050919050565b60006153df826153c2565b9050919050565b6153ef816153d4565b82525050565b600060208201905061540a60008301846153e6565b92915050565b615419816150c4565b82525050565b60006020820190506154346000830184615410565b92915050565b6000602082840312156154505761544f614f52565b5b600061545e848285016150ed565b91505092915050565b600063ffffffff82169050919050565b61548081615467565b811461548b57600080fd5b50565b60008135905061549d81615477565b92915050565b6000602082840312156154b9576154b8614f52565b5b60006154c78482850161548e565b91505092915050565b600067ffffffffffffffff82169050919050565b6154ed816154d0565b82525050565b600060208201905061550860008301846154e4565b92915050565b600060ff82169050919050565b6155248161550e565b82525050565b600060208201905061553f600083018461551b565b92915050565b6000806040838503121561555c5761555b614f52565b5b600061556a858286016150ed565b925050602061557b85828601615038565b9150509250929050565b600080fd5b600080fd5b6155988161550e565b81146155a357600080fd5b50565b6000813590506155b58161558f565b92915050565b6155c4816154d0565b81146155cf57600080fd5b50565b6000813590506155e1816155bb565b92915050565b600060c082840312156155fd576155fc615585565b5b61560760c061517d565b9050600082013567ffffffffffffffff8111156156275761562661558a565b5b6156338482850161521a565b6000830152506020615647848285016150ed565b602083015250604061565b848285016150ed565b604083015250606061566f848285016155a6565b6060830152506080615683848285016155d2565b60808301525060a061569784828501615038565b60a08301525092915050565b6156ac81614fe1565b81146156b757600080fd5b50565b6000813590506156c9816156a3565b92915050565b600061014082840312156156e6576156e5615585565b5b6156f161014061517d565b9050600061570184828501615038565b600083015250602061571584828501615038565b602083015250604061572984828501615038565b604083015250606061573d84828501615038565b606083015250608061575184828501615038565b60808301525060a082013567ffffffffffffffff8111156157755761577461558a565b5b615781848285016155e7565b60a08301525060c0615795848285016156ba565b60c08301525060e06157a9848285016156ba565b60e0830152506101006157be848285016150ed565b6101008301525061012082013567ffffffffffffffff8111156157e4576157e361558a565b5b6157f08482850161521a565b6101208301525092915050565b60008060006060848603121561581657615815614f52565b5b600084013567ffffffffffffffff81111561583457615833614f57565b5b615840868287016156cf565b9350506020615851868287016150ed565b9250506040615862868287016155d2565b9150509250925092565b6000806040838503121561588357615882614f52565b5b600083013567ffffffffffffffff8111156158a1576158a0614f57565b5b6158ad858286016156cf565b92505060206158be858286016150ed565b9150509250929050565b6000806000606084860312156158e1576158e0614f52565b5b60006158ef868287016150ed565b9350506020615900868287016150ed565b9250506040615911868287016150ed565b9150509250925092565b60008151905061592a81615021565b92915050565b60006020828403121561594657615945614f52565b5b60006159548482850161591b565b91505092915050565b600067ffffffffffffffff8211156159785761597761511d565b5b6159818261510c565b9050602081019050919050565b60006159a161599c8461595d565b61517d565b9050828152602081018484840111156159bd576159bc615107565b5b6159c8848285615311565b509392505050565b600082601f8301126159e5576159e4615102565b5b81516159f584826020860161598e565b91505092915050565b600060208284031215615a1457615a13614f52565b5b600082015167ffffffffffffffff811115615a3257615a31614f57565b5b615a3e848285016159d0565b91505092915050565b600081905092915050565b7f73702d0000000000000000000000000000000000000000000000000000000000600082015250565b6000615a88600383615a47565b9150615a9382615a52565b600382019050919050565b6000615aa9826152f5565b615ab38185615a47565b9350615ac3818560208601615311565b80840191505092915050565b6000615ada82615a7b565b9150615ae68284615a9e565b915081905092915050565b7f205375706572506f736974696f6e000000000000000000000000000000000000600082015250565b6000615b27600e83615a47565b9150615b3282615af1565b600e82019050919050565b6000615b498284615a9e565b9150615b5482615b1a565b915081905092915050565b600081519050615b6e8161558f565b92915050565b600060208284031215615b8a57615b89614f52565b5b6000615b9884828501615b5f565b91505092915050565b7f4e487b7100000000000000000000000000000000000000000000000000000000600052601160045260246000fd5b60008160011c9050919050565b6000808291508390505b6001851115615c2757808604811115615c0357615c02615ba1565b5b6001851615615c125780820291505b8081029050615c2085615bd0565b9450615be7565b94509492505050565b600082615c405760019050615cfc565b81615c4e5760009050615cfc565b8160018114615c645760028114615c6e57615c9d565b6001915050615cfc565b60ff841115615c8057615c7f615ba1565b5b8360020a915084821115615c9757615c96615ba1565b5b50615cfc565b5060208310610133831016604e8410600b8410161715615cd25782820a905083811115615ccd57615ccc615ba1565b5b615cfc565b615cdf8484846001615bdd565b92509050818404811115615cf657615cf5615ba1565b5b81810290505b9392505050565b6000615d0e82615017565b9150615d1983615017565b9250615d467fffffffffffffffffffffffffffffffffffffffffffffffffffffffffffffffff8484615c30565b905092915050565b6000819050919050565b615d6181615d4e565b82525050565b6000602082019050615d7c6000830184615d58565b92915050565b600081519050615d91816150d6565b92915050565b600060208284031215615dad57615dac614f52565b5b6000615dbb84828501615d82565b91505092915050565b600081519050615dd3816156a3565b92915050565b600060208284031215615def57615dee614f52565b5b6000615dfd84828501615dc4565b91505092915050565b6000615e11826150c4565b9050919050565b615e2181615e06565b8114615e2c57600080fd5b50565b600081519050615e3e81615e18565b92915050565b600060208284031215615e5a57615e59614f52565b5b6000615e6884828501615e2f565b91505092915050565b615e7a81615467565b82525050565b6000602082019050615e956000830184615e71565b92915050565b6000819050919050565b6000615ec0615ebb615eb684615e9b565b615396565b6154d0565b9050919050565b615ed081615ea5565b82525050565b6000602082019050615eeb6000830184615ec7565b92915050565b615efa81615017565b82525050565b600081519050919050565b600082825260208201905092915050565b6000615f2782615f00565b615f318185615f0b565b9350615f41818560208601615311565b615f4a8161510c565b840191505092915050565b615f5e816150c4565b82525050565b615f6d8161550e565b82525050565b615f7c816154d0565b82525050565b600060c0830160008301518482036000860152615f9f8282615f1c565b9150506020830151615fb46020860182615f55565b506040830151615fc76040860182615f55565b506060830151615fda6060860182615f64565b506080830151615fed6080860182615f73565b5060a083015161600060a0860182615ef1565b508091505092915050565b61601481614fe1565b82525050565b6000610140830160008301516160336000860182615ef1565b5060208301516160466020860182615ef1565b5060408301516160596040860182615ef1565b50606083015161606c6060860182615ef1565b50608083015161607f6080860182615ef1565b5060a083015184820360a08601526160978282615f82565b91505060c08301516160ac60c086018261600b565b5060e08301516160bf60e086018261600b565b506101008301516160d4610100860182615f55565b506101208301518482036101208601526160ee8282615f1c565b9150508091505092915050565b60006020820190508181036000830152616115818461601a565b905092915050565b60006040820190506161326000830185615410565b61613f6020830184615410565b9392505050565b600082825260208201905092915050565b600061616282615f00565b61616c8185616146565b935061617c818560208601615311565b6161858161510c565b840191505092915050565b600060408201905081810360008301526161aa8185616157565b90506161b96020830184614fed565b9392505050565b60006101208301600083015184820360008601526161de8282615f1c565b91505060208301516161f36020860182615f73565b5060408301516162066040860182615f73565b5060608301516162196060860182615f73565b50608083015161622c608086018261600b565b5060a083015161623f60a0860182615f55565b5060c083015161625260c0860182615f55565b5060e083015161626560e0860182615f55565b5061010083015161627a610100860182615f55565b508091505092915050565b6000602082019050818103600083015261629f81846161c0565b905092915050565b600060208201905081810360008301526162c18184616157565b905092915050565b60006162d482615017565b91506162df83615017565b92508282039050818111156162f7576162f6615ba1565b5b92915050565b600061630882615017565b915061631383615017565b925082820261632181615017565b9150828204841483151761633857616337615ba1565b5b5092915050565b60006040820190506163546000830185615410565b616361602083018461507a565b9392505050565b600060608201905061637d6000830186615410565b61638a6020830185615410565b616397604083018461507a565b949350505050565b600081905092915050565b60006163b582615f00565b6163bf818561639f565b93506163cf818560208601615311565b80840191505092915050565b60006163e782846163aa565b915081905092915050565b60006163fd82615017565b915061640883615017565b92508282019050808211156164205761641f615ba1565b5b92915050565b600060408201905061643b600083018561507a565b6164486020830184615410565b9392505050565b6000606082019050616464600083018661507a565b6164716020830185615410565b61647e6040830184615410565b949350505050565b6000819050919050565b60006164ab6164a66164a184616486565b615396565b615017565b9050919050565b6164bb81616490565b82525050565b60006040820190506164d66000830185615410565b6164e360208301846164b2565b939250505056fea2646970667358221220e79c80e073632f1b78cdf4954f74070d187af1a64591b339da092bab5f86740864736f6c63430008170033","linkReferences":{}},"methodIdentifiers":{"CHAIN_ID()":"85e1f4d0","asset()":"38d52e0f","directDepositIntoVault((uint256,uint256,uint256,uint256,uint256,(bytes,address,address,uint8,uint64,uint256),bool,bool,address,bytes),address)":"b9232775","directWithdrawFromVault((uint256,uint256,uint256,uint256,uint256,(bytes,address,address,uint8,uint64,uint256),bool,bool,address,bytes),address)":"cb829dc3","emergencyWithdraw(address,uint256)":"95ccea67","forwardDustToPaymaster(address)":"4dcd03c0","getPreviewPricePerVaultShare()":"38d92fd5","getPricePerVaultShare()":"ff5f3e48","getStateRegistryId()":"91deb882","getTotalAssets()":"6e07302b","getTotalSupply()":"c4e41b22","getVaultAddress()":"65cacaa4","getVaultAsset()":"b60262ca","getVaultDecimals()":"c32dcd89","getVaultName()":"9f5376c1","getVaultShareBalance()":"35eda680","getVaultSymbol()":"77188067","initialize(address,address,address)":"c0c53b8b","mintKYC(uint32)":"771bfb79","onERC721Received(address,address,uint256,bytes)":"150b7a02","previewDepositTo(uint256)":"07c080f9","previewRedeemFrom(uint256)":"b7ba28cd","previewWithdrawFrom(uint256)":"37d25010","superRegistry()":"24c73dda","superformYieldTokenName()":"20592d98","superformYieldTokenSymbol()":"17a57e08","supportsInterface(bytes4)":"01ffc9a7","vault()":"fbfa77cf","xChainDepositIntoVault((uint256,uint256,uint256,uint256,uint256,(bytes,address,address,uint8,uint64,uint256),bool,bool,address,bytes),address,uint64)":"95e4f1da","xChainWithdrawFromVault((uint256,uint256,uint256,uint256,uint256,(bytes,address,address,uint8,uint64,uint256),bool,bool,address,bytes),address,uint64)":"ef164fef"},"id":137}