{"abi":[{"type":"constructor","inputs":[{"name":"asset_","type":"address","internalType":"contract IERC20"},{"name":"name_","type":"string","internalType":"string"},{"name":"symbol_","type":"string","internalType":"string"}],"stateMutability":"nonpayable"},{"type":"function","name":"allowance","inputs":[{"name":"owner","type":"address","internalType":"address"},{"name":"spender","type":"address","internalType":"address"}],"outputs":[{"name":"","type":"uint256","internalType":"uint256"}],"stateMutability":"view"},{"type":"function","name":"approve","inputs":[{"name":"spender","type":"address","internalType":"address"},{"name":"value","type":"uint256","internalType":"uint256"}],"outputs":[{"name":"","type":"bool","internalType":"bool"}],"stateMutability":"nonpayable"},{"type":"function","name":"asset","inputs":[],"outputs":[{"name":"","type":"address","internalType":"address"}],"stateMutability":"view"},{"type":"function","name":"balanceOf","inputs":[{"name":"account","type":"address","internalType":"address"}],"outputs":[{"name":"","type":"uint256","internalType":"uint256"}],"stateMutability":"view"},{"type":"function","name":"convertToAssets","inputs":[{"name":"shares","type":"uint256","internalType":"uint256"}],"outputs":[{"name":"","type":"uint256","internalType":"uint256"}],"stateMutability":"view"},{"type":"function","name":"convertToShares","inputs":[{"name":"assets","type":"uint256","internalType":"uint256"}],"outputs":[{"name":"","type":"uint256","internalType":"uint256"}],"stateMutability":"view"},{"type":"function","name":"decimals","inputs":[],"outputs":[{"name":"","type":"uint8","internalType":"uint8"}],"stateMutability":"view"},{"type":"function","name":"deposit","inputs":[{"name":"assets","type":"uint256","internalType":"uint256"},{"name":"receiver","type":"address","internalType":"address"}],"outputs":[{"name":"","type":"uint256","internalType":"uint256"}],"stateMutability":"nonpayable"},{"type":"function","name":"maxDeposit","inputs":[{"name":"","type":"address","internalType":"address"}],"outputs":[{"name":"","type":"uint256","internalType":"uint256"}],"stateMutability":"view"},{"type":"function","name":"maxMint","inputs":[{"name":"","type":"address","internalType":"address"}],"outputs":[{"name":"","type":"uint256","internalType":"uint256"}],"stateMutability":"view"},{"type":"function","name":"maxRedeem","inputs":[{"name":"owner","type":"address","internalType":"address"}],"outputs":[{"name":"","type":"uint256","internalType":"uint256"}],"stateMutability":"view"},{"type":"function","name":"maxWithdraw","inputs":[{"name":"owner","type":"address","internalType":"address"}],"outputs":[{"name":"","type":"uint256","internalType":"uint256"}],"stateMutability":"view"},{"type":"function","name":"mint","inputs":[{"name":"shares","type":"uint256","internalType":"uint256"},{"name":"receiver","type":"address","internalType":"address"}],"outputs":[{"name":"","type":"uint256","internalType":"uint256"}],"stateMutability":"nonpayable"},{"type":"function","name":"name","inputs":[],"outputs":[{"name":"","type":"string","internalType":"string"}],"stateMutability":"view"},{"type":"function","name":"previewDeposit","inputs":[{"name":"assets","type":"uint256","internalType":"uint256"}],"outputs":[{"name":"","type":"uint256","internalType":"uint256"}],"stateMutability":"view"},{"type":"function","name":"previewMint","inputs":[{"name":"shares","type":"uint256","internalType":"uint256"}],"outputs":[{"name":"","type":"uint256","internalType":"uint256"}],"stateMutability":"view"},{"type":"function","name":"previewRedeem","inputs":[{"name":"shares","type":"uint256","internalType":"uint256"}],"outputs":[{"name":"","type":"uint256","internalType":"uint256"}],"stateMutability":"view"},{"type":"function","name":"previewWithdraw","inputs":[{"name":"assets","type":"uint256","internalType":"uint256"}],"outputs":[{"name":"","type":"uint256","internalType":"uint256"}],"stateMutability":"view"},{"type":"function","name":"redeem","inputs":[{"name":"","type":"uint256","internalType":"uint256"},{"name":"","type":"address","internalType":"address"},{"name":"","type":"address","internalType":"address"}],"outputs":[{"name":"","type":"uint256","internalType":"uint256"}],"stateMutability":"nonpayable"},{"type":"function","name":"symbol","inputs":[],"outputs":[{"name":"","type":"string","internalType":"string"}],"stateMutability":"view"},{"type":"function","name":"totalAssets","inputs":[],"outputs":[{"name":"","type":"uint256","internalType":"uint256"}],"stateMutability":"view"},{"type":"function","name":"totalSupply","inputs":[],"outputs":[{"name":"","type":"uint256","internalType":"uint256"}],"stateMutability":"view"},{"type":"function","name":"transfer","inputs":[{"name":"to","type":"address","internalType":"address"},{"name":"value","type":"uint256","internalType":"uint256"}],"outputs":[{"name":"","type":"bool","internalType":"bool"}],"stateMutability":"nonpayable"},{"type":"function","name":"transferFrom","inputs":[{"name":"from","type":"address","internalType":"address"},{"name":"to","type":"address","internalType":"address"},{"name":"value","type":"uint256","internalType":"uint256"}],"outputs":[{"name":"","type":"bool","internalType":"bool"}],"stateMutability":"nonpayable"},{"type":"function","name":"withdraw","inputs":[{"name":"assets","type":"uint256","internalType":"uint256"},{"name":"receiver","type":"address","internalType":"address"},{"name":"owner","type":"address","internalType":"address"}],"outputs":[{"name":"","type":"uint256","internalType":"uint256"}],"stateMutability":"nonpayable"},{"type":"event","name":"Approval","inputs":[{"name":"owner","type":"address","indexed":true,"internalType":"address"},{"name":"spender","type":"address","indexed":true,"internalType":"address"},{"name":"value","type":"uint256","indexed":false,"internalType":"uint256"}],"anonymous":false},{"type":"event","name":"Deposit","inputs":[{"name":"sender","type":"address","indexed":true,"internalType":"address"},{"name":"owner","type":"address","indexed":true,"internalType":"address"},{"name":"assets","type":"uint256","indexed":false,"internalType":"uint256"},{"name":"shares","type":"uint256","indexed":false,"internalType":"uint256"}],"anonymous":false},{"type":"event","name":"Transfer","inputs":[{"name":"from","type":"address","indexed":true,"internalType":"address"},{"name":"to","type":"address","indexed":true,"internalType":"address"},{"name":"value","type":"uint256","indexed":false,"internalType":"uint256"}],"anonymous":false},{"type":"event","name":"Withdraw","inputs":[{"name":"sender","type":"address","indexed":true,"internalType":"address"},{"name":"receiver","type":"address","indexed":true,"internalType":"address"},{"name":"owner","type":"address","indexed":true,"internalType":"address"},{"name":"assets","type":"uint256","indexed":false,"internalType":"uint256"},{"name":"shares","type":"uint256","indexed":false,"internalType":"uint256"}],"anonymous":false},{"type":"error","name":"AddressEmptyCode","inputs":[{"name":"target","type":"address","internalType":"address"}]},{"type":"error","name":"AddressInsufficientBalance","inputs":[{"name":"account","type":"address","internalType":"address"}]},{"type":"error","name":"ERC20InsufficientAllowance","inputs":[{"name":"spender","type":"address","internalType":"address"},{"name":"allowance","type":"uint256","internalType":"uint256"},{"name":"needed","type":"uint256","internalType":"uint256"}]},{"type":"error","name":"ERC20InsufficientBalance","inputs":[{"name":"sender","type":"address","internalType":"address"},{"name":"balance","type":"uint256","internalType":"uint256"},{"name":"needed","type":"uint256","internalType":"uint256"}]},{"type":"error","name":"ERC20InvalidApprover","inputs":[{"name":"approver","type":"address","internalType":"address"}]},{"type":"error","name":"ERC20InvalidReceiver","inputs":[{"name":"receiver","type":"address","internalType":"address"}]},{"type":"error","name":"ERC20InvalidSender","inputs":[{"name":"sender","type":"address","internalType":"address"}]},{"type":"error","name":"ERC20InvalidSpender","inputs":[{"name":"spender","type":"address","internalType":"address"}]},{"type":"error","name":"ERC4626ExceededMaxDeposit","inputs":[{"name":"receiver","type":"address","internalType":"address"},{"name":"assets","type":"uint256","internalType":"uint256"},{"name":"max","type":"uint256","internalType":"uint256"}]},{"type":"error","name":"ERC4626ExceededMaxMint","inputs":[{"name":"receiver","type":"address","internalType":"address"},{"name":"shares","type":"uint256","internalType":"uint256"},{"name":"max","type":"uint256","internalType":"uint256"}]},{"type":"error","name":"ERC4626ExceededMaxRedeem","inputs":[{"name":"owner","type":"address","internalType":"address"},{"name":"shares","type":"uint256","internalType":"uint256"},{"name":"max","type":"uint256","internalType":"uint256"}]},{"type":"error","name":"ERC4626ExceededMaxWithdraw","inputs":[{"name":"owner","type":"address","internalType":"address"},{"name":"assets","type":"uint256","internalType":"uint256"},{"name":"max","type":"uint256","internalType":"uint256"}]},{"type":"error","name":"FailedInnerCall","inputs":[]},{"type":"error","name":"MathOverflowedMulDiv","inputs":[]},{"type":"error","name":"SafeERC20FailedOperation","inputs":[{"name":"token","type":"address","internalType":"address"}]}],"bytecode":{"object":"0x60c06040523480156200001157600080fd5b5060405162002b1738038062002b178339818101604052810190620000379190620003fb565b82828281600390816200004b9190620006e0565b5080600490816200005d9190620006e0565b5050506000806200007483620000d560201b60201c565b91509150816200008657601262000088565b805b60ff1660a08160ff16815250508273ffffffffffffffffffffffffffffffffffffffff1660808173ffffffffffffffffffffffffffffffffffffffff168152505050505050505062000890565b6000806000808473ffffffffffffffffffffffffffffffffffffffff1660405160240160405160208183030381529060405263313ce56760e01b6020820180517bffffffffffffffffffffffffffffffffffffffffffffffffffffffff83818316178352505050506040516200014c919062000814565b600060405180830381855afa9150503d806000811462000189576040519150601f19603f3d011682016040523d82523d6000602084013e6200018e565b606091505b5091509150818015620001a357506020815110155b15620001e057600081806020019051810190620001c191906200085e565b905060ff80168111620001de5760018194509450505050620001ea565b505b6000809350935050505b915091565b6000604051905090565b600080fd5b600080fd5b600073ffffffffffffffffffffffffffffffffffffffff82169050919050565b6000620002308262000203565b9050919050565b6000620002448262000223565b9050919050565b620002568162000237565b81146200026257600080fd5b50565b60008151905062000276816200024b565b92915050565b600080fd5b600080fd5b6000601f19601f8301169050919050565b7f4e487b7100000000000000000000000000000000000000000000000000000000600052604160045260246000fd5b620002d18262000286565b810181811067ffffffffffffffff82111715620002f357620002f262000297565b5b80604052505050565b600062000308620001ef565b9050620003168282620002c6565b919050565b600067ffffffffffffffff82111562000339576200033862000297565b5b620003448262000286565b9050602081019050919050565b60005b838110156200037157808201518184015260208101905062000354565b60008484015250505050565b6000620003946200038e846200031b565b620002fc565b905082815260208101848484011115620003b357620003b262000281565b5b620003c084828562000351565b509392505050565b600082601f830112620003e057620003df6200027c565b5b8151620003f28482602086016200037d565b91505092915050565b600080600060608486031215620004175762000416620001f9565b5b6000620004278682870162000265565b935050602084015167ffffffffffffffff8111156200044b576200044a620001fe565b5b6200045986828701620003c8565b925050604084015167ffffffffffffffff8111156200047d576200047c620001fe565b5b6200048b86828701620003c8565b9150509250925092565b600081519050919050565b7f4e487b7100000000000000000000000000000000000000000000000000000000600052602260045260246000fd5b60006002820490506001821680620004e857607f821691505b602082108103620004fe57620004fd620004a0565b5b50919050565b60008190508160005260206000209050919050565b60006020601f8301049050919050565b600082821b905092915050565b600060088302620005687fffffffffffffffffffffffffffffffffffffffffffffffffffffffffffffffff8262000529565b62000574868362000529565b95508019841693508086168417925050509392505050565b6000819050919050565b6000819050919050565b6000620005c1620005bb620005b5846200058c565b62000596565b6200058c565b9050919050565b6000819050919050565b620005dd83620005a0565b620005f5620005ec82620005c8565b84845462000536565b825550505050565b600090565b6200060c620005fd565b62000619818484620005d2565b505050565b5b8181101562000641576200063560008262000602565b6001810190506200061f565b5050565b601f82111562000690576200065a8162000504565b620006658462000519565b8101602085101562000675578190505b6200068d620006848562000519565b8301826200061e565b50505b505050565b600082821c905092915050565b6000620006b56000198460080262000695565b1980831691505092915050565b6000620006d08383620006a2565b9150826002028217905092915050565b620006eb8262000495565b67ffffffffffffffff81111562000707576200070662000297565b5b620007138254620004cf565b6200072082828562000645565b600060209050601f83116001811462000758576000841562000743578287015190505b6200074f8582620006c2565b865550620007bf565b601f198416620007688662000504565b60005b8281101562000792578489015182556001820191506020850194506020810190506200076b565b86831015620007b25784890151620007ae601f891682620006a2565b8355505b6001600288020188555050505b505050505050565b600081519050919050565b600081905092915050565b6000620007ea82620007c7565b620007f68185620007d2565b93506200080881856020860162000351565b80840191505092915050565b6000620008228284620007dd565b915081905092915050565b62000838816200058c565b81146200084457600080fd5b50565b60008151905062000858816200082d565b92915050565b600060208284031215620008775762000876620001f9565b5b6000620008878482850162000847565b91505092915050565b60805160a05161224c620008cb600039600061077f0152600081816105c0015281816107b101528181610e1a0152610f06015261224c6000f3fe608060405234801561001057600080fd5b50600436106101735760003560e01c806370a08231116100de578063ba08765211610097578063ce96cb7711610071578063ce96cb77146104fc578063d905777e1461052c578063dd62ed3e1461055c578063ef8b30f71461058c57610173565b8063ba0876521461046c578063c63d75b61461049c578063c6e6f592146104cc57610173565b806370a082311461035e57806394bf804d1461038e57806395d89b41146103be578063a9059cbb146103dc578063b3d7f6b91461040c578063b460af941461043c57610173565b806323b872dd1161013057806323b872dd14610262578063313ce5671461029257806338d52e0f146102b0578063402d267d146102ce5780634cdad506146102fe5780636e553f651461032e57610173565b806301e1d1141461017857806306fdde031461019657806307a2d13a146101b4578063095ea7b3146101e45780630a28a4771461021457806318160ddd14610244575b600080fd5b6101806105bc565b60405161018d91906119a5565b60405180910390f35b61019e61065d565b6040516101ab9190611a50565b60405180910390f35b6101ce60048036038101906101c99190611aa3565b6106ef565b6040516101db91906119a5565b60405180910390f35b6101fe60048036038101906101f99190611b2e565b610703565b60405161020b9190611b89565b60405180910390f35b61022e60048036038101906102299190611aa3565b610726565b60405161023b91906119a5565b60405180910390f35b61024c61073a565b60405161025991906119a5565b60405180910390f35b61027c60048036038101906102779190611ba4565b610744565b6040516102899190611b89565b60405180910390f35b61029a610773565b6040516102a79190611c13565b60405180910390f35b6102b86107ad565b6040516102c59190611c3d565b60405180910390f35b6102e860048036038101906102e39190611c58565b6107d5565b6040516102f591906119a5565b60405180910390f35b61031860048036038101906103139190611aa3565b6107ff565b60405161032591906119a5565b60405180910390f35b61034860048036038101906103439190611c85565b610813565b60405161035591906119a5565b60405180910390f35b61037860048036038101906103739190611c58565b610895565b60405161038591906119a5565b60405180910390f35b6103a860048036038101906103a39190611c85565b6108dd565b6040516103b591906119a5565b60405180910390f35b6103c661095f565b6040516103d39190611a50565b60405180910390f35b6103f660048036038101906103f19190611b2e565b6109f1565b6040516104039190611b89565b60405180910390f35b61042660048036038101906104219190611aa3565b610a14565b60405161043391906119a5565b60405180910390f35b61045660048036038101906104519190611cc5565b610a28565b60405161046391906119a5565b60405180910390f35b61048660048036038101906104819190611cc5565b610aac565b60405161049391906119a5565b60405180910390f35b6104b660048036038101906104b19190611c58565b610ab5565b6040516104c391906119a5565b60405180910390f35b6104e660048036038101906104e19190611aa3565b610adf565b6040516104f391906119a5565b60405180910390f35b61051660048036038101906105119190611c58565b610af3565b60405161052391906119a5565b60405180910390f35b61054660048036038101906105419190611c58565b610b0f565b60405161055391906119a5565b60405180910390f35b61057660048036038101906105719190611d18565b610b21565b60405161058391906119a5565b60405180910390f35b6105a660048036038101906105a19190611aa3565b610ba8565b6040516105b391906119a5565b60405180910390f35b60007f000000000000000000000000000000000000000000000000000000000000000073ffffffffffffffffffffffffffffffffffffffff166370a08231306040518263ffffffff1660e01b81526004016106179190611c3d565b602060405180830381865afa158015610634573d6000803e3d6000fd5b505050506040513d601f19601f820116820180604052508101906106589190611d6d565b905090565b60606003805461066c90611dc9565b80601f016020809104026020016040519081016040528092919081815260200182805461069890611dc9565b80156106e55780601f106106ba576101008083540402835291602001916106e5565b820191906000526020600020905b8154815290600101906020018083116106c857829003601f168201915b5050505050905090565b60006106fc826000610bbc565b9050919050565b60008061070e610c15565b905061071b818585610c1d565b600191505092915050565b6000610733826001610c2f565b9050919050565b6000600254905090565b60008061074f610c15565b905061075c858285610c88565b610767858585610d1c565b60019150509392505050565b600061077d610e10565b7f00000000000000000000000000000000000000000000000000000000000000006107a89190611e29565b905090565b60007f0000000000000000000000000000000000000000000000000000000000000000905090565b60007fffffffffffffffffffffffffffffffffffffffffffffffffffffffffffffffff9050919050565b600061080c826000610bbc565b9050919050565b60008061081f836107d5565b90508084111561086a578284826040517f79012fb200000000000000000000000000000000000000000000000000000000815260040161086193929190611e5e565b60405180910390fd5b600061087585610ba8565b905061088a610882610c15565b858784610e15565b809250505092915050565b60008060008373ffffffffffffffffffffffffffffffffffffffff1673ffffffffffffffffffffffffffffffffffffffff168152602001908152602001600020549050919050565b6000806108e983610ab5565b905080841115610934578284826040517f284ff66700000000000000000000000000000000000000000000000000000000815260040161092b93929190611e5e565b60405180910390fd5b600061093f85610a14565b905061095461094c610c15565b858388610e15565b809250505092915050565b60606004805461096e90611dc9565b80601f016020809104026020016040519081016040528092919081815260200182805461099a90611dc9565b80156109e75780601f106109bc576101008083540402835291602001916109e7565b820191906000526020600020905b8154815290600101906020018083116109ca57829003601f168201915b5050505050905090565b6000806109fc610c15565b9050610a09818585610d1c565b600191505092915050565b6000610a21826001610bbc565b9050919050565b600080610a3483610af3565b905080851115610a7f578285826040517ffe9cceec000000000000000000000000000000000000000000000000000000008152600401610a7693929190611e5e565b60405180910390fd5b6000610a8a86610726565b9050610aa0610a97610c15565b86868985610eb8565b80925050509392505050565b60009392505050565b60007fffffffffffffffffffffffffffffffffffffffffffffffffffffffffffffffff9050919050565b6000610aec826000610c2f565b9050919050565b6000610b08610b0183610895565b6000610bbc565b9050919050565b6000610b1a82610895565b9050919050565b6000600160008473ffffffffffffffffffffffffffffffffffffffff1673ffffffffffffffffffffffffffffffffffffffff16815260200190815260200160002060008373ffffffffffffffffffffffffffffffffffffffff1673ffffffffffffffffffffffffffffffffffffffff16815260200190815260200160002054905092915050565b6000610bb5826000610c2f565b9050919050565b6000610c0d6001610bcb6105bc565b610bd59190611e95565b610bdd610e10565b600a610be99190611ffc565b610bf161073a565b610bfb9190611e95565b8486610fb1909392919063ffffffff16565b905092915050565b600033905090565b610c2a8383836001611008565b505050565b6000610c80610c3c610e10565b600a610c489190611ffc565b610c5061073a565b610c5a9190611e95565b6001610c646105bc565b610c6e9190611e95565b8486610fb1909392919063ffffffff16565b905092915050565b6000610c948484610b21565b90507fffffffffffffffffffffffffffffffffffffffffffffffffffffffffffffffff8114610d165781811015610d06578281836040517ffb8f41b2000000000000000000000000000000000000000000000000000000008152600401610cfd93929190611e5e565b60405180910390fd5b610d1584848484036000611008565b5b50505050565b600073ffffffffffffffffffffffffffffffffffffffff168373ffffffffffffffffffffffffffffffffffffffff1603610d8e5760006040517f96c6fd1e000000000000000000000000000000000000000000000000000000008152600401610d859190611c3d565b60405180910390fd5b600073ffffffffffffffffffffffffffffffffffffffff168273ffffffffffffffffffffffffffffffffffffffff1603610e005760006040517fec442f05000000000000000000000000000000000000000000000000000000008152600401610df79190611c3d565b60405180910390fd5b610e0b8383836111df565b505050565b600090565b610e417f0000000000000000000000000000000000000000000000000000000000000000853085611404565b610e4b8382611486565b8273ffffffffffffffffffffffffffffffffffffffff168473ffffffffffffffffffffffffffffffffffffffff167fdcbc1c05240f31ff3ad067ef1ee35ce4997762752e3a095284754544f4c709d78484604051610eaa929190612047565b60405180910390a350505050565b8273ffffffffffffffffffffffffffffffffffffffff168573ffffffffffffffffffffffffffffffffffffffff1614610ef757610ef6838683610c88565b5b610f018382611508565b610f2c7f0000000000000000000000000000000000000000000000000000000000000000858461158a565b8273ffffffffffffffffffffffffffffffffffffffff168473ffffffffffffffffffffffffffffffffffffffff168673ffffffffffffffffffffffffffffffffffffffff167ffbde797d201c681b91056529119e0b02407c7bb96a4a2c75c01fc9667232c8db8585604051610fa2929190612047565b60405180910390a45050505050565b600080610fbf868686611609565b9050610fca83611710565b8015610fe7575060008480610fe257610fe1612070565b5b868809115b15610ffc57600181610ff99190611e95565b90505b80915050949350505050565b600073ffffffffffffffffffffffffffffffffffffffff168473ffffffffffffffffffffffffffffffffffffffff160361107a5760006040517fe602df050000000000000000000000000000000000000000000000000000000081526004016110719190611c3d565b60405180910390fd5b600073ffffffffffffffffffffffffffffffffffffffff168373ffffffffffffffffffffffffffffffffffffffff16036110ec5760006040517f94280d620000000000000000000000000000000000000000000000000000000081526004016110e39190611c3d565b60405180910390fd5b81600160008673ffffffffffffffffffffffffffffffffffffffff1673ffffffffffffffffffffffffffffffffffffffff16815260200190815260200160002060008573ffffffffffffffffffffffffffffffffffffffff1673ffffffffffffffffffffffffffffffffffffffff1681526020019081526020016000208190555080156111d9578273ffffffffffffffffffffffffffffffffffffffff168473ffffffffffffffffffffffffffffffffffffffff167f8c5be1e5ebec7d5bd14f71427d1e84f3dd0314c0f7b2291e5b200ac8c7c3b925846040516111d091906119a5565b60405180910390a35b50505050565b600073ffffffffffffffffffffffffffffffffffffffff168373ffffffffffffffffffffffffffffffffffffffff16036112315780600260008282546112259190611e95565b92505081905550611304565b60008060008573ffffffffffffffffffffffffffffffffffffffff1673ffffffffffffffffffffffffffffffffffffffff168152602001908152602001600020549050818110156112bd578381836040517fe450d38c0000000000000000000000000000000000000000000000000000000081526004016112b493929190611e5e565b60405180910390fd5b8181036000808673ffffffffffffffffffffffffffffffffffffffff1673ffffffffffffffffffffffffffffffffffffffff16815260200190815260200160002081905550505b600073ffffffffffffffffffffffffffffffffffffffff168273ffffffffffffffffffffffffffffffffffffffff160361134d578060026000828254039250508190555061139a565b806000808473ffffffffffffffffffffffffffffffffffffffff1673ffffffffffffffffffffffffffffffffffffffff168152602001908152602001600020600082825401925050819055505b8173ffffffffffffffffffffffffffffffffffffffff168373ffffffffffffffffffffffffffffffffffffffff167fddf252ad1be2c89b69c2b068fc378daa952ba7f163c4a11628f55a4df523b3ef836040516113f791906119a5565b60405180910390a3505050565b611480848573ffffffffffffffffffffffffffffffffffffffff166323b872dd8686866040516024016114399392919061209f565b604051602081830303815290604052915060e01b6020820180517bffffffffffffffffffffffffffffffffffffffffffffffffffffffff838183161783525050505061173e565b50505050565b600073ffffffffffffffffffffffffffffffffffffffff168273ffffffffffffffffffffffffffffffffffffffff16036114f85760006040517fec442f050000000000000000000000000000000000000000000000000000000081526004016114ef9190611c3d565b60405180910390fd5b611504600083836111df565b5050565b600073ffffffffffffffffffffffffffffffffffffffff168273ffffffffffffffffffffffffffffffffffffffff160361157a5760006040517f96c6fd1e0000000000000000000000000000000000000000000000000000000081526004016115719190611c3d565b60405180910390fd5b611586826000836111df565b5050565b611604838473ffffffffffffffffffffffffffffffffffffffff1663a9059cbb85856040516024016115bd9291906120d6565b604051602081830303815290604052915060e01b6020820180517bffffffffffffffffffffffffffffffffffffffffffffffffffffffff838183161783525050505061173e565b505050565b60008083850290506000801985870982811083820303915050600081036116445783828161163a57611639612070565b5b0492505050611709565b80841161167d576040517f227bc15300000000000000000000000000000000000000000000000000000000815260040160405180910390fd5b600084868809905082811182039150808303925060008560000386169050808604955080840493506001818260000304019050808302841793506000600287600302189050808702600203810290508087026002038102905080870260020381029050808702600203810290508087026002038102905080870260020381029050808502955050505050505b9392505050565b600060016002836003811115611729576117286120ff565b5b611733919061212e565b60ff16149050919050565b6000611769828473ffffffffffffffffffffffffffffffffffffffff166117d590919063ffffffff16565b9050600081511415801561178e57508080602001905181019061178c919061218b565b155b156117d057826040517f5274afe70000000000000000000000000000000000000000000000000000000081526004016117c79190611c3d565b60405180910390fd5b505050565b60606117e3838360006117eb565b905092915050565b60608147101561183257306040517fcd7860590000000000000000000000000000000000000000000000000000000081526004016118299190611c3d565b60405180910390fd5b6000808573ffffffffffffffffffffffffffffffffffffffff16848660405161185b91906121ff565b60006040518083038185875af1925050503d8060008114611898576040519150601f19603f3d011682016040523d82523d6000602084013e61189d565b606091505b50915091506118ad8683836118b8565b925050509392505050565b6060826118cd576118c882611947565b61193f565b600082511480156118f5575060008473ffffffffffffffffffffffffffffffffffffffff163b145b1561193757836040517f9996b31500000000000000000000000000000000000000000000000000000000815260040161192e9190611c3d565b60405180910390fd5b819050611940565b5b9392505050565b60008151111561195a5780518082602001fd5b6040517f1425ea4200000000000000000000000000000000000000000000000000000000815260040160405180910390fd5b6000819050919050565b61199f8161198c565b82525050565b60006020820190506119ba6000830184611996565b92915050565b600081519050919050565b600082825260208201905092915050565b60005b838110156119fa5780820151818401526020810190506119df565b60008484015250505050565b6000601f19601f8301169050919050565b6000611a22826119c0565b611a2c81856119cb565b9350611a3c8185602086016119dc565b611a4581611a06565b840191505092915050565b60006020820190508181036000830152611a6a8184611a17565b905092915050565b600080fd5b611a808161198c565b8114611a8b57600080fd5b50565b600081359050611a9d81611a77565b92915050565b600060208284031215611ab957611ab8611a72565b5b6000611ac784828501611a8e565b91505092915050565b600073ffffffffffffffffffffffffffffffffffffffff82169050919050565b6000611afb82611ad0565b9050919050565b611b0b81611af0565b8114611b1657600080fd5b50565b600081359050611b2881611b02565b92915050565b60008060408385031215611b4557611b44611a72565b5b6000611b5385828601611b19565b9250506020611b6485828601611a8e565b9150509250929050565b60008115159050919050565b611b8381611b6e565b82525050565b6000602082019050611b9e6000830184611b7a565b92915050565b600080600060608486031215611bbd57611bbc611a72565b5b6000611bcb86828701611b19565b9350506020611bdc86828701611b19565b9250506040611bed86828701611a8e565b9150509250925092565b600060ff82169050919050565b611c0d81611bf7565b82525050565b6000602082019050611c286000830184611c04565b92915050565b611c3781611af0565b82525050565b6000602082019050611c526000830184611c2e565b92915050565b600060208284031215611c6e57611c6d611a72565b5b6000611c7c84828501611b19565b91505092915050565b60008060408385031215611c9c57611c9b611a72565b5b6000611caa85828601611a8e565b9250506020611cbb85828601611b19565b9150509250929050565b600080600060608486031215611cde57611cdd611a72565b5b6000611cec86828701611a8e565b9350506020611cfd86828701611b19565b9250506040611d0e86828701611b19565b9150509250925092565b60008060408385031215611d2f57611d2e611a72565b5b6000611d3d85828601611b19565b9250506020611d4e85828601611b19565b9150509250929050565b600081519050611d6781611a77565b92915050565b600060208284031215611d8357611d82611a72565b5b6000611d9184828501611d58565b91505092915050565b7f4e487b7100000000000000000000000000000000000000000000000000000000600052602260045260246000fd5b60006002820490506001821680611de157607f821691505b602082108103611df457611df3611d9a565b5b50919050565b7f4e487b7100000000000000000000000000000000000000000000000000000000600052601160045260246000fd5b6000611e3482611bf7565b9150611e3f83611bf7565b9250828201905060ff811115611e5857611e57611dfa565b5b92915050565b6000606082019050611e736000830186611c2e565b611e806020830185611996565b611e8d6040830184611996565b949350505050565b6000611ea08261198c565b9150611eab8361198c565b9250828201905080821115611ec357611ec2611dfa565b5b92915050565b60008160011c9050919050565b6000808291508390505b6001851115611f2057808604811115611efc57611efb611dfa565b5b6001851615611f0b5780820291505b8081029050611f1985611ec9565b9450611ee0565b94509492505050565b600082611f395760019050611ff5565b81611f475760009050611ff5565b8160018114611f5d5760028114611f6757611f96565b6001915050611ff5565b60ff841115611f7957611f78611dfa565b5b8360020a915084821115611f9057611f8f611dfa565b5b50611ff5565b5060208310610133831016604e8410600b8410161715611fcb5782820a905083811115611fc657611fc5611dfa565b5b611ff5565b611fd88484846001611ed6565b92509050818404811115611fef57611fee611dfa565b5b81810290505b9392505050565b60006120078261198c565b915061201283611bf7565b925061203f7fffffffffffffffffffffffffffffffffffffffffffffffffffffffffffffffff8484611f29565b905092915050565b600060408201905061205c6000830185611996565b6120696020830184611996565b9392505050565b7f4e487b7100000000000000000000000000000000000000000000000000000000600052601260045260246000fd5b60006060820190506120b46000830186611c2e565b6120c16020830185611c2e565b6120ce6040830184611996565b949350505050565b60006040820190506120eb6000830185611c2e565b6120f86020830184611996565b9392505050565b7f4e487b7100000000000000000000000000000000000000000000000000000000600052602160045260246000fd5b600061213982611bf7565b915061214483611bf7565b92508261215457612153612070565b5b828206905092915050565b61216881611b6e565b811461217357600080fd5b50565b6000815190506121858161215f565b92915050565b6000602082840312156121a1576121a0611a72565b5b60006121af84828501612176565b91505092915050565b600081519050919050565b600081905092915050565b60006121d9826121b8565b6121e381856121c3565b93506121f38185602086016119dc565b80840191505092915050565b600061220b82846121ce565b91508190509291505056fea2646970667358221220c210b9006cd8541461234c2a3e9ba5cb21dc3586e83604f1b1c3100c4642babf64736f6c63430008170033","linkReferences":{}},"methodIdentifiers":{"allowance(address,address)":"dd62ed3e","approve(address,uint256)":"095ea7b3","asset()":"38d52e0f","balanceOf(address)":"70a08231","convertToAssets(uint256)":"07a2d13a","convertToShares(uint256)":"c6e6f592","decimals()":"313ce567","deposit(uint256,address)":"6e553f65","maxDeposit(address)":"402d267d","maxMint(address)":"c63d75b6","maxRedeem(address)":"d905777e","maxWithdraw(address)":"ce96cb77","mint(uint256,address)":"94bf804d","name()":"06fdde03","previewDeposit(uint256)":"ef8b30f7","previewMint(uint256)":"b3d7f6b9","previewRedeem(uint256)":"4cdad506","previewWithdraw(uint256)":"0a28a477","redeem(uint256,address,address)":"ba087652","symbol()":"95d89b41","totalAssets()":"01e1d114","totalSupply()":"18160ddd","transfer(address,uint256)":"a9059cbb","transferFrom(address,address,uint256)":"23b872dd","withdraw(uint256,address,address)":"b460af94"},"id":339}