{"abi":[{"type":"function","name":"fromString","inputs":[{"name":"_address","type":"string","internalType":"string"}],"outputs":[{"name":"","type":"address","internalType":"address"}],"stateMutability":"pure"}],"bytecode":{"object":"0x610a80610053600b82828239805160001a607314610046577f4e487b7100000000000000000000000000000000000000000000000000000000600052600060045260246000fd5b30600052607381538281f3fe73000000000000000000000000000000000000000030146080604052600436106100355760003560e01c80639c53ac5a1461003a575b600080fd5b610054600480360381019061004f919061062c565b61006a565b60405161006191906106b6565b60405180910390f35b60008061007683610092565b90506000610083826101fc565b90508060601c92505050919050565b6060600282511015801561010557507f3000000000000000000000000000000000000000000000000000000000000000826000815181106100d6576100d56106d1565b5b602001015160f81c60f81b7effffffffffffffffffffffffffffffffffffffffffffffffffffffffffffff1916145b80156101da57507f780000000000000000000000000000000000000000000000000000000000000082600181518110610141576101406106d1565b5b602001015160f81c60f81b7effffffffffffffffffffffffffffffffffffffffffffffffffffffffffffff191614806101d957507f5800000000000000000000000000000000000000000000000000000000000000826001815181106101aa576101a96106d1565b5b602001015160f81c60f81b7effffffffffffffffffffffffffffffffffffffffffffffffffffffffffffff1916145b5b156101f3576101ec82600284516102cb565b90506101f7565b8190505b919050565b6000808290506000805b82518110156102bd576101008261021d919061072f565b91506000610247848381518110610237576102366106d1565b5b602001015160f81c60f81b6103c1565b9050601081610256919061077e565b905061028a8460018461026991906107c5565b8151811061027a576102796106d1565b5b602001015160f81c60f81b6103c1565b8161029591906107f9565b90508060ff16836102a6919061082e565b9250506002816102b691906107c5565b9050610206565b508060601b92505050919050565b60606000849050600084846102e09190610876565b67ffffffffffffffff8111156102f9576102f8610501565b5b6040519080825280601f01601f19166020018201604052801561032b5781602001600182028036833780820191505090505b50905060008590505b848110156103b45782818151811061034f5761034e6106d1565b5b602001015160f81c60f81b8287836103679190610876565b81518110610378576103776106d1565b5b60200101907effffffffffffffffffffffffffffffffffffffffffffffffffffffffffffff1916908160001a9053508080600101915050610334565b5080925050509392505050565b600060308260f81c60ff16101580156103e1575060398260f81c60ff1611155b156103fd5760308260f81c6103f691906108aa565b90506104cd565b60418260f81c60ff161015801561041b575060468260f81c60ff1611155b156104375760378260f81c61043091906108aa565b90506104cd565b60618260f81c60ff1610158015610455575060668260f81c60ff1611155b156104715760578260f81c61046a91906108aa565b90506104cd565b816040516020016104829190610983565b6040516020818303038152906040526040517f08c379a00000000000000000000000000000000000000000000000000000000081526004016104c49190610a28565b60405180910390fd5b919050565b6000604051905090565b600080fd5b600080fd5b600080fd5b600080fd5b6000601f19601f8301169050919050565b7f4e487b7100000000000000000000000000000000000000000000000000000000600052604160045260246000fd5b610539826104f0565b810181811067ffffffffffffffff8211171561055857610557610501565b5b80604052505050565b600061056b6104d2565b90506105778282610530565b919050565b600067ffffffffffffffff82111561059757610596610501565b5b6105a0826104f0565b9050602081019050919050565b82818337600083830152505050565b60006105cf6105ca8461057c565b610561565b9050828152602081018484840111156105eb576105ea6104eb565b5b6105f68482856105ad565b509392505050565b600082601f830112610613576106126104e6565b5b81356106238482602086016105bc565b91505092915050565b600060208284031215610642576106416104dc565b5b600082013567ffffffffffffffff8111156106605761065f6104e1565b5b61066c848285016105fe565b91505092915050565b600073ffffffffffffffffffffffffffffffffffffffff82169050919050565b60006106a082610675565b9050919050565b6106b081610695565b82525050565b60006020820190506106cb60008301846106a7565b92915050565b7f4e487b7100000000000000000000000000000000000000000000000000000000600052603260045260246000fd5b7f4e487b7100000000000000000000000000000000000000000000000000000000600052601160045260246000fd5b600061073a82610675565b915061074583610675565b925082820261075381610675565b9150828204841483151761076a57610769610700565b5b5092915050565b600060ff82169050919050565b600061078982610771565b915061079483610771565b92508282026107a281610771565b91508082146107b4576107b3610700565b5b5092915050565b6000819050919050565b60006107d0826107bb565b91506107db836107bb565b92508282019050808211156107f3576107f2610700565b5b92915050565b600061080482610771565b915061080f83610771565b9250828201905060ff81111561082857610827610700565b5b92915050565b600061083982610675565b915061084483610675565b9250828201905073ffffffffffffffffffffffffffffffffffffffff8111156108705761086f610700565b5b92915050565b6000610881826107bb565b915061088c836107bb565b92508282039050818111156108a4576108a3610700565b5b92915050565b60006108b582610771565b91506108c083610771565b9250828203905060ff8111156108d9576108d8610700565b5b92915050565b600081905092915050565b7f496e76616c696420627974652076616c75653a20000000000000000000000000600082015250565b60006109206014836108df565b915061092b826108ea565b601482019050919050565b60007fff0000000000000000000000000000000000000000000000000000000000000082169050919050565b6000819050919050565b61097d61097882610936565b610962565b82525050565b600061098e82610913565b915061099a828461096c565b60018201915081905092915050565b600081519050919050565b600082825260208201905092915050565b60005b838110156109e35780820151818401526020810190506109c8565b60008484015250505050565b60006109fa826109a9565b610a0481856109b4565b9350610a148185602086016109c5565b610a1d816104f0565b840191505092915050565b60006020820190508181036000830152610a4281846109ef565b90509291505056fea264697066735822122084019b153f403c312be879f4b44c75b50c47d8c5c871c911eeb0e6fbd4ca549264736f6c63430008170033","linkReferences":{}},"methodIdentifiers":{"fromString(string)":"9c53ac5a"},"id":70}