{"abi":[{"type":"constructor","inputs":[{"name":"superRegistry_","type":"address","internalType":"address"}],"stateMutability":"nonpayable"},{"type":"function","name":"CHAIN_ID","inputs":[],"outputs":[{"name":"","type":"uint64","internalType":"uint64"}],"stateMutability":"view"},{"type":"function","name":"asset","inputs":[],"outputs":[{"name":"","type":"address","internalType":"address"}],"stateMutability":"view"},{"type":"function","name":"directDepositIntoVault","inputs":[{"name":"singleVaultData_","type":"tuple","internalType":"struct InitSingleVaultData","components":[{"name":"payloadId","type":"uint256","internalType":"uint256"},{"name":"superformId","type":"uint256","internalType":"uint256"},{"name":"amount","type":"uint256","internalType":"uint256"},{"name":"outputAmount","type":"uint256","internalType":"uint256"},{"name":"maxSlippage","type":"uint256","internalType":"uint256"},{"name":"liqData","type":"tuple","internalType":"struct LiqRequest","components":[{"name":"txData","type":"bytes","internalType":"bytes"},{"name":"token","type":"address","internalType":"address"},{"name":"interimToken","type":"address","internalType":"address"},{"name":"bridgeId","type":"uint8","internalType":"uint8"},{"name":"liqDstChainId","type":"uint64","internalType":"uint64"},{"name":"nativeAmount","type":"uint256","internalType":"uint256"}]},{"name":"hasDstSwap","type":"bool","internalType":"bool"},{"name":"retain4626","type":"bool","internalType":"bool"},{"name":"receiverAddress","type":"address","internalType":"address"},{"name":"extraFormData","type":"bytes","internalType":"bytes"}]},{"name":"srcSender_","type":"address","internalType":"address"}],"outputs":[{"name":"shares","type":"uint256","internalType":"uint256"}],"stateMutability":"payable"},{"type":"function","name":"directWithdrawFromVault","inputs":[{"name":"singleVaultData_","type":"tuple","internalType":"struct InitSingleVaultData","components":[{"name":"payloadId","type":"uint256","internalType":"uint256"},{"name":"superformId","type":"uint256","internalType":"uint256"},{"name":"amount","type":"uint256","internalType":"uint256"},{"name":"outputAmount","type":"uint256","internalType":"uint256"},{"name":"maxSlippage","type":"uint256","internalType":"uint256"},{"name":"liqData","type":"tuple","internalType":"struct LiqRequest","components":[{"name":"txData","type":"bytes","internalType":"bytes"},{"name":"token","type":"address","internalType":"address"},{"name":"interimToken","type":"address","internalType":"address"},{"name":"bridgeId","type":"uint8","internalType":"uint8"},{"name":"liqDstChainId","type":"uint64","internalType":"uint64"},{"name":"nativeAmount","type":"uint256","internalType":"uint256"}]},{"name":"hasDstSwap","type":"bool","internalType":"bool"},{"name":"retain4626","type":"bool","internalType":"bool"},{"name":"receiverAddress","type":"address","internalType":"address"},{"name":"extraFormData","type":"bytes","internalType":"bytes"}]},{"name":"srcSender_","type":"address","internalType":"address"}],"outputs":[{"name":"assets","type":"uint256","internalType":"uint256"}],"stateMutability":"nonpayable"},{"type":"function","name":"emergencyWithdraw","inputs":[{"name":"receiverAddress_","type":"address","internalType":"address"},{"name":"amount_","type":"uint256","internalType":"uint256"}],"outputs":[],"stateMutability":"nonpayable"},{"type":"function","name":"forwardDustToPaymaster","inputs":[{"name":"token_","type":"address","internalType":"address"}],"outputs":[],"stateMutability":"nonpayable"},{"type":"function","name":"getPreviewPricePerVaultShare","inputs":[],"outputs":[{"name":"","type":"uint256","internalType":"uint256"}],"stateMutability":"view"},{"type":"function","name":"getPricePerVaultShare","inputs":[],"outputs":[{"name":"","type":"uint256","internalType":"uint256"}],"stateMutability":"view"},{"type":"function","name":"getStateRegistryId","inputs":[],"outputs":[{"name":"","type":"uint8","internalType":"uint8"}],"stateMutability":"view"},{"type":"function","name":"getTotalAssets","inputs":[],"outputs":[{"name":"","type":"uint256","internalType":"uint256"}],"stateMutability":"view"},{"type":"function","name":"getTotalSupply","inputs":[],"outputs":[{"name":"","type":"uint256","internalType":"uint256"}],"stateMutability":"view"},{"type":"function","name":"getVaultAddress","inputs":[],"outputs":[{"name":"","type":"address","internalType":"address"}],"stateMutability":"view"},{"type":"function","name":"getVaultAsset","inputs":[],"outputs":[{"name":"","type":"address","internalType":"address"}],"stateMutability":"view"},{"type":"function","name":"getVaultDecimals","inputs":[],"outputs":[{"name":"","type":"uint256","internalType":"uint256"}],"stateMutability":"view"},{"type":"function","name":"getVaultName","inputs":[],"outputs":[{"name":"","type":"string","internalType":"string"}],"stateMutability":"view"},{"type":"function","name":"getVaultShareBalance","inputs":[],"outputs":[{"name":"","type":"uint256","internalType":"uint256"}],"stateMutability":"view"},{"type":"function","name":"getVaultSymbol","inputs":[],"outputs":[{"name":"","type":"string","internalType":"string"}],"stateMutability":"view"},{"type":"function","name":"initialize","inputs":[{"name":"superRegistry_","type":"address","internalType":"address"},{"name":"vault_","type":"address","internalType":"address"},{"name":"asset_","type":"address","internalType":"address"}],"outputs":[],"stateMutability":"nonpayable"},{"type":"function","name":"previewDepositTo","inputs":[{"name":"assets_","type":"uint256","internalType":"uint256"}],"outputs":[{"name":"","type":"uint256","internalType":"uint256"}],"stateMutability":"view"},{"type":"function","name":"previewRedeemFrom","inputs":[{"name":"shares_","type":"uint256","internalType":"uint256"}],"outputs":[{"name":"","type":"uint256","internalType":"uint256"}],"stateMutability":"view"},{"type":"function","name":"previewWithdrawFrom","inputs":[{"name":"assets_","type":"uint256","internalType":"uint256"}],"outputs":[{"name":"","type":"uint256","internalType":"uint256"}],"stateMutability":"view"},{"type":"function","name":"superRegistry","inputs":[],"outputs":[{"name":"","type":"address","internalType":"contract ISuperRegistry"}],"stateMutability":"view"},{"type":"function","name":"superformYieldTokenName","inputs":[],"outputs":[{"name":"","type":"string","internalType":"string"}],"stateMutability":"view"},{"type":"function","name":"superformYieldTokenSymbol","inputs":[],"outputs":[{"name":"","type":"string","internalType":"string"}],"stateMutability":"view"},{"type":"function","name":"supportsInterface","inputs":[{"name":"interfaceId_","type":"bytes4","internalType":"bytes4"}],"outputs":[{"name":"","type":"bool","internalType":"bool"}],"stateMutability":"view"},{"type":"function","name":"vault","inputs":[],"outputs":[{"name":"","type":"address","internalType":"address"}],"stateMutability":"view"},{"type":"function","name":"xChainDepositIntoVault","inputs":[{"name":"singleVaultData_","type":"tuple","internalType":"struct InitSingleVaultData","components":[{"name":"payloadId","type":"uint256","internalType":"uint256"},{"name":"superformId","type":"uint256","internalType":"uint256"},{"name":"amount","type":"uint256","internalType":"uint256"},{"name":"outputAmount","type":"uint256","internalType":"uint256"},{"name":"maxSlippage","type":"uint256","internalType":"uint256"},{"name":"liqData","type":"tuple","internalType":"struct LiqRequest","components":[{"name":"txData","type":"bytes","internalType":"bytes"},{"name":"token","type":"address","internalType":"address"},{"name":"interimToken","type":"address","internalType":"address"},{"name":"bridgeId","type":"uint8","internalType":"uint8"},{"name":"liqDstChainId","type":"uint64","internalType":"uint64"},{"name":"nativeAmount","type":"uint256","internalType":"uint256"}]},{"name":"hasDstSwap","type":"bool","internalType":"bool"},{"name":"retain4626","type":"bool","internalType":"bool"},{"name":"receiverAddress","type":"address","internalType":"address"},{"name":"extraFormData","type":"bytes","internalType":"bytes"}]},{"name":"srcSender_","type":"address","internalType":"address"},{"name":"srcChainId_","type":"uint64","internalType":"uint64"}],"outputs":[{"name":"shares","type":"uint256","internalType":"uint256"}],"stateMutability":"nonpayable"},{"type":"function","name":"xChainWithdrawFromVault","inputs":[{"name":"singleVaultData_","type":"tuple","internalType":"struct InitSingleVaultData","components":[{"name":"payloadId","type":"uint256","internalType":"uint256"},{"name":"superformId","type":"uint256","internalType":"uint256"},{"name":"amount","type":"uint256","internalType":"uint256"},{"name":"outputAmount","type":"uint256","internalType":"uint256"},{"name":"maxSlippage","type":"uint256","internalType":"uint256"},{"name":"liqData","type":"tuple","internalType":"struct LiqRequest","components":[{"name":"txData","type":"bytes","internalType":"bytes"},{"name":"token","type":"address","internalType":"address"},{"name":"interimToken","type":"address","internalType":"address"},{"name":"bridgeId","type":"uint8","internalType":"uint8"},{"name":"liqDstChainId","type":"uint64","internalType":"uint64"},{"name":"nativeAmount","type":"uint256","internalType":"uint256"}]},{"name":"hasDstSwap","type":"bool","internalType":"bool"},{"name":"retain4626","type":"bool","internalType":"bool"},{"name":"receiverAddress","type":"address","internalType":"address"},{"name":"extraFormData","type":"bytes","internalType":"bytes"}]},{"name":"srcSender_","type":"address","internalType":"address"},{"name":"srcChainId_","type":"uint64","internalType":"uint64"}],"outputs":[{"name":"assets","type":"uint256","internalType":"uint256"}],"stateMutability":"nonpayable"},{"type":"event","name":"EmergencyWithdrawalProcessed","inputs":[{"name":"refundAddress","type":"address","indexed":true,"internalType":"address"},{"name":"amount","type":"uint256","indexed":true,"internalType":"uint256"}],"anonymous":false},{"type":"event","name":"FormDustForwardedToPaymaster","inputs":[{"name":"token","type":"address","indexed":true,"internalType":"address"},{"name":"amount","type":"uint256","indexed":true,"internalType":"uint256"}],"anonymous":false},{"type":"event","name":"Initialized","inputs":[{"name":"version","type":"uint64","indexed":false,"internalType":"uint64"}],"anonymous":false},{"type":"event","name":"Processed","inputs":[{"name":"srcChainID","type":"uint64","indexed":true,"internalType":"uint64"},{"name":"dstChainId","type":"uint64","indexed":true,"internalType":"uint64"},{"name":"srcPayloadId","type":"uint256","indexed":true,"internalType":"uint256"},{"name":"amount","type":"uint256","indexed":false,"internalType":"uint256"},{"name":"vault","type":"address","indexed":false,"internalType":"address"}],"anonymous":false},{"type":"event","name":"VaultAdded","inputs":[{"name":"id","type":"uint256","indexed":true,"internalType":"uint256"},{"name":"vault","type":"address","indexed":true,"internalType":"contract IERC4626"}],"anonymous":false},{"type":"error","name":"AddressEmptyCode","inputs":[{"name":"target","type":"address","internalType":"address"}]},{"type":"error","name":"AddressInsufficientBalance","inputs":[{"name":"account","type":"address","internalType":"address"}]},{"type":"error","name":"BLOCK_CHAIN_ID_OUT_OF_BOUNDS","inputs":[]},{"type":"error","name":"CANNOT_FORWARD_4646_TOKEN","inputs":[]},{"type":"error","name":"DIFFERENT_TOKENS","inputs":[]},{"type":"error","name":"DIRECT_DEPOSIT_SWAP_FAILED","inputs":[]},{"type":"error","name":"DIRECT_WITHDRAW_INVALID_LIQ_REQUEST","inputs":[]},{"type":"error","name":"FAILED_TO_EXECUTE_TXDATA","inputs":[{"name":"token","type":"address","internalType":"address"}]},{"type":"error","name":"FailedInnerCall","inputs":[]},{"type":"error","name":"INSUFFICIENT_ALLOWANCE_FOR_DEPOSIT","inputs":[]},{"type":"error","name":"INSUFFICIENT_BALANCE","inputs":[]},{"type":"error","name":"INSUFFICIENT_NATIVE_AMOUNT","inputs":[]},{"type":"error","name":"INVALID_CHAIN_ID","inputs":[]},{"type":"error","name":"InvalidInitialization","inputs":[]},{"type":"error","name":"NOT_CORE_STATE_REGISTRY","inputs":[]},{"type":"error","name":"NOT_EMERGENCY_QUEUE","inputs":[]},{"type":"error","name":"NOT_SUPERFORM_ROUTER","inputs":[]},{"type":"error","name":"NOT_SUPER_REGISTRY","inputs":[]},{"type":"error","name":"NotInitializing","inputs":[]},{"type":"error","name":"PAUSED","inputs":[]},{"type":"error","name":"SUPERFORM_ID_NONEXISTENT","inputs":[]},{"type":"error","name":"SafeERC20FailedOperation","inputs":[{"name":"token","type":"address","internalType":"address"}]},{"type":"error","name":"VAULT_IMPLEMENTATION_FAILED","inputs":[]},{"type":"error","name":"WITHDRAW_TOKEN_NOT_UPDATED","inputs":[]},{"type":"error","name":"WITHDRAW_TX_DATA_NOT_UPDATED","inputs":[]},{"type":"error","name":"WITHDRAW_ZERO_COLLATERAL","inputs":[]},{"type":"error","name":"XCHAIN_WITHDRAW_INVALID_LIQ_REQUEST","inputs":[]},{"type":"error","name":"ZERO_ADDRESS","inputs":[]},{"type":"error","name":"ZERO_AMOUNT","inputs":[]}],"bytecode":{"object":"0x60e06040523480156200001157600080fd5b5060405162006d1938038062006d1983398181016040528101906200003791906200037d565b80600181600073ffffffffffffffffffffffffffffffffffffffff168173ffffffffffffffffffffffffffffffffffffffff1603620000a2576040517f538ba4f900000000000000000000000000000000000000000000000000000000815260040160405180910390fd5b67ffffffffffffffff8016461115620000e7576040517f7ecdf93300000000000000000000000000000000000000000000000000000000815260040160405180910390fd5b4667ffffffffffffffff1660a08167ffffffffffffffff16815250508073ffffffffffffffffffffffffffffffffffffffff1660808173ffffffffffffffffffffffffffffffffffffffff168152505062000147620001e160201b60201c565b5060805173ffffffffffffffffffffffffffffffffffffffff166357203ab4826040518263ffffffff1660e01b8152600401620001859190620003cd565b602060405180830381865afa158015620001a3573d6000803e3d6000fd5b505050506040513d601f19601f82011682018060405250810190620001c991906200037d565b508060ff1660c08160ff16815250505050506200042c565b6000620001f3620002eb60201b60201c565b90508060000160089054906101000a900460ff16156200023f576040517ff92ee8a900000000000000000000000000000000000000000000000000000000815260040160405180910390fd5b67ffffffffffffffff80168160000160009054906101000a900467ffffffffffffffff1667ffffffffffffffff1614620002e85767ffffffffffffffff8160000160006101000a81548167ffffffffffffffff021916908367ffffffffffffffff1602179055507fc7f505b2f371ae2175ee4913f4499e1f2633a7b5936321eed1cdaeb6115181d267ffffffffffffffff604051620002df91906200040f565b60405180910390a15b50565b60007ff0c57e16840df040f15088dc2f81fe391c3923bec73e23a9662efc9c229c6a00905090565b600080fd5b600073ffffffffffffffffffffffffffffffffffffffff82169050919050565b6000620003458262000318565b9050919050565b620003578162000338565b81146200036357600080fd5b50565b60008151905062000377816200034c565b92915050565b60006020828403121562000396576200039562000313565b5b6000620003a68482850162000366565b91505092915050565b600060ff82169050919050565b620003c781620003af565b82525050565b6000602082019050620003e46000830184620003bc565b92915050565b600067ffffffffffffffff82169050919050565b6200040981620003ea565b82525050565b6000602082019050620004266000830184620003fe565b92915050565b60805160a05160c051616815620005046000396000610e66015260008181610e40015281816113d9015281816121ec0152818161323d0152613b3b01526000818161098101528181610e8c01528181610fd1015281816110d901528181611259015281816115e6015281816116ee0152818161186e01528181611b0e01528181611e6201528181611f8b015281816120cf0152818161224d0152818161264f015281816128dd01528181613164015281816135920152818161398601528181613cd701528181613fed01526142fa01526168156000f3fe6080604052600436106101b75760003560e01c806391deb882116100ec578063c0c53b8b1161008a578063cb829dc311610064578063cb829dc31461061d578063ef164fef1461065a578063fbfa77cf14610697578063ff5f3e48146106c2576101b7565b8063c0c53b8b1461059e578063c32dcd89146105c7578063c4e41b22146105f2576101b7565b80639f5376c1116100c65780639f5376c1146104db578063b60262ca14610506578063b7ba28cd14610531578063b92327751461056e576101b7565b806391deb8821461044a57806395ccea671461047557806395e4f1da1461049e576101b7565b806338d52e0f1161015957806365cacaa41161013357806365cacaa41461039e5780636e07302b146103c957806377188067146103f457806385e1f4d01461041f576101b7565b806338d52e0f1461031f57806338d92fd51461034a5780634dcd03c014610375576101b7565b806320592d981161019557806320592d981461026157806324c73dda1461028c57806335eda680146102b757806337d25010146102e2576101b7565b806301ffc9a7146101bc57806307c080f9146101f957806317a57e0814610236575b600080fd5b3480156101c857600080fd5b506101e360048036038101906101de919061541a565b6106ed565b6040516101f09190615462565b60405180910390f35b34801561020557600080fd5b50610220600480360381019061021b91906154b3565b610767565b60405161022d91906154ef565b60405180910390f35b34801561024257600080fd5b5061024b61080b565b604051610258919061559a565b60405180910390f35b34801561026d57600080fd5b506102766108c5565b604051610283919061559a565b60405180910390f35b34801561029857600080fd5b506102a161097f565b6040516102ae919061563b565b60405180910390f35b3480156102c357600080fd5b506102cc6109a3565b6040516102d991906154ef565b60405180910390f35b3480156102ee57600080fd5b50610309600480360381019061030491906154b3565b610a45565b60405161031691906154ef565b60405180910390f35b34801561032b57600080fd5b50610334610ae9565b6040516103419190615677565b60405180910390f35b34801561035657600080fd5b5061035f610b0f565b60405161036c91906154ef565b60405180910390f35b34801561038157600080fd5b5061039c600480360381019061039791906156be565b610c52565b005b3480156103aa57600080fd5b506103b3610ce3565b6040516103c09190615677565b60405180910390f35b3480156103d557600080fd5b506103de610d0c565b6040516103eb91906154ef565b60405180910390f35b34801561040057600080fd5b50610409610da3565b604051610416919061559a565b60405180910390f35b34801561042b57600080fd5b50610434610e3e565b604051610441919061570e565b60405180910390f35b34801561045657600080fd5b5061045f610e62565b60405161046c9190615745565b60405180910390f35b34801561048157600080fd5b5061049c60048036038101906104979190615760565b610e8a565b005b3480156104aa57600080fd5b506104c560048036038101906104c09190615b4d565b610fb6565b6040516104d291906154ef565b60405180910390f35b3480156104e757600080fd5b506104f0611462565b6040516104fd919061559a565b60405180910390f35b34801561051257600080fd5b5061051b6114fd565b6040516105289190615677565b60405180910390f35b34801561053d57600080fd5b50610558600480360381019061055391906154b3565b611527565b60405161056591906154ef565b60405180910390f35b61058860048036038101906105839190615bbc565b6115cb565b60405161059591906154ef565b60405180910390f35b3480156105aa57600080fd5b506105c560048036038101906105c09190615c18565b6119ea565b005b3480156105d357600080fd5b506105dc611d16565b6040516105e991906154ef565b60405180910390f35b3480156105fe57600080fd5b50610607611db0565b60405161061491906154ef565b60405180910390f35b34801561062957600080fd5b50610644600480360381019061063f9190615bbc565b611e47565b60405161065191906154ef565b60405180910390f35b34801561066657600080fd5b50610681600480360381019061067c9190615b4d565b6120b4565b60405161068e91906154ef565b60405180910390f35b3480156106a357600080fd5b506106ac6123ae565b6040516106b99190615677565b60405180910390f35b3480156106ce57600080fd5b506106d76123d2565b6040516106e491906154ef565b60405180910390f35b60007f51fef147000000000000000000000000000000000000000000000000000000007bffffffffffffffffffffffffffffffffffffffffffffffffffffffff1916827bffffffffffffffffffffffffffffffffffffffffffffffffffffffff19161480610760575061075f82612515565b5b9050919050565b60008060009054906101000a900473ffffffffffffffffffffffffffffffffffffffff1673ffffffffffffffffffffffffffffffffffffffff1663c6e6f592836040518263ffffffff1660e01b81526004016107c391906154ef565b602060405180830381865afa1580156107e0573d6000803e3d6000fd5b505050506040513d601f19601f820116820180604052508101906108049190615c80565b9050919050565b606060008054906101000a900473ffffffffffffffffffffffffffffffffffffffff1673ffffffffffffffffffffffffffffffffffffffff166395d89b416040518163ffffffff1660e01b8152600401600060405180830381865afa158015610878573d6000803e3d6000fd5b505050506040513d6000823e3d601f19601f820116820180604052508101906108a19190615d4e565b6040516020016108b19190615e1f565b604051602081830303815290604052905090565b606060008054906101000a900473ffffffffffffffffffffffffffffffffffffffff1673ffffffffffffffffffffffffffffffffffffffff166306fdde036040518163ffffffff1660e01b8152600401600060405180830381865afa158015610932573d6000803e3d6000fd5b505050506040513d6000823e3d601f19601f8201168201806040525081019061095b9190615d4e565b60405160200161096b9190615e8d565b604051602081830303815290604052905090565b7f000000000000000000000000000000000000000000000000000000000000000081565b60008060009054906101000a900473ffffffffffffffffffffffffffffffffffffffff1673ffffffffffffffffffffffffffffffffffffffff166370a08231306040518263ffffffff1660e01b81526004016109ff9190615677565b602060405180830381865afa158015610a1c573d6000803e3d6000fd5b505050506040513d601f19601f82011682018060405250810190610a409190615c80565b905090565b60008060009054906101000a900473ffffffffffffffffffffffffffffffffffffffff1673ffffffffffffffffffffffffffffffffffffffff16630a28a477836040518263ffffffff1660e01b8152600401610aa191906154ef565b602060405180830381865afa158015610abe573d6000803e3d6000fd5b505050506040513d601f19601f82011682018060405250810190610ae29190615c80565b9050919050565b600160009054906101000a900473ffffffffffffffffffffffffffffffffffffffff1681565b60008060008054906101000a900473ffffffffffffffffffffffffffffffffffffffff1673ffffffffffffffffffffffffffffffffffffffff1663313ce5676040518163ffffffff1660e01b8152600401602060405180830381865afa158015610b7d573d6000803e3d6000fd5b505050506040513d601f19601f82011682018060405250810190610ba19190615ec4565b60ff16905060008054906101000a900473ffffffffffffffffffffffffffffffffffffffff1673ffffffffffffffffffffffffffffffffffffffff16634cdad50682600a610bef9190616053565b6040518263ffffffff1660e01b8152600401610c0b91906154ef565b602060405180830381865afa158015610c28573d6000803e3d6000fd5b505050506040513d601f19601f82011682018060405250810190610c4c9190615c80565b91505090565b60008054906101000a900473ffffffffffffffffffffffffffffffffffffffff1673ffffffffffffffffffffffffffffffffffffffff168173ffffffffffffffffffffffffffffffffffffffff1603610cd7576040517f6ba4485300000000000000000000000000000000000000000000000000000000815260040160405180910390fd5b610ce08161257f565b50565b60008060009054906101000a900473ffffffffffffffffffffffffffffffffffffffff16905090565b60008060009054906101000a900473ffffffffffffffffffffffffffffffffffffffff1673ffffffffffffffffffffffffffffffffffffffff166301e1d1146040518163ffffffff1660e01b8152600401602060405180830381865afa158015610d7a573d6000803e3d6000fd5b505050506040513d601f19601f82011682018060405250810190610d9e9190615c80565b905090565b606060008054906101000a900473ffffffffffffffffffffffffffffffffffffffff1673ffffffffffffffffffffffffffffffffffffffff166395d89b416040518163ffffffff1660e01b8152600401600060405180830381865afa158015610e10573d6000803e3d6000fd5b505050506040513d6000823e3d601f19601f82011682018060405250810190610e399190615d4e565b905090565b7f000000000000000000000000000000000000000000000000000000000000000081565b60007f0000000000000000000000000000000000000000000000000000000000000000905090565b7f000000000000000000000000000000000000000000000000000000000000000073ffffffffffffffffffffffffffffffffffffffff166321f8a7217fa2d83cf6f43caf068994e5ffe0938f6eabaa551d915b59bfda16ba012d30d9686040518263ffffffff1660e01b8152600401610f0391906160b7565b602060405180830381865afa158015610f20573d6000803e3d6000fd5b505050506040513d601f19601f82011682018060405250810190610f4491906160e7565b73ffffffffffffffffffffffffffffffffffffffff163373ffffffffffffffffffffffffffffffffffffffff1614610fa8576040517f94949e6200000000000000000000000000000000000000000000000000000000815260040160405180910390fd5b610fb2828261258b565b5050565b60003373ffffffffffffffffffffffffffffffffffffffff167f000000000000000000000000000000000000000000000000000000000000000073ffffffffffffffffffffffffffffffffffffffff166321f8a7217f55b101fc856aff484166c46ad33bc74831c135693c159b0092bb3b72254ffb6b6040518263ffffffff1660e01b815260040161104891906160b7565b602060405180830381865afa158015611065573d6000803e3d6000fd5b505050506040513d601f19601f8201168201806040525081019061108991906160e7565b73ffffffffffffffffffffffffffffffffffffffff16146110d6576040517f8c1715e200000000000000000000000000000000000000000000000000000000815260040160405180910390fd5b837f000000000000000000000000000000000000000000000000000000000000000073ffffffffffffffffffffffffffffffffffffffff166321f8a7217fbcc180fb907e9ae431665de4bc74305c00b7b27442aadd477980ecc4bb14c0116040518263ffffffff1660e01b815260040161115091906160b7565b602060405180830381865afa15801561116d573d6000803e3d6000fd5b505050506040513d601f19601f8201168201806040525081019061119191906160e7565b73ffffffffffffffffffffffffffffffffffffffff1663b5c7569782602001516040518263ffffffff1660e01b81526004016111cd91906154ef565b602060405180830381865afa1580156111ea573d6000803e3d6000fd5b505050506040513d601f19601f8201168201806040525081019061120e9190616129565b611244576040517fa412f06500000000000000000000000000000000000000000000000000000000815260040160405180910390fd5b60006112538260200151612599565b509150507f000000000000000000000000000000000000000000000000000000000000000073ffffffffffffffffffffffffffffffffffffffff166321f8a7217fbcc180fb907e9ae431665de4bc74305c00b7b27442aadd477980ecc4bb14c0116040518263ffffffff1660e01b81526004016112d091906160b7565b602060405180830381865afa1580156112ed573d6000803e3d6000fd5b505050506040513d601f19601f8201168201806040525081019061131191906160e7565b73ffffffffffffffffffffffffffffffffffffffff1663596db717826040518263ffffffff1660e01b81526004016113499190616175565b602060405180830381865afa158015611366573d6000803e3d6000fd5b505050506040513d601f19601f8201168201806040525081019061138a9190616129565b156113c1576040517fa9aad58c00000000000000000000000000000000000000000000000000000000815260040160405180910390fd5b60008467ffffffffffffffff161415801561141057507f000000000000000000000000000000000000000000000000000000000000000067ffffffffffffffff168467ffffffffffffffff1614155b15611427576114208686866125fa565b9250611459565b6040517f030042b700000000000000000000000000000000000000000000000000000000815260040160405180910390fd5b50509392505050565b606060008054906101000a900473ffffffffffffffffffffffffffffffffffffffff1673ffffffffffffffffffffffffffffffffffffffff166306fdde036040518163ffffffff1660e01b8152600401600060405180830381865afa1580156114cf573d6000803e3d6000fd5b505050506040513d6000823e3d601f19601f820116820180604052508101906114f89190615d4e565b905090565b6000600160009054906101000a900473ffffffffffffffffffffffffffffffffffffffff16905090565b60008060009054906101000a900473ffffffffffffffffffffffffffffffffffffffff1673ffffffffffffffffffffffffffffffffffffffff16634cdad506836040518263ffffffff1660e01b815260040161158391906154ef565b602060405180830381865afa1580156115a0573d6000803e3d6000fd5b505050506040513d601f19601f820116820180604052508101906115c49190615c80565b9050919050565b60003373ffffffffffffffffffffffffffffffffffffffff167f000000000000000000000000000000000000000000000000000000000000000073ffffffffffffffffffffffffffffffffffffffff166321f8a7217f3a2f5529773e03d975be44bdae98a8509bdf1159e407504e558536cde56cf6ac6040518263ffffffff1660e01b815260040161165d91906160b7565b602060405180830381865afa15801561167a573d6000803e3d6000fd5b505050506040513d601f19601f8201168201806040525081019061169e91906160e7565b73ffffffffffffffffffffffffffffffffffffffff16146116eb576040517f158a2f6b00000000000000000000000000000000000000000000000000000000815260040160405180910390fd5b827f000000000000000000000000000000000000000000000000000000000000000073ffffffffffffffffffffffffffffffffffffffff166321f8a7217fbcc180fb907e9ae431665de4bc74305c00b7b27442aadd477980ecc4bb14c0116040518263ffffffff1660e01b815260040161176591906160b7565b602060405180830381865afa158015611782573d6000803e3d6000fd5b505050506040513d601f19601f820116820180604052508101906117a691906160e7565b73ffffffffffffffffffffffffffffffffffffffff1663b5c7569782602001516040518263ffffffff1660e01b81526004016117e291906154ef565b602060405180830381865afa1580156117ff573d6000803e3d6000fd5b505050506040513d601f19601f820116820180604052508101906118239190616129565b611859576040517fa412f06500000000000000000000000000000000000000000000000000000000815260040160405180910390fd5b60006118688260200151612599565b509150507f000000000000000000000000000000000000000000000000000000000000000073ffffffffffffffffffffffffffffffffffffffff166321f8a7217fbcc180fb907e9ae431665de4bc74305c00b7b27442aadd477980ecc4bb14c0116040518263ffffffff1660e01b81526004016118e591906160b7565b602060405180830381865afa158015611902573d6000803e3d6000fd5b505050506040513d601f19601f8201168201806040525081019061192691906160e7565b73ffffffffffffffffffffffffffffffffffffffff1663596db717826040518263ffffffff1660e01b815260040161195e9190616175565b602060405180830381865afa15801561197b573d6000803e3d6000fd5b505050506040513d601f19601f8201168201806040525081019061199f9190616129565b156119d6576040517fa9aad58c00000000000000000000000000000000000000000000000000000000815260040160405180910390fd5b6119e0858561260f565b9250505092915050565b60006119f4612622565b905060008160000160089054906101000a900460ff1615905060008260000160009054906101000a900467ffffffffffffffff1690506000808267ffffffffffffffff16148015611a425750825b9050600060018367ffffffffffffffff16148015611a77575060003073ffffffffffffffffffffffffffffffffffffffff163b145b905081158015611a85575080155b15611abc576040517ff92ee8a900000000000000000000000000000000000000000000000000000000815260040160405180910390fd5b60018560000160006101000a81548167ffffffffffffffff021916908367ffffffffffffffff1602179055508315611b0c5760018560000160086101000a81548160ff0219169083151502179055505b7f000000000000000000000000000000000000000000000000000000000000000073ffffffffffffffffffffffffffffffffffffffff168873ffffffffffffffffffffffffffffffffffffffff1614611b91576040517fe7b6503f00000000000000000000000000000000000000000000000000000000815260040160405180910390fd5b600073ffffffffffffffffffffffffffffffffffffffff168773ffffffffffffffffffffffffffffffffffffffff161480611bf85750600073ffffffffffffffffffffffffffffffffffffffff168673ffffffffffffffffffffffffffffffffffffffff16145b15611c2f576040517f538ba4f900000000000000000000000000000000000000000000000000000000815260040160405180910390fd5b866000806101000a81548173ffffffffffffffffffffffffffffffffffffffff021916908373ffffffffffffffffffffffffffffffffffffffff16021790555085600160006101000a81548173ffffffffffffffffffffffffffffffffffffffff021916908373ffffffffffffffffffffffffffffffffffffffff1602179055508315611d0c5760008560000160086101000a81548160ff0219169083151502179055507fc7f505b2f371ae2175ee4913f4499e1f2633a7b5936321eed1cdaeb6115181d26001604051611d0391906161cb565b60405180910390a15b5050505050505050565b60008060009054906101000a900473ffffffffffffffffffffffffffffffffffffffff1673ffffffffffffffffffffffffffffffffffffffff1663313ce5676040518163ffffffff1660e01b8152600401602060405180830381865afa158015611d84573d6000803e3d6000fd5b505050506040513d601f19601f82011682018060405250810190611da89190615ec4565b60ff16905090565b60008060009054906101000a900473ffffffffffffffffffffffffffffffffffffffff1673ffffffffffffffffffffffffffffffffffffffff166318160ddd6040518163ffffffff1660e01b8152600401602060405180830381865afa158015611e1e573d6000803e3d6000fd5b505050506040513d601f19601f82011682018060405250810190611e429190615c80565b905090565b60003373ffffffffffffffffffffffffffffffffffffffff167f000000000000000000000000000000000000000000000000000000000000000073ffffffffffffffffffffffffffffffffffffffff166321f8a7217f3a2f5529773e03d975be44bdae98a8509bdf1159e407504e558536cde56cf6ac6040518263ffffffff1660e01b8152600401611ed991906160b7565b602060405180830381865afa158015611ef6573d6000803e3d6000fd5b505050506040513d601f19601f82011682018060405250810190611f1a91906160e7565b73ffffffffffffffffffffffffffffffffffffffff1614611f67576040517f158a2f6b00000000000000000000000000000000000000000000000000000000815260040160405180910390fd5b611f74836020015161264a565b611f8957611f82838361284b565b90506120ae565b7f000000000000000000000000000000000000000000000000000000000000000073ffffffffffffffffffffffffffffffffffffffff166321f8a7217fa2d83cf6f43caf068994e5ffe0938f6eabaa551d915b59bfda16ba012d30d9686040518263ffffffff1660e01b815260040161200291906160b7565b602060405180830381865afa15801561201f573d6000803e3d6000fd5b505050506040513d601f19601f8201168201806040525081019061204391906160e7565b73ffffffffffffffffffffffffffffffffffffffff1663bfdf22ad846040518263ffffffff1660e01b815260040161207b91906163f0565b600060405180830381600087803b15801561209557600080fd5b505af11580156120a9573d6000803e3d6000fd5b505050505b92915050565b60003373ffffffffffffffffffffffffffffffffffffffff167f000000000000000000000000000000000000000000000000000000000000000073ffffffffffffffffffffffffffffffffffffffff166321f8a7217f55b101fc856aff484166c46ad33bc74831c135693c159b0092bb3b72254ffb6b6040518263ffffffff1660e01b815260040161214691906160b7565b602060405180830381865afa158015612163573d6000803e3d6000fd5b505050506040513d601f19601f8201168201806040525081019061218791906160e7565b73ffffffffffffffffffffffffffffffffffffffff16146121d4576040517f8c1715e200000000000000000000000000000000000000000000000000000000815260040160405180910390fd5b60008267ffffffffffffffff161415801561222357507f000000000000000000000000000000000000000000000000000000000000000067ffffffffffffffff168267ffffffffffffffff1614155b1561237557612235846020015161264a565b61224b5761224484848461285e565b9050612370565b7f000000000000000000000000000000000000000000000000000000000000000073ffffffffffffffffffffffffffffffffffffffff166321f8a7217fa2d83cf6f43caf068994e5ffe0938f6eabaa551d915b59bfda16ba012d30d9686040518263ffffffff1660e01b81526004016122c491906160b7565b602060405180830381865afa1580156122e1573d6000803e3d6000fd5b505050506040513d601f19601f8201168201806040525081019061230591906160e7565b73ffffffffffffffffffffffffffffffffffffffff1663bfdf22ad856040518263ffffffff1660e01b815260040161233d91906163f0565b600060405180830381600087803b15801561235757600080fd5b505af115801561236b573d6000803e3d6000fd5b505050505b6123a7565b6040517f030042b700000000000000000000000000000000000000000000000000000000815260040160405180910390fd5b9392505050565b60008054906101000a900473ffffffffffffffffffffffffffffffffffffffff1681565b60008060008054906101000a900473ffffffffffffffffffffffffffffffffffffffff1673ffffffffffffffffffffffffffffffffffffffff1663313ce5676040518163ffffffff1660e01b8152600401602060405180830381865afa158015612440573d6000803e3d6000fd5b505050506040513d601f19601f820116820180604052508101906124649190615ec4565b60ff16905060008054906101000a900473ffffffffffffffffffffffffffffffffffffffff1673ffffffffffffffffffffffffffffffffffffffff166307a2d13a82600a6124b29190616053565b6040518263ffffffff1660e01b81526004016124ce91906154ef565b602060405180830381865afa1580156124eb573d6000803e3d6000fd5b505050506040513d601f19601f8201168201806040525081019061250f9190615c80565b91505090565b60007f01ffc9a7000000000000000000000000000000000000000000000000000000007bffffffffffffffffffffffffffffffffffffffffffffffffffffffff1916827bffffffffffffffffffffffffffffffffffffffffffffffffffffffff1916149050919050565b61258881612873565b50565b6125958282612a98565b5050565b600080600083925060a084901c915060c084901c905060008167ffffffffffffffff16036125f3576040517f030042b700000000000000000000000000000000000000000000000000000000815260040160405180910390fd5b9193909250565b60006126068483612c4b565b90509392505050565b600061261a83612e7a565b905092915050565b60007ff0c57e16840df040f15088dc2f81fe391c3923bec73e23a9662efc9c229c6a00905090565b6000807f000000000000000000000000000000000000000000000000000000000000000073ffffffffffffffffffffffffffffffffffffffff166321f8a7217fbcc180fb907e9ae431665de4bc74305c00b7b27442aadd477980ecc4bb14c0116040518263ffffffff1660e01b81526004016126c691906160b7565b602060405180830381865afa1580156126e3573d6000803e3d6000fd5b505050506040513d601f19601f8201168201806040525081019061270791906160e7565b90508073ffffffffffffffffffffffffffffffffffffffff1663b5c75697846040518263ffffffff1660e01b815260040161274291906154ef565b602060405180830381865afa15801561275f573d6000803e3d6000fd5b505050506040513d601f19601f820116820180604052508101906127839190616129565b6127b9576040517fa412f06500000000000000000000000000000000000000000000000000000000815260040160405180910390fd5b60006127c484612599565b509150508173ffffffffffffffffffffffffffffffffffffffff1663596db717826040518263ffffffff1660e01b81526004016128019190616175565b602060405180830381865afa15801561281e573d6000803e3d6000fd5b505050506040513d601f19601f820116820180604052508101906128429190616129565b92505050919050565b6000612856836138ac565b905092915050565b600061286a8483613de7565b90509392505050565b600073ffffffffffffffffffffffffffffffffffffffff168173ffffffffffffffffffffffffffffffffffffffff16036128d9576040517f538ba4f900000000000000000000000000000000000000000000000000000000815260040160405180910390fd5b60007f000000000000000000000000000000000000000000000000000000000000000073ffffffffffffffffffffffffffffffffffffffff166321f8a7217fbddfa8c39a1f6275bcfb3aa5c70638c466999edbf14e6162d81b3492caca9fce6040518263ffffffff1660e01b815260040161295491906160b7565b602060405180830381865afa158015612971573d6000803e3d6000fd5b505050506040513d601f19601f8201168201806040525081019061299591906160e7565b9050600082905060008173ffffffffffffffffffffffffffffffffffffffff166370a08231306040518263ffffffff1660e01b81526004016129d79190615677565b602060405180830381865afa1580156129f4573d6000803e3d6000fd5b505050506040513d601f19601f82011682018060405250810190612a189190615c80565b905060008114612a9257612a4d83828473ffffffffffffffffffffffffffffffffffffffff166144899092919063ffffffff16565b808473ffffffffffffffffffffffffffffffffffffffff167fd34222ea8b5b095ec7a6f42ff87fa762ab480b9e8cea464915ee985f1510c10a60405160405180910390a35b50505050565b60008060009054906101000a900473ffffffffffffffffffffffffffffffffffffffff169050600073ffffffffffffffffffffffffffffffffffffffff168373ffffffffffffffffffffffffffffffffffffffff1603612b24576040517f538ba4f900000000000000000000000000000000000000000000000000000000815260040160405180910390fd5b818173ffffffffffffffffffffffffffffffffffffffff166370a08231306040518263ffffffff1660e01b8152600401612b5e9190615677565b602060405180830381865afa158015612b7b573d6000803e3d6000fd5b505050506040513d601f19601f82011682018060405250810190612b9f9190615c80565b1015612bd7576040517f50b1f35600000000000000000000000000000000000000000000000000000000815260040160405180910390fd5b612c0283838373ffffffffffffffffffffffffffffffffffffffff166144899092919063ffffffff16565b818373ffffffffffffffffffffffffffffffffffffffff167f83b8068554a495dbb4af07014f8171144d6670eb522b356f8d3f37cbd76ba11660405160405180910390a3505050565b600080612c5b8460200151612599565b9250505060008060009054906101000a900473ffffffffffffffffffffffffffffffffffffffff16905060008190508560400151600160009054906101000a900473ffffffffffffffffffffffffffffffffffffffff1673ffffffffffffffffffffffffffffffffffffffff1663dd62ed3e33306040518363ffffffff1660e01b8152600401612cec929190616412565b602060405180830381865afa158015612d09573d6000803e3d6000fd5b505050506040513d601f19601f82011682018060405250810190612d2d9190615c80565b1015612d64576040517ec78d2600000000000000000000000000000000000000000000000000000000815260040160405180910390fd5b612db733308860400151600160009054906101000a900473ffffffffffffffffffffffffffffffffffffffff1673ffffffffffffffffffffffffffffffffffffffff16614508909392919063ffffffff16565b612e08828760400151600160009054906101000a900473ffffffffffffffffffffffffffffffffffffffff1673ffffffffffffffffffffffffffffffffffffffff1661458a9092919063ffffffff16565b612e1786828860400151614626565b935085600001518367ffffffffffffffff168667ffffffffffffffff167f9664a7293fbeac5e42927bc5eb69c82d1fe2f0b17e510b38ebfba582d47923fe896040015186604051612e6992919061643b565b60405180910390a450505092915050565b6000612e8461525b565b60008060009054906101000a900473ffffffffffffffffffffffffffffffffffffffff169050600160009054906101000a900473ffffffffffffffffffffffffffffffffffffffff16826020019073ffffffffffffffffffffffffffffffffffffffff16908173ffffffffffffffffffffffffffffffffffffffff1681525050816020015173ffffffffffffffffffffffffffffffffffffffff166370a08231306040518263ffffffff1660e01b8152600401612f419190615677565b602060405180830381865afa158015612f5e573d6000803e3d6000fd5b505050506040513d601f19601f82011682018060405250810190612f829190615c80565b82608001818152505060008460a0015160200151905073eeeeeeeeeeeeeeeeeeeeeeeeeeeeeeeeeeeeeeee73ffffffffffffffffffffffffffffffffffffffff168173ffffffffffffffffffffffffffffffffffffffff1614158015612ff1575060008560a001516000015151145b1561315157826020015173ffffffffffffffffffffffffffffffffffffffff168560a001516020015173ffffffffffffffffffffffffffffffffffffffff1614613067576040517f8560d33800000000000000000000000000000000000000000000000000000000815260040160405180910390fd5b84604001518173ffffffffffffffffffffffffffffffffffffffff1663dd62ed3e33306040518363ffffffff1660e01b81526004016130a7929190616412565b602060405180830381865afa1580156130c4573d6000803e3d6000fd5b505050506040513d601f19601f820116820180604052508101906130e89190615c80565b101561311f576040517ec78d2600000000000000000000000000000000000000000000000000000000815260040160405180910390fd5b613150333087604001518473ffffffffffffffffffffffffffffffffffffffff16614508909392919063ffffffff16565b5b60008560a0015160000151511461373f577f000000000000000000000000000000000000000000000000000000000000000073ffffffffffffffffffffffffffffffffffffffff1663e85b2b548660a00151606001516040518263ffffffff1660e01b81526004016131c39190615745565b602060405180830381865afa1580156131e0573d6000803e3d6000fd5b505050506040513d601f19601f8201168201806040525081019061320491906160e7565b836040019073ffffffffffffffffffffffffffffffffffffffff16908173ffffffffffffffffffffffffffffffffffffffff16815250507f0000000000000000000000000000000000000000000000000000000000000000836000019067ffffffffffffffff16908167ffffffffffffffff1681525050826040015173ffffffffffffffffffffffffffffffffffffffff16639bbbb5c88660a001516000015160006040518363ffffffff1660e01b81526004016132c39291906164ae565b602060405180830381865afa1580156132e0573d6000803e3d6000fd5b505050506040513d601f19601f820116820180604052508101906133049190615c80565b8361010001818152505073eeeeeeeeeeeeeeeeeeeeeeeeeeeeeeeeeeeeeeee73ffffffffffffffffffffffffffffffffffffffff168173ffffffffffffffffffffffffffffffffffffffff1614613441578261010001518173ffffffffffffffffffffffffffffffffffffffff1663dd62ed3e33306040518363ffffffff1660e01b8152600401613396929190616412565b602060405180830381865afa1580156133b3573d6000803e3d6000fd5b505050506040513d601f19601f820116820180604052508101906133d79190615c80565b101561340e576040517ec78d2600000000000000000000000000000000000000000000000000000000815260040160405180910390fd5b61344033308561010001518473ffffffffffffffffffffffffffffffffffffffff16614508909392919063ffffffff16565b5b826040015173ffffffffffffffffffffffffffffffffffffffff1663c87439eb6040518061012001604052808860a00151600001518152602001866000015167ffffffffffffffff168152602001866000015167ffffffffffffffff168152602001866000015167ffffffffffffffff1681526020016001151581526020013073ffffffffffffffffffffffffffffffffffffffff1681526020013373ffffffffffffffffffffffffffffffffffffffff1681526020018473ffffffffffffffffffffffffffffffffffffffff168152602001600073ffffffffffffffffffffffffffffffffffffffff168152506040518263ffffffff1660e01b815260040161354b91906165a3565b602060405180830381865afa158015613568573d6000803e3d6000fd5b505050506040513d601f19601f8201168201806040525081019061358c9190616129565b506136507f000000000000000000000000000000000000000000000000000000000000000073ffffffffffffffffffffffffffffffffffffffff1663ca7adffb8760a00151606001516040518263ffffffff1660e01b81526004016135f19190615745565b602060405180830381865afa15801561360e573d6000803e3d6000fd5b505050506040513d601f19601f8201168201806040525081019061363291906160e7565b8660a0015160000151838661010001518960a0015160a00151614844565b826020015173ffffffffffffffffffffffffffffffffffffffff16836040015173ffffffffffffffffffffffffffffffffffffffff16632db883238760a00151600001516040518263ffffffff1660e01b81526004016136b091906165c5565b602060405180830381865afa1580156136cd573d6000803e3d6000fd5b505050506040513d601f19601f820116820180604052508101906136f191906160e7565b73ffffffffffffffffffffffffffffffffffffffff161461373e576040517f8560d33800000000000000000000000000000000000000000000000000000000815260040160405180910390fd5b5b8260800151836020015173ffffffffffffffffffffffffffffffffffffffff166370a08231306040518263ffffffff1660e01b81526004016137819190615677565b602060405180830381865afa15801561379e573d6000803e3d6000fd5b505050506040513d601f19601f820116820180604052508101906137c29190615c80565b6137cc91906165e7565b8360a001818152505084608001516127106137e791906165e7565b85604001516137f6919061661b565b6127108460a00151613808919061661b565b1015613840576040517f0edf4d2300000000000000000000000000000000000000000000000000000000815260040160405180910390fd5b61389360008054906101000a900473ffffffffffffffffffffffffffffffffffffffff168460a00151856020015173ffffffffffffffffffffffffffffffffffffffff1661458a9092919063ffffffff16565b6138a285838560a00151614626565b9350505050919050565b60006138b66152e4565b60008060009054906101000a900473ffffffffffffffffffffffffffffffffffffffff1690506000600160009054906101000a900473ffffffffffffffffffffffffffffffffffffffff1690508460e00151613d9e57600160009054906101000a900473ffffffffffffffffffffffffffffffffffffffff16836020019073ffffffffffffffffffffffffffffffffffffffff16908173ffffffffffffffffffffffffffffffffffffffff1681525050613971858383614b87565b935060008560a00151600001515114613d99577f000000000000000000000000000000000000000000000000000000000000000073ffffffffffffffffffffffffffffffffffffffff1663e85b2b548660a00151606001516040518263ffffffff1660e01b81526004016139e59190615745565b602060405180830381865afa158015613a02573d6000803e3d6000fd5b505050506040513d601f19601f82011682018060405250810190613a2691906160e7565b836040019073ffffffffffffffffffffffffffffffffffffffff16908173ffffffffffffffffffffffffffffffffffffffff1681525050826040015173ffffffffffffffffffffffffffffffffffffffff16639bbbb5c88660a001516000015160006040518363ffffffff1660e01b8152600401613aa59291906164ae565b602060405180830381865afa158015613ac2573d6000803e3d6000fd5b505050506040513d601f19601f82011682018060405250810190613ae69190615c80565b836060018181525050613b028360600151858760800151614ded565b15613b39576040517f235a81fc00000000000000000000000000000000000000000000000000000000815260040160405180910390fd5b7f0000000000000000000000000000000000000000000000000000000000000000836000019067ffffffffffffffff16908167ffffffffffffffff1681525050826040015173ffffffffffffffffffffffffffffffffffffffff1663c87439eb6040518061012001604052808860a00151600001518152602001866000015167ffffffffffffffff168152602001866000015167ffffffffffffffff1681526020018860a001516080015167ffffffffffffffff1681526020016000151581526020013073ffffffffffffffffffffffffffffffffffffffff16815260200188610100015173ffffffffffffffffffffffffffffffffffffffff168152602001866020015173ffffffffffffffffffffffffffffffffffffffff168152602001600073ffffffffffffffffffffffffffffffffffffffff168152506040518263ffffffff1660e01b8152600401613c9091906165a3565b602060405180830381865afa158015613cad573d6000803e3d6000fd5b505050506040513d601f19601f82011682018060405250810190613cd19190616129565b50613d987f000000000000000000000000000000000000000000000000000000000000000073ffffffffffffffffffffffffffffffffffffffff1663ca7adffb8760a00151606001516040518263ffffffff1660e01b8152600401613d369190615745565b602060405180830381865afa158015613d53573d6000803e3d6000fd5b505050506040513d601f19601f82011682018060405250810190613d7791906160e7565b8660a0015160000151856020015186606001518960a0015160a00151614844565b5b613dde565b613dd285610100015186604001518473ffffffffffffffffffffffffffffffffffffffff166144899092919063ffffffff16565b60009350505050613de2565b5050505b919050565b6000613df1615342565b60008460a0015160000151519050600073ffffffffffffffffffffffffffffffffffffffff168560a001516020015173ffffffffffffffffffffffffffffffffffffffff1614158015613e445750600081145b15613e7b576040517f478d2a8000000000000000000000000000000000000000000000000000000000815260040160405180910390fd5b600073ffffffffffffffffffffffffffffffffffffffff168560a001516020015173ffffffffffffffffffffffffffffffffffffffff16148015613ec0575060008114155b15613ef7576040517fa9644b6700000000000000000000000000000000000000000000000000000000815260040160405180910390fd5b613f048560200151612599565b9091509050826000018167ffffffffffffffff1667ffffffffffffffff168152505060008060009054906101000a900473ffffffffffffffffffffffffffffffffffffffff1690506000600160009054906101000a900473ffffffffffffffffffffffffffffffffffffffff1690508660e001516143c157600160009054906101000a900473ffffffffffffffffffffffffffffffffffffffff16846020019073ffffffffffffffffffffffffffffffffffffffff16908173ffffffffffffffffffffffffffffffffffffffff1681525050613fe1878383614b87565b9450600083146143bc577f000000000000000000000000000000000000000000000000000000000000000073ffffffffffffffffffffffffffffffffffffffff1663e85b2b548860a00151606001516040518263ffffffff1660e01b815260040161404c9190615745565b602060405180830381865afa158015614069573d6000803e3d6000fd5b505050506040513d601f19601f8201168201806040525081019061408d91906160e7565b846040019073ffffffffffffffffffffffffffffffffffffffff16908173ffffffffffffffffffffffffffffffffffffffff1681525050836040015173ffffffffffffffffffffffffffffffffffffffff16639bbbb5c88860a001516000015160006040518363ffffffff1660e01b815260040161410c9291906164ae565b602060405180830381865afa158015614129573d6000803e3d6000fd5b505050506040513d601f19601f8201168201806040525081019061414d9190615c80565b8460a00181815250506141698460a00151868960800151614ded565b156141a0576040517f6cbab5a500000000000000000000000000000000000000000000000000000000815260040160405180910390fd5b836040015173ffffffffffffffffffffffffffffffffffffffff1663c87439eb6040518061012001604052808a60a00151600001518152602001876000015167ffffffffffffffff1681526020018967ffffffffffffffff1681526020018a60a001516080015167ffffffffffffffff1681526020016000151581526020013073ffffffffffffffffffffffffffffffffffffffff1681526020018a610100015173ffffffffffffffffffffffffffffffffffffffff168152602001876020015173ffffffffffffffffffffffffffffffffffffffff168152602001600073ffffffffffffffffffffffffffffffffffffffff168152506040518263ffffffff1660e01b81526004016142b391906165a3565b602060405180830381865afa1580156142d0573d6000803e3d6000fd5b505050506040513d601f19601f820116820180604052508101906142f49190616129565b506143bb7f000000000000000000000000000000000000000000000000000000000000000073ffffffffffffffffffffffffffffffffffffffff1663ca7adffb8960a00151606001516040518263ffffffff1660e01b81526004016143599190615745565b602060405180830381865afa158015614376573d6000803e3d6000fd5b505050506040513d601f19601f8201168201806040525081019061439a91906160e7565b8860a001516000015186602001518760a001518b60a0015160a00151614844565b5b614402565b6143f587610100015188604001518473ffffffffffffffffffffffffffffffffffffffff166144899092919063ffffffff16565b6000945050505050614483565b8660000151846000015167ffffffffffffffff168767ffffffffffffffff167f9664a7293fbeac5e42927bc5eb69c82d1fe2f0b17e510b38ebfba582d47923fe8a6040015160008054906101000a900473ffffffffffffffffffffffffffffffffffffffff1660405161447692919061643b565b60405180910390a4505050505b92915050565b614503838473ffffffffffffffffffffffffffffffffffffffff1663a9059cbb85856040516024016144bc92919061665d565b604051602081830303815290604052915060e01b6020820180517bffffffffffffffffffffffffffffffffffffffffffffffffffffffff8381831617835250505050614e37565b505050565b614584848573ffffffffffffffffffffffffffffffffffffffff166323b872dd86868660405160240161453d93929190616686565b604051602081830303815290604052915060e01b6020820180517bffffffffffffffffffffffffffffffffffffffffffffffffffffffff8381831617835250505050614e37565b50505050565b60008373ffffffffffffffffffffffffffffffffffffffff1663dd62ed3e30856040518363ffffffff1660e01b81526004016145c7929190616412565b602060405180830381865afa1580156145e4573d6000803e3d6000fd5b505050506040513d601f19601f820116820180604052508101906146089190615c80565b90506146208484848461461b91906166bd565b614ece565b50505050565b6000808460e00151614638573061463f565b8461010001515b905060008473ffffffffffffffffffffffffffffffffffffffff166370a08231836040518263ffffffff1660e01b815260040161467c9190615677565b602060405180830381865afa158015614699573d6000803e3d6000fd5b505050506040513d601f19601f820116820180604052508101906146bd9190615c80565b90508473ffffffffffffffffffffffffffffffffffffffff16636e553f6585846040518363ffffffff1660e01b81526004016146fa92919061643b565b6020604051808303816000875af1158015614719573d6000803e3d6000fd5b505050506040513d601f19601f8201168201806040525081019061473d9190615c80565b925060008573ffffffffffffffffffffffffffffffffffffffff166370a08231846040518263ffffffff1660e01b815260040161477a9190615677565b602060405180830381865afa158015614797573d6000803e3d6000fd5b505050506040513d601f19601f820116820180604052508101906147bb9190615c80565b90508382826147ca91906165e7565b141580614803575086608001516127106147e491906165e7565b87606001516147f3919061661b565b84612710614801919061661b565b105b1561483a576040517fbd7f1b4200000000000000000000000000000000000000000000000000000000815260040160405180910390fd5b5050509392505050565b6000820361487e576040517ff6fa545000000000000000000000000000000000000000000000000000000000815260040160405180910390fd5b600073ffffffffffffffffffffffffffffffffffffffff168573ffffffffffffffffffffffffffffffffffffffff16036148e4576040517f538ba4f900000000000000000000000000000000000000000000000000000000815260040160405180910390fd5b73eeeeeeeeeeeeeeeeeeeeeeeeeeeeeeeeeeeeeeee73ffffffffffffffffffffffffffffffffffffffff168373ffffffffffffffffffffffffffffffffffffffff161461495b5761495685838573ffffffffffffffffffffffffffffffffffffffff1661458a9092919063ffffffff16565b6149d0565b81811015614995576040517fe4f2466300000000000000000000000000000000000000000000000000000000815260040160405180910390fd5b478111156149cf576040517f50b1f35600000000000000000000000000000000000000000000000000000000815260040160405180910390fd5b5b60008573ffffffffffffffffffffffffffffffffffffffff1682866040516149f8919061672d565b60006040518083038185875af1925050503d8060008114614a35576040519150601f19603f3d011682016040523d82523d6000602084013e614a3a565b606091505b5050905080614a8057836040517f2accaa15000000000000000000000000000000000000000000000000000000008152600401614a779190615677565b60405180910390fd5b73eeeeeeeeeeeeeeeeeeeeeeeeeeeeeeeeeeeeeeee73ffffffffffffffffffffffffffffffffffffffff168473ffffffffffffffffffffffffffffffffffffffff1614614b7f57600084905060008173ffffffffffffffffffffffffffffffffffffffff1663dd62ed3e308a6040518363ffffffff1660e01b8152600401614b09929190616412565b602060405180830381865afa158015614b26573d6000803e3d6000fd5b505050506040513d601f19601f82011682018060405250810190614b4a9190615c80565b1115614b7d57614b7c8760008373ffffffffffffffffffffffffffffffffffffffff16614ece9092919063ffffffff16565b5b505b505050505050565b60008060008560a00151600001515114614ba15730614ba8565b8461010001515b905060008373ffffffffffffffffffffffffffffffffffffffff166370a08231836040518263ffffffff1660e01b8152600401614be59190615677565b602060405180830381865afa158015614c02573d6000803e3d6000fd5b505050506040513d601f19601f82011682018060405250810190614c269190615c80565b90508473ffffffffffffffffffffffffffffffffffffffff1663ba087652876040015184306040518463ffffffff1660e01b8152600401614c6993929190616744565b6020604051808303816000875af1158015614c88573d6000803e3d6000fd5b505050506040513d601f19601f82011682018060405250810190614cac9190615c80565b925060008473ffffffffffffffffffffffffffffffffffffffff166370a08231846040518263ffffffff1660e01b8152600401614ce99190615677565b602060405180830381865afa158015614d06573d6000803e3d6000fd5b505050506040513d601f19601f82011682018060405250810190614d2a9190615c80565b9050838282614d3991906165e7565b141580614d7257508660800151612710614d5391906165e7565b8760600151614d62919061661b565b84612710614d70919061661b565b105b15614da9576040517fbd7f1b4200000000000000000000000000000000000000000000000000000000815260040160405180910390fd5b60008403614de3576040517faffdc82f00000000000000000000000000000000000000000000000000000000815260040160405180910390fd5b5050509392505050565b600082841180614e21575081612710614e0691906165e7565b83614e11919061661b565b61271085614e1f919061661b565b105b15614e2f5760019050614e30565b5b9392505050565b6000614e62828473ffffffffffffffffffffffffffffffffffffffff16614fdd90919063ffffffff16565b90506000815114158015614e87575080806020019051810190614e859190616129565b155b15614ec957826040517f5274afe7000000000000000000000000000000000000000000000000000000008152600401614ec09190615677565b60405180910390fd5b505050565b60008373ffffffffffffffffffffffffffffffffffffffff1663095ea7b38484604051602401614eff92919061665d565b604051602081830303815290604052915060e01b6020820180517bffffffffffffffffffffffffffffffffffffffffffffffffffffffff83818316178352505050509050614f4d8482614ff3565b614fd757614fcc848573ffffffffffffffffffffffffffffffffffffffff1663095ea7b3866000604051602401614f859291906167b6565b604051602081830303815290604052915060e01b6020820180517bffffffffffffffffffffffffffffffffffffffffffffffffffffffff8381831617835250505050614e37565b614fd68482614e37565b5b50505050565b6060614feb838360006150ba565b905092915050565b60008060008473ffffffffffffffffffffffffffffffffffffffff168460405161501d919061672d565b6000604051808303816000865af19150503d806000811461505a576040519150601f19603f3d011682016040523d82523d6000602084013e61505f565b606091505b509150915081801561508d575060008151148061508c57508080602001905181019061508b9190616129565b5b5b80156150b0575060008573ffffffffffffffffffffffffffffffffffffffff163b115b9250505092915050565b60608147101561510157306040517fcd7860590000000000000000000000000000000000000000000000000000000081526004016150f89190615677565b60405180910390fd5b6000808573ffffffffffffffffffffffffffffffffffffffff16848660405161512a919061672d565b60006040518083038185875af1925050503d8060008114615167576040519150601f19603f3d011682016040523d82523d6000602084013e61516c565b606091505b509150915061517c868383615187565b925050509392505050565b60608261519c5761519782615216565b61520e565b600082511480156151c4575060008473ffffffffffffffffffffffffffffffffffffffff163b145b1561520657836040517f9996b3150000000000000000000000000000000000000000000000000000000081526004016151fd9190615677565b60405180910390fd5b81905061520f565b5b9392505050565b6000815111156152295780518082602001fd5b6040517f1425ea4200000000000000000000000000000000000000000000000000000000815260040160405180910390fd5b604051806101400160405280600067ffffffffffffffff168152602001600073ffffffffffffffffffffffffffffffffffffffff168152602001600073ffffffffffffffffffffffffffffffffffffffff168152602001600081526020016000815260200160008152602001600081526020016000815260200160008152602001606081525090565b6040518060800160405280600067ffffffffffffffff168152602001600073ffffffffffffffffffffffffffffffffffffffff168152602001600073ffffffffffffffffffffffffffffffffffffffff168152602001600081525090565b6040518060c00160405280600067ffffffffffffffff168152602001600073ffffffffffffffffffffffffffffffffffffffff168152602001600073ffffffffffffffffffffffffffffffffffffffff1681526020016000815260200160008152602001600081525090565b6000604051905090565b600080fd5b600080fd5b60007fffffffff0000000000000000000000000000000000000000000000000000000082169050919050565b6153f7816153c2565b811461540257600080fd5b50565b600081359050615414816153ee565b92915050565b6000602082840312156154305761542f6153b8565b5b600061543e84828501615405565b91505092915050565b60008115159050919050565b61545c81615447565b82525050565b60006020820190506154776000830184615453565b92915050565b6000819050919050565b6154908161547d565b811461549b57600080fd5b50565b6000813590506154ad81615487565b92915050565b6000602082840312156154c9576154c86153b8565b5b60006154d78482850161549e565b91505092915050565b6154e98161547d565b82525050565b600060208201905061550460008301846154e0565b92915050565b600081519050919050565b600082825260208201905092915050565b60005b83811015615544578082015181840152602081019050615529565b60008484015250505050565b6000601f19601f8301169050919050565b600061556c8261550a565b6155768185615515565b9350615586818560208601615526565b61558f81615550565b840191505092915050565b600060208201905081810360008301526155b48184615561565b905092915050565b600073ffffffffffffffffffffffffffffffffffffffff82169050919050565b6000819050919050565b60006156016155fc6155f7846155bc565b6155dc565b6155bc565b9050919050565b6000615613826155e6565b9050919050565b600061562582615608565b9050919050565b6156358161561a565b82525050565b6000602082019050615650600083018461562c565b92915050565b6000615661826155bc565b9050919050565b61567181615656565b82525050565b600060208201905061568c6000830184615668565b92915050565b61569b81615656565b81146156a657600080fd5b50565b6000813590506156b881615692565b92915050565b6000602082840312156156d4576156d36153b8565b5b60006156e2848285016156a9565b91505092915050565b600067ffffffffffffffff82169050919050565b615708816156eb565b82525050565b600060208201905061572360008301846156ff565b92915050565b600060ff82169050919050565b61573f81615729565b82525050565b600060208201905061575a6000830184615736565b92915050565b60008060408385031215615777576157766153b8565b5b6000615785858286016156a9565b92505060206157968582860161549e565b9150509250929050565b600080fd5b7f4e487b7100000000000000000000000000000000000000000000000000000000600052604160045260246000fd5b6157dd82615550565b810181811067ffffffffffffffff821117156157fc576157fb6157a5565b5b80604052505050565b600061580f6153ae565b905061581b82826157d4565b919050565b600080fd5b600080fd5b600080fd5b600067ffffffffffffffff82111561584a576158496157a5565b5b61585382615550565b9050602081019050919050565b82818337600083830152505050565b600061588261587d8461582f565b615805565b90508281526020810184848401111561589e5761589d61582a565b5b6158a9848285615860565b509392505050565b600082601f8301126158c6576158c5615825565b5b81356158d684826020860161586f565b91505092915050565b6158e881615729565b81146158f357600080fd5b50565b600081359050615905816158df565b92915050565b615914816156eb565b811461591f57600080fd5b50565b6000813590506159318161590b565b92915050565b600060c0828403121561594d5761594c6157a0565b5b61595760c0615805565b9050600082013567ffffffffffffffff81111561597757615976615820565b5b615983848285016158b1565b6000830152506020615997848285016156a9565b60208301525060406159ab848285016156a9565b60408301525060606159bf848285016158f6565b60608301525060806159d384828501615922565b60808301525060a06159e78482850161549e565b60a08301525092915050565b6159fc81615447565b8114615a0757600080fd5b50565b600081359050615a19816159f3565b92915050565b60006101408284031215615a3657615a356157a0565b5b615a41610140615805565b90506000615a518482850161549e565b6000830152506020615a658482850161549e565b6020830152506040615a798482850161549e565b6040830152506060615a8d8482850161549e565b6060830152506080615aa18482850161549e565b60808301525060a082013567ffffffffffffffff811115615ac557615ac4615820565b5b615ad184828501615937565b60a08301525060c0615ae584828501615a0a565b60c08301525060e0615af984828501615a0a565b60e083015250610100615b0e848285016156a9565b6101008301525061012082013567ffffffffffffffff811115615b3457615b33615820565b5b615b40848285016158b1565b6101208301525092915050565b600080600060608486031215615b6657615b656153b8565b5b600084013567ffffffffffffffff811115615b8457615b836153bd565b5b615b9086828701615a1f565b9350506020615ba1868287016156a9565b9250506040615bb286828701615922565b9150509250925092565b60008060408385031215615bd357615bd26153b8565b5b600083013567ffffffffffffffff811115615bf157615bf06153bd565b5b615bfd85828601615a1f565b9250506020615c0e858286016156a9565b9150509250929050565b600080600060608486031215615c3157615c306153b8565b5b6000615c3f868287016156a9565b9350506020615c50868287016156a9565b9250506040615c61868287016156a9565b9150509250925092565b600081519050615c7a81615487565b92915050565b600060208284031215615c9657615c956153b8565b5b6000615ca484828501615c6b565b91505092915050565b600067ffffffffffffffff821115615cc857615cc76157a5565b5b615cd182615550565b9050602081019050919050565b6000615cf1615cec84615cad565b615805565b905082815260208101848484011115615d0d57615d0c61582a565b5b615d18848285615526565b509392505050565b600082601f830112615d3557615d34615825565b5b8151615d45848260208601615cde565b91505092915050565b600060208284031215615d6457615d636153b8565b5b600082015167ffffffffffffffff811115615d8257615d816153bd565b5b615d8e84828501615d20565b91505092915050565b600081905092915050565b7f73702d0000000000000000000000000000000000000000000000000000000000600082015250565b6000615dd8600383615d97565b9150615de382615da2565b600382019050919050565b6000615df98261550a565b615e038185615d97565b9350615e13818560208601615526565b80840191505092915050565b6000615e2a82615dcb565b9150615e368284615dee565b915081905092915050565b7f205375706572506f736974696f6e000000000000000000000000000000000000600082015250565b6000615e77600e83615d97565b9150615e8282615e41565b600e82019050919050565b6000615e998284615dee565b9150615ea482615e6a565b915081905092915050565b600081519050615ebe816158df565b92915050565b600060208284031215615eda57615ed96153b8565b5b6000615ee884828501615eaf565b91505092915050565b7f4e487b7100000000000000000000000000000000000000000000000000000000600052601160045260246000fd5b60008160011c9050919050565b6000808291508390505b6001851115615f7757808604811115615f5357615f52615ef1565b5b6001851615615f625780820291505b8081029050615f7085615f20565b9450615f37565b94509492505050565b600082615f90576001905061604c565b81615f9e576000905061604c565b8160018114615fb45760028114615fbe57615fed565b600191505061604c565b60ff841115615fd057615fcf615ef1565b5b8360020a915084821115615fe757615fe6615ef1565b5b5061604c565b5060208310610133831016604e8410600b84101617156160225782820a90508381111561601d5761601c615ef1565b5b61604c565b61602f8484846001615f2d565b9250905081840481111561604657616045615ef1565b5b81810290505b9392505050565b600061605e8261547d565b91506160698361547d565b92506160967fffffffffffffffffffffffffffffffffffffffffffffffffffffffffffffffff8484615f80565b905092915050565b6000819050919050565b6160b18161609e565b82525050565b60006020820190506160cc60008301846160a8565b92915050565b6000815190506160e181615692565b92915050565b6000602082840312156160fd576160fc6153b8565b5b600061610b848285016160d2565b91505092915050565b600081519050616123816159f3565b92915050565b60006020828403121561613f5761613e6153b8565b5b600061614d84828501616114565b91505092915050565b600063ffffffff82169050919050565b61616f81616156565b82525050565b600060208201905061618a6000830184616166565b92915050565b6000819050919050565b60006161b56161b06161ab84616190565b6155dc565b6156eb565b9050919050565b6161c58161619a565b82525050565b60006020820190506161e060008301846161bc565b92915050565b6161ef8161547d565b82525050565b600081519050919050565b600082825260208201905092915050565b600061621c826161f5565b6162268185616200565b9350616236818560208601615526565b61623f81615550565b840191505092915050565b61625381615656565b82525050565b61626281615729565b82525050565b616271816156eb565b82525050565b600060c08301600083015184820360008601526162948282616211565b91505060208301516162a9602086018261624a565b5060408301516162bc604086018261624a565b5060608301516162cf6060860182616259565b5060808301516162e26080860182616268565b5060a08301516162f560a08601826161e6565b508091505092915050565b61630981615447565b82525050565b60006101408301600083015161632860008601826161e6565b50602083015161633b60208601826161e6565b50604083015161634e60408601826161e6565b50606083015161636160608601826161e6565b50608083015161637460808601826161e6565b5060a083015184820360a086015261638c8282616277565b91505060c08301516163a160c0860182616300565b5060e08301516163b460e0860182616300565b506101008301516163c961010086018261624a565b506101208301518482036101208601526163e38282616211565b9150508091505092915050565b6000602082019050818103600083015261640a818461630f565b905092915050565b60006040820190506164276000830185615668565b6164346020830184615668565b9392505050565b600060408201905061645060008301856154e0565b61645d6020830184615668565b9392505050565b600082825260208201905092915050565b6000616480826161f5565b61648a8185616464565b935061649a818560208601615526565b6164a381615550565b840191505092915050565b600060408201905081810360008301526164c88185616475565b90506164d76020830184615453565b9392505050565b60006101208301600083015184820360008601526164fc8282616211565b91505060208301516165116020860182616268565b5060408301516165246040860182616268565b5060608301516165376060860182616268565b50608083015161654a6080860182616300565b5060a083015161655d60a086018261624a565b5060c083015161657060c086018261624a565b5060e083015161658360e086018261624a565b5061010083015161659861010086018261624a565b508091505092915050565b600060208201905081810360008301526165bd81846164de565b905092915050565b600060208201905081810360008301526165df8184616475565b905092915050565b60006165f28261547d565b91506165fd8361547d565b925082820390508181111561661557616614615ef1565b5b92915050565b60006166268261547d565b91506166318361547d565b925082820261663f8161547d565b9150828204841483151761665657616655615ef1565b5b5092915050565b60006040820190506166726000830185615668565b61667f60208301846154e0565b9392505050565b600060608201905061669b6000830186615668565b6166a86020830185615668565b6166b560408301846154e0565b949350505050565b60006166c88261547d565b91506166d38361547d565b92508282019050808211156166eb576166ea615ef1565b5b92915050565b600081905092915050565b6000616707826161f5565b61671181856166f1565b9350616721818560208601615526565b80840191505092915050565b600061673982846166fc565b915081905092915050565b600060608201905061675960008301866154e0565b6167666020830185615668565b6167736040830184615668565b949350505050565b6000819050919050565b60006167a061679b6167968461677b565b6155dc565b61547d565b9050919050565b6167b081616785565b82525050565b60006040820190506167cb6000830185615668565b6167d860208301846167a7565b939250505056fea264697066735822122026670464f55aab8fce658b3d9fa66baed9bc42328dfbcd743489ed1929886f5464736f6c63430008170033","linkReferences":{}},"methodIdentifiers":{"CHAIN_ID()":"85e1f4d0","asset()":"38d52e0f","directDepositIntoVault((uint256,uint256,uint256,uint256,uint256,(bytes,address,address,uint8,uint64,uint256),bool,bool,address,bytes),address)":"b9232775","directWithdrawFromVault((uint256,uint256,uint256,uint256,uint256,(bytes,address,address,uint8,uint64,uint256),bool,bool,address,bytes),address)":"cb829dc3","emergencyWithdraw(address,uint256)":"95ccea67","forwardDustToPaymaster(address)":"4dcd03c0","getPreviewPricePerVaultShare()":"38d92fd5","getPricePerVaultShare()":"ff5f3e48","getStateRegistryId()":"91deb882","getTotalAssets()":"6e07302b","getTotalSupply()":"c4e41b22","getVaultAddress()":"65cacaa4","getVaultAsset()":"b60262ca","getVaultDecimals()":"c32dcd89","getVaultName()":"9f5376c1","getVaultShareBalance()":"35eda680","getVaultSymbol()":"77188067","initialize(address,address,address)":"c0c53b8b","previewDepositTo(uint256)":"07c080f9","previewRedeemFrom(uint256)":"b7ba28cd","previewWithdrawFrom(uint256)":"37d25010","superRegistry()":"24c73dda","superformYieldTokenName()":"20592d98","superformYieldTokenSymbol()":"17a57e08","supportsInterface(bytes4)":"01ffc9a7","vault()":"fbfa77cf","xChainDepositIntoVault((uint256,uint256,uint256,uint256,uint256,(bytes,address,address,uint8,uint64,uint256),bool,bool,address,bytes),address,uint64)":"95e4f1da","xChainWithdrawFromVault((uint256,uint256,uint256,uint256,uint256,(bytes,address,address,uint8,uint64,uint256),bool,bool,address,bytes),address,uint64)":"ef164fef"},"id":135}