{"abi":[{"type":"function","name":"swapTokensGeneric","inputs":[{"name":"_transactionId","type":"bytes32","internalType":"bytes32"},{"name":"_integrator","type":"string","internalType":"string"},{"name":"_referrer","type":"string","internalType":"string"},{"name":"_receiver","type":"address","internalType":"address payable"},{"name":"_minAmount","type":"uint256","internalType":"uint256"},{"name":"_swapData","type":"tuple[]","internalType":"struct LibSwap.SwapData[]","components":[{"name":"callTo","type":"address","internalType":"address"},{"name":"approveTo","type":"address","internalType":"address"},{"name":"sendingAssetId","type":"address","internalType":"address"},{"name":"receivingAssetId","type":"address","internalType":"address"},{"name":"fromAmount","type":"uint256","internalType":"uint256"},{"name":"callData","type":"bytes","internalType":"bytes"},{"name":"requiresDeposit","type":"bool","internalType":"bool"}]}],"outputs":[],"stateMutability":"payable"}],"bytecode":{"object":"0x608060405234801561001057600080fd5b506102fe806100206000396000f3fe60806040526004361061001e5760003560e01c80634630a0d814610023575b600080fd5b61003d600480360381019061003891906101d9565b61003f565b005b505050505050505050565b600080fd5b600080fd5b6000819050919050565b61006781610054565b811461007257600080fd5b50565b6000813590506100848161005e565b92915050565b600080fd5b600080fd5b600080fd5b60008083601f8401126100af576100ae61008a565b5b8235905067ffffffffffffffff8111156100cc576100cb61008f565b5b6020830191508360018202830111156100e8576100e7610094565b5b9250929050565b600073ffffffffffffffffffffffffffffffffffffffff82169050919050565b600061011a826100ef565b9050919050565b61012a8161010f565b811461013557600080fd5b50565b60008135905061014781610121565b92915050565b6000819050919050565b6101608161014d565b811461016b57600080fd5b50565b60008135905061017d81610157565b92915050565b60008083601f8401126101995761019861008a565b5b8235905067ffffffffffffffff8111156101b6576101b561008f565b5b6020830191508360208202830111156101d2576101d1610094565b5b9250929050565b600080600080600080600080600060c08a8c0312156101fb576101fa61004a565b5b60006102098c828d01610075565b99505060208a013567ffffffffffffffff81111561022a5761022961004f565b5b6102368c828d01610099565b985098505060408a013567ffffffffffffffff8111156102595761025861004f565b5b6102658c828d01610099565b965096505060606102788c828d01610138565b94505060806102898c828d0161016e565b93505060a08a013567ffffffffffffffff8111156102aa576102a961004f565b5b6102b68c828d01610183565b9250925050929598509295985092959856fea2646970667358221220eb92e44c346f98e9224e179c131a4f53a99e6d7b98c293b5b71b69db4d4afe2d64736f6c63430008170033","linkReferences":{}},"methodIdentifiers":{"swapTokensGeneric(bytes32,string,string,address,uint256,(address,address,address,address,uint256,bytes,bool)[])":"4630a0d8"},"id":199}