{"abi":[{"type":"constructor","inputs":[{"name":"superRegistry_","type":"address","internalType":"address"}],"stateMutability":"nonpayable"},{"type":"receive","stateMutability":"payable"},{"type":"function","name":"CHAIN_ID","inputs":[],"outputs":[{"name":"","type":"uint64","internalType":"uint64"}],"stateMutability":"view"},{"type":"function","name":"batchProcessTx","inputs":[{"name":"payloadId_","type":"uint256","internalType":"uint256"},{"name":"indices_","type":"uint256[]","internalType":"uint256[]"},{"name":"bridgeIds_","type":"uint8[]","internalType":"uint8[]"},{"name":"txData_","type":"bytes[]","internalType":"bytes[]"}],"outputs":[],"stateMutability":"nonpayable"},{"type":"function","name":"batchUpdateFailedTx","inputs":[{"name":"payloadId_","type":"uint256","internalType":"uint256"},{"name":"indices_","type":"uint256[]","internalType":"uint256[]"},{"name":"interimTokens_","type":"address[]","internalType":"address[]"},{"name":"amounts_","type":"uint256[]","internalType":"uint256[]"}],"outputs":[],"stateMutability":"nonpayable"},{"type":"function","name":"getPostDstSwapFailureUpdatedTokenAmount","inputs":[{"name":"payloadId_","type":"uint256","internalType":"uint256"},{"name":"index_","type":"uint256","internalType":"uint256"}],"outputs":[{"name":"interimToken","type":"address","internalType":"address"},{"name":"amount","type":"uint256","internalType":"uint256"}],"stateMutability":"view"},{"type":"function","name":"processFailedTx","inputs":[{"name":"user_","type":"address","internalType":"address"},{"name":"interimToken_","type":"address","internalType":"address"},{"name":"amount_","type":"uint256","internalType":"uint256"}],"outputs":[],"stateMutability":"nonpayable"},{"type":"function","name":"processTx","inputs":[{"name":"payloadId_","type":"uint256","internalType":"uint256"},{"name":"bridgeId_","type":"uint8","internalType":"uint8"},{"name":"txData_","type":"bytes","internalType":"bytes"}],"outputs":[],"stateMutability":"nonpayable"},{"type":"function","name":"superRegistry","inputs":[],"outputs":[{"name":"","type":"address","internalType":"contract ISuperRegistry"}],"stateMutability":"view"},{"type":"function","name":"swappedAmount","inputs":[{"name":"payloadId","type":"uint256","internalType":"uint256"},{"name":"index","type":"uint256","internalType":"uint256"}],"outputs":[{"name":"amount","type":"uint256","internalType":"uint256"}],"stateMutability":"view"},{"type":"function","name":"updateFailedTx","inputs":[{"name":"payloadId_","type":"uint256","internalType":"uint256"},{"name":"interimToken_","type":"address","internalType":"address"},{"name":"amount_","type":"uint256","internalType":"uint256"}],"outputs":[],"stateMutability":"nonpayable"},{"type":"event","name":"SuperRegistryUpdated","inputs":[{"name":"superRegistry","type":"address","indexed":true,"internalType":"address"}],"anonymous":false},{"type":"event","name":"SwapFailed","inputs":[{"name":"payloadId","type":"uint256","indexed":true,"internalType":"uint256"},{"name":"index","type":"uint256","indexed":true,"internalType":"uint256"},{"name":"intermediaryToken","type":"address","indexed":true,"internalType":"address"},{"name":"amount","type":"uint256","indexed":false,"internalType":"uint256"}],"anonymous":false},{"type":"event","name":"SwapProcessed","inputs":[{"name":"payloadId","type":"uint256","indexed":true,"internalType":"uint256"},{"name":"index","type":"uint256","indexed":true,"internalType":"uint256"},{"name":"bridgeId","type":"uint256","indexed":true,"internalType":"uint256"},{"name":"finalAmount","type":"uint256","indexed":false,"internalType":"uint256"}],"anonymous":false},{"type":"error","name":"ARRAY_LENGTH_MISMATCH","inputs":[]},{"type":"error","name":"AddressEmptyCode","inputs":[{"name":"target","type":"address","internalType":"address"}]},{"type":"error","name":"AddressInsufficientBalance","inputs":[{"name":"account","type":"address","internalType":"address"}]},{"type":"error","name":"BLOCK_CHAIN_ID_OUT_OF_BOUNDS","inputs":[]},{"type":"error","name":"DST_SWAP_ALREADY_PROCESSED","inputs":[]},{"type":"error","name":"DUPLICATE_INDEX","inputs":[]},{"type":"error","name":"FAILED_DST_SWAP_ALREADY_UPDATED","inputs":[]},{"type":"error","name":"FAILED_TO_EXECUTE_TXDATA","inputs":[{"name":"token","type":"address","internalType":"address"}]},{"type":"error","name":"FAILED_TO_SEND_NATIVE","inputs":[]},{"type":"error","name":"FailedInnerCall","inputs":[]},{"type":"error","name":"INDEX_OUT_OF_BOUNDS","inputs":[]},{"type":"error","name":"INSUFFICIENT_BALANCE","inputs":[]},{"type":"error","name":"INSUFFICIENT_NATIVE_AMOUNT","inputs":[]},{"type":"error","name":"INVALID_CHAIN_ID","inputs":[]},{"type":"error","name":"INVALID_DST_SWAPPER_FAILED_SWAP","inputs":[]},{"type":"error","name":"INVALID_DST_SWAPPER_FAILED_SWAP_NO_NATIVE_BALANCE","inputs":[]},{"type":"error","name":"INVALID_DST_SWAPPER_FAILED_SWAP_NO_TOKEN_BALANCE","inputs":[]},{"type":"error","name":"INVALID_INDEX","inputs":[]},{"type":"error","name":"INVALID_INTERIM_TOKEN","inputs":[]},{"type":"error","name":"INVALID_PAYLOAD_ID","inputs":[]},{"type":"error","name":"INVALID_PAYLOAD_STATUS","inputs":[]},{"type":"error","name":"INVALID_PAYLOAD_TYPE","inputs":[]},{"type":"error","name":"INVALID_SWAP_OUTPUT","inputs":[]},{"type":"error","name":"NOT_CORE_STATE_REGISTRY","inputs":[]},{"type":"error","name":"NOT_PRIVILEGED_CALLER","inputs":[{"name":"role","type":"bytes32","internalType":"bytes32"}]},{"type":"error","name":"ReentrancyGuardReentrantCall","inputs":[]},{"type":"error","name":"SLIPPAGE_OUT_OF_BOUNDS","inputs":[]},{"type":"error","name":"SafeERC20FailedOperation","inputs":[{"name":"token","type":"address","internalType":"address"}]},{"type":"error","name":"ZERO_ADDRESS","inputs":[]},{"type":"error","name":"ZERO_AMOUNT","inputs":[]},{"type":"error","name":"ZERO_INPUT_VALUE","inputs":[]}],"bytecode":{"object":"0x60c06040523480156200001157600080fd5b5060405162004da738038062004da78339818101604052810190620000379190620001ac565b6001600081905550600073ffffffffffffffffffffffffffffffffffffffff168173ffffffffffffffffffffffffffffffffffffffff1603620000a6576040517f538ba4f900000000000000000000000000000000000000000000000000000000815260040160405180910390fd5b67ffffffffffffffff8016461115620000eb576040517f7ecdf93300000000000000000000000000000000000000000000000000000000815260040160405180910390fd5b4667ffffffffffffffff1660a08167ffffffffffffffff16815250508073ffffffffffffffffffffffffffffffffffffffff1660808173ffffffffffffffffffffffffffffffffffffffff168152505050620001de565b600080fd5b600073ffffffffffffffffffffffffffffffffffffffff82169050919050565b6000620001748262000147565b9050919050565b620001868162000167565b81146200019257600080fd5b50565b600081519050620001a6816200017b565b92915050565b600060208284031215620001c557620001c462000142565b5b6000620001d58482850162000195565b91505092915050565b60805160a051614b64620002436000396000818161083a0152611a6801526000818161024d015281816104db0152818161052c01528181610a7501528181610d9e015281816112aa0152818161185f01528181611aab01526120540152614b646000f3fe60806040526004361061008a5760003560e01c806395c2c5d71161005957806395c2c5d71461013e578063a0d82da61461017c578063c4e690e4146101a5578063c830c85a146101ce578063fdfc10831461020b57610091565b806310d7d3591461009657806324c73dda146100bf57806369eaf2d5146100ea57806385e1f4d01461011357610091565b3661009157005b600080fd5b3480156100a257600080fd5b506100bd60048036038101906100b89190613574565b610234565b005b3480156100cb57600080fd5b506100d46104d9565b6040516100e19190613626565b60405180910390f35b3480156100f657600080fd5b50610111600480360381019061010c91906136df565b6104fd565b005b34801561011f57600080fd5b50610128610838565b6040516101359190613776565b60405180910390f35b34801561014a57600080fd5b5061016560048036038101906101609190613791565b61085c565b6040516101739291906137ef565b60405180910390f35b34801561018857600080fd5b506101a3600480360381019061019e9190613818565b610a4e565b005b3480156101b157600080fd5b506101cc60048036038101906101c79190613917565b610d77565b005b3480156101da57600080fd5b506101f560048036038101906101f09190613791565b611256565b60405161020291906139e0565b60405180910390f35b34801561021757600080fd5b50610232600480360381019061022d9190613aa7565b61127b565b005b3373ffffffffffffffffffffffffffffffffffffffff167f000000000000000000000000000000000000000000000000000000000000000073ffffffffffffffffffffffffffffffffffffffff166321f8a7217f55b101fc856aff484166c46ad33bc74831c135693c159b0092bb3b72254ffb6b6040518263ffffffff1660e01b81526004016102c49190613b89565b602060405180830381865afa1580156102e1573d6000803e3d6000fd5b505050506040513d601f19601f820116820180604052508101906103059190613bb9565b73ffffffffffffffffffffffffffffffffffffffff1614610352576040517f8c1715e200000000000000000000000000000000000000000000000000000000815260040160405180910390fd5b600073ffffffffffffffffffffffffffffffffffffffff168373ffffffffffffffffffffffffffffffffffffffff16036103b8576040517f538ba4f900000000000000000000000000000000000000000000000000000000815260040160405180910390fd5b73eeeeeeeeeeeeeeeeeeeeeeeeeeeeeeeeeeeeeeee73ffffffffffffffffffffffffffffffffffffffff168273ffffffffffffffffffffffffffffffffffffffff161461042f5761042a83828473ffffffffffffffffffffffffffffffffffffffff166117969092919063ffffffff16565b6104d4565b60008373ffffffffffffffffffffffffffffffffffffffff168260405161045590613c17565b60006040518083038185875af1925050503d8060008114610492576040519150601f19603f3d011682016040523d82523d6000602084013e610497565b606091505b50509050806104d2576040517f220d375300000000000000000000000000000000000000000000000000000000815260040160405180910390fd5b505b505050565b7f000000000000000000000000000000000000000000000000000000000000000081565b610505611815565b60007f4972dc84d4a5e5915b0181ee249da5758250fe5a34620432e6ddf5217daec0ad90507f000000000000000000000000000000000000000000000000000000000000000073ffffffffffffffffffffffffffffffffffffffff166321f8a7217f6b50fa17b77d24e42e27a04b69fe50cd6967cfb767d18de0bd5fe7e1a32aa8686040518263ffffffff1660e01b81526004016105a39190613b89565b602060405180830381865afa1580156105c0573d6000803e3d6000fd5b505050506040513d601f19601f820116820180604052508101906105e49190613bb9565b73ffffffffffffffffffffffffffffffffffffffff166391d1485482336040518363ffffffff1660e01b815260040161061e929190613c2c565b602060405180830381865afa15801561063b573d6000803e3d6000fd5b505050506040513d601f19601f8201168201806040525081019061065f9190613c8d565b6106a057806040517fc2703cd60000000000000000000000000000000000000000000000000000000081526004016106979190613b89565b60405180910390fd5b60006106aa61185b565b90506106b6868261191c565b600061073a8273ffffffffffffffffffffffffffffffffffffffff166336445ffd896040518263ffffffff1660e01b81526004016106f491906139e0565b602060405180830381865afa158015610711573d6000803e3d6000fd5b505050506040513d601f19601f820116820180604052508101906107359190613ccf565b6119c8565b5050509250505060008160ff161461077e576040517f641c695500000000000000000000000000000000000000000000000000000000815260040160405180910390fd5b6108278760008888888773ffffffffffffffffffffffffffffffffffffffff1663361ad42b8e6040518263ffffffff1660e01b81526004016107c091906139e0565b600060405180830381865afa1580156107dd573d6000803e3d6000fd5b505050506040513d6000823e3d601f19601f820116820180604052508101906108069190613e58565b80602001905181019061081991906140d6565b60a001516040015188611a00565b50505061083261238f565b50505050565b7f000000000000000000000000000000000000000000000000000000000000000081565b60008060016000858152602001908152602001600020600084815260200190815260200160002060000160009054906101000a900473ffffffffffffffffffffffffffffffffffffffff1691506001600085815260200190815260200160002060008481526020019081526020016000206001015490506000810361090d576040517f06930a4e00000000000000000000000000000000000000000000000000000000815260040160405180910390fd5b73eeeeeeeeeeeeeeeeeeeeeeeeeeeeeeeeeeeeeeee73ffffffffffffffffffffffffffffffffffffffff168273ffffffffffffffffffffffffffffffffffffffff1603610993578047101561098e576040517f0e1f2dad00000000000000000000000000000000000000000000000000000000815260040160405180910390fd5b610a47565b808273ffffffffffffffffffffffffffffffffffffffff166370a08231306040518263ffffffff1660e01b81526004016109cd919061411f565b602060405180830381865afa1580156109ea573d6000803e3d6000fd5b505050506040513d601f19601f82011682018060405250810190610a0e9190613ccf565b1015610a46576040517fa9f1346a00000000000000000000000000000000000000000000000000000000815260040160405180910390fd5b5b9250929050565b60007f4972dc84d4a5e5915b0181ee249da5758250fe5a34620432e6ddf5217daec0ad90507f000000000000000000000000000000000000000000000000000000000000000073ffffffffffffffffffffffffffffffffffffffff166321f8a7217f6b50fa17b77d24e42e27a04b69fe50cd6967cfb767d18de0bd5fe7e1a32aa8686040518263ffffffff1660e01b8152600401610aec9190613b89565b602060405180830381865afa158015610b09573d6000803e3d6000fd5b505050506040513d601f19601f82011682018060405250810190610b2d9190613bb9565b73ffffffffffffffffffffffffffffffffffffffff166391d1485482336040518363ffffffff1660e01b8152600401610b67929190613c2c565b602060405180830381865afa158015610b84573d6000803e3d6000fd5b505050506040513d601f19601f82011682018060405250810190610ba89190613c8d565b610be957806040517fc2703cd6000000000000000000000000000000000000000000000000000000008152600401610be09190613b89565b60405180910390fd5b6000610bf361185b565b9050610bff858261191c565b6000610c838273ffffffffffffffffffffffffffffffffffffffff166336445ffd886040518263ffffffff1660e01b8152600401610c3d91906139e0565b602060405180830381865afa158015610c5a573d6000803e3d6000fd5b505050506040513d601f19601f82011682018060405250810190610c7e9190613ccf565b6119c8565b5050509250505060008160ff1614610cc7576040517f641c695500000000000000000000000000000000000000000000000000000000815260040160405180910390fd5b610d6f866000878573ffffffffffffffffffffffffffffffffffffffff1663361ad42b8b6040518263ffffffff1660e01b8152600401610d0791906139e0565b600060405180830381865afa158015610d24573d6000803e3d6000fd5b505050506040513d6000823e3d601f19601f82011682018060405250810190610d4d9190613e58565b806020019051810190610d6091906140d6565b60a00151604001518887612399565b505050505050565b60007f4972dc84d4a5e5915b0181ee249da5758250fe5a34620432e6ddf5217daec0ad90507f000000000000000000000000000000000000000000000000000000000000000073ffffffffffffffffffffffffffffffffffffffff166321f8a7217f6b50fa17b77d24e42e27a04b69fe50cd6967cfb767d18de0bd5fe7e1a32aa8686040518263ffffffff1660e01b8152600401610e159190613b89565b602060405180830381865afa158015610e32573d6000803e3d6000fd5b505050506040513d601f19601f82011682018060405250810190610e569190613bb9565b73ffffffffffffffffffffffffffffffffffffffff166391d1485482336040518363ffffffff1660e01b8152600401610e90929190613c2c565b602060405180830381865afa158015610ead573d6000803e3d6000fd5b505050506040513d601f19601f82011682018060405250810190610ed19190613c8d565b610f1257806040517fc2703cd6000000000000000000000000000000000000000000000000000000008152600401610f099190613b89565b60405180910390fd5b60008787905090508585905081141580610f2f5750838390508114155b15610f66576040517f88adebd200000000000000000000000000000000000000000000000000000000815260040160405180910390fd5b6000610f7061185b565b9050610f7c8a8261191c565b60006110008273ffffffffffffffffffffffffffffffffffffffff166336445ffd8d6040518263ffffffff1660e01b8152600401610fba91906139e0565b602060405180830381865afa158015610fd7573d6000803e3d6000fd5b505050506040513d601f19601f82011682018060405250810190610ffb9190613ccf565b6119c8565b5050509250505060018160ff1614611044576040517f641c695500000000000000000000000000000000000000000000000000000000815260040160405180910390fd5b60008273ffffffffffffffffffffffffffffffffffffffff1663361ad42b8d6040518263ffffffff1660e01b815260040161107f91906139e0565b600060405180830381865afa15801561109c573d6000803e3d6000fd5b505050506040513d6000823e3d601f19601f820116820180604052508101906110c59190613e58565b8060200190518101906110d89190614577565b905060008160a001515190506000805b86811015611245578d8d82818110611103576111026145c0565b5b905060200201359150828210611145576040517f5f1c4c0e00000000000000000000000000000000000000000000000000000000815260040160405180910390fd5b60008111801561117a57508d8d60018361115f919061461e565b81811061116f5761116e6145c0565b5b905060200201358211155b156111b1576040517f6e80cf6500000000000000000000000000000000000000000000000000000000815260040160405180910390fd5b61123a8f8f8f858181106111c8576111c76145c0565b5b905060200201358e8e858181106111e2576111e16145c0565b5b90506020020160208101906111f79190614652565b8760a00151868151811061120e5761120d6145c0565b5b6020026020010151604001518e8e8781811061122d5761122c6145c0565b5b905060200201358b612399565b8060010190506110e8565b505050505050505050505050505050565b6002602052816000526040600020602052806000526040600020600091509150505481565b611283611815565b60007f4972dc84d4a5e5915b0181ee249da5758250fe5a34620432e6ddf5217daec0ad90507f000000000000000000000000000000000000000000000000000000000000000073ffffffffffffffffffffffffffffffffffffffff166321f8a7217f6b50fa17b77d24e42e27a04b69fe50cd6967cfb767d18de0bd5fe7e1a32aa8686040518263ffffffff1660e01b81526004016113219190613b89565b602060405180830381865afa15801561133e573d6000803e3d6000fd5b505050506040513d601f19601f820116820180604052508101906113629190613bb9565b73ffffffffffffffffffffffffffffffffffffffff166391d1485482336040518363ffffffff1660e01b815260040161139c929190613c2c565b602060405180830381865afa1580156113b9573d6000803e3d6000fd5b505050506040513d601f19601f820116820180604052508101906113dd9190613c8d565b61141e57806040517fc2703cd60000000000000000000000000000000000000000000000000000000081526004016114159190613b89565b60405180910390fd5b600083839050905060008103611460576040517f021b4ea100000000000000000000000000000000000000000000000000000000815260040160405180910390fd5b87879050811415806114755750858590508114155b156114ac576040517f88adebd200000000000000000000000000000000000000000000000000000000815260040160405180910390fd5b60006114b661185b565b90506114c28a8261191c565b60006115468273ffffffffffffffffffffffffffffffffffffffff166336445ffd8d6040518263ffffffff1660e01b815260040161150091906139e0565b602060405180830381865afa15801561151d573d6000803e3d6000fd5b505050506040513d601f19601f820116820180604052508101906115419190613ccf565b6119c8565b5050509250505060018160ff161461158a576040517f641c695500000000000000000000000000000000000000000000000000000000815260040160405180910390fd5b60008273ffffffffffffffffffffffffffffffffffffffff1663361ad42b8d6040518263ffffffff1660e01b81526004016115c591906139e0565b600060405180830381865afa1580156115e2573d6000803e3d6000fd5b505050506040513d6000823e3d601f19601f8201168201806040525081019061160b9190613e58565b80602001905181019061161e9190614577565b905060008160a001515190506000805b8681101561177d578d8d82818110611649576116486145c0565b5b90506020020135915082821061168b576040517f5f1c4c0e00000000000000000000000000000000000000000000000000000000815260040160405180910390fd5b6000811180156116c057508d8d6001836116a5919061461e565b8181106116b5576116b46145c0565b5b905060200201358211155b156116f7576040517f6e80cf6500000000000000000000000000000000000000000000000000000000815260040160405180910390fd5b6117728f838e8e8581811061170f5761170e6145c0565b5b9050602002016020810190611724919061467f565b8d8d86818110611737576117366145c0565b5b905060200281019061174991906146bb565b8960a0015188815181106117605761175f6145c0565b5b6020026020010151604001518c611a00565b80600101905061162e565b505050505050505061178d61238f565b50505050505050565b611810838473ffffffffffffffffffffffffffffffffffffffff1663a9059cbb85856040516024016117c99291906137ef565b604051602081830303815290604052915060e01b6020820180517bffffffffffffffffffffffffffffffffffffffffffffffffffffffff838183161783525050505061279a565b505050565b600260005403611851576040517f3ee5aeb500000000000000000000000000000000000000000000000000000000815260040160405180910390fd5b6002600081905550565b60007f000000000000000000000000000000000000000000000000000000000000000073ffffffffffffffffffffffffffffffffffffffff166321f8a7217f55b101fc856aff484166c46ad33bc74831c135693c159b0092bb3b72254ffb6b6040518263ffffffff1660e01b81526004016118d69190613b89565b602060405180830381865afa1580156118f3573d6000803e3d6000fd5b505050506040513d601f19601f820116820180604052508101906119179190613bb9565b905090565b8073ffffffffffffffffffffffffffffffffffffffff166313c02a596040518163ffffffff1660e01b8152600401602060405180830381865afa158015611967573d6000803e3d6000fd5b505050506040513d601f19601f8201168201806040525081019061198b9190613ccf565b8211156119c4576040517fabb4594600000000000000000000000000000000000000000000000000000000815260040160405180910390fd5b5050565b600080600080600080869550600887901c9450601087901c9350601887901c9250602087901c915060c087901c905091939550919395565b60006002600089815260200190815260200160002060008881526020019081526020016000205414611a5e576040517fdf7d258200000000000000000000000000000000000000000000000000000000815260040160405180910390fd5b611a666133f3565b7f000000000000000000000000000000000000000000000000000000000000000081610160019067ffffffffffffffff16908167ffffffffffffffff168152505060007f000000000000000000000000000000000000000000000000000000000000000073ffffffffffffffffffffffffffffffffffffffff1663e85b2b54886040518263ffffffff1660e01b8152600401611b02919061472d565b602060405180830381865afa158015611b1f573d6000803e3d6000fd5b505050506040513d601f19601f82011682018060405250810190611b439190613bb9565b90508073ffffffffffffffffffffffffffffffffffffffff16633d898b1e87876040518363ffffffff1660e01b8152600401611b80929190614795565b6040805180830381865afa158015611b9c573d6000803e3d6000fd5b505050506040513d601f19601f82011682018060405250810190611bc091906147b9565b836060018460a001828152508273ffffffffffffffffffffffffffffffffffffffff1673ffffffffffffffffffffffffffffffffffffffff168152505050816060015173ffffffffffffffffffffffffffffffffffffffff168473ffffffffffffffffffffffffffffffffffffffff1614611c67576040517fd849d6a100000000000000000000000000000000000000000000000000000000815260040160405180910390fd5b73eeeeeeeeeeeeeeeeeeeeeeeeeeeeeeeeeeeeeeee73ffffffffffffffffffffffffffffffffffffffff168473ffffffffffffffffffffffffffffffffffffffff1603611cf1578160a00151471015611cec576040517f50b1f35600000000000000000000000000000000000000000000000000000000815260040160405180910390fd5b611da9565b8160a001518473ffffffffffffffffffffffffffffffffffffffff166370a08231306040518263ffffffff1660e01b8152600401611d2f919061411f565b602060405180830381865afa158015611d4c573d6000803e3d6000fd5b505050506040513d601f19601f82011682018060405250810190611d709190613ccf565b1015611da8576040517f50b1f35600000000000000000000000000000000000000000000000000000000815260040160405180910390fd5b5b82826000019073ffffffffffffffffffffffffffffffffffffffff16908173ffffffffffffffffffffffffffffffffffffffff16815250508073ffffffffffffffffffffffffffffffffffffffff1663c87439eb60405180610120016040528089898080601f016020809104026020016040519081016040528093929190818152602001838380828437600081840152601f19601f82011690508083019250505050505050815260200185610160015167ffffffffffffffff16815260200185610160015167ffffffffffffffff16815260200185610160015167ffffffffffffffff168152602001600015158152602001600073ffffffffffffffffffffffffffffffffffffffff168152602001856000015173ffffffffffffffffffffffffffffffffffffffff168152602001856060015173ffffffffffffffffffffffffffffffffffffffff168152602001600073ffffffffffffffffffffffffffffffffffffffff168152506040518263ffffffff1660e01b8152600401611f2f9190614940565b602060405180830381865afa158015611f4c573d6000803e3d6000fd5b505050506040513d601f19601f82011682018060405250810190611f709190613c8d565b50611f7c838a8a612831565b846040018560c0018660e00183815250838152508373ffffffffffffffffffffffffffffffffffffffff1673ffffffffffffffffffffffffffffffffffffffff16815250505050816040015173ffffffffffffffffffffffffffffffffffffffff166370a0823183600001516040518263ffffffff1660e01b8152600401612004919061411f565b602060405180830381865afa158015612021573d6000803e3d6000fd5b505050506040513d601f19601f820116820180604052508101906120459190613ccf565b826101000181815250506121987f000000000000000000000000000000000000000000000000000000000000000073ffffffffffffffffffffffffffffffffffffffff1663ca7adffb896040518263ffffffff1660e01b81526004016120ab919061472d565b602060405180830381865afa1580156120c8573d6000803e3d6000fd5b505050506040513d601f19601f820116820180604052508101906120ec9190613bb9565b87878080601f016020809104026020016040519081016040528093929190818152602001838380828437600081840152601f19601f8201169050808301925050505050505084606001518560a0015173eeeeeeeeeeeeeeeeeeeeeeeeeeeeeeeeeeeeeeee73ffffffffffffffffffffffffffffffffffffffff16876060015173ffffffffffffffffffffffffffffffffffffffff161461218d576000612193565b8660a001515b612c26565b816040015173ffffffffffffffffffffffffffffffffffffffff166370a0823183600001516040518263ffffffff1660e01b81526004016121d9919061411f565b602060405180830381865afa1580156121f6573d6000803e3d6000fd5b505050506040513d601f19601f8201168201806040525081019061221a9190613ccf565b8261012001818152505081610100015182610120015111612267576040517f97d6171700000000000000000000000000000000000000000000000000000000815260040160405180910390fd5b81610100015182610120015161227d919061461e565b826101400181815250508160e00151612710612299919061461e565b8260c001516122a89190614962565b6127108361014001516122bb9190614962565b10156122f3576040517fb1a0ac5200000000000000000000000000000000000000000000000000000000815260040160405180910390fd5b8160c001518261014001511115612314578160c00151826101400181815250505b816101400151600260008b815260200190815260200160002060008a8152602001908152602001600020819055508660ff16888a7f79dd72a5507049036244cf4dcb3032c6dca4572927ba3634cdc5ad30350cc3b285610140015160405161237c91906139e0565b60405180910390a4505050505050505050565b6001600081905550565b60008173ffffffffffffffffffffffffffffffffffffffff1663b63d36a5886040518263ffffffff1660e01b81526004016123d491906139e0565b602060405180830381865afa1580156123f1573d6000803e3d6000fd5b505050506040513d601f19601f8201168201806040525081019061241591906149c9565b90506000600281111561242b5761242a6149f6565b5b81600281111561243e5761243d6149f6565b5b14612475576040517f8666466500000000000000000000000000000000000000000000000000000000815260040160405180910390fd5b8473ffffffffffffffffffffffffffffffffffffffff168473ffffffffffffffffffffffffffffffffffffffff16146124da576040517fd849d6a100000000000000000000000000000000000000000000000000000000815260040160405180910390fd5b6000600160008981526020019081526020016000206000888152602001908152602001600020600101541461253b576040517fcd486c3800000000000000000000000000000000000000000000000000000000815260040160405180910390fd5b60008303612575576040517ff6fa545000000000000000000000000000000000000000000000000000000000815260040160405180910390fd5b73eeeeeeeeeeeeeeeeeeeeeeeeeeeeeeeeeeeeeeee73ffffffffffffffffffffffffffffffffffffffff168573ffffffffffffffffffffffffffffffffffffffff161461267457828573ffffffffffffffffffffffffffffffffffffffff166370a08231306040518263ffffffff1660e01b81526004016125f6919061411f565b602060405180830381865afa158015612613573d6000803e3d6000fd5b505050506040513d601f19601f820116820180604052508101906126379190613ccf565b101561266f576040517f50b1f35600000000000000000000000000000000000000000000000000000000815260040160405180910390fd5b6126af565b824710156126ae576040517f50b1f35600000000000000000000000000000000000000000000000000000000815260040160405180910390fd5b5b82600160008981526020019081526020016000206000888152602001908152602001600020600101819055508460016000898152602001908152602001600020600088815260200190815260200160002060000160006101000a81548173ffffffffffffffffffffffffffffffffffffffff021916908373ffffffffffffffffffffffffffffffffffffffff1602179055508473ffffffffffffffffffffffffffffffffffffffff1686887f859460c4efbe3d44cdd543c387afec894ebd03e8d6727d62f0a0260a6fcf53d68660405161278991906139e0565b60405180910390a450505050505050565b60006127c5828473ffffffffffffffffffffffffffffffffffffffff16612f6990919063ffffffff16565b905060008151141580156127ea5750808060200190518101906127e89190613c8d565b155b1561282c57826040517f5274afe7000000000000000000000000000000000000000000000000000000008152600401612823919061411f565b60405180910390fd5b505050565b6000806000808673ffffffffffffffffffffffffffffffffffffffff1663b63d36a5876040518263ffffffff1660e01b815260040161287091906139e0565b602060405180830381865afa15801561288d573d6000803e3d6000fd5b505050506040513d601f19601f820116820180604052508101906128b191906149c9565b9050600060028111156128c7576128c66149f6565b5b8160028111156128da576128d96149f6565b5b14612911576040517f8666466500000000000000000000000000000000000000000000000000000000815260040160405180910390fd5b60008773ffffffffffffffffffffffffffffffffffffffff166336445ffd886040518263ffffffff1660e01b815260040161294c91906139e0565b602060405180830381865afa158015612969573d6000803e3d6000fd5b505050506040513d601f19601f8201168201806040525081019061298d9190613ccf565b905060008873ffffffffffffffffffffffffffffffffffffffff1663361ad42b896040518263ffffffff1660e01b81526004016129ca91906139e0565b600060405180830381865afa1580156129e7573d6000803e3d6000fd5b505050506040513d6000823e3d601f19601f82011682018060405250810190612a109190613e58565b90506000612a1d836119c8565b5050509250505060018160ff1603612b6c57600082806020019051810190612a459190614577565b90508060200151518910612a85576040517ffc7d666700000000000000000000000000000000000000000000000000000000815260040160405180910390fd5b6000612aae82602001518b81518110612aa157612aa06145c0565b5b6020026020010151612f7f565b505090508073ffffffffffffffffffffffffffffffffffffffff1663b60262ca6040518163ffffffff1660e01b8152600401602060405180830381865afa158015612afd573d6000803e3d6000fd5b505050506040513d601f19601f82011682018060405250810190612b219190613bb9565b985081608001518a81518110612b3a57612b396145c0565b5b6020026020010151965081604001518a81518110612b5b57612b5a6145c0565b5b602002602001015197505050612c19565b600082806020019051810190612b8291906140d6565b90506000612b938260200151612f7f565b505090508073ffffffffffffffffffffffffffffffffffffffff1663b60262ca6040518163ffffffff1660e01b8152600401602060405180830381865afa158015612be2573d6000803e3d6000fd5b505050506040513d601f19601f82011682018060405250810190612c069190613bb9565b9850816080015196508160400151975050505b5050505093509350939050565b60008203612c60576040517ff6fa545000000000000000000000000000000000000000000000000000000000815260040160405180910390fd5b600073ffffffffffffffffffffffffffffffffffffffff168573ffffffffffffffffffffffffffffffffffffffff1603612cc6576040517f538ba4f900000000000000000000000000000000000000000000000000000000815260040160405180910390fd5b73eeeeeeeeeeeeeeeeeeeeeeeeeeeeeeeeeeeeeeee73ffffffffffffffffffffffffffffffffffffffff168373ffffffffffffffffffffffffffffffffffffffff1614612d3d57612d3885838573ffffffffffffffffffffffffffffffffffffffff16612fe09092919063ffffffff16565b612db2565b81811015612d77576040517fe4f2466300000000000000000000000000000000000000000000000000000000815260040160405180910390fd5b47811115612db1576040517f50b1f35600000000000000000000000000000000000000000000000000000000815260040160405180910390fd5b5b60008573ffffffffffffffffffffffffffffffffffffffff168286604051612dda9190614a56565b60006040518083038185875af1925050503d8060008114612e17576040519150601f19603f3d011682016040523d82523d6000602084013e612e1c565b606091505b5050905080612e6257836040517f2accaa15000000000000000000000000000000000000000000000000000000008152600401612e59919061411f565b60405180910390fd5b73eeeeeeeeeeeeeeeeeeeeeeeeeeeeeeeeeeeeeeee73ffffffffffffffffffffffffffffffffffffffff168473ffffffffffffffffffffffffffffffffffffffff1614612f6157600084905060008173ffffffffffffffffffffffffffffffffffffffff1663dd62ed3e308a6040518363ffffffff1660e01b8152600401612eeb929190614a6d565b602060405180830381865afa158015612f08573d6000803e3d6000fd5b505050506040513d601f19601f82011682018060405250810190612f2c9190613ccf565b1115612f5f57612f5e8760008373ffffffffffffffffffffffffffffffffffffffff1661307c9092919063ffffffff16565b5b505b505050505050565b6060612f778383600061318b565b905092915050565b600080600083925060a084901c915060c084901c905060008167ffffffffffffffff1603612fd9576040517f030042b700000000000000000000000000000000000000000000000000000000815260040160405180910390fd5b9193909250565b60008373ffffffffffffffffffffffffffffffffffffffff1663dd62ed3e30856040518363ffffffff1660e01b815260040161301d929190614a6d565b602060405180830381865afa15801561303a573d6000803e3d6000fd5b505050506040513d601f19601f8201168201806040525081019061305e9190613ccf565b9050613076848484846130719190614a96565b61307c565b50505050565b60008373ffffffffffffffffffffffffffffffffffffffff1663095ea7b384846040516024016130ad9291906137ef565b604051602081830303815290604052915060e01b6020820180517bffffffffffffffffffffffffffffffffffffffffffffffffffffffff838183161783525050505090506130fb8482613258565b6131855761317a848573ffffffffffffffffffffffffffffffffffffffff1663095ea7b3866000604051602401613133929190614b05565b604051602081830303815290604052915060e01b6020820180517bffffffffffffffffffffffffffffffffffffffffffffffffffffffff838183161783525050505061279a565b613184848261279a565b5b50505050565b6060814710156131d257306040517fcd7860590000000000000000000000000000000000000000000000000000000081526004016131c9919061411f565b60405180910390fd5b6000808573ffffffffffffffffffffffffffffffffffffffff1684866040516131fb9190614a56565b60006040518083038185875af1925050503d8060008114613238576040519150601f19603f3d011682016040523d82523d6000602084013e61323d565b606091505b509150915061324d86838361331f565b925050509392505050565b60008060008473ffffffffffffffffffffffffffffffffffffffff16846040516132829190614a56565b6000604051808303816000865af19150503d80600081146132bf576040519150601f19603f3d011682016040523d82523d6000602084013e6132c4565b606091505b50915091508180156132f257506000815114806132f15750808060200190518101906132f09190613c8d565b5b5b8015613315575060008573ffffffffffffffffffffffffffffffffffffffff163b115b9250505092915050565b6060826133345761332f826133ae565b6133a6565b6000825114801561335c575060008473ffffffffffffffffffffffffffffffffffffffff163b145b1561339e57836040517f9996b315000000000000000000000000000000000000000000000000000000008152600401613395919061411f565b60405180910390fd5b8190506133a7565b5b9392505050565b6000815111156133c15780518082602001fd5b6040517f1425ea4200000000000000000000000000000000000000000000000000000000815260040160405180910390fd5b604051806101800160405280600073ffffffffffffffffffffffffffffffffffffffff168152602001600073ffffffffffffffffffffffffffffffffffffffff168152602001600073ffffffffffffffffffffffffffffffffffffffff168152602001600073ffffffffffffffffffffffffffffffffffffffff168152602001600073ffffffffffffffffffffffffffffffffffffffff168152602001600081526020016000815260200160008152602001600081526020016000815260200160008152602001600067ffffffffffffffff1681525090565b6000604051905090565b600080fd5b600080fd5b600073ffffffffffffffffffffffffffffffffffffffff82169050919050565b600061350b826134e0565b9050919050565b61351b81613500565b811461352657600080fd5b50565b60008135905061353881613512565b92915050565b6000819050919050565b6135518161353e565b811461355c57600080fd5b50565b60008135905061356e81613548565b92915050565b60008060006060848603121561358d5761358c6134d6565b5b600061359b86828701613529565b93505060206135ac86828701613529565b92505060406135bd8682870161355f565b9150509250925092565b6000819050919050565b60006135ec6135e76135e2846134e0565b6135c7565b6134e0565b9050919050565b60006135fe826135d1565b9050919050565b6000613610826135f3565b9050919050565b61362081613605565b82525050565b600060208201905061363b6000830184613617565b92915050565b600060ff82169050919050565b61365781613641565b811461366257600080fd5b50565b6000813590506136748161364e565b92915050565b600080fd5b600080fd5b600080fd5b60008083601f84011261369f5761369e61367a565b5b8235905067ffffffffffffffff8111156136bc576136bb61367f565b5b6020830191508360018202830111156136d8576136d7613684565b5b9250929050565b600080600080606085870312156136f9576136f86134d6565b5b60006137078782880161355f565b945050602061371887828801613665565b935050604085013567ffffffffffffffff811115613739576137386134db565b5b61374587828801613689565b925092505092959194509250565b600067ffffffffffffffff82169050919050565b61377081613753565b82525050565b600060208201905061378b6000830184613767565b92915050565b600080604083850312156137a8576137a76134d6565b5b60006137b68582860161355f565b92505060206137c78582860161355f565b9150509250929050565b6137da81613500565b82525050565b6137e98161353e565b82525050565b600060408201905061380460008301856137d1565b61381160208301846137e0565b9392505050565b600080600060608486031215613831576138306134d6565b5b600061383f8682870161355f565b935050602061385086828701613529565b92505060406138618682870161355f565b9150509250925092565b60008083601f8401126138815761388061367a565b5b8235905067ffffffffffffffff81111561389e5761389d61367f565b5b6020830191508360208202830111156138ba576138b9613684565b5b9250929050565b60008083601f8401126138d7576138d661367a565b5b8235905067ffffffffffffffff8111156138f4576138f361367f565b5b6020830191508360208202830111156139105761390f613684565b5b9250929050565b60008060008060008060006080888a031215613936576139356134d6565b5b60006139448a828b0161355f565b975050602088013567ffffffffffffffff811115613965576139646134db565b5b6139718a828b0161386b565b9650965050604088013567ffffffffffffffff811115613994576139936134db565b5b6139a08a828b016138c1565b9450945050606088013567ffffffffffffffff8111156139c3576139c26134db565b5b6139cf8a828b0161386b565b925092505092959891949750929550565b60006020820190506139f560008301846137e0565b92915050565b60008083601f840112613a1157613a1061367a565b5b8235905067ffffffffffffffff811115613a2e57613a2d61367f565b5b602083019150836020820283011115613a4a57613a49613684565b5b9250929050565b60008083601f840112613a6757613a6661367a565b5b8235905067ffffffffffffffff811115613a8457613a8361367f565b5b602083019150836020820283011115613aa057613a9f613684565b5b9250929050565b60008060008060008060006080888a031215613ac657613ac56134d6565b5b6000613ad48a828b0161355f565b975050602088013567ffffffffffffffff811115613af557613af46134db565b5b613b018a828b0161386b565b9650965050604088013567ffffffffffffffff811115613b2457613b236134db565b5b613b308a828b016139fb565b9450945050606088013567ffffffffffffffff811115613b5357613b526134db565b5b613b5f8a828b01613a51565b925092505092959891949750929550565b6000819050919050565b613b8381613b70565b82525050565b6000602082019050613b9e6000830184613b7a565b92915050565b600081519050613bb381613512565b92915050565b600060208284031215613bcf57613bce6134d6565b5b6000613bdd84828501613ba4565b91505092915050565b600081905092915050565b50565b6000613c01600083613be6565b9150613c0c82613bf1565b600082019050919050565b6000613c2282613bf4565b9150819050919050565b6000604082019050613c416000830185613b7a565b613c4e60208301846137d1565b9392505050565b60008115159050919050565b613c6a81613c55565b8114613c7557600080fd5b50565b600081519050613c8781613c61565b92915050565b600060208284031215613ca357613ca26134d6565b5b6000613cb184828501613c78565b91505092915050565b600081519050613cc981613548565b92915050565b600060208284031215613ce557613ce46134d6565b5b6000613cf384828501613cba565b91505092915050565b600080fd5b6000601f19601f8301169050919050565b7f4e487b7100000000000000000000000000000000000000000000000000000000600052604160045260246000fd5b613d4a82613d01565b810181811067ffffffffffffffff82111715613d6957613d68613d12565b5b80604052505050565b6000613d7c6134cc565b9050613d888282613d41565b919050565b600067ffffffffffffffff821115613da857613da7613d12565b5b613db182613d01565b9050602081019050919050565b60005b83811015613ddc578082015181840152602081019050613dc1565b60008484015250505050565b6000613dfb613df684613d8d565b613d72565b905082815260208101848484011115613e1757613e16613cfc565b5b613e22848285613dbe565b509392505050565b600082601f830112613e3f57613e3e61367a565b5b8151613e4f848260208601613de8565b91505092915050565b600060208284031215613e6e57613e6d6134d6565b5b600082015167ffffffffffffffff811115613e8c57613e8b6134db565b5b613e9884828501613e2a565b91505092915050565b600080fd5b600080fd5b600081519050613eba8161364e565b92915050565b613ec981613753565b8114613ed457600080fd5b50565b600081519050613ee681613ec0565b92915050565b600060c08284031215613f0257613f01613ea1565b5b613f0c60c0613d72565b9050600082015167ffffffffffffffff811115613f2c57613f2b613ea6565b5b613f3884828501613e2a565b6000830152506020613f4c84828501613ba4565b6020830152506040613f6084828501613ba4565b6040830152506060613f7484828501613eab565b6060830152506080613f8884828501613ed7565b60808301525060a0613f9c84828501613cba565b60a08301525092915050565b60006101408284031215613fbf57613fbe613ea1565b5b613fca610140613d72565b90506000613fda84828501613cba565b6000830152506020613fee84828501613cba565b602083015250604061400284828501613cba565b604083015250606061401684828501613cba565b606083015250608061402a84828501613cba565b60808301525060a082015167ffffffffffffffff81111561404e5761404d613ea6565b5b61405a84828501613eec565b60a08301525060c061406e84828501613c78565b60c08301525060e061408284828501613c78565b60e08301525061010061409784828501613ba4565b6101008301525061012082015167ffffffffffffffff8111156140bd576140bc613ea6565b5b6140c984828501613e2a565b6101208301525092915050565b6000602082840312156140ec576140eb6134d6565b5b600082015167ffffffffffffffff81111561410a576141096134db565b5b61411684828501613fa8565b91505092915050565b600060208201905061413460008301846137d1565b92915050565b600067ffffffffffffffff82111561415557614154613d12565b5b602082029050602081019050919050565b60006141796141748461413a565b613d72565b9050808382526020820190506020840283018581111561419c5761419b613684565b5b835b818110156141c557806141b18882613cba565b84526020840193505060208101905061419e565b5050509392505050565b600082601f8301126141e4576141e361367a565b5b81516141f4848260208601614166565b91505092915050565b600067ffffffffffffffff82111561421857614217613d12565b5b602082029050602081019050919050565b600061423c614237846141fd565b613d72565b9050808382526020820190506020840283018581111561425f5761425e613684565b5b835b818110156142a657805167ffffffffffffffff8111156142845761428361367a565b5b8086016142918982613eec565b85526020850194505050602081019050614261565b5050509392505050565b600082601f8301126142c5576142c461367a565b5b81516142d5848260208601614229565b91505092915050565b600067ffffffffffffffff8211156142f9576142f8613d12565b5b602082029050602081019050919050565b600061431d614318846142de565b613d72565b905080838252602082019050602084028301858111156143405761433f613684565b5b835b8181101561436957806143558882613c78565b845260208401935050602081019050614342565b5050509392505050565b600082601f8301126143885761438761367a565b5b815161439884826020860161430a565b91505092915050565b600061014082840312156143b8576143b7613ea1565b5b6143c3610140613d72565b905060006143d384828501613cba565b600083015250602082015167ffffffffffffffff8111156143f7576143f6613ea6565b5b614403848285016141cf565b602083015250604082015167ffffffffffffffff81111561442757614426613ea6565b5b614433848285016141cf565b604083015250606082015167ffffffffffffffff81111561445757614456613ea6565b5b614463848285016141cf565b606083015250608082015167ffffffffffffffff81111561448757614486613ea6565b5b614493848285016141cf565b60808301525060a082015167ffffffffffffffff8111156144b7576144b6613ea6565b5b6144c3848285016142b0565b60a08301525060c082015167ffffffffffffffff8111156144e7576144e6613ea6565b5b6144f384828501614373565b60c08301525060e082015167ffffffffffffffff81111561451757614516613ea6565b5b61452384828501614373565b60e08301525061010061453884828501613ba4565b6101008301525061012082015167ffffffffffffffff81111561455e5761455d613ea6565b5b61456a84828501613e2a565b6101208301525092915050565b60006020828403121561458d5761458c6134d6565b5b600082015167ffffffffffffffff8111156145ab576145aa6134db565b5b6145b7848285016143a1565b91505092915050565b7f4e487b7100000000000000000000000000000000000000000000000000000000600052603260045260246000fd5b7f4e487b7100000000000000000000000000000000000000000000000000000000600052601160045260246000fd5b60006146298261353e565b91506146348361353e565b925082820390508181111561464c5761464b6145ef565b5b92915050565b600060208284031215614668576146676134d6565b5b600061467684828501613529565b91505092915050565b600060208284031215614695576146946134d6565b5b60006146a384828501613665565b91505092915050565b600080fd5b600080fd5b600080fd5b600080833560016020038436030381126146d8576146d76146ac565b5b80840192508235915067ffffffffffffffff8211156146fa576146f96146b1565b5b602083019250600182023603831315614716576147156146b6565b5b509250929050565b61472781613641565b82525050565b6000602082019050614742600083018461471e565b92915050565b600082825260208201905092915050565b82818337600083830152505050565b60006147748385614748565b9350614781838584614759565b61478a83613d01565b840190509392505050565b600060208201905081810360008301526147b0818486614768565b90509392505050565b600080604083850312156147d0576147cf6134d6565b5b60006147de85828601613ba4565b92505060206147ef85828601613cba565b9150509250929050565b600081519050919050565b600082825260208201905092915050565b6000614820826147f9565b61482a8185614804565b935061483a818560208601613dbe565b61484381613d01565b840191505092915050565b61485781613753565b82525050565b61486681613c55565b82525050565b61487581613500565b82525050565b60006101208301600083015184820360008601526148998282614815565b91505060208301516148ae602086018261484e565b5060408301516148c1604086018261484e565b5060608301516148d4606086018261484e565b5060808301516148e7608086018261485d565b5060a08301516148fa60a086018261486c565b5060c083015161490d60c086018261486c565b5060e083015161492060e086018261486c565b5061010083015161493561010086018261486c565b508091505092915050565b6000602082019050818103600083015261495a818461487b565b905092915050565b600061496d8261353e565b91506149788361353e565b92508282026149868161353e565b9150828204841483151761499d5761499c6145ef565b5b5092915050565b600381106149b157600080fd5b50565b6000815190506149c3816149a4565b92915050565b6000602082840312156149df576149de6134d6565b5b60006149ed848285016149b4565b91505092915050565b7f4e487b7100000000000000000000000000000000000000000000000000000000600052602160045260246000fd5b6000614a30826147f9565b614a3a8185613be6565b9350614a4a818560208601613dbe565b80840191505092915050565b6000614a628284614a25565b915081905092915050565b6000604082019050614a8260008301856137d1565b614a8f60208301846137d1565b9392505050565b6000614aa18261353e565b9150614aac8361353e565b9250828201905080821115614ac457614ac36145ef565b5b92915050565b6000819050919050565b6000614aef614aea614ae584614aca565b6135c7565b61353e565b9050919050565b614aff81614ad4565b82525050565b6000604082019050614b1a60008301856137d1565b614b276020830184614af6565b939250505056fea264697066735822122000b1051508058891e1f8202e0595d11524c5151129f098bc5c8a477402ed514564736f6c63430008170033","linkReferences":{}},"methodIdentifiers":{"CHAIN_ID()":"85e1f4d0","batchProcessTx(uint256,uint256[],uint8[],bytes[])":"fdfc1083","batchUpdateFailedTx(uint256,uint256[],address[],uint256[])":"c4e690e4","getPostDstSwapFailureUpdatedTokenAmount(uint256,uint256)":"95c2c5d7","processFailedTx(address,address,uint256)":"10d7d359","processTx(uint256,uint8,bytes)":"69eaf2d5","superRegistry()":"24c73dda","swappedAmount(uint256,uint256)":"c830c85a","updateFailedTx(uint256,address,uint256)":"a0d82da6"},"id":130}