{
    "contractName": "StateRegistry",
    "abi": [
        {
            "inputs": [
                {
                    "internalType": "uint16",
                    "name": "chainId_",
                    "type": "uint16"
                }
            ],
            "stateMutability": "nonpayable",
            "type": "constructor"
        },
        {
            "inputs": [],
            "name": "BRIDGE_TOKENS_PENDING",
            "type": "error"
        },
        {
            "inputs": [],
            "name": "INVALID_ARR_LENGTH",
            "type": "error"
        },
        {
            "inputs": [],
            "name": "INVALID_BRIDGE_ADDRESS",
            "type": "error"
        },
        {
            "inputs": [],
            "name": "INVALID_BRIDGE_ID",
            "type": "error"
        },
        {
            "inputs": [],
            "name": "INVALID_PAYLOAD_ID",
            "type": "error"
        },
        {
            "inputs": [],
            "name": "INVALID_PAYLOAD_STATE",
            "type": "error"
        },
        {
            "inputs": [],
            "name": "INVALID_PAYLOAD_UPDATE_REQUEST",
            "type": "error"
        },
        {
            "inputs": [],
            "name": "NEGATIVE_SLIPPAGE",
            "type": "error"
        },
        {
            "inputs": [],
            "name": "PAYLOAD_NOT_UPDATED",
            "type": "error"
        },
        {
            "inputs": [],
            "name": "SLIPPAGE_OUT_OF_BOUNDS",
            "type": "error"
        },
        {
            "anonymous": false,
            "inputs": [
                {
                    "indexed": false,
                    "internalType": "uint8",
                    "name": "ambId",
                    "type": "uint8"
                },
                {
                    "indexed": true,
                    "internalType": "address",
                    "name": "ambImplAddress",
                    "type": "address"
                }
            ],
            "name": "AmbConfigured",
            "type": "event"
        },
        {
            "anonymous": false,
            "inputs": [
                {
                    "indexed": false,
                    "internalType": "address",
                    "name": "routerContract",
                    "type": "address"
                },
                {
                    "indexed": false,
                    "internalType": "address",
                    "name": "tokenBankContract",
                    "type": "address"
                }
            ],
            "name": "CoreContractsUpdated",
            "type": "event"
        },
        {
            "anonymous": false,
            "inputs": [
                {
                    "indexed": false,
                    "internalType": "uint256",
                    "name": "payloadId",
                    "type": "uint256"
                }
            ],
            "name": "PayloadProcessed",
            "type": "event"
        },
        {
            "anonymous": false,
            "inputs": [
                {
                    "indexed": false,
                    "internalType": "uint80",
                    "name": "srcChainId",
                    "type": "uint80"
                },
                {
                    "indexed": false,
                    "internalType": "uint80",
                    "name": "dstChainId",
                    "type": "uint80"
                },
                {
                    "indexed": false,
                    "internalType": "uint256",
                    "name": "payloadId",
                    "type": "uint256"
                }
            ],
            "name": "PayloadReceived",
            "type": "event"
        },
        {
            "anonymous": false,
            "inputs": [
                {
                    "indexed": false,
                    "internalType": "uint256",
                    "name": "payloadId",
                    "type": "uint256"
                }
            ],
            "name": "PayloadUpdated",
            "type": "event"
        },
        {
            "anonymous": false,
            "inputs": [
                {
                    "indexed": true,
                    "internalType": "bytes32",
                    "name": "role",
                    "type": "bytes32"
                },
                {
                    "indexed": true,
                    "internalType": "bytes32",
                    "name": "previousAdminRole",
                    "type": "bytes32"
                },
                {
                    "indexed": true,
                    "internalType": "bytes32",
                    "name": "newAdminRole",
                    "type": "bytes32"
                }
            ],
            "name": "RoleAdminChanged",
            "type": "event"
        },
        {
            "anonymous": false,
            "inputs": [
                {
                    "indexed": true,
                    "internalType": "bytes32",
                    "name": "role",
                    "type": "bytes32"
                },
                {
                    "indexed": true,
                    "internalType": "address",
                    "name": "account",
                    "type": "address"
                },
                {
                    "indexed": true,
                    "internalType": "address",
                    "name": "sender",
                    "type": "address"
                }
            ],
            "name": "RoleGranted",
            "type": "event"
        },
        {
            "anonymous": false,
            "inputs": [
                {
                    "indexed": true,
                    "internalType": "bytes32",
                    "name": "role",
                    "type": "bytes32"
                },
                {
                    "indexed": true,
                    "internalType": "address",
                    "name": "account",
                    "type": "address"
                },
                {
                    "indexed": true,
                    "internalType": "address",
                    "name": "sender",
                    "type": "address"
                }
            ],
            "name": "RoleRevoked",
            "type": "event"
        },
        {
            "inputs": [],
            "name": "CORE_CONTRACTS_ROLE",
            "outputs": [
                {
                    "internalType": "bytes32",
                    "name": "",
                    "type": "bytes32"
                }
            ],
            "stateMutability": "view",
            "type": "function"
        },
        {
            "inputs": [],
            "name": "DEFAULT_ADMIN_ROLE",
            "outputs": [
                {
                    "internalType": "bytes32",
                    "name": "",
                    "type": "bytes32"
                }
            ],
            "stateMutability": "view",
            "type": "function"
        },
        {
            "inputs": [],
            "name": "IMPLEMENTATION_CONTRACTS_ROLE",
            "outputs": [
                {
                    "internalType": "bytes32",
                    "name": "",
                    "type": "bytes32"
                }
            ],
            "stateMutability": "view",
            "type": "function"
        },
        {
            "inputs": [],
            "name": "PROCESSOR_ROLE",
            "outputs": [
                {
                    "internalType": "bytes32",
                    "name": "",
                    "type": "bytes32"
                }
            ],
            "stateMutability": "view",
            "type": "function"
        },
        {
            "inputs": [],
            "name": "UPDATER_ROLE",
            "outputs": [
                {
                    "internalType": "bytes32",
                    "name": "",
                    "type": "bytes32"
                }
            ],
            "stateMutability": "view",
            "type": "function"
        },
        {
            "inputs": [
                {
                    "internalType": "uint8",
                    "name": "",
                    "type": "uint8"
                }
            ],
            "name": "amb",
            "outputs": [
                {
                    "internalType": "contract IAmbImplementation",
                    "name": "",
                    "type": "address"
                }
            ],
            "stateMutability": "view",
            "type": "function"
        },
        {
            "inputs": [],
            "name": "chainId",
            "outputs": [
                {
                    "internalType": "uint16",
                    "name": "",
                    "type": "uint16"
                }
            ],
            "stateMutability": "view",
            "type": "function"
        },
        {
            "inputs": [
                {
                    "internalType": "uint8",
                    "name": "ambId_",
                    "type": "uint8"
                },
                {
                    "internalType": "address",
                    "name": "ambImplementation_",
                    "type": "address"
                }
            ],
            "name": "configureAmb",
            "outputs": [],
            "stateMutability": "nonpayable",
            "type": "function"
        },
        {
            "inputs": [
                {
                    "internalType": "uint8",
                    "name": "ambId_",
                    "type": "uint8"
                },
                {
                    "internalType": "uint16",
                    "name": "dstChainId_",
                    "type": "uint16"
                },
                {
                    "internalType": "bytes",
                    "name": "message_",
                    "type": "bytes"
                },
                {
                    "internalType": "bytes",
                    "name": "extraData_",
                    "type": "bytes"
                }
            ],
            "name": "dispatchPayload",
            "outputs": [],
            "stateMutability": "payable",
            "type": "function"
        },
        {
            "inputs": [
                {
                    "internalType": "bytes32",
                    "name": "role",
                    "type": "bytes32"
                }
            ],
            "name": "getRoleAdmin",
            "outputs": [
                {
                    "internalType": "bytes32",
                    "name": "",
                    "type": "bytes32"
                }
            ],
            "stateMutability": "view",
            "type": "function"
        },
        {
            "inputs": [
                {
                    "internalType": "bytes32",
                    "name": "role",
                    "type": "bytes32"
                },
                {
                    "internalType": "address",
                    "name": "account",
                    "type": "address"
                }
            ],
            "name": "grantRole",
            "outputs": [],
            "stateMutability": "nonpayable",
            "type": "function"
        },
        {
            "inputs": [
                {
                    "internalType": "bytes32",
                    "name": "role",
                    "type": "bytes32"
                },
                {
                    "internalType": "address",
                    "name": "account",
                    "type": "address"
                }
            ],
            "name": "hasRole",
            "outputs": [
                {
                    "internalType": "bool",
                    "name": "",
                    "type": "bool"
                }
            ],
            "stateMutability": "view",
            "type": "function"
        },
        {
            "inputs": [
                {
                    "internalType": "uint256",
                    "name": "",
                    "type": "uint256"
                }
            ],
            "name": "payload",
            "outputs": [
                {
                    "internalType": "bytes",
                    "name": "",
                    "type": "bytes"
                }
            ],
            "stateMutability": "view",
            "type": "function"
        },
        {
            "inputs": [
                {
                    "internalType": "uint256",
                    "name": "",
                    "type": "uint256"
                }
            ],
            "name": "payloadTracking",
            "outputs": [
                {
                    "internalType": "enum PayloadState",
                    "name": "",
                    "type": "uint8"
                }
            ],
            "stateMutability": "view",
            "type": "function"
        },
        {
            "inputs": [],
            "name": "payloadsCount",
            "outputs": [
                {
                    "internalType": "uint256",
                    "name": "",
                    "type": "uint256"
                }
            ],
            "stateMutability": "view",
            "type": "function"
        },
        {
            "inputs": [
                {
                    "internalType": "uint256",
                    "name": "payloadId_",
                    "type": "uint256"
                }
            ],
            "name": "processPayload",
            "outputs": [],
            "stateMutability": "payable",
            "type": "function"
        },
        {
            "inputs": [
                {
                    "internalType": "uint16",
                    "name": "srcChainId_",
                    "type": "uint16"
                },
                {
                    "internalType": "bytes",
                    "name": "message_",
                    "type": "bytes"
                }
            ],
            "name": "receivePayload",
            "outputs": [],
            "stateMutability": "nonpayable",
            "type": "function"
        },
        {
            "inputs": [
                {
                    "internalType": "bytes32",
                    "name": "role",
                    "type": "bytes32"
                },
                {
                    "internalType": "address",
                    "name": "account",
                    "type": "address"
                }
            ],
            "name": "renounceRole",
            "outputs": [],
            "stateMutability": "nonpayable",
            "type": "function"
        },
        {
            "inputs": [
                {
                    "internalType": "uint256",
                    "name": "payloadId_",
                    "type": "uint256"
                },
                {
                    "internalType": "uint256",
                    "name": "ambId_",
                    "type": "uint256"
                },
                {
                    "internalType": "bytes",
                    "name": "extraData_",
                    "type": "bytes"
                }
            ],
            "name": "revertPayload",
            "outputs": [],
            "stateMutability": "payable",
            "type": "function"
        },
        {
            "inputs": [
                {
                    "internalType": "bytes32",
                    "name": "role",
                    "type": "bytes32"
                },
                {
                    "internalType": "address",
                    "name": "account",
                    "type": "address"
                }
            ],
            "name": "revokeRole",
            "outputs": [],
            "stateMutability": "nonpayable",
            "type": "function"
        },
        {
            "inputs": [],
            "name": "routerContract",
            "outputs": [
                {
                    "internalType": "contract ISuperRouter",
                    "name": "",
                    "type": "address"
                }
            ],
            "stateMutability": "view",
            "type": "function"
        },
        {
            "inputs": [
                {
                    "internalType": "address",
                    "name": "routerContract_",
                    "type": "address"
                },
                {
                    "internalType": "address",
                    "name": "tokenBankContract_",
                    "type": "address"
                },
                {
                    "internalType": "address",
                    "name": "superFormFactory_",
                    "type": "address"
                }
            ],
            "name": "setCoreContracts",
            "outputs": [],
            "stateMutability": "nonpayable",
            "type": "function"
        },
        {
            "inputs": [],
            "name": "superFormFactory",
            "outputs": [
                {
                    "internalType": "contract ISuperFormFactory",
                    "name": "",
                    "type": "address"
                }
            ],
            "stateMutability": "view",
            "type": "function"
        },
        {
            "inputs": [
                {
                    "internalType": "bytes4",
                    "name": "interfaceId",
                    "type": "bytes4"
                }
            ],
            "name": "supportsInterface",
            "outputs": [
                {
                    "internalType": "bool",
                    "name": "",
                    "type": "bool"
                }
            ],
            "stateMutability": "view",
            "type": "function"
        },
        {
            "inputs": [],
            "name": "tokenBankContract",
            "outputs": [
                {
                    "internalType": "contract ITokenBank",
                    "name": "",
                    "type": "address"
                }
            ],
            "stateMutability": "view",
            "type": "function"
        },
        {
            "inputs": [
                {
                    "internalType": "uint256",
                    "name": "payloadId_",
                    "type": "uint256"
                },
                {
                    "internalType": "uint256[]",
                    "name": "finalAmounts_",
                    "type": "uint256[]"
                }
            ],
            "name": "updateMultiVaultPayload",
            "outputs": [],
            "stateMutability": "nonpayable",
            "type": "function"
        },
        {
            "inputs": [
                {
                    "internalType": "uint256",
                    "name": "payloadId_",
                    "type": "uint256"
                },
                {
                    "internalType": "uint256",
                    "name": "finalAmount_",
                    "type": "uint256"
                }
            ],
            "name": "updateSingleVaultPayload",
            "outputs": [],
            "stateMutability": "nonpayable",
            "type": "function"
        },
        {
            "stateMutability": "payable",
            "type": "receive"
        }
    ],
    "bytecode": "60a06040523480156200001157600080fd5b5060405162002921380380620029218339810160408190526200003491620000fe565b620000416000336200004e565b61ffff166080526200012b565b6200005a82826200005e565b5050565b6000828152602081815260408083206001600160a01b038516845290915290205460ff166200005a576000828152602081815260408083206001600160a01b03851684529091529020805460ff19166001179055620000ba3390565b6001600160a01b0316816001600160a01b0316837f2f8788117e7eff1d82e926ec794901d17c78024a50270940304540a733656f0d60405160405180910390a45050565b6000602082840312156200011157600080fd5b815161ffff811681146200012457600080fd5b9392505050565b6080516127c56200015c600039600081816104ac01528181610a3301528181610cf50152610d6c01526127c56000f3fe6080604052600436106101a05760003560e01c80635aef9480116100ec5780639a8a05921161008a578063bb4e522311610064578063bb4e522314610533578063d547741f14610567578063e941d69414610587578063efa891c4146105b457600080fd5b80639a8a05921461049a578063a217fddf146104e1578063b63d36a5146104f657600080fd5b80637597db1a116100c65780637597db1a146103ff5780638088bac4146104125780638222bdb21461044657806391d148541461047a57600080fd5b80635aef9480146103ac57806361738791146103bf5780636aa534a3146103df57600080fd5b80632d9b70141161015957806342db1f911161013357806342db1f911461032557806347e63380146103385780634f72d8461461036c578063500734631461038c57600080fd5b80632d9b7014146102af5780632f2ff15d146102e557806336568abe1461030557600080fd5b806301ffc9a7146101ac57806313c02a59146101e1578063196df01314610205578063248a9ca31461022757806325ea41da146102575780632a54cf371461028f57600080fd5b366101a757005b600080fd5b3480156101b857600080fd5b506101cc6101c7366004611c28565b6105d4565b60405190151581526020015b60405180910390f35b3480156101ed57600080fd5b506101f760015481565b6040519081526020016101d8565b34801561021157600080fd5b50610225610220366004611c52565b61060b565b005b34801561023357600080fd5b506101f7610242366004611cd0565b60009081526020819052604090206001015490565b34801561026357600080fd5b50600454610277906001600160a01b031681565b6040516001600160a01b0390911681526020016101d8565b34801561029b57600080fd5b506102256102aa366004611deb565b6109c9565b3480156102bb57600080fd5b506102776102ca366004611e49565b6005602052600090815260409020546001600160a01b031681565b3480156102f157600080fd5b50610225610300366004611e7b565b610a8f565b34801561031157600080fd5b50610225610320366004611e7b565b610ab9565b610225610333366004611ea7565b610b3c565b34801561034457600080fd5b506101f77f73e573f9566d61418a34d5de3ff49360f9c51fec37f7486551670290f6285dab81565b34801561037857600080fd5b50600254610277906001600160a01b031681565b34801561039857600080fd5b506102256103a7366004611ef6565b610db9565b6102256103ba366004611cd0565b611029565b3480156103cb57600080fd5b50600354610277906001600160a01b031681565b3480156103eb57600080fd5b506102256103fa366004611f18565b6111d6565b61022561040d366004611f42565b611295565b34801561041e57600080fd5b506101f77f80c481b3e5b057fb73e0623e25db76ba87662c7aee81a8c210c5cd59b9d4d87581565b34801561045257600080fd5b506101f77fe61decff6e4a5c6b5a3d3cbd28f882e595173563b49353ce5f31dba2de7f05ee81565b34801561048657600080fd5b506101cc610495366004611e7b565b611365565b3480156104a657600080fd5b506104ce7f000000000000000000000000000000000000000000000000000000000000000081565b60405161ffff90911681526020016101d8565b3480156104ed57600080fd5b506101f7600081565b34801561050257600080fd5b50610526610511366004611cd0565b60076020526000908152604090205460ff1681565b6040516101d89190611fdc565b34801561053f57600080fd5b506101f77fa42149a6471a063c55443ec2d662187b225ca21a07307f6b6510a4e432fb108381565b34801561057357600080fd5b50610225610582366004611e7b565b61138e565b34801561059357600080fd5b506105a76105a2366004611cd0565b6113b3565b6040516101d89190612054565b3480156105c057600080fd5b506102256105cf366004612067565b61144d565b60006001600160e01b03198216637965db0b60e01b148061060557506301ffc9a760e01b6001600160e01b03198316145b92915050565b7f73e573f9566d61418a34d5de3ff49360f9c51fec37f7486551670290f6285dab610635816114d9565b600154841115610658576040516355da2ca360e11b815260040160405180910390fd5b60008481526006602052604081208054610671906120aa565b80601f016020809104026020016040519081016040528092919081815260200182805461069d906120aa565b80156106ea5780601f106106bf576101008083540402835291602001916106ea565b820191906000526020600020905b8154815290600101906020018083116106cd57829003601f168201915b50505050508060200190518101906107029190612131565b9050600080600061071684600001516114e6565b91945092509050821580159061072b57508115155b15610749576040516330be21b360e11b815260040160405180910390fd5b60008881526007602052604081205460ff16600281111561076c5761076c611fc6565b1461078a5760405163ac2e27c960e01b815260040160405180910390fd5b806107a8576040516330be21b360e11b815260040160405180910390fd5b600084602001518060200190518101906107c2919061223c565b604081015151909150878082146107ec57604051635a60158160e01b815260040160405180910390fd5b60005b828110156108d45760008b8b8381811061080b5761080b612342565b90506020020135905060008560400151838151811061082c5761082c612342565b60200260200101519050808211156108575760405163c8a403d160e01b815260040160405180910390fd5b60006127108760600151858151811061087257610872612342565b6020026020010151612710610887919061236e565b6108919084612381565b61089b9190612398565b9050808310156108be576040516358d0562960e11b815260040160405180910390fd5b50505080806108cc906123ba565b9150506107ef565b508989808060200260200160405190810160405280939291908181526020018383602002808284376000920191909152505050506040808501919091525161092090849060200161240e565b60405160208183030381529060405287602001819052508660405160200161094891906124b3565b60408051601f1981840301815291815260008d81526006602052209061096e908261251e565b5060008b815260076020908152604091829020805460ff1916600117905590518c81527f144d814d5dc6f17c1a88bc42c55d67392a51c818908ed7cca6118bc51a34b153910160405180910390a15050505050505050505050565b7f80c481b3e5b057fb73e0623e25db76ba87662c7aee81a8c210c5cd59b9d4d8756109f3816114d9565b600160008154610a02906123ba565b909155506001546000908152600660205260409020610a21838261251e565b506001546040805161ffff86811682527f000000000000000000000000000000000000000000000000000000000000000016602082015280820192909252517ffe4eb505bb09e4bc47bfda2152f056b990001305b7eeff4cdc9b0e44bd837fe19181900360600190a1505050565b600082815260208190526040902060010154610aaa816114d9565b610ab48383611523565b505050565b6001600160a01b0381163314610b2e5760405162461bcd60e51b815260206004820152602f60248201527f416363657373436f6e74726f6c3a2063616e206f6e6c792072656e6f756e636560448201526e103937b632b9903337b91039b2b63360891b60648201526084015b60405180910390fd5b610b3882826115a7565b5050565b7fe61decff6e4a5c6b5a3d3cbd28f882e595173563b49353ce5f31dba2de7f05ee610b66816114d9565b600154841115610b89576040516355da2ca360e11b815260040160405180910390fd5b600260008581526007602052604090205460ff166002811115610bae57610bae611fc6565b03610bcc5760405163ac2e27c960e01b815260040160405180910390fd5b6000848152600760209081526040808320805460ff19166002179055600690915281208054610bfa906120aa565b80601f0160208091040260200160405190810160405280929190818152602001828054610c26906120aa565b8015610c735780601f10610c4857610100808354040283529160200191610c73565b820191906000526020600020905b815481529060010190602001808311610c5657829003601f168201915b5050505050806020019051810190610c8b9190612131565b90506000806000610c9f84600001516114e6565b9250925092508015610d3c5760008460200151806020019051810190610cc5919061223c565b9050610cef8160200151600081518110610ce157610ce1612342565b602002602001015160f01c90565b61ffff167f000000000000000000000000000000000000000000000000000000000000000061ffff1614610d365760405163ac2e27c960e01b815260040160405180910390fd5b50610daf565b60008460200151806020019051810190610d5691906125dd565b9050610d66816020015160f01c90565b61ffff167f000000000000000000000000000000000000000000000000000000000000000061ffff1614610dad5760405163ac2e27c960e01b815260040160405180910390fd5b505b5050505050505050565b7f73e573f9566d61418a34d5de3ff49360f9c51fec37f7486551670290f6285dab610de3816114d9565b600154831115610e06576040516355da2ca360e11b815260040160405180910390fd5b60008381526006602052604081208054610e1f906120aa565b80601f0160208091040260200160405190810160405280929190818152602001828054610e4b906120aa565b8015610e985780601f10610e6d57610100808354040283529160200191610e98565b820191906000526020600020905b815481529060010190602001808311610e7b57829003601f168201915b5050505050806020019051810190610eb09190612131565b90506000806000610ec484600001516114e6565b919450925090508215801590610ed957508115155b15610ef7576040516330be21b360e11b815260040160405180910390fd5b60008781526007602052604081205460ff166002811115610f1a57610f1a611fc6565b14610f385760405163ac2e27c960e01b815260040160405180910390fd5b8015610f57576040516330be21b360e11b815260040160405180910390fd5b60008460200151806020019051810190610f7191906125dd565b6040810151909150879080821115610f9c5760405163c8a403d160e01b815260040160405180910390fd5b60006127108460600151612710610fb3919061236e565b610fbd9084612381565b610fc79190612398565b905080831015610fea576040516358d0562960e11b815260040160405180910390fd5b60408085018b905251611001908590602001612656565b60405160208183030381529060405288602001819052508760405160200161094891906124b3565b7fe61decff6e4a5c6b5a3d3cbd28f882e595173563b49353ce5f31dba2de7f05ee611053816114d9565b600154821115611076576040516355da2ca360e11b815260040160405180910390fd5b600260008381526007602052604090205460ff16600281111561109b5761109b611fc6565b036110b95760405163ac2e27c960e01b815260040160405180910390fd5b600082815260066020526040812080546110d2906120aa565b80601f01602080910402602001604051908101604052809291908181526020018280546110fe906120aa565b801561114b5780601f106111205761010080835404028352916020019161114b565b820191906000526020600020905b81548152906001019060200180831161112e57829003601f168201915b50505050508060200190518101906111639190612131565b9050600080600061117784600001516114e6565b92509250925080156111ab576001830361119b5761119686838661160c565b6111ce565b8261119657611196868386611703565b600183036111be5761119686838661183d565b826111ce576111ce8683866118dd565b505050505050565b60006111e1816114d9565b8260ff166000036112055760405163f5122be160e01b815260040160405180910390fd5b6001600160a01b03821661122c57604051635db2cc4360e11b815260040160405180910390fd5b60ff831660008181526005602090815260409182902080546001600160a01b0319166001600160a01b038716908117909155915192835290917f89ac6793674db875cce86d5aa777df96a6fbf6847ea96f6cbb8775e7e3c97c23910160405180910390a2505050565b7fa42149a6471a063c55443ec2d662187b225ca21a07307f6b6510a4e432fb10836112bf816114d9565b60ff85166000908152600560205260409020546001600160a01b0316806112f95760405163f5122be160e01b815260040160405180910390fd5b60405163f822652960e01b81526001600160a01b0382169063f822652990349061132b908990899089906004016126b7565b6000604051808303818588803b15801561134457600080fd5b505af1158015611358573d6000803e3d6000fd5b5050505050505050505050565b6000918252602082815260408084206001600160a01b0393909316845291905290205460ff1690565b6000828152602081905260409020600101546113a9816114d9565b610ab483836115a7565b600660205260009081526040902080546113cc906120aa565b80601f01602080910402602001604051908101604052809291908181526020018280546113f8906120aa565b80156114455780601f1061141a57610100808354040283529160200191611445565b820191906000526020600020905b81548152906001019060200180831161142857829003601f168201915b505050505081565b6000611458816114d9565b600280546001600160a01b03199081166001600160a01b0387811691821790935560038054831687851690811790915560048054909316938616939093179091556040805191825260208201929092527f3b365bf158c70f2be23b335b877903dbb5272a3b5995d091fe710781c3288cea910160405180910390a150505050565b6114e38133611a1b565b50565b6effffffffffffffffffffffffffffff80821690607883901c166000600160ff60f086901c161461151857600061151b565b60015b929491935050565b61152d8282611365565b610b38576000828152602081815260408083206001600160a01b03851684529091529020805460ff191660011790556115633390565b6001600160a01b0316816001600160a01b0316837f2f8788117e7eff1d82e926ec794901d17c78024a50270940304540a733656f0d60405160405180910390a45050565b6115b18282611365565b15610b38576000828152602081815260408083206001600160a01b0385168085529252808320805460ff1916905551339285917ff6391f5c32d9c69d2a47ea670b442974b53935d1edc7fd64eb21e047a839171b9190a45050565b6000838152600760205260409020805460ff19166002179055816116a45760008160200151806020019051810190611644919061223c565b600354604051631d8bfac960e21b81529192506001600160a01b03169063762feb2490349061167790859060040161240e565b6000604051808303818588803b15801561169057600080fd5b505af1158015610dad573d6000803e3d6000fd5b6002546040516349e5b64960e01b81526001600160a01b03909116906349e5b6499034906116d69085906004016124b3565b6000604051808303818588803b1580156116ef57600080fd5b505af1158015610daf573d6000803e3d6000fd5b816117af57600160008481526007602052604090205460ff16600281111561172d5761172d611fc6565b1461174b576040516386f8e37560e01b815260040160405180910390fd5b60008381526007602090815260408220805460ff1916600217905582810151805161177c929082018101910161223c565b600354604051633f7f32e360e21b81529192506001600160a01b03169063fdfccb8c90349061167790859060040161240e565b60008381526007602052604081205460ff1660028111156117d2576117d2611fc6565b146117f05760405163ac2e27c960e01b815260040160405180910390fd5b60008381526007602052604090819020805460ff191660029081179091555490516349e5b64960e01b81526001600160a01b03909116906349e5b6499034906116d69085906004016124b3565b6000838152600760205260409020805460ff19166002179055816118ab576000816020015180602001905181019061187591906125dd565b600354604051600162f76f2760e01b031981529192506001600160a01b03169063ff0890d9903490611677908590600401612656565b6002546040516333e3072160e01b81526001600160a01b03909116906333e307219034906116d69085906004016124b3565b8161198d57600081602001518060200190518101906118fc91906125dd565b9050600160008581526007602052604090205460ff16600281111561192357611923611fc6565b14611941576040516386f8e37560e01b815260040160405180910390fd5b60008481526007602052604090819020805460ff191660021790556003549051637b0e0e4360e11b81526001600160a01b039091169063f61c1c86903490611677908590600401612656565b60008381526007602052604081205460ff1660028111156119b0576119b0611fc6565b146119ce5760405163ac2e27c960e01b815260040160405180910390fd5b60008381526007602052604090819020805460ff191660029081179091555490516333e3072160e01b81526001600160a01b03909116906333e307219034906116d69085906004016124b3565b611a258282611365565b610b3857611a3281611a74565b611a3d836020611a86565b604051602001611a4e9291906126f0565b60408051601f198184030181529082905262461bcd60e51b8252610b2591600401612054565b60606106056001600160a01b03831660145b60606000611a95836002612381565b611aa0906002612765565b6001600160401b03811115611ab757611ab7611d00565b6040519080825280601f01601f191660200182016040528015611ae1576020820181803683370190505b509050600360fc1b81600081518110611afc57611afc612342565b60200101906001600160f81b031916908160001a905350600f60fb1b81600181518110611b2b57611b2b612342565b60200101906001600160f81b031916908160001a9053506000611b4f846002612381565b611b5a906001612765565b90505b6001811115611bd2576f181899199a1a9b1b9c1cb0b131b232b360811b85600f1660108110611b8e57611b8e612342565b1a60f81b828281518110611ba457611ba4612342565b60200101906001600160f81b031916908160001a90535060049490941c93611bcb81612778565b9050611b5d565b508315611c215760405162461bcd60e51b815260206004820181905260248201527f537472696e67733a20686578206c656e67746820696e73756666696369656e746044820152606401610b25565b9392505050565b600060208284031215611c3a57600080fd5b81356001600160e01b031981168114611c2157600080fd5b600080600060408486031215611c6757600080fd5b8335925060208401356001600160401b0380821115611c8557600080fd5b818601915086601f830112611c9957600080fd5b813581811115611ca857600080fd5b8760208260051b8501011115611cbd57600080fd5b6020830194508093505050509250925092565b600060208284031215611ce257600080fd5b5035919050565b803561ffff81168114611cfb57600080fd5b919050565b634e487b7160e01b600052604160045260246000fd5b60405160c081016001600160401b0381118282101715611d3857611d38611d00565b60405290565b604051601f8201601f191681016001600160401b0381118282101715611d6657611d66611d00565b604052919050565b60006001600160401b03821115611d8757611d87611d00565b50601f01601f191660200190565b600082601f830112611da657600080fd5b8135611db9611db482611d6e565b611d3e565b818152846020838601011115611dce57600080fd5b816020850160208301376000918101602001919091529392505050565b60008060408385031215611dfe57600080fd5b611e0783611ce9565b915060208301356001600160401b03811115611e2257600080fd5b611e2e85828601611d95565b9150509250929050565b803560ff81168114611cfb57600080fd5b600060208284031215611e5b57600080fd5b611c2182611e38565b80356001600160a01b0381168114611cfb57600080fd5b60008060408385031215611e8e57600080fd5b82359150611e9e60208401611e64565b90509250929050565b600080600060608486031215611ebc57600080fd5b833592506020840135915060408401356001600160401b03811115611ee057600080fd5b611eec86828701611d95565b9150509250925092565b60008060408385031215611f0957600080fd5b50508035926020909101359150565b60008060408385031215611f2b57600080fd5b611f3483611e38565b9150611e9e60208401611e64565b60008060008060808587031215611f5857600080fd5b611f6185611e38565b9350611f6f60208601611ce9565b925060408501356001600160401b0380821115611f8b57600080fd5b611f9788838901611d95565b93506060870135915080821115611fad57600080fd5b50611fba87828801611d95565b91505092959194509250565b634e487b7160e01b600052602160045260246000fd5b6020810160038310611ffe57634e487b7160e01b600052602160045260246000fd5b91905290565b60005b8381101561201f578181015183820152602001612007565b50506000910152565b60008151808452612040816020860160208601612004565b601f01601f19169290920160200192915050565b602081526000611c216020830184612028565b60008060006060848603121561207c57600080fd5b61208584611e64565b925061209360208501611e64565b91506120a160408501611e64565b90509250925092565b600181811c908216806120be57607f821691505b6020821081036120de57634e487b7160e01b600052602260045260246000fd5b50919050565b600082601f8301126120f557600080fd5b8151612103611db482611d6e565b81815284602083860101111561211857600080fd5b612129826020830160208701612004565b949350505050565b60006020828403121561214357600080fd5b81516001600160401b038082111561215a57600080fd5b908301906040828603121561216e57600080fd5b60405160408101818110838211171561218957612189611d00565b604052825181526020830151828111156121a257600080fd5b6121ae878286016120e4565b60208301525095945050505050565b600082601f8301126121ce57600080fd5b815160206001600160401b038211156121e9576121e9611d00565b8160051b6121f8828201611d3e565b928352848101820192828101908785111561221257600080fd5b83870192505b8483101561223157825182529183019190830190612218565b979650505050505050565b60006020828403121561224e57600080fd5b81516001600160401b038082111561226557600080fd5b9083019060c0828603121561227957600080fd5b612281611d16565b8251815260208301518281111561229757600080fd5b6122a3878286016121bd565b6020830152506040830151828111156122bb57600080fd5b6122c7878286016121bd565b6040830152506060830151828111156122df57600080fd5b6122eb878286016121bd565b60608301525060808301518281111561230357600080fd5b61230f878286016120e4565b60808301525060a08301518281111561232757600080fd5b612333878286016120e4565b60a08301525095945050505050565b634e487b7160e01b600052603260045260246000fd5b634e487b7160e01b600052601160045260246000fd5b8181038181111561060557610605612358565b808202811582820484141761060557610605612358565b6000826123b557634e487b7160e01b600052601260045260246000fd5b500490565b6000600182016123cc576123cc612358565b5060010190565b600081518084526020808501945080840160005b83811015612403578151875295820195908201906001016123e7565b509495945050505050565b60208152815160208201526000602083015160c0604084015261243460e08401826123d3565b90506040840151601f198085840301606086015261245283836123d3565b9250606086015191508085840301608086015261246f83836123d3565b925060808601519150808584030160a086015261248c8383612028565b925060a08601519150808584030160c0860152506124aa8282612028565b95945050505050565b6020815281516020820152600060208301516040808401526121296060840182612028565b601f821115610ab457600081815260208120601f850160051c810160208610156124ff5750805b601f850160051c820191505b818110156111ce5782815560010161250b565b81516001600160401b0381111561253757612537611d00565b61254b8161254584546120aa565b846124d8565b602080601f83116001811461258057600084156125685750858301515b600019600386901b1c1916600185901b1785556111ce565b600085815260208120601f198616915b828110156125af57888601518255948401946001909101908401612590565b50858210156125cd5787850151600019600388901b60f8161c191681555b5050505050600190811b01905550565b6000602082840312156125ef57600080fd5b81516001600160401b038082111561260657600080fd5b9083019060c0828603121561261a57600080fd5b612622611d16565b8251815260208301516020820152604083015160408201526060830151606082015260808301518281111561230357600080fd5b60208152815160208201526020820151604082015260408201516060820152606082015160808201526000608083015160c060a084015261269a60e0840182612028565b905060a0840151601f198483030160c08501526124aa8282612028565b61ffff841681526060602082015260006126d46060830185612028565b82810360408401526126e68185612028565b9695505050505050565b7f416363657373436f6e74726f6c3a206163636f756e7420000000000000000000815260008351612728816017850160208801612004565b7001034b99036b4b9b9b4b733903937b6329607d1b6017918401918201528351612759816028840160208801612004565b01602801949350505050565b8082018082111561060557610605612358565b60008161278757612787612358565b50600019019056fea2646970667358221220fb33deb718d1df6aeb6607ba02e22a6be71460a52dd30435714cac0669f9690a64736f6c63430008130033",
    "sourcePath": "/home/user/Github/SuperForm/superform-core/src/crosschain-data/StateRegistry.sol",
    "compiler": {
        "name": "solc",
        "version": "0.8.19+commit.7dd6d404"
    },
    "functionHashes": {
        "CORE_CONTRACTS_ROLE()": "bb4e5223",
        "DEFAULT_ADMIN_ROLE()": "a217fddf",
        "IMPLEMENTATION_CONTRACTS_ROLE()": "8088bac4",
        "PROCESSOR_ROLE()": "8222bdb2",
        "UPDATER_ROLE()": "47e63380",
        "amb(uint8)": "2d9b7014",
        "chainId()": "9a8a0592",
        "configureAmb(uint8,address)": "6aa534a3",
        "dispatchPayload(uint8,uint16,bytes,bytes)": "7597db1a",
        "getRoleAdmin(bytes32)": "248a9ca3",
        "grantRole(bytes32,address)": "2f2ff15d",
        "hasRole(bytes32,address)": "91d14854",
        "payload(uint256)": "e941d694",
        "payloadTracking(uint256)": "b63d36a5",
        "payloadsCount()": "13c02a59",
        "processPayload(uint256)": "5aef9480",
        "receivePayload(uint16,bytes)": "2a54cf37",
        "renounceRole(bytes32,address)": "36568abe",
        "revertPayload(uint256,uint256,bytes)": "42db1f91",
        "revokeRole(bytes32,address)": "d547741f",
        "routerContract()": "4f72d846",
        "setCoreContracts(address,address,address)": "efa891c4",
        "superFormFactory()": "25ea41da",
        "supportsInterface(bytes4)": "01ffc9a7",
        "tokenBankContract()": "61738791",
        "updateMultiVaultPayload(uint256,uint256[])": "196df013",
        "updateSingleVaultPayload(uint256,uint256)": "50073463"
    },
    "gasEstimates": {
        "creation": {
            "codeDepositCost": "2036200",
            "executionCost": "infinite",
            "totalCost": "infinite"
        },
        "external": {
            "CORE_CONTRACTS_ROLE()": "239",
            "DEFAULT_ADMIN_ROLE()": "262",
            "IMPLEMENTATION_CONTRACTS_ROLE()": "262",
            "PROCESSOR_ROLE()": "284",
            "UPDATER_ROLE()": "262",
            "amb(uint8)": "2592",
            "chainId()": "infinite",
            "configureAmb(uint8,address)": "infinite",
            "dispatchPayload(uint8,uint16,bytes,bytes)": "infinite",
            "getRoleAdmin(bytes32)": "2537",
            "grantRole(bytes32,address)": "infinite",
            "hasRole(bytes32,address)": "2762",
            "payload(uint256)": "infinite",
            "payloadTracking(uint256)": "2580",
            "payloadsCount()": "2341",
            "processPayload(uint256)": "infinite",
            "receivePayload(uint16,bytes)": "infinite",
            "renounceRole(bytes32,address)": "29085",
            "revertPayload(uint256,uint256,bytes)": "infinite",
            "revokeRole(bytes32,address)": "infinite",
            "routerContract()": "2426",
            "setCoreContracts(address,address,address)": "infinite",
            "superFormFactory()": "2449",
            "supportsInterface(bytes4)": "450",
            "tokenBankContract()": "2405",
            "updateMultiVaultPayload(uint256,uint256[])": "infinite",
            "updateSingleVaultPayload(uint256,uint256)": "infinite"
        },
        "internal": {
            "_processMultiDeposit(uint256,uint256,struct AMBMessage memory)": "infinite",
            "_processMultiWithdrawal(uint256,uint256,struct AMBMessage memory)": "infinite",
            "_processSingleDeposit(uint256,uint256,struct AMBMessage memory)": "infinite",
            "_processSingleWithdrawal(uint256,uint256,struct AMBMessage memory)": "infinite"
        }
    }
}