{"abi":[{"type":"constructor","inputs":[{"name":"superRegistry_","type":"address","internalType":"contract ISuperRegistry"}],"stateMutability":"nonpayable"},{"type":"function","name":"CHAIN_ID","inputs":[],"outputs":[{"name":"","type":"uint64","internalType":"uint64"}],"stateMutability":"view"},{"type":"function","name":"dispatchPayload","inputs":[{"name":"srcSender_","type":"address","internalType":"address"},{"name":"ambIds_","type":"uint8[]","internalType":"uint8[]"},{"name":"dstChainId_","type":"uint64","internalType":"uint64"},{"name":"message_","type":"bytes","internalType":"bytes"},{"name":"extraData_","type":"bytes","internalType":"bytes"}],"outputs":[],"stateMutability":"payable"},{"type":"function","name":"disputeRescueFailedDeposits","inputs":[{"name":"payloadId_","type":"uint256","internalType":"uint256"}],"outputs":[],"stateMutability":"nonpayable"},{"type":"function","name":"finalizeRescueFailedDeposits","inputs":[{"name":"payloadId_","type":"uint256","internalType":"uint256"}],"outputs":[],"stateMutability":"nonpayable"},{"type":"function","name":"getFailedDeposits","inputs":[{"name":"payloadId_","type":"uint256","internalType":"uint256"}],"outputs":[{"name":"superformIds","type":"uint256[]","internalType":"uint256[]"},{"name":"amounts","type":"uint256[]","internalType":"uint256[]"},{"name":"lastProposedTime","type":"uint256","internalType":"uint256"}],"stateMutability":"view"},{"type":"function","name":"getMessageAMB","inputs":[{"name":"payloadId_","type":"uint256","internalType":"uint256"}],"outputs":[{"name":"","type":"uint8[]","internalType":"uint8[]"}],"stateMutability":"view"},{"type":"function","name":"messageQuorum","inputs":[{"name":"","type":"bytes32","internalType":"bytes32"}],"outputs":[{"name":"","type":"uint256","internalType":"uint256"}],"stateMutability":"view"},{"type":"function","name":"payloadBody","inputs":[{"name":"","type":"uint256","internalType":"uint256"}],"outputs":[{"name":"","type":"bytes","internalType":"bytes"}],"stateMutability":"view"},{"type":"function","name":"payloadHeader","inputs":[{"name":"","type":"uint256","internalType":"uint256"}],"outputs":[{"name":"","type":"uint256","internalType":"uint256"}],"stateMutability":"view"},{"type":"function","name":"payloadTracking","inputs":[{"name":"","type":"uint256","internalType":"uint256"}],"outputs":[{"name":"","type":"uint8","internalType":"enum PayloadState"}],"stateMutability":"view"},{"type":"function","name":"payloadsCount","inputs":[],"outputs":[{"name":"","type":"uint256","internalType":"uint256"}],"stateMutability":"view"},{"type":"function","name":"processPayload","inputs":[{"name":"payloadId_","type":"uint256","internalType":"uint256"}],"outputs":[],"stateMutability":"payable"},{"type":"function","name":"proposeRescueFailedDeposits","inputs":[{"name":"payloadId_","type":"uint256","internalType":"uint256"},{"name":"proposedAmounts_","type":"uint256[]","internalType":"uint256[]"}],"outputs":[],"stateMutability":"nonpayable"},{"type":"function","name":"receivePayload","inputs":[{"name":"srcChainId_","type":"uint64","internalType":"uint64"},{"name":"message_","type":"bytes","internalType":"bytes"}],"outputs":[],"stateMutability":"nonpayable"},{"type":"function","name":"superRegistry","inputs":[],"outputs":[{"name":"","type":"address","internalType":"contract ISuperRegistry"}],"stateMutability":"view"},{"type":"function","name":"updateDepositPayload","inputs":[{"name":"payloadId_","type":"uint256","internalType":"uint256"},{"name":"finalTokens_","type":"address[]","internalType":"address[]"},{"name":"finalAmounts_","type":"uint256[]","internalType":"uint256[]"}],"outputs":[],"stateMutability":"nonpayable"},{"type":"function","name":"updateWithdrawPayload","inputs":[{"name":"payloadId_","type":"uint256","internalType":"uint256"},{"name":"txData_","type":"bytes[]","internalType":"bytes[]"}],"outputs":[],"stateMutability":"nonpayable"},{"type":"function","name":"validateSlippage","inputs":[{"name":"finalAmount_","type":"uint256","internalType":"uint256"},{"name":"amount_","type":"uint256","internalType":"uint256"},{"name":"maxSlippage_","type":"uint256","internalType":"uint256"}],"outputs":[{"name":"","type":"bool","internalType":"bool"}],"stateMutability":"view"},{"type":"event","name":"FailedXChainDeposits","inputs":[{"name":"payloadId","type":"uint256","indexed":true,"internalType":"uint256"}],"anonymous":false},{"type":"event","name":"PayloadProcessed","inputs":[{"name":"payloadId","type":"uint256","indexed":true,"internalType":"uint256"}],"anonymous":false},{"type":"event","name":"PayloadReceived","inputs":[{"name":"srcChainId","type":"uint64","indexed":true,"internalType":"uint64"},{"name":"dstChainId","type":"uint64","indexed":true,"internalType":"uint64"},{"name":"payloadId","type":"uint256","indexed":true,"internalType":"uint256"}],"anonymous":false},{"type":"event","name":"PayloadUpdated","inputs":[{"name":"payloadId","type":"uint256","indexed":true,"internalType":"uint256"}],"anonymous":false},{"type":"event","name":"ProofReceived","inputs":[{"name":"proof","type":"bytes32","indexed":true,"internalType":"bytes32"}],"anonymous":false},{"type":"event","name":"RescueDisputed","inputs":[{"name":"payloadId","type":"uint256","indexed":true,"internalType":"uint256"}],"anonymous":false},{"type":"event","name":"RescueFinalized","inputs":[{"name":"payloadId","type":"uint256","indexed":true,"internalType":"uint256"}],"anonymous":false},{"type":"event","name":"RescueProposed","inputs":[{"name":"payloadId","type":"uint256","indexed":true,"internalType":"uint256"},{"name":"superformIds","type":"uint256[]","indexed":false,"internalType":"uint256[]"},{"name":"proposedAmount","type":"uint256[]","indexed":false,"internalType":"uint256[]"},{"name":"proposedTime","type":"uint256","indexed":false,"internalType":"uint256"}],"anonymous":false},{"type":"event","name":"SuperRegistryUpdated","inputs":[{"name":"superRegistry","type":"address","indexed":true,"internalType":"address"}],"anonymous":false},{"type":"error","name":"AddressEmptyCode","inputs":[{"name":"target","type":"address","internalType":"address"}]},{"type":"error","name":"AddressInsufficientBalance","inputs":[{"name":"account","type":"address","internalType":"address"}]},{"type":"error","name":"BLOCK_CHAIN_ID_OUT_OF_BOUNDS","inputs":[]},{"type":"error","name":"BRIDGE_TOKENS_PENDING","inputs":[]},{"type":"error","name":"CANNOT_UPDATE_WITHDRAW_TX_DATA","inputs":[]},{"type":"error","name":"DELAY_NOT_SET","inputs":[]},{"type":"error","name":"DIFFERENT_PAYLOAD_UPDATE_AMOUNTS_LENGTH","inputs":[]},{"type":"error","name":"DIFFERENT_PAYLOAD_UPDATE_TX_DATA_LENGTH","inputs":[]},{"type":"error","name":"DISPUTE_TIME_ELAPSED","inputs":[]},{"type":"error","name":"FailedInnerCall","inputs":[]},{"type":"error","name":"INSUFFICIENT_QUORUM","inputs":[]},{"type":"error","name":"INVALID_CHAIN_ID","inputs":[]},{"type":"error","name":"INVALID_DST_SWAP_AMOUNT","inputs":[]},{"type":"error","name":"INVALID_INTERNAL_CALL","inputs":[]},{"type":"error","name":"INVALID_PAYLOAD_ID","inputs":[]},{"type":"error","name":"INVALID_PAYLOAD_TYPE","inputs":[]},{"type":"error","name":"INVALID_PAYLOAD_UPDATE_REQUEST","inputs":[]},{"type":"error","name":"INVALID_PROOF_BRIDGE_ID","inputs":[]},{"type":"error","name":"INVALID_PROOF_BRIDGE_IDS","inputs":[]},{"type":"error","name":"INVALID_RESCUE_DATA","inputs":[]},{"type":"error","name":"INVALID_UPDATE_FINAL_TOKEN","inputs":[]},{"type":"error","name":"NEGATIVE_SLIPPAGE","inputs":[]},{"type":"error","name":"NOT_AMB_IMPLEMENTATION","inputs":[]},{"type":"error","name":"NOT_PRIVILEGED_CALLER","inputs":[{"name":"role","type":"bytes32","internalType":"bytes32"}]},{"type":"error","name":"NOT_SUPERFORM_ROUTER","inputs":[]},{"type":"error","name":"NOT_VALID_DISPUTER","inputs":[]},{"type":"error","name":"PAYLOAD_ALREADY_PROCESSED","inputs":[]},{"type":"error","name":"PAYLOAD_ALREADY_UPDATED","inputs":[]},{"type":"error","name":"PAYLOAD_NOT_UPDATED","inputs":[]},{"type":"error","name":"RESCUE_ALREADY_PROPOSED","inputs":[]},{"type":"error","name":"RESCUE_LOCKED","inputs":[]},{"type":"error","name":"SLIPPAGE_OUT_OF_BOUNDS","inputs":[]},{"type":"error","name":"SUPERFORM_ID_NONEXISTENT","inputs":[]},{"type":"error","name":"SafeERC20FailedDecreaseAllowance","inputs":[{"name":"spender","type":"address","internalType":"address"},{"name":"currentAllowance","type":"uint256","internalType":"uint256"},{"name":"requestedDecrease","type":"uint256","internalType":"uint256"}]},{"type":"error","name":"SafeERC20FailedOperation","inputs":[{"name":"token","type":"address","internalType":"address"}]},{"type":"error","name":"ZERO_AMB_ID_LENGTH","inputs":[]},{"type":"error","name":"ZERO_AMOUNT","inputs":[]},{"type":"error","name":"ZERO_FINAL_TOKEN","inputs":[]}],"bytecode":{"object":"0x60c06040523480156200001157600080fd5b5060405162008b1438038062008b14833981810160405281019062000037919062000153565b8067ffffffffffffffff80164611156200007d576040517f7ecdf93300000000000000000000000000000000000000000000000000000000815260040160405180910390fd5b4667ffffffffffffffff1660a08167ffffffffffffffff16815250508073ffffffffffffffffffffffffffffffffffffffff1660808173ffffffffffffffffffffffffffffffffffffffff1681525050505062000185565b600080fd5b600073ffffffffffffffffffffffffffffffffffffffff82169050919050565b60006200010782620000da565b9050919050565b60006200011b82620000fa565b9050919050565b6200012d816200010e565b81146200013957600080fd5b50565b6000815190506200014d8162000122565b92915050565b6000602082840312156200016c576200016b620000d5565b5b60006200017c848285016200013c565b91505092915050565b60805160a05161891c620001f86000396000818161124c0152818161149e0152818161248201528181614edd0152614fb20152600081816106990152818161129001528181611ad401528181611ba801528181613dcd015281816143a801528181615318015261544b015261891c6000f3fe6080604052600436106101095760003560e01c80635aef948011610095578063cc2d8abd11610064578063cc2d8abd1461035f578063d468711a14610388578063d4961606146103c7578063d830364e14610404578063e17d89e81461044157610109565b80635aef94801461029e578063803c15df146102ba57806385e1f4d0146102f7578063b63d36a51461032257610109565b80632d46647d116100dc5780632d46647d146101a9578063361ad42b146101d257806336445ffd1461020f578063439890e21461024c578063474fd8741461027557610109565b806313bff0121461010e57806313c02a591461013757806323de31e11461016257806324c73dda1461017e575b600080fd5b34801561011a57600080fd5b5061013560048036038101906101309190615e1d565b61046a565b005b34801561014357600080fd5b5061014c6105f0565b6040516101599190615e59565b60405180910390f35b61017c60048036038101906101779190616159565b6105f6565b005b34801561018a57600080fd5b50610193610697565b6040516101a09190616287565b60405180910390f35b3480156101b557600080fd5b506101d060048036038101906101cb9190615e1d565b6106bb565b005b3480156101de57600080fd5b506101f960048036038101906101f49190615e1d565b610a2a565b6040516102069190616321565b60405180910390f35b34801561021b57600080fd5b5061023660048036038101906102319190615e1d565b610aca565b6040516102439190615e59565b60405180910390f35b34801561025857600080fd5b50610273600480360381019061026e919061639e565b610ae2565b005b34801561028157600080fd5b5061029c600480360381019061029791906164aa565b610bc5565b005b6102b860048036038101906102b39190615e1d565b610d6f565b005b3480156102c657600080fd5b506102e160048036038101906102dc919061653f565b6111cf565b6040516102ee91906165ad565b60405180910390f35b34801561030357600080fd5b5061030c61124a565b60405161031991906165d7565b60405180910390f35b34801561032e57600080fd5b5061034960048036038101906103449190615e1d565b61126e565b6040516103569190616669565b60405180910390f35b34801561036b57600080fd5b5061038660048036038101906103819190616684565b61128e565b005b34801561039457600080fd5b506103af60048036038101906103aa9190615e1d565b611504565b6040516103be9392919061679e565b60405180910390f35b3480156103d357600080fd5b506103ee60048036038101906103e99190616819565b6115d8565b6040516103fb9190615e59565b60405180910390f35b34801561041057600080fd5b5061042b60048036038101906104269190615e1d565b6115f0565b6040516104389190616904565b60405180910390f35b34801561044d57600080fd5b5061046860048036038101906104639190616926565b611681565b005b610473816119e2565b60006006600083815260200190815260200160002090508060040160009054906101000a900473ffffffffffffffffffffffffffffffffffffffff1673ffffffffffffffffffffffffffffffffffffffff163373ffffffffffffffffffffffffffffffffffffffff16148061050e575061050d7f3c98683c4fc1f07b3a173ce23e8e5b9ee147da7d8df6f5e0da4c07c15e354a0733611a21565b5b610544576040517fd8f8c1c000000000000000000000000000000000000000000000000000000000815260040160405180910390fd5b60008160050154148061056c575061055a611acf565b816005015461056991906169b5565b42115b156105a3576040517f60387b3300000000000000000000000000000000000000000000000000000000815260040160405180910390fd5b60006006600084815260200190815260200160002060050181905550817f7e98ef42b90939b396b85416fa66b14f7a5c284f7a7e794d995b3fad3c6e85cb60405160405180910390a25050565b60005481565b61061f7f3a2f5529773e03d975be44bdae98a8509bdf1159e407504e558536cde56cf6ac611ba4565b73ffffffffffffffffffffffffffffffffffffffff163373ffffffffffffffffffffffffffffffffffffffff1614610683576040517f158a2f6b00000000000000000000000000000000000000000000000000000000815260040160405180910390fd5b6106908585858585611c47565b5050505050565b7f000000000000000000000000000000000000000000000000000000000000000081565b6106c4816119e2565b600060066000838152602001908152602001600020905060008160050154148061070457506106f1611acf565b816005015461070091906169b5565b4211155b1561073b576040517f3527c42500000000000000000000000000000000000000000000000000000000815260040160405180910390fd5b6000816005018190555060008160020180549050905060005b8181101561097257826003018181548110610772576107716169e9565b5b90600052602060002090602091828204019190069054906101000a900460ff16156108b7576107c07f494dfdc880823954ed6700117eb435b9bca3643417437b5781c1a89fba6e8b97611ba4565b73ffffffffffffffffffffffffffffffffffffffff166310d7d3598460040160009054906101000a900473ffffffffffffffffffffffffffffffffffffffff16856001018481548110610816576108156169e9565b5b9060005260206000200160009054906101000a900473ffffffffffffffffffffffffffffffffffffffff16866002018581548110610857576108566169e9565b5b90600052602060002001546040518463ffffffff1660e01b815260040161088093929190616a27565b600060405180830381600087803b15801561089a57600080fd5b505af11580156108ae573d6000803e3d6000fd5b50505050610967565b6109668360040160009054906101000a900473ffffffffffffffffffffffffffffffffffffffff168460020183815481106108f5576108f46169e9565b5b9060005260206000200154856001018481548110610916576109156169e9565b5b9060005260206000200160009054906101000a900473ffffffffffffffffffffffffffffffffffffffff1673ffffffffffffffffffffffffffffffffffffffff1661208f9092919063ffffffff16565b5b806001019050610754565b5060066000848152602001908152602001600020600080820160006109979190615b0d565b6001820160006109a79190615b2e565b6002820160006109b79190615b0d565b6003820160006109c79190615b4f565b6004820160006101000a81549073ffffffffffffffffffffffffffffffffffffffff021916905560058201600090555050827f4dcd0d064503785f7194bc0d094f808cd1df65b1440424e51cd211c9672f77cc60405160405180910390a2505050565b60016020528060005260406000206000915090508054610a4990616a8d565b80601f0160208091040260200160405190810160405280929190818152602001828054610a7590616a8d565b8015610ac25780601f10610a9757610100808354040283529160200191610ac2565b820191906000526020600020905b815481529060010190602001808311610aa557829003601f168201915b505050505081565b60026020528060005260406000206000915090505481565b610b0b7f67ae681a1ce853cc4fa2ec7bd45049225042d6a828b9865aca9ef1218a52bcfc61210e565b610b14836119e2565b6000806000806000610b258861215c565b9850505096505050945094509450610b7185600180811115610b4a57610b496165f2565b5b600460008c815260200190815260200160002060009054906101000a900460ff16856122c1565b610b7e84828989866123de565b9350610b8e88848688600161253a565b877f144d814d5dc6f17c1a88bc42c55d67392a51c818908ed7cca6118bc51a34b15360405160405180910390a25050505050505050565b610bee7f67ae681a1ce853cc4fa2ec7bd45049225042d6a828b9865aca9ef1218a52bcfc61210e565b610bf7856119e2565b600080600080610c068961215c565b50505095505050935093509350610c528460006001811115610c2b57610c2a6165f2565b5b600460008d815260200190815260200160002060009054906101000a900460ff16846122c1565b6000808260ff1614610c7957610c6c8a8589898d8d612636565b8092508195505050610cd0565b610cc78a8589896000818110610c9257610c916169e9565b5b905060200201358c8c6000818110610cad57610cac6169e9565b5b9050602002016020810190610cc29190616abe565b612c39565b80925081955050505b610cdd8a8486888561253a565b600280811115610cf057610cef6165f2565b5b816002811115610d0357610d026165f2565b5b03610d6357897fbce0bd6fef1367dca0b65255a7d010501f79e4dd96d4add4c3e42a419ae6457c60405160405180910390a2897f21c4f33a94342256a428d6cb08476047bdb16e6866308b7d904df8990eb781c860405160405180910390a25b50505050505050505050565b610d987ff7c2c1de3464c8fee0ad8a71a80d665aeafd6a725243593923472fe5e76e45b161210e565b610da1816119e2565b600280811115610db457610db36165f2565b5b6004600083815260200190815260200160002060009054906101000a900460ff166002811115610de757610de66165f2565b5b03610e1e576040517f5b114e0500000000000000000000000000000000000000000000000000000000815260040160405180910390fd5b60006004600083815260200190815260200160002060009054906101000a900460ff16905060026004600084815260200190815260200160002060006101000a81548160ff02191690836002811115610e7a57610e796165f2565b5b02179055506000806000806000806000610e938961215c565b985098505097509750975050965096506000604051806040016040528089815260200188815250905060016002811115610ed057610ecf6165f2565b5b8560ff161480610ef45750600280811115610eee57610eed6165f2565b5b8560ff16145b15611036576000610f247fba0b74768b1de73590a53e1384870dcbc846e5c73bab23c07d71eaa7cbf8411b611ba4565b905060018560ff1614610fb2578073ffffffffffffffffffffffffffffffffffffffff166333e30721836040518263ffffffff1660e01b8152600401610f6a9190616b72565b6020604051808303816000875af1158015610f89573d6000803e3d6000fd5b505050506040513d601f19601f82011682018060405250810190610fad9190616ba9565b61102f565b8073ffffffffffffffffffffffffffffffffffffffff166349e5b649836040518263ffffffff1660e01b8152600401610feb9190616b72565b6020604051808303816000875af115801561100a573d6000803e3d6000fd5b505050506040513d601f19601f8201168201806040525081019061102e9190616ba9565b5b5050611196565b6000600281111561104a576110496165f2565b5b60ff168560ff160361116357606060018081111561106b5761106a6165f2565b5b60ff168760ff16036110a75760018560ff16146110935761108e8b898686612d14565b6110a0565b61109f8b898686612e67565b5b9050611152565b600060018111156110bb576110ba6165f2565b5b60ff168760ff160361115157600160028111156110db576110da6165f2565b5b8a60028111156110ee576110ed6165f2565b5b14611125576040517f86f8e37500000000000000000000000000000000000000000000000000000000815260040160405180910390fd5b60018560ff16146111415761113c8b8986866131de565b61114e565b61114d8b898686613551565b5b90505b5b61115d8b8483613bb2565b50611195565b6040517f641c695500000000000000000000000000000000000000000000000000000000815260040160405180910390fd5b5b897fbce0bd6fef1367dca0b65255a7d010501f79e4dd96d4add4c3e42a419ae6457c60405160405180910390a250505050505050505050565b60003073ffffffffffffffffffffffffffffffffffffffff163373ffffffffffffffffffffffffffffffffffffffff1614611236576040517f6566f0ae00000000000000000000000000000000000000000000000000000000815260040160405180910390fd5b611241848484613d0c565b90509392505050565b7f000000000000000000000000000000000000000000000000000000000000000081565b60046020528060005260406000206000915054906101000a900460ff1681565b7f000000000000000000000000000000000000000000000000000000000000000073ffffffffffffffffffffffffffffffffffffffff16635c504b60336040518263ffffffff1660e01b81526004016112e79190616bd6565b602060405180830381865afa158015611304573d6000803e3d6000fd5b505050506040513d601f19601f820116820180604052508101906113289190616c1d565b61135d576040517ee1b7be00000000000000000000000000000000000000000000000000000000815260040160405180910390fd5b6000818060200190518101906113739190616d45565b90506020816020015151036113f8576000816020015180602001905181019061139c9190616da3565b905060036000828152602001908152602001600020600081546113be90616dd0565b91905081905550807ffeea67837572d96738a25f3ac5fa382a1c601ead52e97fb27a02c6103360c06360405160405180910390a2506114ff565b600080815461140690616dd0565b91905081905550806000015160026000805481526020019081526020016000208190555080602001518060200190518101906114429190616ec4565b600560008054815260200190815260200160002060006001600080548152602001908152602001600020600084919050908161147e91906170de565b50839190509080519060200190611496929190615b77565b5050506000547f000000000000000000000000000000000000000000000000000000000000000067ffffffffffffffff168467ffffffffffffffff167f3371afb211a5a616ecaaab76f9466c9295fae2aa4e6dc1ed821b6eb25ee442cf60405160405180910390a45b505050565b6060806000806006600086815260200190815260200160002090508060000180548060200260200160405190810160405280929190818152602001828054801561156d57602002820191906000526020600020905b815481526020019060010190808311611559575b50505050509350806002018054806020026020016040519081016040528092919081815260200182805480156115c257602002820191906000526020600020905b8154815260200190600101908083116115ae575b5050505050925080600501549150509193909250565b60036020528060005260406000206000915090505481565b60606005600083815260200190815260200160002080548060200260200160405190810160405280929190818152602001828054801561167557602002820191906000526020600020906000905b82829054906101000a900460ff1660ff168152602001906001019060208260000104928301926001038202915080841161163e5790505b50505050509050919050565b6116aa7ff98729ec1ce0343ca1d11c51d1d2d3aa1a7b3f4f6876d0611e0a6fa86520a0cb61210e565b6116b3836119e2565b60006006600085815260200190815260200160002090506000816000018054905014806116ea575082829050816000018054905014155b15611721576040517f44e945a900000000000000000000000000000000000000000000000000000000815260040160405180910390fd5b600081600501541461175f576040517f01547fae00000000000000000000000000000000000000000000000000000000815260040160405180910390fd5b8282600660008781526020019081526020016000206002019190611784929190615c1e565b5042600660008681526020019081526020016000206005018190555060006117be6002600087815260200190815260200160002054613d91565b50505092505050600060018260ff160361188d576001600087815260200190815260200160002080546117f090616a8d565b80601f016020809104026020016040519081016040528092919081815260200182805461181c90616a8d565b80156118695780601f1061183e57610100808354040283529160200191611869565b820191906000526020600020905b81548152906001019060200180831161184c57829003601f168201915b505050505080602001905181019061188191906176be565b61010001519050611944565b6001600087815260200190815260200160002080546118ab90616a8d565b80601f01602080910402602001604051908101604052809291908181526020018280546118d790616a8d565b80156119245780601f106118f957610100808354040283529160200191611924565b820191906000526020600020905b81548152906001019060200180831161190757829003601f168201915b505050505080602001905181019061193c9190617835565b610100015190505b806006600088815260200190815260200160002060040160006101000a81548173ffffffffffffffffffffffffffffffffffffffff021916908373ffffffffffffffffffffffffffffffffffffffff160217905550857f78f133e107c1f55f0cb4abf0d9d0afc7d4949197a40bb9c88b97d51aec80f5cf846000018787426040516119d294939291906179be565b60405180910390a2505050505050565b600054811115611a1e576040517fabb4594600000000000000000000000000000000000000000000000000000000815260040160405180910390fd5b50565b6000611a4c7f6b50fa17b77d24e42e27a04b69fe50cd6967cfb767d18de0bd5fe7e1a32aa868611ba4565b73ffffffffffffffffffffffffffffffffffffffff166391d1485484846040518363ffffffff1660e01b8152600401611a86929190617a14565b602060405180830381865afa158015611aa3573d6000803e3d6000fd5b505050506040513d601f19601f82011682018060405250810190611ac79190616c1d565b905092915050565b6000807f000000000000000000000000000000000000000000000000000000000000000073ffffffffffffffffffffffffffffffffffffffff16636a42b8f86040518163ffffffff1660e01b8152600401602060405180830381865afa158015611b3d573d6000803e3d6000fd5b505050506040513d601f19601f82011682018060405250810190611b619190617a3d565b905060008103611b9d576040517fd0b3066f00000000000000000000000000000000000000000000000000000000815260040160405180910390fd5b8091505090565b60007f000000000000000000000000000000000000000000000000000000000000000073ffffffffffffffffffffffffffffffffffffffff166321f8a721836040518263ffffffff1660e01b8152600401611bff9190617a6a565b602060405180830381865afa158015611c1c573d6000803e3d6000fd5b505050506040513d601f19601f82011682018060405250810190611c409190617a85565b9050919050565b600082806020019051810190611c5d9190616d45565b905060008551905060008103611c9f576040517f24cb170500000000000000000000000000000000000000000000000000000000815260040160405180910390fd5b611ca885613dc9565b600182611cb59190617ab2565b1015611ced576040517f5b6b08d700000000000000000000000000000000000000000000000000000000815260040160405180910390fd5b600083806020019051810190611d039190617c4f565b9050611d2987600081518110611d1c57611d1b6169e9565b5b6020026020010151613e6c565b73ffffffffffffffffffffffffffffffffffffffff16639783d0ef8260000151600081518110611d5c57611d5b6169e9565b5b60200260200101518a896040518060400160405280896000015181526020018d8a60200151604051602001611d92929190617c98565b604051602081830303815290604052815250604051602001611db49190616b72565b6040516020818303038152906040528660200151600081518110611ddb57611dda6169e9565b5b60200260200101516040518663ffffffff1660e01b8152600401611e029493929190617ccf565b6000604051808303818588803b158015611e1b57600080fd5b505af1158015611e2f573d6000803e3d6000fd5b5050505050600182111561208557611e4685613e7e565b83602001819052506000600190505b828160ff1610156120835787600081518110611e7457611e736169e9565b5b602002602001015160ff16888260ff1681518110611e9557611e946169e9565b5b602002602001015160ff1603611ed7576040517f305a522200000000000000000000000000000000000000000000000000000000815260040160405180910390fd5b6000600182611ee69190617d22565b60ff1614158015611f43575087600182611f009190617d22565b60ff1681518110611f1457611f136169e9565b5b602002602001015160ff16888260ff1681518110611f3557611f346169e9565b5b602002602001015160ff1611155b15611f7a576040517f22aa062d00000000000000000000000000000000000000000000000000000000815260040160405180910390fd5b611fa0888260ff1681518110611f9357611f926169e9565b5b6020026020010151613e6c565b73ffffffffffffffffffffffffffffffffffffffff16639783d0ef83600001518360ff1681518110611fd557611fd46169e9565b5b60200260200101518b8a88604051602001611ff09190616b72565b60405160208183030381529060405287602001518760ff1681518110612019576120186169e9565b5b60200260200101516040518663ffffffff1660e01b81526004016120409493929190617ccf565b6000604051808303818588803b15801561205957600080fd5b505af115801561206d573d6000803e3d6000fd5b50505050508061207c90617d57565b9050611e55565b505b5050505050505050565b612109838473ffffffffffffffffffffffffffffffffffffffff1663a9059cbb85856040516024016120c2929190617d80565b604051602081830303815290604052915060e01b6020820180517bffffffffffffffffffffffffffffffffffffffffffffffffffffffff8381831617835250505050613eae565b505050565b6121188133611a21565b61215957806040517fc2703cd60000000000000000000000000000000000000000000000000000000081526004016121509190617a6a565b60405180910390fd5b50565b600060606000806000806000806000600260008b8152602001908152602001600020549850600160008b8152602001908152602001600020805461219f90616a8d565b80601f01602080910402602001604051908101604052809291908181526020018280546121cb90616a8d565b80156122185780601f106121ed57610100808354040283529160200191612218565b820191906000526020600020905b8154815290600101906020018083116121fb57829003601f168201915b5050505050975061223c60405180604001604052808b81526020018a815250613f45565b965061224789613d91565b809650819750829850839950849a50859b5050505050505061226881613dc9565b600360008981526020019081526020016000205410156122b4576040517f5b6b08d700000000000000000000000000000000000000000000000000000000815260040160405180910390fd5b9193959799909294969850565b60008060006122cf87613d91565b505050925060ff16925060ff1692508560ff16831480156123025750600060028111156122ff576122fe6165f2565b5b82145b612338576040517f617c436600000000000000000000000000000000000000000000000000000000815260040160405180910390fd5b6000600281111561234c5761234b6165f2565b5b85600281111561235f5761235e6165f2565b5b14612396576040517fa76862a600000000000000000000000000000000000000000000000000000000815260040160405180910390fd5b8360ff168160ff16146123d5576040517f617c436600000000000000000000000000000000000000000000000000000000815260040160405180910390fd5b50505050505050565b60606123e8615c6b565b6123f0615cd4565b60018460ff1603612416578780602001905181019061240f91906176be565b9150612438565b8780602001905181019061242a9190617835565b905061243581613f75565b91505b858590508260a001515114612479576040517fe0fd4ab200000000000000000000000000000000000000000000000000000000815260040160405180910390fd5b6124a68686848a7f0000000000000000000000000000000000000000000000000000000000000000614254565b915060008460ff160361250c578160a001516000815181106124cb576124ca6169e9565b5b6020026020010151600001518160a0015160000181905250806040516020016124f49190617f40565b60405160208183030381529060405292505050612531565b8160405160200161251d919061824d565b604051602081830303815290604052925050505b95945050505050565b6000612559604051806040016040528085815260200186815250613f45565b90508481146125a5576003600086815260200190815260200160002054600360008381526020019081526020016000208190555060036000868152602001908152602001600020600090555b836001600088815260200190815260200160002090816125c591906170de565b50816004600088815260200190815260200160002060006101000a81548160ff021916908360028111156125fc576125fb6165f2565b5b0217905550857f144d814d5dc6f17c1a88bc42c55d67392a51c818908ed7cca6118bc51a34b15360405160405180910390a2505050505050565b60606000808780602001905181019061264f91906176be565b905060008787905090508082604001515114612697576040517feea66abe00000000000000000000000000000000000000000000000000000000815260040160405180910390fd5b6000805b8281101561281c5760008a8a838181106126b8576126b76169e9565b5b90506020020135036126f6576040517ff6fa545000000000000000000000000000000000000000000000000000000000815260040160405180910390fd5b6127e86127227f494dfdc880823954ed6700117eb435b9bca3643417437b5781c1a89fba6e8b97611ba4565b8560c001518381518110612739576127386169e9565b5b60200260200101518e848e8e87818110612756576127556169e9565b5b905060200201358d8d888181106127705761276f6169e9565b5b90506020020160208101906127859190616abe565b8a60200151888151811061279c5761279b6169e9565b5b60200260200101518b6040015189815181106127bb576127ba6169e9565b5b60200260200101518c608001518a815181106127da576127d96169e9565b5b60200260200101518b614870565b905085604001518381518110612801576128006169e9565b5b6020026020010181945082815250505080600101905061269b565b5060008114612c045760008167ffffffffffffffff81111561284157612840615ee8565b5b60405190808252806020026020018201604052801561286f5781602001602082028036833780820191505090505b50905060008267ffffffffffffffff81111561288e5761288d615ee8565b5b6040519080825280602002602001820160405280156128bc5781602001602082028036833780820191505090505b50905060008367ffffffffffffffff8111156128db576128da615ee8565b5b6040519080825280602002602001820160405280156129095781602001602082028036833780820191505090505b50905060008467ffffffffffffffff81111561292857612927615ee8565b5b6040519080825280602002602001820160405280156129565781602001602082028036833780820191505090505b50905060008567ffffffffffffffff81111561297557612974615ee8565b5b6040519080825280602002602001820160405280156129a35781602001602082028036833780820191505090505b50905060008667ffffffffffffffff8111156129c2576129c1615ee8565b5b6040519080825280602002602001820160405280156129f05781602001602082028036833780820191505090505b5090506000805b89811015612bbd5760008b604001518281518110612a1857612a176169e9565b5b602002602001015114612bb2578a602001518181518110612a3c57612a3b6169e9565b5b6020026020010151888381518110612a5757612a566169e9565b5b6020026020010181815250508a604001518181518110612a7a57612a796169e9565b5b6020026020010151878381518110612a9557612a946169e9565b5b6020026020010181815250508a606001518181518110612ab857612ab76169e9565b5b6020026020010151868381518110612ad357612ad26169e9565b5b6020026020010181815250508a608001518181518110612af657612af56169e9565b5b6020026020010151858381518110612b1157612b106169e9565b5b6020026020010181815250508a60c001518181518110612b3457612b336169e9565b5b6020026020010151848381518110612b4f57612b4e6169e9565b5b6020026020010190151590811515815250508a60e001518181518110612b7857612b776169e9565b5b6020026020010151838381518110612b9357612b926169e9565b5b60200260200101901515908115158152505081612baf90616dd0565b91505b8060010190506129f7565b50868a60200181905250858a60400181905250848a60600181905250838a60800181905250828a60c00181905250818a60e0018190525060019a5050505050505050612c09565b600293505b82604051602001612c1a919061824d565b6040516020818303038152906040529450505050965096945050505050565b606060008085806020019051810190612c529190617835565b905060008503612c8e576040517ff6fa545000000000000000000000000000000000000000000000000000000000815260040160405180910390fd5b612cda612cba7f494dfdc880823954ed6700117eb435b9bca3643417437b5781c1a89fba6e8b97611ba4565b8260c0015189600089898760200151886040015189608001516000614870565b508260400181945082815250505080604051602001612cf99190617f40565b60405160208183030381529060405292505094509492505050565b6060600084806020019051810190612d2c9190617835565b9050856000604051602001612d429291906182aa565b604051602081830303815290604052816101200181905250612d678160200151614dd7565b612d9d576040517fa412f06500000000000000000000000000000000000000000000000000000000815260040160405180910390fd5b612daa8160200151614e82565b73ffffffffffffffffffffffffffffffffffffffff1663ef164fef8286866040518463ffffffff1660e01b8152600401612de6939291906182d3565b6020604051808303816000875af1925050508015612e2257506040513d601f19601f82011682018060405250810190612e1f9190617a3d565b60015b612e4a57612e428482600001516001600285602001518660400151614e99565b915050612e5f565b50604051806020016040528060008152509150505b949350505050565b6060600084806020019051810190612e7f91906176be565b905060008082602001515190506000612eb77fbcc180fb907e9ae431665de4bc74305c00b7b27442aadd477980ecc4bb14c011611ba4565b905060005b82811015613191578173ffffffffffffffffffffffffffffffffffffffff1663b5c7569786602001518381518110612ef757612ef66169e9565b5b60200260200101516040518263ffffffff1660e01b8152600401612f1b9190615e59565b602060405180830381865afa158015612f38573d6000803e3d6000fd5b505050506040513d601f19601f82011682018060405250810190612f5c9190616c1d565b612f92576040517fa412f06500000000000000000000000000000000000000000000000000000000815260040160405180910390fd5b612fb985602001518281518110612fac57612fab6169e9565b5b6020026020010151614e82565b73ffffffffffffffffffffffffffffffffffffffff1663ef164fef6040518061014001604052808860000151815260200188602001518581518110613001576130006169e9565b5b6020026020010151815260200188604001518581518110613025576130246169e9565b5b6020026020010151815260200188606001518581518110613049576130486169e9565b5b602002602001015181526020018860800151858151811061306d5761306c6169e9565b5b602002602001015181526020018860a001518581518110613091576130906169e9565b5b6020026020010151815260200160001515815260200160001515815260200188610100015173ffffffffffffffffffffffffffffffffffffffff1681526020018d856040516020016130e4929190618311565b6040516020818303038152906040528152508a8a6040518463ffffffff1660e01b8152600401613116939291906182d3565b6020604051808303816000875af192505050801561315257506040513d601f19601f8201168201806040525081019061314f9190617a3d565b60015b61315f5760019350613186565b50600085604001518281518110613179576131786169e9565b5b6020026020010181815250505b806001019050612ebc565b5082156131bf576131b48785600001516001600288602001518960400151614f6e565b9450505050506131d6565b604051806020016040528060008152509450505050505b949350505050565b60606000848060200190518101906131f69190617835565b905060006132078260200151614e82565b9050600061321482615043565b9050600081905083604001518173ffffffffffffffffffffffffffffffffffffffff166370a08231306040518263ffffffff1660e01b81526004016132599190616bd6565b602060405180830381865afa158015613276573d6000803e3d6000fd5b505050506040513d601f19601f8201168201806040525081019061329a9190617a3d565b10613500576132ce8385604001518373ffffffffffffffffffffffffffffffffffffffff166150bb9092919063ffffffff16565b8273ffffffffffffffffffffffffffffffffffffffff166395e4f1da8589896040518463ffffffff1660e01b815260040161330b939291906182d3565b6020604051808303816000875af192505050801561334757506040513d601f19601f820116820180604052508101906133449190617a3d565b60015b6134bd5761337a8385604001518373ffffffffffffffffffffffffffffffffffffffff166151579092919063ffffffff16565b600660008a815260200190815260200160002060000184602001519080600181540180825580915050600190039060005260206000200160009091909190915055600660008a8152602001908152602001600020600101829080600181540180825580915050600190039060005260206000200160009091909190916101000a81548173ffffffffffffffffffffffffffffffffffffffff021916908373ffffffffffffffffffffffffffffffffffffffff160217905550600660008a8152602001908152602001600020600301600090806001815401808255809150506001900390600052602060002090602091828204019190069091909190916101000a81548160ff021916908315150217905550887f21c4f33a94342256a428d6cb08476047bdb16e6866308b7d904df8990eb781c860405160405180910390a26134fb565b600081141580156134d057508460e00151155b156134f9576134ed88866000015160006001896020015186614e99565b95505050505050613549565b505b613532565b6040517f3992269000000000000000000000000000000000000000000000000000000000815260040160405180910390fd5b604051806020016040528060008152509450505050505b949350505050565b606060008480602001905181019061356991906176be565b9050600061357a8260200151615233565b9050600080836020015151905060008060005b83811015613b2d576000876040015182815181106135ae576135ad6169e9565b5b602002602001015114613b22576135de8682815181106135d1576135d06169e9565b5b6020026020010151615043565b9450866040015181815181106135f7576135f66169e9565b5b60200260200101518573ffffffffffffffffffffffffffffffffffffffff166370a08231306040518263ffffffff1660e01b81526004016136389190616bd6565b602060405180830381865afa158015613655573d6000803e3d6000fd5b505050506040513d601f19601f820116820180604052508101906136799190617a3d565b10613aef576136e1868281518110613694576136936169e9565b5b6020026020010151886040015183815181106136b3576136b26169e9565b5b60200260200101518773ffffffffffffffffffffffffffffffffffffffff166150bb9092919063ffffffff16565b6136e9615d47565b8682815181106136fc576136fb6169e9565b5b602002602001015173ffffffffffffffffffffffffffffffffffffffff166395e4f1da6040518061014001604052808b6000015181526020018b60200151868151811061374c5761374b6169e9565b5b602002602001015181526020018b6040015186815181106137705761376f6169e9565b5b602002602001015181526020018b606001518681518110613794576137936169e9565b5b602002602001015181526020018b6080015186815181106137b8576137b76169e9565b5b602002602001015181526020018481526020016000151581526020018b60e0015186815181106137eb576137ea6169e9565b5b6020026020010151151581526020018b610100015173ffffffffffffffffffffffffffffffffffffffff1681526020018b61012001518152508d8d6040518463ffffffff1660e01b8152600401613844939291906182d3565b6020604051808303816000875af192505050801561388057506040513d601f19601f8201168201806040525081019061387d9190617a3d565b60015b613a62576138e787838151811061389a576138996169e9565b5b6020026020010151896040015184815181106138b9576138b86169e9565b5b60200260200101518873ffffffffffffffffffffffffffffffffffffffff166151579092919063ffffffff16565b60019250600660008e815260200190815260200160002060000188602001518381518110613918576139176169e9565b5b6020026020010151908060018154018082558091505060019003906000526020600020016000909190919091505560008860400151838151811061395f5761395e6169e9565b5b602002602001018181525050600660008e81526020019081526020016000206001016139a4888481518110613997576139966169e9565b5b6020026020010151615043565b9080600181540180825580915050600190039060005260206000200160009091909190916101000a81548173ffffffffffffffffffffffffffffffffffffffff021916908373ffffffffffffffffffffffffffffffffffffffff160217905550600660008e8152602001908152602001600020600301600090806001815401808255809150506001900390600052602060002090602091828204019190069091909190916101000a81548160ff021916908315150217905550613ae9565b60008114158015613a8f57508860e001518381518110613a8557613a846169e9565b5b6020026020010151155b15613ac157600194508089604001518481518110613ab057613aaf6169e9565b5b602002602001018181525050613ae7565b600089604001518481518110613ada57613ad96169e9565b5b6020026020010181815250505b505b50613b21565b6040517f3992269000000000000000000000000000000000000000000000000000000000815260040160405180910390fd5b5b80600101905061358d565b508015613b62578a7f21c4f33a94342256a428d6cb08476047bdb16e6866308b7d904df8990eb781c860405160405180910390a25b8115613b9157613b84898760000151600060018a602001518b60400151614f6e565b9650505050505050613baa565b6040518060200160405280600081525096505050505050505b949350505050565b6000815114613d0757600060056000858152602001908152602001600020805480602002602001604051908101604052809291908181526020018280548015613c4057602002820191906000526020600020906000905b82829054906101000a900460ff1660ff1681526020019060010190602082600001049283019260010382029150808411613c095790505b505050505090506000613c727fab437a16135e856111e538dc45051dd9c2778c6069d25a22fb9ac4766c356aa1611ba4565b73ffffffffffffffffffffffffffffffffffffffff16633283166a8584866040518463ffffffff1660e01b8152600401613cae9392919061833a565b600060405180830381865afa158015613ccb573d6000803e3d6000fd5b505050506040513d6000823e3d601f19601f82011682018060405250810190613cf4919061837f565b915050613d043383868685611c47565b50505b505050565b600082841115613d48576040517fc8a403d100000000000000000000000000000000000000000000000000000000815260040160405180910390fd5b600061271083612710613d5b9190617ab2565b85613d6691906183db565b613d70919061844c565b905080851015613d84576000915050613d8a565b60019150505b9392505050565b600080600080600080869550600887901c9450601087901c9350601887901c9250602087901c915060c087901c905091939550919395565b60007f000000000000000000000000000000000000000000000000000000000000000073ffffffffffffffffffffffffffffffffffffffff16631049a0db836040518263ffffffff1660e01b8152600401613e2491906165d7565b602060405180830381865afa158015613e41573d6000803e3d6000fd5b505050506040513d601f19601f82011682018060405250810190613e659190617a3d565b9050919050565b6000613e7782615314565b9050919050565b60608180519060200120604051602001613e989190617a6a565b6040516020818303038152906040529050919050565b6000613ed9828473ffffffffffffffffffffffffffffffffffffffff166153b790919063ffffffff16565b90506000815114158015613efe575080806020019051810190613efc9190616c1d565b155b15613f4057826040517f5274afe7000000000000000000000000000000000000000000000000000000008152600401613f379190616bd6565b60405180910390fd5b505050565b600081604051602001613f589190616b72565b604051602081830303815290604052805190602001209050919050565b613f7d615c6b565b6000600167ffffffffffffffff811115613f9a57613f99615ee8565b5b604051908082528060200260200182016040528015613fc85781602001602082028036833780820191505090505b509050826020015181600081518110613fe457613fe36169e9565b5b6020026020010181815250506000600167ffffffffffffffff81111561400d5761400c615ee8565b5b60405190808252806020026020018201604052801561403b5781602001602082028036833780820191505090505b509050836040015181600081518110614057576140566169e9565b5b6020026020010181815250506000600167ffffffffffffffff8111156140805761407f615ee8565b5b6040519080825280602002602001820160405280156140ae5781602001602082028036833780820191505090505b5090508460600151816000815181106140ca576140c96169e9565b5b6020026020010181815250506000600167ffffffffffffffff8111156140f3576140f2615ee8565b5b6040519080825280602002602001820160405280156141215781602001602082028036833780820191505090505b50905085608001518160008151811061413d5761413c6169e9565b5b6020026020010181815250506000600167ffffffffffffffff81111561416657614165615ee8565b5b60405190808252806020026020018201604052801561419f57816020015b61418c615d47565b8152602001906001900390816141845790505b5090508660a00151816000815181106141bb576141ba6169e9565b5b6020026020010181905250604051806101400160405280886000015181526020018681526020018581526020018481526020018381526020018281526020016142078960c001516153cd565b81526020016142198960e001516153cd565b815260200188610100015173ffffffffffffffffffffffffffffffffffffffff16815260200188610120015181525095505050505050919050565b61425c615c6b565b60008460a001515190506000805b82811015614861576000898983818110614287576142866169e9565b5b9050602002810190614299919061848c565b9050141580156142cc575060008760a0015182815181106142bd576142bc6169e9565b5b60200260200101516000015151145b15614856576142f8876020015182815181106142eb576142ea6169e9565b5b6020026020010151614e82565b915061430330615447565b60ff168273ffffffffffffffffffffffffffffffffffffffff166391deb8826040518163ffffffff1660e01b8152600401602060405180830381865afa158015614351573d6000803e3d6000fd5b505050506040513d601f19601f8201168201806040525081019061437591906184ef565b60ff1603614855576143a48760a001518281518110614397576143966169e9565b5b60200260200101516154ea565b60007f000000000000000000000000000000000000000000000000000000000000000073ffffffffffffffffffffffffffffffffffffffff1663e85b2b548960a0015184815181106143f9576143f86169e9565b5b6020026020010151606001516040518263ffffffff1660e01b8152600401614421919061852b565b602060405180830381865afa15801561443e573d6000803e3d6000fd5b505050506040513d601f19601f820116820180604052508101906144629190617a85565b90508073ffffffffffffffffffffffffffffffffffffffff1663c87439eb6040518061012001604052808d8d8781811061449f5761449e6169e9565b5b90506020028101906144b1919061848c565b8080601f016020809104026020016040519081016040528093929190818152602001838380828437600081840152601f19601f8201169050808301925050505050505081526020018967ffffffffffffffff1681526020018a67ffffffffffffffff1681526020018b60a0015186815181106145305761452f6169e9565b5b60200260200101516080015167ffffffffffffffff1681526020016000151581526020018673ffffffffffffffffffffffffffffffffffffffff1681526020018b610100015173ffffffffffffffffffffffffffffffffffffffff16815260200161459a87615043565b73ffffffffffffffffffffffffffffffffffffffff168152602001600073ffffffffffffffffffffffffffffffffffffffff168152506040518263ffffffff1660e01b81526004016145ec919061860b565b602060405180830381865afa158015614609573d6000803e3d6000fd5b505050506040513d601f19601f8201168201806040525081019061462d9190616c1d565b5061478f8173ffffffffffffffffffffffffffffffffffffffff16639bbbb5c88c8c868181106146605761465f6169e9565b5b9050602002810190614672919061848c565b60006040518463ffffffff1660e01b81526004016146929392919061865a565b602060405180830381865afa1580156146af573d6000803e3d6000fd5b505050506040513d601f19601f820116820180604052508101906146d39190617a3d565b8473ffffffffffffffffffffffffffffffffffffffff1663b7ba28cd8b604001518681518110614706576147056169e9565b5b60200260200101516040518263ffffffff1660e01b815260040161472a9190615e59565b602060405180830381865afa158015614747573d6000803e3d6000fd5b505050506040513d601f19601f8201168201806040525081019061476b9190617a3d565b8a608001518581518110614782576147816169e9565b5b6020026020010151613d0c565b6147c5576040517fb1a0ac5200000000000000000000000000000000000000000000000000000000815260040160405180910390fd5b8989838181106147d8576147d76169e9565b5b90506020028101906147ea919061848c565b8080601f016020809104026020016040519081016040528093929190818152602001838380828437600081840152601f19601f820116905080830192505050505050508860a001518381518110614844576148436169e9565b5b602002602001015160000181905250505b5b80600101905061426a565b50859250505095945050505050565b60008060008073ffffffffffffffffffffffffffffffffffffffff168873ffffffffffffffffffffffffffffffffffffffff16036148da576040517f636b4ef200000000000000000000000000000000000000000000000000000000815260040160405180910390fd5b60008c15614ba157898e73ffffffffffffffffffffffffffffffffffffffff1663c830c85a8e8e6040518363ffffffff1660e01b815260040161491e929190618311565b602060405180830381865afa15801561493b573d6000803e3d6000fd5b505050506040513d601f19601f8201168201806040525081019061495f9190617a3d565b14614ba0576000808f73ffffffffffffffffffffffffffffffffffffffff166395c2c5d78f8f6040518363ffffffff1660e01b81526004016149a2929190618311565b6040805180830381865afa1580156149be573d6000803e3d6000fd5b505050506040513d601f19601f820116820180604052508101906149e2919061868c565b915091508b8114614a1f576040517f40b21c7a00000000000000000000000000000000000000000000000000000000815260040160405180910390fd5b8a73ffffffffffffffffffffffffffffffffffffffff168273ffffffffffffffffffffffffffffffffffffffff1614614a84576040517f4b7f85c600000000000000000000000000000000000000000000000000000000815260040160405180910390fd5b60019250600660008f81526020019081526020016000206000018a9080600181540180825580915050600190039060005260206000200160009091909190915055600660008f8152602001908152602001600020600101829080600181540180825580915050600190039060005260206000200160009091909190916101000a81548173ffffffffffffffffffffffffffffffffffffffff021916908373ffffffffffffffffffffffffffffffffffffffff160217905550600660008f8152602001908152602001600020600301600190806001815401808255809150506001900390600052602060002090602091828204019190069091909190916101000a81548160ff021916908315150217905550600098506002945050505b5b80614dbd573073ffffffffffffffffffffffffffffffffffffffff1663803c15df8b89896040518463ffffffff1660e01b8152600401614be3939291906186cc565b602060405180830381865afa925050508015614c1d57506040513d601f19601f82011682018060405250810190614c1a9190616c1d565b60015b614c2a5760019250614c3a565b8015614c38578a9750600193505b505b614c4388614dd7565b8015614c73575060016002811115614c5e57614c5d6165f2565b5b836002811115614c7157614c706165f2565b5b145b614da257600660008d81526020019081526020016000206000018890806001815401808255809150506001900390600052602060002001600090919091909150556000614cc2898b6001615569565b9050600660008e8152602001908152602001600020600101819080600181540180825580915050600190039060005260206000200160009091909190916101000a81548173ffffffffffffffffffffffffffffffffffffffff021916908373ffffffffffffffffffffffffffffffffffffffff160217905550600660008e8152602001908152602001600020600301600090806001815401808255809150506001900390600052602060002090602091828204019190069091909190916101000a81548160ff021916908315150217905550600097506002935050614dbc565b614dae888a6000615569565b5084614db990616dd0565b94505b5b868386935093509350509a509a509a975050505050505050565b6000614e027fbcc180fb907e9ae431665de4bc74305c00b7b27442aadd477980ecc4bb14c011611ba4565b73ffffffffffffffffffffffffffffffffffffffff1663b5c75697836040518263ffffffff1660e01b8152600401614e3a9190615e59565b602060405180830381865afa158015614e57573d6000803e3d6000fd5b505050506040513d601f19601f82011682018060405250810190614e7b9190616c1d565b9050919050565b6000614e8d826156cd565b90505080915050919050565b60606040518060400160405280614f01876001811115614ebc57614ebb6165f2565b5b876002811115614ecf57614ece6165f2565b5b6000614eda30615447565b8d7f000000000000000000000000000000000000000000000000000000000000000061572e565b8152602001604051806060016040528089815260200186815260200185815250604051602001614f319190618745565b604051602081830303815290604052815250604051602001614f539190616b72565b60405160208183030381529060405290509695505050505050565b60606040518060400160405280614fd6876001811115614f9157614f906165f2565b5b876002811115614fa457614fa36165f2565b5b6001614faf30615447565b8d7f000000000000000000000000000000000000000000000000000000000000000061572e565b815260200160405180606001604052808981526020018681526020018581525060405160200161500691906187b7565b6040516020818303038152906040528152506040516020016150289190616b72565b60405160208183030381529060405290509695505050505050565b60008173ffffffffffffffffffffffffffffffffffffffff1663b60262ca6040518163ffffffff1660e01b8152600401602060405180830381865afa158015615090573d6000803e3d6000fd5b505050506040513d601f19601f820116820180604052508101906150b49190617a85565b9050919050565b60008373ffffffffffffffffffffffffffffffffffffffff1663dd62ed3e30856040518363ffffffff1660e01b81526004016150f89291906187d9565b602060405180830381865afa158015615115573d6000803e3d6000fd5b505050506040513d601f19601f820116820180604052508101906151399190617a3d565b90506151518484848461514c91906169b5565b615796565b50505050565b60008373ffffffffffffffffffffffffffffffffffffffff1663dd62ed3e30856040518363ffffffff1660e01b81526004016151949291906187d9565b602060405180830381865afa1580156151b1573d6000803e3d6000fd5b505050506040513d601f19601f820116820180604052508101906151d59190617a3d565b905081811015615220578281836040517fe570110f00000000000000000000000000000000000000000000000000000000815260040161521793929190618802565b60405180910390fd5b61522d8484848403615796565b50505050565b60606000825190508067ffffffffffffffff81111561525557615254615ee8565b5b6040519080825280602002602001820160405280156152835781602001602082028036833780820191505090505b50915060005b8181101561530d576152b48482815181106152a7576152a66169e9565b5b60200260200101516156cd565b9050508382815181106152ca576152c96169e9565b5b602002602001018173ffffffffffffffffffffffffffffffffffffffff1673ffffffffffffffffffffffffffffffffffffffff1681525050806001019050615289565b5050919050565b60007f000000000000000000000000000000000000000000000000000000000000000073ffffffffffffffffffffffffffffffffffffffff16630eff125d836040518263ffffffff1660e01b815260040161536f919061852b565b602060405180830381865afa15801561538c573d6000803e3d6000fd5b505050506040513d601f19601f820116820180604052508101906153b09190617a85565b9050919050565b60606153c5838360006158a5565b905092915050565b6060600167ffffffffffffffff8111156153ea576153e9615ee8565b5b6040519080825280602002602001820160405280156154185781602001602082028036833780820191505090505b50905081816000815181106154305761542f6169e9565b5b602002602001019015159081151581525050919050565b60007f000000000000000000000000000000000000000000000000000000000000000073ffffffffffffffffffffffffffffffffffffffff16632f6438ab836040518263ffffffff1660e01b81526004016154a29190616bd6565b602060405180830381865afa1580156154bf573d6000803e3d6000fd5b505050506040513d601f19601f820116820180604052508101906154e391906184ef565b9050919050565b600073ffffffffffffffffffffffffffffffffffffffff16816020015173ffffffffffffffffffffffffffffffffffffffff16148061552f5750600081600001515114155b15615566576040517fc57767d000000000000000000000000000000000000000000000000000000000815260040160405180910390fd5b50565b600061557484614e82565b73ffffffffffffffffffffffffffffffffffffffff1663b60262ca6040518163ffffffff1660e01b8152600401602060405180830381865afa9250505080156155db57506040513d601f19601f820116820180604052508101906155d89190617a85565b60015b156156555782801561561957508373ffffffffffffffffffffffffffffffffffffffff168173ffffffffffffffffffffffffffffffffffffffff1614155b15615650576040517f4b7f85c600000000000000000000000000000000000000000000000000000000815260040160405180910390fd5b809150505b8115801561568f57508273ffffffffffffffffffffffffffffffffffffffff168173ffffffffffffffffffffffffffffffffffffffff1614155b156156c6576040517f4b7f85c600000000000000000000000000000000000000000000000000000000815260040160405180910390fd5b9392505050565b600080600083925060a084901c915060c084901c905060008167ffffffffffffffff1603615727576040517f030042b700000000000000000000000000000000000000000000000000000000815260040160405180910390fd5b9193909250565b60008660ff16905060088660ff16901b8117905060108560ff16901b8117905060188460ff16901b8117905060208373ffffffffffffffffffffffffffffffffffffffff16901b8117905060c08267ffffffffffffffff16901b811790509695505050505050565b60008373ffffffffffffffffffffffffffffffffffffffff1663095ea7b384846040516024016157c7929190617d80565b604051602081830303815290604052915060e01b6020820180517bffffffffffffffffffffffffffffffffffffffffffffffffffffffff838183161783525050505090506158158482615972565b61589f57615894848573ffffffffffffffffffffffffffffffffffffffff1663095ea7b386600060405160240161584d92919061886a565b604051602081830303815290604052915060e01b6020820180517bffffffffffffffffffffffffffffffffffffffffffffffffffffffff8381831617835250505050613eae565b61589e8482613eae565b5b50505050565b6060814710156158ec57306040517fcd7860590000000000000000000000000000000000000000000000000000000081526004016158e39190616bd6565b60405180910390fd5b6000808573ffffffffffffffffffffffffffffffffffffffff16848660405161591591906188cf565b60006040518083038185875af1925050503d8060008114615952576040519150601f19603f3d011682016040523d82523d6000602084013e615957565b606091505b5091509150615967868383615a39565b925050509392505050565b60008060008473ffffffffffffffffffffffffffffffffffffffff168460405161599c91906188cf565b6000604051808303816000865af19150503d80600081146159d9576040519150601f19603f3d011682016040523d82523d6000602084013e6159de565b606091505b5091509150818015615a0c5750600081511480615a0b575080806020019051810190615a0a9190616c1d565b5b5b8015615a2f575060008573ffffffffffffffffffffffffffffffffffffffff163b115b9250505092915050565b606082615a4e57615a4982615ac8565b615ac0565b60008251148015615a76575060008473ffffffffffffffffffffffffffffffffffffffff163b145b15615ab857836040517f9996b315000000000000000000000000000000000000000000000000000000008152600401615aaf9190616bd6565b60405180910390fd5b819050615ac1565b5b9392505050565b600081511115615adb5780518082602001fd5b6040517f1425ea4200000000000000000000000000000000000000000000000000000000815260040160405180910390fd5b5080546000825590600052602060002090810190615b2b9190615db6565b50565b5080546000825590600052602060002090810190615b4c9190615db6565b50565b50805460008255601f016020900490600052602060002090810190615b749190615db6565b50565b82805482825590600052602060002090601f01602090048101928215615c0d5791602002820160005b83821115615bde57835183826101000a81548160ff021916908360ff1602179055509260200192600101602081600001049283019260010302615ba0565b8015615c0b5782816101000a81549060ff0219169055600101602081600001049283019260010302615bde565b505b509050615c1a9190615db6565b5090565b828054828255906000526020600020908101928215615c5a579160200282015b82811115615c59578235825591602001919060010190615c3e565b5b509050615c679190615db6565b5090565b6040518061014001604052806000815260200160608152602001606081526020016060815260200160608152602001606081526020016060815260200160608152602001600073ffffffffffffffffffffffffffffffffffffffff168152602001606081525090565b6040518061014001604052806000815260200160008152602001600081526020016000815260200160008152602001615d0b615d47565b8152602001600015158152602001600015158152602001600073ffffffffffffffffffffffffffffffffffffffff168152602001606081525090565b6040518060c0016040528060608152602001600073ffffffffffffffffffffffffffffffffffffffff168152602001600073ffffffffffffffffffffffffffffffffffffffff168152602001600060ff168152602001600067ffffffffffffffff168152602001600081525090565b5b80821115615dcf576000816000905550600101615db7565b5090565b6000604051905090565b600080fd5b600080fd5b6000819050919050565b615dfa81615de7565b8114615e0557600080fd5b50565b600081359050615e1781615df1565b92915050565b600060208284031215615e3357615e32615ddd565b5b6000615e4184828501615e08565b91505092915050565b615e5381615de7565b82525050565b6000602082019050615e6e6000830184615e4a565b92915050565b600073ffffffffffffffffffffffffffffffffffffffff82169050919050565b6000615e9f82615e74565b9050919050565b615eaf81615e94565b8114615eba57600080fd5b50565b600081359050615ecc81615ea6565b92915050565b600080fd5b6000601f19601f8301169050919050565b7f4e487b7100000000000000000000000000000000000000000000000000000000600052604160045260246000fd5b615f2082615ed7565b810181811067ffffffffffffffff82111715615f3f57615f3e615ee8565b5b80604052505050565b6000615f52615dd3565b9050615f5e8282615f17565b919050565b600067ffffffffffffffff821115615f7e57615f7d615ee8565b5b602082029050602081019050919050565b600080fd5b600060ff82169050919050565b615faa81615f94565b8114615fb557600080fd5b50565b600081359050615fc781615fa1565b92915050565b6000615fe0615fdb84615f63565b615f48565b9050808382526020820190506020840283018581111561600357616002615f8f565b5b835b8181101561602c57806160188882615fb8565b845260208401935050602081019050616005565b5050509392505050565b600082601f83011261604b5761604a615ed2565b5b813561605b848260208601615fcd565b91505092915050565b600067ffffffffffffffff82169050919050565b61608181616064565b811461608c57600080fd5b50565b60008135905061609e81616078565b92915050565b600080fd5b600067ffffffffffffffff8211156160c4576160c3615ee8565b5b6160cd82615ed7565b9050602081019050919050565b82818337600083830152505050565b60006160fc6160f7846160a9565b615f48565b905082815260208101848484011115616118576161176160a4565b5b6161238482856160da565b509392505050565b600082601f8301126161405761613f615ed2565b5b81356161508482602086016160e9565b91505092915050565b600080600080600060a0868803121561617557616174615ddd565b5b600061618388828901615ebd565b955050602086013567ffffffffffffffff8111156161a4576161a3615de2565b5b6161b088828901616036565b94505060406161c18882890161608f565b935050606086013567ffffffffffffffff8111156161e2576161e1615de2565b5b6161ee8882890161612b565b925050608086013567ffffffffffffffff81111561620f5761620e615de2565b5b61621b8882890161612b565b9150509295509295909350565b6000819050919050565b600061624d61624861624384615e74565b616228565b615e74565b9050919050565b600061625f82616232565b9050919050565b600061627182616254565b9050919050565b61628181616266565b82525050565b600060208201905061629c6000830184616278565b92915050565b600081519050919050565b600082825260208201905092915050565b60005b838110156162dc5780820151818401526020810190506162c1565b60008484015250505050565b60006162f3826162a2565b6162fd81856162ad565b935061630d8185602086016162be565b61631681615ed7565b840191505092915050565b6000602082019050818103600083015261633b81846162e8565b905092915050565b600080fd5b60008083601f84011261635e5761635d615ed2565b5b8235905067ffffffffffffffff81111561637b5761637a616343565b5b60208301915083602082028301111561639757616396615f8f565b5b9250929050565b6000806000604084860312156163b7576163b6615ddd565b5b60006163c586828701615e08565b935050602084013567ffffffffffffffff8111156163e6576163e5615de2565b5b6163f286828701616348565b92509250509250925092565b60008083601f84011261641457616413615ed2565b5b8235905067ffffffffffffffff81111561643157616430616343565b5b60208301915083602082028301111561644d5761644c615f8f565b5b9250929050565b60008083601f84011261646a57616469615ed2565b5b8235905067ffffffffffffffff81111561648757616486616343565b5b6020830191508360208202830111156164a3576164a2615f8f565b5b9250929050565b6000806000806000606086880312156164c6576164c5615ddd565b5b60006164d488828901615e08565b955050602086013567ffffffffffffffff8111156164f5576164f4615de2565b5b616501888289016163fe565b9450945050604086013567ffffffffffffffff81111561652457616523615de2565b5b61653088828901616454565b92509250509295509295909350565b60008060006060848603121561655857616557615ddd565b5b600061656686828701615e08565b935050602061657786828701615e08565b925050604061658886828701615e08565b9150509250925092565b60008115159050919050565b6165a781616592565b82525050565b60006020820190506165c2600083018461659e565b92915050565b6165d181616064565b82525050565b60006020820190506165ec60008301846165c8565b92915050565b7f4e487b7100000000000000000000000000000000000000000000000000000000600052602160045260246000fd5b60038110616632576166316165f2565b5b50565b600081905061664382616621565b919050565b600061665382616635565b9050919050565b61666381616648565b82525050565b600060208201905061667e600083018461665a565b92915050565b6000806040838503121561669b5761669a615ddd565b5b60006166a98582860161608f565b925050602083013567ffffffffffffffff8111156166ca576166c9615de2565b5b6166d68582860161612b565b9150509250929050565b600081519050919050565b600082825260208201905092915050565b6000819050602082019050919050565b61671581615de7565b82525050565b6000616727838361670c565b60208301905092915050565b6000602082019050919050565b600061674b826166e0565b61675581856166eb565b9350616760836166fc565b8060005b83811015616791578151616778888261671b565b975061678383616733565b925050600181019050616764565b5085935050505092915050565b600060608201905081810360008301526167b88186616740565b905081810360208301526167cc8185616740565b90506167db6040830184615e4a565b949350505050565b6000819050919050565b6167f6816167e3565b811461680157600080fd5b50565b600081359050616813816167ed565b92915050565b60006020828403121561682f5761682e615ddd565b5b600061683d84828501616804565b91505092915050565b600081519050919050565b600082825260208201905092915050565b6000819050602082019050919050565b61687b81615f94565b82525050565b600061688d8383616872565b60208301905092915050565b6000602082019050919050565b60006168b182616846565b6168bb8185616851565b93506168c683616862565b8060005b838110156168f75781516168de8882616881565b97506168e983616899565b9250506001810190506168ca565b5085935050505092915050565b6000602082019050818103600083015261691e81846168a6565b905092915050565b60008060006040848603121561693f5761693e615ddd565b5b600061694d86828701615e08565b935050602084013567ffffffffffffffff81111561696e5761696d615de2565b5b61697a86828701616454565b92509250509250925092565b7f4e487b7100000000000000000000000000000000000000000000000000000000600052601160045260246000fd5b60006169c082615de7565b91506169cb83615de7565b92508282019050808211156169e3576169e2616986565b5b92915050565b7f4e487b7100000000000000000000000000000000000000000000000000000000600052603260045260246000fd5b616a2181615e94565b82525050565b6000606082019050616a3c6000830186616a18565b616a496020830185616a18565b616a566040830184615e4a565b949350505050565b7f4e487b7100000000000000000000000000000000000000000000000000000000600052602260045260246000fd5b60006002820490506001821680616aa557607f821691505b602082108103616ab857616ab7616a5e565b5b50919050565b600060208284031215616ad457616ad3615ddd565b5b6000616ae284828501615ebd565b91505092915050565b600082825260208201905092915050565b6000616b07826162a2565b616b118185616aeb565b9350616b218185602086016162be565b616b2a81615ed7565b840191505092915050565b6000604083016000830151616b4d600086018261670c565b5060208301518482036020860152616b658282616afc565b9150508091505092915050565b60006020820190508181036000830152616b8c8184616b35565b905092915050565b600081519050616ba381616078565b92915050565b600060208284031215616bbf57616bbe615ddd565b5b6000616bcd84828501616b94565b91505092915050565b6000602082019050616beb6000830184616a18565b92915050565b616bfa81616592565b8114616c0557600080fd5b50565b600081519050616c1781616bf1565b92915050565b600060208284031215616c3357616c32615ddd565b5b6000616c4184828501616c08565b91505092915050565b600080fd5b600080fd5b600081519050616c6381615df1565b92915050565b6000616c7c616c77846160a9565b615f48565b905082815260208101848484011115616c9857616c976160a4565b5b616ca38482856162be565b509392505050565b600082601f830112616cc057616cbf615ed2565b5b8151616cd0848260208601616c69565b91505092915050565b600060408284031215616cef57616cee616c4a565b5b616cf96040615f48565b90506000616d0984828501616c54565b600083015250602082015167ffffffffffffffff811115616d2d57616d2c616c4f565b5b616d3984828501616cab565b60208301525092915050565b600060208284031215616d5b57616d5a615ddd565b5b600082015167ffffffffffffffff811115616d7957616d78615de2565b5b616d8584828501616cd9565b91505092915050565b600081519050616d9d816167ed565b92915050565b600060208284031215616db957616db8615ddd565b5b6000616dc784828501616d8e565b91505092915050565b6000616ddb82615de7565b91507fffffffffffffffffffffffffffffffffffffffffffffffffffffffffffffffff8203616e0d57616e0c616986565b5b600182019050919050565b600081519050616e2781615fa1565b92915050565b6000616e40616e3b84615f63565b615f48565b90508083825260208201905060208402830185811115616e6357616e62615f8f565b5b835b81811015616e8c5780616e788882616e18565b845260208401935050602081019050616e65565b5050509392505050565b600082601f830112616eab57616eaa615ed2565b5b8151616ebb848260208601616e2d565b91505092915050565b60008060408385031215616edb57616eda615ddd565b5b600083015167ffffffffffffffff811115616ef957616ef8615de2565b5b616f0585828601616e96565b925050602083015167ffffffffffffffff811115616f2657616f25615de2565b5b616f3285828601616cab565b9150509250929050565b60008190508160005260206000209050919050565b60006020601f8301049050919050565b600082821b905092915050565b600060088302616f9e7fffffffffffffffffffffffffffffffffffffffffffffffffffffffffffffffff82616f61565b616fa88683616f61565b95508019841693508086168417925050509392505050565b6000616fdb616fd6616fd184615de7565b616228565b615de7565b9050919050565b6000819050919050565b616ff583616fc0565b61700961700182616fe2565b848454616f6e565b825550505050565b600090565b61701e617011565b617029818484616fec565b505050565b5b8181101561704d57617042600082617016565b60018101905061702f565b5050565b601f8211156170925761706381616f3c565b61706c84616f51565b8101602085101561707b578190505b61708f61708785616f51565b83018261702e565b50505b505050565b600082821c905092915050565b60006170b560001984600802617097565b1980831691505092915050565b60006170ce83836170a4565b9150826002028217905092915050565b6170e7826162a2565b67ffffffffffffffff811115617100576170ff615ee8565b5b61710a8254616a8d565b617115828285617051565b600060209050601f8311600181146171485760008415617136578287015190505b61714085826170c2565b8655506171a8565b601f19841661715686616f3c565b60005b8281101561717e57848901518255600182019150602085019450602081019050617159565b8683101561719b5784890151617197601f8916826170a4565b8355505b6001600288020188555050505b505050505050565b600067ffffffffffffffff8211156171cb576171ca615ee8565b5b602082029050602081019050919050565b60006171ef6171ea846171b0565b615f48565b9050808382526020820190506020840283018581111561721257617211615f8f565b5b835b8181101561723b57806172278882616c54565b845260208401935050602081019050617214565b5050509392505050565b600082601f83011261725a57617259615ed2565b5b815161726a8482602086016171dc565b91505092915050565b600067ffffffffffffffff82111561728e5761728d615ee8565b5b602082029050602081019050919050565b6000815190506172ae81615ea6565b92915050565b600060c082840312156172ca576172c9616c4a565b5b6172d460c0615f48565b9050600082015167ffffffffffffffff8111156172f4576172f3616c4f565b5b61730084828501616cab565b60008301525060206173148482850161729f565b60208301525060406173288482850161729f565b604083015250606061733c84828501616e18565b606083015250608061735084828501616b94565b60808301525060a061736484828501616c54565b60a08301525092915050565b600061738361737e84617273565b615f48565b905080838252602082019050602084028301858111156173a6576173a5615f8f565b5b835b818110156173ed57805167ffffffffffffffff8111156173cb576173ca615ed2565b5b8086016173d889826172b4565b855260208501945050506020810190506173a8565b5050509392505050565b600082601f83011261740c5761740b615ed2565b5b815161741c848260208601617370565b91505092915050565b600067ffffffffffffffff8211156174405761743f615ee8565b5b602082029050602081019050919050565b600061746461745f84617425565b615f48565b9050808382526020820190506020840283018581111561748757617486615f8f565b5b835b818110156174b0578061749c8882616c08565b845260208401935050602081019050617489565b5050509392505050565b600082601f8301126174cf576174ce615ed2565b5b81516174df848260208601617451565b91505092915050565b600061014082840312156174ff576174fe616c4a565b5b61750a610140615f48565b9050600061751a84828501616c54565b600083015250602082015167ffffffffffffffff81111561753e5761753d616c4f565b5b61754a84828501617245565b602083015250604082015167ffffffffffffffff81111561756e5761756d616c4f565b5b61757a84828501617245565b604083015250606082015167ffffffffffffffff81111561759e5761759d616c4f565b5b6175aa84828501617245565b606083015250608082015167ffffffffffffffff8111156175ce576175cd616c4f565b5b6175da84828501617245565b60808301525060a082015167ffffffffffffffff8111156175fe576175fd616c4f565b5b61760a848285016173f7565b60a08301525060c082015167ffffffffffffffff81111561762e5761762d616c4f565b5b61763a848285016174ba565b60c08301525060e082015167ffffffffffffffff81111561765e5761765d616c4f565b5b61766a848285016174ba565b60e08301525061010061767f8482850161729f565b6101008301525061012082015167ffffffffffffffff8111156176a5576176a4616c4f565b5b6176b184828501616cab565b6101208301525092915050565b6000602082840312156176d4576176d3615ddd565b5b600082015167ffffffffffffffff8111156176f2576176f1615de2565b5b6176fe848285016174e8565b91505092915050565b6000610140828403121561771e5761771d616c4a565b5b617729610140615f48565b9050600061773984828501616c54565b600083015250602061774d84828501616c54565b602083015250604061776184828501616c54565b604083015250606061777584828501616c54565b606083015250608061778984828501616c54565b60808301525060a082015167ffffffffffffffff8111156177ad576177ac616c4f565b5b6177b9848285016172b4565b60a08301525060c06177cd84828501616c08565b60c08301525060e06177e184828501616c08565b60e0830152506101006177f68482850161729f565b6101008301525061012082015167ffffffffffffffff81111561781c5761781b616c4f565b5b61782884828501616cab565b6101208301525092915050565b60006020828403121561784b5761784a615ddd565b5b600082015167ffffffffffffffff81111561786957617868615de2565b5b61787584828501617707565b91505092915050565b600081549050919050565b60008190508160005260206000209050919050565b60008160001c9050919050565b6000819050919050565b60006178c86178c38361789e565b6178ab565b9050919050565b60006178db82546178b5565b9050919050565b6000600182019050919050565b60006178fa8261787e565b61790481856166eb565b935061790f83617889565b8060005b8381101561794757617924826178cf565b61792e888261671b565b9750617939836178e2565b925050600181019050617913565b5085935050505092915050565b600080fd5b82818337505050565b600061796e83856166eb565b93507f07ffffffffffffffffffffffffffffffffffffffffffffffffffffffffffffff8311156179a1576179a0617954565b5b6020830292506179b2838584617959565b82840190509392505050565b600060608201905081810360008301526179d881876178ef565b905081810360208301526179ed818587617962565b90506179fc6040830184615e4a565b95945050505050565b617a0e816167e3565b82525050565b6000604082019050617a296000830185617a05565b617a366020830184616a18565b9392505050565b600060208284031215617a5357617a52615ddd565b5b6000617a6184828501616c54565b91505092915050565b6000602082019050617a7f6000830184617a05565b92915050565b600060208284031215617a9b57617a9a615ddd565b5b6000617aa98482850161729f565b91505092915050565b6000617abd82615de7565b9150617ac883615de7565b9250828203905081811115617ae057617adf616986565b5b92915050565b600067ffffffffffffffff821115617b0157617b00615ee8565b5b602082029050602081019050919050565b6000617b25617b2084617ae6565b615f48565b90508083825260208201905060208402830185811115617b4857617b47615f8f565b5b835b81811015617b8f57805167ffffffffffffffff811115617b6d57617b6c615ed2565b5b808601617b7a8982616cab565b85526020850194505050602081019050617b4a565b5050509392505050565b600082601f830112617bae57617bad615ed2565b5b8151617bbe848260208601617b12565b91505092915050565b600060408284031215617bdd57617bdc616c4a565b5b617be76040615f48565b9050600082015167ffffffffffffffff811115617c0757617c06616c4f565b5b617c1384828501617245565b600083015250602082015167ffffffffffffffff811115617c3757617c36616c4f565b5b617c4384828501617b99565b60208301525092915050565b600060208284031215617c6557617c64615ddd565b5b600082015167ffffffffffffffff811115617c8357617c82615de2565b5b617c8f84828501617bc7565b91505092915050565b60006040820190508181036000830152617cb281856168a6565b90508181036020830152617cc681846162e8565b90509392505050565b6000608082019050617ce46000830187616a18565b617cf160208301866165c8565b8181036040830152617d0381856162e8565b90508181036060830152617d1781846162e8565b905095945050505050565b6000617d2d82615f94565b9150617d3883615f94565b9250828203905060ff811115617d5157617d50616986565b5b92915050565b6000617d6282615f94565b915060ff8203617d7557617d74616986565b5b600182019050919050565b6000604082019050617d956000830185616a18565b617da26020830184615e4a565b9392505050565b617db281615e94565b82525050565b617dc181616064565b82525050565b600060c0830160008301518482036000860152617de48282616afc565b9150506020830151617df96020860182617da9565b506040830151617e0c6040860182617da9565b506060830151617e1f6060860182616872565b506080830151617e326080860182617db8565b5060a0830151617e4560a086018261670c565b508091505092915050565b617e5981616592565b82525050565b600061014083016000830151617e78600086018261670c565b506020830151617e8b602086018261670c565b506040830151617e9e604086018261670c565b506060830151617eb1606086018261670c565b506080830151617ec4608086018261670c565b5060a083015184820360a0860152617edc8282617dc7565b91505060c0830151617ef160c0860182617e50565b5060e0830151617f0460e0860182617e50565b50610100830151617f19610100860182617da9565b50610120830151848203610120860152617f338282616afc565b9150508091505092915050565b60006020820190508181036000830152617f5a8184617e5f565b905092915050565b600082825260208201905092915050565b6000617f7e826166e0565b617f888185617f62565b9350617f93836166fc565b8060005b83811015617fc4578151617fab888261671b565b9750617fb683616733565b925050600181019050617f97565b5085935050505092915050565b600081519050919050565b600082825260208201905092915050565b6000819050602082019050919050565b60006180098383617dc7565b905092915050565b6000602082019050919050565b600061802982617fd1565b6180338185617fdc565b93508360208202850161804585617fed565b8060005b8581101561808157848403895281516180628582617ffd565b945061806d83618011565b925060208a01995050600181019050618049565b50829750879550505050505092915050565b600081519050919050565b600082825260208201905092915050565b6000819050602082019050919050565b60006180cb8383617e50565b60208301905092915050565b6000602082019050919050565b60006180ef82618093565b6180f9818561809e565b9350618104836180af565b8060005b8381101561813557815161811c88826180bf565b9750618127836180d7565b925050600181019050618108565b5085935050505092915050565b60006101408301600083015161815b600086018261670c565b50602083015184820360208601526181738282617f73565b9150506040830151848203604086015261818d8282617f73565b915050606083015184820360608601526181a78282617f73565b915050608083015184820360808601526181c18282617f73565b91505060a083015184820360a08601526181db828261801e565b91505060c083015184820360c08601526181f582826180e4565b91505060e083015184820360e086015261820f82826180e4565b915050610100830151618226610100860182617da9565b506101208301518482036101208601526182408282616afc565b9150508091505092915050565b600060208201905081810360008301526182678184618142565b905092915050565b6000819050919050565b600061829461828f61828a8461826f565b616228565b615f94565b9050919050565b6182a481618279565b82525050565b60006040820190506182bf6000830185615e4a565b6182cc602083018461829b565b9392505050565b600060608201905081810360008301526182ed8186617e5f565b90506182fc6020830185616a18565b61830960408301846165c8565b949350505050565b60006040820190506183266000830185615e4a565b6183336020830184615e4a565b9392505050565b600060608201905061834f60008301866165c8565b818103602083015261836181856168a6565b9050818103604083015261837581846162e8565b9050949350505050565b6000806040838503121561839657618395615ddd565b5b60006183a485828601616c54565b925050602083015167ffffffffffffffff8111156183c5576183c4615de2565b5b6183d185828601616cab565b9150509250929050565b60006183e682615de7565b91506183f183615de7565b92508282026183ff81615de7565b9150828204841483151761841657618415616986565b5b5092915050565b7f4e487b7100000000000000000000000000000000000000000000000000000000600052601260045260246000fd5b600061845782615de7565b915061846283615de7565b9250826184725761847161841d565b5b828204905092915050565b600080fd5b600080fd5b600080fd5b600080833560016020038436030381126184a9576184a861847d565b5b80840192508235915067ffffffffffffffff8211156184cb576184ca618482565b5b6020830192506001820236038313156184e7576184e6618487565b5b509250929050565b60006020828403121561850557618504615ddd565b5b600061851384828501616e18565b91505092915050565b61852581615f94565b82525050565b6000602082019050618540600083018461851c565b92915050565b60006101208301600083015184820360008601526185648282616afc565b91505060208301516185796020860182617db8565b50604083015161858c6040860182617db8565b50606083015161859f6060860182617db8565b5060808301516185b26080860182617e50565b5060a08301516185c560a0860182617da9565b5060c08301516185d860c0860182617da9565b5060e08301516185eb60e0860182617da9565b50610100830151618600610100860182617da9565b508091505092915050565b600060208201905081810360008301526186258184618546565b905092915050565b600061863983856162ad565b93506186468385846160da565b61864f83615ed7565b840190509392505050565b6000604082019050818103600083015261867581858761862d565b9050618684602083018461659e565b949350505050565b600080604083850312156186a3576186a2615ddd565b5b60006186b18582860161729f565b92505060206186c285828601616c54565b9150509250929050565b60006060820190506186e16000830186615e4a565b6186ee6020830185615e4a565b6186fb6040830184615e4a565b949350505050565b606082016000820151618719600085018261670c565b50602082015161872c602085018261670c565b50604082015161873f604085018261670c565b50505050565b600060608201905061875a6000830184618703565b92915050565b6000606083016000830151618778600086018261670c565b50602083015184820360208601526187908282617f73565b915050604083015184820360408601526187aa8282617f73565b9150508091505092915050565b600060208201905081810360008301526187d18184618760565b905092915050565b60006040820190506187ee6000830185616a18565b6187fb6020830184616a18565b9392505050565b60006060820190506188176000830186616a18565b6188246020830185615e4a565b6188316040830184615e4a565b949350505050565b600061885461884f61884a8461826f565b616228565b615de7565b9050919050565b61886481618839565b82525050565b600060408201905061887f6000830185616a18565b61888c602083018461885b565b9392505050565b600081905092915050565b60006188a9826162a2565b6188b38185618893565b93506188c38185602086016162be565b80840191505092915050565b60006188db828461889e565b91508190509291505056fea2646970667358221220302d9669a45f7a3282e2c3d9eae59e4fdb0fad718c845d5b732a28d0f6ff29b164736f6c63430008170033","linkReferences":{}},"methodIdentifiers":{"CHAIN_ID()":"85e1f4d0","dispatchPayload(address,uint8[],uint64,bytes,bytes)":"23de31e1","disputeRescueFailedDeposits(uint256)":"13bff012","finalizeRescueFailedDeposits(uint256)":"2d46647d","getFailedDeposits(uint256)":"d468711a","getMessageAMB(uint256)":"d830364e","messageQuorum(bytes32)":"d4961606","payloadBody(uint256)":"361ad42b","payloadHeader(uint256)":"36445ffd","payloadTracking(uint256)":"b63d36a5","payloadsCount()":"13c02a59","processPayload(uint256)":"5aef9480","proposeRescueFailedDeposits(uint256,uint256[])":"e17d89e8","receivePayload(uint64,bytes)":"cc2d8abd","superRegistry()":"24c73dda","updateDepositPayload(uint256,address[],uint256[])":"474fd874","updateWithdrawPayload(uint256,bytes[])":"439890e2","validateSlippage(uint256,uint256,uint256)":"803c15df"},"id":124}