{"abi":[{"type":"constructor","inputs":[{"name":"superRegistry_","type":"address","internalType":"address"}],"stateMutability":"nonpayable"},{"type":"function","name":"CHAIN_ID","inputs":[],"outputs":[{"name":"","type":"uint64","internalType":"uint64"}],"stateMutability":"view"},{"type":"function","name":"addToBlacklist","inputs":[{"name":"id_","type":"uint256","internalType":"uint256"}],"outputs":[],"stateMutability":"nonpayable"},{"type":"function","name":"decodeAmountIn","inputs":[{"name":"txData_","type":"bytes","internalType":"bytes"},{"name":"","type":"bool","internalType":"bool"}],"outputs":[{"name":"amount_","type":"uint256","internalType":"uint256"}],"stateMutability":"pure"},{"type":"function","name":"decodeDstSwap","inputs":[{"name":"","type":"bytes","internalType":"bytes"}],"outputs":[{"name":"","type":"address","internalType":"address"},{"name":"","type":"uint256","internalType":"uint256"}],"stateMutability":"pure"},{"type":"function","name":"decodeSwapOutputToken","inputs":[{"name":"","type":"bytes","internalType":"bytes"}],"outputs":[{"name":"","type":"address","internalType":"address"}],"stateMutability":"pure"},{"type":"function","name":"isRouteBlacklisted","inputs":[{"name":"id_","type":"uint256","internalType":"uint256"}],"outputs":[{"name":"blacklisted","type":"bool","internalType":"bool"}],"stateMutability":"view"},{"type":"function","name":"removeFromBlacklist","inputs":[{"name":"id_","type":"uint256","internalType":"uint256"}],"outputs":[],"stateMutability":"nonpayable"},{"type":"function","name":"superRegistry","inputs":[],"outputs":[{"name":"","type":"address","internalType":"contract ISuperRegistry"}],"stateMutability":"view"},{"type":"function","name":"validateReceiver","inputs":[{"name":"txData_","type":"bytes","internalType":"bytes"},{"name":"receiver","type":"address","internalType":"address"}],"outputs":[{"name":"","type":"bool","internalType":"bool"}],"stateMutability":"pure"},{"type":"function","name":"validateTxData","inputs":[{"name":"args_","type":"tuple","internalType":"struct IBridgeValidator.ValidateTxDataArgs","components":[{"name":"txData","type":"bytes","internalType":"bytes"},{"name":"srcChainId","type":"uint64","internalType":"uint64"},{"name":"dstChainId","type":"uint64","internalType":"uint64"},{"name":"liqDstChainId","type":"uint64","internalType":"uint64"},{"name":"deposit","type":"bool","internalType":"bool"},{"name":"superform","type":"address","internalType":"address"},{"name":"receiverAddress","type":"address","internalType":"address"},{"name":"liqDataToken","type":"address","internalType":"address"},{"name":"liqDataInterimToken","type":"address","internalType":"address"}]}],"outputs":[{"name":"hasDstSwap","type":"bool","internalType":"bool"}],"stateMutability":"view"},{"type":"event","name":"AddedToBlacklist","inputs":[{"name":"id","type":"uint256","indexed":true,"internalType":"uint256"}],"anonymous":false},{"type":"event","name":"RemovedFromBlacklist","inputs":[{"name":"id","type":"uint256","indexed":true,"internalType":"uint256"}],"anonymous":false},{"type":"error","name":"BLACKLISTED_ROUTE_ID","inputs":[]},{"type":"error","name":"CANNOT_DECODE_FINAL_SWAP_OUTPUT_TOKEN","inputs":[]},{"type":"error","name":"INVALID_ACTION","inputs":[]},{"type":"error","name":"INVALID_INTERIM_TOKEN","inputs":[]},{"type":"error","name":"INVALID_TXDATA_CHAIN_ID","inputs":[]},{"type":"error","name":"INVALID_TXDATA_RECEIVER","inputs":[]},{"type":"error","name":"INVALID_TXDATA_TOKEN","inputs":[]},{"type":"error","name":"NOT_BLACKLISTED_ROUTE_ID","inputs":[]},{"type":"error","name":"NOT_EMERGENCY_ADMIN","inputs":[]},{"type":"error","name":"ZERO_ADDRESS","inputs":[]}],"bytecode":{"object":"0x60c06040523480156200001157600080fd5b5060405162001a6038038062001a60833981810160405281019062000037919062000161565b80600073ffffffffffffffffffffffffffffffffffffffff168173ffffffffffffffffffffffffffffffffffffffff16036200009f576040517f538ba4f900000000000000000000000000000000000000000000000000000000815260040160405180910390fd5b8073ffffffffffffffffffffffffffffffffffffffff1660808173ffffffffffffffffffffffffffffffffffffffff1681525050504667ffffffffffffffff1660a08167ffffffffffffffff16815250505062000193565b600080fd5b600073ffffffffffffffffffffffffffffffffffffffff82169050919050565b60006200012982620000fc565b9050919050565b6200013b816200011c565b81146200014757600080fd5b50565b6000815190506200015b8162000130565b92915050565b6000602082840312156200017a5762000179620000f7565b5b60006200018a848285016200014a565b91505092915050565b60805160a05161188b620001d560003960006103370152600081816102810152818161035b015281816106d6015281816107d80152610b1b015261188b6000f3fe608060405234801561001057600080fd5b506004361061009e5760003560e01c806385e1f4d01161006657806385e1f4d0146101825780638b762e6c146101a05780639bbbb5c8146101bc578063c87439eb146101ec578063f14b5bd61461021c5761009e565b80631d51a3d7146100a357806324c73dda146100d35780632db88323146100f15780633d898b1e146101215780634487df2c14610152575b600080fd5b6100bd60048036038101906100b89190610f15565b610238565b6040516100ca9190610f90565b60405180910390f35b6100db61027f565b6040516100e8919061100a565b60405180910390f35b61010b60048036038101906101069190611025565b6102a3565b6040516101189190611081565b60405180910390f35b61013b60048036038101906101369190611025565b6102d7565b6040516101499291906110b5565b60405180910390f35b61016c6004803603810190610167919061110a565b61030c565b6040516101799190610f90565b60405180910390f35b61018a610335565b604051610197919061115a565b60405180910390f35b6101ba60048036038101906101b5919061110a565b610359565b005b6101d660048036038101906101d191906111a1565b610574565b6040516101e39190611201565b60405180910390f35b61020660048036038101906102019190611241565b61058d565b6040516102139190610f90565b60405180910390f35b6102366004803603810190610231919061110a565b610b19565b005b60006102448484610d29565b6000015173ffffffffffffffffffffffffffffffffffffffff168273ffffffffffffffffffffffffffffffffffffffff161490509392505050565b7f000000000000000000000000000000000000000000000000000000000000000081565b60006040517f561b96ce00000000000000000000000000000000000000000000000000000000815260040160405180910390fd5b6000806040517f561b96ce00000000000000000000000000000000000000000000000000000000815260040160405180910390fd5b600080600083815260200190815260200160002060009054906101000a900460ff169050919050565b7f000000000000000000000000000000000000000000000000000000000000000081565b7f000000000000000000000000000000000000000000000000000000000000000073ffffffffffffffffffffffffffffffffffffffff166321f8a7217f6b50fa17b77d24e42e27a04b69fe50cd6967cfb767d18de0bd5fe7e1a32aa8686040518263ffffffff1660e01b81526004016103d291906112a3565b602060405180830381865afa1580156103ef573d6000803e3d6000fd5b505050506040513d601f19601f8201168201806040525081019061041391906112d3565b73ffffffffffffffffffffffffffffffffffffffff16632f41ca96336040518263ffffffff1660e01b815260040161044b9190611081565b602060405180830381865afa158015610468573d6000803e3d6000fd5b505050506040513d601f19601f8201168201806040525081019061048c9190611315565b6104c2576040517f445b0c3a00000000000000000000000000000000000000000000000000000000815260040160405180910390fd5b60008082815260200190815260200160002060009054906101000a900460ff1615610519576040517f26a35ca700000000000000000000000000000000000000000000000000000000815260040160405180910390fd5b600160008083815260200190815260200160002060006101000a81548160ff021916908315150217905550807faeddfe3e882abe115bf510b5aab15af6e1bc965a069a10d2c2822cef4b62bbd760405160405180910390a250565b60006105808484610d29565b6040015190509392505050565b6000806105a88380600001906105a39190611351565b610d29565b90506105bb81608001516000015161030c565b156105f2576040517f26a35ca700000000000000000000000000000000000000000000000000000000815260040160405180910390fd5b82606001602081019061060591906113e0565b67ffffffffffffffff1681602001511461064b576040517f111beafb00000000000000000000000000000000000000000000000000000000815260040160405180910390fd5b82608001602081019061065e919061140d565b1561099c5782604001602081019061067691906113e0565b67ffffffffffffffff1683602001602081019061069391906113e0565b67ffffffffffffffff16036106d4576040517ff33d056900000000000000000000000000000000000000000000000000000000815260040160405180910390fd5b7f000000000000000000000000000000000000000000000000000000000000000073ffffffffffffffffffffffffffffffffffffffff1663dfcf829b7f494dfdc880823954ed6700117eb435b9bca3643417437b5781c1a89fba6e8b9785604001602081019061074491906113e0565b6040518363ffffffff1660e01b815260040161076192919061143a565b602060405180830381865afa15801561077e573d6000803e3d6000fd5b505050506040513d601f19601f820116820180604052508101906107a291906112d3565b73ffffffffffffffffffffffffffffffffffffffff16816000015173ffffffffffffffffffffffffffffffffffffffff161491507f000000000000000000000000000000000000000000000000000000000000000073ffffffffffffffffffffffffffffffffffffffff1663dfcf829b7f55b101fc856aff484166c46ad33bc74831c135693c159b0092bb3b72254ffb6b85604001602081019061084691906113e0565b6040518363ffffffff1660e01b815260040161086392919061143a565b602060405180830381865afa158015610880573d6000803e3d6000fd5b505050506040513d601f19601f820116820180604052508101906108a491906112d3565b73ffffffffffffffffffffffffffffffffffffffff16816000015173ffffffffffffffffffffffffffffffffffffffff1614806108de5750815b610914576040517fb076b2fc00000000000000000000000000000000000000000000000000000000815260040160405180910390fd5b8180156109605750600073ffffffffffffffffffffffffffffffffffffffff16836101000160208101906109489190611463565b73ffffffffffffffffffffffffffffffffffffffff16145b15610997576040517fd849d6a100000000000000000000000000000000000000000000000000000000815260040160405180910390fd5b610a18565b8260c00160208101906109af9190611463565b73ffffffffffffffffffffffffffffffffffffffff16816000015173ffffffffffffffffffffffffffffffffffffffff1614610a17576040517fb076b2fc00000000000000000000000000000000000000000000000000000000815260040160405180910390fd5b5b6000816060015160000151148015610a76575080608001516040015173ffffffffffffffffffffffffffffffffffffffff168360e0016020810190610a5d9190611463565b73ffffffffffffffffffffffffffffffffffffffff1614155b80610adc5750600081606001516000015114158015610adb575080606001516040015173ffffffffffffffffffffffffffffffffffffffff168360e0016020810190610ac29190611463565b73ffffffffffffffffffffffffffffffffffffffff1614155b5b15610b13576040517fd19f398900000000000000000000000000000000000000000000000000000000815260040160405180910390fd5b50919050565b7f000000000000000000000000000000000000000000000000000000000000000073ffffffffffffffffffffffffffffffffffffffff166321f8a7217f6b50fa17b77d24e42e27a04b69fe50cd6967cfb767d18de0bd5fe7e1a32aa8686040518263ffffffff1660e01b8152600401610b9291906112a3565b602060405180830381865afa158015610baf573d6000803e3d6000fd5b505050506040513d601f19601f82011682018060405250810190610bd391906112d3565b73ffffffffffffffffffffffffffffffffffffffff16632f41ca96336040518263ffffffff1660e01b8152600401610c0b9190611081565b602060405180830381865afa158015610c28573d6000803e3d6000fd5b505050506040513d601f19601f82011682018060405250810190610c4c9190611315565b610c82576040517f445b0c3a00000000000000000000000000000000000000000000000000000000815260040160405180910390fd5b60008082815260200190815260200160002060009054906101000a900460ff16610cd8576040517f5f7775e200000000000000000000000000000000000000000000000000000000815260040160405180910390fd5b60008082815260200190815260200160002060006101000a81549060ff0219169055807e975be7d737c209d35845b9419c4ce26b8277f530bc3539726b6f5b7815cc7f60405160405180910390a250565b610d31610d71565b610d3b8383610d50565b810190610d4891906117c7565b905092915050565b36600083836004908092610d669392919061181a565b915091509250929050565b6040518060a00160405280600073ffffffffffffffffffffffffffffffffffffffff1681526020016000815260200160008152602001610daf610dc2565b8152602001610dbc610e00565b81525090565b60405180608001604052806000815260200160008152602001600073ffffffffffffffffffffffffffffffffffffffff168152602001606081525090565b60405180608001604052806000815260200160008152602001600073ffffffffffffffffffffffffffffffffffffffff168152602001606081525090565b6000604051905090565b600080fd5b600080fd5b600080fd5b600080fd5b600080fd5b60008083601f840112610e7757610e76610e52565b5b8235905067ffffffffffffffff811115610e9457610e93610e57565b5b602083019150836001820283011115610eb057610eaf610e5c565b5b9250929050565b600073ffffffffffffffffffffffffffffffffffffffff82169050919050565b6000610ee282610eb7565b9050919050565b610ef281610ed7565b8114610efd57600080fd5b50565b600081359050610f0f81610ee9565b92915050565b600080600060408486031215610f2e57610f2d610e48565b5b600084013567ffffffffffffffff811115610f4c57610f4b610e4d565b5b610f5886828701610e61565b93509350506020610f6b86828701610f00565b9150509250925092565b60008115159050919050565b610f8a81610f75565b82525050565b6000602082019050610fa56000830184610f81565b92915050565b6000819050919050565b6000610fd0610fcb610fc684610eb7565b610fab565b610eb7565b9050919050565b6000610fe282610fb5565b9050919050565b6000610ff482610fd7565b9050919050565b61100481610fe9565b82525050565b600060208201905061101f6000830184610ffb565b92915050565b6000806020838503121561103c5761103b610e48565b5b600083013567ffffffffffffffff81111561105a57611059610e4d565b5b61106685828601610e61565b92509250509250929050565b61107b81610ed7565b82525050565b60006020820190506110966000830184611072565b92915050565b6000819050919050565b6110af8161109c565b82525050565b60006040820190506110ca6000830185611072565b6110d760208301846110a6565b9392505050565b6110e78161109c565b81146110f257600080fd5b50565b600081359050611104816110de565b92915050565b6000602082840312156111205761111f610e48565b5b600061112e848285016110f5565b91505092915050565b600067ffffffffffffffff82169050919050565b61115481611137565b82525050565b600060208201905061116f600083018461114b565b92915050565b61117e81610f75565b811461118957600080fd5b50565b60008135905061119b81611175565b92915050565b6000806000604084860312156111ba576111b9610e48565b5b600084013567ffffffffffffffff8111156111d8576111d7610e4d565b5b6111e486828701610e61565b935093505060206111f78682870161118c565b9150509250925092565b600060208201905061121660008301846110a6565b92915050565b600080fd5b600061012082840312156112385761123761121c565b5b81905092915050565b60006020828403121561125757611256610e48565b5b600082013567ffffffffffffffff81111561127557611274610e4d565b5b61128184828501611221565b91505092915050565b6000819050919050565b61129d8161128a565b82525050565b60006020820190506112b86000830184611294565b92915050565b6000815190506112cd81610ee9565b92915050565b6000602082840312156112e9576112e8610e48565b5b60006112f7848285016112be565b91505092915050565b60008151905061130f81611175565b92915050565b60006020828403121561132b5761132a610e48565b5b600061133984828501611300565b91505092915050565b600080fd5b600080fd5b600080fd5b6000808335600160200384360303811261136e5761136d611342565b5b80840192508235915067ffffffffffffffff8211156113905761138f611347565b5b6020830192506001820236038313156113ac576113ab61134c565b5b509250929050565b6113bd81611137565b81146113c857600080fd5b50565b6000813590506113da816113b4565b92915050565b6000602082840312156113f6576113f5610e48565b5b6000611404848285016113cb565b91505092915050565b60006020828403121561142357611422610e48565b5b60006114318482850161118c565b91505092915050565b600060408201905061144f6000830185611294565b61145c602083018461114b565b9392505050565b60006020828403121561147957611478610e48565b5b600061148784828501610f00565b91505092915050565b600080fd5b6000601f19601f8301169050919050565b7f4e487b7100000000000000000000000000000000000000000000000000000000600052604160045260246000fd5b6114de82611495565b810181811067ffffffffffffffff821117156114fd576114fc6114a6565b5b80604052505050565b6000611510610e3e565b905061151c82826114d5565b919050565b600080fd5b600080fd5b600067ffffffffffffffff821115611546576115456114a6565b5b61154f82611495565b9050602081019050919050565b82818337600083830152505050565b600061157e6115798461152b565b611506565b90508281526020810184848401111561159a57611599611526565b5b6115a584828561155c565b509392505050565b600082601f8301126115c2576115c1610e52565b5b81356115d284826020860161156b565b91505092915050565b6000608082840312156115f1576115f0611490565b5b6115fb6080611506565b9050600061160b848285016110f5565b600083015250602061161f848285016110f5565b602083015250604061163384828501610f00565b604083015250606082013567ffffffffffffffff81111561165757611656611521565b5b611663848285016115ad565b60608301525092915050565b60006080828403121561168557611684611490565b5b61168f6080611506565b9050600061169f848285016110f5565b60008301525060206116b3848285016110f5565b60208301525060406116c784828501610f00565b604083015250606082013567ffffffffffffffff8111156116eb576116ea611521565b5b6116f7848285016115ad565b60608301525092915050565b600060a0828403121561171957611718611490565b5b61172360a0611506565b9050600061173384828501610f00565b6000830152506020611747848285016110f5565b602083015250604061175b848285016110f5565b604083015250606082013567ffffffffffffffff81111561177f5761177e611521565b5b61178b848285016115db565b606083015250608082013567ffffffffffffffff8111156117af576117ae611521565b5b6117bb8482850161166f565b60808301525092915050565b6000602082840312156117dd576117dc610e48565b5b600082013567ffffffffffffffff8111156117fb576117fa610e4d565b5b61180784828501611703565b91505092915050565b600080fd5b600080fd5b6000808585111561182e5761182d611810565b5b8386111561183f5761183e611815565b5b600185028301915084860390509450949250505056fea2646970667358221220b3e58c165480f52637cf7d48ee53e12e1f9bdfba3c1f914a59c0fb7a2a6a167964736f6c63430008170033","linkReferences":{}},"methodIdentifiers":{"CHAIN_ID()":"85e1f4d0","addToBlacklist(uint256)":"8b762e6c","decodeAmountIn(bytes,bool)":"9bbbb5c8","decodeDstSwap(bytes)":"3d898b1e","decodeSwapOutputToken(bytes)":"2db88323","isRouteBlacklisted(uint256)":"4487df2c","removeFromBlacklist(uint256)":"f14b5bd6","superRegistry()":"24c73dda","validateReceiver(bytes,address)":"1d51a3d7","validateTxData((bytes,uint64,uint64,uint64,bool,address,address,address,address))":"c87439eb"},"id":134}