{"abi":[{"type":"constructor","inputs":[{"name":"superRegistry_","type":"address","internalType":"address"}],"stateMutability":"nonpayable"},{"type":"function","name":"CHAIN_ID","inputs":[],"outputs":[{"name":"","type":"uint64","internalType":"uint64"}],"stateMutability":"view"},{"type":"function","name":"batchExecuteQueuedWithdrawal","inputs":[{"name":"ids_","type":"uint256[]","internalType":"uint256[]"}],"outputs":[],"stateMutability":"nonpayable"},{"type":"function","name":"executeQueuedWithdrawal","inputs":[{"name":"id_","type":"uint256","internalType":"uint256"}],"outputs":[],"stateMutability":"nonpayable"},{"type":"function","name":"queueCounter","inputs":[],"outputs":[{"name":"","type":"uint256","internalType":"uint256"}],"stateMutability":"view"},{"type":"function","name":"queueWithdrawal","inputs":[{"name":"data_","type":"tuple","internalType":"struct InitSingleVaultData","components":[{"name":"payloadId","type":"uint256","internalType":"uint256"},{"name":"superformId","type":"uint256","internalType":"uint256"},{"name":"amount","type":"uint256","internalType":"uint256"},{"name":"outputAmount","type":"uint256","internalType":"uint256"},{"name":"maxSlippage","type":"uint256","internalType":"uint256"},{"name":"liqData","type":"tuple","internalType":"struct LiqRequest","components":[{"name":"txData","type":"bytes","internalType":"bytes"},{"name":"token","type":"address","internalType":"address"},{"name":"interimToken","type":"address","internalType":"address"},{"name":"bridgeId","type":"uint8","internalType":"uint8"},{"name":"liqDstChainId","type":"uint64","internalType":"uint64"},{"name":"nativeAmount","type":"uint256","internalType":"uint256"}]},{"name":"hasDstSwap","type":"bool","internalType":"bool"},{"name":"retain4626","type":"bool","internalType":"bool"},{"name":"receiverAddress","type":"address","internalType":"address"},{"name":"extraFormData","type":"bytes","internalType":"bytes"}]}],"outputs":[],"stateMutability":"nonpayable"},{"type":"function","name":"queuedWithdrawal","inputs":[{"name":"id","type":"uint256","internalType":"uint256"}],"outputs":[{"name":"receiverAddress","type":"address","internalType":"address"},{"name":"superformId","type":"uint256","internalType":"uint256"},{"name":"amount","type":"uint256","internalType":"uint256"},{"name":"srcPayloadId","type":"uint256","internalType":"uint256"},{"name":"isProcessed","type":"bool","internalType":"bool"}],"stateMutability":"view"},{"type":"function","name":"queuedWithdrawalStatus","inputs":[{"name":"id","type":"uint256","internalType":"uint256"}],"outputs":[{"name":"","type":"bool","internalType":"bool"}],"stateMutability":"view"},{"type":"function","name":"superRegistry","inputs":[],"outputs":[{"name":"","type":"address","internalType":"contract ISuperRegistry"}],"stateMutability":"view"},{"type":"event","name":"WithdrawalProcessed","inputs":[{"name":"refundAddress","type":"address","indexed":true,"internalType":"address"},{"name":"id","type":"uint256","indexed":true,"internalType":"uint256"},{"name":"superformId","type":"uint256","indexed":true,"internalType":"uint256"},{"name":"amount","type":"uint256","indexed":false,"internalType":"uint256"}],"anonymous":false},{"type":"event","name":"WithdrawalQueued","inputs":[{"name":"receiverAddress","type":"address","indexed":true,"internalType":"address"},{"name":"id","type":"uint256","indexed":true,"internalType":"uint256"},{"name":"superformId","type":"uint256","indexed":true,"internalType":"uint256"},{"name":"amount","type":"uint256","indexed":false,"internalType":"uint256"},{"name":"srcPayloadId","type":"uint256","indexed":false,"internalType":"uint256"}],"anonymous":false},{"type":"error","name":"BLOCK_CHAIN_ID_OUT_OF_BOUNDS","inputs":[]},{"type":"error","name":"EMERGENCY_WITHDRAW_NOT_QUEUED","inputs":[]},{"type":"error","name":"EMERGENCY_WITHDRAW_PROCESSED_ALREADY","inputs":[]},{"type":"error","name":"INVALID_CHAIN_ID","inputs":[]},{"type":"error","name":"NOT_EMERGENCY_ADMIN","inputs":[]},{"type":"error","name":"NOT_SUPERFORM","inputs":[]},{"type":"error","name":"SUPERFORM_ID_NONEXISTENT","inputs":[]},{"type":"error","name":"ZERO_ADDRESS","inputs":[]}],"bytecode":{"object":"0x60c06040523480156200001157600080fd5b5060405162001650380380620016508339818101604052810190620000379190620001a4565b600073ffffffffffffffffffffffffffffffffffffffff168173ffffffffffffffffffffffffffffffffffffffff16036200009e576040517f538ba4f900000000000000000000000000000000000000000000000000000000815260040160405180910390fd5b67ffffffffffffffff8016461115620000e3576040517f7ecdf93300000000000000000000000000000000000000000000000000000000815260040160405180910390fd5b8073ffffffffffffffffffffffffffffffffffffffff1660808173ffffffffffffffffffffffffffffffffffffffff16815250504667ffffffffffffffff1660a08167ffffffffffffffff168152505050620001d6565b600080fd5b600073ffffffffffffffffffffffffffffffffffffffff82169050919050565b60006200016c826200013f565b9050919050565b6200017e816200015f565b81146200018a57600080fd5b50565b6000815190506200019e8162000173565b92915050565b600060208284031215620001bd57620001bc6200013a565b5b6000620001cd848285016200018d565b91505092915050565b60805160a05161143f62000211600039600061036d0152600081816101a1015281816101c501528181610391015261053f015261143f6000f3fe608060405234801561001057600080fd5b50600436106100885760003560e01c806385e1f4d01161005b57806385e1f4d0146101155780639a0167c414610133578063bfdf22ad1461014f578063dc82bcbf1461016b57610088565b806324c73dda1461008d57806343e819b7146100ab57806349caf5f5146100c757806361e13a15146100f7575b600080fd5b61009561019f565b6040516100a29190610bad565b60405180910390f35b6100c560048036038101906100c09190610c12565b6101c3565b005b6100e160048036038101906100dc9190610c12565b610338565b6040516100ee9190610c5a565b60405180910390f35b6100ff610365565b60405161010c9190610c84565b60405180910390f35b61011d61036b565b60405161012a9190610cc2565b60405180910390f35b61014d60048036038101906101489190610d42565b61038f565b005b61016960048036038101906101649190611193565b610538565b005b61018560048036038101906101809190610c12565b610886565b6040516101969594939291906111eb565b60405180910390f35b7f000000000000000000000000000000000000000000000000000000000000000081565b7f000000000000000000000000000000000000000000000000000000000000000073ffffffffffffffffffffffffffffffffffffffff166321f8a7217f6b50fa17b77d24e42e27a04b69fe50cd6967cfb767d18de0bd5fe7e1a32aa8686040518263ffffffff1660e01b815260040161023c9190611257565b602060405180830381865afa158015610259573d6000803e3d6000fd5b505050506040513d601f19601f8201168201806040525081019061027d9190611287565b73ffffffffffffffffffffffffffffffffffffffff16632f41ca96336040518263ffffffff1660e01b81526004016102b591906112b4565b602060405180830381865afa1580156102d2573d6000803e3d6000fd5b505050506040513d601f19601f820116820180604052508101906102f691906112e4565b61032c576040517f445b0c3a00000000000000000000000000000000000000000000000000000000815260040160405180910390fd5b610335816108e9565b50565b60006001600083815260200190815260200160002060040160009054906101000a900460ff169050919050565b60005481565b7f000000000000000000000000000000000000000000000000000000000000000081565b7f000000000000000000000000000000000000000000000000000000000000000073ffffffffffffffffffffffffffffffffffffffff166321f8a7217f6b50fa17b77d24e42e27a04b69fe50cd6967cfb767d18de0bd5fe7e1a32aa8686040518263ffffffff1660e01b81526004016104089190611257565b602060405180830381865afa158015610425573d6000803e3d6000fd5b505050506040513d601f19601f820116820180604052508101906104499190611287565b73ffffffffffffffffffffffffffffffffffffffff16632f41ca96336040518263ffffffff1660e01b815260040161048191906112b4565b602060405180830381865afa15801561049e573d6000803e3d6000fd5b505050506040513d601f19601f820116820180604052508101906104c291906112e4565b6104f8576040517f445b0c3a00000000000000000000000000000000000000000000000000000000815260040160405180910390fd5b60005b828290508110156105335761052883838381811061051c5761051b611311565b5b905060200201356108e9565b8060010190506104fb565b505050565b80602001517f000000000000000000000000000000000000000000000000000000000000000073ffffffffffffffffffffffffffffffffffffffff166321f8a7217fbcc180fb907e9ae431665de4bc74305c00b7b27442aadd477980ecc4bb14c0116040518263ffffffff1660e01b81526004016105b69190611257565b602060405180830381865afa1580156105d3573d6000803e3d6000fd5b505050506040513d601f19601f820116820180604052508101906105f79190611287565b73ffffffffffffffffffffffffffffffffffffffff1663b5c75697826040518263ffffffff1660e01b815260040161062f9190610c84565b602060405180830381865afa15801561064c573d6000803e3d6000fd5b505050506040513d601f19601f8201168201806040525081019061067091906112e4565b6106a6576040517fa412f06500000000000000000000000000000000000000000000000000000000815260040160405180910390fd5b60006106b182610acd565b505090508073ffffffffffffffffffffffffffffffffffffffff163373ffffffffffffffffffffffffffffffffffffffff161461071a576040517f5279abe600000000000000000000000000000000000000000000000000000000815260040160405180910390fd5b60008081546107289061136f565b919050819055506040518060a0016040528084610100015173ffffffffffffffffffffffffffffffffffffffff16815260200184602001518152602001846040015181526020018460000151815260200160001515815250600160008054815260200190815260200160002060008201518160000160006101000a81548173ffffffffffffffffffffffffffffffffffffffff021916908373ffffffffffffffffffffffffffffffffffffffff16021790555060208201518160010155604082015181600201556060820151816003015560808201518160040160006101000a81548160ff021916908315150217905550905050826020015160005484610100015173ffffffffffffffffffffffffffffffffffffffff167fa2bc034e3400735d5038171f4a52ede4ca8a21acc010aab81996a18301cdf0a3866040015187600001516040516108799291906113b7565b60405180910390a4505050565b60016020528060005260406000206000915090508060000160009054906101000a900473ffffffffffffffffffffffffffffffffffffffff16908060010154908060020154908060030154908060040160009054906101000a900460ff16905085565b6000600160008381526020019081526020016000209050600081600101540361093e576040517ffdafaf7600000000000000000000000000000000000000000000000000000000815260040160405180910390fd5b8060040160009054906101000a900460ff1615610987576040517f326a5eb200000000000000000000000000000000000000000000000000000000815260040160405180910390fd5b60018160040160006101000a81548160ff02191690831515021790555060006109b38260010154610acd565b505090508073ffffffffffffffffffffffffffffffffffffffff166395ccea678360000160009054906101000a900473ffffffffffffffffffffffffffffffffffffffff1684600201546040518363ffffffff1660e01b8152600401610a1a9291906113e0565b600060405180830381600087803b158015610a3457600080fd5b505af1158015610a48573d6000803e3d6000fd5b505050508160010154838360000160009054906101000a900473ffffffffffffffffffffffffffffffffffffffff1673ffffffffffffffffffffffffffffffffffffffff167fbe1e8e357f01b865f7bbd4055ed6fbaf1e3029820a3051bc7157277b813022b98560020154604051610ac09190610c84565b60405180910390a4505050565b600080600083925060a084901c915060c084901c905060008167ffffffffffffffff1603610b27576040517f030042b700000000000000000000000000000000000000000000000000000000815260040160405180910390fd5b9193909250565b600073ffffffffffffffffffffffffffffffffffffffff82169050919050565b6000819050919050565b6000610b73610b6e610b6984610b2e565b610b4e565b610b2e565b9050919050565b6000610b8582610b58565b9050919050565b6000610b9782610b7a565b9050919050565b610ba781610b8c565b82525050565b6000602082019050610bc26000830184610b9e565b92915050565b6000604051905090565b600080fd5b600080fd5b6000819050919050565b610bef81610bdc565b8114610bfa57600080fd5b50565b600081359050610c0c81610be6565b92915050565b600060208284031215610c2857610c27610bd2565b5b6000610c3684828501610bfd565b91505092915050565b60008115159050919050565b610c5481610c3f565b82525050565b6000602082019050610c6f6000830184610c4b565b92915050565b610c7e81610bdc565b82525050565b6000602082019050610c996000830184610c75565b92915050565b600067ffffffffffffffff82169050919050565b610cbc81610c9f565b82525050565b6000602082019050610cd76000830184610cb3565b92915050565b600080fd5b600080fd5b600080fd5b60008083601f840112610d0257610d01610cdd565b5b8235905067ffffffffffffffff811115610d1f57610d1e610ce2565b5b602083019150836020820283011115610d3b57610d3a610ce7565b5b9250929050565b60008060208385031215610d5957610d58610bd2565b5b600083013567ffffffffffffffff811115610d7757610d76610bd7565b5b610d8385828601610cec565b92509250509250929050565b600080fd5b6000601f19601f8301169050919050565b7f4e487b7100000000000000000000000000000000000000000000000000000000600052604160045260246000fd5b610ddd82610d94565b810181811067ffffffffffffffff82111715610dfc57610dfb610da5565b5b80604052505050565b6000610e0f610bc8565b9050610e1b8282610dd4565b919050565b600080fd5b600080fd5b600067ffffffffffffffff821115610e4557610e44610da5565b5b610e4e82610d94565b9050602081019050919050565b82818337600083830152505050565b6000610e7d610e7884610e2a565b610e05565b905082815260208101848484011115610e9957610e98610e25565b5b610ea4848285610e5b565b509392505050565b600082601f830112610ec157610ec0610cdd565b5b8135610ed1848260208601610e6a565b91505092915050565b6000610ee582610b2e565b9050919050565b610ef581610eda565b8114610f0057600080fd5b50565b600081359050610f1281610eec565b92915050565b600060ff82169050919050565b610f2e81610f18565b8114610f3957600080fd5b50565b600081359050610f4b81610f25565b92915050565b610f5a81610c9f565b8114610f6557600080fd5b50565b600081359050610f7781610f51565b92915050565b600060c08284031215610f9357610f92610d8f565b5b610f9d60c0610e05565b9050600082013567ffffffffffffffff811115610fbd57610fbc610e20565b5b610fc984828501610eac565b6000830152506020610fdd84828501610f03565b6020830152506040610ff184828501610f03565b604083015250606061100584828501610f3c565b606083015250608061101984828501610f68565b60808301525060a061102d84828501610bfd565b60a08301525092915050565b61104281610c3f565b811461104d57600080fd5b50565b60008135905061105f81611039565b92915050565b6000610140828403121561107c5761107b610d8f565b5b611087610140610e05565b9050600061109784828501610bfd565b60008301525060206110ab84828501610bfd565b60208301525060406110bf84828501610bfd565b60408301525060606110d384828501610bfd565b60608301525060806110e784828501610bfd565b60808301525060a082013567ffffffffffffffff81111561110b5761110a610e20565b5b61111784828501610f7d565b60a08301525060c061112b84828501611050565b60c08301525060e061113f84828501611050565b60e08301525061010061115484828501610f03565b6101008301525061012082013567ffffffffffffffff81111561117a57611179610e20565b5b61118684828501610eac565b6101208301525092915050565b6000602082840312156111a9576111a8610bd2565b5b600082013567ffffffffffffffff8111156111c7576111c6610bd7565b5b6111d384828501611065565b91505092915050565b6111e581610eda565b82525050565b600060a08201905061120060008301886111dc565b61120d6020830187610c75565b61121a6040830186610c75565b6112276060830185610c75565b6112346080830184610c4b565b9695505050505050565b6000819050919050565b6112518161123e565b82525050565b600060208201905061126c6000830184611248565b92915050565b60008151905061128181610eec565b92915050565b60006020828403121561129d5761129c610bd2565b5b60006112ab84828501611272565b91505092915050565b60006020820190506112c960008301846111dc565b92915050565b6000815190506112de81611039565b92915050565b6000602082840312156112fa576112f9610bd2565b5b6000611308848285016112cf565b91505092915050565b7f4e487b7100000000000000000000000000000000000000000000000000000000600052603260045260246000fd5b7f4e487b7100000000000000000000000000000000000000000000000000000000600052601160045260246000fd5b600061137a82610bdc565b91507fffffffffffffffffffffffffffffffffffffffffffffffffffffffffffffffff82036113ac576113ab611340565b5b600182019050919050565b60006040820190506113cc6000830185610c75565b6113d96020830184610c75565b9392505050565b60006040820190506113f560008301856111dc565b6114026020830184610c75565b939250505056fea2646970667358221220b0e56ed6676335e370e6e14fb70c00a839f1c4469cbfba39f3065b228c586eaf64736f6c63430008170033","linkReferences":{}},"methodIdentifiers":{"CHAIN_ID()":"85e1f4d0","batchExecuteQueuedWithdrawal(uint256[])":"9a0167c4","executeQueuedWithdrawal(uint256)":"43e819b7","queueCounter()":"61e13a15","queueWithdrawal((uint256,uint256,uint256,uint256,uint256,(bytes,address,address,uint8,uint64,uint256),bool,bool,address,bytes))":"bfdf22ad","queuedWithdrawal(uint256)":"dc82bcbf","queuedWithdrawalStatus(uint256)":"49caf5f5","superRegistry()":"24c73dda"},"id":111}