{"abi":[{"type":"constructor","inputs":[{"name":"superRegistry_","type":"address","internalType":"address"}],"stateMutability":"nonpayable"},{"type":"function","name":"CHAIN_ID","inputs":[],"outputs":[{"name":"","type":"uint64","internalType":"uint64"}],"stateMutability":"view"},{"type":"function","name":"batchClaim","inputs":[{"name":"receiver_","type":"address","internalType":"address"},{"name":"periodIds_","type":"uint256[]","internalType":"uint256[]"},{"name":"rewardTokens_","type":"address[][]","internalType":"address[][]"},{"name":"amountsClaimed_","type":"uint256[][]","internalType":"uint256[][]"},{"name":"proofs_","type":"bytes32[][]","internalType":"bytes32[][]"}],"outputs":[],"stateMutability":"nonpayable"},{"type":"function","name":"claim","inputs":[{"name":"receiver_","type":"address","internalType":"address"},{"name":"periodId_","type":"uint256","internalType":"uint256"},{"name":"rewardTokens_","type":"address[]","internalType":"address[]"},{"name":"amountsClaimed_","type":"uint256[]","internalType":"uint256[]"},{"name":"proof_","type":"bytes32[]","internalType":"bytes32[]"}],"outputs":[],"stateMutability":"nonpayable"},{"type":"function","name":"currentPeriodId","inputs":[],"outputs":[{"name":"","type":"uint256","internalType":"uint256"}],"stateMutability":"view"},{"type":"function","name":"periodicRewardsClaimed","inputs":[{"name":"periodId","type":"uint256","internalType":"uint256"},{"name":"claimerAddress","type":"address","internalType":"address"}],"outputs":[{"name":"claimed","type":"bool","internalType":"bool"}],"stateMutability":"view"},{"type":"function","name":"periodicRewardsMerkleRoot","inputs":[{"name":"periodId","type":"uint256","internalType":"uint256"}],"outputs":[{"name":"merkleRoot","type":"bytes32","internalType":"bytes32"}],"stateMutability":"view"},{"type":"function","name":"setPeriodicRewards","inputs":[{"name":"root_","type":"bytes32","internalType":"bytes32"}],"outputs":[],"stateMutability":"payable"},{"type":"function","name":"superRegistry","inputs":[],"outputs":[{"name":"","type":"address","internalType":"contract ISuperRegistry"}],"stateMutability":"view"},{"type":"function","name":"verifyClaim","inputs":[{"name":"claimer_","type":"address","internalType":"address"},{"name":"periodId_","type":"uint256","internalType":"uint256"},{"name":"rewardTokens_","type":"address[]","internalType":"address[]"},{"name":"amountsClaimed_","type":"uint256[]","internalType":"uint256[]"},{"name":"proof_","type":"bytes32[]","internalType":"bytes32[]"}],"outputs":[{"name":"valid","type":"bool","internalType":"bool"}],"stateMutability":"view"},{"type":"event","name":"PeriodicRewardsSet","inputs":[{"name":"periodId","type":"uint256","indexed":true,"internalType":"uint256"},{"name":"merkleRoot","type":"bytes32","indexed":false,"internalType":"bytes32"}],"anonymous":false},{"type":"event","name":"RewardsClaimed","inputs":[{"name":"claimer","type":"address","indexed":true,"internalType":"address"},{"name":"receiver","type":"address","indexed":true,"internalType":"address"},{"name":"periodId","type":"uint256","indexed":false,"internalType":"uint256"},{"name":"rewardTokens_","type":"address[]","indexed":false,"internalType":"address[]"},{"name":"amountsClaimed_","type":"uint256[]","indexed":false,"internalType":"uint256[]"}],"anonymous":false},{"type":"error","name":"AddressEmptyCode","inputs":[{"name":"target","type":"address","internalType":"address"}]},{"type":"error","name":"AddressInsufficientBalance","inputs":[{"name":"account","type":"address","internalType":"address"}]},{"type":"error","name":"BLOCK_CHAIN_ID_OUT_OF_BOUNDS","inputs":[]},{"type":"error","name":"FailedInnerCall","inputs":[]},{"type":"error","name":"INVALID_BATCH_REQ","inputs":[]},{"type":"error","name":"INVALID_CLAIM","inputs":[]},{"type":"error","name":"INVALID_MERKLE_ROOT","inputs":[]},{"type":"error","name":"INVALID_RECEIVER","inputs":[]},{"type":"error","name":"MERKLE_ROOT_NOT_SET","inputs":[]},{"type":"error","name":"NOT_REWARDS_ADMIN","inputs":[]},{"type":"error","name":"SafeERC20FailedOperation","inputs":[{"name":"token","type":"address","internalType":"address"}]},{"type":"error","name":"ZERO_ADDRESS","inputs":[]},{"type":"error","name":"ZERO_ARR_LENGTH","inputs":[]}],"bytecode":{"object":"0x60c06040523480156200001157600080fd5b5060405162001e8238038062001e828339818101604052810190620000379190620001a4565b600073ffffffffffffffffffffffffffffffffffffffff168173ffffffffffffffffffffffffffffffffffffffff16036200009e576040517f538ba4f900000000000000000000000000000000000000000000000000000000815260040160405180910390fd5b67ffffffffffffffff8016461115620000e3576040517f7ecdf93300000000000000000000000000000000000000000000000000000000815260040160405180910390fd5b8073ffffffffffffffffffffffffffffffffffffffff1660808173ffffffffffffffffffffffffffffffffffffffff16815250504667ffffffffffffffff1660a08167ffffffffffffffff168152505050620001d6565b600080fd5b600073ffffffffffffffffffffffffffffffffffffffff82169050919050565b60006200016c826200013f565b9050919050565b6200017e816200015f565b81146200018a57600080fd5b50565b6000815190506200019e8162000173565b92915050565b600060208284031215620001bd57620001bc6200013a565b5b6000620001cd848285016200018d565b91505092915050565b60805160a051611c786200020a600039600081816109310152610a3d01526000818161023301526104690152611c786000f3fe6080604052600436106100865760003560e01c80637426159111610059578063742615911461012457806385e1f4d0146101615780638d2ee7631461018c578063988e6595146101c9578063b6e5ef18146101f457610086565b80632462cbfb1461008b57806324c73dda146100a75780632ad75037146100d257806347575953146100fb575b600080fd5b6100a560048036038101906100a09190611015565b610231565b005b3480156100b357600080fd5b506100bc610467565b6040516100c991906110c1565b60405180910390f35b3480156100de57600080fd5b506100f960048036038101906100f49190611261565b61048b565b005b34801561010757600080fd5b50610122600480360381019061011d919061143f565b6105f8565b005b34801561013057600080fd5b5061014b6004803603810190610146919061153b565b610900565b6040516101589190611596565b60405180910390f35b34801561016d57600080fd5b5061017661092f565b60405161018391906115d4565b60405180910390f35b34801561019857600080fd5b506101b360048036038101906101ae91906115ef565b610953565b6040516101c0919061162b565b60405180910390f35b3480156101d557600080fd5b506101de61096b565b6040516101eb9190611655565b60405180910390f35b34801561020057600080fd5b5061021b60048036038101906102169190611261565b610971565b6040516102289190611596565b60405180910390f35b7f000000000000000000000000000000000000000000000000000000000000000073ffffffffffffffffffffffffffffffffffffffff166321f8a7217f6b50fa17b77d24e42e27a04b69fe50cd6967cfb767d18de0bd5fe7e1a32aa8686040518263ffffffff1660e01b81526004016102aa919061162b565b602060405180830381865afa1580156102c7573d6000803e3d6000fd5b505050506040513d601f19601f820116820180604052508101906102eb9190611685565b73ffffffffffffffffffffffffffffffffffffffff166391d148547fdb6fbae5cd13d8264d7ed12219ef2882c1e83b8b12f47819baa96f32f69a1682336040518363ffffffff1660e01b81526004016103459291906116c1565b602060405180830381865afa158015610362573d6000803e3d6000fd5b505050506040513d601f19601f820116820180604052508101906103869190611716565b6103bc576040517f6b950a2700000000000000000000000000000000000000000000000000000000815260040160405180910390fd5b6000801b81036103f8576040517fa3fccaba00000000000000000000000000000000000000000000000000000000815260040160405180910390fd5b600080549050816001600083815260200190815260200160002081905550600080815461042490611772565b91905081905550807f2fc34aa42cc5fe329942ebdb36d7eed96fe657efcaef0d8b7c2f77aea78247e18360405161045b919061162b565b60405180910390a25050565b7f000000000000000000000000000000000000000000000000000000000000000081565b600073ffffffffffffffffffffffffffffffffffffffff168873ffffffffffffffffffffffffffffffffffffffff16036104f1576040517f2b0ddb9100000000000000000000000000000000000000000000000000000000815260040160405180910390fd5b600086869050905060008103610533576040517f7935375d00000000000000000000000000000000000000000000000000000000815260040160405180910390fd5b84849050811461056f576040517f6385a2c400000000000000000000000000000000000000000000000000000000815260040160405180910390fd5b610580898989898989878a8a610b0d565b8873ffffffffffffffffffffffffffffffffffffffff163373ffffffffffffffffffffffffffffffffffffffff167f98ccd44fec17fcfcde09b0afc6bfc3e943dc858ff079d4c0fc60847f79f2cc1a8a8a8a8a8a6040516105e59594939291906118f8565b60405180910390a3505050505050505050565b600073ffffffffffffffffffffffffffffffffffffffff168973ffffffffffffffffffffffffffffffffffffffff160361065e576040517f2b0ddb9100000000000000000000000000000000000000000000000000000000815260040160405180910390fd5b6000888890509050600081036106a0576040517f7935375d00000000000000000000000000000000000000000000000000000000815260040160405180910390fd5b8282905081146106dc576040517f6385a2c400000000000000000000000000000000000000000000000000000000815260040160405180910390fd5b60005b818110156108f357600088889050905060008103610729576040517f7935375d00000000000000000000000000000000000000000000000000000000815260040160405180910390fd5b86868381811061073c5761073b611941565b5b905060200281019061074e919061197f565b90508114610788576040517f6385a2c400000000000000000000000000000000000000000000000000000000815260040160405180910390fd5b61081b8c8c8c8581811061079f5761079e611941565b5b905060200201358b8b868181106107b9576107b8611941565b5b90506020028101906107cb91906119e2565b8b8b888181106107de576107dd611941565b5b90506020028101906107f0919061197f565b878c8c8b81811061080457610803611941565b5b90506020028101906108169190611a45565b610b0d565b8b73ffffffffffffffffffffffffffffffffffffffff163373ffffffffffffffffffffffffffffffffffffffff167f98ccd44fec17fcfcde09b0afc6bfc3e943dc858ff079d4c0fc60847f79f2cc1a8d8d8681811061087d5761087c611941565b5b905060200201358c8c8781811061089757610896611941565b5b90506020028101906108a991906119e2565b8c8c898181106108bc576108bb611941565b5b90506020028101906108ce919061197f565b6040516108df9594939291906118f8565b60405180910390a3508060010190506106df565b5050505050505050505050565b60026020528160005260406000206020528060005260406000206000915091509054906101000a900460ff1681565b7f000000000000000000000000000000000000000000000000000000000000000081565b60016020528060005260406000206000915090505481565b60005481565b600080600160008a81526020019081526020016000205490506000801b81036109c6576040517f776e2dac00000000000000000000000000000000000000000000000000000000815260040160405180910390fd5b600260008a815260200190815260200160002060008b73ffffffffffffffffffffffffffffffffffffffff1673ffffffffffffffffffffffffffffffffffffffff16815260200190815260200160002060009054906101000a900460ff1615610a33576000915050610b01565b60008a8a8a8a8a8a7f0000000000000000000000000000000000000000000000000000000000000000604051602001610a729796959493929190611aa8565b60405160208183030381529060405280519060200120604051602001610a989190611b2e565b604051602081830303815290604052805190602001209050610afc858580806020026020016040519081016040528093929190818152602001838360200280828437600081840152601f19601f820116905080830192505050505050508383610bd5565b925050505b98975050505050505050565b610b1d3389898989898888610971565b610b53576040517f095f258300000000000000000000000000000000000000000000000000000000815260040160405180910390fd5b6001600260008a815260200190815260200160002060008b73ffffffffffffffffffffffffffffffffffffffff1673ffffffffffffffffffffffffffffffffffffffff16815260200190815260200160002060006101000a81548160ff021916908315150217905550610bca898888888888610bec565b505050505050505050565b600082610be28584610c76565b1490509392505050565b60005b81811015610c6d57610c6287858584818110610c0e57610c0d611941565b5b90506020020135888885818110610c2857610c27611941565b5b9050602002016020810190610c3d9190611b49565b73ffffffffffffffffffffffffffffffffffffffff16610cc69092919063ffffffff16565b806001019050610bef565b50505050505050565b60008082905060005b8451811015610cbb57610cac82868381518110610c9f57610c9e611941565b5b6020026020010151610d45565b91508080600101915050610c7f565b508091505092915050565b610d40838473ffffffffffffffffffffffffffffffffffffffff1663a9059cbb8585604051602401610cf9929190611b76565b604051602081830303815290604052915060e01b6020820180517bffffffffffffffffffffffffffffffffffffffffffffffffffffffff8381831617835250505050610d70565b505050565b6000818310610d5d57610d588284610e07565b610d68565b610d678383610e07565b5b905092915050565b6000610d9b828473ffffffffffffffffffffffffffffffffffffffff16610e1e90919063ffffffff16565b90506000815114158015610dc0575080806020019051810190610dbe9190611716565b155b15610e0257826040517f5274afe7000000000000000000000000000000000000000000000000000000008152600401610df99190611b9f565b60405180910390fd5b505050565b600082600052816020526040600020905092915050565b6060610e2c83836000610e34565b905092915050565b606081471015610e7b57306040517fcd786059000000000000000000000000000000000000000000000000000000008152600401610e729190611b9f565b60405180910390fd5b6000808573ffffffffffffffffffffffffffffffffffffffff168486604051610ea49190611c2b565b60006040518083038185875af1925050503d8060008114610ee1576040519150601f19603f3d011682016040523d82523d6000602084013e610ee6565b606091505b5091509150610ef6868383610f01565b925050509392505050565b606082610f1657610f1182610f90565b610f88565b60008251148015610f3e575060008473ffffffffffffffffffffffffffffffffffffffff163b145b15610f8057836040517f9996b315000000000000000000000000000000000000000000000000000000008152600401610f779190611b9f565b60405180910390fd5b819050610f89565b5b9392505050565b600081511115610fa35780518082602001fd5b6040517f1425ea4200000000000000000000000000000000000000000000000000000000815260040160405180910390fd5b600080fd5b600080fd5b6000819050919050565b610ff281610fdf565b8114610ffd57600080fd5b50565b60008135905061100f81610fe9565b92915050565b60006020828403121561102b5761102a610fd5565b5b600061103984828501611000565b91505092915050565b600073ffffffffffffffffffffffffffffffffffffffff82169050919050565b6000819050919050565b600061108761108261107d84611042565b611062565b611042565b9050919050565b60006110998261106c565b9050919050565b60006110ab8261108e565b9050919050565b6110bb816110a0565b82525050565b60006020820190506110d660008301846110b2565b92915050565b60006110e782611042565b9050919050565b6110f7816110dc565b811461110257600080fd5b50565b600081359050611114816110ee565b92915050565b6000819050919050565b61112d8161111a565b811461113857600080fd5b50565b60008135905061114a81611124565b92915050565b600080fd5b600080fd5b600080fd5b60008083601f84011261117557611174611150565b5b8235905067ffffffffffffffff81111561119257611191611155565b5b6020830191508360208202830111156111ae576111ad61115a565b5b9250929050565b60008083601f8401126111cb576111ca611150565b5b8235905067ffffffffffffffff8111156111e8576111e7611155565b5b6020830191508360208202830111156112045761120361115a565b5b9250929050565b60008083601f84011261122157611220611150565b5b8235905067ffffffffffffffff81111561123e5761123d611155565b5b60208301915083602082028301111561125a5761125961115a565b5b9250929050565b60008060008060008060008060a0898b03121561128157611280610fd5565b5b600061128f8b828c01611105565b98505060206112a08b828c0161113b565b975050604089013567ffffffffffffffff8111156112c1576112c0610fda565b5b6112cd8b828c0161115f565b9650965050606089013567ffffffffffffffff8111156112f0576112ef610fda565b5b6112fc8b828c016111b5565b9450945050608089013567ffffffffffffffff81111561131f5761131e610fda565b5b61132b8b828c0161120b565b92509250509295985092959890939650565b60008083601f84011261135357611352611150565b5b8235905067ffffffffffffffff8111156113705761136f611155565b5b60208301915083602082028301111561138c5761138b61115a565b5b9250929050565b60008083601f8401126113a9576113a8611150565b5b8235905067ffffffffffffffff8111156113c6576113c5611155565b5b6020830191508360208202830111156113e2576113e161115a565b5b9250929050565b60008083601f8401126113ff576113fe611150565b5b8235905067ffffffffffffffff81111561141c5761141b611155565b5b6020830191508360208202830111156114385761143761115a565b5b9250929050565b600080600080600080600080600060a08a8c03121561146157611460610fd5565b5b600061146f8c828d01611105565b99505060208a013567ffffffffffffffff8111156114905761148f610fda565b5b61149c8c828d016111b5565b985098505060408a013567ffffffffffffffff8111156114bf576114be610fda565b5b6114cb8c828d0161133d565b965096505060608a013567ffffffffffffffff8111156114ee576114ed610fda565b5b6114fa8c828d01611393565b945094505060808a013567ffffffffffffffff81111561151d5761151c610fda565b5b6115298c828d016113e9565b92509250509295985092959850929598565b6000806040838503121561155257611551610fd5565b5b60006115608582860161113b565b925050602061157185828601611105565b9150509250929050565b60008115159050919050565b6115908161157b565b82525050565b60006020820190506115ab6000830184611587565b92915050565b600067ffffffffffffffff82169050919050565b6115ce816115b1565b82525050565b60006020820190506115e960008301846115c5565b92915050565b60006020828403121561160557611604610fd5565b5b60006116138482850161113b565b91505092915050565b61162581610fdf565b82525050565b6000602082019050611640600083018461161c565b92915050565b61164f8161111a565b82525050565b600060208201905061166a6000830184611646565b92915050565b60008151905061167f816110ee565b92915050565b60006020828403121561169b5761169a610fd5565b5b60006116a984828501611670565b91505092915050565b6116bb816110dc565b82525050565b60006040820190506116d6600083018561161c565b6116e360208301846116b2565b9392505050565b6116f38161157b565b81146116fe57600080fd5b50565b600081519050611710816116ea565b92915050565b60006020828403121561172c5761172b610fd5565b5b600061173a84828501611701565b91505092915050565b7f4e487b7100000000000000000000000000000000000000000000000000000000600052601160045260246000fd5b600061177d8261111a565b91507fffffffffffffffffffffffffffffffffffffffffffffffffffffffffffffffff82036117af576117ae611743565b5b600182019050919050565b600082825260208201905092915050565b6000819050919050565b6117de816110dc565b82525050565b60006117f083836117d5565b60208301905092915050565b600061180b6020840184611105565b905092915050565b6000602082019050919050565b600061182c83856117ba565b9350611837826117cb565b8060005b858110156118705761184d82846117fc565b61185788826117e4565b975061186283611813565b92505060018101905061183b565b5085925050509392505050565b600082825260208201905092915050565b600080fd5b82818337505050565b60006118a8838561187d565b93507f07ffffffffffffffffffffffffffffffffffffffffffffffffffffffffffffff8311156118db576118da61188e565b5b6020830292506118ec838584611893565b82840190509392505050565b600060608201905061190d6000830188611646565b8181036020830152611920818688611820565b9050818103604083015261193581848661189c565b90509695505050505050565b7f4e487b7100000000000000000000000000000000000000000000000000000000600052603260045260246000fd5b600080fd5b600080fd5b600080fd5b6000808335600160200384360303811261199c5761199b611970565b5b80840192508235915067ffffffffffffffff8211156119be576119bd611975565b5b6020830192506020820236038313156119da576119d961197a565b5b509250929050565b600080833560016020038436030381126119ff576119fe611970565b5b80840192508235915067ffffffffffffffff821115611a2157611a20611975565b5b602083019250602082023603831315611a3d57611a3c61197a565b5b509250929050565b60008083356001602003843603038112611a6257611a61611970565b5b80840192508235915067ffffffffffffffff821115611a8457611a83611975565b5b602083019250602082023603831315611aa057611a9f61197a565b5b509250929050565b600060a082019050611abd600083018a6116b2565b611aca6020830189611646565b8181036040830152611add818789611820565b90508181036060830152611af281858761189c565b9050611b0160808301846115c5565b98975050505050505050565b6000819050919050565b611b28611b2382610fdf565b611b0d565b82525050565b6000611b3a8284611b17565b60208201915081905092915050565b600060208284031215611b5f57611b5e610fd5565b5b6000611b6d84828501611105565b91505092915050565b6000604082019050611b8b60008301856116b2565b611b986020830184611646565b9392505050565b6000602082019050611bb460008301846116b2565b92915050565b600081519050919050565b600081905092915050565b60005b83811015611bee578082015181840152602081019050611bd3565b60008484015250505050565b6000611c0582611bba565b611c0f8185611bc5565b9350611c1f818560208601611bd0565b80840191505092915050565b6000611c378284611bfa565b91508190509291505056fea2646970667358221220f906ba4e936c40baa13f0dd568d04ec1456de31cd418c1bd78c72132b8a1a54464736f6c63430008170033","linkReferences":{}},"methodIdentifiers":{"CHAIN_ID()":"85e1f4d0","batchClaim(address,uint256[],address[][],uint256[][],bytes32[][])":"47575953","claim(address,uint256,address[],uint256[],bytes32[])":"2ad75037","currentPeriodId()":"988e6595","periodicRewardsClaimed(uint256,address)":"74261591","periodicRewardsMerkleRoot(uint256)":"8d2ee763","setPeriodicRewards(bytes32)":"2462cbfb","superRegistry()":"24c73dda","verifyClaim(address,uint256,address[],uint256[],bytes32[])":"b6e5ef18"},"id":112}