{"abi":[{"type":"constructor","inputs":[{"name":"superRegistry_","type":"address","internalType":"contract ISuperRegistry"}],"stateMutability":"nonpayable"},{"type":"function","name":"ambChainId","inputs":[{"name":"","type":"uint64","internalType":"uint64"}],"outputs":[{"name":"","type":"uint16","internalType":"uint16"}],"stateMutability":"view"},{"type":"function","name":"authorizedImpl","inputs":[{"name":"","type":"uint16","internalType":"uint16"}],"outputs":[{"name":"","type":"address","internalType":"address"}],"stateMutability":"view"},{"type":"function","name":"dispatchPayload","inputs":[{"name":"srcSender_","type":"address","internalType":"address"},{"name":"dstChainId_","type":"uint64","internalType":"uint64"},{"name":"message_","type":"bytes","internalType":"bytes"},{"name":"extraData_","type":"bytes","internalType":"bytes"}],"outputs":[],"stateMutability":"payable"},{"type":"function","name":"estimateFees","inputs":[{"name":"dstChainId_","type":"uint64","internalType":"uint64"},{"name":"","type":"bytes","internalType":"bytes"},{"name":"extraData_","type":"bytes","internalType":"bytes"}],"outputs":[{"name":"fees","type":"uint256","internalType":"uint256"}],"stateMutability":"view"},{"type":"function","name":"generateExtraData","inputs":[{"name":"gasLimit","type":"uint256","internalType":"uint256"}],"outputs":[{"name":"extraData","type":"bytes","internalType":"bytes"}],"stateMutability":"pure"},{"type":"function","name":"processedMessages","inputs":[{"name":"","type":"bytes32","internalType":"bytes32"}],"outputs":[{"name":"","type":"bool","internalType":"bool"}],"stateMutability":"view"},{"type":"function","name":"receiveWormholeMessages","inputs":[{"name":"payload_","type":"bytes","internalType":"bytes"},{"name":"","type":"bytes[]","internalType":"bytes[]"},{"name":"sourceAddress_","type":"bytes32","internalType":"bytes32"},{"name":"sourceChain_","type":"uint16","internalType":"uint16"},{"name":"deliveryHash_","type":"bytes32","internalType":"bytes32"}],"outputs":[],"stateMutability":"payable"},{"type":"function","name":"refundChainId","inputs":[],"outputs":[{"name":"","type":"uint16","internalType":"uint16"}],"stateMutability":"view"},{"type":"function","name":"relayer","inputs":[],"outputs":[{"name":"","type":"address","internalType":"contract IWormholeRelayer"}],"stateMutability":"view"},{"type":"function","name":"retryPayload","inputs":[{"name":"data_","type":"bytes","internalType":"bytes"}],"outputs":[],"stateMutability":"payable"},{"type":"function","name":"setChainId","inputs":[{"name":"superChainId_","type":"uint64","internalType":"uint64"},{"name":"ambChainId_","type":"uint16","internalType":"uint16"}],"outputs":[],"stateMutability":"nonpayable"},{"type":"function","name":"setReceiver","inputs":[{"name":"chainId_","type":"uint16","internalType":"uint16"},{"name":"authorizedImpl_","type":"address","internalType":"address"}],"outputs":[],"stateMutability":"nonpayable"},{"type":"function","name":"setRefundChainId","inputs":[{"name":"refundChainId_","type":"uint16","internalType":"uint16"}],"outputs":[],"stateMutability":"nonpayable"},{"type":"function","name":"setWormholeRelayer","inputs":[{"name":"relayer_","type":"address","internalType":"address"}],"outputs":[],"stateMutability":"nonpayable"},{"type":"function","name":"superChainId","inputs":[{"name":"","type":"uint16","internalType":"uint16"}],"outputs":[{"name":"","type":"uint64","internalType":"uint64"}],"stateMutability":"view"},{"type":"function","name":"superRegistry","inputs":[],"outputs":[{"name":"","type":"address","internalType":"contract ISuperRegistry"}],"stateMutability":"view"},{"type":"event","name":"AuthorizedImplAdded","inputs":[{"name":"superChainId","type":"uint64","indexed":true,"internalType":"uint64"},{"name":"authImpl","type":"address","indexed":true,"internalType":"address"}],"anonymous":false},{"type":"event","name":"ChainAdded","inputs":[{"name":"superChainId","type":"uint64","indexed":true,"internalType":"uint64"}],"anonymous":false},{"type":"event","name":"WormholeRefundChainIdSet","inputs":[{"name":"refundChainId","type":"uint16","indexed":true,"internalType":"uint16"}],"anonymous":false},{"type":"event","name":"WormholeRelayerSet","inputs":[{"name":"wormholeRelayer","type":"address","indexed":true,"internalType":"address"}],"anonymous":false},{"type":"error","name":"CALLER_NOT_RELAYER","inputs":[]},{"type":"error","name":"DUPLICATE_PAYLOAD","inputs":[]},{"type":"error","name":"FAILED_TO_SEND_NATIVE","inputs":[]},{"type":"error","name":"INVALID_CHAIN_ID","inputs":[]},{"type":"error","name":"INVALID_RETRY_FEE","inputs":[]},{"type":"error","name":"INVALID_SRC_SENDER","inputs":[]},{"type":"error","name":"NOT_PROTOCOL_ADMIN","inputs":[]},{"type":"error","name":"NOT_STATE_REGISTRY","inputs":[]},{"type":"error","name":"NotAnEvmAddress","inputs":[{"name":"","type":"bytes32","internalType":"bytes32"}]},{"type":"error","name":"REFUND_CHAIN_ID_NOT_SET","inputs":[]},{"type":"error","name":"ZERO_ADDRESS","inputs":[]}],"bytecode":{"object":"0x60a06040523480156200001157600080fd5b5060405162002c7b38038062002c7b8339818101604052810190620000379190620000f0565b8073ffffffffffffffffffffffffffffffffffffffff1660808173ffffffffffffffffffffffffffffffffffffffff16815250505062000122565b600080fd5b600073ffffffffffffffffffffffffffffffffffffffff82169050919050565b6000620000a48262000077565b9050919050565b6000620000b88262000097565b9050919050565b620000ca81620000ab565b8114620000d657600080fd5b50565b600081519050620000ea81620000bf565b92915050565b60006020828403121562000109576200010862000072565b5b60006200011984828501620000d9565b91505092915050565b608051612b1362000168600039600081816106ee01528181610a6401528181610ab401528181610f48015281816111180152818161131001526115800152612b136000f3fe6080604052600436106100f35760003560e01c80638406c0791161008a578063e159378d11610059578063e159378d146102ff578063ea98b14714610328578063efda82d714610365578063f2d39b60146103a2576100f3565b80638406c0791461025257806388ba16ab1461027d5780638a080c53146102ba5780639783d0ef146102e3576100f3565b806324c73dda116100c657806324c73dda146101a557806325fc6dd0146101d05780634cff9f1d1461020d578063529dca3214610236576100f3565b806309bec2c1146100f85780630eed6e6f146101355780630fbb7cbc1461016057806310d06fd41461017c575b600080fd5b34801561010457600080fd5b5061011f600480360381019061011a9190611ad4565b6103df565b60405161012c9190611b1e565b60405180910390f35b34801561014157600080fd5b5061014a610400565b6040516101579190611b1e565b60405180910390f35b61017a60048036038101906101759190611c7f565b610414565b005b34801561018857600080fd5b506101a3600480360381019061019e9190611cf4565b6106ec565b005b3480156101b157600080fd5b506101ba610a62565b6040516101c79190611db3565b60405180910390f35b3480156101dc57600080fd5b506101f760048036038101906101f29190611e04565b610a86565b6040516102049190611eb0565b60405180910390f35b34801561021957600080fd5b50610234600480360381019061022f9190611f10565b610ab2565b005b610250600480360381019061024b919061206c565b610d65565b005b34801561025e57600080fd5b506102676110d2565b6040516102749190612140565b60405180910390f35b34801561028957600080fd5b506102a4600480360381019061029f919061215b565b6110f6565b6040516102b191906121a3565b60405180910390f35b3480156102c657600080fd5b506102e160048036038101906102dc91906121be565b611116565b005b6102fd60048036038101906102f891906121eb565b61130e565b005b34801561030b57600080fd5b506103266004803603810190610321919061228a565b61157e565b005b34801561033457600080fd5b5061034f600480360381019061034a91906122b7565b611848565b60405161035c9190612351565b60405180910390f35b34801561037157600080fd5b5061038c600480360381019061038791906121be565b611996565b604051610399919061237b565b60405180910390f35b3480156103ae57600080fd5b506103c960048036038101906103c491906121be565b6119c9565b6040516103d691906123a5565b60405180910390f35b60016020528060005260406000206000915054906101000a900461ffff1681565b600060149054906101000a900461ffff1681565b60008060008060008580602001905181019061043091906124c0565b9450945094509450945060008060009054906101000a900473ffffffffffffffffffffffffffffffffffffffff1673ffffffffffffffffffffffffffffffffffffffff1663c23ee3c3866000866040518463ffffffff1660e01b815260040161049b93929190612576565b6040805180830381865afa1580156104b7573d6000803e3d6000fd5b505050506040513d601f19601f820116820180604052508101906104db91906125ad565b50905080341015610518576040517f719628a700000000000000000000000000000000000000000000000000000000815260040160405180910390fd5b600073ffffffffffffffffffffffffffffffffffffffff168273ffffffffffffffffffffffffffffffffffffffff160361057e576040517f538ba4f900000000000000000000000000000000000000000000000000000000815260040160405180910390fd5b60008054906101000a900473ffffffffffffffffffffffffffffffffffffffff1673ffffffffffffffffffffffffffffffffffffffff16638b0301b18288888888886040518763ffffffff1660e01b81526004016105e095949392919061265c565b60206040518083038185885af11580156105fe573d6000803e3d6000fd5b50505050506040513d601f19601f8201168201806040525081019061062391906126af565b5060008134610632919061270b565b905060008111156106e25760003373ffffffffffffffffffffffffffffffffffffffff168260405161066390612770565b60006040518083038185875af1925050503d80600081146106a0576040519150601f19603f3d011682016040523d82523d6000602084013e6106a5565b606091505b50509050806106e0576040517f220d375300000000000000000000000000000000000000000000000000000000815260040160405180910390fd5b505b5050505050505050565b7f000000000000000000000000000000000000000000000000000000000000000073ffffffffffffffffffffffffffffffffffffffff166321f8a7217f6b50fa17b77d24e42e27a04b69fe50cd6967cfb767d18de0bd5fe7e1a32aa8686040518263ffffffff1660e01b81526004016107659190612794565b602060405180830381865afa158015610782573d6000803e3d6000fd5b505050506040513d601f19601f820116820180604052508101906107a691906127c4565b73ffffffffffffffffffffffffffffffffffffffff1663d35911f2336040518263ffffffff1660e01b81526004016107de919061237b565b602060405180830381865afa1580156107fb573d6000803e3d6000fd5b505050506040513d601f19601f8201168201806040525081019061081f919061281d565b610855576040517fdc85555400000000000000000000000000000000000000000000000000000000815260040160405180910390fd5b60008267ffffffffffffffff161480610872575060008161ffff16145b156108a9576040517f030042b700000000000000000000000000000000000000000000000000000000815260040160405180910390fd5b6000600260008361ffff1661ffff16815260200190815260200160002060009054906101000a900467ffffffffffffffff1690506000600160008567ffffffffffffffff1667ffffffffffffffff16815260200190815260200160002060009054906101000a900461ffff16905060008267ffffffffffffffff161461096257600160008367ffffffffffffffff1667ffffffffffffffff16815260200190815260200160002060006101000a81549061ffff02191690555b60008161ffff16146109a157600260008261ffff1661ffff16815260200190815260200160002060006101000a81549067ffffffffffffffff02191690555b82600160008667ffffffffffffffff1667ffffffffffffffff16815260200190815260200160002060006101000a81548161ffff021916908361ffff16021790555083600260008561ffff1661ffff16815260200190815260200160002060006101000a81548167ffffffffffffffff021916908367ffffffffffffffff1602179055508367ffffffffffffffff167ff9506a27dd49e1563cbf7882f3e8dfb3c25fa4a4d610e8f4b0a30a145b4f685e60405160405180910390a250505050565b7f000000000000000000000000000000000000000000000000000000000000000081565b6060600082604051602001610a9c929190612888565b6040516020818303038152906040529050919050565b7f000000000000000000000000000000000000000000000000000000000000000073ffffffffffffffffffffffffffffffffffffffff166321f8a7217f6b50fa17b77d24e42e27a04b69fe50cd6967cfb767d18de0bd5fe7e1a32aa8686040518263ffffffff1660e01b8152600401610b2b9190612794565b602060405180830381865afa158015610b48573d6000803e3d6000fd5b505050506040513d601f19601f82011682018060405250810190610b6c91906127c4565b73ffffffffffffffffffffffffffffffffffffffff1663d35911f2336040518263ffffffff1660e01b8152600401610ba4919061237b565b602060405180830381865afa158015610bc1573d6000803e3d6000fd5b505050506040513d601f19601f82011682018060405250810190610be5919061281d565b610c1b576040517fdc85555400000000000000000000000000000000000000000000000000000000815260040160405180910390fd5b60008261ffff1603610c59576040517f030042b700000000000000000000000000000000000000000000000000000000815260040160405180910390fd5b600073ffffffffffffffffffffffffffffffffffffffff168173ffffffffffffffffffffffffffffffffffffffff1603610cbf576040517f538ba4f900000000000000000000000000000000000000000000000000000000815260040160405180910390fd5b80600360008461ffff1661ffff16815260200190815260200160002060006101000a81548173ffffffffffffffffffffffffffffffffffffffff021916908373ffffffffffffffffffffffffffffffffffffffff1602179055508073ffffffffffffffffffffffffffffffffffffffff168261ffff167f11638aacb08f0e5f6147baa54ac1e71c77eff335bc6e6afa8a20f53a80693e5260405160405180910390a35050565b60008054906101000a900473ffffffffffffffffffffffffffffffffffffffff1673ffffffffffffffffffffffffffffffffffffffff163373ffffffffffffffffffffffffffffffffffffffff1614610dea576040517f5aa1e94500000000000000000000000000000000000000000000000000000000815260040160405180910390fd5b600360008361ffff1661ffff16815260200190815260200160002060009054906101000a900473ffffffffffffffffffffffffffffffffffffffff1673ffffffffffffffffffffffffffffffffffffffff16610e45846119f0565b73ffffffffffffffffffffffffffffffffffffffff1614610e92576040517f1d527bfc00000000000000000000000000000000000000000000000000000000815260040160405180910390fd5b6004600082815260200190815260200160002060009054906101000a900460ff1615610eea576040517f86041c9d00000000000000000000000000000000000000000000000000000000815260040160405180910390fd5b60016004600083815260200190815260200160002060006101000a81548160ff021916908315150217905550600085806020019051810190610f2c919061298d565b90506000610f3d8260000151611a48565b5050935050505060007f000000000000000000000000000000000000000000000000000000000000000073ffffffffffffffffffffffffffffffffffffffff166357203ab4836040518263ffffffff1660e01b8152600401610f9f91906129e5565b602060405180830381865afa158015610fbc573d6000803e3d6000fd5b505050506040513d601f19601f82011682018060405250810190610fe091906127c4565b90506000600260008761ffff1661ffff16815260200190815260200160002060009054906101000a900467ffffffffffffffff16905060008167ffffffffffffffff160361105a576040517f030042b700000000000000000000000000000000000000000000000000000000815260040160405180910390fd5b8173ffffffffffffffffffffffffffffffffffffffff1663cc2d8abd828b6040518363ffffffff1660e01b8152600401611095929190612a00565b600060405180830381600087803b1580156110af57600080fd5b505af11580156110c3573d6000803e3d6000fd5b50505050505050505050505050565b60008054906101000a900473ffffffffffffffffffffffffffffffffffffffff1681565b60046020528060005260406000206000915054906101000a900460ff1681565b7f000000000000000000000000000000000000000000000000000000000000000073ffffffffffffffffffffffffffffffffffffffff166321f8a7217f6b50fa17b77d24e42e27a04b69fe50cd6967cfb767d18de0bd5fe7e1a32aa8686040518263ffffffff1660e01b815260040161118f9190612794565b602060405180830381865afa1580156111ac573d6000803e3d6000fd5b505050506040513d601f19601f820116820180604052508101906111d091906127c4565b73ffffffffffffffffffffffffffffffffffffffff1663d35911f2336040518263ffffffff1660e01b8152600401611208919061237b565b602060405180830381865afa158015611225573d6000803e3d6000fd5b505050506040513d601f19601f82011682018060405250810190611249919061281d565b61127f576040517fdc85555400000000000000000000000000000000000000000000000000000000815260040160405180910390fd5b60008161ffff16036112bd576040517f030042b700000000000000000000000000000000000000000000000000000000815260040160405180910390fd5b80600060146101000a81548161ffff021916908361ffff1602179055508061ffff167fe80ad62e1121e22687ac652d09b76f4b5a78181aeb15adcf9eb9495ee17d7bdc60405160405180910390a250565b7f000000000000000000000000000000000000000000000000000000000000000073ffffffffffffffffffffffffffffffffffffffff1663eeaf54aa336040518263ffffffff1660e01b8152600401611367919061237b565b602060405180830381865afa158015611384573d6000803e3d6000fd5b505050506040513d601f19601f820116820180604052508101906113a8919061281d565b6113de576040517f60e6a64e00000000000000000000000000000000000000000000000000000000815260040160405180910390fd5b60008060149054906101000a900461ffff1661ffff160361142b576040517f789bb36b00000000000000000000000000000000000000000000000000000000815260040160405180910390fd5b6000600160008567ffffffffffffffff1667ffffffffffffffff16815260200190815260200160002060009054906101000a900461ffff1690506000808380602001905181019061147c91906125ad565b9150915060008054906101000a900473ffffffffffffffffffffffffffffffffffffffff1673ffffffffffffffffffffffffffffffffffffffff16634b5ca6f43485600360008861ffff1661ffff16815260200190815260200160002060009054906101000a900473ffffffffffffffffffffffffffffffffffffffff16898787600060149054906101000a900461ffff168f6040518963ffffffff1660e01b81526004016115319796959493929190612a30565b60206040518083038185885af115801561154f573d6000803e3d6000fd5b50505050506040513d601f19601f8201168201806040525081019061157491906126af565b5050505050505050565b7f000000000000000000000000000000000000000000000000000000000000000073ffffffffffffffffffffffffffffffffffffffff166321f8a7217f6b50fa17b77d24e42e27a04b69fe50cd6967cfb767d18de0bd5fe7e1a32aa8686040518263ffffffff1660e01b81526004016115f79190612794565b602060405180830381865afa158015611614573d6000803e3d6000fd5b505050506040513d601f19601f8201168201806040525081019061163891906127c4565b73ffffffffffffffffffffffffffffffffffffffff1663d35911f2336040518263ffffffff1660e01b8152600401611670919061237b565b602060405180830381865afa15801561168d573d6000803e3d6000fd5b505050506040513d601f19601f820116820180604052508101906116b1919061281d565b6116e7576040517fdc85555400000000000000000000000000000000000000000000000000000000815260040160405180910390fd5b600073ffffffffffffffffffffffffffffffffffffffff168173ffffffffffffffffffffffffffffffffffffffff160361174d576040517f538ba4f900000000000000000000000000000000000000000000000000000000815260040160405180910390fd5b600073ffffffffffffffffffffffffffffffffffffffff1660008054906101000a900473ffffffffffffffffffffffffffffffffffffffff1673ffffffffffffffffffffffffffffffffffffffff160361184557806000806101000a81548173ffffffffffffffffffffffffffffffffffffffff021916908373ffffffffffffffffffffffffffffffffffffffff16021790555060008054906101000a900473ffffffffffffffffffffffffffffffffffffffff1673ffffffffffffffffffffffffffffffffffffffff167ffb7652f525377da195dcf924a95947d3547d6be4e1491aff90df8cb28d58ae4f60405160405180910390a25b50565b600080600080845114611872578380602001905181019061186991906125ad565b80925081935050505b6000600160008867ffffffffffffffff1667ffffffffffffffff16815260200190815260200160002060009054906101000a900461ffff16905060008161ffff16036118ea576040517f030042b700000000000000000000000000000000000000000000000000000000815260040160405180910390fd5b60008054906101000a900473ffffffffffffffffffffffffffffffffffffffff1673ffffffffffffffffffffffffffffffffffffffff1663c23ee3c38285856040518463ffffffff1660e01b815260040161194793929190612aa6565b6040805180830381865afa158015611963573d6000803e3d6000fd5b505050506040513d601f19601f8201168201806040525081019061198791906125ad565b50809450505050509392505050565b60036020528060005260406000206000915054906101000a900473ffffffffffffffffffffffffffffffffffffffff1681565b60026020528060005260406000206000915054906101000a900467ffffffffffffffff1681565b60008060a08360001c901c14611a3d57816040517f33b960d0000000000000000000000000000000000000000000000000000000008152600401611a349190612794565b60405180910390fd5b8160001c9050919050565b600080600080600080869550600887901c9450601087901c9350601887901c9250602087901c915060c087901c905091939550919395565b6000604051905090565b600080fd5b600080fd5b600067ffffffffffffffff82169050919050565b611ab181611a94565b8114611abc57600080fd5b50565b600081359050611ace81611aa8565b92915050565b600060208284031215611aea57611ae9611a8a565b5b6000611af884828501611abf565b91505092915050565b600061ffff82169050919050565b611b1881611b01565b82525050565b6000602082019050611b336000830184611b0f565b92915050565b600080fd5b600080fd5b6000601f19601f8301169050919050565b7f4e487b7100000000000000000000000000000000000000000000000000000000600052604160045260246000fd5b611b8c82611b43565b810181811067ffffffffffffffff82111715611bab57611baa611b54565b5b80604052505050565b6000611bbe611a80565b9050611bca8282611b83565b919050565b600067ffffffffffffffff821115611bea57611be9611b54565b5b611bf382611b43565b9050602081019050919050565b82818337600083830152505050565b6000611c22611c1d84611bcf565b611bb4565b905082815260208101848484011115611c3e57611c3d611b3e565b5b611c49848285611c00565b509392505050565b600082601f830112611c6657611c65611b39565b5b8135611c76848260208601611c0f565b91505092915050565b600060208284031215611c9557611c94611a8a565b5b600082013567ffffffffffffffff811115611cb357611cb2611a8f565b5b611cbf84828501611c51565b91505092915050565b611cd181611b01565b8114611cdc57600080fd5b50565b600081359050611cee81611cc8565b92915050565b60008060408385031215611d0b57611d0a611a8a565b5b6000611d1985828601611abf565b9250506020611d2a85828601611cdf565b9150509250929050565b600073ffffffffffffffffffffffffffffffffffffffff82169050919050565b6000819050919050565b6000611d79611d74611d6f84611d34565b611d54565b611d34565b9050919050565b6000611d8b82611d5e565b9050919050565b6000611d9d82611d80565b9050919050565b611dad81611d92565b82525050565b6000602082019050611dc86000830184611da4565b92915050565b6000819050919050565b611de181611dce565b8114611dec57600080fd5b50565b600081359050611dfe81611dd8565b92915050565b600060208284031215611e1a57611e19611a8a565b5b6000611e2884828501611def565b91505092915050565b600081519050919050565b600082825260208201905092915050565b60005b83811015611e6b578082015181840152602081019050611e50565b60008484015250505050565b6000611e8282611e31565b611e8c8185611e3c565b9350611e9c818560208601611e4d565b611ea581611b43565b840191505092915050565b60006020820190508181036000830152611eca8184611e77565b905092915050565b6000611edd82611d34565b9050919050565b611eed81611ed2565b8114611ef857600080fd5b50565b600081359050611f0a81611ee4565b92915050565b60008060408385031215611f2757611f26611a8a565b5b6000611f3585828601611cdf565b9250506020611f4685828601611efb565b9150509250929050565b600067ffffffffffffffff821115611f6b57611f6a611b54565b5b602082029050602081019050919050565b600080fd5b6000611f94611f8f84611f50565b611bb4565b90508083825260208201905060208402830185811115611fb757611fb6611f7c565b5b835b81811015611ffe57803567ffffffffffffffff811115611fdc57611fdb611b39565b5b808601611fe98982611c51565b85526020850194505050602081019050611fb9565b5050509392505050565b600082601f83011261201d5761201c611b39565b5b813561202d848260208601611f81565b91505092915050565b6000819050919050565b61204981612036565b811461205457600080fd5b50565b60008135905061206681612040565b92915050565b600080600080600060a0868803121561208857612087611a8a565b5b600086013567ffffffffffffffff8111156120a6576120a5611a8f565b5b6120b288828901611c51565b955050602086013567ffffffffffffffff8111156120d3576120d2611a8f565b5b6120df88828901612008565b94505060406120f088828901612057565b935050606061210188828901611cdf565b925050608061211288828901612057565b9150509295509295909350565b600061212a82611d80565b9050919050565b61213a8161211f565b82525050565b60006020820190506121556000830184612131565b92915050565b60006020828403121561217157612170611a8a565b5b600061217f84828501612057565b91505092915050565b60008115159050919050565b61219d81612188565b82525050565b60006020820190506121b86000830184612194565b92915050565b6000602082840312156121d4576121d3611a8a565b5b60006121e284828501611cdf565b91505092915050565b6000806000806080858703121561220557612204611a8a565b5b600061221387828801611efb565b945050602061222487828801611abf565b935050604085013567ffffffffffffffff81111561224557612244611a8f565b5b61225187828801611c51565b925050606085013567ffffffffffffffff81111561227257612271611a8f565b5b61227e87828801611c51565b91505092959194509250565b6000602082840312156122a05761229f611a8a565b5b60006122ae84828501611efb565b91505092915050565b6000806000606084860312156122d0576122cf611a8a565b5b60006122de86828701611abf565b935050602084013567ffffffffffffffff8111156122ff576122fe611a8f565b5b61230b86828701611c51565b925050604084013567ffffffffffffffff81111561232c5761232b611a8f565b5b61233886828701611c51565b9150509250925092565b61234b81611dce565b82525050565b60006020820190506123666000830184612342565b92915050565b61237581611ed2565b82525050565b6000602082019050612390600083018461236c565b92915050565b61239f81611a94565b82525050565b60006020820190506123ba6000830184612396565b92915050565b600080fd5b600080fd5b6000815190506123d981611cc8565b92915050565b6000815190506123ee81612040565b92915050565b60008151905061240381611aa8565b92915050565b60006060828403121561241f5761241e6123c0565b5b6124296060611bb4565b90506000612439848285016123ca565b600083015250602061244d848285016123df565b6020830152506040612461848285016123f4565b60408301525092915050565b60008151905061247c81611dd8565b92915050565b600061248d82611d34565b9050919050565b61249d81612482565b81146124a857600080fd5b50565b6000815190506124ba81612494565b92915050565b600080600080600060e086880312156124dc576124db611a8a565b5b60006124ea88828901612409565b95505060606124fb888289016123ca565b945050608061250c8882890161246d565b93505060a061251d8882890161246d565b92505060c061252e888289016124ab565b9150509295509295909350565b6000819050919050565b600061256061255b6125568461253b565b611d54565b611dce565b9050919050565b61257081612545565b82525050565b600060608201905061258b6000830186611b0f565b6125986020830185612567565b6125a56040830184612342565b949350505050565b600080604083850312156125c4576125c3611a8a565b5b60006125d28582860161246d565b92505060206125e38582860161246d565b9150509250929050565b6125f681611b01565b82525050565b61260581612036565b82525050565b61261481611a94565b82525050565b60608201600082015161263060008501826125ed565b50602082015161264360208501826125fc565b506040820151612656604085018261260b565b50505050565b600060e082019050612671600083018861261a565b61267e6060830187611b0f565b61268b6080830186612342565b61269860a0830185612342565b6126a560c083018461236c565b9695505050505050565b6000602082840312156126c5576126c4611a8a565b5b60006126d3848285016123f4565b91505092915050565b7f4e487b7100000000000000000000000000000000000000000000000000000000600052601160045260246000fd5b600061271682611dce565b915061272183611dce565b9250828203905081811115612739576127386126dc565b5b92915050565b600081905092915050565b50565b600061275a60008361273f565b91506127658261274a565b600082019050919050565b600061277b8261274d565b9150819050919050565b61278e81612036565b82525050565b60006020820190506127a96000830184612785565b92915050565b6000815190506127be81611ee4565b92915050565b6000602082840312156127da576127d9611a8a565b5b60006127e8848285016127af565b91505092915050565b6127fa81612188565b811461280557600080fd5b50565b600081519050612817816127f1565b92915050565b60006020828403121561283357612832611a8a565b5b600061284184828501612808565b91505092915050565b600060ff82169050919050565b600061287261286d6128688461253b565b611d54565b61284a565b9050919050565b61288281612857565b82525050565b600060408201905061289d6000830185612879565b6128aa6020830184612342565b9392505050565b60006128c46128bf84611bcf565b611bb4565b9050828152602081018484840111156128e0576128df611b3e565b5b6128eb848285611e4d565b509392505050565b600082601f83011261290857612907611b39565b5b81516129188482602086016128b1565b91505092915050565b600060408284031215612937576129366123c0565b5b6129416040611bb4565b905060006129518482850161246d565b600083015250602082015167ffffffffffffffff811115612975576129746123c5565b5b612981848285016128f3565b60208301525092915050565b6000602082840312156129a3576129a2611a8a565b5b600082015167ffffffffffffffff8111156129c1576129c0611a8f565b5b6129cd84828501612921565b91505092915050565b6129df8161284a565b82525050565b60006020820190506129fa60008301846129d6565b92915050565b6000604082019050612a156000830185612396565b8181036020830152612a278184611e77565b90509392505050565b600060e082019050612a45600083018a611b0f565b612a52602083018961236c565b8181036040830152612a648188611e77565b9050612a736060830187612342565b612a806080830186612342565b612a8d60a0830185611b0f565b612a9a60c083018461236c565b98975050505050505050565b6000606082019050612abb6000830186611b0f565b612ac86020830185612342565b612ad56040830184612342565b94935050505056fea2646970667358221220c25e51052a380c0ecac224eee197a6d7ac5525d52cabe2322c27c73df1da8c5664736f6c63430008170033","linkReferences":{}},"methodIdentifiers":{"ambChainId(uint64)":"09bec2c1","authorizedImpl(uint16)":"efda82d7","dispatchPayload(address,uint64,bytes,bytes)":"9783d0ef","estimateFees(uint64,bytes,bytes)":"ea98b147","generateExtraData(uint256)":"25fc6dd0","processedMessages(bytes32)":"88ba16ab","receiveWormholeMessages(bytes,bytes[],bytes32,uint16,bytes32)":"529dca32","refundChainId()":"0eed6e6f","relayer()":"8406c079","retryPayload(bytes)":"0fbb7cbc","setChainId(uint64,uint16)":"10d06fd4","setReceiver(uint16,address)":"4cff9f1d","setRefundChainId(uint16)":"8a080c53","setWormholeRelayer(address)":"e159378d","superChainId(uint16)":"f2d39b60","superRegistry()":"24c73dda"},"id":122}