{"abi":[{"type":"constructor","inputs":[{"name":"superRegistry_","type":"address","internalType":"address"}],"stateMutability":"nonpayable"},{"type":"function","name":"decodeAmountIn","inputs":[{"name":"txData_","type":"bytes","internalType":"bytes"},{"name":"","type":"bool","internalType":"bool"}],"outputs":[{"name":"amount_","type":"uint256","internalType":"uint256"}],"stateMutability":"pure"},{"type":"function","name":"decodeDstSwap","inputs":[{"name":"txData_","type":"bytes","internalType":"bytes"}],"outputs":[{"name":"token_","type":"address","internalType":"address"},{"name":"amount_","type":"uint256","internalType":"uint256"}],"stateMutability":"pure"},{"type":"function","name":"decodeSwapOutputToken","inputs":[{"name":"txData_","type":"bytes","internalType":"bytes"}],"outputs":[{"name":"token_","type":"address","internalType":"address"}],"stateMutability":"pure"},{"type":"function","name":"superRegistry","inputs":[],"outputs":[{"name":"","type":"address","internalType":"contract ISuperRegistry"}],"stateMutability":"view"},{"type":"function","name":"validateReceiver","inputs":[{"name":"txData_","type":"bytes","internalType":"bytes"},{"name":"receiver","type":"address","internalType":"address"}],"outputs":[{"name":"","type":"bool","internalType":"bool"}],"stateMutability":"pure"},{"type":"function","name":"validateTxData","inputs":[{"name":"args_","type":"tuple","internalType":"struct IBridgeValidator.ValidateTxDataArgs","components":[{"name":"txData","type":"bytes","internalType":"bytes"},{"name":"srcChainId","type":"uint64","internalType":"uint64"},{"name":"dstChainId","type":"uint64","internalType":"uint64"},{"name":"liqDstChainId","type":"uint64","internalType":"uint64"},{"name":"deposit","type":"bool","internalType":"bool"},{"name":"superform","type":"address","internalType":"address"},{"name":"receiverAddress","type":"address","internalType":"address"},{"name":"liqDataToken","type":"address","internalType":"address"},{"name":"liqDataInterimToken","type":"address","internalType":"address"}]}],"outputs":[{"name":"","type":"bool","internalType":"bool"}],"stateMutability":"pure"},{"type":"error","name":"INVALID_DEPOSIT_LIQ_DST_CHAIN_ID","inputs":[]},{"type":"error","name":"INVALID_TXDATA_CHAIN_ID","inputs":[]},{"type":"error","name":"INVALID_TXDATA_RECEIVER","inputs":[]},{"type":"error","name":"INVALID_TXDATA_TOKEN","inputs":[]},{"type":"error","name":"ZERO_ADDRESS","inputs":[]}],"bytecode":{"object":"0x60a060405234801561001057600080fd5b5060405162000f3c38038062000f3c83398181016040528101906100349190610139565b80600073ffffffffffffffffffffffffffffffffffffffff168173ffffffffffffffffffffffffffffffffffffffff160361009b576040517f538ba4f900000000000000000000000000000000000000000000000000000000815260040160405180910390fd5b8073ffffffffffffffffffffffffffffffffffffffff1660808173ffffffffffffffffffffffffffffffffffffffff16815250505050610166565b600080fd5b600073ffffffffffffffffffffffffffffffffffffffff82169050919050565b6000610106826100db565b9050919050565b610116816100fb565b811461012157600080fd5b50565b6000815190506101338161010d565b92915050565b60006020828403121561014f5761014e6100d6565b5b600061015d84828501610124565b91505092915050565b608051610dba6200018260003960006101bf0152610dba6000f3fe608060405234801561001057600080fd5b50600436106100625760003560e01c80631d51a3d71461006757806324c73dda146100975780632db88323146100b55780633d898b1e146100e55780639bbbb5c814610116578063c87439eb14610146575b600080fd5b610081600480360381019061007c91906106e6565b610176565b60405161008e9190610761565b60405180910390f35b61009f6101bd565b6040516100ac91906107db565b60405180910390f35b6100cf60048036038101906100ca91906107f6565b6101e1565b6040516100dc9190610852565b60405180910390f35b6100ff60048036038101906100fa91906107f6565b6101fe565b60405161010d929190610886565b60405180910390f35b610130600480360381019061012b91906108db565b610225565b60405161013d919061093b565b60405180910390f35b610160600480360381019061015b919061097b565b61023e565b60405161016d9190610761565b60405180910390f35b600061018284846104d6565b6040015173ffffffffffffffffffffffffffffffffffffffff168273ffffffffffffffffffffffffffffffffffffffff161490509392505050565b7f000000000000000000000000000000000000000000000000000000000000000081565b6000806101ee84846104d6565b9050806020015191505092915050565b600080600061020d85856104d6565b90508060000151925080606001519150509250929050565b600061023184846104d6565b6060015190509392505050565b60008061025983806000019061025491906109d3565b6104d6565b905082608001602081019061026e9190610a36565b156103d5578260200160208101906102869190610aa3565b67ffffffffffffffff168360400160208101906102a39190610aa3565b67ffffffffffffffff16146102e4576040517f111beafb00000000000000000000000000000000000000000000000000000000815260040160405180910390fd5b8260600160208101906102f79190610aa3565b67ffffffffffffffff168360400160208101906103149190610aa3565b67ffffffffffffffff1614610355576040517fc199244a00000000000000000000000000000000000000000000000000000000815260040160405180910390fd5b8260a00160208101906103689190610ad0565b73ffffffffffffffffffffffffffffffffffffffff16816040015173ffffffffffffffffffffffffffffffffffffffff16146103d0576040517fb076b2fc00000000000000000000000000000000000000000000000000000000815260040160405180910390fd5b610451565b8260c00160208101906103e89190610ad0565b73ffffffffffffffffffffffffffffffffffffffff16816040015173ffffffffffffffffffffffffffffffffffffffff1614610450576040517fb076b2fc00000000000000000000000000000000000000000000000000000000815260040160405180910390fd5b5b806000015173ffffffffffffffffffffffffffffffffffffffff168360e001602081019061047f9190610ad0565b73ffffffffffffffffffffffffffffffffffffffff16146104cc576040517fd19f398900000000000000000000000000000000000000000000000000000000815260040160405180910390fd5b6000915050919050565b6104de61059e565b60008060008060006104f0888861057d565b8101906104fd9190610ca8565b945094509450945094506040518060a001604052808673ffffffffffffffffffffffffffffffffffffffff1681526020018573ffffffffffffffffffffffffffffffffffffffff1681526020018473ffffffffffffffffffffffffffffffffffffffff168152602001838152602001828152509550505050505092915050565b3660008383600490809261059393929190610d49565b915091509250929050565b6040518060a00160405280600073ffffffffffffffffffffffffffffffffffffffff168152602001600073ffffffffffffffffffffffffffffffffffffffff168152602001600073ffffffffffffffffffffffffffffffffffffffff16815260200160008152602001606081525090565b6000604051905090565b600080fd5b600080fd5b600080fd5b600080fd5b600080fd5b60008083601f84011261064857610647610623565b5b8235905067ffffffffffffffff81111561066557610664610628565b5b6020830191508360018202830111156106815761068061062d565b5b9250929050565b600073ffffffffffffffffffffffffffffffffffffffff82169050919050565b60006106b382610688565b9050919050565b6106c3816106a8565b81146106ce57600080fd5b50565b6000813590506106e0816106ba565b92915050565b6000806000604084860312156106ff576106fe610619565b5b600084013567ffffffffffffffff81111561071d5761071c61061e565b5b61072986828701610632565b9350935050602061073c868287016106d1565b9150509250925092565b60008115159050919050565b61075b81610746565b82525050565b60006020820190506107766000830184610752565b92915050565b6000819050919050565b60006107a161079c61079784610688565b61077c565b610688565b9050919050565b60006107b382610786565b9050919050565b60006107c5826107a8565b9050919050565b6107d5816107ba565b82525050565b60006020820190506107f060008301846107cc565b92915050565b6000806020838503121561080d5761080c610619565b5b600083013567ffffffffffffffff81111561082b5761082a61061e565b5b61083785828601610632565b92509250509250929050565b61084c816106a8565b82525050565b60006020820190506108676000830184610843565b92915050565b6000819050919050565b6108808161086d565b82525050565b600060408201905061089b6000830185610843565b6108a86020830184610877565b9392505050565b6108b881610746565b81146108c357600080fd5b50565b6000813590506108d5816108af565b92915050565b6000806000604084860312156108f4576108f3610619565b5b600084013567ffffffffffffffff8111156109125761091161061e565b5b61091e86828701610632565b93509350506020610931868287016108c6565b9150509250925092565b60006020820190506109506000830184610877565b92915050565b600080fd5b6000610120828403121561097257610971610956565b5b81905092915050565b60006020828403121561099157610990610619565b5b600082013567ffffffffffffffff8111156109af576109ae61061e565b5b6109bb8482850161095b565b91505092915050565b600080fd5b600080fd5b600080fd5b600080833560016020038436030381126109f0576109ef6109c4565b5b80840192508235915067ffffffffffffffff821115610a1257610a116109c9565b5b602083019250600182023603831315610a2e57610a2d6109ce565b5b509250929050565b600060208284031215610a4c57610a4b610619565b5b6000610a5a848285016108c6565b91505092915050565b600067ffffffffffffffff82169050919050565b610a8081610a63565b8114610a8b57600080fd5b50565b600081359050610a9d81610a77565b92915050565b600060208284031215610ab957610ab8610619565b5b6000610ac784828501610a8e565b91505092915050565b600060208284031215610ae657610ae5610619565b5b6000610af4848285016106d1565b91505092915050565b6000610b0882610688565b9050919050565b610b1881610afd565b8114610b2357600080fd5b50565b600081359050610b3581610b0f565b92915050565b610b448161086d565b8114610b4f57600080fd5b50565b600081359050610b6181610b3b565b92915050565b600080fd5b6000601f19601f8301169050919050565b7f4e487b7100000000000000000000000000000000000000000000000000000000600052604160045260246000fd5b610bb582610b6c565b810181811067ffffffffffffffff82111715610bd457610bd3610b7d565b5b80604052505050565b6000610be761060f565b9050610bf38282610bac565b919050565b600067ffffffffffffffff821115610c1357610c12610b7d565b5b610c1c82610b6c565b9050602081019050919050565b82818337600083830152505050565b6000610c4b610c4684610bf8565b610bdd565b905082815260208101848484011115610c6757610c66610b67565b5b610c72848285610c29565b509392505050565b600082601f830112610c8f57610c8e610623565b5b8135610c9f848260208601610c38565b91505092915050565b600080600080600060a08688031215610cc457610cc3610619565b5b6000610cd288828901610b26565b9550506020610ce388828901610b26565b9450506040610cf488828901610b26565b9350506060610d0588828901610b52565b925050608086013567ffffffffffffffff811115610d2657610d2561061e565b5b610d3288828901610c7a565b9150509295509295909350565b600080fd5b600080fd5b60008085851115610d5d57610d5c610d3f565b5b83861115610d6e57610d6d610d44565b5b600185028301915084860390509450949250505056fea2646970667358221220fab6f8326eed36a8462189c76055b2e911364c2a36cdc6db075813da497e8acd64736f6c63430008170033","linkReferences":{}},"methodIdentifiers":{"decodeAmountIn(bytes,bool)":"9bbbb5c8","decodeDstSwap(bytes)":"3d898b1e","decodeSwapOutputToken(bytes)":"2db88323","superRegistry()":"24c73dda","validateReceiver(bytes,address)":"1d51a3d7","validateTxData((bytes,uint64,uint64,uint64,bool,address,address,address,address))":"c87439eb"},"id":133}