{"abi":[{"type":"constructor","inputs":[{"name":"superRegistry_","type":"address","internalType":"address"}],"stateMutability":"nonpayable"},{"type":"function","name":"decodeCoreStateRegistryPayload","inputs":[{"name":"dstPayloadId_","type":"uint256","internalType":"uint256"}],"outputs":[{"name":"v","type":"tuple","internalType":"struct IPayloadHelper.DecodedDstPayload","components":[{"name":"txType","type":"uint8","internalType":"uint8"},{"name":"callbackType","type":"uint8","internalType":"uint8"},{"name":"srcSender","type":"address","internalType":"address"},{"name":"srcChainId","type":"uint64","internalType":"uint64"},{"name":"amounts","type":"uint256[]","internalType":"uint256[]"},{"name":"outputAmounts","type":"uint256[]","internalType":"uint256[]"},{"name":"slippages","type":"uint256[]","internalType":"uint256[]"},{"name":"superformIds","type":"uint256[]","internalType":"uint256[]"},{"name":"hasDstSwaps","type":"bool[]","internalType":"bool[]"},{"name":"receiverAddress","type":"address","internalType":"address"},{"name":"srcPayloadId","type":"uint256","internalType":"uint256"},{"name":"extraFormData","type":"bytes","internalType":"bytes"},{"name":"multi","type":"uint8","internalType":"uint8"}]}],"stateMutability":"view"},{"type":"function","name":"decodeCoreStateRegistryPayloadLiqData","inputs":[{"name":"dstPayloadId_","type":"uint256","internalType":"uint256"}],"outputs":[{"name":"txDatas","type":"bytes[]","internalType":"bytes[]"},{"name":"tokens","type":"address[]","internalType":"address[]"},{"name":"interimTokens","type":"address[]","internalType":"address[]"},{"name":"bridgeIds","type":"uint8[]","internalType":"uint8[]"},{"name":"liqDstChainIds","type":"uint64[]","internalType":"uint64[]"},{"name":"amountsIn","type":"uint256[]","internalType":"uint256[]"},{"name":"nativeAmounts","type":"uint256[]","internalType":"uint256[]"}],"stateMutability":"view"},{"type":"function","name":"decodePayloadHistory","inputs":[{"name":"srcPayloadId_","type":"uint256","internalType":"uint256"}],"outputs":[{"name":"txType","type":"uint8","internalType":"uint8"},{"name":"callbackType","type":"uint8","internalType":"uint8"},{"name":"multi","type":"uint8","internalType":"uint8"},{"name":"srcSender","type":"address","internalType":"address"},{"name":"receiverAddressSP","type":"address","internalType":"address"},{"name":"srcChainId","type":"uint64","internalType":"uint64"}],"stateMutability":"view"},{"type":"function","name":"decodeTimeLockFailedPayload","inputs":[{"name":"payloadId_","type":"uint256","internalType":"uint256"}],"outputs":[{"name":"srcSender","type":"address","internalType":"address"},{"name":"srcChainId","type":"uint64","internalType":"uint64"},{"name":"srcPayloadId","type":"uint256","internalType":"uint256"},{"name":"superformId","type":"uint256","internalType":"uint256"},{"name":"amount","type":"uint256","internalType":"uint256"}],"stateMutability":"view"},{"type":"function","name":"decodeTimeLockPayload","inputs":[{"name":"timelockPayloadId_","type":"uint256","internalType":"uint256"}],"outputs":[{"name":"receiverAddress","type":"address","internalType":"address"},{"name":"srcChainId","type":"uint64","internalType":"uint64"},{"name":"srcPayloadId","type":"uint256","internalType":"uint256"},{"name":"superformId","type":"uint256","internalType":"uint256"},{"name":"amount","type":"uint256","internalType":"uint256"}],"stateMutability":"view"},{"type":"function","name":"getDstPayloadProof","inputs":[{"name":"dstPayloadId_","type":"uint256","internalType":"uint256"}],"outputs":[{"name":"","type":"bytes32","internalType":"bytes32"}],"stateMutability":"view"},{"type":"function","name":"superRegistry","inputs":[],"outputs":[{"name":"","type":"address","internalType":"contract ISuperRegistry"}],"stateMutability":"view"},{"type":"error","name":"INVALID_PAYLOAD","inputs":[]},{"type":"error","name":"INVALID_PAYLOAD_ID","inputs":[]},{"type":"error","name":"ZERO_ADDRESS","inputs":[]}],"bytecode":{"object":"0x60a06040523480156200001157600080fd5b5060405162003d5738038062003d57833981810160405281019062000037919062000143565b600073ffffffffffffffffffffffffffffffffffffffff168173ffffffffffffffffffffffffffffffffffffffff16036200009e576040517f538ba4f900000000000000000000000000000000000000000000000000000000815260040160405180910390fd5b8073ffffffffffffffffffffffffffffffffffffffff1660808173ffffffffffffffffffffffffffffffffffffffff16815250505062000175565b600080fd5b600073ffffffffffffffffffffffffffffffffffffffff82169050919050565b60006200010b82620000de565b9050919050565b6200011d81620000fe565b81146200012957600080fd5b50565b6000815190506200013d8162000112565b92915050565b6000602082840312156200015c576200015b620000d9565b5b60006200016c848285016200012c565b91505092915050565b608051613b95620001c2600039600081816101d5015281816102b1015281816104580152818161068101528181610a6601528181610cdc015281816113cb01526119560152613b956000f3fe608060405234801561001057600080fd5b506004361061007d5760003560e01c80638ecd95dd1161005b5780638ecd95dd1461010b578063c0ca67a91461013f578063cd7a066a1461016f578063ef86871f1461019f5761007d565b806324c73dda146100825780636408fe7e146100a05780637fab2df1146100d6575b600080fd5b61008a6101d3565b6040516100979190612457565b60405180910390f35b6100ba60048036038101906100b591906124bc565b6101f7565b6040516100cd9796959493929190612966565b60405180910390f35b6100f060048036038101906100eb91906124bc565b6102a4565b60405161010296959493929190612a33565b60405180910390f35b610125600480360381019061012091906124bc565b61044d565b604051610136959493929190612aa3565b60405180910390f35b610159600480360381019061015491906124bc565b61067c565b6040516101669190612b0f565b60405180910390f35b610189600480360381019061018491906124bc565b610857565b6040516101969190612d9f565b60405180910390f35b6101b960048036038101906101b491906124bc565b610a5b565b6040516101ca959493929190612aa3565b60405180910390f35b7f000000000000000000000000000000000000000000000000000000000000000081565b6060806060806060806060600061020c610cd8565b90506102188982610d99565b61022061217a565b61022a8a83610e45565b909192935090505082600001836020018260ff1660ff168152508260ff1660ff1681525050506001816020015160ff160361027e576102698a83610ef0565b98509850985098509850985098505050610299565b6102888a8361158f565b985098509850985098509850985050505b919395979092949650565b60008060008060008060007f000000000000000000000000000000000000000000000000000000000000000073ffffffffffffffffffffffffffffffffffffffff166321f8a7217fba0b74768b1de73590a53e1384870dcbc846e5c73bab23c07d71eaa7cbf8411b6040518263ffffffff1660e01b81526004016103289190612b0f565b602060405180830381865afa158015610345573d6000803e3d6000fd5b505050506040513d601f19601f820116820180604052508101906103699190612ded565b73ffffffffffffffffffffffffffffffffffffffff166375fcbd86896040518263ffffffff1660e01b81526004016103a19190612e1a565b6040805180830381865afa1580156103bd573d6000803e3d6000fd5b505050506040513d601f19601f820116820180604052508101906103e19190612e4a565b809450819250505060008103610423576040517fabb4594600000000000000000000000000000000000000000000000000000000815260040160405180910390fd5b61042c81611b43565b909150809650819850829950839a50849b5050505050505091939550919395565b6000806000806000807f000000000000000000000000000000000000000000000000000000000000000073ffffffffffffffffffffffffffffffffffffffff166321f8a7217f61d4f25a58ab968b8df895503bb626f9dad221b8e0c51ebd11185d5ad48943346040518263ffffffff1660e01b81526004016104cf9190612b0f565b602060405180830381865afa1580156104ec573d6000803e3d6000fd5b505050506040513d601f19601f820116820180604052508101906105109190612ded565b90508073ffffffffffffffffffffffffffffffffffffffff16633e9e645e6040518163ffffffff1660e01b8152600401602060405180830381865afa15801561055d573d6000803e3d6000fd5b505050506040513d601f19601f820116820180604052508101906105819190612e8a565b8711156105ba576040517fabb4594600000000000000000000000000000000000000000000000000000000815260040160405180910390fd5b60008173ffffffffffffffffffffffffffffffffffffffff1663b89e17f8896040518263ffffffff1660e01b81526004016105f59190612e1a565b600060405180830381865afa158015610612573d6000803e3d6000fd5b505050506040513d6000823e3d601f19601f8201168201806040525081019061063b9190613322565b905080606001516101000151816020015182606001516000015183606001516020015184606001516040015196509650965096509650505091939590929450565b6000807f000000000000000000000000000000000000000000000000000000000000000073ffffffffffffffffffffffffffffffffffffffff166321f8a7217f55b101fc856aff484166c46ad33bc74831c135693c159b0092bb3b72254ffb6b6040518263ffffffff1660e01b81526004016106f89190612b0f565b602060405180830381865afa158015610715573d6000803e3d6000fd5b505050506040513d601f19601f820116820180604052508101906107399190612ded565b905061084f60405180604001604052808373ffffffffffffffffffffffffffffffffffffffff166336445ffd876040518263ffffffff1660e01b81526004016107829190612e1a565b602060405180830381865afa15801561079f573d6000803e3d6000fd5b505050506040513d601f19601f820116820180604052508101906107c39190612e8a565b81526020018373ffffffffffffffffffffffffffffffffffffffff1663361ad42b876040518263ffffffff1660e01b81526004016108019190612e1a565b600060405180830381865afa15801561081e573d6000803e3d6000fd5b505050506040513d6000823e3d601f19601f82011682018060405250810190610847919061336b565b815250611b7b565b915050919050565b61085f6121e6565b6108708261086b610cd8565b610d99565b6108818261087c610cd8565b610e45565b8560000186602001876101800188604001896060018567ffffffffffffffff1667ffffffffffffffff168152508573ffffffffffffffffffffffffffffffffffffffff1673ffffffffffffffffffffffffffffffffffffffff168152508560ff1660ff168152508560ff1660ff168152508560ff1660ff16815250505050505060016002811115610915576109146133b4565b5b816020015160ff1614806109415750600280811115610937576109366133b4565b5b816020015160ff16145b156109745761095d82826101800151610958610cd8565b611bab565b826080018361014001828152508290525050610a56565b60006002811115610988576109876133b4565b5b816020015160ff1603610a23576109ac828261018001516109a7610cd8565b611d7f565b886080018960a0018a60c0018b60e0018c610100018d610160018e610120018f61014001888152508873ffffffffffffffffffffffffffffffffffffffff1673ffffffffffffffffffffffffffffffffffffffff168152508890528890528890528890528890528890525050505050505050610a55565b6040517f4b14a67a00000000000000000000000000000000000000000000000000000000815260040160405180910390fd5b5b919050565b6000806000806000807f000000000000000000000000000000000000000000000000000000000000000073ffffffffffffffffffffffffffffffffffffffff166321f8a7217f61d4f25a58ab968b8df895503bb626f9dad221b8e0c51ebd11185d5ad48943346040518263ffffffff1660e01b8152600401610add9190612b0f565b602060405180830381865afa158015610afa573d6000803e3d6000fd5b505050506040513d601f19601f82011682018060405250810190610b1e9190612ded565b9050610b2a8782610d99565b60008173ffffffffffffffffffffffffffffffffffffffff1663361ad42b896040518263ffffffff1660e01b8152600401610b659190612e1a565b600060405180830381865afa158015610b82573d6000803e3d6000fd5b505050506040513d6000823e3d601f19601f82011682018060405250810190610bab919061336b565b905060008273ffffffffffffffffffffffffffffffffffffffff166336445ffd8a6040518263ffffffff1660e01b8152600401610be89190612e1a565b602060405180830381865afa158015610c05573d6000803e3d6000fd5b505050506040513d601f19601f82011682018060405250810190610c299190612e8a565b90506000806000610c3984611b43565b955095505050935050600280811115610c5557610c546133b4565b5b8360ff1603610c9157600085806020019051810190610c749190613447565b905080604001519750806020015198508060000151995050610cc3565b6040517f4b14a67a00000000000000000000000000000000000000000000000000000000815260040160405180910390fd5b819a5080995050505050505091939590929450565b60007f000000000000000000000000000000000000000000000000000000000000000073ffffffffffffffffffffffffffffffffffffffff166321f8a7217f55b101fc856aff484166c46ad33bc74831c135693c159b0092bb3b72254ffb6b6040518263ffffffff1660e01b8152600401610d539190612b0f565b602060405180830381865afa158015610d70573d6000803e3d6000fd5b505050506040513d601f19601f82011682018060405250810190610d949190612ded565b905090565b8073ffffffffffffffffffffffffffffffffffffffff166313c02a596040518163ffffffff1660e01b8152600401602060405180830381865afa158015610de4573d6000803e3d6000fd5b505050506040513d601f19601f82011682018060405250810190610e089190612e8a565b821115610e41576040517fabb4594600000000000000000000000000000000000000000000000000000000815260040160405180910390fd5b5050565b6000806000806000610ecf8673ffffffffffffffffffffffffffffffffffffffff166336445ffd896040518263ffffffff1660e01b8152600401610e899190612e1a565b602060405180830381865afa158015610ea6573d6000803e3d6000fd5b505050506040513d601f19601f82011682018060405250810190610eca9190612e8a565b611b43565b90915080955081965082975083985084995050505050509295509295909350565b606080606080606080606060008873ffffffffffffffffffffffffffffffffffffffff1663361ad42b8b6040518263ffffffff1660e01b8152600401610f369190612e1a565b600060405180830381865afa158015610f53573d6000803e3d6000fd5b505050506040513d6000823e3d601f19601f82011682018060405250810190610f7c919061336b565b806020019051810190610f8f91906138b6565b90508060a001515167ffffffffffffffff811115610fb057610faf612ebc565b5b604051908082528060200260200182016040528015610fde5781602001602082028036833780820191505090505b5094508060a001515167ffffffffffffffff81111561100057610fff612ebc565b5b60405190808252806020026020018201604052801561103357816020015b606081526020019060019003908161101e5790505b5097508060a001515167ffffffffffffffff81111561105557611054612ebc565b5b6040519080825280602002602001820160405280156110835781602001602082028036833780820191505090505b5096508060a001515167ffffffffffffffff8111156110a5576110a4612ebc565b5b6040519080825280602002602001820160405280156110d35781602001602082028036833780820191505090505b5095508060a001515167ffffffffffffffff8111156110f5576110f4612ebc565b5b6040519080825280602002602001820160405280156111235781602001602082028036833780820191505090505b5093508060a001515167ffffffffffffffff81111561114557611144612ebc565b5b6040519080825280602002602001820160405280156111735781602001602082028036833780820191505090505b5092508060a001515167ffffffffffffffff81111561119557611194612ebc565b5b6040519080825280602002602001820160405280156111c35781602001602082028036833780820191505090505b50915060008160a0015151905060005b81811015611580578260a0015181815181106111f2576111f16138ff565b5b602002602001015160600151878281518110611211576112106138ff565b5b602002602001019060ff16908160ff16815250508260a00151818151811061123c5761123b6138ff565b5b6020026020010151600001518a828151811061125b5761125a6138ff565b5b60200260200101819052508260a00151818151811061127d5761127c6138ff565b5b60200260200101516020015189828151811061129c5761129b6138ff565b5b602002602001019073ffffffffffffffffffffffffffffffffffffffff16908173ffffffffffffffffffffffffffffffffffffffff16815250508260a0015181815181106112ed576112ec6138ff565b5b60200260200101516040015188828151811061130c5761130b6138ff565b5b602002602001019073ffffffffffffffffffffffffffffffffffffffff16908173ffffffffffffffffffffffffffffffffffffffff16815250508260a00151818151811061135d5761135c6138ff565b5b60200260200101516080015186828151811061137c5761137b6138ff565b5b602002602001019067ffffffffffffffff16908167ffffffffffffffff168152505060008360a0015182815181106113b7576113b66138ff565b5b6020026020010151600001515114611533577f000000000000000000000000000000000000000000000000000000000000000073ffffffffffffffffffffffffffffffffffffffff1663e85b2b54888381518110611418576114176138ff565b5b60200260200101516040518263ffffffff1660e01b815260040161143c919061392e565b602060405180830381865afa158015611459573d6000803e3d6000fd5b505050506040513d601f19601f8201168201806040525081019061147d9190612ded565b73ffffffffffffffffffffffffffffffffffffffff16639bbbb5c88b83815181106114ab576114aa6138ff565b5b602002602001015160006040518363ffffffff1660e01b81526004016114d29291906139a2565b602060405180830381865afa1580156114ef573d6000803e3d6000fd5b505050506040513d601f19601f820116820180604052508101906115139190612e8a565b858281518110611526576115256138ff565b5b6020026020010181815250505b8260a00151818151811061154a576115496138ff565b5b602002602001015160a00151848281518110611569576115686138ff565b5b6020026020010181815250508060010190506111d3565b50505092959891949750929550565b606080606080606080606060008873ffffffffffffffffffffffffffffffffffffffff1663361ad42b8b6040518263ffffffff1660e01b81526004016115d59190612e1a565b600060405180830381865afa1580156115f2573d6000803e3d6000fd5b505050506040513d6000823e3d601f19601f8201168201806040525081019061161b919061336b565b80602001905181019061162e91906139d2565b9050600167ffffffffffffffff81111561164b5761164a612ebc565b5b6040519080825280602002602001820160405280156116795781602001602082028036833780820191505090505b5094508060a001516060015185600081518110611699576116986138ff565b5b602002602001019060ff16908160ff1681525050600167ffffffffffffffff8111156116c8576116c7612ebc565b5b6040519080825280602002602001820160405280156116fb57816020015b60608152602001906001900390816116e65790505b5097508060a00151600001518860008151811061171b5761171a6138ff565b5b6020026020010181905250600167ffffffffffffffff81111561174157611740612ebc565b5b60405190808252806020026020018201604052801561176f5781602001602082028036833780820191505090505b5096508060a00151602001518760008151811061178f5761178e6138ff565b5b602002602001019073ffffffffffffffffffffffffffffffffffffffff16908173ffffffffffffffffffffffffffffffffffffffff1681525050600167ffffffffffffffff8111156117e4576117e3612ebc565b5b6040519080825280602002602001820160405280156118125781602001602082028036833780820191505090505b5095508060a001516040015186600081518110611832576118316138ff565b5b602002602001019073ffffffffffffffffffffffffffffffffffffffff16908173ffffffffffffffffffffffffffffffffffffffff1681525050600167ffffffffffffffff81111561188757611886612ebc565b5b6040519080825280602002602001820160405280156118b55781602001602082028036833780820191505090505b5093508060a0015160800151846000815181106118d5576118d46138ff565b5b602002602001019067ffffffffffffffff16908167ffffffffffffffff1681525050600167ffffffffffffffff81111561191257611911612ebc565b5b6040519080825280602002602001820160405280156119405781602001602082028036833780820191505090505b50925060008160a00151600001515114611ac1577f000000000000000000000000000000000000000000000000000000000000000073ffffffffffffffffffffffffffffffffffffffff1663e85b2b54866000815181106119a4576119a36138ff565b5b60200260200101516040518263ffffffff1660e01b81526004016119c8919061392e565b602060405180830381865afa1580156119e5573d6000803e3d6000fd5b505050506040513d601f19601f82011682018060405250810190611a099190612ded565b73ffffffffffffffffffffffffffffffffffffffff16639bbbb5c889600081518110611a3857611a376138ff565b5b602002602001015160006040518363ffffffff1660e01b8152600401611a5f9291906139a2565b602060405180830381865afa158015611a7c573d6000803e3d6000fd5b505050506040513d601f19601f82011682018060405250810190611aa09190612e8a565b83600081518110611ab457611ab36138ff565b5b6020026020010181815250505b600167ffffffffffffffff811115611adc57611adb612ebc565b5b604051908082528060200260200182016040528015611b0a5781602001602082028036833780820191505090505b5091508060a0015160a0015182600081518110611b2a57611b296138ff565b5b6020026020010181815250505092959891949750929550565b600080600080600080869550600887901c9450601087901c9350601887901c9250602087901c915060c087901c905091939550919395565b600081604051602001611b8e9190613a58565b604051602081830303815290604052805190602001209050919050565b6060600060018460ff1603611c645760008373ffffffffffffffffffffffffffffffffffffffff1663361ad42b876040518263ffffffff1660e01b8152600401611bf59190612e1a565b600060405180830381865afa158015611c12573d6000803e3d6000fd5b505050506040513d6000823e3d601f19601f82011682018060405250810190611c3b919061336b565b806020019051810190611c4e9190613b16565b9050806040015181600001519250925050611d77565b60008373ffffffffffffffffffffffffffffffffffffffff1663361ad42b876040518263ffffffff1660e01b8152600401611c9f9190612e1a565b600060405180830381865afa158015611cbc573d6000803e3d6000fd5b505050506040513d6000823e3d601f19601f82011682018060405250810190611ce5919061336b565b806020019051810190611cf89190613447565b9050600167ffffffffffffffff811115611d1557611d14612ebc565b5b604051908082528060200260200182016040528015611d435781602001602082028036833780820191505090505b509250806040015183600081518110611d5f57611d5e6138ff565b5b60200260200101818152505082816000015192509250505b935093915050565b60608060608060608060008060018a60ff1603611e6c5760008973ffffffffffffffffffffffffffffffffffffffff1663361ad42b8d6040518263ffffffff1660e01b8152600401611dd19190612e1a565b600060405180830381865afa158015611dee573d6000803e3d6000fd5b505050506040513d6000823e3d601f19601f82011682018060405250810190611e17919061336b565b806020019051810190611e2a91906138b6565b905080604001518160600151826080015183602001518460c001518561012001518661010001518760000151985098509850985098509850985098505061216d565b60008973ffffffffffffffffffffffffffffffffffffffff1663361ad42b8d6040518263ffffffff1660e01b8152600401611ea79190612e1a565b600060405180830381865afa158015611ec4573d6000803e3d6000fd5b505050506040513d6000823e3d601f19601f82011682018060405250810190611eed919061336b565b806020019051810190611f0091906139d2565b9050600167ffffffffffffffff811115611f1d57611f1c612ebc565b5b604051908082528060200260200182016040528015611f4b5781602001602082028036833780820191505090505b509850806040015189600081518110611f6757611f666138ff565b5b602002602001018181525050600167ffffffffffffffff811115611f8e57611f8d612ebc565b5b604051908082528060200260200182016040528015611fbc5781602001602082028036833780820191505090505b509750806060015188600081518110611fd857611fd76138ff565b5b602002602001018181525050600167ffffffffffffffff811115611fff57611ffe612ebc565b5b60405190808252806020026020018201604052801561202d5781602001602082028036833780820191505090505b509650806080015187600081518110612049576120486138ff565b5b602002602001018181525050600167ffffffffffffffff8111156120705761206f612ebc565b5b60405190808252806020026020018201604052801561209e5781602001602082028036833780820191505090505b5095508060200151866000815181106120ba576120b96138ff565b5b602002602001018181525050600167ffffffffffffffff8111156120e1576120e0612ebc565b5b60405190808252806020026020018201604052801561210f5781602001602082028036833780820191505090505b5094508060c001518560008151811061212b5761212a6138ff565b5b60200260200101901515908115158152505080610100015192508888888888856101200151866101000151876000015198509850985098509850985098509850505b9397509397509397509397565b604051806101600160405280600060ff168152602001600060ff1681526020016060815260200160608152602001606081526020016060815260200160608152602001606081526020016121cc61228d565b81526020016121d96122f6565b8152602001600081525090565b604051806101a00160405280600060ff168152602001600060ff168152602001600073ffffffffffffffffffffffffffffffffffffffff168152602001600067ffffffffffffffff1681526020016060815260200160608152602001606081526020016060815260200160608152602001600073ffffffffffffffffffffffffffffffffffffffff1681526020016000815260200160608152602001600060ff1681525090565b6040518061014001604052806000815260200160608152602001606081526020016060815260200160608152602001606081526020016060815260200160608152602001600073ffffffffffffffffffffffffffffffffffffffff168152602001606081525090565b604051806101400160405280600081526020016000815260200160008152602001600081526020016000815260200161232d612369565b8152602001600015158152602001600015158152602001600073ffffffffffffffffffffffffffffffffffffffff168152602001606081525090565b6040518060c0016040528060608152602001600073ffffffffffffffffffffffffffffffffffffffff168152602001600073ffffffffffffffffffffffffffffffffffffffff168152602001600060ff168152602001600067ffffffffffffffff168152602001600081525090565b600073ffffffffffffffffffffffffffffffffffffffff82169050919050565b6000819050919050565b600061241d612418612413846123d8565b6123f8565b6123d8565b9050919050565b600061242f82612402565b9050919050565b600061244182612424565b9050919050565b61245181612436565b82525050565b600060208201905061246c6000830184612448565b92915050565b6000604051905090565b600080fd5b600080fd5b6000819050919050565b61249981612486565b81146124a457600080fd5b50565b6000813590506124b681612490565b92915050565b6000602082840312156124d2576124d161247c565b5b60006124e0848285016124a7565b91505092915050565b600081519050919050565b600082825260208201905092915050565b6000819050602082019050919050565b600081519050919050565b600082825260208201905092915050565b60005b8381101561254f578082015181840152602081019050612534565b60008484015250505050565b6000601f19601f8301169050919050565b600061257782612515565b6125818185612520565b9350612591818560208601612531565b61259a8161255b565b840191505092915050565b60006125b1838361256c565b905092915050565b6000602082019050919050565b60006125d1826124e9565b6125db81856124f4565b9350836020820285016125ed85612505565b8060005b85811015612629578484038952815161260a85826125a5565b9450612615836125b9565b925060208a019950506001810190506125f1565b50829750879550505050505092915050565b600081519050919050565b600082825260208201905092915050565b6000819050602082019050919050565b6000612672826123d8565b9050919050565b61268281612667565b82525050565b60006126948383612679565b60208301905092915050565b6000602082019050919050565b60006126b88261263b565b6126c28185612646565b93506126cd83612657565b8060005b838110156126fe5781516126e58882612688565b97506126f0836126a0565b9250506001810190506126d1565b5085935050505092915050565b600081519050919050565b600082825260208201905092915050565b6000819050602082019050919050565b600060ff82169050919050565b61274d81612737565b82525050565b600061275f8383612744565b60208301905092915050565b6000602082019050919050565b60006127838261270b565b61278d8185612716565b935061279883612727565b8060005b838110156127c95781516127b08882612753565b97506127bb8361276b565b92505060018101905061279c565b5085935050505092915050565b600081519050919050565b600082825260208201905092915050565b6000819050602082019050919050565b600067ffffffffffffffff82169050919050565b61281f81612802565b82525050565b60006128318383612816565b60208301905092915050565b6000602082019050919050565b6000612855826127d6565b61285f81856127e1565b935061286a836127f2565b8060005b8381101561289b5781516128828882612825565b975061288d8361283d565b92505060018101905061286e565b5085935050505092915050565b600081519050919050565b600082825260208201905092915050565b6000819050602082019050919050565b6128dd81612486565b82525050565b60006128ef83836128d4565b60208301905092915050565b6000602082019050919050565b6000612913826128a8565b61291d81856128b3565b9350612928836128c4565b8060005b8381101561295957815161294088826128e3565b975061294b836128fb565b92505060018101905061292c565b5085935050505092915050565b600060e0820190508181036000830152612980818a6125c6565b9050818103602083015261299481896126ad565b905081810360408301526129a881886126ad565b905081810360608301526129bc8187612778565b905081810360808301526129d0818661284a565b905081810360a08301526129e48185612908565b905081810360c08301526129f88184612908565b905098975050505050505050565b612a0f81612737565b82525050565b612a1e81612667565b82525050565b612a2d81612802565b82525050565b600060c082019050612a486000830189612a06565b612a556020830188612a06565b612a626040830187612a06565b612a6f6060830186612a15565b612a7c6080830185612a15565b612a8960a0830184612a24565b979650505050505050565b612a9d81612486565b82525050565b600060a082019050612ab86000830188612a15565b612ac56020830187612a24565b612ad26040830186612a94565b612adf6060830185612a94565b612aec6080830184612a94565b9695505050505050565b6000819050919050565b612b0981612af6565b82525050565b6000602082019050612b246000830184612b00565b92915050565b600082825260208201905092915050565b6000612b46826128a8565b612b508185612b2a565b9350612b5b836128c4565b8060005b83811015612b8c578151612b7388826128e3565b9750612b7e836128fb565b925050600181019050612b5f565b5085935050505092915050565b600081519050919050565b600082825260208201905092915050565b6000819050602082019050919050565b60008115159050919050565b612bda81612bc5565b82525050565b6000612bec8383612bd1565b60208301905092915050565b6000602082019050919050565b6000612c1082612b99565b612c1a8185612ba4565b9350612c2583612bb5565b8060005b83811015612c56578151612c3d8882612be0565b9750612c4883612bf8565b925050600181019050612c29565b5085935050505092915050565b60006101a083016000830151612c7c6000860182612744565b506020830151612c8f6020860182612744565b506040830151612ca26040860182612679565b506060830151612cb56060860182612816565b5060808301518482036080860152612ccd8282612b3b565b91505060a083015184820360a0860152612ce78282612b3b565b91505060c083015184820360c0860152612d018282612b3b565b91505060e083015184820360e0860152612d1b8282612b3b565b915050610100830151848203610100860152612d378282612c05565b915050610120830151612d4e610120860182612679565b50610140830151612d636101408601826128d4565b50610160830151848203610160860152612d7d828261256c565b915050610180830151612d94610180860182612744565b508091505092915050565b60006020820190508181036000830152612db98184612c63565b905092915050565b612dca81612667565b8114612dd557600080fd5b50565b600081519050612de781612dc1565b92915050565b600060208284031215612e0357612e0261247c565b5b6000612e1184828501612dd8565b91505092915050565b6000602082019050612e2f6000830184612a94565b92915050565b600081519050612e4481612490565b92915050565b60008060408385031215612e6157612e6061247c565b5b6000612e6f85828601612e35565b9250506020612e8085828601612dd8565b9150509250929050565b600060208284031215612ea057612e9f61247c565b5b6000612eae84828501612e35565b91505092915050565b600080fd5b7f4e487b7100000000000000000000000000000000000000000000000000000000600052604160045260246000fd5b612ef48261255b565b810181811067ffffffffffffffff82111715612f1357612f12612ebc565b5b80604052505050565b6000612f26612472565b9050612f328282612eeb565b919050565b600080fd5b612f4581612737565b8114612f5057600080fd5b50565b600081519050612f6281612f3c565b92915050565b612f7181612802565b8114612f7c57600080fd5b50565b600081519050612f8e81612f68565b92915050565b600080fd5b600080fd5b600067ffffffffffffffff821115612fb957612fb8612ebc565b5b612fc28261255b565b9050602081019050919050565b6000612fe2612fdd84612f9e565b612f1c565b905082815260208101848484011115612ffe57612ffd612f99565b5b613009848285612531565b509392505050565b600082601f83011261302657613025612f94565b5b8151613036848260208601612fcf565b91505092915050565b600060c0828403121561305557613054612eb7565b5b61305f60c0612f1c565b9050600082015167ffffffffffffffff81111561307f5761307e612f37565b5b61308b84828501613011565b600083015250602061309f84828501612dd8565b60208301525060406130b384828501612dd8565b60408301525060606130c784828501612f53565b60608301525060806130db84828501612f7f565b60808301525060a06130ef84828501612e35565b60a08301525092915050565b61310481612bc5565b811461310f57600080fd5b50565b600081519050613121816130fb565b92915050565b6000610140828403121561313e5761313d612eb7565b5b613149610140612f1c565b9050600061315984828501612e35565b600083015250602061316d84828501612e35565b602083015250604061318184828501612e35565b604083015250606061319584828501612e35565b60608301525060806131a984828501612e35565b60808301525060a082015167ffffffffffffffff8111156131cd576131cc612f37565b5b6131d98482850161303f565b60a08301525060c06131ed84828501613112565b60c08301525060e061320184828501613112565b60e08301525061010061321684828501612dd8565b6101008301525061012082015167ffffffffffffffff81111561323c5761323b612f37565b5b61324884828501613011565b6101208301525092915050565b6003811061326257600080fd5b50565b60008151905061327481613255565b92915050565b600060a082840312156132905761328f612eb7565b5b61329a60a0612f1c565b905060006132aa84828501612f53565b60008301525060206132be84828501612f7f565b60208301525060406132d284828501612e35565b604083015250606082015167ffffffffffffffff8111156132f6576132f5612f37565b5b61330284828501613127565b606083015250608061331684828501613265565b60808301525092915050565b6000602082840312156133385761333761247c565b5b600082015167ffffffffffffffff81111561335657613355612481565b5b6133628482850161327a565b91505092915050565b6000602082840312156133815761338061247c565b5b600082015167ffffffffffffffff81111561339f5761339e612481565b5b6133ab84828501613011565b91505092915050565b7f4e487b7100000000000000000000000000000000000000000000000000000000600052602160045260246000fd5b6000606082840312156133f9576133f8612eb7565b5b6134036060612f1c565b9050600061341384828501612e35565b600083015250602061342784828501612e35565b602083015250604061343b84828501612e35565b60408301525092915050565b60006060828403121561345d5761345c61247c565b5b600061346b848285016133e3565b91505092915050565b600067ffffffffffffffff82111561348f5761348e612ebc565b5b602082029050602081019050919050565b600080fd5b60006134b86134b384613474565b612f1c565b905080838252602082019050602084028301858111156134db576134da6134a0565b5b835b8181101561350457806134f08882612e35565b8452602084019350506020810190506134dd565b5050509392505050565b600082601f83011261352357613522612f94565b5b81516135338482602086016134a5565b91505092915050565b600067ffffffffffffffff82111561355757613556612ebc565b5b602082029050602081019050919050565b600061357b6135768461353c565b612f1c565b9050808382526020820190506020840283018581111561359e5761359d6134a0565b5b835b818110156135e557805167ffffffffffffffff8111156135c3576135c2612f94565b5b8086016135d0898261303f565b855260208501945050506020810190506135a0565b5050509392505050565b600082601f83011261360457613603612f94565b5b8151613614848260208601613568565b91505092915050565b600067ffffffffffffffff82111561363857613637612ebc565b5b602082029050602081019050919050565b600061365c6136578461361d565b612f1c565b9050808382526020820190506020840283018581111561367f5761367e6134a0565b5b835b818110156136a857806136948882613112565b845260208401935050602081019050613681565b5050509392505050565b600082601f8301126136c7576136c6612f94565b5b81516136d7848260208601613649565b91505092915050565b600061014082840312156136f7576136f6612eb7565b5b613702610140612f1c565b9050600061371284828501612e35565b600083015250602082015167ffffffffffffffff81111561373657613735612f37565b5b6137428482850161350e565b602083015250604082015167ffffffffffffffff81111561376657613765612f37565b5b6137728482850161350e565b604083015250606082015167ffffffffffffffff81111561379657613795612f37565b5b6137a28482850161350e565b606083015250608082015167ffffffffffffffff8111156137c6576137c5612f37565b5b6137d28482850161350e565b60808301525060a082015167ffffffffffffffff8111156137f6576137f5612f37565b5b613802848285016135ef565b60a08301525060c082015167ffffffffffffffff81111561382657613825612f37565b5b613832848285016136b2565b60c08301525060e082015167ffffffffffffffff81111561385657613855612f37565b5b613862848285016136b2565b60e08301525061010061387784828501612dd8565b6101008301525061012082015167ffffffffffffffff81111561389d5761389c612f37565b5b6138a984828501613011565b6101208301525092915050565b6000602082840312156138cc576138cb61247c565b5b600082015167ffffffffffffffff8111156138ea576138e9612481565b5b6138f6848285016136e0565b91505092915050565b7f4e487b7100000000000000000000000000000000000000000000000000000000600052603260045260246000fd5b60006020820190506139436000830184612a06565b92915050565b600082825260208201905092915050565b600061396582612515565b61396f8185613949565b935061397f818560208601612531565b6139888161255b565b840191505092915050565b61399c81612bc5565b82525050565b600060408201905081810360008301526139bc818561395a565b90506139cb6020830184613993565b9392505050565b6000602082840312156139e8576139e761247c565b5b600082015167ffffffffffffffff811115613a0657613a05612481565b5b613a1284828501613127565b91505092915050565b6000604083016000830151613a3360008601826128d4565b5060208301518482036020860152613a4b828261256c565b9150508091505092915050565b60006020820190508181036000830152613a728184613a1b565b905092915050565b600060608284031215613a9057613a8f612eb7565b5b613a9a6060612f1c565b90506000613aaa84828501612e35565b600083015250602082015167ffffffffffffffff811115613ace57613acd612f37565b5b613ada8482850161350e565b602083015250604082015167ffffffffffffffff811115613afe57613afd612f37565b5b613b0a8482850161350e565b60408301525092915050565b600060208284031215613b2c57613b2b61247c565b5b600082015167ffffffffffffffff811115613b4a57613b49612481565b5b613b5684828501613a7a565b9150509291505056fea26469706673582212207bbd1c6fe7464b8a06b270684a77a070151f81aa4f2909de27ffcdf33cb2faf864736f6c63430008170033","linkReferences":{}},"methodIdentifiers":{"decodeCoreStateRegistryPayload(uint256)":"cd7a066a","decodeCoreStateRegistryPayloadLiqData(uint256)":"6408fe7e","decodePayloadHistory(uint256)":"7fab2df1","decodeTimeLockFailedPayload(uint256)":"ef86871f","decodeTimeLockPayload(uint256)":"8ecd95dd","getDstPayloadProof(uint256)":"c0ca67a9","superRegistry()":"24c73dda"},"id":127}