{"abi":[{"type":"constructor","inputs":[{"name":"dynamicURI_","type":"string","internalType":"string"},{"name":"superRegistry_","type":"address","internalType":"address"},{"name":"name_","type":"string","internalType":"string"},{"name":"symbol_","type":"string","internalType":"string"}],"stateMutability":"nonpayable"},{"type":"function","name":"CHAIN_ID","inputs":[],"outputs":[{"name":"","type":"uint64","internalType":"uint64"}],"stateMutability":"view"},{"type":"function","name":"aERC20Exists","inputs":[{"name":"id","type":"uint256","internalType":"uint256"}],"outputs":[{"name":"","type":"bool","internalType":"bool"}],"stateMutability":"view"},{"type":"function","name":"aErc20TokenId","inputs":[{"name":"id","type":"uint256","internalType":"uint256"}],"outputs":[{"name":"aErc20Token","type":"address","internalType":"address"}],"stateMutability":"view"},{"type":"function","name":"allowance","inputs":[{"name":"owner","type":"address","internalType":"address"},{"name":"operator","type":"address","internalType":"address"},{"name":"id","type":"uint256","internalType":"uint256"}],"outputs":[{"name":"","type":"uint256","internalType":"uint256"}],"stateMutability":"view"},{"type":"function","name":"balanceOf","inputs":[{"name":"","type":"address","internalType":"address"},{"name":"","type":"uint256","internalType":"uint256"}],"outputs":[{"name":"","type":"uint256","internalType":"uint256"}],"stateMutability":"view"},{"type":"function","name":"balanceOfBatch","inputs":[{"name":"owners","type":"address[]","internalType":"address[]"},{"name":"ids","type":"uint256[]","internalType":"uint256[]"}],"outputs":[{"name":"balances","type":"uint256[]","internalType":"uint256[]"}],"stateMutability":"view"},{"type":"function","name":"burnBatch","inputs":[{"name":"srcSender_","type":"address","internalType":"address"},{"name":"ids_","type":"uint256[]","internalType":"uint256[]"},{"name":"amounts_","type":"uint256[]","internalType":"uint256[]"}],"outputs":[],"stateMutability":"nonpayable"},{"type":"function","name":"burnSingle","inputs":[{"name":"srcSender_","type":"address","internalType":"address"},{"name":"id_","type":"uint256","internalType":"uint256"},{"name":"amount_","type":"uint256","internalType":"uint256"}],"outputs":[],"stateMutability":"nonpayable"},{"type":"function","name":"decreaseAllowance","inputs":[{"name":"operator","type":"address","internalType":"address"},{"name":"id","type":"uint256","internalType":"uint256"},{"name":"subtractedValue","type":"uint256","internalType":"uint256"}],"outputs":[{"name":"","type":"bool","internalType":"bool"}],"stateMutability":"nonpayable"},{"type":"function","name":"decreaseAllowanceForMany","inputs":[{"name":"operator","type":"address","internalType":"address"},{"name":"ids","type":"uint256[]","internalType":"uint256[]"},{"name":"subtractedValues","type":"uint256[]","internalType":"uint256[]"}],"outputs":[{"name":"","type":"bool","internalType":"bool"}],"stateMutability":"nonpayable"},{"type":"function","name":"dynamicURI","inputs":[],"outputs":[{"name":"","type":"string","internalType":"string"}],"stateMutability":"view"},{"type":"function","name":"dynamicURIFrozen","inputs":[],"outputs":[{"name":"","type":"bool","internalType":"bool"}],"stateMutability":"view"},{"type":"function","name":"exists","inputs":[{"name":"id","type":"uint256","internalType":"uint256"}],"outputs":[{"name":"","type":"bool","internalType":"bool"}],"stateMutability":"view"},{"type":"function","name":"getERC20TokenAddress","inputs":[{"name":"id","type":"uint256","internalType":"uint256"}],"outputs":[{"name":"","type":"address","internalType":"address"}],"stateMutability":"view"},{"type":"function","name":"increaseAllowance","inputs":[{"name":"operator","type":"address","internalType":"address"},{"name":"id","type":"uint256","internalType":"uint256"},{"name":"addedValue","type":"uint256","internalType":"uint256"}],"outputs":[{"name":"","type":"bool","internalType":"bool"}],"stateMutability":"nonpayable"},{"type":"function","name":"increaseAllowanceForMany","inputs":[{"name":"operator","type":"address","internalType":"address"},{"name":"ids","type":"uint256[]","internalType":"uint256[]"},{"name":"addedValues","type":"uint256[]","internalType":"uint256[]"}],"outputs":[{"name":"","type":"bool","internalType":"bool"}],"stateMutability":"nonpayable"},{"type":"function","name":"isApprovedForAll","inputs":[{"name":"","type":"address","internalType":"address"},{"name":"","type":"address","internalType":"address"}],"outputs":[{"name":"","type":"bool","internalType":"bool"}],"stateMutability":"view"},{"type":"function","name":"mintBatch","inputs":[{"name":"receiverAddressSP_","type":"address","internalType":"address"},{"name":"ids_","type":"uint256[]","internalType":"uint256[]"},{"name":"amounts_","type":"uint256[]","internalType":"uint256[]"}],"outputs":[],"stateMutability":"nonpayable"},{"type":"function","name":"mintSingle","inputs":[{"name":"receiverAddressSP_","type":"address","internalType":"address"},{"name":"id_","type":"uint256","internalType":"uint256"},{"name":"amount_","type":"uint256","internalType":"uint256"}],"outputs":[],"stateMutability":"nonpayable"},{"type":"function","name":"name","inputs":[],"outputs":[{"name":"","type":"string","internalType":"string"}],"stateMutability":"view"},{"type":"function","name":"registerAERC20","inputs":[{"name":"id","type":"uint256","internalType":"uint256"}],"outputs":[{"name":"","type":"address","internalType":"address"}],"stateMutability":"payable"},{"type":"function","name":"safeBatchTransferFrom","inputs":[{"name":"from","type":"address","internalType":"address"},{"name":"to","type":"address","internalType":"address"},{"name":"ids","type":"uint256[]","internalType":"uint256[]"},{"name":"amounts","type":"uint256[]","internalType":"uint256[]"},{"name":"data","type":"bytes","internalType":"bytes"}],"outputs":[],"stateMutability":"nonpayable"},{"type":"function","name":"safeTransferFrom","inputs":[{"name":"from","type":"address","internalType":"address"},{"name":"to","type":"address","internalType":"address"},{"name":"id","type":"uint256","internalType":"uint256"},{"name":"amount","type":"uint256","internalType":"uint256"},{"name":"data","type":"bytes","internalType":"bytes"}],"outputs":[],"stateMutability":"nonpayable"},{"type":"function","name":"setApprovalForAll","inputs":[{"name":"operator","type":"address","internalType":"address"},{"name":"approved","type":"bool","internalType":"bool"}],"outputs":[],"stateMutability":"nonpayable"},{"type":"function","name":"setApprovalForMany","inputs":[{"name":"operator","type":"address","internalType":"address"},{"name":"ids","type":"uint256[]","internalType":"uint256[]"},{"name":"amounts","type":"uint256[]","internalType":"uint256[]"}],"outputs":[],"stateMutability":"nonpayable"},{"type":"function","name":"setApprovalForOne","inputs":[{"name":"operator","type":"address","internalType":"address"},{"name":"id","type":"uint256","internalType":"uint256"},{"name":"amount","type":"uint256","internalType":"uint256"}],"outputs":[],"stateMutability":"nonpayable"},{"type":"function","name":"setDynamicURI","inputs":[{"name":"dynamicURI_","type":"string","internalType":"string"},{"name":"freeze_","type":"bool","internalType":"bool"}],"outputs":[],"stateMutability":"nonpayable"},{"type":"function","name":"stateMultiSync","inputs":[{"name":"data_","type":"tuple","internalType":"struct AMBMessage","components":[{"name":"txInfo","type":"uint256","internalType":"uint256"},{"name":"params","type":"bytes","internalType":"bytes"}]}],"outputs":[{"name":"srcChainId_","type":"uint64","internalType":"uint64"}],"stateMutability":"nonpayable"},{"type":"function","name":"stateSync","inputs":[{"name":"data_","type":"tuple","internalType":"struct AMBMessage","components":[{"name":"txInfo","type":"uint256","internalType":"uint256"},{"name":"params","type":"bytes","internalType":"bytes"}]}],"outputs":[{"name":"srcChainId_","type":"uint64","internalType":"uint64"}],"stateMutability":"nonpayable"},{"type":"function","name":"stateSyncBroadcast","inputs":[{"name":"data_","type":"bytes","internalType":"bytes"}],"outputs":[],"stateMutability":"payable"},{"type":"function","name":"superRegistry","inputs":[],"outputs":[{"name":"","type":"address","internalType":"contract ISuperRegistry"}],"stateMutability":"view"},{"type":"function","name":"supportsInterface","inputs":[{"name":"interfaceId_","type":"bytes4","internalType":"bytes4"}],"outputs":[{"name":"","type":"bool","internalType":"bool"}],"stateMutability":"view"},{"type":"function","name":"symbol","inputs":[],"outputs":[{"name":"","type":"string","internalType":"string"}],"stateMutability":"view"},{"type":"function","name":"totalSupply","inputs":[{"name":"id","type":"uint256","internalType":"uint256"}],"outputs":[{"name":"","type":"uint256","internalType":"uint256"}],"stateMutability":"view"},{"type":"function","name":"transmuteBatchToERC1155A","inputs":[{"name":"owner","type":"address","internalType":"address"},{"name":"ids","type":"uint256[]","internalType":"uint256[]"},{"name":"amounts","type":"uint256[]","internalType":"uint256[]"},{"name":"receiver","type":"address","internalType":"address"}],"outputs":[],"stateMutability":"nonpayable"},{"type":"function","name":"transmuteBatchToERC20","inputs":[{"name":"owner","type":"address","internalType":"address"},{"name":"ids","type":"uint256[]","internalType":"uint256[]"},{"name":"amounts","type":"uint256[]","internalType":"uint256[]"},{"name":"receiver","type":"address","internalType":"address"}],"outputs":[],"stateMutability":"nonpayable"},{"type":"function","name":"transmuteToERC1155A","inputs":[{"name":"owner","type":"address","internalType":"address"},{"name":"id","type":"uint256","internalType":"uint256"},{"name":"amount","type":"uint256","internalType":"uint256"},{"name":"receiver","type":"address","internalType":"address"}],"outputs":[],"stateMutability":"nonpayable"},{"type":"function","name":"transmuteToERC20","inputs":[{"name":"owner","type":"address","internalType":"address"},{"name":"id","type":"uint256","internalType":"uint256"},{"name":"amount","type":"uint256","internalType":"uint256"},{"name":"receiver","type":"address","internalType":"address"}],"outputs":[],"stateMutability":"nonpayable"},{"type":"function","name":"txHistory","inputs":[{"name":"transactionId","type":"uint256","internalType":"uint256"}],"outputs":[{"name":"txInfo","type":"uint256","internalType":"uint256"},{"name":"receiverAddressSP","type":"address","internalType":"address"}],"stateMutability":"view"},{"type":"function","name":"updateTxHistory","inputs":[{"name":"payloadId_","type":"uint256","internalType":"uint256"},{"name":"txInfo_","type":"uint256","internalType":"uint256"},{"name":"receiverAddressSP_","type":"address","internalType":"address"}],"outputs":[],"stateMutability":"nonpayable"},{"type":"function","name":"uri","inputs":[{"name":"id","type":"uint256","internalType":"uint256"}],"outputs":[{"name":"","type":"string","internalType":"string"}],"stateMutability":"view"},{"type":"function","name":"xChainPayloadCounter","inputs":[],"outputs":[{"name":"","type":"uint256","internalType":"uint256"}],"stateMutability":"view"},{"type":"event","name":"AERC20TokenRegistered","inputs":[{"name":"tokenId","type":"uint256","indexed":true,"internalType":"uint256"},{"name":"tokenAddress","type":"address","indexed":true,"internalType":"address"}],"anonymous":false},{"type":"event","name":"ApprovalForAll","inputs":[{"name":"account","type":"address","indexed":true,"internalType":"address"},{"name":"operator","type":"address","indexed":true,"internalType":"address"},{"name":"approved","type":"bool","indexed":false,"internalType":"bool"}],"anonymous":false},{"type":"event","name":"ApprovalForOne","inputs":[{"name":"owner","type":"address","indexed":true,"internalType":"address"},{"name":"spender","type":"address","indexed":true,"internalType":"address"},{"name":"id","type":"uint256","indexed":false,"internalType":"uint256"},{"name":"amount","type":"uint256","indexed":false,"internalType":"uint256"}],"anonymous":false},{"type":"event","name":"Completed","inputs":[{"name":"txId","type":"uint256","indexed":true,"internalType":"uint256"}],"anonymous":false},{"type":"event","name":"DynamicURIUpdated","inputs":[{"name":"oldURI","type":"string","indexed":true,"internalType":"string"},{"name":"newURI","type":"string","indexed":true,"internalType":"string"},{"name":"frozen","type":"bool","indexed":true,"internalType":"bool"}],"anonymous":false},{"type":"event","name":"TransferBatch","inputs":[{"name":"operator","type":"address","indexed":true,"internalType":"address"},{"name":"from","type":"address","indexed":true,"internalType":"address"},{"name":"to","type":"address","indexed":true,"internalType":"address"},{"name":"ids","type":"uint256[]","indexed":false,"internalType":"uint256[]"},{"name":"values","type":"uint256[]","indexed":false,"internalType":"uint256[]"}],"anonymous":false},{"type":"event","name":"TransferSingle","inputs":[{"name":"operator","type":"address","indexed":true,"internalType":"address"},{"name":"from","type":"address","indexed":true,"internalType":"address"},{"name":"to","type":"address","indexed":true,"internalType":"address"},{"name":"id","type":"uint256","indexed":false,"internalType":"uint256"},{"name":"value","type":"uint256","indexed":false,"internalType":"uint256"}],"anonymous":false},{"type":"event","name":"TransmutedBatchToERC1155A","inputs":[{"name":"user","type":"address","indexed":true,"internalType":"address"},{"name":"ids","type":"uint256[]","indexed":false,"internalType":"uint256[]"},{"name":"amounts","type":"uint256[]","indexed":false,"internalType":"uint256[]"},{"name":"receiver","type":"address","indexed":true,"internalType":"address"}],"anonymous":false},{"type":"event","name":"TransmutedBatchToERC20","inputs":[{"name":"user","type":"address","indexed":true,"internalType":"address"},{"name":"ids","type":"uint256[]","indexed":false,"internalType":"uint256[]"},{"name":"amounts","type":"uint256[]","indexed":false,"internalType":"uint256[]"},{"name":"receiver","type":"address","indexed":true,"internalType":"address"}],"anonymous":false},{"type":"event","name":"TransmutedToERC1155A","inputs":[{"name":"user","type":"address","indexed":true,"internalType":"address"},{"name":"id","type":"uint256","indexed":false,"internalType":"uint256"},{"name":"amount","type":"uint256","indexed":false,"internalType":"uint256"},{"name":"receiver","type":"address","indexed":true,"internalType":"address"}],"anonymous":false},{"type":"event","name":"TransmutedToERC20","inputs":[{"name":"user","type":"address","indexed":true,"internalType":"address"},{"name":"id","type":"uint256","indexed":false,"internalType":"uint256"},{"name":"amount","type":"uint256","indexed":false,"internalType":"uint256"},{"name":"receiver","type":"address","indexed":true,"internalType":"address"}],"anonymous":false},{"type":"event","name":"TxHistorySet","inputs":[{"name":"payloadId","type":"uint256","indexed":true,"internalType":"uint256"},{"name":"txInfo","type":"uint256","indexed":false,"internalType":"uint256"},{"name":"receiverAddress","type":"address","indexed":true,"internalType":"address"}],"anonymous":false},{"type":"event","name":"URI","inputs":[{"name":"value","type":"string","indexed":false,"internalType":"string"},{"name":"id","type":"uint256","indexed":true,"internalType":"uint256"}],"anonymous":false},{"type":"error","name":"AERC20_ALREADY_REGISTERED","inputs":[]},{"type":"error","name":"AERC20_NOT_REGISTERED","inputs":[]},{"type":"error","name":"ARRAY_LENGTH_MISMATCH","inputs":[]},{"type":"error","name":"BLOCK_CHAIN_ID_OUT_OF_BOUNDS","inputs":[]},{"type":"error","name":"DECREASED_ALLOWANCE_BELOW_ZERO","inputs":[]},{"type":"error","name":"DYNAMIC_URI_FROZEN","inputs":[]},{"type":"error","name":"ERC1155InsufficientBalance","inputs":[{"name":"sender","type":"address","internalType":"address"},{"name":"balance","type":"uint256","internalType":"uint256"},{"name":"needed","type":"uint256","internalType":"uint256"},{"name":"tokenId","type":"uint256","internalType":"uint256"}]},{"type":"error","name":"ERC1155InvalidApprover","inputs":[{"name":"approver","type":"address","internalType":"address"}]},{"type":"error","name":"ERC1155InvalidArrayLength","inputs":[{"name":"idsLength","type":"uint256","internalType":"uint256"},{"name":"valuesLength","type":"uint256","internalType":"uint256"}]},{"type":"error","name":"ERC1155InvalidOperator","inputs":[{"name":"operator","type":"address","internalType":"address"}]},{"type":"error","name":"ERC1155InvalidReceiver","inputs":[{"name":"receiver","type":"address","internalType":"address"}]},{"type":"error","name":"ERC1155InvalidSender","inputs":[{"name":"sender","type":"address","internalType":"address"}]},{"type":"error","name":"ERC1155MissingApprovalForAll","inputs":[{"name":"operator","type":"address","internalType":"address"},{"name":"owner","type":"address","internalType":"address"}]},{"type":"error","name":"FAILED_TO_SEND_NATIVE","inputs":[]},{"type":"error","name":"ID_NOT_MINTED_YET","inputs":[]},{"type":"error","name":"INVALID_BROADCAST_FEE","inputs":[]},{"type":"error","name":"INVALID_CHAIN_ID","inputs":[]},{"type":"error","name":"INVALID_MESSAGE_TYPE","inputs":[]},{"type":"error","name":"INVALID_PAYLOAD_TYPE","inputs":[]},{"type":"error","name":"LENGTH_MISMATCH","inputs":[]},{"type":"error","name":"NOT_BROADCAST_REGISTRY","inputs":[]},{"type":"error","name":"NOT_MINTER","inputs":[]},{"type":"error","name":"NOT_MINTER_STATE_REGISTRY_ROLE","inputs":[]},{"type":"error","name":"NOT_PROTOCOL_ADMIN","inputs":[]},{"type":"error","name":"NOT_SUPERFORM_ROUTER","inputs":[]},{"type":"error","name":"SRC_TX_TYPE_MISMATCH","inputs":[]},{"type":"error","name":"SUPERFORM_ID_NONEXISTENT","inputs":[]},{"type":"error","name":"TRANSFER_TO_ADDRESS_ZERO","inputs":[]},{"type":"error","name":"TX_HISTORY_NOT_FOUND","inputs":[]},{"type":"error","name":"ZERO_ADDRESS","inputs":[]}],"bytecode":{"object":"0x60c06040523480156200001157600080fd5b5060405162009f8d38038062009f8d833981810160405281019062000037919062000308565b818181600590816200004a919062000622565b5080600690816200005c919062000622565b50505067ffffffffffffffff8016461115620000a4576040517f7ecdf93300000000000000000000000000000000000000000000000000000000815260040160405180910390fd5b4667ffffffffffffffff1660a08167ffffffffffffffff16815250508273ffffffffffffffffffffffffffffffffffffffff1660808173ffffffffffffffffffffffffffffffffffffffff1681525050836008908162000105919062000622565b505050505062000709565b6000604051905090565b600080fd5b600080fd5b600080fd5b600080fd5b6000601f19601f8301169050919050565b7f4e487b7100000000000000000000000000000000000000000000000000000000600052604160045260246000fd5b62000179826200012e565b810181811067ffffffffffffffff821117156200019b576200019a6200013f565b5b80604052505050565b6000620001b062000110565b9050620001be82826200016e565b919050565b600067ffffffffffffffff821115620001e157620001e06200013f565b5b620001ec826200012e565b9050602081019050919050565b60005b8381101562000219578082015181840152602081019050620001fc565b60008484015250505050565b60006200023c6200023684620001c3565b620001a4565b9050828152602081018484840111156200025b576200025a62000129565b5b62000268848285620001f9565b509392505050565b600082601f83011262000288576200028762000124565b5b81516200029a84826020860162000225565b91505092915050565b600073ffffffffffffffffffffffffffffffffffffffff82169050919050565b6000620002d082620002a3565b9050919050565b620002e281620002c3565b8114620002ee57600080fd5b50565b6000815190506200030281620002d7565b92915050565b600080600080608085870312156200032557620003246200011a565b5b600085015167ffffffffffffffff8111156200034657620003456200011f565b5b620003548782880162000270565b94505060206200036787828801620002f1565b935050604085015167ffffffffffffffff8111156200038b576200038a6200011f565b5b620003998782880162000270565b925050606085015167ffffffffffffffff811115620003bd57620003bc6200011f565b5b620003cb8782880162000270565b91505092959194509250565b600081519050919050565b7f4e487b7100000000000000000000000000000000000000000000000000000000600052602260045260246000fd5b600060028204905060018216806200042a57607f821691505b60208210810362000440576200043f620003e2565b5b50919050565b60008190508160005260206000209050919050565b60006020601f8301049050919050565b600082821b905092915050565b600060088302620004aa7fffffffffffffffffffffffffffffffffffffffffffffffffffffffffffffffff826200046b565b620004b686836200046b565b95508019841693508086168417925050509392505050565b6000819050919050565b6000819050919050565b600062000503620004fd620004f784620004ce565b620004d8565b620004ce565b9050919050565b6000819050919050565b6200051f83620004e2565b620005376200052e826200050a565b84845462000478565b825550505050565b600090565b6200054e6200053f565b6200055b81848462000514565b505050565b5b8181101562000583576200057760008262000544565b60018101905062000561565b5050565b601f821115620005d2576200059c8162000446565b620005a7846200045b565b81016020851015620005b7578190505b620005cf620005c6856200045b565b83018262000560565b50505b505050565b600082821c905092915050565b6000620005f760001984600802620005d7565b1980831691505092915050565b6000620006128383620005e4565b9150826002028217905092915050565b6200062d82620003d7565b67ffffffffffffffff8111156200064957620006486200013f565b5b62000655825462000411565b6200066282828562000587565b600060209050601f8311600181146200069a576000841562000685578287015190505b62000691858262000604565b86555062000701565b601f198416620006aa8662000446565b60005b82811015620006d457848901518255600182019150602085019450602081019050620006ad565b86831015620006f45784890151620006f0601f891682620005e4565b8355505b6001600288020188555050505b505050505050565b60805160a0516197e7620007a6600039600081816126760152614049015260008181610e780152818161104501528181611b1e015281816122910152818161269d0152818161279401528181612e7401528181612fab015281816131720152818161361301528181613cab015281816140b4015281816141730152818161425401528181614aa501528181614c850152615bd201526197e76000f3fe608060405260043610620002895760003560e01c80637081ce5e1162000157578063cdde3d6b11620000c7578063e985e9c51162000085578063e985e9c51462000a6d578063ec7373211462000ab1578063ed7a8e421462000adf578063edf387c51462000b0d578063f242432a1462000b3d578063ff61011a1462000b6b5762000289565b8063cdde3d6b1462000967578063d7ea0c2314620009ab578063d81d0a1514620009db578063e673070f1462000a09578063e6ddad4c1462000a4d5762000289565b806395d89b41116200011557806395d89b411462000853578063a22cb4651462000883578063a49f951614620008b1578063bd85b03914620008df578063cd4622eb14620009235762000289565b80637081ce5e146200075457806375fcbd86146200078257806385e1f4d014620007c75780638d04e40e14620007f75780639473655c14620008255762000289565b806333e3072111620001ff5780635029d0c811620001bd5780635029d0c814620005fe578063540ed9c0146200062c578063598af9e714620006705780635fa8d76414620006b457806367bc406514620006e25780636b20c45414620007265762000289565b806333e3072114620004c057806349e5b64914620005045780634e1273f414620005485780634ec1bec7146200058c5780634f558e7914620005ba5762000289565b80630e89341c116200024d5780630e89341c14620003c0578063132b48161462000404578063137bc427146200043257806324c73dda14620004625780632eb2c2d614620004925762000289565b8062fdd58e146200028e57806301ffc9a714620002d25780630282acfc146200031657806306fdde03146200035a578063093e3164146200038a575b600080fd5b3480156200029b57600080fd5b50620002ba6004803603810190620002b4919062005e18565b62000baf565b604051620002c9919062005e70565b60405180910390f35b348015620002df57600080fd5b50620002fe6004803603810190620002f8919062005eea565b62000bd4565b6040516200030d919062005f39565b60405180910390f35b3480156200032357600080fd5b506200034260048036038101906200033c919062005f56565b62000be8565b60405162000351919062005f99565b60405180910390f35b3480156200036757600080fd5b506200037262000c1b565b60405162000381919062006050565b60405180910390f35b620003a86004803603810190620003a2919062005f56565b62000cb1565b604051620003b7919062005f99565b60405180910390f35b348015620003cd57600080fd5b50620003ec6004803603810190620003e6919062005f56565b62000e36565b604051620003fb919062006050565b60405180910390f35b3480156200041157600080fd5b506200043060048036038101906200042a919062006074565b62000e76565b005b3480156200043f57600080fd5b506200044a62000fad565b60405162000459919062006050565b60405180910390f35b3480156200046f57600080fd5b506200047a62001043565b6040516200048991906200613b565b60405180910390f35b3480156200049f57600080fd5b50620004be6004803603810190620004b8919062006384565b62001067565b005b348015620004cd57600080fd5b50620004ec6004803603810190620004e69190620064eb565b62001395565b604051620004fb919062006561565b60405180910390f35b3480156200051157600080fd5b506200053060048036038101906200052a9190620064eb565b620016ab565b6040516200053f919062006561565b60405180910390f35b3480156200055557600080fd5b506200057460048036038101906200056e919062006654565b620019c1565b604051620005839190620067a7565b60405180910390f35b3480156200059957600080fd5b50620005b86004803603810190620005b29190620067cb565b62001b1c565b005b348015620005c757600080fd5b50620005e66004803603810190620005e0919062005f56565b62001d28565b604051620005f5919062005f39565b60405180910390f35b3480156200060b57600080fd5b506200062a600480360381019062000624919062006827565b62001d47565b005b3480156200063957600080fd5b5062000658600480360381019062000652919062005f56565b62002028565b60405162000667919062005f99565b60405180910390f35b3480156200067d57600080fd5b506200069c6004803603810190620006969190620068d7565b62002065565b604051620006ab919062005e70565b60405180910390f35b348015620006c157600080fd5b50620006e06004803603810190620006da919062006933565b620020fe565b005b348015620006ef57600080fd5b506200070e600480360381019062000708919062006933565b620021a8565b6040516200071d919062005f39565b60405180910390f35b3480156200073357600080fd5b506200075260048036038101906200074c919062006933565b6200228f565b005b3480156200076157600080fd5b506200078060048036038101906200077a9190620069cd565b62002402565b005b3480156200078f57600080fd5b50620007ae6004803603810190620007a8919062005f56565b62002630565b604051620007be92919062006a3f565b60405180910390f35b348015620007d457600080fd5b50620007df62002674565b604051620007ee919062006561565b60405180910390f35b3480156200080457600080fd5b506200082360048036038101906200081d919062006074565b62002698565b005b3480156200083257600080fd5b506200085160048036038101906200084b9190620069cd565b62002922565b005b3480156200086057600080fd5b506200086b62002b62565b6040516200087a919062006050565b60405180910390f35b3480156200089057600080fd5b50620008af6004803603810190620008a9919062006a9d565b62002bf8565b005b348015620008be57600080fd5b50620008dd6004803603810190620008d7919062006074565b62002d5e565b005b348015620008ec57600080fd5b506200090b600480360381019062000905919062005f56565b62002d73565b6040516200091a919062005e70565b60405180910390f35b3480156200093057600080fd5b506200094f600480360381019062000949919062006933565b62002d8f565b6040516200095e919062005f39565b60405180910390f35b3480156200097457600080fd5b506200099360048036038101906200098d919062006074565b62002e41565b604051620009a2919062005f39565b60405180910390f35b348015620009b857600080fd5b50620009c362002e5c565b604051620009d2919062005f39565b60405180910390f35b348015620009e857600080fd5b5062000a07600480360381019062000a01919062006933565b62002e6f565b005b34801562000a1657600080fd5b5062000a35600480360381019062000a2f919062005f56565b62003104565b60405162000a44919062005f39565b60405180910390f35b62000a6b600480360381019062000a65919062006ae4565b62003170565b005b34801562000a7a57600080fd5b5062000a99600480360381019062000a93919062006b35565b6200331f565b60405162000aa8919062005f39565b60405180910390f35b34801562000abe57600080fd5b5062000add600480360381019062000ad7919062006827565b6200334e565b005b34801562000aec57600080fd5b5062000b0b600480360381019062000b05919062006c30565b62003611565b005b34801562000b1a57600080fd5b5062000b25620038f4565b60405162000b34919062005e70565b60405180910390f35b34801562000b4a57600080fd5b5062000b69600480360381019062000b63919062006c96565b620038fa565b005b34801562000b7857600080fd5b5062000b97600480360381019062000b91919062006074565b62003b35565b60405162000ba6919062005f39565b60405180910390f35b6002602052816000526040600020602052806000526040600020600091509150505481565b600062000be18262003b6b565b9050919050565b60046020528060005260406000206000915054906101000a900473ffffffffffffffffffffffffffffffffffffffff1681565b6005805462000c2a9062006d6c565b80601f016020809104026020016040519081016040528092919081815260200182805462000c589062006d6c565b801562000ca95780601f1062000c7d5761010080835404028352916020019162000ca9565b820191906000526020600020905b81548152906001019060200180831162000c8b57829003601f168201915b505050505081565b600080600080848152602001908152602001600020540362000cff576040517fdade96f800000000000000000000000000000000000000000000000000000000815260040160405180910390fd5b600073ffffffffffffffffffffffffffffffffffffffff166004600084815260200190815260200160002060009054906101000a900473ffffffffffffffffffffffffffffffffffffffff1673ffffffffffffffffffffffffffffffffffffffff161462000d99576040517f8fa9d35a00000000000000000000000000000000000000000000000000000000815260040160405180910390fd5b600062000da68362003ca7565b9050806004600085815260200190815260200160002060006101000a81548173ffffffffffffffffffffffffffffffffffffffff021916908373ffffffffffffffffffffffffffffffffffffffff1602179055506004600084815260200190815260200160002060009054906101000a900473ffffffffffffffffffffffffffffffffffffffff16915050919050565b606062000e42620043db565b62000e4d8362004475565b60405160200162000e6092919062006de3565b6040516020818303038152906040529050919050565b7f000000000000000000000000000000000000000000000000000000000000000073ffffffffffffffffffffffffffffffffffffffff166321f8a7217f3a2f5529773e03d975be44bdae98a8509bdf1159e407504e558536cde56cf6ac6040518263ffffffff1660e01b815260040162000ef1919062006e26565b602060405180830381865afa15801562000f0f573d6000803e3d6000fd5b505050506040513d601f19601f8201168201806040525081019062000f35919062006e5a565b73ffffffffffffffffffffffffffffffffffffffff163373ffffffffffffffffffffffffffffffffffffffff161462000f9a576040517f158a2f6b00000000000000000000000000000000000000000000000000000000815260040160405180910390fd5b62000fa8833384846200454e565b505050565b6008805462000fbc9062006d6c565b80601f016020809104026020016040519081016040528092919081815260200182805462000fea9062006d6c565b80156200103b5780601f106200100f576101008083540402835291602001916200103b565b820191906000526020600020905b8154815290600101906020018083116200101d57829003601f168201915b505050505081565b7f000000000000000000000000000000000000000000000000000000000000000081565b600073ffffffffffffffffffffffffffffffffffffffff168573ffffffffffffffffffffffffffffffffffffffff161480620010cf5750600073ffffffffffffffffffffffffffffffffffffffff168473ffffffffffffffffffffffffffffffffffffffff16145b1562001107576040517f538ba4f900000000000000000000000000000000000000000000000000000000815260040160405180910390fd5b6000835190508251811462001148576040517f899ef10d00000000000000000000000000000000000000000000000000000000815260040160405180910390fd5b60003390508673ffffffffffffffffffffffffffffffffffffffff168173ffffffffffffffffffffffffffffffffffffffff1614158015620012115750600360008873ffffffffffffffffffffffffffffffffffffffff1673ffffffffffffffffffffffffffffffffffffffff16815260200190815260200160002060008273ffffffffffffffffffffffffffffffffffffffff1673ffffffffffffffffffffffffffffffffffffffff16815260200190815260200160002060009054906101000a900460ff16155b156200129a5760008060005b8481101562001291578781815181106200123c576200123b62006e8c565b5b602002602001015192508681815181106200125c576200125b62006e8c565b5b60200260200101519150620012768a8585856000620046eb565b50620012858a8a858562004762565b8060010190506200121d565b505050620012fc565b60005b82811015620012fa57620012ee8888888481518110620012c257620012c162006e8c565b5b6020026020010151888581518110620012e057620012df62006e8c565b5b602002602001015162004762565b8060010190506200129d565b505b8573ffffffffffffffffffffffffffffffffffffffff168773ffffffffffffffffffffffffffffffffffffffff168273ffffffffffffffffffffffffffffffffffffffff167f4a39dc06d4c0dbc64b70af90fd698a233a518aa5d07e595d983b8c0526c8f7fb88886040516200137492919062006ebb565b60405180910390a46200138c8188888888886200483a565b50505050505050565b600080600080620013aa856000015162004a69565b505050925060ff16925060ff16925060016002811115620013d057620013cf62006ef6565b5b8214158015620013f55750600280811115620013f157620013f062006ef6565b5b8214155b156200142d576040517f641c695500000000000000000000000000000000000000000000000000000000815260040160405180910390fd5b6000856020015180602001905181019062001449919062006fab565b90506200145a816020015162004aa1565b6000600760008360000151815260200190815260200160002060000154905060008103620014b4576040517feed061b700000000000000000000000000000000000000000000000000000000815260040160405180910390fd5b6000620014c18262004a69565b8560ff1695509091929350909192509091509050809850819250505060008460ff16146200151b576040517f641c695500000000000000000000000000000000000000000000000000000000815260040160405180910390fd5b80861462001555576040517ff294048400000000000000000000000000000000000000000000000000000000815260040160405180910390fd5b600060018111156200156c576200156b62006ef6565b5b81148015620015905750600160028111156200158d576200158c62006ef6565b5b85145b80620015d15750600180811115620015ad57620015ac62006ef6565b5b81148015620015d05750600280811115620015cd57620015cc62006ef6565b5b85145b5b156200163d5762001637600760008560000151815260200190815260200160002060010160009054906101000a900473ffffffffffffffffffffffffffffffffffffffff1633856020015186604001516040518060200160405280600081525062004b54565b6200166f565b6040517f641c695500000000000000000000000000000000000000000000000000000000815260040160405180910390fd5b82600001517fdfd517ed69f8a0a57d49fe494e4864fac3cfe3585c14c0bfddf39f72463ec3fd60405160405180910390a2505050505050919050565b600080600080620016c0856000015162004a69565b505050925060ff16925060ff16925060016002811115620016e657620016e562006ef6565b5b82141580156200170b575060028081111562001707576200170662006ef6565b5b8214155b1562001743576040517f641c695500000000000000000000000000000000000000000000000000000000815260040160405180910390fd5b600085602001518060200190518101906200175f919062007131565b905062001770816020015162004c81565b6000600760008360000151815260200190815260200160002060000154905060008103620017ca576040517feed061b700000000000000000000000000000000000000000000000000000000815260040160405180910390fd5b6000620017d78262004a69565b8560ff1695509091929350909192509091509050809850819250505060018460ff161462001831576040517f641c695500000000000000000000000000000000000000000000000000000000815260040160405180910390fd5b8086146200186b576040517ff294048400000000000000000000000000000000000000000000000000000000815260040160405180910390fd5b6000600181111562001882576200188162006ef6565b5b81148015620018a6575060016002811115620018a357620018a262006ef6565b5b85145b80620018e75750600180811115620018c357620018c262006ef6565b5b81148015620018e65750600280811115620018e357620018e262006ef6565b5b85145b5b1562001953576200194d600760008560000151815260200190815260200160002060010160009054906101000a900473ffffffffffffffffffffffffffffffffffffffff1633856020015186604001516040518060200160405280600081525062004d6b565b62001985565b6040517f641c695500000000000000000000000000000000000000000000000000000000815260040160405180910390fd5b82600001517fdfd517ed69f8a0a57d49fe494e4864fac3cfe3585c14c0bfddf39f72463ec3fd60405160405180910390a2505050505050919050565b60608151835114620019ff576040517f899ef10d00000000000000000000000000000000000000000000000000000000815260040160405180910390fd5b825167ffffffffffffffff81111562001a1d5762001a1c6200615d565b5b60405190808252806020026020018201604052801562001a4c5781602001602082028036833780820191505090505b50905060005b835181101562001b15576002600085838151811062001a765762001a7562006e8c565b5b602002602001015173ffffffffffffffffffffffffffffffffffffffff1673ffffffffffffffffffffffffffffffffffffffff168152602001908152602001600020600084838151811062001ad05762001acf62006e8c565b5b602002602001015181526020019081526020016000205482828151811062001afd5762001afc62006e8c565b5b60200260200101818152505080600101905062001a52565b5092915050565b7f000000000000000000000000000000000000000000000000000000000000000073ffffffffffffffffffffffffffffffffffffffff166321f8a7217f3a2f5529773e03d975be44bdae98a8509bdf1159e407504e558536cde56cf6ac6040518263ffffffff1660e01b815260040162001b97919062006e26565b602060405180830381865afa15801562001bb5573d6000803e3d6000fd5b505050506040513d601f19601f8201168201806040525081019062001bdb919062006e5a565b73ffffffffffffffffffffffffffffffffffffffff163373ffffffffffffffffffffffffffffffffffffffff161462001c40576040517f158a2f6b00000000000000000000000000000000000000000000000000000000815260040160405180910390fd5b60405180604001604052808381526020018273ffffffffffffffffffffffffffffffffffffffff16815250600760008581526020019081526020016000206000820151816000015560208201518160010160006101000a81548173ffffffffffffffffffffffffffffffffffffffff021916908373ffffffffffffffffffffffffffffffffffffffff1602179055509050508073ffffffffffffffffffffffffffffffffffffffff16837f226fd1a430a7a15fa93582471a806bc430535d985fa9547a69921a9499bf492b8460405162001d1b919062005e70565b60405180910390a3505050565b6000806000808481526020019081526020016000205414159050919050565b600073ffffffffffffffffffffffffffffffffffffffff168473ffffffffffffffffffffffffffffffffffffffff16148062001daf5750600073ffffffffffffffffffffffffffffffffffffffff168173ffffffffffffffffffffffffffffffffffffffff16145b1562001de7576040517f538ba4f900000000000000000000000000000000000000000000000000000000815260040160405180910390fd5b6000835190508251811462001e28576040517f899ef10d00000000000000000000000000000000000000000000000000000000815260040160405180910390fd5b60008060005b865181101562001f975786818151811062001e4e5762001e4d62006e8c565b5b6020026020010151925085818151811062001e6e5762001e6d62006e8c565b5b6020026020010151915060006004600085815260200190815260200160002060009054906101000a900473ffffffffffffffffffffffffffffffffffffffff169050600073ffffffffffffffffffffffffffffffffffffffff168173ffffffffffffffffffffffffffffffffffffffff160362001f17576040517fd3e51b9200000000000000000000000000000000000000000000000000000000815260040160405180910390fd5b8073ffffffffffffffffffffffffffffffffffffffff1663f6b911bc8a33866040518463ffffffff1660e01b815260040162001f569392919062007182565b600060405180830381600087803b15801562001f7157600080fd5b505af115801562001f86573d6000803e3d6000fd5b505050505080600101905062001e2e565b5062001fb6843388886040518060200160405280600081525062004d6b565b8373ffffffffffffffffffffffffffffffffffffffff168773ffffffffffffffffffffffffffffffffffffffff167f2ec4237e89b1c7ccb8710672dc83af16f1949c33f3b313eeaab1a626e6aa442788886040516200201792919062006ebb565b60405180910390a350505050505050565b60006004600083815260200190815260200160002060009054906101000a900473ffffffffffffffffffffffffffffffffffffffff169050919050565b6000600160008573ffffffffffffffffffffffffffffffffffffffff1673ffffffffffffffffffffffffffffffffffffffff16815260200190815260200160002060008473ffffffffffffffffffffffffffffffffffffffff1673ffffffffffffffffffffffffffffffffffffffff16815260200190815260200160002060008381526020019081526020016000205490509392505050565b600082519050815181146200213f576040517f899ef10d00000000000000000000000000000000000000000000000000000000815260040160405180910390fd5b60005b81811015620021a15762002195338686848151811062002167576200216662006e8c565b5b602002602001015186858151811062002185576200218462006e8c565b5b6020026020010151600162004f38565b80600101905062002142565b5050505050565b6000808351905082518114620021ea576040517f899ef10d00000000000000000000000000000000000000000000000000000000815260040160405180910390fd5b60005b81811015620022825762002276338787848151811062002212576200221162006e8c565b5b602002602001015187858151811062002230576200222f62006e8c565b5b602002602001015162002262338c8c898151811062002254576200225362006e8c565b5b602002602001015162002065565b6200226e9190620071ee565b600162004f38565b806001019050620021ed565b5060019150509392505050565b7f000000000000000000000000000000000000000000000000000000000000000073ffffffffffffffffffffffffffffffffffffffff166321f8a7217f3a2f5529773e03d975be44bdae98a8509bdf1159e407504e558536cde56cf6ac6040518263ffffffff1660e01b81526004016200230a919062006e26565b602060405180830381865afa15801562002328573d6000803e3d6000fd5b505050506040513d601f19601f820116820180604052508101906200234e919062006e5a565b73ffffffffffffffffffffffffffffffffffffffff163373ffffffffffffffffffffffffffffffffffffffff1614620023b3576040517f158a2f6b00000000000000000000000000000000000000000000000000000000815260040160405180910390fd5b8051825114620023ef576040517f88adebd200000000000000000000000000000000000000000000000000000000815260040160405180910390fd5b620023fd8333848462005110565b505050565b600073ffffffffffffffffffffffffffffffffffffffff168473ffffffffffffffffffffffffffffffffffffffff1614806200246a5750600073ffffffffffffffffffffffffffffffffffffffff168173ffffffffffffffffffffffffffffffffffffffff16145b15620024a2576040517f538ba4f900000000000000000000000000000000000000000000000000000000815260040160405180910390fd5b620024b0843385856200454e565b60006004600085815260200190815260200160002060009054906101000a900473ffffffffffffffffffffffffffffffffffffffff169050600073ffffffffffffffffffffffffffffffffffffffff168173ffffffffffffffffffffffffffffffffffffffff16036200254f576040517fd3e51b9200000000000000000000000000000000000000000000000000000000815260040160405180910390fd5b8073ffffffffffffffffffffffffffffffffffffffff166340c10f1983856040518363ffffffff1660e01b81526004016200258c92919062007229565b600060405180830381600087803b158015620025a757600080fd5b505af1158015620025bc573d6000803e3d6000fd5b505050508173ffffffffffffffffffffffffffffffffffffffff168573ffffffffffffffffffffffffffffffffffffffff167f4420f38d0f4ce916c1d0da8d37675c007978eaaa4a8c2cc4231fd52a7a57b61486866040516200262192919062007256565b60405180910390a35050505050565b60076020528060005260406000206000915090508060000154908060010160009054906101000a900473ffffffffffffffffffffffffffffffffffffffff16905082565b7f000000000000000000000000000000000000000000000000000000000000000081565b8160007f000000000000000000000000000000000000000000000000000000000000000073ffffffffffffffffffffffffffffffffffffffff166321f8a7217f3a2f5529773e03d975be44bdae98a8509bdf1159e407504e558536cde56cf6ac6040518263ffffffff1660e01b815260040162002716919062006e26565b602060405180830381865afa15801562002734573d6000803e3d6000fd5b505050506040513d601f19601f820116820180604052508101906200275a919062006e5a565b90508073ffffffffffffffffffffffffffffffffffffffff163373ffffffffffffffffffffffffffffffffffffffff1614620028fd5760007f000000000000000000000000000000000000000000000000000000000000000073ffffffffffffffffffffffffffffffffffffffff16632f6438ab336040518263ffffffff1660e01b8152600401620027ed919062005f99565b602060405180830381865afa1580156200280b573d6000803e3d6000fd5b505050506040513d601f19601f82011682018060405250810190620028319190620072c1565b9050600062002840846200545a565b5050905060008173ffffffffffffffffffffffffffffffffffffffff166391deb8826040518163ffffffff1660e01b8152600401602060405180830381865afa15801562002892573d6000803e3d6000fd5b505050506040513d601f19601f82011682018060405250810190620028b89190620072c1565b90508060ff168360ff1614620028f9576040517e91433400000000000000000000000000000000000000000000000000000000815260040160405180910390fd5b5050505b6200291b853386866040518060200160405280600081525062004b54565b5050505050565b600073ffffffffffffffffffffffffffffffffffffffff168473ffffffffffffffffffffffffffffffffffffffff1614806200298a5750600073ffffffffffffffffffffffffffffffffffffffff168173ffffffffffffffffffffffffffffffffffffffff16145b15620029c2576040517f538ba4f900000000000000000000000000000000000000000000000000000000815260040160405180910390fd5b60006004600085815260200190815260200160002060009054906101000a900473ffffffffffffffffffffffffffffffffffffffff169050600073ffffffffffffffffffffffffffffffffffffffff168173ffffffffffffffffffffffffffffffffffffffff160362002a61576040517fd3e51b9200000000000000000000000000000000000000000000000000000000815260040160405180910390fd5b8073ffffffffffffffffffffffffffffffffffffffff1663f6b911bc8633866040518463ffffffff1660e01b815260040162002aa09392919062007182565b600060405180830381600087803b15801562002abb57600080fd5b505af115801562002ad0573d6000803e3d6000fd5b5050505062002af2823386866040518060200160405280600081525062004b54565b8173ffffffffffffffffffffffffffffffffffffffff168573ffffffffffffffffffffffffffffffffffffffff167f9195fdebb74042f1bd7abc0ded779a6e10ae01e0ad5f5546cb7e421d65a56666868660405162002b5392919062007256565b60405180910390a35050505050565b6006805462002b719062006d6c565b80601f016020809104026020016040519081016040528092919081815260200182805462002b9f9062006d6c565b801562002bf05780601f1062002bc45761010080835404028352916020019162002bf0565b820191906000526020600020905b81548152906001019060200180831162002bd257829003601f168201915b505050505081565b600073ffffffffffffffffffffffffffffffffffffffff168273ffffffffffffffffffffffffffffffffffffffff160362002c5f576040517f538ba4f900000000000000000000000000000000000000000000000000000000815260040160405180910390fd5b80600360003373ffffffffffffffffffffffffffffffffffffffff1673ffffffffffffffffffffffffffffffffffffffff16815260200190815260200160002060008473ffffffffffffffffffffffffffffffffffffffff1673ffffffffffffffffffffffffffffffffffffffff16815260200190815260200160002060006101000a81548160ff0219169083151502179055508173ffffffffffffffffffffffffffffffffffffffff163373ffffffffffffffffffffffffffffffffffffffff167f17307eab39ab6107e8899845ad3d59bd9653f200f220920489ca2b5937696c318360405162002d52919062005f39565b60405180910390a35050565b62002d6e33848484600162004f38565b505050565b6000806000838152602001908152602001600020549050919050565b600080835190508251811462002dd1576040517f899ef10d00000000000000000000000000000000000000000000000000000000815260040160405180910390fd5b60005b8181101562002e345762002e27338787848151811062002df95762002df862006e8c565b5b602002602001015187858151811062002e175762002e1662006e8c565b5b60200260200101516001620046eb565b5080600101905062002dd4565b5060019150509392505050565b600062002e53338585856001620046eb565b90509392505050565b600960009054906101000a900460ff1681565b8160007f000000000000000000000000000000000000000000000000000000000000000073ffffffffffffffffffffffffffffffffffffffff166321f8a7217f3a2f5529773e03d975be44bdae98a8509bdf1159e407504e558536cde56cf6ac6040518263ffffffff1660e01b815260040162002eed919062006e26565b602060405180830381865afa15801562002f0b573d6000803e3d6000fd5b505050506040513d601f19601f8201168201806040525081019062002f31919062006e5a565b90508073ffffffffffffffffffffffffffffffffffffffff163373ffffffffffffffffffffffffffffffffffffffff1614620030a35760008251905060005b81811015620030a057600062002fa385838151811062002f955762002f9462006e8c565b5b60200260200101516200545a565b5091505060007f000000000000000000000000000000000000000000000000000000000000000073ffffffffffffffffffffffffffffffffffffffff16632f6438ab336040518263ffffffff1660e01b815260040162003004919062005f99565b602060405180830381865afa15801562003022573d6000803e3d6000fd5b505050506040513d601f19601f82011682018060405250810190620030489190620072c1565b90508163ffffffff168160ff1663ffffffff161462003092576040517e91433400000000000000000000000000000000000000000000000000000000815260040160405180910390fd5b505080600101905062002f70565b50505b8251845114620030df576040517f88adebd200000000000000000000000000000000000000000000000000000000815260040160405180910390fd5b620030fd853386866040518060200160405280600081525062004d6b565b5050505050565b60008073ffffffffffffffffffffffffffffffffffffffff166004600084815260200190815260200160002060009054906101000a900473ffffffffffffffffffffffffffffffffffffffff1673ffffffffffffffffffffffffffffffffffffffff1614159050919050565b7f000000000000000000000000000000000000000000000000000000000000000073ffffffffffffffffffffffffffffffffffffffff166321f8a7217f86a7f6b88da6de42c331676d4da78508adfef4970dc8aa541004f26b6eef4ab96040518263ffffffff1660e01b8152600401620031eb919062006e26565b602060405180830381865afa15801562003209573d6000803e3d6000fd5b505050506040513d601f19601f820116820180604052508101906200322f919062006e5a565b73ffffffffffffffffffffffffffffffffffffffff163373ffffffffffffffffffffffffffffffffffffffff161462003294576040517fb0acaf9d00000000000000000000000000000000000000000000000000000000815260040160405180910390fd5b600081806020019051810190620032ac91906200744f565b90507f62fe4458baf33f94c99b0a629b6b8fae9f220aa42242d61592a0454d37a7484c8160200151146200330c576040517f9916d69e00000000000000000000000000000000000000000000000000000000815260040160405180910390fd5b6200331b8160400151620054bc565b5050565b60036020528160005260406000206020528060005260406000206000915091509054906101000a900460ff1681565b600073ffffffffffffffffffffffffffffffffffffffff168473ffffffffffffffffffffffffffffffffffffffff161480620033b65750600073ffffffffffffffffffffffffffffffffffffffff168173ffffffffffffffffffffffffffffffffffffffff16145b15620033ee576040517f538ba4f900000000000000000000000000000000000000000000000000000000815260040160405180910390fd5b600083519050825181146200342f576040517f899ef10d00000000000000000000000000000000000000000000000000000000815260040160405180910390fd5b6200343d8533868662005110565b60005b81811015620035a05760006004600087848151811062003465576200346462006e8c565b5b6020026020010151815260200190815260200160002060009054906101000a900473ffffffffffffffffffffffffffffffffffffffff169050600073ffffffffffffffffffffffffffffffffffffffff168173ffffffffffffffffffffffffffffffffffffffff160362003505576040517fd3e51b9200000000000000000000000000000000000000000000000000000000815260040160405180910390fd5b8073ffffffffffffffffffffffffffffffffffffffff166340c10f198587858151811062003538576200353762006e8c565b5b60200260200101516040518363ffffffff1660e01b81526004016200355f92919062007229565b600060405180830381600087803b1580156200357a57600080fd5b505af11580156200358f573d6000803e3d6000fd5b505050505080600101905062003440565b508173ffffffffffffffffffffffffffffffffffffffff168573ffffffffffffffffffffffffffffffffffffffff167f1c57454fefbe0a2a0aa1926734e74f4cb5137003ccf5e6edfde51c79163fbf3786866040516200360292919062006ebb565b60405180910390a35050505050565b7f000000000000000000000000000000000000000000000000000000000000000073ffffffffffffffffffffffffffffffffffffffff166321f8a7217f6b50fa17b77d24e42e27a04b69fe50cd6967cfb767d18de0bd5fe7e1a32aa8686040518263ffffffff1660e01b81526004016200368c919062006e26565b602060405180830381865afa158015620036aa573d6000803e3d6000fd5b505050506040513d601f19601f82011682018060405250810190620036d0919062006e5a565b73ffffffffffffffffffffffffffffffffffffffff1663d35911f2336040518263ffffffff1660e01b81526004016200370a919062005f99565b602060405180830381865afa15801562003728573d6000803e3d6000fd5b505050506040513d601f19601f820116820180604052508101906200374e9190620074b7565b62003785576040517fdc85555400000000000000000000000000000000000000000000000000000000815260040160405180910390fd5b600960009054906101000a900460ff1615620037cd576040517ffb407daf00000000000000000000000000000000000000000000000000000000815260040160405180910390fd5b600060088054620037de9062006d6c565b80601f01602080910402602001604051908101604052809291908181526020018280546200380c9062006d6c565b80156200385d5780601f1062003831576101008083540402835291602001916200385d565b820191906000526020600020905b8154815290600101906020018083116200383f57829003601f168201915b505050505090508260089081620038759190620076b1565b5081600960006101000a81548160ff02191690831515021790555081151583604051620038a3919062007798565b604051809103902082604051620038bb919062007798565b60405180910390207f5386175ed3f7187aa4eae65398696731724636ea68ccda712d3119159f5b115960405160405180910390a4505050565b600a5481565b600073ffffffffffffffffffffffffffffffffffffffff168573ffffffffffffffffffffffffffffffffffffffff161480620039625750600073ffffffffffffffffffffffffffffffffffffffff168473ffffffffffffffffffffffffffffffffffffffff16145b156200399a576040517f538ba4f900000000000000000000000000000000000000000000000000000000815260040160405180910390fd5b60003390508073ffffffffffffffffffffffffffffffffffffffff168673ffffffffffffffffffffffffffffffffffffffff161415801562003a635750600360008773ffffffffffffffffffffffffffffffffffffffff1673ffffffffffffffffffffffffffffffffffffffff16815260200190815260200160002060008273ffffffffffffffffffffffffffffffffffffffff1673ffffffffffffffffffffffffffffffffffffffff16815260200190815260200160002060009054906101000a900460ff16155b1562003a8e5762003a79868286866000620046eb565b5062003a888686868662004762565b62003a9d565b62003a9c8686868662004762565b5b8473ffffffffffffffffffffffffffffffffffffffff168673ffffffffffffffffffffffffffffffffffffffff168273ffffffffffffffffffffffffffffffffffffffff167fc3d58168c5ae7397731d063d5bbf3d657854427343f4c083240f7aacaa2d0f62878760405162003b1592919062007256565b60405180910390a462003b2d8187878787876200565b565b505050505050565b600062003b603385858562003b4c338a8a62002065565b62003b589190620071ee565b600162004f38565b600190509392505050565b60007f01ffc9a7000000000000000000000000000000000000000000000000000000007bffffffffffffffffffffffffffffffffffffffffffffffffffffffff1916827bffffffffffffffffffffffffffffffffffffffffffffffffffffffff1916148062003c3757507fd9b67a26000000000000000000000000000000000000000000000000000000007bffffffffffffffffffffffffffffffffffffffffffffffffffffffff1916827bffffffffffffffffffffffffffffffffffffffffffffffffffffffff1916145b8062003ca057507f0e89341c000000000000000000000000000000000000000000000000000000007bffffffffffffffffffffffffffffffffffffffffffffffffffffffff1916827bffffffffffffffffffffffffffffffffffffffffffffffffffffffff1916145b9050919050565b60007f000000000000000000000000000000000000000000000000000000000000000073ffffffffffffffffffffffffffffffffffffffff166321f8a7217fbcc180fb907e9ae431665de4bc74305c00b7b27442aadd477980ecc4bb14c0116040518263ffffffff1660e01b815260040162003d24919062006e26565b602060405180830381865afa15801562003d42573d6000803e3d6000fd5b505050506040513d601f19601f8201168201806040525081019062003d68919062006e5a565b73ffffffffffffffffffffffffffffffffffffffff1663b5c75697836040518263ffffffff1660e01b815260040162003da2919062005e70565b602060405180830381865afa15801562003dc0573d6000803e3d6000fd5b505050506040513d601f19601f8201168201806040525081019062003de69190620074b7565b62003e1d576040517fa412f06500000000000000000000000000000000000000000000000000000000815260040160405180910390fd5b600062003e2a836200545a565b5050905060008173ffffffffffffffffffffffffffffffffffffffff166320592d986040518163ffffffff1660e01b8152600401600060405180830381865afa15801562003e7c573d6000803e3d6000fd5b505050506040513d6000823e3d601f19601f8201168201806040525081019062003ea791906200782f565b905060008273ffffffffffffffffffffffffffffffffffffffff166317a57e086040518163ffffffff1660e01b8152600401600060405180830381865afa15801562003ef7573d6000803e3d6000fd5b505050506040513d6000823e3d601f19601f8201168201806040525081019062003f2291906200782f565b905060008373ffffffffffffffffffffffffffffffffffffffff1663c32dcd896040518163ffffffff1660e01b8152600401602060405180830381865afa15801562003f72573d6000803e3d6000fd5b505050506040513d601f19601f8201168201806040525081019062003f98919062007880565b905082828260405162003fab9062005d56565b62003fb993929190620078c3565b604051809103906000f08015801562003fd6573d6000803e3d6000fd5b509450600060405180606001604052806040518060400160405280600f81526020017f53555045525f504f534954494f4e53000000000000000000000000000000000081525081526020017f62fe4458baf33f94c99b0a629b6b8fae9f220aa42242d61592a0454d37a7484c81526020017f0000000000000000000000000000000000000000000000000000000000000000600a6000815462004079906200790e565b9190508190558a8888886040516020016200409a969594939291906200795b565b60405160208183030381529060405281525090506200438d7f000000000000000000000000000000000000000000000000000000000000000073ffffffffffffffffffffffffffffffffffffffff166321f8a7217f86a7f6b88da6de42c331676d4da78508adfef4970dc8aa541004f26b6eef4ab96040518263ffffffff1660e01b81526004016200412d919062006e26565b602060405180830381865afa1580156200414b573d6000803e3d6000fd5b505050506040513d601f19601f8201168201806040525081019062004171919062006e5a565b7f000000000000000000000000000000000000000000000000000000000000000073ffffffffffffffffffffffffffffffffffffffff166321f8a7217fbddfa8c39a1f6275bcfb3aa5c70638c466999edbf14e6162d81b3492caca9fce6040518263ffffffff1660e01b8152600401620041ec919062006e26565b602060405180830381865afa1580156200420a573d6000803e3d6000fd5b505050506040513d601f19601f8201168201806040525081019062004230919062006e5a565b8360405160200162004243919062007aa1565b6040516020818303038152906040527f000000000000000000000000000000000000000000000000000000000000000073ffffffffffffffffffffffffffffffffffffffff166321f8a7217fab437a16135e856111e538dc45051dd9c2778c6069d25a22fb9ac4766c356aa16040518263ffffffff1660e01b8152600401620042cd919062006e26565b602060405180830381865afa158015620042eb573d6000803e3d6000fd5b505050506040513d601f19601f8201168201806040525081019062004311919062006e5a565b73ffffffffffffffffffffffffffffffffffffffff166353d69edc6040518163ffffffff1660e01b8152600401600060405180830381865afa1580156200435c573d6000803e3d6000fd5b505050506040513d6000823e3d601f19601f8201168201806040525081019062004387919062007ac5565b6200588a565b8573ffffffffffffffffffffffffffffffffffffffff16877f733ac2a007cd3853c362154b5f081e3ad8f60fd4e892fa3a0ca14a266ff897f860405160405180910390a35050505050919050565b606060088054620043ec9062006d6c565b80601f01602080910402602001604051908101604052809291908181526020018280546200441a9062006d6c565b80156200446b5780601f106200443f576101008083540402835291602001916200446b565b820191906000526020600020905b8154815290600101906020018083116200444d57829003601f168201915b5050505050905090565b606060006001620044868462005a41565b01905060008167ffffffffffffffff811115620044a857620044a76200615d565b5b6040519080825280601f01601f191660200182016040528015620044db5781602001600182028036833780820191505090505b509050600082602001820190505b60011562004543578080600190039150507f3031323334353637383961626364656600000000000000000000000000000000600a86061a8153600a858162004536576200453562007b16565b5b04945060008503620044e9575b819350505050919050565b8373ffffffffffffffffffffffffffffffffffffffff168373ffffffffffffffffffffffffffffffffffffffff1614158015620046125750600360008573ffffffffffffffffffffffffffffffffffffffff1673ffffffffffffffffffffffffffffffffffffffff16815260200190815260200160002060008473ffffffffffffffffffffffffffffffffffffffff1673ffffffffffffffffffffffffffffffffffffffff16815260200190815260200160002060009054906101000a900460ff16155b156200462a5762004628848484846000620046eb565b505b62004639846000848462004762565b8060008084815260200190815260200160002060008282546200465d919062007b45565b92505081905550600073ffffffffffffffffffffffffffffffffffffffff168473ffffffffffffffffffffffffffffffffffffffff168473ffffffffffffffffffffffffffffffffffffffff167fc3d58168c5ae7397731d063d5bbf3d657854427343f4c083240f7aacaa2d0f628585604051620046dd92919062007256565b60405180910390a450505050565b600080620046fb87878762002065565b90508381101562004738576040517f2117c61800000000000000000000000000000000000000000000000000000000815260040160405180910390fd5b6200475487878787856200474d919062007b45565b8762004f38565b600191505095945050505050565b80600260008673ffffffffffffffffffffffffffffffffffffffff1673ffffffffffffffffffffffffffffffffffffffff16815260200190815260200160002060008481526020019081526020016000206000828254620047c4919062007b45565b9250508190555080600260008573ffffffffffffffffffffffffffffffffffffffff1673ffffffffffffffffffffffffffffffffffffffff168152602001908152602001600020600084815260200190815260200160002060008282546200482d9190620071ee565b9250508190555050505050565b60008473ffffffffffffffffffffffffffffffffffffffff163b14620049f9578373ffffffffffffffffffffffffffffffffffffffff1663bc197c8187878686866040518663ffffffff1660e01b81526004016200489d95949392919062007bd2565b6020604051808303816000875af1925050508015620048dc57506040513d601f19601f82011682018060405250810190620048d9919062007c5b565b60015b62004966573d80600081146200490f576040519150601f19603f3d011682016040523d82523d6000602084013e62004914565b606091505b5060008151036200495e57846040517f57f447ce00000000000000000000000000000000000000000000000000000000815260040162004955919062005f99565b60405180910390fd5b805181602001fd5b63bc197c8160e01b7bffffffffffffffffffffffffffffffffffffffffffffffffffffffff1916817bffffffffffffffffffffffffffffffffffffffffffffffffffffffff191614620049f257846040517f57f447ce000000000000000000000000000000000000000000000000000000008152600401620049e9919062005f99565b60405180910390fd5b5062004a61565b600073ffffffffffffffffffffffffffffffffffffffff168473ffffffffffffffffffffffffffffffffffffffff160362004a60576040517f5edce13300000000000000000000000000000000000000000000000000000000815260040160405180910390fd5b5b505050505050565b600080600080600080869550600887901c9450601087901c9350601887901c9250602087901c915060c087901c905091939550919395565b60007f000000000000000000000000000000000000000000000000000000000000000073ffffffffffffffffffffffffffffffffffffffff16632f6438ab336040518263ffffffff1660e01b815260040162004afe919062005f99565b602060405180830381865afa15801562004b1c573d6000803e3d6000fd5b505050506040513d601f19601f8201168201806040525081019062004b429190620072c1565b905062004b50818362005bad565b5050565b81600260008773ffffffffffffffffffffffffffffffffffffffff1673ffffffffffffffffffffffffffffffffffffffff1681526020019081526020016000206000858152602001908152602001600020600082825462004bb69190620071ee565b9250508190555081600080858152602001908152602001600020600082825462004be19190620071ee565b925050819055508473ffffffffffffffffffffffffffffffffffffffff16600073ffffffffffffffffffffffffffffffffffffffff168573ffffffffffffffffffffffffffffffffffffffff167fc3d58168c5ae7397731d063d5bbf3d657854427343f4c083240f7aacaa2d0f62868660405162004c6192919062007256565b60405180910390a462004c7a846000878686866200565b565b5050505050565b60007f000000000000000000000000000000000000000000000000000000000000000073ffffffffffffffffffffffffffffffffffffffff16632f6438ab336040518263ffffffff1660e01b815260040162004cde919062005f99565b602060405180830381865afa15801562004cfc573d6000803e3d6000fd5b505050506040513d601f19601f8201168201806040525081019062004d229190620072c1565b905060005b825181101562004d665762004d5a8284838151811062004d4c5762004d4b62006e8c565b5b602002602001015162005bad565b80600101905062004d27565b505050565b6000835190508251811462004dac576040517f899ef10d00000000000000000000000000000000000000000000000000000000815260040160405180910390fd5b60008060005b8381101562004e9b5786818151811062004dd15762004dd062006e8c565b5b6020026020010151925085818151811062004df15762004df062006e8c565b5b6020026020010151915081600260008b73ffffffffffffffffffffffffffffffffffffffff1673ffffffffffffffffffffffffffffffffffffffff1681526020019081526020016000206000858152602001908152602001600020600082825462004e5d9190620071ee565b9250508190555081600080858152602001908152602001600020600082825462004e889190620071ee565b9250508190555080600101905062004db2565b508773ffffffffffffffffffffffffffffffffffffffff16600073ffffffffffffffffffffffffffffffffffffffff168873ffffffffffffffffffffffffffffffffffffffff167f4a39dc06d4c0dbc64b70af90fd698a233a518aa5d07e595d983b8c0526c8f7fb898960405162004f1592919062006ebb565b60405180910390a462004f2e8760008a8989896200483a565b5050505050505050565b600073ffffffffffffffffffffffffffffffffffffffff168573ffffffffffffffffffffffffffffffffffffffff160362004f9f576040517f538ba4f900000000000000000000000000000000000000000000000000000000815260040160405180910390fd5b600073ffffffffffffffffffffffffffffffffffffffff168473ffffffffffffffffffffffffffffffffffffffff160362005006576040517f538ba4f900000000000000000000000000000000000000000000000000000000815260040160405180910390fd5b81600160008773ffffffffffffffffffffffffffffffffffffffff1673ffffffffffffffffffffffffffffffffffffffff16815260200190815260200160002060008673ffffffffffffffffffffffffffffffffffffffff1673ffffffffffffffffffffffffffffffffffffffff168152602001908152602001600020600085815260200190815260200160002081905550801562005109578373ffffffffffffffffffffffffffffffffffffffff168573ffffffffffffffffffffffffffffffffffffffff167f875251d6c7be5b10ddb14ed4f59395338f15552062d4ad7723265838e316f9a885856040516200510092919062007256565b60405180910390a35b5050505050565b6000825190508151811462005151576040517f899ef10d00000000000000000000000000000000000000000000000000000000815260040160405180910390fd5b6000808673ffffffffffffffffffffffffffffffffffffffff168673ffffffffffffffffffffffffffffffffffffffff1614158015620052185750600360008873ffffffffffffffffffffffffffffffffffffffff1673ffffffffffffffffffffffffffffffffffffffff16815260200190815260200160002060008773ffffffffffffffffffffffffffffffffffffffff1673ffffffffffffffffffffffffffffffffffffffff16815260200190815260200160002060009054906101000a900460ff16155b15620053025760005b83811015620052fb5785818151811062005240576200523f62006e8c565b5b6020026020010151925084818151811062005260576200525f62006e8c565b5b602002602001015191506200527a888885856000620046eb565b506200528a886000858562004762565b848181518110620052a0576200529f62006e8c565b5b6020026020010151600080888481518110620052c157620052c062006e8c565b5b602002602001015181526020019081526020016000206000828254620052e8919062007b45565b9250508190555080600101905062005221565b50620053d0565b60005b83811015620053ce5785818151811062005324576200532362006e8c565b5b6020026020010151925084818151811062005344576200534362006e8c565b5b602002602001015191506200535d886000858562004762565b84818151811062005373576200537262006e8c565b5b602002602001015160008088848151811062005394576200539362006e8c565b5b602002602001015181526020019081526020016000206000828254620053bb919062007b45565b9250508190555080600101905062005305565b505b600073ffffffffffffffffffffffffffffffffffffffff168773ffffffffffffffffffffffffffffffffffffffff168773ffffffffffffffffffffffffffffffffffffffff167f4a39dc06d4c0dbc64b70af90fd698a233a518aa5d07e595d983b8c0526c8f7fb88886040516200544992919062006ebb565b60405180910390a450505050505050565b600080600083925060a084901c915060c084901c905060008167ffffffffffffffff1603620054b5576040517f030042b700000000000000000000000000000000000000000000000000000000815260040160405180910390fd5b9193909250565b60008060008084806020019051810190620054d8919062007cbe565b95509550955095505050600073ffffffffffffffffffffffffffffffffffffffff166004600086815260200190815260200160002060009054906101000a900473ffffffffffffffffffffffffffffffffffffffff1673ffffffffffffffffffffffffffffffffffffffff16146200557c576040517f8fa9d35a00000000000000000000000000000000000000000000000000000000815260040160405180910390fd5b60008383836040516200558f9062005d56565b6200559d93929190620078c3565b604051809103906000f080158015620055ba573d6000803e3d6000fd5b509050806004600087815260200190815260200160002060006101000a81548173ffffffffffffffffffffffffffffffffffffffff021916908373ffffffffffffffffffffffffffffffffffffffff1602179055508073ffffffffffffffffffffffffffffffffffffffff16857f733ac2a007cd3853c362154b5f081e3ad8f60fd4e892fa3a0ca14a266ff897f860405160405180910390a3505050505050565b60008473ffffffffffffffffffffffffffffffffffffffff163b146200581a578373ffffffffffffffffffffffffffffffffffffffff1663f23a6e6187878686866040518663ffffffff1660e01b8152600401620056be95949392919062007d98565b6020604051808303816000875af1925050508015620056fd57506040513d601f19601f82011682018060405250810190620056fa919062007c5b565b60015b62005787573d806000811462005730576040519150601f19603f3d011682016040523d82523d6000602084013e62005735565b606091505b5060008151036200577f57846040517f57f447ce00000000000000000000000000000000000000000000000000000000815260040162005776919062005f99565b60405180910390fd5b805181602001fd5b63f23a6e6160e01b7bffffffffffffffffffffffffffffffffffffffffffffffffffffffff1916817bffffffffffffffffffffffffffffffffffffffffffffffffffffffff1916146200581357846040517f57f447ce0000000000000000000000000000000000000000000000000000000081526004016200580a919062005f99565b60405180910390fd5b5062005882565b600073ffffffffffffffffffffffffffffffffffffffff168473ffffffffffffffffffffffffffffffffffffffff160362005881576040517f5edce13300000000000000000000000000000000000000000000000000000000815260040160405180910390fd5b5b505050505050565b60008082806020019051810190620058a3919062007dfc565b9150915060008082806020019051810190620058c0919062007e62565b9150915081341015620058ff576040517f1961e86700000000000000000000000000000000000000000000000000000000815260040160405180910390fd5b8773ffffffffffffffffffffffffffffffffffffffff1663c63304f6833387868b876040518763ffffffff1660e01b81526004016200594395949392919062007ec8565b6000604051808303818588803b1580156200595d57600080fd5b505af115801562005972573d6000803e3d6000fd5b50505050508134111562005a375760008773ffffffffffffffffffffffffffffffffffffffff168334620059a7919062007b45565b604051620059b59062007f68565b60006040518083038185875af1925050503d8060008114620059f4576040519150601f19603f3d011682016040523d82523d6000602084013e620059f9565b606091505b505090508062005a35576040517f220d375300000000000000000000000000000000000000000000000000000000815260040160405180910390fd5b505b5050505050505050565b600080600090507a184f03e93ff9f4daa797ed6e38ed64bf6a1f010000000000000000831062005aa3577a184f03e93ff9f4daa797ed6e38ed64bf6a1f010000000000000000838162005a995762005a9862007b16565b5b0492506040810190505b6d04ee2d6d415b85acef8100000000831062005ae4576d04ee2d6d415b85acef8100000000838162005ada5762005ad962007b16565b5b0492506020810190505b662386f26fc10000831062005b1757662386f26fc10000838162005b0d5762005b0c62007b16565b5b0492506010810190505b6305f5e100831062005b44576305f5e100838162005b3a5762005b3962007b16565b5b0492506008810190505b612710831062005b6d57612710838162005b635762005b6262007b16565b5b0492506004810190505b6064831062005b94576064838162005b8a5762005b8962007b16565b5b0492506002810190505b600a831062005ba4576001810190505b80915050919050565b600160ff168260ff16031562005d5257600062005bca826200545a565b5091505060007f000000000000000000000000000000000000000000000000000000000000000073ffffffffffffffffffffffffffffffffffffffff166321f8a7217fbcc180fb907e9ae431665de4bc74305c00b7b27442aadd477980ecc4bb14c0116040518263ffffffff1660e01b815260040162005c4b919062006e26565b602060405180830381865afa15801562005c69573d6000803e3d6000fd5b505050506040513d601f19601f8201168201806040525081019062005c8f919062006e5a565b73ffffffffffffffffffffffffffffffffffffffff166352fc069e836040518263ffffffff1660e01b815260040162005cc9919062007fa0565b602060405180830381865afa15801562005ce7573d6000803e3d6000fd5b505050506040513d601f19601f8201168201806040525081019062005d0d9190620072c1565b90508060ff168460ff161462005d4f576040517fec1845b200000000000000000000000000000000000000000000000000000000815260040160405180910390fd5b50505b5050565b6117f48062007fbe83390190565b6000604051905090565b600080fd5b600080fd5b600073ffffffffffffffffffffffffffffffffffffffff82169050919050565b600062005da58262005d78565b9050919050565b62005db78162005d98565b811462005dc357600080fd5b50565b60008135905062005dd78162005dac565b92915050565b6000819050919050565b62005df28162005ddd565b811462005dfe57600080fd5b50565b60008135905062005e128162005de7565b92915050565b6000806040838503121562005e325762005e3162005d6e565b5b600062005e428582860162005dc6565b925050602062005e558582860162005e01565b9150509250929050565b62005e6a8162005ddd565b82525050565b600060208201905062005e87600083018462005e5f565b92915050565b60007fffffffff0000000000000000000000000000000000000000000000000000000082169050919050565b62005ec48162005e8d565b811462005ed057600080fd5b50565b60008135905062005ee48162005eb9565b92915050565b60006020828403121562005f035762005f0262005d6e565b5b600062005f138482850162005ed3565b91505092915050565b60008115159050919050565b62005f338162005f1c565b82525050565b600060208201905062005f50600083018462005f28565b92915050565b60006020828403121562005f6f5762005f6e62005d6e565b5b600062005f7f8482850162005e01565b91505092915050565b62005f938162005d98565b82525050565b600060208201905062005fb0600083018462005f88565b92915050565b600081519050919050565b600082825260208201905092915050565b60005b8381101562005ff257808201518184015260208101905062005fd5565b60008484015250505050565b6000601f19601f8301169050919050565b60006200601c8262005fb6565b62006028818562005fc1565b93506200603a81856020860162005fd2565b620060458162005ffe565b840191505092915050565b600060208201905081810360008301526200606c81846200600f565b905092915050565b60008060006060848603121562006090576200608f62005d6e565b5b6000620060a08682870162005dc6565b9350506020620060b38682870162005e01565b9250506040620060c68682870162005e01565b9150509250925092565b6000819050919050565b6000620060fb620060f5620060ef8462005d78565b620060d0565b62005d78565b9050919050565b60006200610f82620060da565b9050919050565b6000620061238262006102565b9050919050565b620061358162006116565b82525050565b60006020820190506200615260008301846200612a565b92915050565b600080fd5b7f4e487b7100000000000000000000000000000000000000000000000000000000600052604160045260246000fd5b620061978262005ffe565b810181811067ffffffffffffffff82111715620061b957620061b86200615d565b5b80604052505050565b6000620061ce62005d64565b9050620061dc82826200618c565b919050565b600067ffffffffffffffff821115620061ff57620061fe6200615d565b5b602082029050602081019050919050565b600080fd5b60006200622c6200622684620061e1565b620061c2565b9050808382526020820190506020840283018581111562006252576200625162006210565b5b835b818110156200627f57806200626a888262005e01565b84526020840193505060208101905062006254565b5050509392505050565b600082601f830112620062a157620062a062006158565b5b8135620062b384826020860162006215565b91505092915050565b600080fd5b600067ffffffffffffffff821115620062df57620062de6200615d565b5b620062ea8262005ffe565b9050602081019050919050565b82818337600083830152505050565b60006200631d6200631784620062c1565b620061c2565b9050828152602081018484840111156200633c576200633b620062bc565b5b62006349848285620062f7565b509392505050565b600082601f83011262006369576200636862006158565b5b81356200637b84826020860162006306565b91505092915050565b600080600080600060a08688031215620063a357620063a262005d6e565b5b6000620063b38882890162005dc6565b9550506020620063c68882890162005dc6565b945050604086013567ffffffffffffffff811115620063ea57620063e962005d73565b5b620063f88882890162006289565b935050606086013567ffffffffffffffff8111156200641c576200641b62005d73565b5b6200642a8882890162006289565b925050608086013567ffffffffffffffff8111156200644e576200644d62005d73565b5b6200645c8882890162006351565b9150509295509295909350565b600080fd5b600080fd5b6000604082840312156200648c576200648b62006469565b5b620064986040620061c2565b90506000620064aa8482850162005e01565b600083015250602082013567ffffffffffffffff811115620064d157620064d06200646e565b5b620064df8482850162006351565b60208301525092915050565b60006020828403121562006504576200650362005d6e565b5b600082013567ffffffffffffffff81111562006525576200652462005d73565b5b620065338482850162006473565b91505092915050565b600067ffffffffffffffff82169050919050565b6200655b816200653c565b82525050565b600060208201905062006578600083018462006550565b92915050565b600067ffffffffffffffff8211156200659c576200659b6200615d565b5b602082029050602081019050919050565b6000620065c4620065be846200657e565b620061c2565b90508083825260208201905060208402830185811115620065ea57620065e962006210565b5b835b8181101562006617578062006602888262005dc6565b845260208401935050602081019050620065ec565b5050509392505050565b600082601f83011262006639576200663862006158565b5b81356200664b848260208601620065ad565b91505092915050565b600080604083850312156200666e576200666d62005d6e565b5b600083013567ffffffffffffffff8111156200668f576200668e62005d73565b5b6200669d8582860162006621565b925050602083013567ffffffffffffffff811115620066c157620066c062005d73565b5b620066cf8582860162006289565b9150509250929050565b600081519050919050565b600082825260208201905092915050565b6000819050602082019050919050565b620067108162005ddd565b82525050565b600062006724838362006705565b60208301905092915050565b6000602082019050919050565b60006200674a82620066d9565b620067568185620066e4565b93506200676383620066f5565b8060005b838110156200679a5781516200677e888262006716565b97506200678b8362006730565b92505060018101905062006767565b5085935050505092915050565b60006020820190508181036000830152620067c381846200673d565b905092915050565b600080600060608486031215620067e757620067e662005d6e565b5b6000620067f78682870162005e01565b93505060206200680a8682870162005e01565b92505060406200681d8682870162005dc6565b9150509250925092565b6000806000806080858703121562006844576200684362005d6e565b5b6000620068548782880162005dc6565b945050602085013567ffffffffffffffff81111562006878576200687762005d73565b5b620068868782880162006289565b935050604085013567ffffffffffffffff811115620068aa57620068a962005d73565b5b620068b88782880162006289565b9250506060620068cb8782880162005dc6565b91505092959194509250565b600080600060608486031215620068f357620068f262005d6e565b5b6000620069038682870162005dc6565b9350506020620069168682870162005dc6565b9250506040620069298682870162005e01565b9150509250925092565b6000806000606084860312156200694f576200694e62005d6e565b5b60006200695f8682870162005dc6565b935050602084013567ffffffffffffffff81111562006983576200698262005d73565b5b620069918682870162006289565b925050604084013567ffffffffffffffff811115620069b557620069b462005d73565b5b620069c38682870162006289565b9150509250925092565b60008060008060808587031215620069ea57620069e962005d6e565b5b6000620069fa8782880162005dc6565b945050602062006a0d8782880162005e01565b935050604062006a208782880162005e01565b925050606062006a338782880162005dc6565b91505092959194509250565b600060408201905062006a56600083018562005e5f565b62006a65602083018462005f88565b9392505050565b62006a778162005f1c565b811462006a8357600080fd5b50565b60008135905062006a978162006a6c565b92915050565b6000806040838503121562006ab75762006ab662005d6e565b5b600062006ac78582860162005dc6565b925050602062006ada8582860162006a86565b9150509250929050565b60006020828403121562006afd5762006afc62005d6e565b5b600082013567ffffffffffffffff81111562006b1e5762006b1d62005d73565b5b62006b2c8482850162006351565b91505092915050565b6000806040838503121562006b4f5762006b4e62005d6e565b5b600062006b5f8582860162005dc6565b925050602062006b728582860162005dc6565b9150509250929050565b600067ffffffffffffffff82111562006b9a5762006b996200615d565b5b62006ba58262005ffe565b9050602081019050919050565b600062006bc962006bc38462006b7c565b620061c2565b90508281526020810184848401111562006be85762006be7620062bc565b5b62006bf5848285620062f7565b509392505050565b600082601f83011262006c155762006c1462006158565b5b813562006c2784826020860162006bb2565b91505092915050565b6000806040838503121562006c4a5762006c4962005d6e565b5b600083013567ffffffffffffffff81111562006c6b5762006c6a62005d73565b5b62006c798582860162006bfd565b925050602062006c8c8582860162006a86565b9150509250929050565b600080600080600060a0868803121562006cb55762006cb462005d6e565b5b600062006cc58882890162005dc6565b955050602062006cd88882890162005dc6565b945050604062006ceb8882890162005e01565b935050606062006cfe8882890162005e01565b925050608086013567ffffffffffffffff81111562006d225762006d2162005d73565b5b62006d308882890162006351565b9150509295509295909350565b7f4e487b7100000000000000000000000000000000000000000000000000000000600052602260045260246000fd5b6000600282049050600182168062006d8557607f821691505b60208210810362006d9b5762006d9a62006d3d565b5b50919050565b600081905092915050565b600062006db98262005fb6565b62006dc5818562006da1565b935062006dd781856020860162005fd2565b80840191505092915050565b600062006df1828562006dac565b915062006dff828462006dac565b91508190509392505050565b6000819050919050565b62006e208162006e0b565b82525050565b600060208201905062006e3d600083018462006e15565b92915050565b60008151905062006e548162005dac565b92915050565b60006020828403121562006e735762006e7262005d6e565b5b600062006e838482850162006e43565b91505092915050565b7f4e487b7100000000000000000000000000000000000000000000000000000000600052603260045260246000fd5b6000604082019050818103600083015262006ed781856200673d565b9050818103602083015262006eed81846200673d565b90509392505050565b7f4e487b7100000000000000000000000000000000000000000000000000000000600052602160045260246000fd5b60008151905062006f368162005de7565b92915050565b60006060828403121562006f555762006f5462006469565b5b62006f616060620061c2565b9050600062006f738482850162006f25565b600083015250602062006f898482850162006f25565b602083015250604062006f9f8482850162006f25565b60408301525092915050565b60006060828403121562006fc45762006fc362005d6e565b5b600062006fd48482850162006f3c565b91505092915050565b600062006ff462006fee84620061e1565b620061c2565b905080838252602082019050602084028301858111156200701a576200701962006210565b5b835b8181101562007047578062007032888262006f25565b8452602084019350506020810190506200701c565b5050509392505050565b600082601f83011262007069576200706862006158565b5b81516200707b84826020860162006fdd565b91505092915050565b6000606082840312156200709d576200709c62006469565b5b620070a96060620061c2565b90506000620070bb8482850162006f25565b600083015250602082015167ffffffffffffffff811115620070e257620070e16200646e565b5b620070f08482850162007051565b602083015250604082015167ffffffffffffffff8111156200711757620071166200646e565b5b620071258482850162007051565b60408301525092915050565b6000602082840312156200714a576200714962005d6e565b5b600082015167ffffffffffffffff8111156200716b576200716a62005d73565b5b620071798482850162007084565b91505092915050565b600060608201905062007199600083018662005f88565b620071a8602083018562005f88565b620071b7604083018462005e5f565b949350505050565b7f4e487b7100000000000000000000000000000000000000000000000000000000600052601160045260246000fd5b6000620071fb8262005ddd565b9150620072088362005ddd565b9250828201905080821115620072235762007222620071bf565b5b92915050565b600060408201905062007240600083018562005f88565b6200724f602083018462005e5f565b9392505050565b60006040820190506200726d600083018562005e5f565b6200727c602083018462005e5f565b9392505050565b600060ff82169050919050565b6200729b8162007283565b8114620072a757600080fd5b50565b600081519050620072bb8162007290565b92915050565b600060208284031215620072da57620072d962005d6e565b5b6000620072ea84828501620072aa565b91505092915050565b60006200730a6200730484620062c1565b620061c2565b905082815260208101848484011115620073295762007328620062bc565b5b6200733684828562005fd2565b509392505050565b600082601f83011262007356576200735562006158565b5b815162007368848260208601620072f3565b91505092915050565b6200737c8162006e0b565b81146200738857600080fd5b50565b6000815190506200739c8162007371565b92915050565b600060608284031215620073bb57620073ba62006469565b5b620073c76060620061c2565b9050600082015167ffffffffffffffff811115620073ea57620073e96200646e565b5b620073f8848285016200733e565b60008301525060206200740e848285016200738b565b602083015250604082015167ffffffffffffffff8111156200743557620074346200646e565b5b62007443848285016200733e565b60408301525092915050565b60006020828403121562007468576200746762005d6e565b5b600082015167ffffffffffffffff81111562007489576200748862005d73565b5b6200749784828501620073a2565b91505092915050565b600081519050620074b18162006a6c565b92915050565b600060208284031215620074d057620074cf62005d6e565b5b6000620074e084828501620074a0565b91505092915050565b60008190508160005260206000209050919050565b60006020601f8301049050919050565b600082821b905092915050565b6000600883026200754d7fffffffffffffffffffffffffffffffffffffffffffffffffffffffffffffffff826200750e565b6200755986836200750e565b95508019841693508086168417925050509392505050565b6000620075926200758c620075868462005ddd565b620060d0565b62005ddd565b9050919050565b6000819050919050565b620075ae8362007571565b620075c6620075bd8262007599565b8484546200751b565b825550505050565b600090565b620075dd620075ce565b620075ea818484620075a3565b505050565b5b81811015620076125762007606600082620075d3565b600181019050620075f0565b5050565b601f82111562007661576200762b81620074e9565b6200763684620074fe565b8101602085101562007646578190505b6200765e6200765585620074fe565b830182620075ef565b50505b505050565b600082821c905092915050565b6000620076866000198460080262007666565b1980831691505092915050565b6000620076a1838362007673565b9150826002028217905092915050565b620076bc8262005fb6565b67ffffffffffffffff811115620076d857620076d76200615d565b5b620076e4825462006d6c565b620076f182828562007616565b600060209050601f83116001811462007729576000841562007714578287015190505b62007720858262007693565b86555062007790565b601f1984166200773986620074e9565b60005b8281101562007763578489015182556001820191506020850194506020810190506200773c565b868310156200778357848901516200777f601f89168262007673565b8355505b6001600288020188555050505b505050505050565b6000620077a6828462006dac565b915081905092915050565b6000620077c8620077c28462006b7c565b620061c2565b905082815260208101848484011115620077e757620077e6620062bc565b5b620077f484828562005fd2565b509392505050565b600082601f83011262007814576200781362006158565b5b815162007826848260208601620077b1565b91505092915050565b60006020828403121562007848576200784762005d6e565b5b600082015167ffffffffffffffff81111562007869576200786862005d73565b5b6200787784828501620077fc565b91505092915050565b60006020828403121562007899576200789862005d6e565b5b6000620078a98482850162006f25565b91505092915050565b620078bd8162007283565b82525050565b60006060820190508181036000830152620078df81866200600f565b90508181036020830152620078f581856200600f565b9050620079066040830184620078b2565b949350505050565b60006200791b8262005ddd565b91507fffffffffffffffffffffffffffffffffffffffffffffffffffffffffffffffff820362007950576200794f620071bf565b5b600182019050919050565b600060c08201905062007972600083018962006550565b62007981602083018862005e5f565b62007990604083018762005e5f565b8181036060830152620079a481866200600f565b90508181036080830152620079ba81856200600f565b9050620079cb60a0830184620078b2565b979650505050505050565b600081519050919050565b600082825260208201905092915050565b6000620079ff82620079d6565b62007a0b8185620079e1565b935062007a1d81856020860162005fd2565b62007a288162005ffe565b840191505092915050565b62007a3e8162006e0b565b82525050565b6000606083016000830151848203600086015262007a638282620079f2565b915050602083015162007a7a602086018262007a33565b506040830151848203604086015262007a948282620079f2565b9150508091505092915050565b6000602082019050818103600083015262007abd818462007a44565b905092915050565b60006020828403121562007ade5762007add62005d6e565b5b600082015167ffffffffffffffff81111562007aff5762007afe62005d73565b5b62007b0d848285016200733e565b91505092915050565b7f4e487b7100000000000000000000000000000000000000000000000000000000600052601260045260246000fd5b600062007b528262005ddd565b915062007b5f8362005ddd565b925082820390508181111562007b7a5762007b79620071bf565b5b92915050565b600082825260208201905092915050565b600062007b9e82620079d6565b62007baa818562007b80565b935062007bbc81856020860162005fd2565b62007bc78162005ffe565b840191505092915050565b600060a08201905062007be9600083018862005f88565b62007bf8602083018762005f88565b818103604083015262007c0c81866200673d565b9050818103606083015262007c2281856200673d565b9050818103608083015262007c38818462007b91565b90509695505050505050565b60008151905062007c558162005eb9565b92915050565b60006020828403121562007c745762007c7362005d6e565b5b600062007c848482850162007c44565b91505092915050565b62007c98816200653c565b811462007ca457600080fd5b50565b60008151905062007cb88162007c8d565b92915050565b60008060008060008060c0878903121562007cde5762007cdd62005d6e565b5b600062007cee89828a0162007ca7565b965050602062007d0189828a0162006f25565b955050604062007d1489828a0162006f25565b945050606087015167ffffffffffffffff81111562007d385762007d3762005d73565b5b62007d4689828a01620077fc565b935050608087015167ffffffffffffffff81111562007d6a5762007d6962005d73565b5b62007d7889828a01620077fc565b92505060a062007d8b89828a01620072aa565b9150509295509295509295565b600060a08201905062007daf600083018862005f88565b62007dbe602083018762005f88565b62007dcd604083018662005e5f565b62007ddc606083018562005e5f565b818103608083015262007df0818462007b91565b90509695505050505050565b6000806040838503121562007e165762007e1562005d6e565b5b600062007e2685828601620072aa565b925050602083015167ffffffffffffffff81111562007e4a5762007e4962005d73565b5b62007e58858286016200733e565b9150509250929050565b6000806040838503121562007e7c5762007e7b62005d6e565b5b600062007e8c8582860162006f25565b925050602083015167ffffffffffffffff81111562007eb05762007eaf62005d73565b5b62007ebe858286016200733e565b9150509250929050565b600060a08201905062007edf600083018862005f88565b62007eee6020830187620078b2565b62007efd604083018662005e5f565b818103606083015262007f11818562007b91565b9050818103608083015262007f27818462007b91565b90509695505050505050565b600081905092915050565b50565b600062007f5060008362007f33565b915062007f5d8262007f3e565b600082019050919050565b600062007f758262007f41565b9150819050919050565b600063ffffffff82169050919050565b62007f9a8162007f7f565b82525050565b600060208201905062007fb7600083018462007f8f565b9291505056fe60c06040523480156200001157600080fd5b50604051620017f4380380620017f483398181016040528101906200003791906200027b565b828281600390816200004a919062000560565b5080600490816200005c919062000560565b5050503373ffffffffffffffffffffffffffffffffffffffff1660808173ffffffffffffffffffffffffffffffffffffffff16815250508060ff1660a08160ff168152505050505062000647565b6000604051905090565b600080fd5b600080fd5b600080fd5b600080fd5b6000601f19601f8301169050919050565b7f4e487b7100000000000000000000000000000000000000000000000000000000600052604160045260246000fd5b6200011382620000c8565b810181811067ffffffffffffffff82111715620001355762000134620000d9565b5b80604052505050565b60006200014a620000aa565b905062000158828262000108565b919050565b600067ffffffffffffffff8211156200017b576200017a620000d9565b5b6200018682620000c8565b9050602081019050919050565b60005b83811015620001b357808201518184015260208101905062000196565b60008484015250505050565b6000620001d6620001d0846200015d565b6200013e565b905082815260208101848484011115620001f557620001f4620000c3565b5b6200020284828562000193565b509392505050565b600082601f830112620002225762000221620000be565b5b815162000234848260208601620001bf565b91505092915050565b600060ff82169050919050565b62000255816200023d565b81146200026157600080fd5b50565b60008151905062000275816200024a565b92915050565b600080600060608486031215620002975762000296620000b4565b5b600084015167ffffffffffffffff811115620002b857620002b7620000b9565b5b620002c6868287016200020a565b935050602084015167ffffffffffffffff811115620002ea57620002e9620000b9565b5b620002f8868287016200020a565b92505060406200030b8682870162000264565b9150509250925092565b600081519050919050565b7f4e487b7100000000000000000000000000000000000000000000000000000000600052602260045260246000fd5b600060028204905060018216806200036857607f821691505b6020821081036200037e576200037d62000320565b5b50919050565b60008190508160005260206000209050919050565b60006020601f8301049050919050565b600082821b905092915050565b600060088302620003e87fffffffffffffffffffffffffffffffffffffffffffffffffffffffffffffffff82620003a9565b620003f48683620003a9565b95508019841693508086168417925050509392505050565b6000819050919050565b6000819050919050565b6000620004416200043b62000435846200040c565b62000416565b6200040c565b9050919050565b6000819050919050565b6200045d8362000420565b620004756200046c8262000448565b848454620003b6565b825550505050565b600090565b6200048c6200047d565b6200049981848462000452565b505050565b5b81811015620004c157620004b560008262000482565b6001810190506200049f565b5050565b601f8211156200051057620004da8162000384565b620004e58462000399565b81016020851015620004f5578190505b6200050d620005048562000399565b8301826200049e565b50505b505050565b600082821c905092915050565b6000620005356000198460080262000515565b1980831691505092915050565b600062000550838362000522565b9150826002028217905092915050565b6200056b8262000315565b67ffffffffffffffff811115620005875762000586620000d9565b5b6200059382546200034f565b620005a0828285620004c5565b600060209050601f831160018114620005d85760008415620005c3578287015190505b620005cf858262000542565b8655506200063f565b601f198416620005e88662000384565b60005b828110156200061257848901518255600182019150602085019450602081019050620005eb565b868310156200063257848901516200062e601f89168262000522565b8355505b6001600288020188555050505b505050505050565b60805160a0516111796200067b600039600061036901526000818161038f0152818161046a01526105ca01526111796000f3fe608060405234801561001057600080fd5b50600436106100b45760003560e01c806370a082311161007157806370a082311461018f578063906d34db146101bf57806395d89b41146101dd578063a9059cbb146101fb578063dd62ed3e1461022b578063f6b911bc1461025b576100b4565b806306fdde03146100b9578063095ea7b3146100d757806318160ddd1461010757806323b872dd14610125578063313ce5671461015557806340c10f1914610173575b600080fd5b6100c1610277565b6040516100ce9190610dcd565b60405180910390f35b6100f160048036038101906100ec9190610e88565b610309565b6040516100fe9190610ee3565b60405180910390f35b61010f61032c565b60405161011c9190610f0d565b60405180910390f35b61013f600480360381019061013a9190610f28565b610336565b60405161014c9190610ee3565b60405180910390f35b61015d610365565b60405161016a9190610f97565b60405180910390f35b61018d60048036038101906101889190610e88565b61038d565b005b6101a960048036038101906101a49190610fb2565b610420565b6040516101b69190610f0d565b60405180910390f35b6101c7610468565b6040516101d49190610fee565b60405180910390f35b6101e561048c565b6040516101f29190610dcd565b60405180910390f35b61021560048036038101906102109190610e88565b61051e565b6040516102229190610ee3565b60405180910390f35b61024560048036038101906102409190611009565b610541565b6040516102529190610f0d565b60405180910390f35b61027560048036038101906102709190610f28565b6105c8565b005b60606003805461028690611078565b80601f01602080910402602001604051908101604052809291908181526020018280546102b290611078565b80156102ff5780601f106102d4576101008083540402835291602001916102ff565b820191906000526020600020905b8154815290600101906020018083116102e257829003601f168201915b5050505050905090565b60008061031461069b565b90506103218185856106a3565b600191505092915050565b6000600254905090565b60008061034161069b565b905061034e8582856106b5565b610359858585610749565b60019150509392505050565b60007f0000000000000000000000000000000000000000000000000000000000000000905090565b7f000000000000000000000000000000000000000000000000000000000000000073ffffffffffffffffffffffffffffffffffffffff163373ffffffffffffffffffffffffffffffffffffffff1614610412576040517ff3e00e5000000000000000000000000000000000000000000000000000000000815260040160405180910390fd5b61041c828261083d565b5050565b60008060008373ffffffffffffffffffffffffffffffffffffffff1673ffffffffffffffffffffffffffffffffffffffff168152602001908152602001600020549050919050565b7f000000000000000000000000000000000000000000000000000000000000000081565b60606004805461049b90611078565b80601f01602080910402602001604051908101604052809291908181526020018280546104c790611078565b80156105145780601f106104e957610100808354040283529160200191610514565b820191906000526020600020905b8154815290600101906020018083116104f757829003601f168201915b5050505050905090565b60008061052961069b565b9050610536818585610749565b600191505092915050565b6000600160008473ffffffffffffffffffffffffffffffffffffffff1673ffffffffffffffffffffffffffffffffffffffff16815260200190815260200160002060008373ffffffffffffffffffffffffffffffffffffffff1673ffffffffffffffffffffffffffffffffffffffff16815260200190815260200160002054905092915050565b7f000000000000000000000000000000000000000000000000000000000000000073ffffffffffffffffffffffffffffffffffffffff163373ffffffffffffffffffffffffffffffffffffffff161461064d576040517ff3e00e5000000000000000000000000000000000000000000000000000000000815260040160405180910390fd5b8173ffffffffffffffffffffffffffffffffffffffff168373ffffffffffffffffffffffffffffffffffffffff161461068c5761068b8383836106b5565b5b61069683826108bf565b505050565b600033905090565b6106b08383836001610941565b505050565b60006106c18484610541565b90507fffffffffffffffffffffffffffffffffffffffffffffffffffffffffffffffff81146107435781811015610733578281836040517ffb8f41b200000000000000000000000000000000000000000000000000000000815260040161072a939291906110a9565b60405180910390fd5b61074284848484036000610941565b5b50505050565b600073ffffffffffffffffffffffffffffffffffffffff168373ffffffffffffffffffffffffffffffffffffffff16036107bb5760006040517f96c6fd1e0000000000000000000000000000000000000000000000000000000081526004016107b29190610fee565b60405180910390fd5b600073ffffffffffffffffffffffffffffffffffffffff168273ffffffffffffffffffffffffffffffffffffffff160361082d5760006040517fec442f050000000000000000000000000000000000000000000000000000000081526004016108249190610fee565b60405180910390fd5b610838838383610b18565b505050565b600073ffffffffffffffffffffffffffffffffffffffff168273ffffffffffffffffffffffffffffffffffffffff16036108af5760006040517fec442f050000000000000000000000000000000000000000000000000000000081526004016108a69190610fee565b60405180910390fd5b6108bb60008383610b18565b5050565b600073ffffffffffffffffffffffffffffffffffffffff168273ffffffffffffffffffffffffffffffffffffffff16036109315760006040517f96c6fd1e0000000000000000000000000000000000000000000000000000000081526004016109289190610fee565b60405180910390fd5b61093d82600083610b18565b5050565b600073ffffffffffffffffffffffffffffffffffffffff168473ffffffffffffffffffffffffffffffffffffffff16036109b35760006040517fe602df050000000000000000000000000000000000000000000000000000000081526004016109aa9190610fee565b60405180910390fd5b600073ffffffffffffffffffffffffffffffffffffffff168373ffffffffffffffffffffffffffffffffffffffff1603610a255760006040517f94280d62000000000000000000000000000000000000000000000000000000008152600401610a1c9190610fee565b60405180910390fd5b81600160008673ffffffffffffffffffffffffffffffffffffffff1673ffffffffffffffffffffffffffffffffffffffff16815260200190815260200160002060008573ffffffffffffffffffffffffffffffffffffffff1673ffffffffffffffffffffffffffffffffffffffff168152602001908152602001600020819055508015610b12578273ffffffffffffffffffffffffffffffffffffffff168473ffffffffffffffffffffffffffffffffffffffff167f8c5be1e5ebec7d5bd14f71427d1e84f3dd0314c0f7b2291e5b200ac8c7c3b92584604051610b099190610f0d565b60405180910390a35b50505050565b600073ffffffffffffffffffffffffffffffffffffffff168373ffffffffffffffffffffffffffffffffffffffff1603610b6a578060026000828254610b5e919061110f565b92505081905550610c3d565b60008060008573ffffffffffffffffffffffffffffffffffffffff1673ffffffffffffffffffffffffffffffffffffffff16815260200190815260200160002054905081811015610bf6578381836040517fe450d38c000000000000000000000000000000000000000000000000000000008152600401610bed939291906110a9565b60405180910390fd5b8181036000808673ffffffffffffffffffffffffffffffffffffffff1673ffffffffffffffffffffffffffffffffffffffff16815260200190815260200160002081905550505b600073ffffffffffffffffffffffffffffffffffffffff168273ffffffffffffffffffffffffffffffffffffffff1603610c865780600260008282540392505081905550610cd3565b806000808473ffffffffffffffffffffffffffffffffffffffff1673ffffffffffffffffffffffffffffffffffffffff168152602001908152602001600020600082825401925050819055505b8173ffffffffffffffffffffffffffffffffffffffff168373ffffffffffffffffffffffffffffffffffffffff167fddf252ad1be2c89b69c2b068fc378daa952ba7f163c4a11628f55a4df523b3ef83604051610d309190610f0d565b60405180910390a3505050565b600081519050919050565b600082825260208201905092915050565b60005b83811015610d77578082015181840152602081019050610d5c565b60008484015250505050565b6000601f19601f8301169050919050565b6000610d9f82610d3d565b610da98185610d48565b9350610db9818560208601610d59565b610dc281610d83565b840191505092915050565b60006020820190508181036000830152610de78184610d94565b905092915050565b600080fd5b600073ffffffffffffffffffffffffffffffffffffffff82169050919050565b6000610e1f82610df4565b9050919050565b610e2f81610e14565b8114610e3a57600080fd5b50565b600081359050610e4c81610e26565b92915050565b6000819050919050565b610e6581610e52565b8114610e7057600080fd5b50565b600081359050610e8281610e5c565b92915050565b60008060408385031215610e9f57610e9e610def565b5b6000610ead85828601610e3d565b9250506020610ebe85828601610e73565b9150509250929050565b60008115159050919050565b610edd81610ec8565b82525050565b6000602082019050610ef86000830184610ed4565b92915050565b610f0781610e52565b82525050565b6000602082019050610f226000830184610efe565b92915050565b600080600060608486031215610f4157610f40610def565b5b6000610f4f86828701610e3d565b9350506020610f6086828701610e3d565b9250506040610f7186828701610e73565b9150509250925092565b600060ff82169050919050565b610f9181610f7b565b82525050565b6000602082019050610fac6000830184610f88565b92915050565b600060208284031215610fc857610fc7610def565b5b6000610fd684828501610e3d565b91505092915050565b610fe881610e14565b82525050565b60006020820190506110036000830184610fdf565b92915050565b600080604083850312156110205761101f610def565b5b600061102e85828601610e3d565b925050602061103f85828601610e3d565b9150509250929050565b7f4e487b7100000000000000000000000000000000000000000000000000000000600052602260045260246000fd5b6000600282049050600182168061109057607f821691505b6020821081036110a3576110a2611049565b5b50919050565b60006060820190506110be6000830186610fdf565b6110cb6020830185610efe565b6110d86040830184610efe565b949350505050565b7f4e487b7100000000000000000000000000000000000000000000000000000000600052601160045260246000fd5b600061111a82610e52565b915061112583610e52565b925082820190508082111561113d5761113c6110e0565b5b9291505056fea264697066735822122031c3a385e9ff61fe962c7e55ca274df8dd541f667661a0f6e39cb3afc2bfdb0964736f6c63430008170033a2646970667358221220762c99b3cf34695cae7b94c529e5e3317763b2cb4002c2a0263e5db371dce43a64736f6c63430008170033","linkReferences":{}},"methodIdentifiers":{"CHAIN_ID()":"85e1f4d0","aERC20Exists(uint256)":"e673070f","aErc20TokenId(uint256)":"0282acfc","allowance(address,address,uint256)":"598af9e7","balanceOf(address,uint256)":"00fdd58e","balanceOfBatch(address[],uint256[])":"4e1273f4","burnBatch(address,uint256[],uint256[])":"6b20c454","burnSingle(address,uint256,uint256)":"132b4816","decreaseAllowance(address,uint256,uint256)":"cdde3d6b","decreaseAllowanceForMany(address,uint256[],uint256[])":"cd4622eb","dynamicURI()":"137bc427","dynamicURIFrozen()":"d7ea0c23","exists(uint256)":"4f558e79","getERC20TokenAddress(uint256)":"540ed9c0","increaseAllowance(address,uint256,uint256)":"ff61011a","increaseAllowanceForMany(address,uint256[],uint256[])":"67bc4065","isApprovedForAll(address,address)":"e985e9c5","mintBatch(address,uint256[],uint256[])":"d81d0a15","mintSingle(address,uint256,uint256)":"8d04e40e","name()":"06fdde03","registerAERC20(uint256)":"093e3164","safeBatchTransferFrom(address,address,uint256[],uint256[],bytes)":"2eb2c2d6","safeTransferFrom(address,address,uint256,uint256,bytes)":"f242432a","setApprovalForAll(address,bool)":"a22cb465","setApprovalForMany(address,uint256[],uint256[])":"5fa8d764","setApprovalForOne(address,uint256,uint256)":"a49f9516","setDynamicURI(string,bool)":"ed7a8e42","stateMultiSync((uint256,bytes))":"49e5b649","stateSync((uint256,bytes))":"33e30721","stateSyncBroadcast(bytes)":"e6ddad4c","superRegistry()":"24c73dda","supportsInterface(bytes4)":"01ffc9a7","symbol()":"95d89b41","totalSupply(uint256)":"bd85b039","transmuteBatchToERC1155A(address,uint256[],uint256[],address)":"5029d0c8","transmuteBatchToERC20(address,uint256[],uint256[],address)":"ec737321","transmuteToERC1155A(address,uint256,uint256,address)":"9473655c","transmuteToERC20(address,uint256,uint256,address)":"7081ce5e","txHistory(uint256)":"75fcbd86","updateTxHistory(uint256,uint256,address)":"4ec1bec7","uri(uint256)":"0e89341c","xChainPayloadCounter()":"edf387c5"},"id":113}