{"abi":[{"type":"function","name":"startBridgeTokensViaHopL1ERC20","inputs":[{"name":"_bridgeData","type":"tuple","internalType":"struct ILiFi.BridgeData","components":[{"name":"transactionId","type":"bytes32","internalType":"bytes32"},{"name":"bridge","type":"string","internalType":"string"},{"name":"integrator","type":"string","internalType":"string"},{"name":"referrer","type":"address","internalType":"address"},{"name":"sendingAssetId","type":"address","internalType":"address"},{"name":"receiver","type":"address","internalType":"address"},{"name":"minAmount","type":"uint256","internalType":"uint256"},{"name":"destinationChainId","type":"uint256","internalType":"uint256"},{"name":"hasSourceSwaps","type":"bool","internalType":"bool"},{"name":"hasDestinationCall","type":"bool","internalType":"bool"}]},{"name":"_hopData","type":"tuple","internalType":"struct HopFacetOptimized.HopData","components":[{"name":"bonderFee","type":"uint256","internalType":"uint256"},{"name":"amountOutMin","type":"uint256","internalType":"uint256"},{"name":"deadline","type":"uint256","internalType":"uint256"},{"name":"destinationAmountOutMin","type":"uint256","internalType":"uint256"},{"name":"destinationDeadline","type":"uint256","internalType":"uint256"},{"name":"hopBridge","type":"address","internalType":"contract IHopBridge"},{"name":"relayer","type":"address","internalType":"address"},{"name":"relayerFee","type":"uint256","internalType":"uint256"},{"name":"nativeFee","type":"uint256","internalType":"uint256"}]}],"outputs":[],"stateMutability":"payable"},{"type":"function","name":"startBridgeTokensViaHopL1Native","inputs":[{"name":"_bridgeData","type":"tuple","internalType":"struct ILiFi.BridgeData","components":[{"name":"transactionId","type":"bytes32","internalType":"bytes32"},{"name":"bridge","type":"string","internalType":"string"},{"name":"integrator","type":"string","internalType":"string"},{"name":"referrer","type":"address","internalType":"address"},{"name":"sendingAssetId","type":"address","internalType":"address"},{"name":"receiver","type":"address","internalType":"address"},{"name":"minAmount","type":"uint256","internalType":"uint256"},{"name":"destinationChainId","type":"uint256","internalType":"uint256"},{"name":"hasSourceSwaps","type":"bool","internalType":"bool"},{"name":"hasDestinationCall","type":"bool","internalType":"bool"}]},{"name":"_hopData","type":"tuple","internalType":"struct HopFacetOptimized.HopData","components":[{"name":"bonderFee","type":"uint256","internalType":"uint256"},{"name":"amountOutMin","type":"uint256","internalType":"uint256"},{"name":"deadline","type":"uint256","internalType":"uint256"},{"name":"destinationAmountOutMin","type":"uint256","internalType":"uint256"},{"name":"destinationDeadline","type":"uint256","internalType":"uint256"},{"name":"hopBridge","type":"address","internalType":"contract IHopBridge"},{"name":"relayer","type":"address","internalType":"address"},{"name":"relayerFee","type":"uint256","internalType":"uint256"},{"name":"nativeFee","type":"uint256","internalType":"uint256"}]}],"outputs":[],"stateMutability":"payable"},{"type":"function","name":"startBridgeTokensViaHopL2ERC20","inputs":[{"name":"_bridgeData","type":"tuple","internalType":"struct ILiFi.BridgeData","components":[{"name":"transactionId","type":"bytes32","internalType":"bytes32"},{"name":"bridge","type":"string","internalType":"string"},{"name":"integrator","type":"string","internalType":"string"},{"name":"referrer","type":"address","internalType":"address"},{"name":"sendingAssetId","type":"address","internalType":"address"},{"name":"receiver","type":"address","internalType":"address"},{"name":"minAmount","type":"uint256","internalType":"uint256"},{"name":"destinationChainId","type":"uint256","internalType":"uint256"},{"name":"hasSourceSwaps","type":"bool","internalType":"bool"},{"name":"hasDestinationCall","type":"bool","internalType":"bool"}]},{"name":"_hopData","type":"tuple","internalType":"struct HopFacetOptimized.HopData","components":[{"name":"bonderFee","type":"uint256","internalType":"uint256"},{"name":"amountOutMin","type":"uint256","internalType":"uint256"},{"name":"deadline","type":"uint256","internalType":"uint256"},{"name":"destinationAmountOutMin","type":"uint256","internalType":"uint256"},{"name":"destinationDeadline","type":"uint256","internalType":"uint256"},{"name":"hopBridge","type":"address","internalType":"contract IHopBridge"},{"name":"relayer","type":"address","internalType":"address"},{"name":"relayerFee","type":"uint256","internalType":"uint256"},{"name":"nativeFee","type":"uint256","internalType":"uint256"}]}],"outputs":[],"stateMutability":"nonpayable"},{"type":"function","name":"startBridgeTokensViaHopL2Native","inputs":[{"name":"_bridgeData","type":"tuple","internalType":"struct ILiFi.BridgeData","components":[{"name":"transactionId","type":"bytes32","internalType":"bytes32"},{"name":"bridge","type":"string","internalType":"string"},{"name":"integrator","type":"string","internalType":"string"},{"name":"referrer","type":"address","internalType":"address"},{"name":"sendingAssetId","type":"address","internalType":"address"},{"name":"receiver","type":"address","internalType":"address"},{"name":"minAmount","type":"uint256","internalType":"uint256"},{"name":"destinationChainId","type":"uint256","internalType":"uint256"},{"name":"hasSourceSwaps","type":"bool","internalType":"bool"},{"name":"hasDestinationCall","type":"bool","internalType":"bool"}]},{"name":"_hopData","type":"tuple","internalType":"struct HopFacetOptimized.HopData","components":[{"name":"bonderFee","type":"uint256","internalType":"uint256"},{"name":"amountOutMin","type":"uint256","internalType":"uint256"},{"name":"deadline","type":"uint256","internalType":"uint256"},{"name":"destinationAmountOutMin","type":"uint256","internalType":"uint256"},{"name":"destinationDeadline","type":"uint256","internalType":"uint256"},{"name":"hopBridge","type":"address","internalType":"contract IHopBridge"},{"name":"relayer","type":"address","internalType":"address"},{"name":"relayerFee","type":"uint256","internalType":"uint256"},{"name":"nativeFee","type":"uint256","internalType":"uint256"}]}],"outputs":[],"stateMutability":"payable"},{"type":"function","name":"swapAndStartBridgeTokensViaHopL1ERC20","inputs":[{"name":"_bridgeData","type":"tuple","internalType":"struct ILiFi.BridgeData","components":[{"name":"transactionId","type":"bytes32","internalType":"bytes32"},{"name":"bridge","type":"string","internalType":"string"},{"name":"integrator","type":"string","internalType":"string"},{"name":"referrer","type":"address","internalType":"address"},{"name":"sendingAssetId","type":"address","internalType":"address"},{"name":"receiver","type":"address","internalType":"address"},{"name":"minAmount","type":"uint256","internalType":"uint256"},{"name":"destinationChainId","type":"uint256","internalType":"uint256"},{"name":"hasSourceSwaps","type":"bool","internalType":"bool"},{"name":"hasDestinationCall","type":"bool","internalType":"bool"}]},{"name":"_swapData","type":"tuple[]","internalType":"struct LibSwap.SwapData[]","components":[{"name":"callTo","type":"address","internalType":"address"},{"name":"approveTo","type":"address","internalType":"address"},{"name":"sendingAssetId","type":"address","internalType":"address"},{"name":"receivingAssetId","type":"address","internalType":"address"},{"name":"fromAmount","type":"uint256","internalType":"uint256"},{"name":"callData","type":"bytes","internalType":"bytes"},{"name":"requiresDeposit","type":"bool","internalType":"bool"}]},{"name":"_hopData","type":"tuple","internalType":"struct HopFacetOptimized.HopData","components":[{"name":"bonderFee","type":"uint256","internalType":"uint256"},{"name":"amountOutMin","type":"uint256","internalType":"uint256"},{"name":"deadline","type":"uint256","internalType":"uint256"},{"name":"destinationAmountOutMin","type":"uint256","internalType":"uint256"},{"name":"destinationDeadline","type":"uint256","internalType":"uint256"},{"name":"hopBridge","type":"address","internalType":"contract IHopBridge"},{"name":"relayer","type":"address","internalType":"address"},{"name":"relayerFee","type":"uint256","internalType":"uint256"},{"name":"nativeFee","type":"uint256","internalType":"uint256"}]}],"outputs":[],"stateMutability":"payable"},{"type":"function","name":"swapAndStartBridgeTokensViaHopL1Native","inputs":[{"name":"_bridgeData","type":"tuple","internalType":"struct ILiFi.BridgeData","components":[{"name":"transactionId","type":"bytes32","internalType":"bytes32"},{"name":"bridge","type":"string","internalType":"string"},{"name":"integrator","type":"string","internalType":"string"},{"name":"referrer","type":"address","internalType":"address"},{"name":"sendingAssetId","type":"address","internalType":"address"},{"name":"receiver","type":"address","internalType":"address"},{"name":"minAmount","type":"uint256","internalType":"uint256"},{"name":"destinationChainId","type":"uint256","internalType":"uint256"},{"name":"hasSourceSwaps","type":"bool","internalType":"bool"},{"name":"hasDestinationCall","type":"bool","internalType":"bool"}]},{"name":"_swapData","type":"tuple[]","internalType":"struct LibSwap.SwapData[]","components":[{"name":"callTo","type":"address","internalType":"address"},{"name":"approveTo","type":"address","internalType":"address"},{"name":"sendingAssetId","type":"address","internalType":"address"},{"name":"receivingAssetId","type":"address","internalType":"address"},{"name":"fromAmount","type":"uint256","internalType":"uint256"},{"name":"callData","type":"bytes","internalType":"bytes"},{"name":"requiresDeposit","type":"bool","internalType":"bool"}]},{"name":"_hopData","type":"tuple","internalType":"struct HopFacetOptimized.HopData","components":[{"name":"bonderFee","type":"uint256","internalType":"uint256"},{"name":"amountOutMin","type":"uint256","internalType":"uint256"},{"name":"deadline","type":"uint256","internalType":"uint256"},{"name":"destinationAmountOutMin","type":"uint256","internalType":"uint256"},{"name":"destinationDeadline","type":"uint256","internalType":"uint256"},{"name":"hopBridge","type":"address","internalType":"contract IHopBridge"},{"name":"relayer","type":"address","internalType":"address"},{"name":"relayerFee","type":"uint256","internalType":"uint256"},{"name":"nativeFee","type":"uint256","internalType":"uint256"}]}],"outputs":[],"stateMutability":"payable"},{"type":"function","name":"swapAndStartBridgeTokensViaHopL2ERC20","inputs":[{"name":"_bridgeData","type":"tuple","internalType":"struct ILiFi.BridgeData","components":[{"name":"transactionId","type":"bytes32","internalType":"bytes32"},{"name":"bridge","type":"string","internalType":"string"},{"name":"integrator","type":"string","internalType":"string"},{"name":"referrer","type":"address","internalType":"address"},{"name":"sendingAssetId","type":"address","internalType":"address"},{"name":"receiver","type":"address","internalType":"address"},{"name":"minAmount","type":"uint256","internalType":"uint256"},{"name":"destinationChainId","type":"uint256","internalType":"uint256"},{"name":"hasSourceSwaps","type":"bool","internalType":"bool"},{"name":"hasDestinationCall","type":"bool","internalType":"bool"}]},{"name":"_swapData","type":"tuple[]","internalType":"struct LibSwap.SwapData[]","components":[{"name":"callTo","type":"address","internalType":"address"},{"name":"approveTo","type":"address","internalType":"address"},{"name":"sendingAssetId","type":"address","internalType":"address"},{"name":"receivingAssetId","type":"address","internalType":"address"},{"name":"fromAmount","type":"uint256","internalType":"uint256"},{"name":"callData","type":"bytes","internalType":"bytes"},{"name":"requiresDeposit","type":"bool","internalType":"bool"}]},{"name":"_hopData","type":"tuple","internalType":"struct HopFacetOptimized.HopData","components":[{"name":"bonderFee","type":"uint256","internalType":"uint256"},{"name":"amountOutMin","type":"uint256","internalType":"uint256"},{"name":"deadline","type":"uint256","internalType":"uint256"},{"name":"destinationAmountOutMin","type":"uint256","internalType":"uint256"},{"name":"destinationDeadline","type":"uint256","internalType":"uint256"},{"name":"hopBridge","type":"address","internalType":"contract IHopBridge"},{"name":"relayer","type":"address","internalType":"address"},{"name":"relayerFee","type":"uint256","internalType":"uint256"},{"name":"nativeFee","type":"uint256","internalType":"uint256"}]}],"outputs":[],"stateMutability":"payable"},{"type":"function","name":"swapAndStartBridgeTokensViaHopL2Native","inputs":[{"name":"_bridgeData","type":"tuple","internalType":"struct ILiFi.BridgeData","components":[{"name":"transactionId","type":"bytes32","internalType":"bytes32"},{"name":"bridge","type":"string","internalType":"string"},{"name":"integrator","type":"string","internalType":"string"},{"name":"referrer","type":"address","internalType":"address"},{"name":"sendingAssetId","type":"address","internalType":"address"},{"name":"receiver","type":"address","internalType":"address"},{"name":"minAmount","type":"uint256","internalType":"uint256"},{"name":"destinationChainId","type":"uint256","internalType":"uint256"},{"name":"hasSourceSwaps","type":"bool","internalType":"bool"},{"name":"hasDestinationCall","type":"bool","internalType":"bool"}]},{"name":"_swapData","type":"tuple[]","internalType":"struct LibSwap.SwapData[]","components":[{"name":"callTo","type":"address","internalType":"address"},{"name":"approveTo","type":"address","internalType":"address"},{"name":"sendingAssetId","type":"address","internalType":"address"},{"name":"receivingAssetId","type":"address","internalType":"address"},{"name":"fromAmount","type":"uint256","internalType":"uint256"},{"name":"callData","type":"bytes","internalType":"bytes"},{"name":"requiresDeposit","type":"bool","internalType":"bool"}]},{"name":"_hopData","type":"tuple","internalType":"struct HopFacetOptimized.HopData","components":[{"name":"bonderFee","type":"uint256","internalType":"uint256"},{"name":"amountOutMin","type":"uint256","internalType":"uint256"},{"name":"deadline","type":"uint256","internalType":"uint256"},{"name":"destinationAmountOutMin","type":"uint256","internalType":"uint256"},{"name":"destinationDeadline","type":"uint256","internalType":"uint256"},{"name":"hopBridge","type":"address","internalType":"contract IHopBridge"},{"name":"relayer","type":"address","internalType":"address"},{"name":"relayerFee","type":"uint256","internalType":"uint256"},{"name":"nativeFee","type":"uint256","internalType":"uint256"}]}],"outputs":[],"stateMutability":"payable"}],"bytecode":{"object":"0x608060405234801561001057600080fd5b506106f2806100206000396000f3fe60806040526004361061007b5760003560e01c806355c99cd81161004e57806355c99cd8146100fd5780638d03f45614610119578063ca360ae014610135578063d40e64cc146101515761007b565b806303add8c314610080578063082bc0471461009c5780630b4cb5d8146100b857806342afe79a146100e1575b600080fd5b61009a600480360381019061009591906101ee565b61016d565b005b6100b660048036038101906100b191906101ee565b610171565b005b3480156100c457600080fd5b506100df60048036038101906100da91906101ee565b610175565b005b6100fb60048036038101906100f6919061062b565b610179565b005b610117600480360381019061011291906101ee565b61017f565b005b610133600480360381019061012e919061062b565b610183565b005b61014f600480360381019061014a919061062b565b610189565b005b61016b6004803603810190610166919061062b565b61018f565b005b5050565b5050565b5050565b50505050565b5050565b50505050565b50505050565b50505050565b6000604051905090565b600080fd5b600080fd5b600080fd5b600061014082840312156101c5576101c46101a9565b5b81905092915050565b600061012082840312156101e5576101e46101a9565b5b81905092915050565b60008061014083850312156102065761020561019f565b5b600083013567ffffffffffffffff811115610224576102236101a4565b5b610230858286016101ae565b9250506020610241858286016101ce565b9150509250929050565b600080fd5b6000601f19601f8301169050919050565b7f4e487b7100000000000000000000000000000000000000000000000000000000600052604160045260246000fd5b61029982610250565b810181811067ffffffffffffffff821117156102b8576102b7610261565b5b80604052505050565b60006102cb610195565b90506102d78282610290565b919050565b600080fd5b6000819050919050565b6102f4816102e1565b81146102ff57600080fd5b50565b600081359050610311816102eb565b92915050565b600080fd5b600080fd5b600067ffffffffffffffff82111561033c5761033b610261565b5b61034582610250565b9050602081019050919050565b82818337600083830152505050565b600061037461036f84610321565b6102c1565b9050828152602081018484840111156103905761038f61031c565b5b61039b848285610352565b509392505050565b600082601f8301126103b8576103b7610317565b5b81356103c8848260208601610361565b91505092915050565b600073ffffffffffffffffffffffffffffffffffffffff82169050919050565b60006103fc826103d1565b9050919050565b61040c816103f1565b811461041757600080fd5b50565b60008135905061042981610403565b92915050565b6000819050919050565b6104428161042f565b811461044d57600080fd5b50565b60008135905061045f81610439565b92915050565b60008115159050919050565b61047a81610465565b811461048557600080fd5b50565b60008135905061049781610471565b92915050565b600061014082840312156104b4576104b361024b565b5b6104bf6101406102c1565b905060006104cf84828501610302565b600083015250602082013567ffffffffffffffff8111156104f3576104f26102dc565b5b6104ff848285016103a3565b602083015250604082013567ffffffffffffffff811115610523576105226102dc565b5b61052f848285016103a3565b60408301525060606105438482850161041a565b60608301525060806105578482850161041a565b60808301525060a061056b8482850161041a565b60a08301525060c061057f84828501610450565b60c08301525060e061059384828501610450565b60e0830152506101006105a884828501610488565b610100830152506101206105be84828501610488565b6101208301525092915050565b600080fd5b600080fd5b60008083601f8401126105eb576105ea610317565b5b8235905067ffffffffffffffff811115610608576106076105cb565b5b602083019150836020820283011115610624576106236105d0565b5b9250929050565b60008060008061016085870312156106465761064561019f565b5b600085013567ffffffffffffffff811115610664576106636101a4565b5b6106708782880161049d565b945050602085013567ffffffffffffffff811115610691576106906101a4565b5b61069d878288016105d5565b935093505060406106b0878288016101ce565b9150509295919450925056fea2646970667358221220fa6cbc21cc9c35a56f0179fed1332643a6da7c046148f78897d475642653562b64736f6c63430008170033","linkReferences":{}},"methodIdentifiers":{"startBridgeTokensViaHopL1ERC20((bytes32,string,string,address,address,address,uint256,uint256,bool,bool),(uint256,uint256,uint256,uint256,uint256,address,address,uint256,uint256))":"082bc047","startBridgeTokensViaHopL1Native((bytes32,string,string,address,address,address,uint256,uint256,bool,bool),(uint256,uint256,uint256,uint256,uint256,address,address,uint256,uint256))":"03add8c3","startBridgeTokensViaHopL2ERC20((bytes32,string,string,address,address,address,uint256,uint256,bool,bool),(uint256,uint256,uint256,uint256,uint256,address,address,uint256,uint256))":"0b4cb5d8","startBridgeTokensViaHopL2Native((bytes32,string,string,address,address,address,uint256,uint256,bool,bool),(uint256,uint256,uint256,uint256,uint256,address,address,uint256,uint256))":"55c99cd8","swapAndStartBridgeTokensViaHopL1ERC20((bytes32,string,string,address,address,address,uint256,uint256,bool,bool),(address,address,address,address,uint256,bytes,bool)[],(uint256,uint256,uint256,uint256,uint256,address,address,uint256,uint256))":"42afe79a","swapAndStartBridgeTokensViaHopL1Native((bytes32,string,string,address,address,address,uint256,uint256,bool,bool),(address,address,address,address,uint256,bytes,bool)[],(uint256,uint256,uint256,uint256,uint256,address,address,uint256,uint256))":"8d03f456","swapAndStartBridgeTokensViaHopL2ERC20((bytes32,string,string,address,address,address,uint256,uint256,bool,bool),(address,address,address,address,uint256,bytes,bool)[],(uint256,uint256,uint256,uint256,uint256,address,address,uint256,uint256))":"d40e64cc","swapAndStartBridgeTokensViaHopL2Native((bytes32,string,string,address,address,address,uint256,uint256,bool,bool),(address,address,address,address,uint256,bytes,bool)[],(uint256,uint256,uint256,uint256,uint256,address,address,uint256,uint256))":"ca360ae0"},"id":201}