{"abi":[{"type":"function","name":"startBridgeTokensViaAmarokERC20MinPayFeeWithAsset","inputs":[{"name":"transactionId","type":"bytes32","internalType":"bytes32"},{"name":"receiver","type":"address","internalType":"address"},{"name":"sendingAssetId","type":"address","internalType":"address"},{"name":"minAmount","type":"uint256","internalType":"uint256"},{"name":"destChainDomainId","type":"uint32","internalType":"uint32"},{"name":"slippageTol","type":"uint256","internalType":"uint256"},{"name":"relayerFee","type":"uint256","internalType":"uint256"}],"outputs":[],"stateMutability":"nonpayable"},{"type":"function","name":"startBridgeTokensViaAmarokERC20MinPayFeeWithNative","inputs":[{"name":"transactionId","type":"bytes32","internalType":"bytes32"},{"name":"receiver","type":"address","internalType":"address"},{"name":"sendingAssetId","type":"address","internalType":"address"},{"name":"minAmount","type":"uint256","internalType":"uint256"},{"name":"destChainDomainId","type":"uint32","internalType":"uint32"},{"name":"slippageTol","type":"uint256","internalType":"uint256"}],"outputs":[],"stateMutability":"payable"},{"type":"function","name":"startBridgeTokensViaAmarokERC20PackedPayFeeWithAsset","inputs":[],"outputs":[],"stateMutability":"nonpayable"},{"type":"function","name":"startBridgeTokensViaAmarokERC20PackedPayFeeWithNative","inputs":[],"outputs":[],"stateMutability":"payable"}],"bytecode":{"object":"0x608060405234801561001057600080fd5b5061032f806100206000396000f3fe60806040526004361061003f5760003560e01c80633abdecb414610044578063698fbb561461006d57806390f21c8014610089578063ecda1c0e146100a0575b600080fd5b34801561005057600080fd5b5061006b600480360381019061006691906101ca565b6100aa565b005b6100876004803603810190610082919061026c565b6100b3565b005b34801561009557600080fd5b5061009e6100bb565b005b6100a86100bd565b005b50505050505050565b505050505050565b565b565b600080fd5b6000819050919050565b6100d7816100c4565b81146100e257600080fd5b50565b6000813590506100f4816100ce565b92915050565b600073ffffffffffffffffffffffffffffffffffffffff82169050919050565b6000610125826100fa565b9050919050565b6101358161011a565b811461014057600080fd5b50565b6000813590506101528161012c565b92915050565b6000819050919050565b61016b81610158565b811461017657600080fd5b50565b60008135905061018881610162565b92915050565b600063ffffffff82169050919050565b6101a78161018e565b81146101b257600080fd5b50565b6000813590506101c48161019e565b92915050565b600080600080600080600060e0888a0312156101e9576101e86100bf565b5b60006101f78a828b016100e5565b97505060206102088a828b01610143565b96505060406102198a828b01610143565b955050606061022a8a828b01610179565b945050608061023b8a828b016101b5565b93505060a061024c8a828b01610179565b92505060c061025d8a828b01610179565b91505092959891949750929550565b60008060008060008060c08789031215610289576102886100bf565b5b600061029789828a016100e5565b96505060206102a889828a01610143565b95505060406102b989828a01610143565b94505060606102ca89828a01610179565b93505060806102db89828a016101b5565b92505060a06102ec89828a01610179565b915050929550929550929556fea2646970667358221220a2b9864491bed2085f4888064ce315ba3d4fc8f73dbbade162bfe87c8823a0a964736f6c63430008170033","linkReferences":{}},"methodIdentifiers":{"startBridgeTokensViaAmarokERC20MinPayFeeWithAsset(bytes32,address,address,uint256,uint32,uint256,uint256)":"3abdecb4","startBridgeTokensViaAmarokERC20MinPayFeeWithNative(bytes32,address,address,uint256,uint32,uint256)":"698fbb56","startBridgeTokensViaAmarokERC20PackedPayFeeWithAsset()":"90f21c80","startBridgeTokensViaAmarokERC20PackedPayFeeWithNative()":"ecda1c0e"},"id":105}