{"abi":[{"type":"constructor","inputs":[{"name":"superRegistry_","type":"address","internalType":"address"}],"stateMutability":"nonpayable"},{"type":"receive","stateMutability":"payable"},{"type":"function","name":"directDepositIntoVault","inputs":[{"name":"singleVaultData_","type":"tuple","internalType":"struct InitSingleVaultData","components":[{"name":"payloadId","type":"uint256","internalType":"uint256"},{"name":"superformId","type":"uint256","internalType":"uint256"},{"name":"amount","type":"uint256","internalType":"uint256"},{"name":"outputAmount","type":"uint256","internalType":"uint256"},{"name":"maxSlippage","type":"uint256","internalType":"uint256"},{"name":"liqData","type":"tuple","internalType":"struct LiqRequest","components":[{"name":"txData","type":"bytes","internalType":"bytes"},{"name":"token","type":"address","internalType":"address"},{"name":"interimToken","type":"address","internalType":"address"},{"name":"bridgeId","type":"uint8","internalType":"uint8"},{"name":"liqDstChainId","type":"uint64","internalType":"uint64"},{"name":"nativeAmount","type":"uint256","internalType":"uint256"}]},{"name":"hasDstSwap","type":"bool","internalType":"bool"},{"name":"retain4626","type":"bool","internalType":"bool"},{"name":"receiverAddress","type":"address","internalType":"address"},{"name":"extraFormData","type":"bytes","internalType":"bytes"}]},{"name":"srcSender_","type":"address","internalType":"address"}],"outputs":[{"name":"shares","type":"uint256","internalType":"uint256"}],"stateMutability":"payable"},{"type":"function","name":"directWithdrawFromVault","inputs":[{"name":"singleVaultData_","type":"tuple","internalType":"struct InitSingleVaultData","components":[{"name":"payloadId","type":"uint256","internalType":"uint256"},{"name":"superformId","type":"uint256","internalType":"uint256"},{"name":"amount","type":"uint256","internalType":"uint256"},{"name":"outputAmount","type":"uint256","internalType":"uint256"},{"name":"maxSlippage","type":"uint256","internalType":"uint256"},{"name":"liqData","type":"tuple","internalType":"struct LiqRequest","components":[{"name":"txData","type":"bytes","internalType":"bytes"},{"name":"token","type":"address","internalType":"address"},{"name":"interimToken","type":"address","internalType":"address"},{"name":"bridgeId","type":"uint8","internalType":"uint8"},{"name":"liqDstChainId","type":"uint64","internalType":"uint64"},{"name":"nativeAmount","type":"uint256","internalType":"uint256"}]},{"name":"hasDstSwap","type":"bool","internalType":"bool"},{"name":"retain4626","type":"bool","internalType":"bool"},{"name":"receiverAddress","type":"address","internalType":"address"},{"name":"extraFormData","type":"bytes","internalType":"bytes"}]},{"name":"srcSender_","type":"address","internalType":"address"}],"outputs":[{"name":"assets","type":"uint256","internalType":"uint256"}],"stateMutability":"nonpayable"},{"type":"function","name":"emergencyQueue","inputs":[],"outputs":[{"name":"","type":"address","internalType":"contract IEmergencyQueue"}],"stateMutability":"view"},{"type":"function","name":"emergencyWithdraw","inputs":[{"name":"receiverAddress_","type":"address","internalType":"address"},{"name":"amount_","type":"uint256","internalType":"uint256"}],"outputs":[],"stateMutability":"nonpayable"},{"type":"function","name":"formImplementationId","inputs":[],"outputs":[{"name":"","type":"uint32","internalType":"uint32"}],"stateMutability":"view"},{"type":"function","name":"forwardDustToPaymaster","inputs":[{"name":"token_","type":"address","internalType":"address"}],"outputs":[],"stateMutability":"nonpayable"},{"type":"function","name":"getPreviewPricePerVaultShare","inputs":[],"outputs":[{"name":"","type":"uint256","internalType":"uint256"}],"stateMutability":"view"},{"type":"function","name":"getPricePerVaultShare","inputs":[],"outputs":[{"name":"","type":"uint256","internalType":"uint256"}],"stateMutability":"view"},{"type":"function","name":"getStateRegistryId","inputs":[],"outputs":[{"name":"","type":"uint8","internalType":"uint8"}],"stateMutability":"view"},{"type":"function","name":"getTotalAssets","inputs":[],"outputs":[{"name":"","type":"uint256","internalType":"uint256"}],"stateMutability":"view"},{"type":"function","name":"getTotalSupply","inputs":[],"outputs":[{"name":"","type":"uint256","internalType":"uint256"}],"stateMutability":"view"},{"type":"function","name":"getVaultAddress","inputs":[],"outputs":[{"name":"","type":"address","internalType":"address"}],"stateMutability":"view"},{"type":"function","name":"getVaultAsset","inputs":[],"outputs":[{"name":"","type":"address","internalType":"address"}],"stateMutability":"view"},{"type":"function","name":"getVaultDecimals","inputs":[],"outputs":[{"name":"","type":"uint256","internalType":"uint256"}],"stateMutability":"view"},{"type":"function","name":"getVaultName","inputs":[],"outputs":[{"name":"","type":"string","internalType":"string"}],"stateMutability":"view"},{"type":"function","name":"getVaultShareBalance","inputs":[],"outputs":[{"name":"","type":"uint256","internalType":"uint256"}],"stateMutability":"view"},{"type":"function","name":"getVaultSymbol","inputs":[],"outputs":[{"name":"","type":"string","internalType":"string"}],"stateMutability":"view"},{"type":"function","name":"initialize","inputs":[{"name":"superRegistry_","type":"address","internalType":"address"},{"name":"vault_","type":"address","internalType":"address"},{"name":"formImplementationId_","type":"uint32","internalType":"uint32"}],"outputs":[],"stateMutability":"nonpayable"},{"type":"function","name":"previewDepositTo","inputs":[{"name":"assets_","type":"uint256","internalType":"uint256"}],"outputs":[{"name":"","type":"uint256","internalType":"uint256"}],"stateMutability":"view"},{"type":"function","name":"previewRedeemFrom","inputs":[{"name":"shares_","type":"uint256","internalType":"uint256"}],"outputs":[{"name":"","type":"uint256","internalType":"uint256"}],"stateMutability":"view"},{"type":"function","name":"previewWithdrawFrom","inputs":[{"name":"assets_","type":"uint256","internalType":"uint256"}],"outputs":[{"name":"","type":"uint256","internalType":"uint256"}],"stateMutability":"view"},{"type":"function","name":"superRegistry","inputs":[],"outputs":[{"name":"","type":"address","internalType":"contract ISuperRegistry"}],"stateMutability":"view"},{"type":"function","name":"superformYieldTokenName","inputs":[],"outputs":[{"name":"","type":"string","internalType":"string"}],"stateMutability":"view"},{"type":"function","name":"superformYieldTokenSymbol","inputs":[],"outputs":[{"name":"","type":"string","internalType":"string"}],"stateMutability":"view"},{"type":"function","name":"supportsInterface","inputs":[{"name":"interfaceId","type":"bytes4","internalType":"bytes4"}],"outputs":[{"name":"","type":"bool","internalType":"bool"}],"stateMutability":"view"},{"type":"function","name":"xChainDepositIntoVault","inputs":[{"name":"singleVaultData_","type":"tuple","internalType":"struct InitSingleVaultData","components":[{"name":"payloadId","type":"uint256","internalType":"uint256"},{"name":"superformId","type":"uint256","internalType":"uint256"},{"name":"amount","type":"uint256","internalType":"uint256"},{"name":"outputAmount","type":"uint256","internalType":"uint256"},{"name":"maxSlippage","type":"uint256","internalType":"uint256"},{"name":"liqData","type":"tuple","internalType":"struct LiqRequest","components":[{"name":"txData","type":"bytes","internalType":"bytes"},{"name":"token","type":"address","internalType":"address"},{"name":"interimToken","type":"address","internalType":"address"},{"name":"bridgeId","type":"uint8","internalType":"uint8"},{"name":"liqDstChainId","type":"uint64","internalType":"uint64"},{"name":"nativeAmount","type":"uint256","internalType":"uint256"}]},{"name":"hasDstSwap","type":"bool","internalType":"bool"},{"name":"retain4626","type":"bool","internalType":"bool"},{"name":"receiverAddress","type":"address","internalType":"address"},{"name":"extraFormData","type":"bytes","internalType":"bytes"}]},{"name":"srcSender_","type":"address","internalType":"address"},{"name":"srcChainId_","type":"uint64","internalType":"uint64"}],"outputs":[{"name":"shares","type":"uint256","internalType":"uint256"}],"stateMutability":"nonpayable"},{"type":"function","name":"xChainWithdrawFromVault","inputs":[{"name":"singleVaultData_","type":"tuple","internalType":"struct InitSingleVaultData","components":[{"name":"payloadId","type":"uint256","internalType":"uint256"},{"name":"superformId","type":"uint256","internalType":"uint256"},{"name":"amount","type":"uint256","internalType":"uint256"},{"name":"outputAmount","type":"uint256","internalType":"uint256"},{"name":"maxSlippage","type":"uint256","internalType":"uint256"},{"name":"liqData","type":"tuple","internalType":"struct LiqRequest","components":[{"name":"txData","type":"bytes","internalType":"bytes"},{"name":"token","type":"address","internalType":"address"},{"name":"interimToken","type":"address","internalType":"address"},{"name":"bridgeId","type":"uint8","internalType":"uint8"},{"name":"liqDstChainId","type":"uint64","internalType":"uint64"},{"name":"nativeAmount","type":"uint256","internalType":"uint256"}]},{"name":"hasDstSwap","type":"bool","internalType":"bool"},{"name":"retain4626","type":"bool","internalType":"bool"},{"name":"receiverAddress","type":"address","internalType":"address"},{"name":"extraFormData","type":"bytes","internalType":"bytes"}]},{"name":"srcSender_","type":"address","internalType":"address"},{"name":"srcChainId_","type":"uint64","internalType":"uint64"}],"outputs":[{"name":"assets","type":"uint256","internalType":"uint256"}],"stateMutability":"nonpayable"},{"type":"event","name":"EmergencyWithdrawalProcessed","inputs":[{"name":"refundAddress","type":"address","indexed":true,"internalType":"address"},{"name":"amount","type":"uint256","indexed":true,"internalType":"uint256"}],"anonymous":false},{"type":"event","name":"FormDustForwardedToPaymaster","inputs":[{"name":"token","type":"address","indexed":true,"internalType":"address"},{"name":"amount","type":"uint256","indexed":true,"internalType":"uint256"}],"anonymous":false},{"type":"event","name":"Initialized","inputs":[{"name":"version","type":"uint64","indexed":false,"internalType":"uint64"}],"anonymous":false},{"type":"event","name":"Processed","inputs":[{"name":"srcChainID","type":"uint64","indexed":true,"internalType":"uint64"},{"name":"dstChainId","type":"uint64","indexed":true,"internalType":"uint64"},{"name":"srcPayloadId","type":"uint256","indexed":true,"internalType":"uint256"},{"name":"amount","type":"uint256","indexed":false,"internalType":"uint256"},{"name":"vault","type":"address","indexed":false,"internalType":"address"}],"anonymous":false},{"type":"event","name":"VaultAdded","inputs":[{"name":"id","type":"uint256","indexed":true,"internalType":"uint256"},{"name":"vault","type":"address","indexed":true,"internalType":"contract IERC4626"}],"anonymous":false},{"type":"error","name":"AddressEmptyCode","inputs":[{"name":"target","type":"address","internalType":"address"}]},{"type":"error","name":"AddressInsufficientBalance","inputs":[{"name":"account","type":"address","internalType":"address"}]},{"type":"error","name":"CANNOT_FORWARD_4646_TOKEN","inputs":[]},{"type":"error","name":"DIRECT_DEPOSIT_SWAP_FAILED","inputs":[]},{"type":"error","name":"DIRECT_WITHDRAW_INVALID_LIQ_REQUEST","inputs":[]},{"type":"error","name":"FAILED_TO_EXECUTE_TXDATA","inputs":[{"name":"token","type":"address","internalType":"address"}]},{"type":"error","name":"FailedInnerCall","inputs":[]},{"type":"error","name":"INSUFFICIENT_ALLOWANCE_FOR_DEPOSIT","inputs":[]},{"type":"error","name":"INSUFFICIENT_BALANCE","inputs":[]},{"type":"error","name":"INSUFFICIENT_NATIVE_AMOUNT","inputs":[]},{"type":"error","name":"INVALID_CHAIN_ID","inputs":[]},{"type":"error","name":"InvalidInitialization","inputs":[]},{"type":"error","name":"NOT_CORE_STATE_REGISTRY","inputs":[]},{"type":"error","name":"NOT_EMERGENCY_QUEUE","inputs":[]},{"type":"error","name":"NOT_SUPERFORM_ROUTER","inputs":[]},{"type":"error","name":"NOT_SUPER_REGISTRY","inputs":[]},{"type":"error","name":"NotInitializing","inputs":[]},{"type":"error","name":"PAUSED","inputs":[]},{"type":"error","name":"SafeERC20FailedOperation","inputs":[{"name":"token","type":"address","internalType":"address"}]},{"type":"error","name":"WITHDRAW_TX_DATA_NOT_UPDATED","inputs":[]},{"type":"error","name":"XCHAIN_WITHDRAW_INVALID_LIQ_REQUEST","inputs":[]},{"type":"error","name":"ZERO_ADDRESS","inputs":[]},{"type":"error","name":"ZERO_AMOUNT","inputs":[]}],"bytecode":{"object":"0x60c06040523480156200001157600080fd5b5060405162005ecc38038062005ecc83398181016040528101906200003791906200029a565b80600181600073ffffffffffffffffffffffffffffffffffffffff168173ffffffffffffffffffffffffffffffffffffffff1603620000a2576040517f538ba4f900000000000000000000000000000000000000000000000000000000815260040160405180910390fd5b8073ffffffffffffffffffffffffffffffffffffffff1660808173ffffffffffffffffffffffffffffffffffffffff1681525050620000e6620000fe60201b60201c565b508060ff1660a08160ff16815250505050506200030e565b6000620001106200020860201b60201c565b90508060000160089054906101000a900460ff16156200015c576040517ff92ee8a900000000000000000000000000000000000000000000000000000000815260040160405180910390fd5b67ffffffffffffffff80168160000160009054906101000a900467ffffffffffffffff1667ffffffffffffffff1614620002055767ffffffffffffffff8160000160006101000a81548167ffffffffffffffff021916908367ffffffffffffffff1602179055507fc7f505b2f371ae2175ee4913f4499e1f2633a7b5936321eed1cdaeb6115181d267ffffffffffffffff604051620001fc9190620002f1565b60405180910390a15b50565b60007ff0c57e16840df040f15088dc2f81fe391c3923bec73e23a9662efc9c229c6a00905090565b600080fd5b600073ffffffffffffffffffffffffffffffffffffffff82169050919050565b6000620002628262000235565b9050919050565b620002748162000255565b81146200028057600080fd5b50565b600081519050620002948162000269565b92915050565b600060208284031215620002b357620002b262000230565b5b6000620002c38482850162000283565b91505092915050565b600067ffffffffffffffff82169050919050565b620002eb81620002cc565b82525050565b6000602082019050620003086000830184620002e0565b92915050565b60805160a051615b21620003ab60003960006111f001526000818161093b01528181610e9f01528181610f26015281816112c2015281816113dd015281816117500152818161186b01528181611b3501528181611c5001528181611de701528181611f020152818161232601528181612be801528181612e34015281816133370152818161365b015281816139920152613c920152615b216000f3fe6080604052600436106101a05760003560e01c80636ecf2b22116100ec578063b7ba28cd1161008a578063c4e41b2211610064578063c4e41b22146105e2578063cb829dc31461060d578063ef164fef1461064a578063ff5f3e4814610687576101a7565b8063b7ba28cd1461054a578063b923277514610587578063c32dcd89146105b7576101a7565b806395ccea67116100c657806395ccea671461048e57806395e4f1da146104b75780639f5376c1146104f4578063b60262ca1461051f576101a7565b80636ecf2b221461040f578063771880671461043857806391deb88214610463576101a7565b806335eda680116101595780634dcd03c0116101335780634dcd03c01461036557806365cacaa41461038e5780636b2648b7146103b95780636e07302b146103e4576101a7565b806335eda680146102d257806337d25010146102fd57806338d92fd51461033a576101a7565b806301ffc9a7146101ac57806307c080f9146101e957806317a57e081461022657806320592d981461025157806324c73dda1461027c57806331110474146102a7576101a7565b366101a757005b600080fd5b3480156101b857600080fd5b506101d360048036038101906101ce91906148f6565b6106b2565b6040516101e0919061493e565b60405180910390f35b3480156101f557600080fd5b50610210600480360381019061020b919061498f565b61071c565b60405161021d91906149cb565b60405180910390f35b34801561023257600080fd5b5061023b6107c1565b6040516102489190614a76565b60405180910390f35b34801561025d57600080fd5b5061026661087d565b6040516102739190614a76565b60405180910390f35b34801561028857600080fd5b50610291610939565b60405161029e9190614b17565b60405180910390f35b3480156102b357600080fd5b506102bc61095d565b6040516102c99190614b53565b60405180910390f35b3480156102de57600080fd5b506102e7610981565b6040516102f491906149cb565b60405180910390f35b34801561030957600080fd5b50610324600480360381019061031f919061498f565b610a24565b60405161033191906149cb565b60405180910390f35b34801561034657600080fd5b5061034f610ac9565b60405161035c91906149cb565b60405180910390f35b34801561037157600080fd5b5061038c60048036038101906103879190614bac565b610c10565b005b34801561039a57600080fd5b506103a3610ca3565b6040516103b09190614be8565b60405180910390f35b3480156103c557600080fd5b506103ce610ccd565b6040516103db9190614c22565b60405180910390f35b3480156103f057600080fd5b506103f9610ce3565b60405161040691906149cb565b60405180910390f35b34801561041b57600080fd5b5061043660048036038101906104319190614c69565b610d7b565b005b34801561044457600080fd5b5061044d61114f565b60405161045a9190614a76565b60405180910390f35b34801561046f57600080fd5b506104786111ec565b6040516104859190614cd8565b60405180910390f35b34801561049a57600080fd5b506104b560048036038101906104b09190614cf3565b611214565b005b3480156104c357600080fd5b506104de60048036038101906104d991906150f4565b6112a7565b6040516104eb91906149cb565b60405180910390f35b34801561050057600080fd5b5061050961155b565b6040516105169190614a76565b60405180910390f35b34801561052b57600080fd5b506105346115f8565b6040516105419190614be8565b60405180910390f35b34801561055657600080fd5b50610571600480360381019061056c919061498f565b611690565b60405161057e91906149cb565b60405180910390f35b6105a1600480360381019061059c9190615163565b611735565b6040516105ae91906149cb565b60405180910390f35b3480156105c357600080fd5b506105cc6119e7565b6040516105d991906149cb565b60405180910390f35b3480156105ee57600080fd5b506105f7611a82565b60405161060491906149cb565b60405180910390f35b34801561061957600080fd5b50610634600480360381019061062f9190615163565b611b1a565b60405161064191906149cb565b60405180910390f35b34801561065657600080fd5b50610671600480360381019061066c91906150f4565b611dcc565b60405161067e91906149cb565b60405180910390f35b34801561069357600080fd5b5061069c612080565b6040516106a991906149cb565b60405180910390f35b60007f01ffc9a7000000000000000000000000000000000000000000000000000000007bffffffffffffffffffffffffffffffffffffffffffffffffffffffff1916827bffffffffffffffffffffffffffffffffffffffffffffffffffffffff1916149050919050565b6000600160009054906101000a900473ffffffffffffffffffffffffffffffffffffffff1673ffffffffffffffffffffffffffffffffffffffff1663c6e6f592836040518263ffffffff1660e01b815260040161077991906149cb565b602060405180830381865afa158015610796573d6000803e3d6000fd5b505050506040513d601f19601f820116820180604052508101906107ba91906151d4565b9050919050565b6060600160009054906101000a900473ffffffffffffffffffffffffffffffffffffffff1673ffffffffffffffffffffffffffffffffffffffff166395d89b416040518163ffffffff1660e01b8152600401600060405180830381865afa158015610830573d6000803e3d6000fd5b505050506040513d6000823e3d601f19601f8201168201806040525081019061085991906152a2565b6040516020016108699190615373565b604051602081830303815290604052905090565b6060600160009054906101000a900473ffffffffffffffffffffffffffffffffffffffff1673ffffffffffffffffffffffffffffffffffffffff166306fdde036040518163ffffffff1660e01b8152600401600060405180830381865afa1580156108ec573d6000803e3d6000fd5b505050506040513d6000823e3d601f19601f8201168201806040525081019061091591906152a2565b60405160200161092591906153e1565b604051602081830303815290604052905090565b7f000000000000000000000000000000000000000000000000000000000000000081565b60008054906101000a900473ffffffffffffffffffffffffffffffffffffffff1681565b6000600160009054906101000a900473ffffffffffffffffffffffffffffffffffffffff1673ffffffffffffffffffffffffffffffffffffffff166370a08231306040518263ffffffff1660e01b81526004016109de9190614be8565b602060405180830381865afa1580156109fb573d6000803e3d6000fd5b505050506040513d601f19601f82011682018060405250810190610a1f91906151d4565b905090565b6000600160009054906101000a900473ffffffffffffffffffffffffffffffffffffffff1673ffffffffffffffffffffffffffffffffffffffff16630a28a477836040518263ffffffff1660e01b8152600401610a8191906149cb565b602060405180830381865afa158015610a9e573d6000803e3d6000fd5b505050506040513d601f19601f82011682018060405250810190610ac291906151d4565b9050919050565b600080600160009054906101000a900473ffffffffffffffffffffffffffffffffffffffff1673ffffffffffffffffffffffffffffffffffffffff1663313ce5676040518163ffffffff1660e01b8152600401602060405180830381865afa158015610b39573d6000803e3d6000fd5b505050506040513d601f19601f82011682018060405250810190610b5d9190615418565b60ff169050600160009054906101000a900473ffffffffffffffffffffffffffffffffffffffff1673ffffffffffffffffffffffffffffffffffffffff16634cdad50682600a610bad91906155a7565b6040518263ffffffff1660e01b8152600401610bc991906149cb565b602060405180830381865afa158015610be6573d6000803e3d6000fd5b505050506040513d601f19601f82011682018060405250810190610c0a91906151d4565b91505090565b600160009054906101000a900473ffffffffffffffffffffffffffffffffffffffff1673ffffffffffffffffffffffffffffffffffffffff168173ffffffffffffffffffffffffffffffffffffffff1603610c97576040517f6ba4485300000000000000000000000000000000000000000000000000000000815260040160405180910390fd5b610ca0816121c7565b50565b6000600160009054906101000a900473ffffffffffffffffffffffffffffffffffffffff16905090565b600160149054906101000a900463ffffffff1681565b6000600160009054906101000a900473ffffffffffffffffffffffffffffffffffffffff1673ffffffffffffffffffffffffffffffffffffffff166301e1d1146040518163ffffffff1660e01b8152600401602060405180830381865afa158015610d52573d6000803e3d6000fd5b505050506040513d601f19601f82011682018060405250810190610d7691906151d4565b905090565b6000610d856121d3565b905060008160000160089054906101000a900460ff1615905060008260000160009054906101000a900467ffffffffffffffff1690506000808267ffffffffffffffff16148015610dd35750825b9050600060018367ffffffffffffffff16148015610e08575060003073ffffffffffffffffffffffffffffffffffffffff163b145b905081158015610e16575080155b15610e4d576040517ff92ee8a900000000000000000000000000000000000000000000000000000000815260040160405180910390fd5b60018560000160006101000a81548167ffffffffffffffff021916908367ffffffffffffffff1602179055508315610e9d5760018560000160086101000a81548160ff0219169083151502179055505b7f000000000000000000000000000000000000000000000000000000000000000073ffffffffffffffffffffffffffffffffffffffff168873ffffffffffffffffffffffffffffffffffffffff1614610f22576040517fe7b6503f00000000000000000000000000000000000000000000000000000000815260040160405180910390fd5b60007f000000000000000000000000000000000000000000000000000000000000000073ffffffffffffffffffffffffffffffffffffffff166321f8a7217fa2d83cf6f43caf068994e5ffe0938f6eabaa551d915b59bfda16ba012d30d9686040518263ffffffff1660e01b8152600401610f9d919061560b565b602060405180830381865afa158015610fba573d6000803e3d6000fd5b505050506040513d601f19601f82011682018060405250810190610fde919061563b565b9050600073ffffffffffffffffffffffffffffffffffffffff168173ffffffffffffffffffffffffffffffffffffffff1603611046576040517f538ba4f900000000000000000000000000000000000000000000000000000000815260040160405180910390fd5b806000806101000a81548173ffffffffffffffffffffffffffffffffffffffff021916908373ffffffffffffffffffffffffffffffffffffffff16021790555086600160146101000a81548163ffffffff021916908363ffffffff16021790555087600160006101000a81548173ffffffffffffffffffffffffffffffffffffffff021916908373ffffffffffffffffffffffffffffffffffffffff1602179055505083156111455760008560000160086101000a81548160ff0219169083151502179055507fc7f505b2f371ae2175ee4913f4499e1f2633a7b5936321eed1cdaeb6115181d2600160405161113c91906156a3565b60405180910390a15b5050505050505050565b6060600160009054906101000a900473ffffffffffffffffffffffffffffffffffffffff1673ffffffffffffffffffffffffffffffffffffffff166395d89b416040518163ffffffff1660e01b8152600401600060405180830381865afa1580156111be573d6000803e3d6000fd5b505050506040513d6000823e3d601f19601f820116820180604052508101906111e791906152a2565b905090565b60007f0000000000000000000000000000000000000000000000000000000000000000905090565b60008054906101000a900473ffffffffffffffffffffffffffffffffffffffff1673ffffffffffffffffffffffffffffffffffffffff163373ffffffffffffffffffffffffffffffffffffffff1614611299576040517f94949e6200000000000000000000000000000000000000000000000000000000815260040160405180910390fd5b6112a382826121fb565b5050565b60003373ffffffffffffffffffffffffffffffffffffffff167f000000000000000000000000000000000000000000000000000000000000000073ffffffffffffffffffffffffffffffffffffffff166321f8a7217f55b101fc856aff484166c46ad33bc74831c135693c159b0092bb3b72254ffb6b6040518263ffffffff1660e01b8152600401611339919061560b565b602060405180830381865afa158015611356573d6000803e3d6000fd5b505050506040513d601f19601f8201168201806040525081019061137a919061563b565b73ffffffffffffffffffffffffffffffffffffffff16146113c7576040517f8c1715e200000000000000000000000000000000000000000000000000000000815260040160405180910390fd5b8360006113d78260200151612209565b509150507f000000000000000000000000000000000000000000000000000000000000000073ffffffffffffffffffffffffffffffffffffffff166321f8a7217fbcc180fb907e9ae431665de4bc74305c00b7b27442aadd477980ecc4bb14c0116040518263ffffffff1660e01b8152600401611454919061560b565b602060405180830381865afa158015611471573d6000803e3d6000fd5b505050506040513d601f19601f82011682018060405250810190611495919061563b565b73ffffffffffffffffffffffffffffffffffffffff1663596db717826040518263ffffffff1660e01b81526004016114cd9190614c22565b602060405180830381865afa1580156114ea573d6000803e3d6000fd5b505050506040513d601f19601f8201168201806040525081019061150e91906156d3565b15611545576040517fa9aad58c00000000000000000000000000000000000000000000000000000000815260040160405180910390fd5b61155086868661226a565b925050509392505050565b6060600160009054906101000a900473ffffffffffffffffffffffffffffffffffffffff1673ffffffffffffffffffffffffffffffffffffffff166306fdde036040518163ffffffff1660e01b8152600401600060405180830381865afa1580156115ca573d6000803e3d6000fd5b505050506040513d6000823e3d601f19601f820116820180604052508101906115f391906152a2565b905090565b6000600160009054906101000a900473ffffffffffffffffffffffffffffffffffffffff1673ffffffffffffffffffffffffffffffffffffffff166338d52e0f6040518163ffffffff1660e01b8152600401602060405180830381865afa158015611667573d6000803e3d6000fd5b505050506040513d601f19601f8201168201806040525081019061168b919061563b565b905090565b6000600160009054906101000a900473ffffffffffffffffffffffffffffffffffffffff1673ffffffffffffffffffffffffffffffffffffffff16634cdad506836040518263ffffffff1660e01b81526004016116ed91906149cb565b602060405180830381865afa15801561170a573d6000803e3d6000fd5b505050506040513d601f19601f8201168201806040525081019061172e91906151d4565b9050919050565b60003373ffffffffffffffffffffffffffffffffffffffff167f000000000000000000000000000000000000000000000000000000000000000073ffffffffffffffffffffffffffffffffffffffff166321f8a7217f3a2f5529773e03d975be44bdae98a8509bdf1159e407504e558536cde56cf6ac6040518263ffffffff1660e01b81526004016117c7919061560b565b602060405180830381865afa1580156117e4573d6000803e3d6000fd5b505050506040513d601f19601f82011682018060405250810190611808919061563b565b73ffffffffffffffffffffffffffffffffffffffff1614611855576040517f158a2f6b00000000000000000000000000000000000000000000000000000000815260040160405180910390fd5b8260006118658260200151612209565b509150507f000000000000000000000000000000000000000000000000000000000000000073ffffffffffffffffffffffffffffffffffffffff166321f8a7217fbcc180fb907e9ae431665de4bc74305c00b7b27442aadd477980ecc4bb14c0116040518263ffffffff1660e01b81526004016118e2919061560b565b602060405180830381865afa1580156118ff573d6000803e3d6000fd5b505050506040513d601f19601f82011682018060405250810190611923919061563b565b73ffffffffffffffffffffffffffffffffffffffff1663596db717826040518263ffffffff1660e01b815260040161195b9190614c22565b602060405180830381865afa158015611978573d6000803e3d6000fd5b505050506040513d601f19601f8201168201806040525081019061199c91906156d3565b156119d3576040517fa9aad58c00000000000000000000000000000000000000000000000000000000815260040160405180910390fd5b6119dd858561227f565b9250505092915050565b6000600160009054906101000a900473ffffffffffffffffffffffffffffffffffffffff1673ffffffffffffffffffffffffffffffffffffffff1663313ce5676040518163ffffffff1660e01b8152600401602060405180830381865afa158015611a56573d6000803e3d6000fd5b505050506040513d601f19601f82011682018060405250810190611a7a9190615418565b60ff16905090565b6000600160009054906101000a900473ffffffffffffffffffffffffffffffffffffffff1673ffffffffffffffffffffffffffffffffffffffff166318160ddd6040518163ffffffff1660e01b8152600401602060405180830381865afa158015611af1573d6000803e3d6000fd5b505050506040513d601f19601f82011682018060405250810190611b1591906151d4565b905090565b60003373ffffffffffffffffffffffffffffffffffffffff167f000000000000000000000000000000000000000000000000000000000000000073ffffffffffffffffffffffffffffffffffffffff166321f8a7217f3a2f5529773e03d975be44bdae98a8509bdf1159e407504e558536cde56cf6ac6040518263ffffffff1660e01b8152600401611bac919061560b565b602060405180830381865afa158015611bc9573d6000803e3d6000fd5b505050506040513d601f19601f82011682018060405250810190611bed919061563b565b73ffffffffffffffffffffffffffffffffffffffff1614611c3a576040517f158a2f6b00000000000000000000000000000000000000000000000000000000815260040160405180910390fd5b826000611c4a8260200151612209565b509150507f000000000000000000000000000000000000000000000000000000000000000073ffffffffffffffffffffffffffffffffffffffff166321f8a7217fbcc180fb907e9ae431665de4bc74305c00b7b27442aadd477980ecc4bb14c0116040518263ffffffff1660e01b8152600401611cc7919061560b565b602060405180830381865afa158015611ce4573d6000803e3d6000fd5b505050506040513d601f19601f82011682018060405250810190611d08919061563b565b73ffffffffffffffffffffffffffffffffffffffff1663596db717826040518263ffffffff1660e01b8152600401611d409190614c22565b602060405180830381865afa158015611d5d573d6000803e3d6000fd5b505050506040513d601f19601f82011682018060405250810190611d8191906156d3565b15611db8576040517fa9aad58c00000000000000000000000000000000000000000000000000000000815260040160405180910390fd5b611dc28585612292565b9250505092915050565b60003373ffffffffffffffffffffffffffffffffffffffff167f000000000000000000000000000000000000000000000000000000000000000073ffffffffffffffffffffffffffffffffffffffff166321f8a7217f55b101fc856aff484166c46ad33bc74831c135693c159b0092bb3b72254ffb6b6040518263ffffffff1660e01b8152600401611e5e919061560b565b602060405180830381865afa158015611e7b573d6000803e3d6000fd5b505050506040513d601f19601f82011682018060405250810190611e9f919061563b565b73ffffffffffffffffffffffffffffffffffffffff1614611eec576040517f8c1715e200000000000000000000000000000000000000000000000000000000815260040160405180910390fd5b836000611efc8260200151612209565b509150507f000000000000000000000000000000000000000000000000000000000000000073ffffffffffffffffffffffffffffffffffffffff166321f8a7217fbcc180fb907e9ae431665de4bc74305c00b7b27442aadd477980ecc4bb14c0116040518263ffffffff1660e01b8152600401611f79919061560b565b602060405180830381865afa158015611f96573d6000803e3d6000fd5b505050506040513d601f19601f82011682018060405250810190611fba919061563b565b73ffffffffffffffffffffffffffffffffffffffff1663596db717826040518263ffffffff1660e01b8152600401611ff29190614c22565b602060405180830381865afa15801561200f573d6000803e3d6000fd5b505050506040513d601f19601f8201168201806040525081019061203391906156d3565b1561206a576040517fa9aad58c00000000000000000000000000000000000000000000000000000000815260040160405180910390fd5b6120758686866122a6565b925050509392505050565b600080600160009054906101000a900473ffffffffffffffffffffffffffffffffffffffff1673ffffffffffffffffffffffffffffffffffffffff1663313ce5676040518163ffffffff1660e01b8152600401602060405180830381865afa1580156120f0573d6000803e3d6000fd5b505050506040513d601f19601f820116820180604052508101906121149190615418565b60ff169050600160009054906101000a900473ffffffffffffffffffffffffffffffffffffffff1673ffffffffffffffffffffffffffffffffffffffff166307a2d13a82600a61216491906155a7565b6040518263ffffffff1660e01b815260040161218091906149cb565b602060405180830381865afa15801561219d573d6000803e3d6000fd5b505050506040513d601f19601f820116820180604052508101906121c191906151d4565b91505090565b6121d0816122bc565b50565b60007ff0c57e16840df040f15088dc2f81fe391c3923bec73e23a9662efc9c229c6a00905090565b61220582826124e1565b5050565b600080600083925060a084901c915060c084901c905060008167ffffffffffffffff1603612263576040517f030042b700000000000000000000000000000000000000000000000000000000815260040160405180910390fd5b9193909250565b60006122768483612683565b90509392505050565b600061228a83612938565b905092915050565b600061229e838361312f565b905092915050565b60006122b3848484613728565b90509392505050565b600073ffffffffffffffffffffffffffffffffffffffff168173ffffffffffffffffffffffffffffffffffffffff1603612322576040517f538ba4f900000000000000000000000000000000000000000000000000000000815260040160405180910390fd5b60007f000000000000000000000000000000000000000000000000000000000000000073ffffffffffffffffffffffffffffffffffffffff166321f8a7217fbddfa8c39a1f6275bcfb3aa5c70638c466999edbf14e6162d81b3492caca9fce6040518263ffffffff1660e01b815260040161239d919061560b565b602060405180830381865afa1580156123ba573d6000803e3d6000fd5b505050506040513d601f19601f820116820180604052508101906123de919061563b565b9050600082905060008173ffffffffffffffffffffffffffffffffffffffff166370a08231306040518263ffffffff1660e01b81526004016124209190614be8565b602060405180830381865afa15801561243d573d6000803e3d6000fd5b505050506040513d601f19601f8201168201806040525081019061246191906151d4565b9050600081146124db5761249683828473ffffffffffffffffffffffffffffffffffffffff16613ddc9092919063ffffffff16565b808473ffffffffffffffffffffffffffffffffffffffff167fd34222ea8b5b095ec7a6f42ff87fa762ab480b9e8cea464915ee985f1510c10a60405160405180910390a35b50505050565b6000600160009054906101000a900473ffffffffffffffffffffffffffffffffffffffff169050818173ffffffffffffffffffffffffffffffffffffffff166370a08231306040518263ffffffff1660e01b81526004016125429190614be8565b602060405180830381865afa15801561255f573d6000803e3d6000fd5b505050506040513d601f19601f8201168201806040525081019061258391906151d4565b10156125bb576040517f50b1f35600000000000000000000000000000000000000000000000000000000815260040160405180910390fd5b8073ffffffffffffffffffffffffffffffffffffffff1663a9059cbb84846040518363ffffffff1660e01b81526004016125f6929190615700565b6020604051808303816000875af1158015612615573d6000803e3d6000fd5b505050506040513d601f19601f8201168201806040525081019061263991906156d3565b50818373ffffffffffffffffffffffffffffffffffffffff167f83b8068554a495dbb4af07014f8171144d6670eb522b356f8d3f37cbd76ba11660405160405180910390a3505050565b6000806126938460200151612209565b925050506000600160009054906101000a900473ffffffffffffffffffffffffffffffffffffffff16905060008190508073ffffffffffffffffffffffffffffffffffffffff166338d52e0f6040518163ffffffff1660e01b8152600401602060405180830381865afa15801561270e573d6000803e3d6000fd5b505050506040513d601f19601f82011682018060405250810190612732919061563b565b73ffffffffffffffffffffffffffffffffffffffff166323b872dd333089604001516040518463ffffffff1660e01b815260040161277293929190615729565b6020604051808303816000875af1158015612791573d6000803e3d6000fd5b505050506040513d601f19601f820116820180604052508101906127b591906156d3565b506128538287604001518373ffffffffffffffffffffffffffffffffffffffff166338d52e0f6040518163ffffffff1660e01b8152600401602060405180830381865afa15801561280a573d6000803e3d6000fd5b505050506040513d601f19601f8201168201806040525081019061282e919061563b565b73ffffffffffffffffffffffffffffffffffffffff16613e5b9092919063ffffffff16565b8073ffffffffffffffffffffffffffffffffffffffff16636e553f658760400151306040518363ffffffff1660e01b8152600401612892929190615760565b6020604051808303816000875af11580156128b1573d6000803e3d6000fd5b505050506040513d601f19601f820116820180604052508101906128d591906151d4565b935085600001518367ffffffffffffffff168667ffffffffffffffff167f9664a7293fbeac5e42927bc5eb69c82d1fe2f0b17e510b38ebfba582d47923fe896040015186604051612927929190615760565b60405180910390a450505092915050565b60006129426146e0565b6000600160009054906101000a900473ffffffffffffffffffffffffffffffffffffffff1690508073ffffffffffffffffffffffffffffffffffffffff166338d52e0f6040518163ffffffff1660e01b8152600401602060405180830381865afa1580156129b4573d6000803e3d6000fd5b505050506040513d601f19601f820116820180604052508101906129d8919061563b565b826020019073ffffffffffffffffffffffffffffffffffffffff16908173ffffffffffffffffffffffffffffffffffffffff1681525050816020015173ffffffffffffffffffffffffffffffffffffffff166370a08231306040518263ffffffff1660e01b8152600401612a4c9190614be8565b602060405180830381865afa158015612a69573d6000803e3d6000fd5b505050506040513d601f19601f82011682018060405250810190612a8d91906151d4565b82608001818152505060008460a0015160200151905073eeeeeeeeeeeeeeeeeeeeeeeeeeeeeeeeeeeeeeee73ffffffffffffffffffffffffffffffffffffffff168173ffffffffffffffffffffffffffffffffffffffff1614612bd45784604001518173ffffffffffffffffffffffffffffffffffffffff1663dd62ed3e33306040518363ffffffff1660e01b8152600401612b2a929190615789565b602060405180830381865afa158015612b47573d6000803e3d6000fd5b505050506040513d601f19601f82011682018060405250810190612b6b91906151d4565b1015612ba2576040517ec78d2600000000000000000000000000000000000000000000000000000000815260040160405180910390fd5b612bd3333087604001518473ffffffffffffffffffffffffffffffffffffffff16613ef7909392919063ffffffff16565b5b60008560a0015160000151511115612f76577f000000000000000000000000000000000000000000000000000000000000000073ffffffffffffffffffffffffffffffffffffffff1663e85b2b548660a00151606001516040518263ffffffff1660e01b8152600401612c479190614cd8565b602060405180830381865afa158015612c64573d6000803e3d6000fd5b505050506040513d601f19601f82011682018060405250810190612c88919061563b565b836040019073ffffffffffffffffffffffffffffffffffffffff16908173ffffffffffffffffffffffffffffffffffffffff168152505046836000019067ffffffffffffffff16908167ffffffffffffffff1681525050826040015173ffffffffffffffffffffffffffffffffffffffff1663c87439eb6040518061012001604052808860a00151600001518152602001866000015167ffffffffffffffff168152602001866000015167ffffffffffffffff1681526020018860a001516080015167ffffffffffffffff1681526020016001151581526020013073ffffffffffffffffffffffffffffffffffffffff1681526020013373ffffffffffffffffffffffffffffffffffffffff1681526020018473ffffffffffffffffffffffffffffffffffffffff168152602001600073ffffffffffffffffffffffffffffffffffffffff168152506040518263ffffffff1660e01b8152600401612ded91906158f9565b602060405180830381865afa158015612e0a573d6000803e3d6000fd5b505050506040513d601f19601f82011682018060405250810190612e2e91906156d3565b50612f757f000000000000000000000000000000000000000000000000000000000000000073ffffffffffffffffffffffffffffffffffffffff1663ca7adffb8760a00151606001516040518263ffffffff1660e01b8152600401612e939190614cd8565b602060405180830381865afa158015612eb0573d6000803e3d6000fd5b505050506040513d601f19601f82011682018060405250810190612ed4919061563b565b8660a001516000015183866040015173ffffffffffffffffffffffffffffffffffffffff16639bbbb5c88a60a001516000015160006040518363ffffffff1660e01b8152600401612f26929190615965565b602060405180830381865afa158015612f43573d6000803e3d6000fd5b505050506040513d601f19601f82011682018060405250810190612f6791906151d4565b8960a0015160a00151613f79565b5b826020015173ffffffffffffffffffffffffffffffffffffffff166370a08231306040518263ffffffff1660e01b8152600401612fb39190614be8565b602060405180830381865afa158015612fd0573d6000803e3d6000fd5b505050506040513d601f19601f82011682018060405250810190612ff491906151d4565b8360a0018181525050846040015183608001518460a001516130169190615995565b101561304e576040517f0edf4d2300000000000000000000000000000000000000000000000000000000815260040160405180910390fd5b6130a3600160009054906101000a900473ffffffffffffffffffffffffffffffffffffffff168660400151856020015173ffffffffffffffffffffffffffffffffffffffff16613e5b9092919063ffffffff16565b8173ffffffffffffffffffffffffffffffffffffffff16636e553f658660400151306040518363ffffffff1660e01b81526004016130e2929190615760565b6020604051808303816000875af1158015613101573d6000803e3d6000fd5b505050506040513d601f19601f8201168201806040525081019061312591906151d4565b9350505050919050565b6000613139614762565b8360a001516000015151816080018181525050600081608001511461315e5730613160565b825b816040019073ffffffffffffffffffffffffffffffffffffffff16908173ffffffffffffffffffffffffffffffffffffffff1681525050600160009054906101000a900473ffffffffffffffffffffffffffffffffffffffff168160c0019073ffffffffffffffffffffffffffffffffffffffff16908173ffffffffffffffffffffffffffffffffffffffff16815250508060c0015173ffffffffffffffffffffffffffffffffffffffff166338d52e0f6040518163ffffffff1660e01b8152600401602060405180830381865afa158015613240573d6000803e3d6000fd5b505050506040513d601f19601f82011682018060405250810190613264919061563b565b816020019073ffffffffffffffffffffffffffffffffffffffff16908173ffffffffffffffffffffffffffffffffffffffff16815250508060c0015173ffffffffffffffffffffffffffffffffffffffff1663ba08765285604001518360400151306040518463ffffffff1660e01b81526004016132e4939291906159c9565b6020604051808303816000875af1158015613303573d6000803e3d6000fd5b505050506040513d601f19601f8201168201806040525081019061332791906151d4565b91506000816080015114613721577f000000000000000000000000000000000000000000000000000000000000000073ffffffffffffffffffffffffffffffffffffffff1663e85b2b548560a00151606001516040518263ffffffff1660e01b81526004016133969190614cd8565b602060405180830381865afa1580156133b3573d6000803e3d6000fd5b505050506040513d601f19601f820116820180604052508101906133d7919061563b565b816060019073ffffffffffffffffffffffffffffffffffffffff16908173ffffffffffffffffffffffffffffffffffffffff1681525050806060015173ffffffffffffffffffffffffffffffffffffffff16639bbbb5c88560a001516000015160006040518363ffffffff1660e01b8152600401613456929190615965565b602060405180830381865afa158015613473573d6000803e3d6000fd5b505050506040513d601f19601f8201168201806040525081019061349791906151d4565b8160a0018181525050818160a0015111156134de576040517f235a81fc00000000000000000000000000000000000000000000000000000000815260040160405180910390fd5b46816000019067ffffffffffffffff16908167ffffffffffffffff1681525050806060015173ffffffffffffffffffffffffffffffffffffffff1663c87439eb6040518061012001604052808760a00151600001518152602001846000015167ffffffffffffffff168152602001846000015167ffffffffffffffff1681526020018760a001516080015167ffffffffffffffff1681526020016000151581526020013073ffffffffffffffffffffffffffffffffffffffff1681526020018673ffffffffffffffffffffffffffffffffffffffff1681526020018760a001516020015173ffffffffffffffffffffffffffffffffffffffff168152602001600073ffffffffffffffffffffffffffffffffffffffff168152506040518263ffffffff1660e01b815260040161361491906158f9565b602060405180830381865afa158015613631573d6000803e3d6000fd5b505050506040513d601f19601f8201168201806040525081019061365591906156d3565b506137207f000000000000000000000000000000000000000000000000000000000000000073ffffffffffffffffffffffffffffffffffffffff1663ca7adffb8660a00151606001516040518263ffffffff1660e01b81526004016136ba9190614cd8565b602060405180830381865afa1580156136d7573d6000803e3d6000fd5b505050506040513d601f19601f820116820180604052508101906136fb919061563b565b8560a00151600001518660a00151602001518460a001518860a0015160a00151613f79565b5b5092915050565b6000808460a0015160000151519050600073ffffffffffffffffffffffffffffffffffffffff168560a001516020015173ffffffffffffffffffffffffffffffffffffffff161415801561377c5750600081145b156137b3576040517f478d2a8000000000000000000000000000000000000000000000000000000000815260040160405180910390fd5b6137bb614801565b6137c88660200151612209565b9091509050816000018167ffffffffffffffff1667ffffffffffffffff1681525050600082146137f857306137fa565b845b816020019073ffffffffffffffffffffffffffffffffffffffff16908173ffffffffffffffffffffffffffffffffffffffff16815250506000600160009054906101000a900473ffffffffffffffffffffffffffffffffffffffff1690508073ffffffffffffffffffffffffffffffffffffffff166338d52e0f6040518163ffffffff1660e01b8152600401602060405180830381865afa1580156138a3573d6000803e3d6000fd5b505050506040513d601f19601f820116820180604052508101906138c7919061563b565b826040019073ffffffffffffffffffffffffffffffffffffffff16908173ffffffffffffffffffffffffffffffffffffffff16815250508073ffffffffffffffffffffffffffffffffffffffff1663ba08765288604001518460200151306040518463ffffffff1660e01b8152600401613943939291906159c9565b6020604051808303816000875af1158015613962573d6000803e3d6000fd5b505050506040513d601f19601f8201168201806040525081019061398691906151d4565b935060008314613d54577f000000000000000000000000000000000000000000000000000000000000000073ffffffffffffffffffffffffffffffffffffffff1663e85b2b548860a00151606001516040518263ffffffff1660e01b81526004016139f19190614cd8565b602060405180830381865afa158015613a0e573d6000803e3d6000fd5b505050506040513d601f19601f82011682018060405250810190613a32919061563b565b826060019073ffffffffffffffffffffffffffffffffffffffff16908173ffffffffffffffffffffffffffffffffffffffff1681525050816060015173ffffffffffffffffffffffffffffffffffffffff16639bbbb5c88860a001516000015160006040518363ffffffff1660e01b8152600401613ab1929190615965565b602060405180830381865afa158015613ace573d6000803e3d6000fd5b505050506040513d601f19601f82011682018060405250810190613af291906151d4565b8260c0018181525050838260c001511115613b39576040517f6cbab5a500000000000000000000000000000000000000000000000000000000815260040160405180910390fd5b816060015173ffffffffffffffffffffffffffffffffffffffff1663c87439eb6040518061012001604052808a60a00151600001518152602001856000015167ffffffffffffffff1681526020018867ffffffffffffffff1681526020018a60a001516080015167ffffffffffffffff1681526020016000151581526020013073ffffffffffffffffffffffffffffffffffffffff1681526020018973ffffffffffffffffffffffffffffffffffffffff1681526020018a60a001516020015173ffffffffffffffffffffffffffffffffffffffff168152602001600073ffffffffffffffffffffffffffffffffffffffff168152506040518263ffffffff1660e01b8152600401613c4b91906158f9565b602060405180830381865afa158015613c68573d6000803e3d6000fd5b505050506040513d601f19601f82011682018060405250810190613c8c91906156d3565b50613d537f000000000000000000000000000000000000000000000000000000000000000073ffffffffffffffffffffffffffffffffffffffff1663ca7adffb8960a00151606001516040518263ffffffff1660e01b8152600401613cf19190614cd8565b602060405180830381865afa158015613d0e573d6000803e3d6000fd5b505050506040513d601f19601f82011682018060405250810190613d32919061563b565b8860a00151600001518960a0015160200151878b60a0015160a00151613f79565b5b8660000151826000015167ffffffffffffffff168667ffffffffffffffff167f9664a7293fbeac5e42927bc5eb69c82d1fe2f0b17e510b38ebfba582d47923fe8a60400151600160009054906101000a900473ffffffffffffffffffffffffffffffffffffffff16604051613dca929190615760565b60405180910390a45050509392505050565b613e56838473ffffffffffffffffffffffffffffffffffffffff1663a9059cbb8585604051602401613e0f929190615700565b604051602081830303815290604052915060e01b6020820180517bffffffffffffffffffffffffffffffffffffffffffffffffffffffff83818316178352505050506142bc565b505050565b60008373ffffffffffffffffffffffffffffffffffffffff1663dd62ed3e30856040518363ffffffff1660e01b8152600401613e98929190615789565b602060405180830381865afa158015613eb5573d6000803e3d6000fd5b505050506040513d601f19601f82011682018060405250810190613ed991906151d4565b9050613ef184848484613eec9190615a00565b614353565b50505050565b613f73848573ffffffffffffffffffffffffffffffffffffffff166323b872dd868686604051602401613f2c93929190615729565b604051602081830303815290604052915060e01b6020820180517bffffffffffffffffffffffffffffffffffffffffffffffffffffffff83818316178352505050506142bc565b50505050565b60008203613fb3576040517ff6fa545000000000000000000000000000000000000000000000000000000000815260040160405180910390fd5b600073ffffffffffffffffffffffffffffffffffffffff168573ffffffffffffffffffffffffffffffffffffffff1603614019576040517f538ba4f900000000000000000000000000000000000000000000000000000000815260040160405180910390fd5b73eeeeeeeeeeeeeeeeeeeeeeeeeeeeeeeeeeeeeeee73ffffffffffffffffffffffffffffffffffffffff168373ffffffffffffffffffffffffffffffffffffffff16146140905761408b85838573ffffffffffffffffffffffffffffffffffffffff16613e5b9092919063ffffffff16565b614105565b818110156140ca576040517fe4f2466300000000000000000000000000000000000000000000000000000000815260040160405180910390fd5b47811115614104576040517f50b1f35600000000000000000000000000000000000000000000000000000000815260040160405180910390fd5b5b60008573ffffffffffffffffffffffffffffffffffffffff16828660405161412d9190615a70565b60006040518083038185875af1925050503d806000811461416a576040519150601f19603f3d011682016040523d82523d6000602084013e61416f565b606091505b50509050806141b557836040517f2accaa150000000000000000000000000000000000000000000000000000000081526004016141ac9190614be8565b60405180910390fd5b73eeeeeeeeeeeeeeeeeeeeeeeeeeeeeeeeeeeeeeee73ffffffffffffffffffffffffffffffffffffffff168473ffffffffffffffffffffffffffffffffffffffff16146142b457600084905060008173ffffffffffffffffffffffffffffffffffffffff1663dd62ed3e308a6040518363ffffffff1660e01b815260040161423e929190615789565b602060405180830381865afa15801561425b573d6000803e3d6000fd5b505050506040513d601f19601f8201168201806040525081019061427f91906151d4565b11156142b2576142b18760008373ffffffffffffffffffffffffffffffffffffffff166143539092919063ffffffff16565b5b505b505050505050565b60006142e7828473ffffffffffffffffffffffffffffffffffffffff1661446290919063ffffffff16565b9050600081511415801561430c57508080602001905181019061430a91906156d3565b155b1561434e57826040517f5274afe70000000000000000000000000000000000000000000000000000000081526004016143459190614be8565b60405180910390fd5b505050565b60008373ffffffffffffffffffffffffffffffffffffffff1663095ea7b38484604051602401614384929190615700565b604051602081830303815290604052915060e01b6020820180517bffffffffffffffffffffffffffffffffffffffffffffffffffffffff838183161783525050505090506143d28482614478565b61445c57614451848573ffffffffffffffffffffffffffffffffffffffff1663095ea7b386600060405160240161440a929190615ac2565b604051602081830303815290604052915060e01b6020820180517bffffffffffffffffffffffffffffffffffffffffffffffffffffffff83818316178352505050506142bc565b61445b84826142bc565b5b50505050565b60606144708383600061453f565b905092915050565b60008060008473ffffffffffffffffffffffffffffffffffffffff16846040516144a29190615a70565b6000604051808303816000865af19150503d80600081146144df576040519150601f19603f3d011682016040523d82523d6000602084013e6144e4565b606091505b5091509150818015614512575060008151148061451157508080602001905181019061451091906156d3565b5b5b8015614535575060008573ffffffffffffffffffffffffffffffffffffffff163b115b9250505092915050565b60608147101561458657306040517fcd78605900000000000000000000000000000000000000000000000000000000815260040161457d9190614be8565b60405180910390fd5b6000808573ffffffffffffffffffffffffffffffffffffffff1684866040516145af9190615a70565b60006040518083038185875af1925050503d80600081146145ec576040519150601f19603f3d011682016040523d82523d6000602084013e6145f1565b606091505b509150915061460186838361460c565b925050509392505050565b6060826146215761461c8261469b565b614693565b60008251148015614649575060008473ffffffffffffffffffffffffffffffffffffffff163b145b1561468b57836040517f9996b3150000000000000000000000000000000000000000000000000000000081526004016146829190614be8565b60405180910390fd5b819050614694565b5b9392505050565b6000815111156146ae5780518082602001fd5b6040517f1425ea4200000000000000000000000000000000000000000000000000000000815260040160405180910390fd5b604051806101200160405280600067ffffffffffffffff168152602001600073ffffffffffffffffffffffffffffffffffffffff168152602001600073ffffffffffffffffffffffffffffffffffffffff1681526020016000815260200160008152602001600081526020016000815260200160008152602001606081525090565b6040518060e00160405280600067ffffffffffffffff168152602001600073ffffffffffffffffffffffffffffffffffffffff168152602001600073ffffffffffffffffffffffffffffffffffffffff168152602001600073ffffffffffffffffffffffffffffffffffffffff1681526020016000815260200160008152602001600073ffffffffffffffffffffffffffffffffffffffff1681525090565b6040518060e00160405280600067ffffffffffffffff168152602001600073ffffffffffffffffffffffffffffffffffffffff168152602001600073ffffffffffffffffffffffffffffffffffffffff168152602001600073ffffffffffffffffffffffffffffffffffffffff1681526020016000815260200160008152602001600081525090565b6000604051905090565b600080fd5b600080fd5b60007fffffffff0000000000000000000000000000000000000000000000000000000082169050919050565b6148d38161489e565b81146148de57600080fd5b50565b6000813590506148f0816148ca565b92915050565b60006020828403121561490c5761490b614894565b5b600061491a848285016148e1565b91505092915050565b60008115159050919050565b61493881614923565b82525050565b6000602082019050614953600083018461492f565b92915050565b6000819050919050565b61496c81614959565b811461497757600080fd5b50565b60008135905061498981614963565b92915050565b6000602082840312156149a5576149a4614894565b5b60006149b38482850161497a565b91505092915050565b6149c581614959565b82525050565b60006020820190506149e060008301846149bc565b92915050565b600081519050919050565b600082825260208201905092915050565b60005b83811015614a20578082015181840152602081019050614a05565b60008484015250505050565b6000601f19601f8301169050919050565b6000614a48826149e6565b614a5281856149f1565b9350614a62818560208601614a02565b614a6b81614a2c565b840191505092915050565b60006020820190508181036000830152614a908184614a3d565b905092915050565b600073ffffffffffffffffffffffffffffffffffffffff82169050919050565b6000819050919050565b6000614add614ad8614ad384614a98565b614ab8565b614a98565b9050919050565b6000614aef82614ac2565b9050919050565b6000614b0182614ae4565b9050919050565b614b1181614af6565b82525050565b6000602082019050614b2c6000830184614b08565b92915050565b6000614b3d82614ae4565b9050919050565b614b4d81614b32565b82525050565b6000602082019050614b686000830184614b44565b92915050565b6000614b7982614a98565b9050919050565b614b8981614b6e565b8114614b9457600080fd5b50565b600081359050614ba681614b80565b92915050565b600060208284031215614bc257614bc1614894565b5b6000614bd084828501614b97565b91505092915050565b614be281614b6e565b82525050565b6000602082019050614bfd6000830184614bd9565b92915050565b600063ffffffff82169050919050565b614c1c81614c03565b82525050565b6000602082019050614c376000830184614c13565b92915050565b614c4681614c03565b8114614c5157600080fd5b50565b600081359050614c6381614c3d565b92915050565b600080600060608486031215614c8257614c81614894565b5b6000614c9086828701614b97565b9350506020614ca186828701614b97565b9250506040614cb286828701614c54565b9150509250925092565b600060ff82169050919050565b614cd281614cbc565b82525050565b6000602082019050614ced6000830184614cc9565b92915050565b60008060408385031215614d0a57614d09614894565b5b6000614d1885828601614b97565b9250506020614d298582860161497a565b9150509250929050565b600080fd5b7f4e487b7100000000000000000000000000000000000000000000000000000000600052604160045260246000fd5b614d7082614a2c565b810181811067ffffffffffffffff82111715614d8f57614d8e614d38565b5b80604052505050565b6000614da261488a565b9050614dae8282614d67565b919050565b600080fd5b600080fd5b600080fd5b600067ffffffffffffffff821115614ddd57614ddc614d38565b5b614de682614a2c565b9050602081019050919050565b82818337600083830152505050565b6000614e15614e1084614dc2565b614d98565b905082815260208101848484011115614e3157614e30614dbd565b5b614e3c848285614df3565b509392505050565b600082601f830112614e5957614e58614db8565b5b8135614e69848260208601614e02565b91505092915050565b614e7b81614cbc565b8114614e8657600080fd5b50565b600081359050614e9881614e72565b92915050565b600067ffffffffffffffff82169050919050565b614ebb81614e9e565b8114614ec657600080fd5b50565b600081359050614ed881614eb2565b92915050565b600060c08284031215614ef457614ef3614d33565b5b614efe60c0614d98565b9050600082013567ffffffffffffffff811115614f1e57614f1d614db3565b5b614f2a84828501614e44565b6000830152506020614f3e84828501614b97565b6020830152506040614f5284828501614b97565b6040830152506060614f6684828501614e89565b6060830152506080614f7a84828501614ec9565b60808301525060a0614f8e8482850161497a565b60a08301525092915050565b614fa381614923565b8114614fae57600080fd5b50565b600081359050614fc081614f9a565b92915050565b60006101408284031215614fdd57614fdc614d33565b5b614fe8610140614d98565b90506000614ff88482850161497a565b600083015250602061500c8482850161497a565b60208301525060406150208482850161497a565b60408301525060606150348482850161497a565b60608301525060806150488482850161497a565b60808301525060a082013567ffffffffffffffff81111561506c5761506b614db3565b5b61507884828501614ede565b60a08301525060c061508c84828501614fb1565b60c08301525060e06150a084828501614fb1565b60e0830152506101006150b584828501614b97565b6101008301525061012082013567ffffffffffffffff8111156150db576150da614db3565b5b6150e784828501614e44565b6101208301525092915050565b60008060006060848603121561510d5761510c614894565b5b600084013567ffffffffffffffff81111561512b5761512a614899565b5b61513786828701614fc6565b935050602061514886828701614b97565b925050604061515986828701614ec9565b9150509250925092565b6000806040838503121561517a57615179614894565b5b600083013567ffffffffffffffff81111561519857615197614899565b5b6151a485828601614fc6565b92505060206151b585828601614b97565b9150509250929050565b6000815190506151ce81614963565b92915050565b6000602082840312156151ea576151e9614894565b5b60006151f8848285016151bf565b91505092915050565b600067ffffffffffffffff82111561521c5761521b614d38565b5b61522582614a2c565b9050602081019050919050565b600061524561524084615201565b614d98565b90508281526020810184848401111561526157615260614dbd565b5b61526c848285614a02565b509392505050565b600082601f83011261528957615288614db8565b5b8151615299848260208601615232565b91505092915050565b6000602082840312156152b8576152b7614894565b5b600082015167ffffffffffffffff8111156152d6576152d5614899565b5b6152e284828501615274565b91505092915050565b600081905092915050565b7f5355502d00000000000000000000000000000000000000000000000000000000600082015250565b600061532c6004836152eb565b9150615337826152f6565b600482019050919050565b600061534d826149e6565b61535781856152eb565b9350615367818560208601614a02565b80840191505092915050565b600061537e8261531f565b915061538a8284615342565b915081905092915050565b7f5375706572666f726d2000000000000000000000000000000000000000000000600082015250565b60006153cb600a836152eb565b91506153d682615395565b600a82019050919050565b60006153ec826153be565b91506153f88284615342565b915081905092915050565b60008151905061541281614e72565b92915050565b60006020828403121561542e5761542d614894565b5b600061543c84828501615403565b91505092915050565b7f4e487b7100000000000000000000000000000000000000000000000000000000600052601160045260246000fd5b60008160011c9050919050565b6000808291508390505b60018511156154cb578086048111156154a7576154a6615445565b5b60018516156154b65780820291505b80810290506154c485615474565b945061548b565b94509492505050565b6000826154e457600190506155a0565b816154f257600090506155a0565b8160018114615508576002811461551257615541565b60019150506155a0565b60ff84111561552457615523615445565b5b8360020a91508482111561553b5761553a615445565b5b506155a0565b5060208310610133831016604e8410600b84101617156155765782820a90508381111561557157615570615445565b5b6155a0565b6155838484846001615481565b9250905081840481111561559a57615599615445565b5b81810290505b9392505050565b60006155b282614959565b91506155bd83614959565b92506155ea7fffffffffffffffffffffffffffffffffffffffffffffffffffffffffffffffff84846154d4565b905092915050565b6000819050919050565b615605816155f2565b82525050565b600060208201905061562060008301846155fc565b92915050565b60008151905061563581614b80565b92915050565b60006020828403121561565157615650614894565b5b600061565f84828501615626565b91505092915050565b6000819050919050565b600061568d61568861568384615668565b614ab8565b614e9e565b9050919050565b61569d81615672565b82525050565b60006020820190506156b86000830184615694565b92915050565b6000815190506156cd81614f9a565b92915050565b6000602082840312156156e9576156e8614894565b5b60006156f7848285016156be565b91505092915050565b60006040820190506157156000830185614bd9565b61572260208301846149bc565b9392505050565b600060608201905061573e6000830186614bd9565b61574b6020830185614bd9565b61575860408301846149bc565b949350505050565b600060408201905061577560008301856149bc565b6157826020830184614bd9565b9392505050565b600060408201905061579e6000830185614bd9565b6157ab6020830184614bd9565b9392505050565b600081519050919050565b600082825260208201905092915050565b60006157d9826157b2565b6157e381856157bd565b93506157f3818560208601614a02565b6157fc81614a2c565b840191505092915050565b61581081614e9e565b82525050565b61581f81614923565b82525050565b61582e81614b6e565b82525050565b600061012083016000830151848203600086015261585282826157ce565b91505060208301516158676020860182615807565b50604083015161587a6040860182615807565b50606083015161588d6060860182615807565b5060808301516158a06080860182615816565b5060a08301516158b360a0860182615825565b5060c08301516158c660c0860182615825565b5060e08301516158d960e0860182615825565b506101008301516158ee610100860182615825565b508091505092915050565b600060208201905081810360008301526159138184615834565b905092915050565b600082825260208201905092915050565b6000615937826157b2565b615941818561591b565b9350615951818560208601614a02565b61595a81614a2c565b840191505092915050565b6000604082019050818103600083015261597f818561592c565b905061598e602083018461492f565b9392505050565b60006159a082614959565b91506159ab83614959565b92508282039050818111156159c3576159c2615445565b5b92915050565b60006060820190506159de60008301866149bc565b6159eb6020830185614bd9565b6159f86040830184614bd9565b949350505050565b6000615a0b82614959565b9150615a1683614959565b9250828201905080821115615a2e57615a2d615445565b5b92915050565b600081905092915050565b6000615a4a826157b2565b615a548185615a34565b9350615a64818560208601614a02565b80840191505092915050565b6000615a7c8284615a3f565b915081905092915050565b6000819050919050565b6000615aac615aa7615aa284615a87565b614ab8565b614959565b9050919050565b615abc81615a91565b82525050565b6000604082019050615ad76000830185614bd9565b615ae46020830184615ab3565b939250505056fea264697066735822122087ba0267561936158ec35cf5b5ab6d21653d63a464a89eed919633a1bd7c715364736f6c63430008170033","linkReferences":{}},"methodIdentifiers":{"directDepositIntoVault((uint256,uint256,uint256,uint256,uint256,(bytes,address,address,uint8,uint64,uint256),bool,bool,address,bytes),address)":"b9232775","directWithdrawFromVault((uint256,uint256,uint256,uint256,uint256,(bytes,address,address,uint8,uint64,uint256),bool,bool,address,bytes),address)":"cb829dc3","emergencyQueue()":"31110474","emergencyWithdraw(address,uint256)":"95ccea67","formImplementationId()":"6b2648b7","forwardDustToPaymaster(address)":"4dcd03c0","getPreviewPricePerVaultShare()":"38d92fd5","getPricePerVaultShare()":"ff5f3e48","getStateRegistryId()":"91deb882","getTotalAssets()":"6e07302b","getTotalSupply()":"c4e41b22","getVaultAddress()":"65cacaa4","getVaultAsset()":"b60262ca","getVaultDecimals()":"c32dcd89","getVaultName()":"9f5376c1","getVaultShareBalance()":"35eda680","getVaultSymbol()":"77188067","initialize(address,address,uint32)":"6ecf2b22","previewDepositTo(uint256)":"07c080f9","previewRedeemFrom(uint256)":"b7ba28cd","previewWithdrawFrom(uint256)":"37d25010","superRegistry()":"24c73dda","superformYieldTokenName()":"20592d98","superformYieldTokenSymbol()":"17a57e08","supportsInterface(bytes4)":"01ffc9a7","xChainDepositIntoVault((uint256,uint256,uint256,uint256,uint256,(bytes,address,address,uint8,uint64,uint256),bool,bool,address,bytes),address,uint64)":"95e4f1da","xChainWithdrawFromVault((uint256,uint256,uint256,uint256,uint256,(bytes,address,address,uint8,uint64,uint256),bool,bool,address,bytes),address,uint64)":"ef164fef"},"id":327}