{"abi":[{"type":"constructor","inputs":[{"name":"asset_","type":"address","internalType":"contract ERC20"},{"name":"kycValidity_","type":"address","internalType":"address"}],"stateMutability":"nonpayable"},{"type":"function","name":"DOMAIN_SEPARATOR","inputs":[],"outputs":[{"name":"","type":"bytes32","internalType":"bytes32"}],"stateMutability":"view"},{"type":"function","name":"allowance","inputs":[{"name":"","type":"address","internalType":"address"},{"name":"","type":"address","internalType":"address"}],"outputs":[{"name":"","type":"uint256","internalType":"uint256"}],"stateMutability":"view"},{"type":"function","name":"approve","inputs":[{"name":"spender","type":"address","internalType":"address"},{"name":"amount","type":"uint256","internalType":"uint256"}],"outputs":[{"name":"","type":"bool","internalType":"bool"}],"stateMutability":"nonpayable"},{"type":"function","name":"asset","inputs":[],"outputs":[{"name":"","type":"address","internalType":"contract ERC20"}],"stateMutability":"view"},{"type":"function","name":"balanceOf","inputs":[{"name":"","type":"address","internalType":"address"}],"outputs":[{"name":"","type":"uint256","internalType":"uint256"}],"stateMutability":"view"},{"type":"function","name":"convertToAssets","inputs":[{"name":"shares","type":"uint256","internalType":"uint256"}],"outputs":[{"name":"","type":"uint256","internalType":"uint256"}],"stateMutability":"view"},{"type":"function","name":"convertToShares","inputs":[{"name":"assets","type":"uint256","internalType":"uint256"}],"outputs":[{"name":"","type":"uint256","internalType":"uint256"}],"stateMutability":"view"},{"type":"function","name":"decimals","inputs":[],"outputs":[{"name":"","type":"uint8","internalType":"uint8"}],"stateMutability":"view"},{"type":"function","name":"deposit","inputs":[{"name":"assets_","type":"uint256","internalType":"uint256"},{"name":"receiver_","type":"address","internalType":"address"}],"outputs":[{"name":"shares","type":"uint256","internalType":"uint256"}],"stateMutability":"nonpayable"},{"type":"function","name":"kycCheck","inputs":[{"name":"user_","type":"address","internalType":"address"}],"outputs":[{"name":"","type":"bool","internalType":"bool"}],"stateMutability":"view"},{"type":"function","name":"kycValidity","inputs":[],"outputs":[{"name":"","type":"address","internalType":"contract IKycValidity"}],"stateMutability":"view"},{"type":"function","name":"kycValidityAddress","inputs":[],"outputs":[{"name":"","type":"address","internalType":"address"}],"stateMutability":"view"},{"type":"function","name":"maxDeposit","inputs":[{"name":"","type":"address","internalType":"address"}],"outputs":[{"name":"","type":"uint256","internalType":"uint256"}],"stateMutability":"view"},{"type":"function","name":"maxMint","inputs":[{"name":"","type":"address","internalType":"address"}],"outputs":[{"name":"","type":"uint256","internalType":"uint256"}],"stateMutability":"view"},{"type":"function","name":"maxRedeem","inputs":[{"name":"owner","type":"address","internalType":"address"}],"outputs":[{"name":"","type":"uint256","internalType":"uint256"}],"stateMutability":"view"},{"type":"function","name":"maxWithdraw","inputs":[{"name":"owner","type":"address","internalType":"address"}],"outputs":[{"name":"","type":"uint256","internalType":"uint256"}],"stateMutability":"view"},{"type":"function","name":"mint","inputs":[{"name":"shares_","type":"uint256","internalType":"uint256"},{"name":"receiver_","type":"address","internalType":"address"}],"outputs":[{"name":"assets","type":"uint256","internalType":"uint256"}],"stateMutability":"nonpayable"},{"type":"function","name":"name","inputs":[],"outputs":[{"name":"","type":"string","internalType":"string"}],"stateMutability":"view"},{"type":"function","name":"nonces","inputs":[{"name":"","type":"address","internalType":"address"}],"outputs":[{"name":"","type":"uint256","internalType":"uint256"}],"stateMutability":"view"},{"type":"function","name":"permit","inputs":[{"name":"owner","type":"address","internalType":"address"},{"name":"spender","type":"address","internalType":"address"},{"name":"value","type":"uint256","internalType":"uint256"},{"name":"deadline","type":"uint256","internalType":"uint256"},{"name":"v","type":"uint8","internalType":"uint8"},{"name":"r","type":"bytes32","internalType":"bytes32"},{"name":"s","type":"bytes32","internalType":"bytes32"}],"outputs":[],"stateMutability":"nonpayable"},{"type":"function","name":"previewDeposit","inputs":[{"name":"assets","type":"uint256","internalType":"uint256"}],"outputs":[{"name":"","type":"uint256","internalType":"uint256"}],"stateMutability":"view"},{"type":"function","name":"previewMint","inputs":[{"name":"shares","type":"uint256","internalType":"uint256"}],"outputs":[{"name":"","type":"uint256","internalType":"uint256"}],"stateMutability":"view"},{"type":"function","name":"previewRedeem","inputs":[{"name":"shares","type":"uint256","internalType":"uint256"}],"outputs":[{"name":"","type":"uint256","internalType":"uint256"}],"stateMutability":"view"},{"type":"function","name":"previewWithdraw","inputs":[{"name":"assets","type":"uint256","internalType":"uint256"}],"outputs":[{"name":"","type":"uint256","internalType":"uint256"}],"stateMutability":"view"},{"type":"function","name":"redeem","inputs":[{"name":"","type":"uint256","internalType":"uint256"},{"name":"","type":"address","internalType":"address"},{"name":"","type":"address","internalType":"address"}],"outputs":[{"name":"","type":"uint256","internalType":"uint256"}],"stateMutability":"nonpayable"},{"type":"function","name":"symbol","inputs":[],"outputs":[{"name":"","type":"string","internalType":"string"}],"stateMutability":"view"},{"type":"function","name":"totalAssets","inputs":[],"outputs":[{"name":"","type":"uint256","internalType":"uint256"}],"stateMutability":"view"},{"type":"function","name":"totalSupply","inputs":[],"outputs":[{"name":"","type":"uint256","internalType":"uint256"}],"stateMutability":"view"},{"type":"function","name":"transfer","inputs":[{"name":"to","type":"address","internalType":"address"},{"name":"amount","type":"uint256","internalType":"uint256"}],"outputs":[{"name":"","type":"bool","internalType":"bool"}],"stateMutability":"nonpayable"},{"type":"function","name":"transferFrom","inputs":[{"name":"from","type":"address","internalType":"address"},{"name":"to","type":"address","internalType":"address"},{"name":"amount","type":"uint256","internalType":"uint256"}],"outputs":[{"name":"","type":"bool","internalType":"bool"}],"stateMutability":"nonpayable"},{"type":"function","name":"withdraw","inputs":[{"name":"assets_","type":"uint256","internalType":"uint256"},{"name":"receiver_","type":"address","internalType":"address"},{"name":"owner_","type":"address","internalType":"address"}],"outputs":[{"name":"shares","type":"uint256","internalType":"uint256"}],"stateMutability":"nonpayable"},{"type":"event","name":"Approval","inputs":[{"name":"owner","type":"address","indexed":true,"internalType":"address"},{"name":"spender","type":"address","indexed":true,"internalType":"address"},{"name":"amount","type":"uint256","indexed":false,"internalType":"uint256"}],"anonymous":false},{"type":"event","name":"Deposit","inputs":[{"name":"caller","type":"address","indexed":true,"internalType":"address"},{"name":"owner","type":"address","indexed":true,"internalType":"address"},{"name":"assets","type":"uint256","indexed":false,"internalType":"uint256"},{"name":"shares","type":"uint256","indexed":false,"internalType":"uint256"}],"anonymous":false},{"type":"event","name":"Transfer","inputs":[{"name":"from","type":"address","indexed":true,"internalType":"address"},{"name":"to","type":"address","indexed":true,"internalType":"address"},{"name":"amount","type":"uint256","indexed":false,"internalType":"uint256"}],"anonymous":false},{"type":"event","name":"Withdraw","inputs":[{"name":"caller","type":"address","indexed":true,"internalType":"address"},{"name":"receiver","type":"address","indexed":true,"internalType":"address"},{"name":"owner","type":"address","indexed":true,"internalType":"address"},{"name":"assets","type":"uint256","indexed":false,"internalType":"uint256"},{"name":"shares","type":"uint256","indexed":false,"internalType":"uint256"}],"anonymous":false},{"type":"error","name":"NO_VALID_KYC_TOKEN","inputs":[]},{"type":"error","name":"ZERO_ASSETS","inputs":[]},{"type":"error","name":"ZERO_SHARES","inputs":[]}],"bytecode":{"object":"0x6101006040523480156200001257600080fd5b506040516200358338038062003583833981810160405281019062000038919062000437565b8181816200004c83620001a760201b60201c565b6200005d846200024860201b60201c565b81818473ffffffffffffffffffffffffffffffffffffffff1663313ce5676040518163ffffffff1660e01b8152600401602060405180830381865afa158015620000ab573d6000803e3d6000fd5b505050506040513d601f19601f82011682018060405250810190620000d19190620004bc565b8260009081620000e2919062000768565b508160019081620000f4919062000768565b508060ff1660808160ff16815250504660a081815250506200011b620002e960201b60201c565b60c081815250505050508273ffffffffffffffffffffffffffffffffffffffff1660e08173ffffffffffffffffffffffffffffffffffffffff168152505050505080600660006101000a81548173ffffffffffffffffffffffffffffffffffffffff021916908373ffffffffffffffffffffffffffffffffffffffff1602179055505050505062000c34565b60608173ffffffffffffffffffffffffffffffffffffffff166395d89b416040518163ffffffff1660e01b8152600401600060405180830381865afa158015620001f5573d6000803e3d6000fd5b505050506040513d6000823e3d601f19601f820116820180604052508101906200022091906200099f565b60405160200162000232919062000a58565b6040516020818303038152906040529050919050565b60608173ffffffffffffffffffffffffffffffffffffffff166395d89b416040518163ffffffff1660e01b8152600401600060405180830381865afa15801562000296573d6000803e3d6000fd5b505050506040513d6000823e3d601f19601f82011682018060405250810190620002c191906200099f565b604051602001620002d3919062000aa8565b6040516020818303038152906040529050919050565b60007f8b73c3c69bb8fe3d512ecc4cf759cc79239f7b179b0ffacaa9a75d522b39400f60006040516200031d919062000b81565b60405180910390207fc89efdaa54c0f20c7adf612882df0950f5a951637e0307cdcb4c672f298b8bc646306040516020016200035e95949392919062000bd7565b60405160208183030381529060405280519060200120905090565b6000604051905090565b600080fd5b600080fd5b600073ffffffffffffffffffffffffffffffffffffffff82169050919050565b6000620003ba826200038d565b9050919050565b6000620003ce82620003ad565b9050919050565b620003e081620003c1565b8114620003ec57600080fd5b50565b6000815190506200040081620003d5565b92915050565b6200041181620003ad565b81146200041d57600080fd5b50565b600081519050620004318162000406565b92915050565b6000806040838503121562000451576200045062000383565b5b60006200046185828601620003ef565b9250506020620004748582860162000420565b9150509250929050565b600060ff82169050919050565b62000496816200047e565b8114620004a257600080fd5b50565b600081519050620004b6816200048b565b92915050565b600060208284031215620004d557620004d462000383565b5b6000620004e584828501620004a5565b91505092915050565b600081519050919050565b7f4e487b7100000000000000000000000000000000000000000000000000000000600052604160045260246000fd5b7f4e487b7100000000000000000000000000000000000000000000000000000000600052602260045260246000fd5b600060028204905060018216806200057057607f821691505b60208210810362000586576200058562000528565b5b50919050565b60008190508160005260206000209050919050565b60006020601f8301049050919050565b600082821b905092915050565b600060088302620005f07fffffffffffffffffffffffffffffffffffffffffffffffffffffffffffffffff82620005b1565b620005fc8683620005b1565b95508019841693508086168417925050509392505050565b6000819050919050565b6000819050919050565b600062000649620006436200063d8462000614565b6200061e565b62000614565b9050919050565b6000819050919050565b620006658362000628565b6200067d620006748262000650565b848454620005be565b825550505050565b600090565b6200069462000685565b620006a18184846200065a565b505050565b5b81811015620006c957620006bd6000826200068a565b600181019050620006a7565b5050565b601f8211156200071857620006e2816200058c565b620006ed84620005a1565b81016020851015620006fd578190505b620007156200070c85620005a1565b830182620006a6565b50505b505050565b600082821c905092915050565b60006200073d600019846008026200071d565b1980831691505092915050565b60006200075883836200072a565b9150826002028217905092915050565b6200077382620004ee565b67ffffffffffffffff8111156200078f576200078e620004f9565b5b6200079b825462000557565b620007a8828285620006cd565b600060209050601f831160018114620007e05760008415620007cb578287015190505b620007d785826200074a565b86555062000847565b601f198416620007f0866200058c565b60005b828110156200081a57848901518255600182019150602085019450602081019050620007f3565b868310156200083a578489015162000836601f8916826200072a565b8355505b6001600288020188555050505b505050505050565b600080fd5b600080fd5b6000601f19601f8301169050919050565b620008758262000859565b810181811067ffffffffffffffff82111715620008975762000896620004f9565b5b80604052505050565b6000620008ac62000379565b9050620008ba82826200086a565b919050565b600067ffffffffffffffff821115620008dd57620008dc620004f9565b5b620008e88262000859565b9050602081019050919050565b60005b8381101562000915578082015181840152602081019050620008f8565b60008484015250505050565b6000620009386200093284620008bf565b620008a0565b90508281526020810184848401111562000957576200095662000854565b5b62000964848285620008f5565b509392505050565b600082601f8301126200098457620009836200084f565b5b81516200099684826020860162000921565b91505092915050565b600060208284031215620009b857620009b762000383565b5b600082015167ffffffffffffffff811115620009d957620009d862000388565b5b620009e7848285016200096c565b91505092915050565b7f6b7963455243343632362d000000000000000000000000000000000000000000815250565b600081905092915050565b600062000a2e82620004ee565b62000a3a818562000a16565b935062000a4c818560208601620008f5565b80840191505092915050565b600062000a6582620009f0565b600b8201915062000a77828462000a21565b915081905092915050565b7f6b79630000000000000000000000000000000000000000000000000000000000815250565b600062000ab58262000a82565b60038201915062000ac7828462000a21565b915081905092915050565b600081905092915050565b60008190508160005260206000209050919050565b6000815462000b018162000557565b62000b0d818662000ad2565b9450600182166000811462000b2b576001811462000b415762000b78565b60ff198316865281151582028601935062000b78565b62000b4c8562000add565b60005b8381101562000b705781548189015260018201915060208101905062000b4f565b838801955050505b50505092915050565b600062000b8f828462000af2565b915081905092915050565b6000819050919050565b62000baf8162000b9a565b82525050565b62000bc08162000614565b82525050565b62000bd181620003ad565b82525050565b600060a08201905062000bee600083018862000ba4565b62000bfd602083018762000ba4565b62000c0c604083018662000ba4565b62000c1b606083018562000bb5565b62000c2a608083018462000bc6565b9695505050505050565b60805160a05160c05160e0516128f962000c8a6000396000818161070801528181610c6e01528181610d8001528181610eca015261148b01526000610c4701526000610c1301526000610bed01526128f96000f3fe608060405234801561001057600080fd5b50600436106101e55760003560e01c80637ecebe001161010f578063ba087652116100a2578063d505accf11610071578063d505accf14610658578063d905777e14610674578063dd62ed3e146106a4578063ef8b30f7146106d4576101e5565b8063ba08765214610598578063c63d75b6146105c8578063c6e6f592146105f8578063ce96cb7714610628576101e5565b8063a7ce5c4d116100de578063a7ce5c4d146104ea578063a9059cbb14610508578063b3d7f6b914610538578063b460af9414610568576101e5565b80637ecebe001461043c57806394bf804d1461046c57806395d89b411461049c5780639b0763e8146104ba576101e5565b8063313ce567116101875780634cdad506116101565780634cdad5061461038e5780635a5a0754146103be5780636e553f65146103dc57806370a082311461040c576101e5565b8063313ce567146103045780633644e5151461032257806338d52e0f14610340578063402d267d1461035e576101e5565b8063095ea7b3116101c3578063095ea7b3146102565780630a28a4771461028657806318160ddd146102b657806323b872dd146102d4576101e5565b806301e1d114146101ea57806306fdde031461020857806307a2d13a14610226575b600080fd5b6101f2610704565b6040516101ff9190611d5f565b60405180910390f35b6102106107a5565b60405161021d9190611e0a565b60405180910390f35b610240600480360381019061023b9190611e5d565b610833565b60405161024d9190611d5f565b60405180910390f35b610270600480360381019061026b9190611ee8565b61086e565b60405161027d9190611f43565b60405180910390f35b6102a0600480360381019061029b9190611e5d565b610960565b6040516102ad9190611d5f565b60405180910390f35b6102be61099b565b6040516102cb9190611d5f565b60405180910390f35b6102ee60048036038101906102e99190611f5e565b6109a1565b6040516102fb9190611f43565b60405180910390f35b61030c610beb565b6040516103199190611fcd565b60405180910390f35b61032a610c0f565b6040516103379190612001565b60405180910390f35b610348610c6c565b604051610355919061207b565b60405180910390f35b61037860048036038101906103739190612096565b610c90565b6040516103859190611d5f565b60405180910390f35b6103a860048036038101906103a39190611e5d565b610cba565b6040516103b59190611d5f565b60405180910390f35b6103c6610ccc565b6040516103d391906120e4565b60405180910390f35b6103f660048036038101906103f191906120ff565b610cf2565b6040516104039190611d5f565b60405180910390f35b61042660048036038101906104219190612096565b610e46565b6040516104339190611d5f565b60405180910390f35b61045660048036038101906104519190612096565b610e5e565b6040516104639190611d5f565b60405180910390f35b610486600480360381019061048191906120ff565b610e76565b6040516104939190611d5f565b60405180910390f35b6104a4610f90565b6040516104b19190611e0a565b60405180910390f35b6104d460048036038101906104cf9190612096565b61101e565b6040516104e19190611f43565b60405180910390f35b6104f26110c3565b6040516104ff919061214e565b60405180910390f35b610522600480360381019061051d9190611ee8565b6110ed565b60405161052f9190611f43565b60405180910390f35b610552600480360381019061054d9190611e5d565b611201565b60405161055f9190611d5f565b60405180910390f35b610582600480360381019061057d9190612169565b61123c565b60405161058f9190611d5f565b60405180910390f35b6105b260048036038101906105ad9190612169565b6114d6565b6040516105bf9190611d5f565b60405180910390f35b6105e260048036038101906105dd9190612096565b6114db565b6040516105ef9190611d5f565b60405180910390f35b610612600480360381019061060d9190611e5d565b611505565b60405161061f9190611d5f565b60405180910390f35b610642600480360381019061063d9190612096565b611540565b60405161064f9190611d5f565b60405180910390f35b610672600480360381019061066d9190612214565b611591565b005b61068e60048036038101906106899190612096565b61188a565b60405161069b9190611d5f565b60405180910390f35b6106be60048036038101906106b991906122b6565b6118d3565b6040516106cb9190611d5f565b60405180910390f35b6106ee60048036038101906106e99190611e5d565b6118f8565b6040516106fb9190611d5f565b60405180910390f35b60007f000000000000000000000000000000000000000000000000000000000000000073ffffffffffffffffffffffffffffffffffffffff166370a08231306040518263ffffffff1660e01b815260040161075f919061214e565b602060405180830381865afa15801561077c573d6000803e3d6000fd5b505050506040513d601f19601f820116820180604052508101906107a0919061230b565b905090565b600080546107b290612367565b80601f01602080910402602001604051908101604052809291908181526020018280546107de90612367565b801561082b5780601f106108005761010080835404028352916020019161082b565b820191906000526020600020905b81548152906001019060200180831161080e57829003601f168201915b505050505081565b6000806002549050600081146108645761085f61084e610704565b828561190a9092919063ffffffff16565b610866565b825b915050919050565b600081600460003373ffffffffffffffffffffffffffffffffffffffff1673ffffffffffffffffffffffffffffffffffffffff16815260200190815260200160002060008573ffffffffffffffffffffffffffffffffffffffff1673ffffffffffffffffffffffffffffffffffffffff168152602001908152602001600020819055508273ffffffffffffffffffffffffffffffffffffffff163373ffffffffffffffffffffffffffffffffffffffff167f8c5be1e5ebec7d5bd14f71427d1e84f3dd0314c0f7b2291e5b200ac8c7c3b9258460405161094e9190611d5f565b60405180910390a36001905092915050565b6000806002549050600081146109915761098c8161097c610704565b8561194d9092919063ffffffff16565b610993565b825b915050919050565b60025481565b600080600460008673ffffffffffffffffffffffffffffffffffffffff1673ffffffffffffffffffffffffffffffffffffffff16815260200190815260200160002060003373ffffffffffffffffffffffffffffffffffffffff1673ffffffffffffffffffffffffffffffffffffffff1681526020019081526020016000205490507fffffffffffffffffffffffffffffffffffffffffffffffffffffffffffffffff8114610ad7578281610a5691906123c7565b600460008773ffffffffffffffffffffffffffffffffffffffff1673ffffffffffffffffffffffffffffffffffffffff16815260200190815260200160002060003373ffffffffffffffffffffffffffffffffffffffff1673ffffffffffffffffffffffffffffffffffffffff168152602001908152602001600020819055505b82600360008773ffffffffffffffffffffffffffffffffffffffff1673ffffffffffffffffffffffffffffffffffffffff1681526020019081526020016000206000828254610b2691906123c7565b9250508190555082600360008673ffffffffffffffffffffffffffffffffffffffff1673ffffffffffffffffffffffffffffffffffffffff168152602001908152602001600020600082825401925050819055508373ffffffffffffffffffffffffffffffffffffffff168573ffffffffffffffffffffffffffffffffffffffff167fddf252ad1be2c89b69c2b068fc378daa952ba7f163c4a11628f55a4df523b3ef85604051610bd79190611d5f565b60405180910390a360019150509392505050565b7f000000000000000000000000000000000000000000000000000000000000000081565b60007f00000000000000000000000000000000000000000000000000000000000000004614610c4557610c40611999565b610c67565b7f00000000000000000000000000000000000000000000000000000000000000005b905090565b7f000000000000000000000000000000000000000000000000000000000000000081565b60007fffffffffffffffffffffffffffffffffffffffffffffffffffffffffffffffff9050919050565b6000610cc582610833565b9050919050565b600660009054906101000a900473ffffffffffffffffffffffffffffffffffffffff1681565b6000610cfd3361101e565b610d33576040517fcee39b1b00000000000000000000000000000000000000000000000000000000815260040160405180910390fd5b6000610d3e846118f8565b91508103610d78576040517fff4f15fc00000000000000000000000000000000000000000000000000000000815260040160405180910390fd5b610dc53330857f000000000000000000000000000000000000000000000000000000000000000073ffffffffffffffffffffffffffffffffffffffff16611a25909392919063ffffffff16565b610dcf8282611af0565b8173ffffffffffffffffffffffffffffffffffffffff163373ffffffffffffffffffffffffffffffffffffffff167fdcbc1c05240f31ff3ad067ef1ee35ce4997762752e3a095284754544f4c709d78584604051610e2e9291906123fb565b60405180910390a3610e408382611bc0565b92915050565b60036020528060005260406000206000915090505481565b60056020528060005260406000206000915090505481565b6000610e813361101e565b610eb7576040517fcee39b1b00000000000000000000000000000000000000000000000000000000815260040160405180910390fd5b610ec083611201565b9050610f0f3330837f000000000000000000000000000000000000000000000000000000000000000073ffffffffffffffffffffffffffffffffffffffff16611a25909392919063ffffffff16565b610f198284611af0565b8173ffffffffffffffffffffffffffffffffffffffff163373ffffffffffffffffffffffffffffffffffffffff167fdcbc1c05240f31ff3ad067ef1ee35ce4997762752e3a095284754544f4c709d78386604051610f789291906123fb565b60405180910390a3610f8a8184611bc0565b92915050565b60018054610f9d90612367565b80601f0160208091040260200160405190810160405280929190818152602001828054610fc990612367565b80156110165780601f10610feb57610100808354040283529160200191611016565b820191906000526020600020905b815481529060010190602001808311610ff957829003601f168201915b505050505081565b6000600660009054906101000a900473ffffffffffffffffffffffffffffffffffffffff1673ffffffffffffffffffffffffffffffffffffffff16639d267630836040518263ffffffff1660e01b815260040161107b919061214e565b602060405180830381865afa158015611098573d6000803e3d6000fd5b505050506040513d601f19601f820116820180604052508101906110bc9190612450565b9050919050565b6000600660009054906101000a900473ffffffffffffffffffffffffffffffffffffffff16905090565b600081600360003373ffffffffffffffffffffffffffffffffffffffff1673ffffffffffffffffffffffffffffffffffffffff168152602001908152602001600020600082825461113e91906123c7565b9250508190555081600360008573ffffffffffffffffffffffffffffffffffffffff1673ffffffffffffffffffffffffffffffffffffffff168152602001908152602001600020600082825401925050819055508273ffffffffffffffffffffffffffffffffffffffff163373ffffffffffffffffffffffffffffffffffffffff167fddf252ad1be2c89b69c2b068fc378daa952ba7f163c4a11628f55a4df523b3ef846040516111ef9190611d5f565b60405180910390a36001905092915050565b6000806002549050600081146112325761122d61121c610704565b828561194d9092919063ffffffff16565b611234565b825b915050919050565b60006112473361101e565b61127d576040517fcee39b1b00000000000000000000000000000000000000000000000000000000815260040160405180910390fd5b61128684610960565b90508173ffffffffffffffffffffffffffffffffffffffff163373ffffffffffffffffffffffffffffffffffffffff16146113f2576000600460008473ffffffffffffffffffffffffffffffffffffffff1673ffffffffffffffffffffffffffffffffffffffff16815260200190815260200160002060003373ffffffffffffffffffffffffffffffffffffffff1673ffffffffffffffffffffffffffffffffffffffff1681526020019081526020016000205490507fffffffffffffffffffffffffffffffffffffffffffffffffffffffffffffffff81146113f057818161136f91906123c7565b600460008573ffffffffffffffffffffffffffffffffffffffff1673ffffffffffffffffffffffffffffffffffffffff16815260200190815260200160002060003373ffffffffffffffffffffffffffffffffffffffff1673ffffffffffffffffffffffffffffffffffffffff168152602001908152602001600020819055505b505b6113fc8482611bc4565b6114068282611bc8565b8173ffffffffffffffffffffffffffffffffffffffff168373ffffffffffffffffffffffffffffffffffffffff163373ffffffffffffffffffffffffffffffffffffffff167ffbde797d201c681b91056529119e0b02407c7bb96a4a2c75c01fc9667232c8db878560405161147c9291906123fb565b60405180910390a46114cf83857f000000000000000000000000000000000000000000000000000000000000000073ffffffffffffffffffffffffffffffffffffffff16611c989092919063ffffffff16565b9392505050565b600080fd5b60007fffffffffffffffffffffffffffffffffffffffffffffffffffffffffffffffff9050919050565b6000806002549050600081146115365761153181611521610704565b8561190a9092919063ffffffff16565b611538565b825b915050919050565b600061158a600360008473ffffffffffffffffffffffffffffffffffffffff1673ffffffffffffffffffffffffffffffffffffffff16815260200190815260200160002054610833565b9050919050565b428410156115d4576040517f08c379a00000000000000000000000000000000000000000000000000000000081526004016115cb906124c9565b60405180910390fd5b600060016115e0610c0f565b7f6e71edae12b1b97f4d1f60370fef10105fa2faae0126114a169c64845d6126c98a8a8a600560008f73ffffffffffffffffffffffffffffffffffffffff1673ffffffffffffffffffffffffffffffffffffffff1681526020019081526020016000206000815480929190600101919050558b604051602001611668969594939291906124e9565b6040516020818303038152906040528051906020012060405160200161168f9291906125c2565b60405160208183030381529060405280519060200120858585604051600081526020016040526040516116c594939291906125f9565b6020604051602081039080840390855afa1580156116e7573d6000803e3d6000fd5b505050602060405103519050600073ffffffffffffffffffffffffffffffffffffffff168173ffffffffffffffffffffffffffffffffffffffff161415801561175b57508773ffffffffffffffffffffffffffffffffffffffff168173ffffffffffffffffffffffffffffffffffffffff16145b61179a576040517f08c379a00000000000000000000000000000000000000000000000000000000081526004016117919061268a565b60405180910390fd5b85600460008373ffffffffffffffffffffffffffffffffffffffff1673ffffffffffffffffffffffffffffffffffffffff16815260200190815260200160002060008973ffffffffffffffffffffffffffffffffffffffff1673ffffffffffffffffffffffffffffffffffffffff16815260200190815260200160002081905550508573ffffffffffffffffffffffffffffffffffffffff168773ffffffffffffffffffffffffffffffffffffffff167f8c5be1e5ebec7d5bd14f71427d1e84f3dd0314c0f7b2291e5b200ac8c7c3b925876040516118799190611d5f565b60405180910390a350505050505050565b6000600360008373ffffffffffffffffffffffffffffffffffffffff1673ffffffffffffffffffffffffffffffffffffffff168152602001908152602001600020549050919050565b6004602052816000526040600020602052806000526040600020600091509150505481565b600061190382611505565b9050919050565b6000827fffffffffffffffffffffffffffffffffffffffffffffffffffffffffffffffff048411830215820261193f57600080fd5b818385020490509392505050565b6000827fffffffffffffffffffffffffffffffffffffffffffffffffffffffffffffffff048411830215820261198257600080fd5b818385020460008385870206110190509392505050565b60007f8b73c3c69bb8fe3d512ecc4cf759cc79239f7b179b0ffacaa9a75d522b39400f60006040516119cb919061274d565b60405180910390207fc89efdaa54c0f20c7adf612882df0950f5a951637e0307cdcb4c672f298b8bc64630604051602001611a0a959493929190612764565b60405160208183030381529060405280519060200120905090565b60006040517f23b872dd00000000000000000000000000000000000000000000000000000000815273ffffffffffffffffffffffffffffffffffffffff8516600482015273ffffffffffffffffffffffffffffffffffffffff841660248201528260448201526020600060648360008a5af13d15601f3d1160016000511416171691505080611ae9576040517f08c379a0000000000000000000000000000000000000000000000000000000008152600401611ae090612803565b60405180910390fd5b5050505050565b8060026000828254611b029190612823565b9250508190555080600360008473ffffffffffffffffffffffffffffffffffffffff1673ffffffffffffffffffffffffffffffffffffffff168152602001908152602001600020600082825401925050819055508173ffffffffffffffffffffffffffffffffffffffff16600073ffffffffffffffffffffffffffffffffffffffff167fddf252ad1be2c89b69c2b068fc378daa952ba7f163c4a11628f55a4df523b3ef83604051611bb49190611d5f565b60405180910390a35050565b5050565b5050565b80600360008473ffffffffffffffffffffffffffffffffffffffff1673ffffffffffffffffffffffffffffffffffffffff1681526020019081526020016000206000828254611c1791906123c7565b9250508190555080600260008282540392505081905550600073ffffffffffffffffffffffffffffffffffffffff168273ffffffffffffffffffffffffffffffffffffffff167fddf252ad1be2c89b69c2b068fc378daa952ba7f163c4a11628f55a4df523b3ef83604051611c8c9190611d5f565b60405180910390a35050565b60006040517fa9059cbb00000000000000000000000000000000000000000000000000000000815273ffffffffffffffffffffffffffffffffffffffff84166004820152826024820152602060006044836000895af13d15601f3d1160016000511416171691505080611d40576040517f08c379a0000000000000000000000000000000000000000000000000000000008152600401611d37906128a3565b60405180910390fd5b50505050565b6000819050919050565b611d5981611d46565b82525050565b6000602082019050611d746000830184611d50565b92915050565b600081519050919050565b600082825260208201905092915050565b60005b83811015611db4578082015181840152602081019050611d99565b60008484015250505050565b6000601f19601f8301169050919050565b6000611ddc82611d7a565b611de68185611d85565b9350611df6818560208601611d96565b611dff81611dc0565b840191505092915050565b60006020820190508181036000830152611e248184611dd1565b905092915050565b600080fd5b611e3a81611d46565b8114611e4557600080fd5b50565b600081359050611e5781611e31565b92915050565b600060208284031215611e7357611e72611e2c565b5b6000611e8184828501611e48565b91505092915050565b600073ffffffffffffffffffffffffffffffffffffffff82169050919050565b6000611eb582611e8a565b9050919050565b611ec581611eaa565b8114611ed057600080fd5b50565b600081359050611ee281611ebc565b92915050565b60008060408385031215611eff57611efe611e2c565b5b6000611f0d85828601611ed3565b9250506020611f1e85828601611e48565b9150509250929050565b60008115159050919050565b611f3d81611f28565b82525050565b6000602082019050611f586000830184611f34565b92915050565b600080600060608486031215611f7757611f76611e2c565b5b6000611f8586828701611ed3565b9350506020611f9686828701611ed3565b9250506040611fa786828701611e48565b9150509250925092565b600060ff82169050919050565b611fc781611fb1565b82525050565b6000602082019050611fe26000830184611fbe565b92915050565b6000819050919050565b611ffb81611fe8565b82525050565b60006020820190506120166000830184611ff2565b92915050565b6000819050919050565b600061204161203c61203784611e8a565b61201c565b611e8a565b9050919050565b600061205382612026565b9050919050565b600061206582612048565b9050919050565b6120758161205a565b82525050565b6000602082019050612090600083018461206c565b92915050565b6000602082840312156120ac576120ab611e2c565b5b60006120ba84828501611ed3565b91505092915050565b60006120ce82612048565b9050919050565b6120de816120c3565b82525050565b60006020820190506120f960008301846120d5565b92915050565b6000806040838503121561211657612115611e2c565b5b600061212485828601611e48565b925050602061213585828601611ed3565b9150509250929050565b61214881611eaa565b82525050565b6000602082019050612163600083018461213f565b92915050565b60008060006060848603121561218257612181611e2c565b5b600061219086828701611e48565b93505060206121a186828701611ed3565b92505060406121b286828701611ed3565b9150509250925092565b6121c581611fb1565b81146121d057600080fd5b50565b6000813590506121e2816121bc565b92915050565b6121f181611fe8565b81146121fc57600080fd5b50565b60008135905061220e816121e8565b92915050565b600080600080600080600060e0888a03121561223357612232611e2c565b5b60006122418a828b01611ed3565b97505060206122528a828b01611ed3565b96505060406122638a828b01611e48565b95505060606122748a828b01611e48565b94505060806122858a828b016121d3565b93505060a06122968a828b016121ff565b92505060c06122a78a828b016121ff565b91505092959891949750929550565b600080604083850312156122cd576122cc611e2c565b5b60006122db85828601611ed3565b92505060206122ec85828601611ed3565b9150509250929050565b60008151905061230581611e31565b92915050565b60006020828403121561232157612320611e2c565b5b600061232f848285016122f6565b91505092915050565b7f4e487b7100000000000000000000000000000000000000000000000000000000600052602260045260246000fd5b6000600282049050600182168061237f57607f821691505b60208210810361239257612391612338565b5b50919050565b7f4e487b7100000000000000000000000000000000000000000000000000000000600052601160045260246000fd5b60006123d282611d46565b91506123dd83611d46565b92508282039050818111156123f5576123f4612398565b5b92915050565b60006040820190506124106000830185611d50565b61241d6020830184611d50565b9392505050565b61242d81611f28565b811461243857600080fd5b50565b60008151905061244a81612424565b92915050565b60006020828403121561246657612465611e2c565b5b60006124748482850161243b565b91505092915050565b7f5045524d49545f444541444c494e455f45585049524544000000000000000000600082015250565b60006124b3601783611d85565b91506124be8261247d565b602082019050919050565b600060208201905081810360008301526124e2816124a6565b9050919050565b600060c0820190506124fe6000830189611ff2565b61250b602083018861213f565b612518604083018761213f565b6125256060830186611d50565b6125326080830185611d50565b61253f60a0830184611d50565b979650505050505050565b600081905092915050565b7f1901000000000000000000000000000000000000000000000000000000000000600082015250565b600061258b60028361254a565b915061259682612555565b600282019050919050565b6000819050919050565b6125bc6125b782611fe8565b6125a1565b82525050565b60006125cd8261257e565b91506125d982856125ab565b6020820191506125e982846125ab565b6020820191508190509392505050565b600060808201905061260e6000830187611ff2565b61261b6020830186611fbe565b6126286040830185611ff2565b6126356060830184611ff2565b95945050505050565b7f494e56414c49445f5349474e4552000000000000000000000000000000000000600082015250565b6000612674600e83611d85565b915061267f8261263e565b602082019050919050565b600060208201905081810360008301526126a381612667565b9050919050565b600081905092915050565b60008190508160005260206000209050919050565b600081546126d781612367565b6126e181866126aa565b945060018216600081146126fc576001811461271157612744565b60ff1983168652811515820286019350612744565b61271a856126b5565b60005b8381101561273c5781548189015260018201915060208101905061271d565b838801955050505b50505092915050565b600061275982846126ca565b915081905092915050565b600060a0820190506127796000830188611ff2565b6127866020830187611ff2565b6127936040830186611ff2565b6127a06060830185611d50565b6127ad608083018461213f565b9695505050505050565b7f5452414e534645525f46524f4d5f4641494c4544000000000000000000000000600082015250565b60006127ed601483611d85565b91506127f8826127b7565b602082019050919050565b6000602082019050818103600083015261281c816127e0565b9050919050565b600061282e82611d46565b915061283983611d46565b925082820190508082111561285157612850612398565b5b92915050565b7f5452414e534645525f4641494c45440000000000000000000000000000000000600082015250565b600061288d600f83611d85565b915061289882612857565b602082019050919050565b600060208201905081810360008301526128bc81612880565b905091905056fea26469706673582212201c78ea16572b65eab7e6fd7364f0ceb727e81feda87921d6db915f4fd94fe7df64736f6c63430008170033","linkReferences":{}},"methodIdentifiers":{"DOMAIN_SEPARATOR()":"3644e515","allowance(address,address)":"dd62ed3e","approve(address,uint256)":"095ea7b3","asset()":"38d52e0f","balanceOf(address)":"70a08231","convertToAssets(uint256)":"07a2d13a","convertToShares(uint256)":"c6e6f592","decimals()":"313ce567","deposit(uint256,address)":"6e553f65","kycCheck(address)":"9b0763e8","kycValidity()":"5a5a0754","kycValidityAddress()":"a7ce5c4d","maxDeposit(address)":"402d267d","maxMint(address)":"c63d75b6","maxRedeem(address)":"d905777e","maxWithdraw(address)":"ce96cb77","mint(uint256,address)":"94bf804d","name()":"06fdde03","nonces(address)":"7ecebe00","permit(address,address,uint256,uint256,uint8,bytes32,bytes32)":"d505accf","previewDeposit(uint256)":"ef8b30f7","previewMint(uint256)":"b3d7f6b9","previewRedeem(uint256)":"4cdad506","previewWithdraw(uint256)":"0a28a477","redeem(uint256,address,address)":"ba087652","symbol()":"95d89b41","totalAssets()":"01e1d114","totalSupply()":"18160ddd","transfer(address,uint256)":"a9059cbb","transferFrom(address,address,uint256)":"23b872dd","withdraw(uint256,address,address)":"b460af94"},"id":343}