{"abi":[{"type":"function","name":"startBridgeTokensViaHop","inputs":[{"name":"_bridgeData","type":"tuple","internalType":"struct ILiFi.BridgeData","components":[{"name":"transactionId","type":"bytes32","internalType":"bytes32"},{"name":"bridge","type":"string","internalType":"string"},{"name":"integrator","type":"string","internalType":"string"},{"name":"referrer","type":"address","internalType":"address"},{"name":"sendingAssetId","type":"address","internalType":"address"},{"name":"receiver","type":"address","internalType":"address"},{"name":"minAmount","type":"uint256","internalType":"uint256"},{"name":"destinationChainId","type":"uint256","internalType":"uint256"},{"name":"hasSourceSwaps","type":"bool","internalType":"bool"},{"name":"hasDestinationCall","type":"bool","internalType":"bool"}]},{"name":"_hopData","type":"tuple","internalType":"struct HopFacet.HopData","components":[{"name":"bonderFee","type":"uint256","internalType":"uint256"},{"name":"amountOutMin","type":"uint256","internalType":"uint256"},{"name":"deadline","type":"uint256","internalType":"uint256"},{"name":"destinationAmountOutMin","type":"uint256","internalType":"uint256"},{"name":"destinationDeadline","type":"uint256","internalType":"uint256"},{"name":"relayer","type":"address","internalType":"address"},{"name":"relayerFee","type":"uint256","internalType":"uint256"},{"name":"nativeFee","type":"uint256","internalType":"uint256"}]}],"outputs":[],"stateMutability":"payable"},{"type":"function","name":"swapAndStartBridgeTokensViaHop","inputs":[{"name":"_bridgeData","type":"tuple","internalType":"struct ILiFi.BridgeData","components":[{"name":"transactionId","type":"bytes32","internalType":"bytes32"},{"name":"bridge","type":"string","internalType":"string"},{"name":"integrator","type":"string","internalType":"string"},{"name":"referrer","type":"address","internalType":"address"},{"name":"sendingAssetId","type":"address","internalType":"address"},{"name":"receiver","type":"address","internalType":"address"},{"name":"minAmount","type":"uint256","internalType":"uint256"},{"name":"destinationChainId","type":"uint256","internalType":"uint256"},{"name":"hasSourceSwaps","type":"bool","internalType":"bool"},{"name":"hasDestinationCall","type":"bool","internalType":"bool"}]},{"name":"_swapData","type":"tuple[]","internalType":"struct LibSwap.SwapData[]","components":[{"name":"callTo","type":"address","internalType":"address"},{"name":"approveTo","type":"address","internalType":"address"},{"name":"sendingAssetId","type":"address","internalType":"address"},{"name":"receivingAssetId","type":"address","internalType":"address"},{"name":"fromAmount","type":"uint256","internalType":"uint256"},{"name":"callData","type":"bytes","internalType":"bytes"},{"name":"requiresDeposit","type":"bool","internalType":"bool"}]},{"name":"_hopData","type":"tuple","internalType":"struct HopFacet.HopData","components":[{"name":"bonderFee","type":"uint256","internalType":"uint256"},{"name":"amountOutMin","type":"uint256","internalType":"uint256"},{"name":"deadline","type":"uint256","internalType":"uint256"},{"name":"destinationAmountOutMin","type":"uint256","internalType":"uint256"},{"name":"destinationDeadline","type":"uint256","internalType":"uint256"},{"name":"relayer","type":"address","internalType":"address"},{"name":"relayerFee","type":"uint256","internalType":"uint256"},{"name":"nativeFee","type":"uint256","internalType":"uint256"}]}],"outputs":[],"stateMutability":"payable"}],"bytecode":{"object":"0x608060405234801561001057600080fd5b506105ad806100206000396000f3fe6080604052600436106100295760003560e01c8063a01fe7841461002e578063b3b635871461004a575b600080fd5b61004860048036038101906100439190610489565b610066565b005b610064600480360381019061005f919061051a565b61006c565b005b50505050565b5050565b6000604051905090565b600080fd5b600080fd5b600080fd5b6000601f19601f8301169050919050565b7f4e487b7100000000000000000000000000000000000000000000000000000000600052604160045260246000fd5b6100d282610089565b810181811067ffffffffffffffff821117156100f1576100f061009a565b5b80604052505050565b6000610104610070565b905061011082826100c9565b919050565b600080fd5b6000819050919050565b61012d8161011a565b811461013857600080fd5b50565b60008135905061014a81610124565b92915050565b600080fd5b600080fd5b600067ffffffffffffffff8211156101755761017461009a565b5b61017e82610089565b9050602081019050919050565b82818337600083830152505050565b60006101ad6101a88461015a565b6100fa565b9050828152602081018484840111156101c9576101c8610155565b5b6101d484828561018b565b509392505050565b600082601f8301126101f1576101f0610150565b5b813561020184826020860161019a565b91505092915050565b600073ffffffffffffffffffffffffffffffffffffffff82169050919050565b60006102358261020a565b9050919050565b6102458161022a565b811461025057600080fd5b50565b6000813590506102628161023c565b92915050565b6000819050919050565b61027b81610268565b811461028657600080fd5b50565b60008135905061029881610272565b92915050565b60008115159050919050565b6102b38161029e565b81146102be57600080fd5b50565b6000813590506102d0816102aa565b92915050565b600061014082840312156102ed576102ec610084565b5b6102f86101406100fa565b905060006103088482850161013b565b600083015250602082013567ffffffffffffffff81111561032c5761032b610115565b5b610338848285016101dc565b602083015250604082013567ffffffffffffffff81111561035c5761035b610115565b5b610368848285016101dc565b604083015250606061037c84828501610253565b606083015250608061039084828501610253565b60808301525060a06103a484828501610253565b60a08301525060c06103b884828501610289565b60c08301525060e06103cc84828501610289565b60e0830152506101006103e1848285016102c1565b610100830152506101206103f7848285016102c1565b6101208301525092915050565b600080fd5b600080fd5b60008083601f84011261042457610423610150565b5b8235905067ffffffffffffffff81111561044157610440610404565b5b60208301915083602082028301111561045d5761045c610409565b5b9250929050565b600080fd5b600061010082840312156104805761047f610464565b5b81905092915050565b60008060008061014085870312156104a4576104a361007a565b5b600085013567ffffffffffffffff8111156104c2576104c161007f565b5b6104ce878288016102d6565b945050602085013567ffffffffffffffff8111156104ef576104ee61007f565b5b6104fb8782880161040e565b9350935050604061050e87828801610469565b91505092959194509250565b60008061012083850312156105325761053161007a565b5b600083013567ffffffffffffffff8111156105505761054f61007f565b5b61055c858286016102d6565b925050602061056d85828601610469565b915050925092905056fea26469706673582212207a0504f85b384657c850f4b23ce02dcdbd8f1b7f23c94b996f4b01ff75ca634464736f6c63430008170033","linkReferences":{}},"methodIdentifiers":{"startBridgeTokensViaHop((bytes32,string,string,address,address,address,uint256,uint256,bool,bool),(uint256,uint256,uint256,uint256,uint256,address,uint256,uint256))":"b3b63587","swapAndStartBridgeTokensViaHop((bytes32,string,string,address,address,address,uint256,uint256,bool,bool),(address,address,address,address,uint256,bytes,bool)[],(uint256,uint256,uint256,uint256,uint256,address,uint256,uint256))":"a01fe784"},"id":200}