{"abi":[{"type":"constructor","inputs":[{"name":"superRegistry_","type":"address","internalType":"contract ISuperRegistry"}],"stateMutability":"nonpayable"},{"type":"function","name":"ambChainId","inputs":[{"name":"","type":"uint64","internalType":"uint64"}],"outputs":[{"name":"","type":"uint16","internalType":"uint16"}],"stateMutability":"view"},{"type":"function","name":"dispatchPayload","inputs":[{"name":"srcSender_","type":"address","internalType":"address"},{"name":"dstChainId_","type":"uint64","internalType":"uint64"},{"name":"message_","type":"bytes","internalType":"bytes"},{"name":"extraData_","type":"bytes","internalType":"bytes"}],"outputs":[],"stateMutability":"payable"},{"type":"function","name":"estimateFees","inputs":[{"name":"dstChainId_","type":"uint64","internalType":"uint64"},{"name":"message_","type":"bytes","internalType":"bytes"},{"name":"extraData_","type":"bytes","internalType":"bytes"}],"outputs":[{"name":"fees","type":"uint256","internalType":"uint256"}],"stateMutability":"view"},{"type":"function","name":"failedMessages","inputs":[{"name":"","type":"uint16","internalType":"uint16"},{"name":"","type":"bytes","internalType":"bytes"},{"name":"","type":"uint64","internalType":"uint64"}],"outputs":[{"name":"","type":"bytes32","internalType":"bytes32"}],"stateMutability":"view"},{"type":"function","name":"forceResumeReceive","inputs":[{"name":"srcChainId_","type":"uint16","internalType":"uint16"},{"name":"srcAddress_","type":"bytes","internalType":"bytes"}],"outputs":[],"stateMutability":"nonpayable"},{"type":"function","name":"generateExtraData","inputs":[{"name":"gasLimit","type":"uint256","internalType":"uint256"}],"outputs":[{"name":"extraData","type":"bytes","internalType":"bytes"}],"stateMutability":"pure"},{"type":"function","name":"getConfig","inputs":[{"name":"version_","type":"uint16","internalType":"uint16"},{"name":"chainId_","type":"uint16","internalType":"uint16"},{"name":"","type":"address","internalType":"address"},{"name":"configType_","type":"uint256","internalType":"uint256"}],"outputs":[{"name":"","type":"bytes","internalType":"bytes"}],"stateMutability":"view"},{"type":"function","name":"isTrustedRemote","inputs":[{"name":"srcChainId_","type":"uint16","internalType":"uint16"},{"name":"srcAddress_","type":"bytes","internalType":"bytes"}],"outputs":[{"name":"","type":"bool","internalType":"bool"}],"stateMutability":"view"},{"type":"function","name":"lzEndpoint","inputs":[],"outputs":[{"name":"","type":"address","internalType":"contract ILayerZeroEndpoint"}],"stateMutability":"view"},{"type":"function","name":"lzReceive","inputs":[{"name":"srcChainId_","type":"uint16","internalType":"uint16"},{"name":"srcAddress_","type":"bytes","internalType":"bytes"},{"name":"nonce_","type":"uint64","internalType":"uint64"},{"name":"payload_","type":"bytes","internalType":"bytes"}],"outputs":[],"stateMutability":"nonpayable"},{"type":"function","name":"nonblockingLzReceive","inputs":[{"name":"srcChainId_","type":"uint16","internalType":"uint16"},{"name":"srcAddress_","type":"bytes","internalType":"bytes"},{"name":"payload_","type":"bytes","internalType":"bytes"}],"outputs":[],"stateMutability":"nonpayable"},{"type":"function","name":"retryMessage","inputs":[{"name":"srcChainId_","type":"uint16","internalType":"uint16"},{"name":"srcAddress_","type":"bytes","internalType":"bytes"},{"name":"nonce_","type":"uint64","internalType":"uint64"},{"name":"payload_","type":"bytes","internalType":"bytes"}],"outputs":[],"stateMutability":"payable"},{"type":"function","name":"retryPayload","inputs":[{"name":"data_","type":"bytes","internalType":"bytes"}],"outputs":[],"stateMutability":"payable"},{"type":"function","name":"setChainId","inputs":[{"name":"superChainId_","type":"uint64","internalType":"uint64"},{"name":"ambChainId_","type":"uint16","internalType":"uint16"}],"outputs":[],"stateMutability":"nonpayable"},{"type":"function","name":"setConfig","inputs":[{"name":"version_","type":"uint16","internalType":"uint16"},{"name":"chainId_","type":"uint16","internalType":"uint16"},{"name":"configType_","type":"uint256","internalType":"uint256"},{"name":"config_","type":"bytes","internalType":"bytes"}],"outputs":[],"stateMutability":"nonpayable"},{"type":"function","name":"setLzEndpoint","inputs":[{"name":"endpoint_","type":"address","internalType":"address"}],"outputs":[],"stateMutability":"nonpayable"},{"type":"function","name":"setReceiveVersion","inputs":[{"name":"version_","type":"uint16","internalType":"uint16"}],"outputs":[],"stateMutability":"nonpayable"},{"type":"function","name":"setSendVersion","inputs":[{"name":"version_","type":"uint16","internalType":"uint16"}],"outputs":[],"stateMutability":"nonpayable"},{"type":"function","name":"setTrustedRemote","inputs":[{"name":"srcChainId_","type":"uint16","internalType":"uint16"},{"name":"srcAddress_","type":"bytes","internalType":"bytes"}],"outputs":[],"stateMutability":"nonpayable"},{"type":"function","name":"superChainId","inputs":[{"name":"","type":"uint16","internalType":"uint16"}],"outputs":[{"name":"","type":"uint64","internalType":"uint64"}],"stateMutability":"view"},{"type":"function","name":"superRegistry","inputs":[],"outputs":[{"name":"","type":"address","internalType":"contract ISuperRegistry"}],"stateMutability":"view"},{"type":"function","name":"trustedRemoteLookup","inputs":[{"name":"","type":"uint16","internalType":"uint16"}],"outputs":[{"name":"","type":"bytes","internalType":"bytes"}],"stateMutability":"view"},{"type":"event","name":"AuthorizedImplAdded","inputs":[{"name":"superChainId","type":"uint64","indexed":true,"internalType":"uint64"},{"name":"authImpl","type":"address","indexed":true,"internalType":"address"}],"anonymous":false},{"type":"event","name":"ChainAdded","inputs":[{"name":"superChainId","type":"uint64","indexed":true,"internalType":"uint64"}],"anonymous":false},{"type":"event","name":"EndpointUpdated","inputs":[{"name":"oldEndpoint_","type":"address","indexed":true,"internalType":"address"},{"name":"newEndpoint_","type":"address","indexed":true,"internalType":"address"}],"anonymous":false},{"type":"event","name":"MessageFailed","inputs":[{"name":"srcChainId_","type":"uint16","indexed":true,"internalType":"uint16"},{"name":"srcAddress_","type":"bytes","indexed":false,"internalType":"bytes"},{"name":"nonce_","type":"uint64","indexed":true,"internalType":"uint64"},{"name":"payload_","type":"bytes","indexed":false,"internalType":"bytes"}],"anonymous":false},{"type":"event","name":"SetTrustedRemote","inputs":[{"name":"srcChainId_","type":"uint16","indexed":true,"internalType":"uint16"},{"name":"srcAddress_","type":"bytes","indexed":false,"internalType":"bytes"}],"anonymous":false},{"type":"error","name":"CALLER_NOT_ENDPOINT","inputs":[]},{"type":"error","name":"INVALID_CHAIN_ID","inputs":[]},{"type":"error","name":"INVALID_INTERNAL_CALL","inputs":[]},{"type":"error","name":"INVALID_PAYLOAD_HASH","inputs":[]},{"type":"error","name":"INVALID_SRC_SENDER","inputs":[]},{"type":"error","name":"NOT_EMERGENCY_ADMIN","inputs":[]},{"type":"error","name":"NOT_PROTOCOL_ADMIN","inputs":[]},{"type":"error","name":"NOT_STATE_REGISTRY","inputs":[]},{"type":"error","name":"ZERO_ADDRESS","inputs":[]},{"type":"error","name":"ZERO_PAYLOAD_HASH","inputs":[]}],"bytecode":{"object":"0x60a06040523480156200001157600080fd5b5060405162003a8538038062003a858339818101604052810190620000379190620000f0565b8073ffffffffffffffffffffffffffffffffffffffff1660808173ffffffffffffffffffffffffffffffffffffffff16815250505062000122565b600080fd5b600073ffffffffffffffffffffffffffffffffffffffff82169050919050565b6000620000a48262000077565b9050919050565b6000620000b88262000097565b9050919050565b620000ca81620000ab565b8114620000d657600080fd5b50565b600081519050620000ea81620000bf565b92915050565b60006020828403121562000109576200010862000072565b5b60006200011984828501620000d9565b91505092915050565b6080516139086200017d600039600081816106e001528181610a2101528181610d9701528181610f8e0152818161107401528181611359015281816114db0152818161183001528181611c1a015261202201526139086000f3fe6080604052600436106101345760003560e01c80635b8c41e6116100ab578063d1deba1f1161006f578063d1deba1f14610417578063d9331a1114610433578063ea98b1471461045c578063eb8d72b714610499578063f2d39b60146104c2578063f5ecbdbc146104ff57610134565b80635b8c41e61461032d5780637533d7881461036a5780639783d0ef146103a7578063b353aaa7146103c3578063cbed8b9c146103ee57610134565b806310d06fd4116100fd57806310d06fd41461020d57806310ddb1371461023657806324c73dda1461025f57806325fc6dd01461028a5780633d8b38f6146102c757806342d65a8d1461030457610134565b80621d35671461013957806307e0db171461016257806309bec2c11461018b5780630ebc5f88146101c85780630fbb7cbc146101f1575b600080fd5b34801561014557600080fd5b50610160600480360381019061015b9190612538565b61053c565b005b34801561016e57600080fd5b50610189600480360381019061018491906125d7565b6106de565b005b34801561019757600080fd5b506101b260048036038101906101ad9190612604565b6108d5565b6040516101bf9190612640565b60405180910390f35b3480156101d457600080fd5b506101ef60048036038101906101ea919061265b565b6108f6565b005b61020b600480360381019061020691906126e6565b61096b565b005b34801561021957600080fd5b50610234600480360381019061022f919061272f565b610a1f565b005b34801561024257600080fd5b5061025d600480360381019061025891906125d7565b610d95565b005b34801561026b57600080fd5b50610274610f8c565b60405161028191906127ee565b60405180910390f35b34801561029657600080fd5b506102b160048036038101906102ac919061283f565b610fb0565b6040516102be91906128eb565b60405180910390f35b3480156102d357600080fd5b506102ee60048036038101906102e9919061296d565b610fe1565b6040516102fb91906129e8565b60405180910390f35b34801561031057600080fd5b5061032b6004803603810190610326919061296d565b611072565b005b34801561033957600080fd5b50610354600480360381019061034f9190612a03565b61126f565b6040516103619190612a8b565b60405180910390f35b34801561037657600080fd5b50610391600480360381019061038c91906125d7565b6112b7565b60405161039e91906128eb565b60405180910390f35b6103c160048036038101906103bc9190612ae4565b611357565b005b3480156103cf57600080fd5b506103d86114b5565b6040516103e59190612ba4565b60405180910390f35b3480156103fa57600080fd5b5061041560048036038101906104109190612bbf565b6114d9565b005b610431600480360381019061042c9190612538565b6116dc565b005b34801561043f57600080fd5b5061045a60048036038101906104559190612c47565b61182e565b005b34801561046857600080fd5b50610483600480360381019061047e9190612c74565b611af0565b6040516104909190612d0e565b60405180910390f35b3480156104a557600080fd5b506104c060048036038101906104bb919061296d565b611c18565b005b3480156104ce57600080fd5b506104e960048036038101906104e491906125d7565b611def565b6040516104f69190612d38565b60405180910390f35b34801561050b57600080fd5b5061052660048036038101906105219190612d53565b611e16565b60405161053391906128eb565b60405180910390f35b60008054906101000a900473ffffffffffffffffffffffffffffffffffffffff1673ffffffffffffffffffffffffffffffffffffffff163373ffffffffffffffffffffffffffffffffffffffff16146105c1576040517f785db8f200000000000000000000000000000000000000000000000000000000815260040160405180910390fd5b6000600360008661ffff1661ffff16815260200190815260200160002080546105e990612de9565b80601f016020809104026020016040519081016040528092919081815260200182805461061590612de9565b80156106625780601f1061063757610100808354040283529160200191610662565b820191906000526020600020905b81548152906001019060200180831161064557829003601f168201915b5050505050905080518451148015610687575080805190602001208480519060200120145b801561069557506000815114155b6106cb576040517f1d527bfc00000000000000000000000000000000000000000000000000000000815260040160405180910390fd5b6106d785858585611ec7565b5050505050565b7f000000000000000000000000000000000000000000000000000000000000000073ffffffffffffffffffffffffffffffffffffffff166321f8a7217f6b50fa17b77d24e42e27a04b69fe50cd6967cfb767d18de0bd5fe7e1a32aa8686040518263ffffffff1660e01b81526004016107579190612a8b565b602060405180830381865afa158015610774573d6000803e3d6000fd5b505050506040513d601f19601f820116820180604052508101906107989190612e2f565b73ffffffffffffffffffffffffffffffffffffffff1663d35911f2336040518263ffffffff1660e01b81526004016107d09190612e6b565b602060405180830381865afa1580156107ed573d6000803e3d6000fd5b505050506040513d601f19601f820116820180604052508101906108119190612eb2565b610847576040517fdc85555400000000000000000000000000000000000000000000000000000000815260040160405180910390fd5b60008054906101000a900473ffffffffffffffffffffffffffffffffffffffff1673ffffffffffffffffffffffffffffffffffffffff166307e0db17826040518263ffffffff1660e01b81526004016108a09190612640565b600060405180830381600087803b1580156108ba57600080fd5b505af11580156108ce573d6000803e3d6000fd5b5050505050565b60016020528060005260406000206000915054906101000a900461ffff1681565b3073ffffffffffffffffffffffffffffffffffffffff163373ffffffffffffffffffffffffffffffffffffffff161461095b576040517f6566f0ae00000000000000000000000000000000000000000000000000000000815260040160405180910390fd5b610966838383611ff0565b505050565b6000806000838060200190518101906109849190612f64565b92509250925060008054906101000a900473ffffffffffffffffffffffffffffffffffffffff1673ffffffffffffffffffffffffffffffffffffffff1663aaff5f168484846040518463ffffffff1660e01b81526004016109e793929190612fef565b600060405180830381600087803b158015610a0157600080fd5b505af1158015610a15573d6000803e3d6000fd5b5050505050505050565b7f000000000000000000000000000000000000000000000000000000000000000073ffffffffffffffffffffffffffffffffffffffff166321f8a7217f6b50fa17b77d24e42e27a04b69fe50cd6967cfb767d18de0bd5fe7e1a32aa8686040518263ffffffff1660e01b8152600401610a989190612a8b565b602060405180830381865afa158015610ab5573d6000803e3d6000fd5b505050506040513d601f19601f82011682018060405250810190610ad99190612e2f565b73ffffffffffffffffffffffffffffffffffffffff1663d35911f2336040518263ffffffff1660e01b8152600401610b119190612e6b565b602060405180830381865afa158015610b2e573d6000803e3d6000fd5b505050506040513d601f19601f82011682018060405250810190610b529190612eb2565b610b88576040517fdc85555400000000000000000000000000000000000000000000000000000000815260040160405180910390fd5b60008267ffffffffffffffff161480610ba5575060008161ffff16145b15610bdc576040517f030042b700000000000000000000000000000000000000000000000000000000815260040160405180910390fd5b6000600260008361ffff1661ffff16815260200190815260200160002060009054906101000a900467ffffffffffffffff1690506000600160008567ffffffffffffffff1667ffffffffffffffff16815260200190815260200160002060009054906101000a900461ffff16905060008267ffffffffffffffff1614610c9557600160008367ffffffffffffffff1667ffffffffffffffff16815260200190815260200160002060006101000a81549061ffff02191690555b60008161ffff1614610cd457600260008261ffff1661ffff16815260200190815260200160002060006101000a81549067ffffffffffffffff02191690555b82600160008667ffffffffffffffff1667ffffffffffffffff16815260200190815260200160002060006101000a81548161ffff021916908361ffff16021790555083600260008561ffff1661ffff16815260200190815260200160002060006101000a81548167ffffffffffffffff021916908367ffffffffffffffff1602179055508367ffffffffffffffff167ff9506a27dd49e1563cbf7882f3e8dfb3c25fa4a4d610e8f4b0a30a145b4f685e60405160405180910390a250505050565b7f000000000000000000000000000000000000000000000000000000000000000073ffffffffffffffffffffffffffffffffffffffff166321f8a7217f6b50fa17b77d24e42e27a04b69fe50cd6967cfb767d18de0bd5fe7e1a32aa8686040518263ffffffff1660e01b8152600401610e0e9190612a8b565b602060405180830381865afa158015610e2b573d6000803e3d6000fd5b505050506040513d601f19601f82011682018060405250810190610e4f9190612e2f565b73ffffffffffffffffffffffffffffffffffffffff1663d35911f2336040518263ffffffff1660e01b8152600401610e879190612e6b565b602060405180830381865afa158015610ea4573d6000803e3d6000fd5b505050506040513d601f19601f82011682018060405250810190610ec89190612eb2565b610efe576040517fdc85555400000000000000000000000000000000000000000000000000000000815260040160405180910390fd5b60008054906101000a900473ffffffffffffffffffffffffffffffffffffffff1673ffffffffffffffffffffffffffffffffffffffff166310ddb137826040518263ffffffff1660e01b8152600401610f579190612640565b600060405180830381600087803b158015610f7157600080fd5b505af1158015610f85573d6000803e3d6000fd5b5050505050565b7f000000000000000000000000000000000000000000000000000000000000000081565b6060600282600080604051602001610fcb94939291906130d3565b6040516020818303038152906040529050919050565b6000808461ffff1603611020576040517f030042b700000000000000000000000000000000000000000000000000000000815260040160405180910390fd5b8282604051611030929190613151565b6040518091039020600360008661ffff1661ffff1681526020019081526020016000206040516110609190613202565b60405180910390201490509392505050565b7f000000000000000000000000000000000000000000000000000000000000000073ffffffffffffffffffffffffffffffffffffffff166321f8a7217f6b50fa17b77d24e42e27a04b69fe50cd6967cfb767d18de0bd5fe7e1a32aa8686040518263ffffffff1660e01b81526004016110eb9190612a8b565b602060405180830381865afa158015611108573d6000803e3d6000fd5b505050506040513d601f19601f8201168201806040525081019061112c9190612e2f565b73ffffffffffffffffffffffffffffffffffffffff16632f41ca96336040518263ffffffff1660e01b81526004016111649190612e6b565b602060405180830381865afa158015611181573d6000803e3d6000fd5b505050506040513d601f19601f820116820180604052508101906111a59190612eb2565b6111db576040517f445b0c3a00000000000000000000000000000000000000000000000000000000815260040160405180910390fd5b60008054906101000a900473ffffffffffffffffffffffffffffffffffffffff1673ffffffffffffffffffffffffffffffffffffffff166342d65a8d8484846040518463ffffffff1660e01b815260040161123893929190613246565b600060405180830381600087803b15801561125257600080fd5b505af1158015611266573d6000803e3d6000fd5b50505050505050565b60046020528260005260406000208280516020810182018051848252602083016020850120818352809550505050505060205280600052604060002060009250925050505481565b600360205280600052604060002060009150905080546112d690612de9565b80601f016020809104026020016040519081016040528092919081815260200182805461130290612de9565b801561134f5780601f106113245761010080835404028352916020019161134f565b820191906000526020600020905b81548152906001019060200180831161133257829003601f168201915b505050505081565b7f000000000000000000000000000000000000000000000000000000000000000073ffffffffffffffffffffffffffffffffffffffff1663eeaf54aa336040518263ffffffff1660e01b81526004016113b09190612e6b565b602060405180830381865afa1580156113cd573d6000803e3d6000fd5b505050506040513d601f19601f820116820180604052508101906113f19190612eb2565b611427576040517f60e6a64e00000000000000000000000000000000000000000000000000000000815260040160405180910390fd5b6000600160008567ffffffffffffffff1667ffffffffffffffff16815260200190815260200160002060009054906101000a900461ffff16905060008161ffff160361149f576040517f030042b700000000000000000000000000000000000000000000000000000000815260040160405180910390fd5b6114ae818487600086346121aa565b5050505050565b60008054906101000a900473ffffffffffffffffffffffffffffffffffffffff1681565b7f000000000000000000000000000000000000000000000000000000000000000073ffffffffffffffffffffffffffffffffffffffff166321f8a7217f6b50fa17b77d24e42e27a04b69fe50cd6967cfb767d18de0bd5fe7e1a32aa8686040518263ffffffff1660e01b81526004016115529190612a8b565b602060405180830381865afa15801561156f573d6000803e3d6000fd5b505050506040513d601f19601f820116820180604052508101906115939190612e2f565b73ffffffffffffffffffffffffffffffffffffffff1663d35911f2336040518263ffffffff1660e01b81526004016115cb9190612e6b565b602060405180830381865afa1580156115e8573d6000803e3d6000fd5b505050506040513d601f19601f8201168201806040525081019061160c9190612eb2565b611642576040517fdc85555400000000000000000000000000000000000000000000000000000000815260040160405180910390fd5b60008054906101000a900473ffffffffffffffffffffffffffffffffffffffff1673ffffffffffffffffffffffffffffffffffffffff1663cbed8b9c86868686866040518663ffffffff1660e01b81526004016116a3959493929190613278565b600060405180830381600087803b1580156116bd57600080fd5b505af11580156116d1573d6000803e3d6000fd5b505050505050505050565b6000600460008661ffff1661ffff1681526020019081526020016000208460405161170791906132f7565b908152602001604051809103902060008467ffffffffffffffff1667ffffffffffffffff1681526020019081526020016000205490506000801b8103611779576040517f44df9d0400000000000000000000000000000000000000000000000000000000815260040160405180910390fd5b808280519060200120146117b8576040517e132bbd00000000000000000000000000000000000000000000000000000000815260040160405180910390fd5b6000801b600460008761ffff1661ffff168152602001908152602001600020856040516117e591906132f7565b908152602001604051809103902060008567ffffffffffffffff1667ffffffffffffffff16815260200190815260200160002081905550611827858584611ff0565b5050505050565b7f000000000000000000000000000000000000000000000000000000000000000073ffffffffffffffffffffffffffffffffffffffff166321f8a7217f6b50fa17b77d24e42e27a04b69fe50cd6967cfb767d18de0bd5fe7e1a32aa8686040518263ffffffff1660e01b81526004016118a79190612a8b565b602060405180830381865afa1580156118c4573d6000803e3d6000fd5b505050506040513d601f19601f820116820180604052508101906118e89190612e2f565b73ffffffffffffffffffffffffffffffffffffffff1663d35911f2336040518263ffffffff1660e01b81526004016119209190612e6b565b602060405180830381865afa15801561193d573d6000803e3d6000fd5b505050506040513d601f19601f820116820180604052508101906119619190612eb2565b611997576040517fdc85555400000000000000000000000000000000000000000000000000000000815260040160405180910390fd5b600073ffffffffffffffffffffffffffffffffffffffff168173ffffffffffffffffffffffffffffffffffffffff16036119fd576040517f538ba4f900000000000000000000000000000000000000000000000000000000815260040160405180910390fd5b600073ffffffffffffffffffffffffffffffffffffffff1660008054906101000a900473ffffffffffffffffffffffffffffffffffffffff1673ffffffffffffffffffffffffffffffffffffffff1603611aed57806000806101000a81548173ffffffffffffffffffffffffffffffffffffffff021916908373ffffffffffffffffffffffffffffffffffffffff1602179055508073ffffffffffffffffffffffffffffffffffffffff16600073ffffffffffffffffffffffffffffffffffffffff167f241827194635b544bceb965d0e124305c0968051403ae83cb99d1ef86bd65f5860405160405180910390a35b50565b600080600160008667ffffffffffffffff1667ffffffffffffffff16815260200190815260200160002060009054906101000a900461ffff16905060008161ffff1603611b69576040517f030042b700000000000000000000000000000000000000000000000000000000815260040160405180910390fd5b60008054906101000a900473ffffffffffffffffffffffffffffffffffffffff1673ffffffffffffffffffffffffffffffffffffffff166340a7bb108230876000886040518663ffffffff1660e01b8152600401611bcb95949392919061330e565b6040805180830381865afa158015611be7573d6000803e3d6000fd5b505050506040513d601f19601f82011682018060405250810190611c0b9190613384565b5080925050509392505050565b7f000000000000000000000000000000000000000000000000000000000000000073ffffffffffffffffffffffffffffffffffffffff166321f8a7217f6b50fa17b77d24e42e27a04b69fe50cd6967cfb767d18de0bd5fe7e1a32aa8686040518263ffffffff1660e01b8152600401611c919190612a8b565b602060405180830381865afa158015611cae573d6000803e3d6000fd5b505050506040513d601f19601f82011682018060405250810190611cd29190612e2f565b73ffffffffffffffffffffffffffffffffffffffff1663d35911f2336040518263ffffffff1660e01b8152600401611d0a9190612e6b565b602060405180830381865afa158015611d27573d6000803e3d6000fd5b505050506040513d601f19601f82011682018060405250810190611d4b9190612eb2565b611d81576040517fdc85555400000000000000000000000000000000000000000000000000000000815260040160405180910390fd5b8181600360008661ffff1661ffff1681526020019081526020016000209182611dab92919061355c565b508261ffff167ffa41487ad5d6728f0b19276fa1eddc16558578f5109fc39d2dc33c3230470dab8383604051611de292919061362c565b60405180910390a2505050565b60026020528060005260406000206000915054906101000a900467ffffffffffffffff1681565b606060008054906101000a900473ffffffffffffffffffffffffffffffffffffffff1673ffffffffffffffffffffffffffffffffffffffff1663f5ecbdbc868630866040518563ffffffff1660e01b8152600401611e779493929190613650565b600060405180830381865afa158015611e94573d6000803e3d6000fd5b505050506040513d6000823e3d601f19601f82011682018060405250810190611ebd9190613695565b9050949350505050565b3073ffffffffffffffffffffffffffffffffffffffff16630ebc5f888585846040518463ffffffff1660e01b8152600401611f0493929190612fef565b600060405180830381600087803b158015611f1e57600080fd5b505af1925050508015611f2f575060015b611fe9578080519060200120600460008661ffff1661ffff16815260200190815260200160002084604051611f6491906132f7565b908152602001604051809103902060008467ffffffffffffffff1667ffffffffffffffff168152602001908152602001600020819055508167ffffffffffffffff168461ffff167fe6f254030bcb01ffd20558175c13fcaed6d1520be7becee4c961b65f79243b0d8584604051611fdc9291906136de565b60405180910390a3611fea565b5b50505050565b600081806020019051810190612006919061378b565b90506000612017826000015161232c565b5050935050505060007f000000000000000000000000000000000000000000000000000000000000000073ffffffffffffffffffffffffffffffffffffffff166357203ab4836040518263ffffffff1660e01b815260040161207991906137f0565b602060405180830381865afa158015612096573d6000803e3d6000fd5b505050506040513d601f19601f820116820180604052508101906120ba9190612e2f565b90506000600260008861ffff1661ffff16815260200190815260200160002060009054906101000a900467ffffffffffffffff16905060008167ffffffffffffffff1603612134576040517f030042b700000000000000000000000000000000000000000000000000000000815260040160405180910390fd5b8173ffffffffffffffffffffffffffffffffffffffff1663cc2d8abd82876040518363ffffffff1660e01b815260040161216f92919061380b565b600060405180830381600087803b15801561218957600080fd5b505af115801561219d573d6000803e3d6000fd5b5050505050505050505050565b6000600360008861ffff1661ffff16815260200190815260200160002080546121d290612de9565b80601f01602080910402602001604051908101604052809291908181526020018280546121fe90612de9565b801561224b5780601f106122205761010080835404028352916020019161224b565b820191906000526020600020905b81548152906001019060200180831161222e57829003601f168201915b50505050509050600081510361228d576040517f030042b700000000000000000000000000000000000000000000000000000000815260040160405180910390fd5b60008054906101000a900473ffffffffffffffffffffffffffffffffffffffff1673ffffffffffffffffffffffffffffffffffffffff1663c58031008389848a8a8a8a6040518863ffffffff1660e01b81526004016122f19695949392919061385c565b6000604051808303818588803b15801561230a57600080fd5b505af115801561231e573d6000803e3d6000fd5b505050505050505050505050565b600080600080600080869550600887901c9450601087901c9350601887901c9250602087901c915060c087901c905091939550919395565b6000604051905090565b600080fd5b600080fd5b600061ffff82169050919050565b61238f81612378565b811461239a57600080fd5b50565b6000813590506123ac81612386565b92915050565b600080fd5b600080fd5b6000601f19601f8301169050919050565b7f4e487b7100000000000000000000000000000000000000000000000000000000600052604160045260246000fd5b612405826123bc565b810181811067ffffffffffffffff82111715612424576124236123cd565b5b80604052505050565b6000612437612364565b905061244382826123fc565b919050565b600067ffffffffffffffff821115612463576124626123cd565b5b61246c826123bc565b9050602081019050919050565b82818337600083830152505050565b600061249b61249684612448565b61242d565b9050828152602081018484840111156124b7576124b66123b7565b5b6124c2848285612479565b509392505050565b600082601f8301126124df576124de6123b2565b5b81356124ef848260208601612488565b91505092915050565b600067ffffffffffffffff82169050919050565b612515816124f8565b811461252057600080fd5b50565b6000813590506125328161250c565b92915050565b600080600080608085870312156125525761255161236e565b5b60006125608782880161239d565b945050602085013567ffffffffffffffff81111561258157612580612373565b5b61258d878288016124ca565b935050604061259e87828801612523565b925050606085013567ffffffffffffffff8111156125bf576125be612373565b5b6125cb878288016124ca565b91505092959194509250565b6000602082840312156125ed576125ec61236e565b5b60006125fb8482850161239d565b91505092915050565b60006020828403121561261a5761261961236e565b5b600061262884828501612523565b91505092915050565b61263a81612378565b82525050565b60006020820190506126556000830184612631565b92915050565b6000806000606084860312156126745761267361236e565b5b60006126828682870161239d565b935050602084013567ffffffffffffffff8111156126a3576126a2612373565b5b6126af868287016124ca565b925050604084013567ffffffffffffffff8111156126d0576126cf612373565b5b6126dc868287016124ca565b9150509250925092565b6000602082840312156126fc576126fb61236e565b5b600082013567ffffffffffffffff81111561271a57612719612373565b5b612726848285016124ca565b91505092915050565b600080604083850312156127465761274561236e565b5b600061275485828601612523565b92505060206127658582860161239d565b9150509250929050565b600073ffffffffffffffffffffffffffffffffffffffff82169050919050565b6000819050919050565b60006127b46127af6127aa8461276f565b61278f565b61276f565b9050919050565b60006127c682612799565b9050919050565b60006127d8826127bb565b9050919050565b6127e8816127cd565b82525050565b600060208201905061280360008301846127df565b92915050565b6000819050919050565b61281c81612809565b811461282757600080fd5b50565b60008135905061283981612813565b92915050565b6000602082840312156128555761285461236e565b5b60006128638482850161282a565b91505092915050565b600081519050919050565b600082825260208201905092915050565b60005b838110156128a657808201518184015260208101905061288b565b60008484015250505050565b60006128bd8261286c565b6128c78185612877565b93506128d7818560208601612888565b6128e0816123bc565b840191505092915050565b6000602082019050818103600083015261290581846128b2565b905092915050565b600080fd5b600080fd5b60008083601f84011261292d5761292c6123b2565b5b8235905067ffffffffffffffff81111561294a5761294961290d565b5b60208301915083600182028301111561296657612965612912565b5b9250929050565b6000806000604084860312156129865761298561236e565b5b60006129948682870161239d565b935050602084013567ffffffffffffffff8111156129b5576129b4612373565b5b6129c186828701612917565b92509250509250925092565b60008115159050919050565b6129e2816129cd565b82525050565b60006020820190506129fd60008301846129d9565b92915050565b600080600060608486031215612a1c57612a1b61236e565b5b6000612a2a8682870161239d565b935050602084013567ffffffffffffffff811115612a4b57612a4a612373565b5b612a57868287016124ca565b9250506040612a6886828701612523565b9150509250925092565b6000819050919050565b612a8581612a72565b82525050565b6000602082019050612aa06000830184612a7c565b92915050565b6000612ab18261276f565b9050919050565b612ac181612aa6565b8114612acc57600080fd5b50565b600081359050612ade81612ab8565b92915050565b60008060008060808587031215612afe57612afd61236e565b5b6000612b0c87828801612acf565b9450506020612b1d87828801612523565b935050604085013567ffffffffffffffff811115612b3e57612b3d612373565b5b612b4a878288016124ca565b925050606085013567ffffffffffffffff811115612b6b57612b6a612373565b5b612b77878288016124ca565b91505092959194509250565b6000612b8e826127bb565b9050919050565b612b9e81612b83565b82525050565b6000602082019050612bb96000830184612b95565b92915050565b600080600080600060808688031215612bdb57612bda61236e565b5b6000612be98882890161239d565b9550506020612bfa8882890161239d565b9450506040612c0b8882890161282a565b935050606086013567ffffffffffffffff811115612c2c57612c2b612373565b5b612c3888828901612917565b92509250509295509295909350565b600060208284031215612c5d57612c5c61236e565b5b6000612c6b84828501612acf565b91505092915050565b600080600060608486031215612c8d57612c8c61236e565b5b6000612c9b86828701612523565b935050602084013567ffffffffffffffff811115612cbc57612cbb612373565b5b612cc8868287016124ca565b925050604084013567ffffffffffffffff811115612ce957612ce8612373565b5b612cf5868287016124ca565b9150509250925092565b612d0881612809565b82525050565b6000602082019050612d236000830184612cff565b92915050565b612d32816124f8565b82525050565b6000602082019050612d4d6000830184612d29565b92915050565b60008060008060808587031215612d6d57612d6c61236e565b5b6000612d7b8782880161239d565b9450506020612d8c8782880161239d565b9350506040612d9d87828801612acf565b9250506060612dae8782880161282a565b91505092959194509250565b7f4e487b7100000000000000000000000000000000000000000000000000000000600052602260045260246000fd5b60006002820490506001821680612e0157607f821691505b602082108103612e1457612e13612dba565b5b50919050565b600081519050612e2981612ab8565b92915050565b600060208284031215612e4557612e4461236e565b5b6000612e5384828501612e1a565b91505092915050565b612e6581612aa6565b82525050565b6000602082019050612e806000830184612e5c565b92915050565b612e8f816129cd565b8114612e9a57600080fd5b50565b600081519050612eac81612e86565b92915050565b600060208284031215612ec857612ec761236e565b5b6000612ed684828501612e9d565b91505092915050565b600081519050612eee81612386565b92915050565b6000612f07612f0284612448565b61242d565b905082815260208101848484011115612f2357612f226123b7565b5b612f2e848285612888565b509392505050565b600082601f830112612f4b57612f4a6123b2565b5b8151612f5b848260208601612ef4565b91505092915050565b600080600060608486031215612f7d57612f7c61236e565b5b6000612f8b86828701612edf565b935050602084015167ffffffffffffffff811115612fac57612fab612373565b5b612fb886828701612f36565b925050604084015167ffffffffffffffff811115612fd957612fd8612373565b5b612fe586828701612f36565b9150509250925092565b60006060820190506130046000830186612631565b818103602083015261301681856128b2565b9050818103604083015261302a81846128b2565b9050949350505050565b60008160f01b9050919050565b600061304c82613034565b9050919050565b61306461305f82612378565b613041565b82525050565b6000819050919050565b61308561308082612809565b61306a565b82525050565b60008160601b9050919050565b60006130a38261308b565b9050919050565b60006130b582613098565b9050919050565b6130cd6130c882612aa6565b6130aa565b82525050565b60006130df8287613053565b6002820191506130ef8286613074565b6020820191506130ff8285613074565b60208201915061310f82846130bc565b60148201915081905095945050505050565b600081905092915050565b60006131388385613121565b9350613145838584612479565b82840190509392505050565b600061315e82848661312c565b91508190509392505050565b60008190508160005260206000209050919050565b6000815461318c81612de9565b6131968186613121565b945060018216600081146131b157600181146131c6576131f9565b60ff19831686528115158202860193506131f9565b6131cf8561316a565b60005b838110156131f1578154818901526001820191506020810190506131d2565b838801955050505b50505092915050565b600061320e828461317f565b915081905092915050565b60006132258385612877565b9350613232838584612479565b61323b836123bc565b840190509392505050565b600060408201905061325b6000830186612631565b818103602083015261326e818486613219565b9050949350505050565b600060808201905061328d6000830188612631565b61329a6020830187612631565b6132a76040830186612cff565b81810360608301526132ba818486613219565b90509695505050505050565b60006132d18261286c565b6132db8185613121565b93506132eb818560208601612888565b80840191505092915050565b600061330382846132c6565b915081905092915050565b600060a0820190506133236000830188612631565b6133306020830187612e5c565b818103604083015261334281866128b2565b905061335160608301856129d9565b818103608083015261336381846128b2565b90509695505050505050565b60008151905061337e81612813565b92915050565b6000806040838503121561339b5761339a61236e565b5b60006133a98582860161336f565b92505060206133ba8582860161336f565b9150509250929050565b600082905092915050565b60006020601f8301049050919050565b600082821b905092915050565b60006008830261341c7fffffffffffffffffffffffffffffffffffffffffffffffffffffffffffffffff826133df565b61342686836133df565b95508019841693508086168417925050509392505050565b600061345961345461344f84612809565b61278f565b612809565b9050919050565b6000819050919050565b6134738361343e565b61348761347f82613460565b8484546133ec565b825550505050565b600090565b61349c61348f565b6134a781848461346a565b505050565b5b818110156134cb576134c0600082613494565b6001810190506134ad565b5050565b601f821115613510576134e18161316a565b6134ea846133cf565b810160208510156134f9578190505b61350d613505856133cf565b8301826134ac565b50505b505050565b600082821c905092915050565b600061353360001984600802613515565b1980831691505092915050565b600061354c8383613522565b9150826002028217905092915050565b61356683836133c4565b67ffffffffffffffff81111561357f5761357e6123cd565b5b6135898254612de9565b6135948282856134cf565b6000601f8311600181146135c357600084156135b1578287013590505b6135bb8582613540565b865550613623565b601f1984166135d18661316a565b60005b828110156135f9578489013582556001820191506020850194506020810190506135d4565b868310156136165784890135613612601f891682613522565b8355505b6001600288020188555050505b50505050505050565b60006020820190508181036000830152613647818486613219565b90509392505050565b60006080820190506136656000830187612631565b6136726020830186612631565b61367f6040830185612e5c565b61368c6060830184612cff565b95945050505050565b6000602082840312156136ab576136aa61236e565b5b600082015167ffffffffffffffff8111156136c9576136c8612373565b5b6136d584828501612f36565b91505092915050565b600060408201905081810360008301526136f881856128b2565b9050818103602083015261370c81846128b2565b90509392505050565b600080fd5b600080fd5b60006040828403121561373557613734613715565b5b61373f604061242d565b9050600061374f8482850161336f565b600083015250602082015167ffffffffffffffff8111156137735761377261371a565b5b61377f84828501612f36565b60208301525092915050565b6000602082840312156137a1576137a061236e565b5b600082015167ffffffffffffffff8111156137bf576137be612373565b5b6137cb8482850161371f565b91505092915050565b600060ff82169050919050565b6137ea816137d4565b82525050565b600060208201905061380560008301846137e1565b92915050565b60006040820190506138206000830185612d29565b818103602083015261383281846128b2565b90509392505050565b60006138468261276f565b9050919050565b6138568161383b565b82525050565b600060c0820190506138716000830189612631565b818103602083015261388381886128b2565b9050818103604083015261389781876128b2565b90506138a6606083018661384d565b6138b36080830185612e5c565b81810360a08301526138c581846128b2565b905097965050505050505056fea2646970667358221220f04245ad306220531af640b87f0dbff9dc3d2616a27f8f80475c93a1db4d574d64736f6c63430008170033","linkReferences":{}},"methodIdentifiers":{"ambChainId(uint64)":"09bec2c1","dispatchPayload(address,uint64,bytes,bytes)":"9783d0ef","estimateFees(uint64,bytes,bytes)":"ea98b147","failedMessages(uint16,bytes,uint64)":"5b8c41e6","forceResumeReceive(uint16,bytes)":"42d65a8d","generateExtraData(uint256)":"25fc6dd0","getConfig(uint16,uint16,address,uint256)":"f5ecbdbc","isTrustedRemote(uint16,bytes)":"3d8b38f6","lzEndpoint()":"b353aaa7","lzReceive(uint16,bytes,uint64,bytes)":"001d3567","nonblockingLzReceive(uint16,bytes,bytes)":"0ebc5f88","retryMessage(uint16,bytes,uint64,bytes)":"d1deba1f","retryPayload(bytes)":"0fbb7cbc","setChainId(uint64,uint16)":"10d06fd4","setConfig(uint16,uint16,uint256,bytes)":"cbed8b9c","setLzEndpoint(address)":"d9331a11","setReceiveVersion(uint16)":"10ddb137","setSendVersion(uint16)":"07e0db17","setTrustedRemote(uint16,bytes)":"eb8d72b7","superChainId(uint16)":"f2d39b60","superRegistry()":"24c73dda","trustedRemoteLookup(uint16)":"7533d788"},"id":121}