{"abi":[{"type":"function","name":"VARIANT","inputs":[],"outputs":[{"name":"","type":"uint16","internalType":"uint16"}],"stateMutability":"view"}],"bytecode":{"object":"0x60c1610052600b82828239805160001a607314610045577f4e487b7100000000000000000000000000000000000000000000000000000000600052600060045260246000fd5b30600052607381538281f3fe730000000000000000000000000000000000000000301460806040526004361060335760003560e01c806326418953146038575b600080fd5b603e6052565b604051604991906072565b60405180910390f35b600181565b600061ffff82169050919050565b606c816057565b82525050565b6000602082019050608560008301846065565b9291505056fea26469706673582212208fc9aace65d9918f350664e76afc60403246a46c8a97a1e135af0f2efd4cda7e64736f6c63430008170033","linkReferences":{}},"methodIdentifiers":{"VARIANT()":"26418953"},"id":190}