{"abi":[{"type":"function","name":"setSuperPositions","inputs":[{"name":"_superPositionsSum","type":"uint256","internalType":"uint256"}],"outputs":[],"stateMutability":"nonpayable"},{"type":"function","name":"setVaultShares","inputs":[{"name":"_vaultShares","type":"uint256","internalType":"uint256"}],"outputs":[],"stateMutability":"nonpayable"},{"type":"function","name":"superPositionsSum","inputs":[],"outputs":[{"name":"","type":"uint256","internalType":"uint256"}],"stateMutability":"view"},{"type":"function","name":"vaultShares","inputs":[],"outputs":[{"name":"","type":"uint256","internalType":"uint256"}],"stateMutability":"view"}],"bytecode":{"object":"0x608060405234801561001057600080fd5b506101ad806100206000396000f3fe608060405234801561001057600080fd5b506004361061004c5760003560e01c80630158945314610051578063067ed8f01461006d578063514177081461008b578063c043a50f146100a7575b600080fd5b61006b60048036038101906100669190610120565b6100c5565b005b6100756100cf565b604051610082919061015c565b60405180910390f35b6100a560048036038101906100a09190610120565b6100d5565b005b6100af6100df565b6040516100bc919061015c565b60405180910390f35b8060008190555050565b60015481565b8060018190555050565b60005481565b600080fd5b6000819050919050565b6100fd816100ea565b811461010857600080fd5b50565b60008135905061011a816100f4565b92915050565b600060208284031215610136576101356100e5565b5b60006101448482850161010b565b91505092915050565b610156816100ea565b82525050565b6000602082019050610171600083018461014d565b9291505056fea2646970667358221220830d54816377d1cd26c619d2c9322ee13cb503b702091e4abab1267d5c34248564736f6c63430008170033","linkReferences":{}},"methodIdentifiers":{"setSuperPositions(uint256)":"51417708","setVaultShares(uint256)":"01589453","superPositionsSum()":"067ed8f0","vaultShares()":"c043a50f"},"id":318}